{
  "contracts/SupplyChain.sol": {
    "SupplyChain": {
      "abi": [
        {
          "inputs": [
            {
              "internalType": "address[]",
              "name": "_user",
              "type": "address[]"
            },
            {
              "internalType": "address",
              "name": "_supplier",
              "type": "address"
            },
            {
              "internalType": "string[]",
              "name": "_keys",
              "type": "string[]"
            },
            {
              "internalType": "bytes[]",
              "name": "_values",
              "type": "bytes[]"
            },
            {
              "internalType": "uint256",
              "name": "_total",
              "type": "uint256"
            }
          ],
          "stateMutability": "nonpayable",
          "type": "constructor"
        },
        {
          "anonymous": false,
          "inputs": [
            {
              "indexed": false,
              "internalType": "address",
              "name": "owner",
              "type": "address"
            },
            {
              "indexed": false,
              "internalType": "address[]",
              "name": "user",
              "type": "address[]"
            },
            {
              "indexed": false,
              "internalType": "address",
              "name": "supplier",
              "type": "address"
            },
            {
              "indexed": false,
              "internalType": "uint256",
              "name": "totalBalance",
              "type": "uint256"
            },
            {
              "indexed": false,
              "internalType": "uint256",
              "name": "currentBalance",
              "type": "uint256"
            },
            {
              "indexed": false,
              "internalType": "uint256",
              "name": "deployAt",
              "type": "uint256"
            }
          ],
          "name": "contractCreated",
          "type": "event"
        },
        {
          "anonymous": false,
          "inputs": [
            {
              "indexed": false,
              "internalType": "address",
              "name": "sender",
              "type": "address"
            },
            {
              "indexed": false,
              "internalType": "uint256",
              "name": "amount",
              "type": "uint256"
            },
            {
              "indexed": false,
              "internalType": "uint256",
              "name": "totalBalance",
              "type": "uint256"
            },
            {
              "indexed": false,
              "internalType": "uint256",
              "name": "currentBalance",
              "type": "uint256"
            },
            {
              "indexed": false,
              "internalType": "uint256",
              "name": "receivedAt",
              "type": "uint256"
            }
          ],
          "name": "received",
          "type": "event"
        },
        {
          "anonymous": false,
          "inputs": [
            {
              "indexed": false,
              "internalType": "address",
              "name": "to",
              "type": "address"
            },
            {
              "indexed": false,
              "internalType": "uint256",
              "name": "amount",
              "type": "uint256"
            },
            {
              "indexed": false,
              "internalType": "uint256",
              "name": "totalBalance",
              "type": "uint256"
            },
            {
              "indexed": false,
              "internalType": "uint256",
              "name": "currentBalance",
              "type": "uint256"
            },
            {
              "indexed": false,
              "internalType": "uint256",
              "name": "widthdrewAt",
              "type": "uint256"
            }
          ],
          "name": "widthdrew",
          "type": "event"
        },
        {
          "inputs": [
            {
              "internalType": "address",
              "name": "_addressWallet",
              "type": "address"
            }
          ],
          "name": "getAssets",
          "outputs": [
            {
              "internalType": "uint256",
              "name": "",
              "type": "uint256"
            }
          ],
          "stateMutability": "view",
          "type": "function"
        },
        {
          "inputs": [],
          "name": "getBalance",
          "outputs": [
            {
              "internalType": "uint256",
              "name": "",
              "type": "uint256"
            }
          ],
          "stateMutability": "view",
          "type": "function"
        },
        {
          "inputs": [],
          "name": "getContractInformation",
          "outputs": [
            {
              "internalType": "bytes[]",
              "name": "",
              "type": "bytes[]"
            }
          ],
          "stateMutability": "view",
          "type": "function"
        },
        {
          "inputs": [],
          "name": "getOwnerAddressWallet",
          "outputs": [
            {
              "internalType": "address",
              "name": "",
              "type": "address"
            }
          ],
          "stateMutability": "view",
          "type": "function"
        },
        {
          "inputs": [],
          "name": "getSupplierAddressWallet",
          "outputs": [
            {
              "internalType": "address",
              "name": "",
              "type": "address"
            }
          ],
          "stateMutability": "view",
          "type": "function"
        },
        {
          "inputs": [],
          "name": "getUserAddressWallet",
          "outputs": [
            {
              "internalType": "address[]",
              "name": "",
              "type": "address[]"
            }
          ],
          "stateMutability": "view",
          "type": "function"
        },
        {
          "inputs": [],
          "name": "sendToSmartContract",
          "outputs": [],
          "stateMutability": "payable",
          "type": "function"
        },
        {
          "inputs": [
            {
              "internalType": "address payable",
              "name": "_addressWallet",
              "type": "address"
            },
            {
              "internalType": "uint256",
              "name": "_amount",
              "type": "uint256"
            }
          ],
          "name": "withDrawByCurrency",
          "outputs": [],
          "stateMutability": "payable",
          "type": "function"
        },
        {
          "inputs": [
            {
              "internalType": "address payable",
              "name": "_addressWallet",
              "type": "address"
            },
            {
              "internalType": "uint256",
              "name": "_percent",
              "type": "uint256"
            }
          ],
          "name": "withDrawByPercent",
          "outputs": [],
          "stateMutability": "payable",
          "type": "function"
        }
      ],
      "evm": {
        "bytecode": {
          "linkReferences": {},
          "object": "60806040523480156200001157600080fd5b5060405162002b0438038062002b048339818101604052810190620000379190620008ff565b8060068190555083600360006101000a81548173ffffffffffffffffffffffffffffffffffffffff021916908373ffffffffffffffffffffffffffffffffffffffff160217905550336000806101000a81548173ffffffffffffffffffffffffffffffffffffffff021916908373ffffffffffffffffffffffffffffffffffffffff16021790555060005b85518160ff161015620001cd576001868260ff1681518110620000ea57620000e9620009e4565b5b60200260200101519080600181540180825580915050600190039060005260206000200160009091909190916101000a81548173ffffffffffffffffffffffffffffffffffffffff021916908373ffffffffffffffffffffffffffffffffffffffff160217905550600060026000888460ff1681518110620001715762000170620009e4565b5b602002602001015173ffffffffffffffffffffffffffffffffffffffff1673ffffffffffffffffffffffffffffffffffffffff168152602001908152602001600020819055508080620001c49062000a4f565b915050620000c2565b5060005b83518160ff161015620002bb57828160ff1681518110620001f757620001f6620009e4565b5b60200260200101516004858360ff16815181106200021a5762000219620009e4565b5b602002602001015160405162000231919062000aca565b908152602001604051809103902090816200024d919062000d24565b506005848260ff1681518110620002695762000268620009e4565b5b6020026020010151908060018154018082558091505060019003906000526020600020016000909190919091509081620002a4919062000e70565b508080620002b29062000a4f565b915050620001d1565b507f68e8e16725ae304c7b00b773ba80b94a2ea18bebc9d7cc7ade4f8c4980649ae160008054906101000a900473ffffffffffffffffffffffffffffffffffffffff166001600360009054906101000a900473ffffffffffffffffffffffffffffffffffffffff1660065447426040516200033c96959493929190620010b5565b60405180910390a1505050505062001129565b6000604051905090565b600080fd5b600080fd5b600080fd5b6000601f19601f8301169050919050565b7f4e487b7100000000000000000000000000000000000000000000000000000000600052604160045260246000fd5b620003b38262000368565b810181811067ffffffffffffffff82111715620003d557620003d462000379565b5b80604052505050565b6000620003ea6200034f565b9050620003f88282620003a8565b919050565b600067ffffffffffffffff8211156200041b576200041a62000379565b5b602082029050602081019050919050565b600080fd5b600073ffffffffffffffffffffffffffffffffffffffff82169050919050565b60006200045e8262000431565b9050919050565b620004708162000451565b81146200047c57600080fd5b50565b600081519050620004908162000465565b92915050565b6000620004ad620004a784620003fd565b620003de565b90508083825260208201905060208402830185811115620004d357620004d26200042c565b5b835b81811015620005005780620004eb88826200047f565b845260208401935050602081019050620004d5565b5050509392505050565b600082601f83011262000522576200052162000363565b5b81516200053484826020860162000496565b91505092915050565b600067ffffffffffffffff8211156200055b576200055a62000379565b5b602082029050602081019050919050565b600080fd5b600067ffffffffffffffff8211156200058f576200058e62000379565b5b6200059a8262000368565b9050602081019050919050565b60005b83811015620005c7578082015181840152602081019050620005aa565b60008484015250505050565b6000620005ea620005e48462000571565b620003de565b9050828152602081018484840111156200060957620006086200056c565b5b62000616848285620005a7565b509392505050565b600082601f83011262000636576200063562000363565b5b815162000648848260208601620005d3565b91505092915050565b60006200066862000662846200053d565b620003de565b905080838252602082019050602084028301858111156200068e576200068d6200042c565b5b835b81811015620006dc57805167ffffffffffffffff811115620006b757620006b662000363565b5b808601620006c689826200061e565b8552602085019450505060208101905062000690565b5050509392505050565b600082601f830112620006fe57620006fd62000363565b5b81516200071084826020860162000651565b91505092915050565b600067ffffffffffffffff82111562000737576200073662000379565b5b602082029050602081019050919050565b600067ffffffffffffffff82111562000766576200076562000379565b5b620007718262000368565b9050602081019050919050565b6000620007956200078f8462000748565b620003de565b905082815260208101848484011115620007b457620007b36200056c565b5b620007c1848285620005a7565b509392505050565b600082601f830112620007e157620007e062000363565b5b8151620007f38482602086016200077e565b91505092915050565b6000620008136200080d8462000719565b620003de565b905080838252602082019050602084028301858111156200083957620008386200042c565b5b835b818110156200088757805167ffffffffffffffff81111562000862576200086162000363565b5b808601620008718982620007c9565b855260208501945050506020810190506200083b565b5050509392505050565b600082601f830112620008a957620008a862000363565b5b8151620008bb848260208601620007fc565b91505092915050565b6000819050919050565b620008d981620008c4565b8114620008e557600080fd5b50565b600081519050620008f981620008ce565b92915050565b600080600080600060a086880312156200091e576200091d62000359565b5b600086015167ffffffffffffffff8111156200093f576200093e6200035e565b5b6200094d888289016200050a565b955050602062000960888289016200047f565b945050604086015167ffffffffffffffff8111156200098457620009836200035e565b5b6200099288828901620006e6565b935050606086015167ffffffffffffffff811115620009b657620009b56200035e565b5b620009c48882890162000891565b9250506080620009d788828901620008e8565b9150509295509295909350565b7f4e487b7100000000000000000000000000000000000000000000000000000000600052603260045260246000fd5b7f4e487b7100000000000000000000000000000000000000000000000000000000600052601160045260246000fd5b600060ff82169050919050565b600062000a5c8262000a42565b915060ff820362000a725762000a7162000a13565b5b600182019050919050565b600081519050919050565b600081905092915050565b600062000aa08262000a7d565b62000aac818562000a88565b935062000abe818560208601620005a7565b80840191505092915050565b600062000ad8828462000a93565b915081905092915050565b600081519050919050565b7f4e487b7100000000000000000000000000000000000000000000000000000000600052602260045260246000fd5b6000600282049050600182168062000b3657607f821691505b60208210810362000b4c5762000b4b62000aee565b5b50919050565b60008190508160005260206000209050919050565b60006020601f8301049050919050565b600082821b905092915050565b60006008830262000bb67fffffffffffffffffffffffffffffffffffffffffffffffffffffffffffffffff8262000b77565b62000bc2868362000b77565b95508019841693508086168417925050509392505050565b6000819050919050565b600062000c0562000bff62000bf984620008c4565b62000bda565b620008c4565b9050919050565b6000819050919050565b62000c218362000be4565b62000c3962000c308262000c0c565b84845462000b84565b825550505050565b600090565b62000c5062000c41565b62000c5d81848462000c16565b505050565b5b8181101562000c855762000c7960008262000c46565b60018101905062000c63565b5050565b601f82111562000cd45762000c9e8162000b52565b62000ca98462000b67565b8101602085101562000cb9578190505b62000cd162000cc88562000b67565b83018262000c62565b50505b505050565b600082821c905092915050565b600062000cf96000198460080262000cd9565b1980831691505092915050565b600062000d14838362000ce6565b9150826002028217905092915050565b62000d2f8262000ae3565b67ffffffffffffffff81111562000d4b5762000d4a62000379565b5b62000d57825462000b1d565b62000d6482828562000c89565b600060209050601f83116001811462000d9c576000841562000d87578287015190505b62000d93858262000d06565b86555062000e03565b601f19841662000dac8662000b52565b60005b8281101562000dd65784890151825560018201915060208501945060208101905062000daf565b8683101562000df6578489015162000df2601f89168262000ce6565b8355505b6001600288020188555050505b505050505050565b60008190508160005260206000209050919050565b601f82111562000e6b5762000e358162000e0b565b62000e408462000b67565b8101602085101562000e50578190505b62000e6862000e5f8562000b67565b83018262000c62565b50505b505050565b62000e7b8262000a7d565b67ffffffffffffffff81111562000e975762000e9662000379565b5b62000ea3825462000b1d565b62000eb082828562000e20565b600060209050601f83116001811462000ee8576000841562000ed3578287015190505b62000edf858262000d06565b86555062000f4f565b601f19841662000ef88662000e0b565b60005b8281101562000f225784890151825560018201915060208501945060208101905062000efb565b8683101562000f42578489015162000f3e601f89168262000ce6565b8355505b6001600288020188555050505b505050505050565b62000f628162000451565b82525050565b600081549050919050565b600082825260208201905092915050565b60008190508160005260206000209050919050565b62000fa48162000451565b82525050565b600062000fb8838362000f99565b60208301905092915050565b60008160001c9050919050565b600073ffffffffffffffffffffffffffffffffffffffff82169050919050565b600062001008620010028362000fc4565b62000fd1565b9050919050565b60006200101d825462000ff1565b9050919050565b6000600182019050919050565b60006200103e8262000f68565b6200104a818562000f73565b9350620010578362000f84565b8060005b8381101562001097576200106f826200100f565b6200107b888262000faa565b9750620010888362001024565b9250506001810190506200105b565b5085935050505092915050565b620010af81620008c4565b82525050565b600060c082019050620010cc600083018962000f57565b8181036020830152620010e0818862001031565b9050620010f1604083018762000f57565b620011006060830186620010a4565b6200110f6080830185620010a4565b6200111e60a0830184620010a4565b979650505050505050565b6119cb80620011396000396000f3fe6080604052600436106100865760003560e01c8063742978da11610059578063742978da14610116578063904e3cff146101535780639c01b52f1461016f578063f6dfdad11461019a578063fbb05337146101c557610086565b806312065fe01461008b57806314a24bcf146100b65780633f44327a146100e15780634510fb591461010c575b600080fd5b34801561009757600080fd5b506100a06101e1565b6040516100ad9190610f81565b60405180910390f35b3480156100c257600080fd5b506100cb6101e9565b6040516100d89190610fdd565b60405180910390f35b3480156100ed57600080fd5b506100f6610213565b60405161010391906110b6565b60405180910390f35b6101146102a1565b005b34801561012257600080fd5b5061013d60048036038101906101389190611109565b610422565b60405161014a9190610f81565b60405180910390f35b61016d600480360381019061016891906111a0565b610553565b005b34801561017b57600080fd5b5061018461097a565b6040516101919190610fdd565b60405180910390f35b3480156101a657600080fd5b506101af6109a3565b6040516101bc9190611332565b60405180910390f35b6101df60048036038101906101da91906111a0565b610b09565b005b600047905090565b6000600360009054906101000a900473ffffffffffffffffffffffffffffffffffffffff16905090565b6060600180548060200260200160405190810160405280929190818152602001828054801561029757602002820191906000526020600020905b8160009054906101000a900473ffffffffffffffffffffffffffffffffffffffff1673ffffffffffffffffffffffffffffffffffffffff168152602001906001019080831161024d575b5050505050905090565b336000805b6001805490508160ff1610156103465760018160ff16815481106102cd576102cc611354565b5b9060005260206000200160009054906101000a900473ffffffffffffffffffffffffffffffffffffffff1673ffffffffffffffffffffffffffffffffffffffff168373ffffffffffffffffffffffffffffffffffffffff16036103335760019150610346565b808061033e906113bf565b9150506102a6565b5080610387576040517f08c379a000000000000000000000000000000000000000000000000000000000815260040161037e9061146b565b60405180910390fd5b34600260003373ffffffffffffffffffffffffffffffffffffffff1673ffffffffffffffffffffffffffffffffffffffff16815260200190815260200160002060008282546103d6919061148b565b925050819055507fe4f13824473bb5d7c83a33648a5b781337db89c57cdfdb2caf2c87a9ca0391f6333460065447426040516104169594939291906114bf565b60405180910390a15050565b6000816000805b6001805490508160ff1610156104c95760018160ff16815481106104505761044f611354565b5b9060005260206000200160009054906101000a900473ffffffffffffffffffffffffffffffffffffffff1673ffffffffffffffffffffffffffffffffffffffff168373ffffffffffffffffffffffffffffffffffffffff16036104b657600191506104c9565b80806104c1906113bf565b915050610429565b508061050a576040517f08c379a00000000000000000000000000000000000000000000000000000000081526004016105019061146b565b60405180910390fd5b600260008573ffffffffffffffffffffffffffffffffffffffff1673ffffffffffffffffffffffffffffffffffffffff1681526020019081526020016000205492505050919050565b336000805b6001805490508160ff1610156105f85760018160ff168154811061057f5761057e611354565b5b9060005260206000200160009054906101000a900473ffffffffffffffffffffffffffffffffffffffff1673ffffffffffffffffffffffffffffffffffffffff168373ffffffffffffffffffffffffffffffffffffffff16036105e557600191506105f8565b80806105f0906113bf565b915050610558565b5080610639576040517f08c379a00000000000000000000000000000000000000000000000000000000081526004016106309061146b565b60405180910390fd5b836000805b6001805490508160ff1610156106de5760018160ff168154811061066557610664611354565b5b9060005260206000200160009054906101000a900473ffffffffffffffffffffffffffffffffffffffff1673ffffffffffffffffffffffffffffffffffffffff168373ffffffffffffffffffffffffffffffffffffffff16036106cb57600191506106de565b80806106d6906113bf565b91505061063e565b5080806107385750600360009054906101000a900473ffffffffffffffffffffffffffffffffffffffff1673ffffffffffffffffffffffffffffffffffffffff168273ffffffffffffffffffffffffffffffffffffffff16145b610777576040517f08c379a000000000000000000000000000000000000000000000000000000000815260040161076e90611584565b60405180910390fd5b84804710156107bb576040517f08c379a00000000000000000000000000000000000000000000000000000000081526004016107b2906115f0565b60405180910390fd5b600360009054906101000a900473ffffffffffffffffffffffffffffffffffffffff1673ffffffffffffffffffffffffffffffffffffffff168773ffffffffffffffffffffffffffffffffffffffff16146108e95785600260008973ffffffffffffffffffffffffffffffffffffffff1673ffffffffffffffffffffffffffffffffffffffff168152602001908152602001600020541015610892576040517f08c379a00000000000000000000000000000000000000000000000000000000081526004016108899061165c565b60405180910390fd5b85600260008973ffffffffffffffffffffffffffffffffffffffff1673ffffffffffffffffffffffffffffffffffffffff16815260200190815260200160002060008282546108e1919061167c565b925050819055505b8673ffffffffffffffffffffffffffffffffffffffff166108fc879081150290604051600060405180830381858888f1935050505015801561092f573d6000803e3d6000fd5b507f132717cc7ce0e7288e4e1e75cd3527373df35d716a6d9d576199b1ee22b159238787600654474260405161096995949392919061170f565b60405180910390a150505050505050565b60008060009054906101000a900473ffffffffffffffffffffffffffffffffffffffff16905090565b6060600060058054905067ffffffffffffffff8111156109c6576109c5611762565b5b6040519080825280602002602001820160405280156109f957816020015b60608152602001906001900390816109e45790505b50905060005b600580549050811015610b0157600460058281548110610a2257610a21611354565b5b90600052602060002001604051610a399190611894565b90815260200160405180910390208054610a52906117c0565b80601f0160208091040260200160405190810160405280929190818152602001828054610a7e906117c0565b8015610acb5780601f10610aa057610100808354040283529160200191610acb565b820191906000526020600020905b815481529060010190602001808311610aae57829003601f168201915b5050505050828281518110610ae357610ae2611354565b5b60200260200101819052508080610af9906118ab565b9150506109ff565b508091505090565b336000805b6001805490508160ff161015610bae5760018160ff1681548110610b3557610b34611354565b5b9060005260206000200160009054906101000a900473ffffffffffffffffffffffffffffffffffffffff1673ffffffffffffffffffffffffffffffffffffffff168373ffffffffffffffffffffffffffffffffffffffff1603610b9b5760019150610bae565b8080610ba6906113bf565b915050610b0e565b5080610bef576040517f08c379a0000000000000000000000000000000000000000000000000000000008152600401610be69061146b565b60405180910390fd5b836000805b6001805490508160ff161015610c945760018160ff1681548110610c1b57610c1a611354565b5b9060005260206000200160009054906101000a900473ffffffffffffffffffffffffffffffffffffffff1673ffffffffffffffffffffffffffffffffffffffff168373ffffffffffffffffffffffffffffffffffffffff1603610c815760019150610c94565b8080610c8c906113bf565b915050610bf4565b508080610cee5750600360009054906101000a900473ffffffffffffffffffffffffffffffffffffffff1673ffffffffffffffffffffffffffffffffffffffff168273ffffffffffffffffffffffffffffffffffffffff16145b610d2d576040517f08c379a0000000000000000000000000000000000000000000000000000000008152600401610d2490611584565b60405180910390fd5b606485600654610d3d91906118f3565b610d479190611964565b80471015610d8a576040517f08c379a0000000000000000000000000000000000000000000000000000000008152600401610d81906115f0565b60405180910390fd5b6000606487600654610d9c91906118f3565b610da69190611964565b9050600360009054906101000a900473ffffffffffffffffffffffffffffffffffffffff1673ffffffffffffffffffffffffffffffffffffffff168873ffffffffffffffffffffffffffffffffffffffff1614610ed65780600260008a73ffffffffffffffffffffffffffffffffffffffff1673ffffffffffffffffffffffffffffffffffffffff168152602001908152602001600020541015610e7f576040517f08c379a0000000000000000000000000000000000000000000000000000000008152600401610e769061165c565b60405180910390fd5b80600260008a73ffffffffffffffffffffffffffffffffffffffff1673ffffffffffffffffffffffffffffffffffffffff1681526020019081526020016000206000828254610ece919061167c565b925050819055505b8773ffffffffffffffffffffffffffffffffffffffff166108fc829081150290604051600060405180830381858888f19350505050158015610f1c573d6000803e3d6000fd5b507f132717cc7ce0e7288e4e1e75cd3527373df35d716a6d9d576199b1ee22b1592388826006544742604051610f5695949392919061170f565b60405180910390a15050505050505050565b6000819050919050565b610f7b81610f68565b82525050565b6000602082019050610f966000830184610f72565b92915050565b600073ffffffffffffffffffffffffffffffffffffffff82169050919050565b6000610fc782610f9c565b9050919050565b610fd781610fbc565b82525050565b6000602082019050610ff26000830184610fce565b92915050565b600081519050919050565b600082825260208201905092915050565b6000819050602082019050919050565b61102d81610fbc565b82525050565b600061103f8383611024565b60208301905092915050565b6000602082019050919050565b600061106382610ff8565b61106d8185611003565b935061107883611014565b8060005b838110156110a95781516110908882611033565b975061109b8361104b565b92505060018101905061107c565b5085935050505092915050565b600060208201905081810360008301526110d08184611058565b905092915050565b600080fd5b6110e681610fbc565b81146110f157600080fd5b50565b600081359050611103816110dd565b92915050565b60006020828403121561111f5761111e6110d8565b5b600061112d848285016110f4565b91505092915050565b600061114182610f9c565b9050919050565b61115181611136565b811461115c57600080fd5b50565b60008135905061116e81611148565b92915050565b61117d81610f68565b811461118857600080fd5b50565b60008135905061119a81611174565b92915050565b600080604083850312156111b7576111b66110d8565b5b60006111c58582860161115f565b92505060206111d68582860161118b565b9150509250929050565b600081519050919050565b600082825260208201905092915050565b6000819050602082019050919050565b600081519050919050565b600082825260208201905092915050565b60005b8381101561124657808201518184015260208101905061122b565b60008484015250505050565b6000601f19601f8301169050919050565b600061126e8261120c565b6112788185611217565b9350611288818560208601611228565b61129181611252565b840191505092915050565b60006112a88383611263565b905092915050565b6000602082019050919050565b60006112c8826111e0565b6112d281856111eb565b9350836020820285016112e4856111fc565b8060005b858110156113205784840389528151611301858261129c565b945061130c836112b0565b925060208a019950506001810190506112e8565b50829750879550505050505092915050565b6000602082019050818103600083015261134c81846112bd565b905092915050565b7f4e487b7100000000000000000000000000000000000000000000000000000000600052603260045260246000fd5b7f4e487b7100000000000000000000000000000000000000000000000000000000600052601160045260246000fd5b600060ff82169050919050565b60006113ca826113b2565b915060ff82036113dd576113dc611383565b5b600182019050919050565b600082825260208201905092915050565b7f4f6e6c79207061727469636970616e7420776974686f757420737570706c696560008201527f722063616e2063616c6c20746869732066756e6374696f6e0000000000000000602082015250565b60006114556038836113e8565b9150611460826113f9565b604082019050919050565b6000602082019050818103600083015261148481611448565b9050919050565b600061149682610f68565b91506114a183610f68565b92508282019050808211156114b9576114b8611383565b5b92915050565b600060a0820190506114d46000830188610fce565b6114e16020830187610f72565b6114ee6040830186610f72565b6114fb6060830185610f72565b6115086080830184610f72565b9695505050505050565b7f4f6e6c79207061727469636970616e74206f7220737570706c6965722063616e60008201527f2072656365697665000000000000000000000000000000000000000000000000602082015250565b600061156e6028836113e8565b915061157982611512565b604082019050919050565b6000602082019050818103600083015261159d81611561565b9050919050565b7f4e6f7420656e6f75676820657468657273000000000000000000000000000000600082015250565b60006115da6011836113e8565b91506115e5826115a4565b602082019050919050565b60006020820190508181036000830152611609816115cd565b9050919050565b7f4e6f7420656e6f75676820617373657473000000000000000000000000000000600082015250565b60006116466011836113e8565b915061165182611610565b602082019050919050565b6000602082019050818103600083015261167581611639565b9050919050565b600061168782610f68565b915061169283610f68565b92508282039050818111156116aa576116a9611383565b5b92915050565b6000819050919050565b60006116d56116d06116cb84610f9c565b6116b0565b610f9c565b9050919050565b60006116e7826116ba565b9050919050565b60006116f9826116dc565b9050919050565b611709816116ee565b82525050565b600060a0820190506117246000830188611700565b6117316020830187610f72565b61173e6040830186610f72565b61174b6060830185610f72565b6117586080830184610f72565b9695505050505050565b7f4e487b7100000000000000000000000000000000000000000000000000000000600052604160045260246000fd5b7f4e487b7100000000000000000000000000000000000000000000000000000000600052602260045260246000fd5b600060028204905060018216806117d857607f821691505b6020821081036117eb576117ea611791565b5b50919050565b600081905092915050565b60008190508160005260206000209050919050565b6000815461181e816117c0565b61182881866117f1565b9450600182166000811461184357600181146118585761188b565b60ff198316865281151582028601935061188b565b611861856117fc565b60005b8381101561188357815481890152600182019150602081019050611864565b838801955050505b50505092915050565b60006118a08284611811565b915081905092915050565b60006118b682610f68565b91507fffffffffffffffffffffffffffffffffffffffffffffffffffffffffffffffff82036118e8576118e7611383565b5b600182019050919050565b60006118fe82610f68565b915061190983610f68565b925082820261191781610f68565b9150828204841483151761192e5761192d611383565b5b5092915050565b7f4e487b7100000000000000000000000000000000000000000000000000000000600052601260045260246000fd5b600061196f82610f68565b915061197a83610f68565b92508261198a57611989611935565b5b82820490509291505056fea2646970667358221220d34a48d9ca86ae11505e6e2761910076c007d793a617000abf8c7966c45a4afb64736f6c63430008130033",
          "opcodes": "PUSH1 0x80 PUSH1 0x40 MSTORE CALLVALUE DUP1 ISZERO PUSH3 0x11 JUMPI PUSH1 0x0 DUP1 REVERT JUMPDEST POP PUSH1 0x40 MLOAD PUSH3 0x2B04 CODESIZE SUB DUP1 PUSH3 0x2B04 DUP4 CODECOPY DUP2 DUP2 ADD PUSH1 0x40 MSTORE DUP2 ADD SWAP1 PUSH3 0x37 SWAP2 SWAP1 PUSH3 0x8FF JUMP JUMPDEST DUP1 PUSH1 0x6 DUP2 SWAP1 SSTORE POP DUP4 PUSH1 0x3 PUSH1 0x0 PUSH2 0x100 EXP DUP2 SLOAD DUP2 PUSH20 0xFFFFFFFFFFFFFFFFFFFFFFFFFFFFFFFFFFFFFFFF MUL NOT AND SWAP1 DUP4 PUSH20 0xFFFFFFFFFFFFFFFFFFFFFFFFFFFFFFFFFFFFFFFF AND MUL OR SWAP1 SSTORE POP CALLER PUSH1 0x0 DUP1 PUSH2 0x100 EXP DUP2 SLOAD DUP2 PUSH20 0xFFFFFFFFFFFFFFFFFFFFFFFFFFFFFFFFFFFFFFFF MUL NOT AND SWAP1 DUP4 PUSH20 0xFFFFFFFFFFFFFFFFFFFFFFFFFFFFFFFFFFFFFFFF AND MUL OR SWAP1 SSTORE POP PUSH1 0x0 JUMPDEST DUP6 MLOAD DUP2 PUSH1 0xFF AND LT ISZERO PUSH3 0x1CD JUMPI PUSH1 0x1 DUP7 DUP3 PUSH1 0xFF AND DUP2 MLOAD DUP2 LT PUSH3 0xEA JUMPI PUSH3 0xE9 PUSH3 0x9E4 JUMP JUMPDEST JUMPDEST PUSH1 0x20 MUL PUSH1 0x20 ADD ADD MLOAD SWAP1 DUP1 PUSH1 0x1 DUP2 SLOAD ADD DUP1 DUP3 SSTORE DUP1 SWAP2 POP POP PUSH1 0x1 SWAP1 SUB SWAP1 PUSH1 0x0 MSTORE PUSH1 0x20 PUSH1 0x0 KECCAK256 ADD PUSH1 0x0 SWAP1 SWAP2 SWAP1 SWAP2 SWAP1 SWAP2 PUSH2 0x100 EXP DUP2 SLOAD DUP2 PUSH20 0xFFFFFFFFFFFFFFFFFFFFFFFFFFFFFFFFFFFFFFFF MUL NOT AND SWAP1 DUP4 PUSH20 0xFFFFFFFFFFFFFFFFFFFFFFFFFFFFFFFFFFFFFFFF AND MUL OR SWAP1 SSTORE POP PUSH1 0x0 PUSH1 0x2 PUSH1 0x0 DUP9 DUP5 PUSH1 0xFF AND DUP2 MLOAD DUP2 LT PUSH3 0x171 JUMPI PUSH3 0x170 PUSH3 0x9E4 JUMP JUMPDEST JUMPDEST PUSH1 0x20 MUL PUSH1 0x20 ADD ADD MLOAD PUSH20 0xFFFFFFFFFFFFFFFFFFFFFFFFFFFFFFFFFFFFFFFF AND PUSH20 0xFFFFFFFFFFFFFFFFFFFFFFFFFFFFFFFFFFFFFFFF AND DUP2 MSTORE PUSH1 0x20 ADD SWAP1 DUP2 MSTORE PUSH1 0x20 ADD PUSH1 0x0 KECCAK256 DUP2 SWAP1 SSTORE POP DUP1 DUP1 PUSH3 0x1C4 SWAP1 PUSH3 0xA4F JUMP JUMPDEST SWAP2 POP POP PUSH3 0xC2 JUMP JUMPDEST POP PUSH1 0x0 JUMPDEST DUP4 MLOAD DUP2 PUSH1 0xFF AND LT ISZERO PUSH3 0x2BB JUMPI DUP3 DUP2 PUSH1 0xFF AND DUP2 MLOAD DUP2 LT PUSH3 0x1F7 JUMPI PUSH3 0x1F6 PUSH3 0x9E4 JUMP JUMPDEST JUMPDEST PUSH1 0x20 MUL PUSH1 0x20 ADD ADD MLOAD PUSH1 0x4 DUP6 DUP4 PUSH1 0xFF AND DUP2 MLOAD DUP2 LT PUSH3 0x21A JUMPI PUSH3 0x219 PUSH3 0x9E4 JUMP JUMPDEST JUMPDEST PUSH1 0x20 MUL PUSH1 0x20 ADD ADD MLOAD PUSH1 0x40 MLOAD PUSH3 0x231 SWAP2 SWAP1 PUSH3 0xACA JUMP JUMPDEST SWAP1 DUP2 MSTORE PUSH1 0x20 ADD PUSH1 0x40 MLOAD DUP1 SWAP2 SUB SWAP1 KECCAK256 SWAP1 DUP2 PUSH3 0x24D SWAP2 SWAP1 PUSH3 0xD24 JUMP JUMPDEST POP PUSH1 0x5 DUP5 DUP3 PUSH1 0xFF AND DUP2 MLOAD DUP2 LT PUSH3 0x269 JUMPI PUSH3 0x268 PUSH3 0x9E4 JUMP JUMPDEST JUMPDEST PUSH1 0x20 MUL PUSH1 0x20 ADD ADD MLOAD SWAP1 DUP1 PUSH1 0x1 DUP2 SLOAD ADD DUP1 DUP3 SSTORE DUP1 SWAP2 POP POP PUSH1 0x1 SWAP1 SUB SWAP1 PUSH1 0x0 MSTORE PUSH1 0x20 PUSH1 0x0 KECCAK256 ADD PUSH1 0x0 SWAP1 SWAP2 SWAP1 SWAP2 SWAP1 SWAP2 POP SWAP1 DUP2 PUSH3 0x2A4 SWAP2 SWAP1 PUSH3 0xE70 JUMP JUMPDEST POP DUP1 DUP1 PUSH3 0x2B2 SWAP1 PUSH3 0xA4F JUMP JUMPDEST SWAP2 POP POP PUSH3 0x1D1 JUMP JUMPDEST POP PUSH32 0x68E8E16725AE304C7B00B773BA80B94A2EA18BEBC9D7CC7ADE4F8C4980649AE1 PUSH1 0x0 DUP1 SLOAD SWAP1 PUSH2 0x100 EXP SWAP1 DIV PUSH20 0xFFFFFFFFFFFFFFFFFFFFFFFFFFFFFFFFFFFFFFFF AND PUSH1 0x1 PUSH1 0x3 PUSH1 0x0 SWAP1 SLOAD SWAP1 PUSH2 0x100 EXP SWAP1 DIV PUSH20 0xFFFFFFFFFFFFFFFFFFFFFFFFFFFFFFFFFFFFFFFF AND PUSH1 0x6 SLOAD SELFBALANCE TIMESTAMP PUSH1 0x40 MLOAD PUSH3 0x33C SWAP7 SWAP6 SWAP5 SWAP4 SWAP3 SWAP2 SWAP1 PUSH3 0x10B5 JUMP JUMPDEST PUSH1 0x40 MLOAD DUP1 SWAP2 SUB SWAP1 LOG1 POP POP POP POP POP PUSH3 0x1129 JUMP JUMPDEST PUSH1 0x0 PUSH1 0x40 MLOAD SWAP1 POP SWAP1 JUMP JUMPDEST PUSH1 0x0 DUP1 REVERT JUMPDEST PUSH1 0x0 DUP1 REVERT JUMPDEST PUSH1 0x0 DUP1 REVERT JUMPDEST PUSH1 0x0 PUSH1 0x1F NOT PUSH1 0x1F DUP4 ADD AND SWAP1 POP SWAP2 SWAP1 POP JUMP JUMPDEST PUSH32 0x4E487B7100000000000000000000000000000000000000000000000000000000 PUSH1 0x0 MSTORE PUSH1 0x41 PUSH1 0x4 MSTORE PUSH1 0x24 PUSH1 0x0 REVERT JUMPDEST PUSH3 0x3B3 DUP3 PUSH3 0x368 JUMP JUMPDEST DUP2 ADD DUP2 DUP2 LT PUSH8 0xFFFFFFFFFFFFFFFF DUP3 GT OR ISZERO PUSH3 0x3D5 JUMPI PUSH3 0x3D4 PUSH3 0x379 JUMP JUMPDEST JUMPDEST DUP1 PUSH1 0x40 MSTORE POP POP POP JUMP JUMPDEST PUSH1 0x0 PUSH3 0x3EA PUSH3 0x34F JUMP JUMPDEST SWAP1 POP PUSH3 0x3F8 DUP3 DUP3 PUSH3 0x3A8 JUMP JUMPDEST SWAP2 SWAP1 POP JUMP JUMPDEST PUSH1 0x0 PUSH8 0xFFFFFFFFFFFFFFFF DUP3 GT ISZERO PUSH3 0x41B JUMPI PUSH3 0x41A PUSH3 0x379 JUMP JUMPDEST JUMPDEST PUSH1 0x20 DUP3 MUL SWAP1 POP PUSH1 0x20 DUP2 ADD SWAP1 POP SWAP2 SWAP1 POP JUMP JUMPDEST PUSH1 0x0 DUP1 REVERT JUMPDEST PUSH1 0x0 PUSH20 0xFFFFFFFFFFFFFFFFFFFFFFFFFFFFFFFFFFFFFFFF DUP3 AND SWAP1 POP SWAP2 SWAP1 POP JUMP JUMPDEST PUSH1 0x0 PUSH3 0x45E DUP3 PUSH3 0x431 JUMP JUMPDEST SWAP1 POP SWAP2 SWAP1 POP JUMP JUMPDEST PUSH3 0x470 DUP2 PUSH3 0x451 JUMP JUMPDEST DUP2 EQ PUSH3 0x47C JUMPI PUSH1 0x0 DUP1 REVERT JUMPDEST POP JUMP JUMPDEST PUSH1 0x0 DUP2 MLOAD SWAP1 POP PUSH3 0x490 DUP2 PUSH3 0x465 JUMP JUMPDEST SWAP3 SWAP2 POP POP JUMP JUMPDEST PUSH1 0x0 PUSH3 0x4AD PUSH3 0x4A7 DUP5 PUSH3 0x3FD JUMP JUMPDEST PUSH3 0x3DE JUMP JUMPDEST SWAP1 POP DUP1 DUP4 DUP3 MSTORE PUSH1 0x20 DUP3 ADD SWAP1 POP PUSH1 0x20 DUP5 MUL DUP4 ADD DUP6 DUP2 GT ISZERO PUSH3 0x4D3 JUMPI PUSH3 0x4D2 PUSH3 0x42C JUMP JUMPDEST JUMPDEST DUP4 JUMPDEST DUP2 DUP2 LT ISZERO PUSH3 0x500 JUMPI DUP1 PUSH3 0x4EB DUP9 DUP3 PUSH3 0x47F JUMP JUMPDEST DUP5 MSTORE PUSH1 0x20 DUP5 ADD SWAP4 POP POP PUSH1 0x20 DUP2 ADD SWAP1 POP PUSH3 0x4D5 JUMP JUMPDEST POP POP POP SWAP4 SWAP3 POP POP POP JUMP JUMPDEST PUSH1 0x0 DUP3 PUSH1 0x1F DUP4 ADD SLT PUSH3 0x522 JUMPI PUSH3 0x521 PUSH3 0x363 JUMP JUMPDEST JUMPDEST DUP2 MLOAD PUSH3 0x534 DUP5 DUP3 PUSH1 0x20 DUP7 ADD PUSH3 0x496 JUMP JUMPDEST SWAP2 POP POP SWAP3 SWAP2 POP POP JUMP JUMPDEST PUSH1 0x0 PUSH8 0xFFFFFFFFFFFFFFFF DUP3 GT ISZERO PUSH3 0x55B JUMPI PUSH3 0x55A PUSH3 0x379 JUMP JUMPDEST JUMPDEST PUSH1 0x20 DUP3 MUL SWAP1 POP PUSH1 0x20 DUP2 ADD SWAP1 POP SWAP2 SWAP1 POP JUMP JUMPDEST PUSH1 0x0 DUP1 REVERT JUMPDEST PUSH1 0x0 PUSH8 0xFFFFFFFFFFFFFFFF DUP3 GT ISZERO PUSH3 0x58F JUMPI PUSH3 0x58E PUSH3 0x379 JUMP JUMPDEST JUMPDEST PUSH3 0x59A DUP3 PUSH3 0x368 JUMP JUMPDEST SWAP1 POP PUSH1 0x20 DUP2 ADD SWAP1 POP SWAP2 SWAP1 POP JUMP JUMPDEST PUSH1 0x0 JUMPDEST DUP4 DUP2 LT ISZERO PUSH3 0x5C7 JUMPI DUP1 DUP3 ADD MLOAD DUP2 DUP5 ADD MSTORE PUSH1 0x20 DUP2 ADD SWAP1 POP PUSH3 0x5AA JUMP JUMPDEST PUSH1 0x0 DUP5 DUP5 ADD MSTORE POP POP POP POP JUMP JUMPDEST PUSH1 0x0 PUSH3 0x5EA PUSH3 0x5E4 DUP5 PUSH3 0x571 JUMP JUMPDEST PUSH3 0x3DE JUMP JUMPDEST SWAP1 POP DUP3 DUP2 MSTORE PUSH1 0x20 DUP2 ADD DUP5 DUP5 DUP5 ADD GT ISZERO PUSH3 0x609 JUMPI PUSH3 0x608 PUSH3 0x56C JUMP JUMPDEST JUMPDEST PUSH3 0x616 DUP5 DUP3 DUP6 PUSH3 0x5A7 JUMP JUMPDEST POP SWAP4 SWAP3 POP POP POP JUMP JUMPDEST PUSH1 0x0 DUP3 PUSH1 0x1F DUP4 ADD SLT PUSH3 0x636 JUMPI PUSH3 0x635 PUSH3 0x363 JUMP JUMPDEST JUMPDEST DUP2 MLOAD PUSH3 0x648 DUP5 DUP3 PUSH1 0x20 DUP7 ADD PUSH3 0x5D3 JUMP JUMPDEST SWAP2 POP POP SWAP3 SWAP2 POP POP JUMP JUMPDEST PUSH1 0x0 PUSH3 0x668 PUSH3 0x662 DUP5 PUSH3 0x53D JUMP JUMPDEST PUSH3 0x3DE JUMP JUMPDEST SWAP1 POP DUP1 DUP4 DUP3 MSTORE PUSH1 0x20 DUP3 ADD SWAP1 POP PUSH1 0x20 DUP5 MUL DUP4 ADD DUP6 DUP2 GT ISZERO PUSH3 0x68E JUMPI PUSH3 0x68D PUSH3 0x42C JUMP JUMPDEST JUMPDEST DUP4 JUMPDEST DUP2 DUP2 LT ISZERO PUSH3 0x6DC JUMPI DUP1 MLOAD PUSH8 0xFFFFFFFFFFFFFFFF DUP2 GT ISZERO PUSH3 0x6B7 JUMPI PUSH3 0x6B6 PUSH3 0x363 JUMP JUMPDEST JUMPDEST DUP1 DUP7 ADD PUSH3 0x6C6 DUP10 DUP3 PUSH3 0x61E JUMP JUMPDEST DUP6 MSTORE PUSH1 0x20 DUP6 ADD SWAP5 POP POP POP PUSH1 0x20 DUP2 ADD SWAP1 POP PUSH3 0x690 JUMP JUMPDEST POP POP POP SWAP4 SWAP3 POP POP POP JUMP JUMPDEST PUSH1 0x0 DUP3 PUSH1 0x1F DUP4 ADD SLT PUSH3 0x6FE JUMPI PUSH3 0x6FD PUSH3 0x363 JUMP JUMPDEST JUMPDEST DUP2 MLOAD PUSH3 0x710 DUP5 DUP3 PUSH1 0x20 DUP7 ADD PUSH3 0x651 JUMP JUMPDEST SWAP2 POP POP SWAP3 SWAP2 POP POP JUMP JUMPDEST PUSH1 0x0 PUSH8 0xFFFFFFFFFFFFFFFF DUP3 GT ISZERO PUSH3 0x737 JUMPI PUSH3 0x736 PUSH3 0x379 JUMP JUMPDEST JUMPDEST PUSH1 0x20 DUP3 MUL SWAP1 POP PUSH1 0x20 DUP2 ADD SWAP1 POP SWAP2 SWAP1 POP JUMP JUMPDEST PUSH1 0x0 PUSH8 0xFFFFFFFFFFFFFFFF DUP3 GT ISZERO PUSH3 0x766 JUMPI PUSH3 0x765 PUSH3 0x379 JUMP JUMPDEST JUMPDEST PUSH3 0x771 DUP3 PUSH3 0x368 JUMP JUMPDEST SWAP1 POP PUSH1 0x20 DUP2 ADD SWAP1 POP SWAP2 SWAP1 POP JUMP JUMPDEST PUSH1 0x0 PUSH3 0x795 PUSH3 0x78F DUP5 PUSH3 0x748 JUMP JUMPDEST PUSH3 0x3DE JUMP JUMPDEST SWAP1 POP DUP3 DUP2 MSTORE PUSH1 0x20 DUP2 ADD DUP5 DUP5 DUP5 ADD GT ISZERO PUSH3 0x7B4 JUMPI PUSH3 0x7B3 PUSH3 0x56C JUMP JUMPDEST JUMPDEST PUSH3 0x7C1 DUP5 DUP3 DUP6 PUSH3 0x5A7 JUMP JUMPDEST POP SWAP4 SWAP3 POP POP POP JUMP JUMPDEST PUSH1 0x0 DUP3 PUSH1 0x1F DUP4 ADD SLT PUSH3 0x7E1 JUMPI PUSH3 0x7E0 PUSH3 0x363 JUMP JUMPDEST JUMPDEST DUP2 MLOAD PUSH3 0x7F3 DUP5 DUP3 PUSH1 0x20 DUP7 ADD PUSH3 0x77E JUMP JUMPDEST SWAP2 POP POP SWAP3 SWAP2 POP POP JUMP JUMPDEST PUSH1 0x0 PUSH3 0x813 PUSH3 0x80D DUP5 PUSH3 0x719 JUMP JUMPDEST PUSH3 0x3DE JUMP JUMPDEST SWAP1 POP DUP1 DUP4 DUP3 MSTORE PUSH1 0x20 DUP3 ADD SWAP1 POP PUSH1 0x20 DUP5 MUL DUP4 ADD DUP6 DUP2 GT ISZERO PUSH3 0x839 JUMPI PUSH3 0x838 PUSH3 0x42C JUMP JUMPDEST JUMPDEST DUP4 JUMPDEST DUP2 DUP2 LT ISZERO PUSH3 0x887 JUMPI DUP1 MLOAD PUSH8 0xFFFFFFFFFFFFFFFF DUP2 GT ISZERO PUSH3 0x862 JUMPI PUSH3 0x861 PUSH3 0x363 JUMP JUMPDEST JUMPDEST DUP1 DUP7 ADD PUSH3 0x871 DUP10 DUP3 PUSH3 0x7C9 JUMP JUMPDEST DUP6 MSTORE PUSH1 0x20 DUP6 ADD SWAP5 POP POP POP PUSH1 0x20 DUP2 ADD SWAP1 POP PUSH3 0x83B JUMP JUMPDEST POP POP POP SWAP4 SWAP3 POP POP POP JUMP JUMPDEST PUSH1 0x0 DUP3 PUSH1 0x1F DUP4 ADD SLT PUSH3 0x8A9 JUMPI PUSH3 0x8A8 PUSH3 0x363 JUMP JUMPDEST JUMPDEST DUP2 MLOAD PUSH3 0x8BB DUP5 DUP3 PUSH1 0x20 DUP7 ADD PUSH3 0x7FC JUMP JUMPDEST SWAP2 POP POP SWAP3 SWAP2 POP POP JUMP JUMPDEST PUSH1 0x0 DUP2 SWAP1 POP SWAP2 SWAP1 POP JUMP JUMPDEST PUSH3 0x8D9 DUP2 PUSH3 0x8C4 JUMP JUMPDEST DUP2 EQ PUSH3 0x8E5 JUMPI PUSH1 0x0 DUP1 REVERT JUMPDEST POP JUMP JUMPDEST PUSH1 0x0 DUP2 MLOAD SWAP1 POP PUSH3 0x8F9 DUP2 PUSH3 0x8CE JUMP JUMPDEST SWAP3 SWAP2 POP POP JUMP JUMPDEST PUSH1 0x0 DUP1 PUSH1 0x0 DUP1 PUSH1 0x0 PUSH1 0xA0 DUP7 DUP9 SUB SLT ISZERO PUSH3 0x91E JUMPI PUSH3 0x91D PUSH3 0x359 JUMP JUMPDEST JUMPDEST PUSH1 0x0 DUP7 ADD MLOAD PUSH8 0xFFFFFFFFFFFFFFFF DUP2 GT ISZERO PUSH3 0x93F JUMPI PUSH3 0x93E PUSH3 0x35E JUMP JUMPDEST JUMPDEST PUSH3 0x94D DUP9 DUP3 DUP10 ADD PUSH3 0x50A JUMP JUMPDEST SWAP6 POP POP PUSH1 0x20 PUSH3 0x960 DUP9 DUP3 DUP10 ADD PUSH3 0x47F JUMP JUMPDEST SWAP5 POP POP PUSH1 0x40 DUP7 ADD MLOAD PUSH8 0xFFFFFFFFFFFFFFFF DUP2 GT ISZERO PUSH3 0x984 JUMPI PUSH3 0x983 PUSH3 0x35E JUMP JUMPDEST JUMPDEST PUSH3 0x992 DUP9 DUP3 DUP10 ADD PUSH3 0x6E6 JUMP JUMPDEST SWAP4 POP POP PUSH1 0x60 DUP7 ADD MLOAD PUSH8 0xFFFFFFFFFFFFFFFF DUP2 GT ISZERO PUSH3 0x9B6 JUMPI PUSH3 0x9B5 PUSH3 0x35E JUMP JUMPDEST JUMPDEST PUSH3 0x9C4 DUP9 DUP3 DUP10 ADD PUSH3 0x891 JUMP JUMPDEST SWAP3 POP POP PUSH1 0x80 PUSH3 0x9D7 DUP9 DUP3 DUP10 ADD PUSH3 0x8E8 JUMP JUMPDEST SWAP2 POP POP SWAP3 SWAP6 POP SWAP3 SWAP6 SWAP1 SWAP4 POP JUMP JUMPDEST PUSH32 0x4E487B7100000000000000000000000000000000000000000000000000000000 PUSH1 0x0 MSTORE PUSH1 0x32 PUSH1 0x4 MSTORE PUSH1 0x24 PUSH1 0x0 REVERT JUMPDEST PUSH32 0x4E487B7100000000000000000000000000000000000000000000000000000000 PUSH1 0x0 MSTORE PUSH1 0x11 PUSH1 0x4 MSTORE PUSH1 0x24 PUSH1 0x0 REVERT JUMPDEST PUSH1 0x0 PUSH1 0xFF DUP3 AND SWAP1 POP SWAP2 SWAP1 POP JUMP JUMPDEST PUSH1 0x0 PUSH3 0xA5C DUP3 PUSH3 0xA42 JUMP JUMPDEST SWAP2 POP PUSH1 0xFF DUP3 SUB PUSH3 0xA72 JUMPI PUSH3 0xA71 PUSH3 0xA13 JUMP JUMPDEST JUMPDEST PUSH1 0x1 DUP3 ADD SWAP1 POP SWAP2 SWAP1 POP JUMP JUMPDEST PUSH1 0x0 DUP2 MLOAD SWAP1 POP SWAP2 SWAP1 POP JUMP JUMPDEST PUSH1 0x0 DUP2 SWAP1 POP SWAP3 SWAP2 POP POP JUMP JUMPDEST PUSH1 0x0 PUSH3 0xAA0 DUP3 PUSH3 0xA7D JUMP JUMPDEST PUSH3 0xAAC DUP2 DUP6 PUSH3 0xA88 JUMP JUMPDEST SWAP4 POP PUSH3 0xABE DUP2 DUP6 PUSH1 0x20 DUP7 ADD PUSH3 0x5A7 JUMP JUMPDEST DUP1 DUP5 ADD SWAP2 POP POP SWAP3 SWAP2 POP POP JUMP JUMPDEST PUSH1 0x0 PUSH3 0xAD8 DUP3 DUP5 PUSH3 0xA93 JUMP JUMPDEST SWAP2 POP DUP2 SWAP1 POP SWAP3 SWAP2 POP POP JUMP JUMPDEST PUSH1 0x0 DUP2 MLOAD SWAP1 POP SWAP2 SWAP1 POP JUMP JUMPDEST PUSH32 0x4E487B7100000000000000000000000000000000000000000000000000000000 PUSH1 0x0 MSTORE PUSH1 0x22 PUSH1 0x4 MSTORE PUSH1 0x24 PUSH1 0x0 REVERT JUMPDEST PUSH1 0x0 PUSH1 0x2 DUP3 DIV SWAP1 POP PUSH1 0x1 DUP3 AND DUP1 PUSH3 0xB36 JUMPI PUSH1 0x7F DUP3 AND SWAP2 POP JUMPDEST PUSH1 0x20 DUP3 LT DUP2 SUB PUSH3 0xB4C JUMPI PUSH3 0xB4B PUSH3 0xAEE JUMP JUMPDEST JUMPDEST POP SWAP2 SWAP1 POP JUMP JUMPDEST PUSH1 0x0 DUP2 SWAP1 POP DUP2 PUSH1 0x0 MSTORE PUSH1 0x20 PUSH1 0x0 KECCAK256 SWAP1 POP SWAP2 SWAP1 POP JUMP JUMPDEST PUSH1 0x0 PUSH1 0x20 PUSH1 0x1F DUP4 ADD DIV SWAP1 POP SWAP2 SWAP1 POP JUMP JUMPDEST PUSH1 0x0 DUP3 DUP3 SHL SWAP1 POP SWAP3 SWAP2 POP POP JUMP JUMPDEST PUSH1 0x0 PUSH1 0x8 DUP4 MUL PUSH3 0xBB6 PUSH32 0xFFFFFFFFFFFFFFFFFFFFFFFFFFFFFFFFFFFFFFFFFFFFFFFFFFFFFFFFFFFFFFFF DUP3 PUSH3 0xB77 JUMP JUMPDEST PUSH3 0xBC2 DUP7 DUP4 PUSH3 0xB77 JUMP JUMPDEST SWAP6 POP DUP1 NOT DUP5 AND SWAP4 POP DUP1 DUP7 AND DUP5 OR SWAP3 POP POP POP SWAP4 SWAP3 POP POP POP JUMP JUMPDEST PUSH1 0x0 DUP2 SWAP1 POP SWAP2 SWAP1 POP JUMP JUMPDEST PUSH1 0x0 PUSH3 0xC05 PUSH3 0xBFF PUSH3 0xBF9 DUP5 PUSH3 0x8C4 JUMP JUMPDEST PUSH3 0xBDA JUMP JUMPDEST PUSH3 0x8C4 JUMP JUMPDEST SWAP1 POP SWAP2 SWAP1 POP JUMP JUMPDEST PUSH1 0x0 DUP2 SWAP1 POP SWAP2 SWAP1 POP JUMP JUMPDEST PUSH3 0xC21 DUP4 PUSH3 0xBE4 JUMP JUMPDEST PUSH3 0xC39 PUSH3 0xC30 DUP3 PUSH3 0xC0C JUMP JUMPDEST DUP5 DUP5 SLOAD PUSH3 0xB84 JUMP JUMPDEST DUP3 SSTORE POP POP POP POP JUMP JUMPDEST PUSH1 0x0 SWAP1 JUMP JUMPDEST PUSH3 0xC50 PUSH3 0xC41 JUMP JUMPDEST PUSH3 0xC5D DUP2 DUP5 DUP5 PUSH3 0xC16 JUMP JUMPDEST POP POP POP JUMP JUMPDEST JUMPDEST DUP2 DUP2 LT ISZERO PUSH3 0xC85 JUMPI PUSH3 0xC79 PUSH1 0x0 DUP3 PUSH3 0xC46 JUMP JUMPDEST PUSH1 0x1 DUP2 ADD SWAP1 POP PUSH3 0xC63 JUMP JUMPDEST POP POP JUMP JUMPDEST PUSH1 0x1F DUP3 GT ISZERO PUSH3 0xCD4 JUMPI PUSH3 0xC9E DUP2 PUSH3 0xB52 JUMP JUMPDEST PUSH3 0xCA9 DUP5 PUSH3 0xB67 JUMP JUMPDEST DUP2 ADD PUSH1 0x20 DUP6 LT ISZERO PUSH3 0xCB9 JUMPI DUP2 SWAP1 POP JUMPDEST PUSH3 0xCD1 PUSH3 0xCC8 DUP6 PUSH3 0xB67 JUMP JUMPDEST DUP4 ADD DUP3 PUSH3 0xC62 JUMP JUMPDEST POP POP JUMPDEST POP POP POP JUMP JUMPDEST PUSH1 0x0 DUP3 DUP3 SHR SWAP1 POP SWAP3 SWAP2 POP POP JUMP JUMPDEST PUSH1 0x0 PUSH3 0xCF9 PUSH1 0x0 NOT DUP5 PUSH1 0x8 MUL PUSH3 0xCD9 JUMP JUMPDEST NOT DUP1 DUP4 AND SWAP2 POP POP SWAP3 SWAP2 POP POP JUMP JUMPDEST PUSH1 0x0 PUSH3 0xD14 DUP4 DUP4 PUSH3 0xCE6 JUMP JUMPDEST SWAP2 POP DUP3 PUSH1 0x2 MUL DUP3 OR SWAP1 POP SWAP3 SWAP2 POP POP JUMP JUMPDEST PUSH3 0xD2F DUP3 PUSH3 0xAE3 JUMP JUMPDEST PUSH8 0xFFFFFFFFFFFFFFFF DUP2 GT ISZERO PUSH3 0xD4B JUMPI PUSH3 0xD4A PUSH3 0x379 JUMP JUMPDEST JUMPDEST PUSH3 0xD57 DUP3 SLOAD PUSH3 0xB1D JUMP JUMPDEST PUSH3 0xD64 DUP3 DUP3 DUP6 PUSH3 0xC89 JUMP JUMPDEST PUSH1 0x0 PUSH1 0x20 SWAP1 POP PUSH1 0x1F DUP4 GT PUSH1 0x1 DUP2 EQ PUSH3 0xD9C JUMPI PUSH1 0x0 DUP5 ISZERO PUSH3 0xD87 JUMPI DUP3 DUP8 ADD MLOAD SWAP1 POP JUMPDEST PUSH3 0xD93 DUP6 DUP3 PUSH3 0xD06 JUMP JUMPDEST DUP7 SSTORE POP PUSH3 0xE03 JUMP JUMPDEST PUSH1 0x1F NOT DUP5 AND PUSH3 0xDAC DUP7 PUSH3 0xB52 JUMP JUMPDEST PUSH1 0x0 JUMPDEST DUP3 DUP2 LT ISZERO PUSH3 0xDD6 JUMPI DUP5 DUP10 ADD MLOAD DUP3 SSTORE PUSH1 0x1 DUP3 ADD SWAP2 POP PUSH1 0x20 DUP6 ADD SWAP5 POP PUSH1 0x20 DUP2 ADD SWAP1 POP PUSH3 0xDAF JUMP JUMPDEST DUP7 DUP4 LT ISZERO PUSH3 0xDF6 JUMPI DUP5 DUP10 ADD MLOAD PUSH3 0xDF2 PUSH1 0x1F DUP10 AND DUP3 PUSH3 0xCE6 JUMP JUMPDEST DUP4 SSTORE POP JUMPDEST PUSH1 0x1 PUSH1 0x2 DUP9 MUL ADD DUP9 SSTORE POP POP POP JUMPDEST POP POP POP POP POP POP JUMP JUMPDEST PUSH1 0x0 DUP2 SWAP1 POP DUP2 PUSH1 0x0 MSTORE PUSH1 0x20 PUSH1 0x0 KECCAK256 SWAP1 POP SWAP2 SWAP1 POP JUMP JUMPDEST PUSH1 0x1F DUP3 GT ISZERO PUSH3 0xE6B JUMPI PUSH3 0xE35 DUP2 PUSH3 0xE0B JUMP JUMPDEST PUSH3 0xE40 DUP5 PUSH3 0xB67 JUMP JUMPDEST DUP2 ADD PUSH1 0x20 DUP6 LT ISZERO PUSH3 0xE50 JUMPI DUP2 SWAP1 POP JUMPDEST PUSH3 0xE68 PUSH3 0xE5F DUP6 PUSH3 0xB67 JUMP JUMPDEST DUP4 ADD DUP3 PUSH3 0xC62 JUMP JUMPDEST POP POP JUMPDEST POP POP POP JUMP JUMPDEST PUSH3 0xE7B DUP3 PUSH3 0xA7D JUMP JUMPDEST PUSH8 0xFFFFFFFFFFFFFFFF DUP2 GT ISZERO PUSH3 0xE97 JUMPI PUSH3 0xE96 PUSH3 0x379 JUMP JUMPDEST JUMPDEST PUSH3 0xEA3 DUP3 SLOAD PUSH3 0xB1D JUMP JUMPDEST PUSH3 0xEB0 DUP3 DUP3 DUP6 PUSH3 0xE20 JUMP JUMPDEST PUSH1 0x0 PUSH1 0x20 SWAP1 POP PUSH1 0x1F DUP4 GT PUSH1 0x1 DUP2 EQ PUSH3 0xEE8 JUMPI PUSH1 0x0 DUP5 ISZERO PUSH3 0xED3 JUMPI DUP3 DUP8 ADD MLOAD SWAP1 POP JUMPDEST PUSH3 0xEDF DUP6 DUP3 PUSH3 0xD06 JUMP JUMPDEST DUP7 SSTORE POP PUSH3 0xF4F JUMP JUMPDEST PUSH1 0x1F NOT DUP5 AND PUSH3 0xEF8 DUP7 PUSH3 0xE0B JUMP JUMPDEST PUSH1 0x0 JUMPDEST DUP3 DUP2 LT ISZERO PUSH3 0xF22 JUMPI DUP5 DUP10 ADD MLOAD DUP3 SSTORE PUSH1 0x1 DUP3 ADD SWAP2 POP PUSH1 0x20 DUP6 ADD SWAP5 POP PUSH1 0x20 DUP2 ADD SWAP1 POP PUSH3 0xEFB JUMP JUMPDEST DUP7 DUP4 LT ISZERO PUSH3 0xF42 JUMPI DUP5 DUP10 ADD MLOAD PUSH3 0xF3E PUSH1 0x1F DUP10 AND DUP3 PUSH3 0xCE6 JUMP JUMPDEST DUP4 SSTORE POP JUMPDEST PUSH1 0x1 PUSH1 0x2 DUP9 MUL ADD DUP9 SSTORE POP POP POP JUMPDEST POP POP POP POP POP POP JUMP JUMPDEST PUSH3 0xF62 DUP2 PUSH3 0x451 JUMP JUMPDEST DUP3 MSTORE POP POP JUMP JUMPDEST PUSH1 0x0 DUP2 SLOAD SWAP1 POP SWAP2 SWAP1 POP JUMP JUMPDEST PUSH1 0x0 DUP3 DUP3 MSTORE PUSH1 0x20 DUP3 ADD SWAP1 POP SWAP3 SWAP2 POP POP JUMP JUMPDEST PUSH1 0x0 DUP2 SWAP1 POP DUP2 PUSH1 0x0 MSTORE PUSH1 0x20 PUSH1 0x0 KECCAK256 SWAP1 POP SWAP2 SWAP1 POP JUMP JUMPDEST PUSH3 0xFA4 DUP2 PUSH3 0x451 JUMP JUMPDEST DUP3 MSTORE POP POP JUMP JUMPDEST PUSH1 0x0 PUSH3 0xFB8 DUP4 DUP4 PUSH3 0xF99 JUMP JUMPDEST PUSH1 0x20 DUP4 ADD SWAP1 POP SWAP3 SWAP2 POP POP JUMP JUMPDEST PUSH1 0x0 DUP2 PUSH1 0x0 SHR SWAP1 POP SWAP2 SWAP1 POP JUMP JUMPDEST PUSH1 0x0 PUSH20 0xFFFFFFFFFFFFFFFFFFFFFFFFFFFFFFFFFFFFFFFF DUP3 AND SWAP1 POP SWAP2 SWAP1 POP JUMP JUMPDEST PUSH1 0x0 PUSH3 0x1008 PUSH3 0x1002 DUP4 PUSH3 0xFC4 JUMP JUMPDEST PUSH3 0xFD1 JUMP JUMPDEST SWAP1 POP SWAP2 SWAP1 POP JUMP JUMPDEST PUSH1 0x0 PUSH3 0x101D DUP3 SLOAD PUSH3 0xFF1 JUMP JUMPDEST SWAP1 POP SWAP2 SWAP1 POP JUMP JUMPDEST PUSH1 0x0 PUSH1 0x1 DUP3 ADD SWAP1 POP SWAP2 SWAP1 POP JUMP JUMPDEST PUSH1 0x0 PUSH3 0x103E DUP3 PUSH3 0xF68 JUMP JUMPDEST PUSH3 0x104A DUP2 DUP6 PUSH3 0xF73 JUMP JUMPDEST SWAP4 POP PUSH3 0x1057 DUP4 PUSH3 0xF84 JUMP JUMPDEST DUP1 PUSH1 0x0 JUMPDEST DUP4 DUP2 LT ISZERO PUSH3 0x1097 JUMPI PUSH3 0x106F DUP3 PUSH3 0x100F JUMP JUMPDEST PUSH3 0x107B DUP9 DUP3 PUSH3 0xFAA JUMP JUMPDEST SWAP8 POP PUSH3 0x1088 DUP4 PUSH3 0x1024 JUMP JUMPDEST SWAP3 POP POP PUSH1 0x1 DUP2 ADD SWAP1 POP PUSH3 0x105B JUMP JUMPDEST POP DUP6 SWAP4 POP POP POP POP SWAP3 SWAP2 POP POP JUMP JUMPDEST PUSH3 0x10AF DUP2 PUSH3 0x8C4 JUMP JUMPDEST DUP3 MSTORE POP POP JUMP JUMPDEST PUSH1 0x0 PUSH1 0xC0 DUP3 ADD SWAP1 POP PUSH3 0x10CC PUSH1 0x0 DUP4 ADD DUP10 PUSH3 0xF57 JUMP JUMPDEST DUP2 DUP2 SUB PUSH1 0x20 DUP4 ADD MSTORE PUSH3 0x10E0 DUP2 DUP9 PUSH3 0x1031 JUMP JUMPDEST SWAP1 POP PUSH3 0x10F1 PUSH1 0x40 DUP4 ADD DUP8 PUSH3 0xF57 JUMP JUMPDEST PUSH3 0x1100 PUSH1 0x60 DUP4 ADD DUP7 PUSH3 0x10A4 JUMP JUMPDEST PUSH3 0x110F PUSH1 0x80 DUP4 ADD DUP6 PUSH3 0x10A4 JUMP JUMPDEST PUSH3 0x111E PUSH1 0xA0 DUP4 ADD DUP5 PUSH3 0x10A4 JUMP JUMPDEST SWAP8 SWAP7 POP POP POP POP POP POP POP JUMP JUMPDEST PUSH2 0x19CB DUP1 PUSH3 0x1139 PUSH1 0x0 CODECOPY PUSH1 0x0 RETURN INVALID PUSH1 0x80 PUSH1 0x40 MSTORE PUSH1 0x4 CALLDATASIZE LT PUSH2 0x86 JUMPI PUSH1 0x0 CALLDATALOAD PUSH1 0xE0 SHR DUP1 PUSH4 0x742978DA GT PUSH2 0x59 JUMPI DUP1 PUSH4 0x742978DA EQ PUSH2 0x116 JUMPI DUP1 PUSH4 0x904E3CFF EQ PUSH2 0x153 JUMPI DUP1 PUSH4 0x9C01B52F EQ PUSH2 0x16F JUMPI DUP1 PUSH4 0xF6DFDAD1 EQ PUSH2 0x19A JUMPI DUP1 PUSH4 0xFBB05337 EQ PUSH2 0x1C5 JUMPI PUSH2 0x86 JUMP JUMPDEST DUP1 PUSH4 0x12065FE0 EQ PUSH2 0x8B JUMPI DUP1 PUSH4 0x14A24BCF EQ PUSH2 0xB6 JUMPI DUP1 PUSH4 0x3F44327A EQ PUSH2 0xE1 JUMPI DUP1 PUSH4 0x4510FB59 EQ PUSH2 0x10C JUMPI JUMPDEST PUSH1 0x0 DUP1 REVERT JUMPDEST CALLVALUE DUP1 ISZERO PUSH2 0x97 JUMPI PUSH1 0x0 DUP1 REVERT JUMPDEST POP PUSH2 0xA0 PUSH2 0x1E1 JUMP JUMPDEST PUSH1 0x40 MLOAD PUSH2 0xAD SWAP2 SWAP1 PUSH2 0xF81 JUMP JUMPDEST PUSH1 0x40 MLOAD DUP1 SWAP2 SUB SWAP1 RETURN JUMPDEST CALLVALUE DUP1 ISZERO PUSH2 0xC2 JUMPI PUSH1 0x0 DUP1 REVERT JUMPDEST POP PUSH2 0xCB PUSH2 0x1E9 JUMP JUMPDEST PUSH1 0x40 MLOAD PUSH2 0xD8 SWAP2 SWAP1 PUSH2 0xFDD JUMP JUMPDEST PUSH1 0x40 MLOAD DUP1 SWAP2 SUB SWAP1 RETURN JUMPDEST CALLVALUE DUP1 ISZERO PUSH2 0xED JUMPI PUSH1 0x0 DUP1 REVERT JUMPDEST POP PUSH2 0xF6 PUSH2 0x213 JUMP JUMPDEST PUSH1 0x40 MLOAD PUSH2 0x103 SWAP2 SWAP1 PUSH2 0x10B6 JUMP JUMPDEST PUSH1 0x40 MLOAD DUP1 SWAP2 SUB SWAP1 RETURN JUMPDEST PUSH2 0x114 PUSH2 0x2A1 JUMP JUMPDEST STOP JUMPDEST CALLVALUE DUP1 ISZERO PUSH2 0x122 JUMPI PUSH1 0x0 DUP1 REVERT JUMPDEST POP PUSH2 0x13D PUSH1 0x4 DUP1 CALLDATASIZE SUB DUP2 ADD SWAP1 PUSH2 0x138 SWAP2 SWAP1 PUSH2 0x1109 JUMP JUMPDEST PUSH2 0x422 JUMP JUMPDEST PUSH1 0x40 MLOAD PUSH2 0x14A SWAP2 SWAP1 PUSH2 0xF81 JUMP JUMPDEST PUSH1 0x40 MLOAD DUP1 SWAP2 SUB SWAP1 RETURN JUMPDEST PUSH2 0x16D PUSH1 0x4 DUP1 CALLDATASIZE SUB DUP2 ADD SWAP1 PUSH2 0x168 SWAP2 SWAP1 PUSH2 0x11A0 JUMP JUMPDEST PUSH2 0x553 JUMP JUMPDEST STOP JUMPDEST CALLVALUE DUP1 ISZERO PUSH2 0x17B JUMPI PUSH1 0x0 DUP1 REVERT JUMPDEST POP PUSH2 0x184 PUSH2 0x97A JUMP JUMPDEST PUSH1 0x40 MLOAD PUSH2 0x191 SWAP2 SWAP1 PUSH2 0xFDD JUMP JUMPDEST PUSH1 0x40 MLOAD DUP1 SWAP2 SUB SWAP1 RETURN JUMPDEST CALLVALUE DUP1 ISZERO PUSH2 0x1A6 JUMPI PUSH1 0x0 DUP1 REVERT JUMPDEST POP PUSH2 0x1AF PUSH2 0x9A3 JUMP JUMPDEST PUSH1 0x40 MLOAD PUSH2 0x1BC SWAP2 SWAP1 PUSH2 0x1332 JUMP JUMPDEST PUSH1 0x40 MLOAD DUP1 SWAP2 SUB SWAP1 RETURN JUMPDEST PUSH2 0x1DF PUSH1 0x4 DUP1 CALLDATASIZE SUB DUP2 ADD SWAP1 PUSH2 0x1DA SWAP2 SWAP1 PUSH2 0x11A0 JUMP JUMPDEST PUSH2 0xB09 JUMP JUMPDEST STOP JUMPDEST PUSH1 0x0 SELFBALANCE SWAP1 POP SWAP1 JUMP JUMPDEST PUSH1 0x0 PUSH1 0x3 PUSH1 0x0 SWAP1 SLOAD SWAP1 PUSH2 0x100 EXP SWAP1 DIV PUSH20 0xFFFFFFFFFFFFFFFFFFFFFFFFFFFFFFFFFFFFFFFF AND SWAP1 POP SWAP1 JUMP JUMPDEST PUSH1 0x60 PUSH1 0x1 DUP1 SLOAD DUP1 PUSH1 0x20 MUL PUSH1 0x20 ADD PUSH1 0x40 MLOAD SWAP1 DUP2 ADD PUSH1 0x40 MSTORE DUP1 SWAP3 SWAP2 SWAP1 DUP2 DUP2 MSTORE PUSH1 0x20 ADD DUP3 DUP1 SLOAD DUP1 ISZERO PUSH2 0x297 JUMPI PUSH1 0x20 MUL DUP3 ADD SWAP2 SWAP1 PUSH1 0x0 MSTORE PUSH1 0x20 PUSH1 0x0 KECCAK256 SWAP1 JUMPDEST DUP2 PUSH1 0x0 SWAP1 SLOAD SWAP1 PUSH2 0x100 EXP SWAP1 DIV PUSH20 0xFFFFFFFFFFFFFFFFFFFFFFFFFFFFFFFFFFFFFFFF AND PUSH20 0xFFFFFFFFFFFFFFFFFFFFFFFFFFFFFFFFFFFFFFFF AND DUP2 MSTORE PUSH1 0x20 ADD SWAP1 PUSH1 0x1 ADD SWAP1 DUP1 DUP4 GT PUSH2 0x24D JUMPI JUMPDEST POP POP POP POP POP SWAP1 POP SWAP1 JUMP JUMPDEST CALLER PUSH1 0x0 DUP1 JUMPDEST PUSH1 0x1 DUP1 SLOAD SWAP1 POP DUP2 PUSH1 0xFF AND LT ISZERO PUSH2 0x346 JUMPI PUSH1 0x1 DUP2 PUSH1 0xFF AND DUP2 SLOAD DUP2 LT PUSH2 0x2CD JUMPI PUSH2 0x2CC PUSH2 0x1354 JUMP JUMPDEST JUMPDEST SWAP1 PUSH1 0x0 MSTORE PUSH1 0x20 PUSH1 0x0 KECCAK256 ADD PUSH1 0x0 SWAP1 SLOAD SWAP1 PUSH2 0x100 EXP SWAP1 DIV PUSH20 0xFFFFFFFFFFFFFFFFFFFFFFFFFFFFFFFFFFFFFFFF AND PUSH20 0xFFFFFFFFFFFFFFFFFFFFFFFFFFFFFFFFFFFFFFFF AND DUP4 PUSH20 0xFFFFFFFFFFFFFFFFFFFFFFFFFFFFFFFFFFFFFFFF AND SUB PUSH2 0x333 JUMPI PUSH1 0x1 SWAP2 POP PUSH2 0x346 JUMP JUMPDEST DUP1 DUP1 PUSH2 0x33E SWAP1 PUSH2 0x13BF JUMP JUMPDEST SWAP2 POP POP PUSH2 0x2A6 JUMP JUMPDEST POP DUP1 PUSH2 0x387 JUMPI PUSH1 0x40 MLOAD PUSH32 0x8C379A000000000000000000000000000000000000000000000000000000000 DUP2 MSTORE PUSH1 0x4 ADD PUSH2 0x37E SWAP1 PUSH2 0x146B JUMP JUMPDEST PUSH1 0x40 MLOAD DUP1 SWAP2 SUB SWAP1 REVERT JUMPDEST CALLVALUE PUSH1 0x2 PUSH1 0x0 CALLER PUSH20 0xFFFFFFFFFFFFFFFFFFFFFFFFFFFFFFFFFFFFFFFF AND PUSH20 0xFFFFFFFFFFFFFFFFFFFFFFFFFFFFFFFFFFFFFFFF AND DUP2 MSTORE PUSH1 0x20 ADD SWAP1 DUP2 MSTORE PUSH1 0x20 ADD PUSH1 0x0 KECCAK256 PUSH1 0x0 DUP3 DUP3 SLOAD PUSH2 0x3D6 SWAP2 SWAP1 PUSH2 0x148B JUMP JUMPDEST SWAP3 POP POP DUP2 SWAP1 SSTORE POP PUSH32 0xE4F13824473BB5D7C83A33648A5B781337DB89C57CDFDB2CAF2C87A9CA0391F6 CALLER CALLVALUE PUSH1 0x6 SLOAD SELFBALANCE TIMESTAMP PUSH1 0x40 MLOAD PUSH2 0x416 SWAP6 SWAP5 SWAP4 SWAP3 SWAP2 SWAP1 PUSH2 0x14BF JUMP JUMPDEST PUSH1 0x40 MLOAD DUP1 SWAP2 SUB SWAP1 LOG1 POP POP JUMP JUMPDEST PUSH1 0x0 DUP2 PUSH1 0x0 DUP1 JUMPDEST PUSH1 0x1 DUP1 SLOAD SWAP1 POP DUP2 PUSH1 0xFF AND LT ISZERO PUSH2 0x4C9 JUMPI PUSH1 0x1 DUP2 PUSH1 0xFF AND DUP2 SLOAD DUP2 LT PUSH2 0x450 JUMPI PUSH2 0x44F PUSH2 0x1354 JUMP JUMPDEST JUMPDEST SWAP1 PUSH1 0x0 MSTORE PUSH1 0x20 PUSH1 0x0 KECCAK256 ADD PUSH1 0x0 SWAP1 SLOAD SWAP1 PUSH2 0x100 EXP SWAP1 DIV PUSH20 0xFFFFFFFFFFFFFFFFFFFFFFFFFFFFFFFFFFFFFFFF AND PUSH20 0xFFFFFFFFFFFFFFFFFFFFFFFFFFFFFFFFFFFFFFFF AND DUP4 PUSH20 0xFFFFFFFFFFFFFFFFFFFFFFFFFFFFFFFFFFFFFFFF AND SUB PUSH2 0x4B6 JUMPI PUSH1 0x1 SWAP2 POP PUSH2 0x4C9 JUMP JUMPDEST DUP1 DUP1 PUSH2 0x4C1 SWAP1 PUSH2 0x13BF JUMP JUMPDEST SWAP2 POP POP PUSH2 0x429 JUMP JUMPDEST POP DUP1 PUSH2 0x50A JUMPI PUSH1 0x40 MLOAD PUSH32 0x8C379A000000000000000000000000000000000000000000000000000000000 DUP2 MSTORE PUSH1 0x4 ADD PUSH2 0x501 SWAP1 PUSH2 0x146B JUMP JUMPDEST PUSH1 0x40 MLOAD DUP1 SWAP2 SUB SWAP1 REVERT JUMPDEST PUSH1 0x2 PUSH1 0x0 DUP6 PUSH20 0xFFFFFFFFFFFFFFFFFFFFFFFFFFFFFFFFFFFFFFFF AND PUSH20 0xFFFFFFFFFFFFFFFFFFFFFFFFFFFFFFFFFFFFFFFF AND DUP2 MSTORE PUSH1 0x20 ADD SWAP1 DUP2 MSTORE PUSH1 0x20 ADD PUSH1 0x0 KECCAK256 SLOAD SWAP3 POP POP POP SWAP2 SWAP1 POP JUMP JUMPDEST CALLER PUSH1 0x0 DUP1 JUMPDEST PUSH1 0x1 DUP1 SLOAD SWAP1 POP DUP2 PUSH1 0xFF AND LT ISZERO PUSH2 0x5F8 JUMPI PUSH1 0x1 DUP2 PUSH1 0xFF AND DUP2 SLOAD DUP2 LT PUSH2 0x57F JUMPI PUSH2 0x57E PUSH2 0x1354 JUMP JUMPDEST JUMPDEST SWAP1 PUSH1 0x0 MSTORE PUSH1 0x20 PUSH1 0x0 KECCAK256 ADD PUSH1 0x0 SWAP1 SLOAD SWAP1 PUSH2 0x100 EXP SWAP1 DIV PUSH20 0xFFFFFFFFFFFFFFFFFFFFFFFFFFFFFFFFFFFFFFFF AND PUSH20 0xFFFFFFFFFFFFFFFFFFFFFFFFFFFFFFFFFFFFFFFF AND DUP4 PUSH20 0xFFFFFFFFFFFFFFFFFFFFFFFFFFFFFFFFFFFFFFFF AND SUB PUSH2 0x5E5 JUMPI PUSH1 0x1 SWAP2 POP PUSH2 0x5F8 JUMP JUMPDEST DUP1 DUP1 PUSH2 0x5F0 SWAP1 PUSH2 0x13BF JUMP JUMPDEST SWAP2 POP POP PUSH2 0x558 JUMP JUMPDEST POP DUP1 PUSH2 0x639 JUMPI PUSH1 0x40 MLOAD PUSH32 0x8C379A000000000000000000000000000000000000000000000000000000000 DUP2 MSTORE PUSH1 0x4 ADD PUSH2 0x630 SWAP1 PUSH2 0x146B JUMP JUMPDEST PUSH1 0x40 MLOAD DUP1 SWAP2 SUB SWAP1 REVERT JUMPDEST DUP4 PUSH1 0x0 DUP1 JUMPDEST PUSH1 0x1 DUP1 SLOAD SWAP1 POP DUP2 PUSH1 0xFF AND LT ISZERO PUSH2 0x6DE JUMPI PUSH1 0x1 DUP2 PUSH1 0xFF AND DUP2 SLOAD DUP2 LT PUSH2 0x665 JUMPI PUSH2 0x664 PUSH2 0x1354 JUMP JUMPDEST JUMPDEST SWAP1 PUSH1 0x0 MSTORE PUSH1 0x20 PUSH1 0x0 KECCAK256 ADD PUSH1 0x0 SWAP1 SLOAD SWAP1 PUSH2 0x100 EXP SWAP1 DIV PUSH20 0xFFFFFFFFFFFFFFFFFFFFFFFFFFFFFFFFFFFFFFFF AND PUSH20 0xFFFFFFFFFFFFFFFFFFFFFFFFFFFFFFFFFFFFFFFF AND DUP4 PUSH20 0xFFFFFFFFFFFFFFFFFFFFFFFFFFFFFFFFFFFFFFFF AND SUB PUSH2 0x6CB JUMPI PUSH1 0x1 SWAP2 POP PUSH2 0x6DE JUMP JUMPDEST DUP1 DUP1 PUSH2 0x6D6 SWAP1 PUSH2 0x13BF JUMP JUMPDEST SWAP2 POP POP PUSH2 0x63E JUMP JUMPDEST POP DUP1 DUP1 PUSH2 0x738 JUMPI POP PUSH1 0x3 PUSH1 0x0 SWAP1 SLOAD SWAP1 PUSH2 0x100 EXP SWAP1 DIV PUSH20 0xFFFFFFFFFFFFFFFFFFFFFFFFFFFFFFFFFFFFFFFF AND PUSH20 0xFFFFFFFFFFFFFFFFFFFFFFFFFFFFFFFFFFFFFFFF AND DUP3 PUSH20 0xFFFFFFFFFFFFFFFFFFFFFFFFFFFFFFFFFFFFFFFF AND EQ JUMPDEST PUSH2 0x777 JUMPI PUSH1 0x40 MLOAD PUSH32 0x8C379A000000000000000000000000000000000000000000000000000000000 DUP2 MSTORE PUSH1 0x4 ADD PUSH2 0x76E SWAP1 PUSH2 0x1584 JUMP JUMPDEST PUSH1 0x40 MLOAD DUP1 SWAP2 SUB SWAP1 REVERT JUMPDEST DUP5 DUP1 SELFBALANCE LT ISZERO PUSH2 0x7BB JUMPI PUSH1 0x40 MLOAD PUSH32 0x8C379A000000000000000000000000000000000000000000000000000000000 DUP2 MSTORE PUSH1 0x4 ADD PUSH2 0x7B2 SWAP1 PUSH2 0x15F0 JUMP JUMPDEST PUSH1 0x40 MLOAD DUP1 SWAP2 SUB SWAP1 REVERT JUMPDEST PUSH1 0x3 PUSH1 0x0 SWAP1 SLOAD SWAP1 PUSH2 0x100 EXP SWAP1 DIV PUSH20 0xFFFFFFFFFFFFFFFFFFFFFFFFFFFFFFFFFFFFFFFF AND PUSH20 0xFFFFFFFFFFFFFFFFFFFFFFFFFFFFFFFFFFFFFFFF AND DUP8 PUSH20 0xFFFFFFFFFFFFFFFFFFFFFFFFFFFFFFFFFFFFFFFF AND EQ PUSH2 0x8E9 JUMPI DUP6 PUSH1 0x2 PUSH1 0x0 DUP10 PUSH20 0xFFFFFFFFFFFFFFFFFFFFFFFFFFFFFFFFFFFFFFFF AND PUSH20 0xFFFFFFFFFFFFFFFFFFFFFFFFFFFFFFFFFFFFFFFF AND DUP2 MSTORE PUSH1 0x20 ADD SWAP1 DUP2 MSTORE PUSH1 0x20 ADD PUSH1 0x0 KECCAK256 SLOAD LT ISZERO PUSH2 0x892 JUMPI PUSH1 0x40 MLOAD PUSH32 0x8C379A000000000000000000000000000000000000000000000000000000000 DUP2 MSTORE PUSH1 0x4 ADD PUSH2 0x889 SWAP1 PUSH2 0x165C JUMP JUMPDEST PUSH1 0x40 MLOAD DUP1 SWAP2 SUB SWAP1 REVERT JUMPDEST DUP6 PUSH1 0x2 PUSH1 0x0 DUP10 PUSH20 0xFFFFFFFFFFFFFFFFFFFFFFFFFFFFFFFFFFFFFFFF AND PUSH20 0xFFFFFFFFFFFFFFFFFFFFFFFFFFFFFFFFFFFFFFFF AND DUP2 MSTORE PUSH1 0x20 ADD SWAP1 DUP2 MSTORE PUSH1 0x20 ADD PUSH1 0x0 KECCAK256 PUSH1 0x0 DUP3 DUP3 SLOAD PUSH2 0x8E1 SWAP2 SWAP1 PUSH2 0x167C JUMP JUMPDEST SWAP3 POP POP DUP2 SWAP1 SSTORE POP JUMPDEST DUP7 PUSH20 0xFFFFFFFFFFFFFFFFFFFFFFFFFFFFFFFFFFFFFFFF AND PUSH2 0x8FC DUP8 SWAP1 DUP2 ISZERO MUL SWAP1 PUSH1 0x40 MLOAD PUSH1 0x0 PUSH1 0x40 MLOAD DUP1 DUP4 SUB DUP2 DUP6 DUP9 DUP9 CALL SWAP4 POP POP POP POP ISZERO DUP1 ISZERO PUSH2 0x92F JUMPI RETURNDATASIZE PUSH1 0x0 DUP1 RETURNDATACOPY RETURNDATASIZE PUSH1 0x0 REVERT JUMPDEST POP PUSH32 0x132717CC7CE0E7288E4E1E75CD3527373DF35D716A6D9D576199B1EE22B15923 DUP8 DUP8 PUSH1 0x6 SLOAD SELFBALANCE TIMESTAMP PUSH1 0x40 MLOAD PUSH2 0x969 SWAP6 SWAP5 SWAP4 SWAP3 SWAP2 SWAP1 PUSH2 0x170F JUMP JUMPDEST PUSH1 0x40 MLOAD DUP1 SWAP2 SUB SWAP1 LOG1 POP POP POP POP POP POP POP JUMP JUMPDEST PUSH1 0x0 DUP1 PUSH1 0x0 SWAP1 SLOAD SWAP1 PUSH2 0x100 EXP SWAP1 DIV PUSH20 0xFFFFFFFFFFFFFFFFFFFFFFFFFFFFFFFFFFFFFFFF AND SWAP1 POP SWAP1 JUMP JUMPDEST PUSH1 0x60 PUSH1 0x0 PUSH1 0x5 DUP1 SLOAD SWAP1 POP PUSH8 0xFFFFFFFFFFFFFFFF DUP2 GT ISZERO PUSH2 0x9C6 JUMPI PUSH2 0x9C5 PUSH2 0x1762 JUMP JUMPDEST JUMPDEST PUSH1 0x40 MLOAD SWAP1 DUP1 DUP3 MSTORE DUP1 PUSH1 0x20 MUL PUSH1 0x20 ADD DUP3 ADD PUSH1 0x40 MSTORE DUP1 ISZERO PUSH2 0x9F9 JUMPI DUP2 PUSH1 0x20 ADD JUMPDEST PUSH1 0x60 DUP2 MSTORE PUSH1 0x20 ADD SWAP1 PUSH1 0x1 SWAP1 SUB SWAP1 DUP2 PUSH2 0x9E4 JUMPI SWAP1 POP JUMPDEST POP SWAP1 POP PUSH1 0x0 JUMPDEST PUSH1 0x5 DUP1 SLOAD SWAP1 POP DUP2 LT ISZERO PUSH2 0xB01 JUMPI PUSH1 0x4 PUSH1 0x5 DUP3 DUP2 SLOAD DUP2 LT PUSH2 0xA22 JUMPI PUSH2 0xA21 PUSH2 0x1354 JUMP JUMPDEST JUMPDEST SWAP1 PUSH1 0x0 MSTORE PUSH1 0x20 PUSH1 0x0 KECCAK256 ADD PUSH1 0x40 MLOAD PUSH2 0xA39 SWAP2 SWAP1 PUSH2 0x1894 JUMP JUMPDEST SWAP1 DUP2 MSTORE PUSH1 0x20 ADD PUSH1 0x40 MLOAD DUP1 SWAP2 SUB SWAP1 KECCAK256 DUP1 SLOAD PUSH2 0xA52 SWAP1 PUSH2 0x17C0 JUMP JUMPDEST DUP1 PUSH1 0x1F ADD PUSH1 0x20 DUP1 SWAP2 DIV MUL PUSH1 0x20 ADD PUSH1 0x40 MLOAD SWAP1 DUP2 ADD PUSH1 0x40 MSTORE DUP1 SWAP3 SWAP2 SWAP1 DUP2 DUP2 MSTORE PUSH1 0x20 ADD DUP3 DUP1 SLOAD PUSH2 0xA7E SWAP1 PUSH2 0x17C0 JUMP JUMPDEST DUP1 ISZERO PUSH2 0xACB JUMPI DUP1 PUSH1 0x1F LT PUSH2 0xAA0 JUMPI PUSH2 0x100 DUP1 DUP4 SLOAD DIV MUL DUP4 MSTORE SWAP2 PUSH1 0x20 ADD SWAP2 PUSH2 0xACB JUMP JUMPDEST DUP3 ADD SWAP2 SWAP1 PUSH1 0x0 MSTORE PUSH1 0x20 PUSH1 0x0 KECCAK256 SWAP1 JUMPDEST DUP2 SLOAD DUP2 MSTORE SWAP1 PUSH1 0x1 ADD SWAP1 PUSH1 0x20 ADD DUP1 DUP4 GT PUSH2 0xAAE JUMPI DUP3 SWAP1 SUB PUSH1 0x1F AND DUP3 ADD SWAP2 JUMPDEST POP POP POP POP POP DUP3 DUP3 DUP2 MLOAD DUP2 LT PUSH2 0xAE3 JUMPI PUSH2 0xAE2 PUSH2 0x1354 JUMP JUMPDEST JUMPDEST PUSH1 0x20 MUL PUSH1 0x20 ADD ADD DUP2 SWAP1 MSTORE POP DUP1 DUP1 PUSH2 0xAF9 SWAP1 PUSH2 0x18AB JUMP JUMPDEST SWAP2 POP POP PUSH2 0x9FF JUMP JUMPDEST POP DUP1 SWAP2 POP POP SWAP1 JUMP JUMPDEST CALLER PUSH1 0x0 DUP1 JUMPDEST PUSH1 0x1 DUP1 SLOAD SWAP1 POP DUP2 PUSH1 0xFF AND LT ISZERO PUSH2 0xBAE JUMPI PUSH1 0x1 DUP2 PUSH1 0xFF AND DUP2 SLOAD DUP2 LT PUSH2 0xB35 JUMPI PUSH2 0xB34 PUSH2 0x1354 JUMP JUMPDEST JUMPDEST SWAP1 PUSH1 0x0 MSTORE PUSH1 0x20 PUSH1 0x0 KECCAK256 ADD PUSH1 0x0 SWAP1 SLOAD SWAP1 PUSH2 0x100 EXP SWAP1 DIV PUSH20 0xFFFFFFFFFFFFFFFFFFFFFFFFFFFFFFFFFFFFFFFF AND PUSH20 0xFFFFFFFFFFFFFFFFFFFFFFFFFFFFFFFFFFFFFFFF AND DUP4 PUSH20 0xFFFFFFFFFFFFFFFFFFFFFFFFFFFFFFFFFFFFFFFF AND SUB PUSH2 0xB9B JUMPI PUSH1 0x1 SWAP2 POP PUSH2 0xBAE JUMP JUMPDEST DUP1 DUP1 PUSH2 0xBA6 SWAP1 PUSH2 0x13BF JUMP JUMPDEST SWAP2 POP POP PUSH2 0xB0E JUMP JUMPDEST POP DUP1 PUSH2 0xBEF JUMPI PUSH1 0x40 MLOAD PUSH32 0x8C379A000000000000000000000000000000000000000000000000000000000 DUP2 MSTORE PUSH1 0x4 ADD PUSH2 0xBE6 SWAP1 PUSH2 0x146B JUMP JUMPDEST PUSH1 0x40 MLOAD DUP1 SWAP2 SUB SWAP1 REVERT JUMPDEST DUP4 PUSH1 0x0 DUP1 JUMPDEST PUSH1 0x1 DUP1 SLOAD SWAP1 POP DUP2 PUSH1 0xFF AND LT ISZERO PUSH2 0xC94 JUMPI PUSH1 0x1 DUP2 PUSH1 0xFF AND DUP2 SLOAD DUP2 LT PUSH2 0xC1B JUMPI PUSH2 0xC1A PUSH2 0x1354 JUMP JUMPDEST JUMPDEST SWAP1 PUSH1 0x0 MSTORE PUSH1 0x20 PUSH1 0x0 KECCAK256 ADD PUSH1 0x0 SWAP1 SLOAD SWAP1 PUSH2 0x100 EXP SWAP1 DIV PUSH20 0xFFFFFFFFFFFFFFFFFFFFFFFFFFFFFFFFFFFFFFFF AND PUSH20 0xFFFFFFFFFFFFFFFFFFFFFFFFFFFFFFFFFFFFFFFF AND DUP4 PUSH20 0xFFFFFFFFFFFFFFFFFFFFFFFFFFFFFFFFFFFFFFFF AND SUB PUSH2 0xC81 JUMPI PUSH1 0x1 SWAP2 POP PUSH2 0xC94 JUMP JUMPDEST DUP1 DUP1 PUSH2 0xC8C SWAP1 PUSH2 0x13BF JUMP JUMPDEST SWAP2 POP POP PUSH2 0xBF4 JUMP JUMPDEST POP DUP1 DUP1 PUSH2 0xCEE JUMPI POP PUSH1 0x3 PUSH1 0x0 SWAP1 SLOAD SWAP1 PUSH2 0x100 EXP SWAP1 DIV PUSH20 0xFFFFFFFFFFFFFFFFFFFFFFFFFFFFFFFFFFFFFFFF AND PUSH20 0xFFFFFFFFFFFFFFFFFFFFFFFFFFFFFFFFFFFFFFFF AND DUP3 PUSH20 0xFFFFFFFFFFFFFFFFFFFFFFFFFFFFFFFFFFFFFFFF AND EQ JUMPDEST PUSH2 0xD2D JUMPI PUSH1 0x40 MLOAD PUSH32 0x8C379A000000000000000000000000000000000000000000000000000000000 DUP2 MSTORE PUSH1 0x4 ADD PUSH2 0xD24 SWAP1 PUSH2 0x1584 JUMP JUMPDEST PUSH1 0x40 MLOAD DUP1 SWAP2 SUB SWAP1 REVERT JUMPDEST PUSH1 0x64 DUP6 PUSH1 0x6 SLOAD PUSH2 0xD3D SWAP2 SWAP1 PUSH2 0x18F3 JUMP JUMPDEST PUSH2 0xD47 SWAP2 SWAP1 PUSH2 0x1964 JUMP JUMPDEST DUP1 SELFBALANCE LT ISZERO PUSH2 0xD8A JUMPI PUSH1 0x40 MLOAD PUSH32 0x8C379A000000000000000000000000000000000000000000000000000000000 DUP2 MSTORE PUSH1 0x4 ADD PUSH2 0xD81 SWAP1 PUSH2 0x15F0 JUMP JUMPDEST PUSH1 0x40 MLOAD DUP1 SWAP2 SUB SWAP1 REVERT JUMPDEST PUSH1 0x0 PUSH1 0x64 DUP8 PUSH1 0x6 SLOAD PUSH2 0xD9C SWAP2 SWAP1 PUSH2 0x18F3 JUMP JUMPDEST PUSH2 0xDA6 SWAP2 SWAP1 PUSH2 0x1964 JUMP JUMPDEST SWAP1 POP PUSH1 0x3 PUSH1 0x0 SWAP1 SLOAD SWAP1 PUSH2 0x100 EXP SWAP1 DIV PUSH20 0xFFFFFFFFFFFFFFFFFFFFFFFFFFFFFFFFFFFFFFFF AND PUSH20 0xFFFFFFFFFFFFFFFFFFFFFFFFFFFFFFFFFFFFFFFF AND DUP9 PUSH20 0xFFFFFFFFFFFFFFFFFFFFFFFFFFFFFFFFFFFFFFFF AND EQ PUSH2 0xED6 JUMPI DUP1 PUSH1 0x2 PUSH1 0x0 DUP11 PUSH20 0xFFFFFFFFFFFFFFFFFFFFFFFFFFFFFFFFFFFFFFFF AND PUSH20 0xFFFFFFFFFFFFFFFFFFFFFFFFFFFFFFFFFFFFFFFF AND DUP2 MSTORE PUSH1 0x20 ADD SWAP1 DUP2 MSTORE PUSH1 0x20 ADD PUSH1 0x0 KECCAK256 SLOAD LT ISZERO PUSH2 0xE7F JUMPI PUSH1 0x40 MLOAD PUSH32 0x8C379A000000000000000000000000000000000000000000000000000000000 DUP2 MSTORE PUSH1 0x4 ADD PUSH2 0xE76 SWAP1 PUSH2 0x165C JUMP JUMPDEST PUSH1 0x40 MLOAD DUP1 SWAP2 SUB SWAP1 REVERT JUMPDEST DUP1 PUSH1 0x2 PUSH1 0x0 DUP11 PUSH20 0xFFFFFFFFFFFFFFFFFFFFFFFFFFFFFFFFFFFFFFFF AND PUSH20 0xFFFFFFFFFFFFFFFFFFFFFFFFFFFFFFFFFFFFFFFF AND DUP2 MSTORE PUSH1 0x20 ADD SWAP1 DUP2 MSTORE PUSH1 0x20 ADD PUSH1 0x0 KECCAK256 PUSH1 0x0 DUP3 DUP3 SLOAD PUSH2 0xECE SWAP2 SWAP1 PUSH2 0x167C JUMP JUMPDEST SWAP3 POP POP DUP2 SWAP1 SSTORE POP JUMPDEST DUP8 PUSH20 0xFFFFFFFFFFFFFFFFFFFFFFFFFFFFFFFFFFFFFFFF AND PUSH2 0x8FC DUP3 SWAP1 DUP2 ISZERO MUL SWAP1 PUSH1 0x40 MLOAD PUSH1 0x0 PUSH1 0x40 MLOAD DUP1 DUP4 SUB DUP2 DUP6 DUP9 DUP9 CALL SWAP4 POP POP POP POP ISZERO DUP1 ISZERO PUSH2 0xF1C JUMPI RETURNDATASIZE PUSH1 0x0 DUP1 RETURNDATACOPY RETURNDATASIZE PUSH1 0x0 REVERT JUMPDEST POP PUSH32 0x132717CC7CE0E7288E4E1E75CD3527373DF35D716A6D9D576199B1EE22B15923 DUP9 DUP3 PUSH1 0x6 SLOAD SELFBALANCE TIMESTAMP PUSH1 0x40 MLOAD PUSH2 0xF56 SWAP6 SWAP5 SWAP4 SWAP3 SWAP2 SWAP1 PUSH2 0x170F JUMP JUMPDEST PUSH1 0x40 MLOAD DUP1 SWAP2 SUB SWAP1 LOG1 POP POP POP POP POP POP POP POP JUMP JUMPDEST PUSH1 0x0 DUP2 SWAP1 POP SWAP2 SWAP1 POP JUMP JUMPDEST PUSH2 0xF7B DUP2 PUSH2 0xF68 JUMP JUMPDEST DUP3 MSTORE POP POP JUMP JUMPDEST PUSH1 0x0 PUSH1 0x20 DUP3 ADD SWAP1 POP PUSH2 0xF96 PUSH1 0x0 DUP4 ADD DUP5 PUSH2 0xF72 JUMP JUMPDEST SWAP3 SWAP2 POP POP JUMP JUMPDEST PUSH1 0x0 PUSH20 0xFFFFFFFFFFFFFFFFFFFFFFFFFFFFFFFFFFFFFFFF DUP3 AND SWAP1 POP SWAP2 SWAP1 POP JUMP JUMPDEST PUSH1 0x0 PUSH2 0xFC7 DUP3 PUSH2 0xF9C JUMP JUMPDEST SWAP1 POP SWAP2 SWAP1 POP JUMP JUMPDEST PUSH2 0xFD7 DUP2 PUSH2 0xFBC JUMP JUMPDEST DUP3 MSTORE POP POP JUMP JUMPDEST PUSH1 0x0 PUSH1 0x20 DUP3 ADD SWAP1 POP PUSH2 0xFF2 PUSH1 0x0 DUP4 ADD DUP5 PUSH2 0xFCE JUMP JUMPDEST SWAP3 SWAP2 POP POP JUMP JUMPDEST PUSH1 0x0 DUP2 MLOAD SWAP1 POP SWAP2 SWAP1 POP JUMP JUMPDEST PUSH1 0x0 DUP3 DUP3 MSTORE PUSH1 0x20 DUP3 ADD SWAP1 POP SWAP3 SWAP2 POP POP JUMP JUMPDEST PUSH1 0x0 DUP2 SWAP1 POP PUSH1 0x20 DUP3 ADD SWAP1 POP SWAP2 SWAP1 POP JUMP JUMPDEST PUSH2 0x102D DUP2 PUSH2 0xFBC JUMP JUMPDEST DUP3 MSTORE POP POP JUMP JUMPDEST PUSH1 0x0 PUSH2 0x103F DUP4 DUP4 PUSH2 0x1024 JUMP JUMPDEST PUSH1 0x20 DUP4 ADD SWAP1 POP SWAP3 SWAP2 POP POP JUMP JUMPDEST PUSH1 0x0 PUSH1 0x20 DUP3 ADD SWAP1 POP SWAP2 SWAP1 POP JUMP JUMPDEST PUSH1 0x0 PUSH2 0x1063 DUP3 PUSH2 0xFF8 JUMP JUMPDEST PUSH2 0x106D DUP2 DUP6 PUSH2 0x1003 JUMP JUMPDEST SWAP4 POP PUSH2 0x1078 DUP4 PUSH2 0x1014 JUMP JUMPDEST DUP1 PUSH1 0x0 JUMPDEST DUP4 DUP2 LT ISZERO PUSH2 0x10A9 JUMPI DUP2 MLOAD PUSH2 0x1090 DUP9 DUP3 PUSH2 0x1033 JUMP JUMPDEST SWAP8 POP PUSH2 0x109B DUP4 PUSH2 0x104B JUMP JUMPDEST SWAP3 POP POP PUSH1 0x1 DUP2 ADD SWAP1 POP PUSH2 0x107C JUMP JUMPDEST POP DUP6 SWAP4 POP POP POP POP SWAP3 SWAP2 POP POP JUMP JUMPDEST PUSH1 0x0 PUSH1 0x20 DUP3 ADD SWAP1 POP DUP2 DUP2 SUB PUSH1 0x0 DUP4 ADD MSTORE PUSH2 0x10D0 DUP2 DUP5 PUSH2 0x1058 JUMP JUMPDEST SWAP1 POP SWAP3 SWAP2 POP POP JUMP JUMPDEST PUSH1 0x0 DUP1 REVERT JUMPDEST PUSH2 0x10E6 DUP2 PUSH2 0xFBC JUMP JUMPDEST DUP2 EQ PUSH2 0x10F1 JUMPI PUSH1 0x0 DUP1 REVERT JUMPDEST POP JUMP JUMPDEST PUSH1 0x0 DUP2 CALLDATALOAD SWAP1 POP PUSH2 0x1103 DUP2 PUSH2 0x10DD JUMP JUMPDEST SWAP3 SWAP2 POP POP JUMP JUMPDEST PUSH1 0x0 PUSH1 0x20 DUP3 DUP5 SUB SLT ISZERO PUSH2 0x111F JUMPI PUSH2 0x111E PUSH2 0x10D8 JUMP JUMPDEST JUMPDEST PUSH1 0x0 PUSH2 0x112D DUP5 DUP3 DUP6 ADD PUSH2 0x10F4 JUMP JUMPDEST SWAP2 POP POP SWAP3 SWAP2 POP POP JUMP JUMPDEST PUSH1 0x0 PUSH2 0x1141 DUP3 PUSH2 0xF9C JUMP JUMPDEST SWAP1 POP SWAP2 SWAP1 POP JUMP JUMPDEST PUSH2 0x1151 DUP2 PUSH2 0x1136 JUMP JUMPDEST DUP2 EQ PUSH2 0x115C JUMPI PUSH1 0x0 DUP1 REVERT JUMPDEST POP JUMP JUMPDEST PUSH1 0x0 DUP2 CALLDATALOAD SWAP1 POP PUSH2 0x116E DUP2 PUSH2 0x1148 JUMP JUMPDEST SWAP3 SWAP2 POP POP JUMP JUMPDEST PUSH2 0x117D DUP2 PUSH2 0xF68 JUMP JUMPDEST DUP2 EQ PUSH2 0x1188 JUMPI PUSH1 0x0 DUP1 REVERT JUMPDEST POP JUMP JUMPDEST PUSH1 0x0 DUP2 CALLDATALOAD SWAP1 POP PUSH2 0x119A DUP2 PUSH2 0x1174 JUMP JUMPDEST SWAP3 SWAP2 POP POP JUMP JUMPDEST PUSH1 0x0 DUP1 PUSH1 0x40 DUP4 DUP6 SUB SLT ISZERO PUSH2 0x11B7 JUMPI PUSH2 0x11B6 PUSH2 0x10D8 JUMP JUMPDEST JUMPDEST PUSH1 0x0 PUSH2 0x11C5 DUP6 DUP3 DUP7 ADD PUSH2 0x115F JUMP JUMPDEST SWAP3 POP POP PUSH1 0x20 PUSH2 0x11D6 DUP6 DUP3 DUP7 ADD PUSH2 0x118B JUMP JUMPDEST SWAP2 POP POP SWAP3 POP SWAP3 SWAP1 POP JUMP JUMPDEST PUSH1 0x0 DUP2 MLOAD SWAP1 POP SWAP2 SWAP1 POP JUMP JUMPDEST PUSH1 0x0 DUP3 DUP3 MSTORE PUSH1 0x20 DUP3 ADD SWAP1 POP SWAP3 SWAP2 POP POP JUMP JUMPDEST PUSH1 0x0 DUP2 SWAP1 POP PUSH1 0x20 DUP3 ADD SWAP1 POP SWAP2 SWAP1 POP JUMP JUMPDEST PUSH1 0x0 DUP2 MLOAD SWAP1 POP SWAP2 SWAP1 POP JUMP JUMPDEST PUSH1 0x0 DUP3 DUP3 MSTORE PUSH1 0x20 DUP3 ADD SWAP1 POP SWAP3 SWAP2 POP POP JUMP JUMPDEST PUSH1 0x0 JUMPDEST DUP4 DUP2 LT ISZERO PUSH2 0x1246 JUMPI DUP1 DUP3 ADD MLOAD DUP2 DUP5 ADD MSTORE PUSH1 0x20 DUP2 ADD SWAP1 POP PUSH2 0x122B JUMP JUMPDEST PUSH1 0x0 DUP5 DUP5 ADD MSTORE POP POP POP POP JUMP JUMPDEST PUSH1 0x0 PUSH1 0x1F NOT PUSH1 0x1F DUP4 ADD AND SWAP1 POP SWAP2 SWAP1 POP JUMP JUMPDEST PUSH1 0x0 PUSH2 0x126E DUP3 PUSH2 0x120C JUMP JUMPDEST PUSH2 0x1278 DUP2 DUP6 PUSH2 0x1217 JUMP JUMPDEST SWAP4 POP PUSH2 0x1288 DUP2 DUP6 PUSH1 0x20 DUP7 ADD PUSH2 0x1228 JUMP JUMPDEST PUSH2 0x1291 DUP2 PUSH2 0x1252 JUMP JUMPDEST DUP5 ADD SWAP2 POP POP SWAP3 SWAP2 POP POP JUMP JUMPDEST PUSH1 0x0 PUSH2 0x12A8 DUP4 DUP4 PUSH2 0x1263 JUMP JUMPDEST SWAP1 POP SWAP3 SWAP2 POP POP JUMP JUMPDEST PUSH1 0x0 PUSH1 0x20 DUP3 ADD SWAP1 POP SWAP2 SWAP1 POP JUMP JUMPDEST PUSH1 0x0 PUSH2 0x12C8 DUP3 PUSH2 0x11E0 JUMP JUMPDEST PUSH2 0x12D2 DUP2 DUP6 PUSH2 0x11EB JUMP JUMPDEST SWAP4 POP DUP4 PUSH1 0x20 DUP3 MUL DUP6 ADD PUSH2 0x12E4 DUP6 PUSH2 0x11FC JUMP JUMPDEST DUP1 PUSH1 0x0 JUMPDEST DUP6 DUP2 LT ISZERO PUSH2 0x1320 JUMPI DUP5 DUP5 SUB DUP10 MSTORE DUP2 MLOAD PUSH2 0x1301 DUP6 DUP3 PUSH2 0x129C JUMP JUMPDEST SWAP5 POP PUSH2 0x130C DUP4 PUSH2 0x12B0 JUMP JUMPDEST SWAP3 POP PUSH1 0x20 DUP11 ADD SWAP10 POP POP PUSH1 0x1 DUP2 ADD SWAP1 POP PUSH2 0x12E8 JUMP JUMPDEST POP DUP3 SWAP8 POP DUP8 SWAP6 POP POP POP POP POP POP SWAP3 SWAP2 POP POP JUMP JUMPDEST PUSH1 0x0 PUSH1 0x20 DUP3 ADD SWAP1 POP DUP2 DUP2 SUB PUSH1 0x0 DUP4 ADD MSTORE PUSH2 0x134C DUP2 DUP5 PUSH2 0x12BD JUMP JUMPDEST SWAP1 POP SWAP3 SWAP2 POP POP JUMP JUMPDEST PUSH32 0x4E487B7100000000000000000000000000000000000000000000000000000000 PUSH1 0x0 MSTORE PUSH1 0x32 PUSH1 0x4 MSTORE PUSH1 0x24 PUSH1 0x0 REVERT JUMPDEST PUSH32 0x4E487B7100000000000000000000000000000000000000000000000000000000 PUSH1 0x0 MSTORE PUSH1 0x11 PUSH1 0x4 MSTORE PUSH1 0x24 PUSH1 0x0 REVERT JUMPDEST PUSH1 0x0 PUSH1 0xFF DUP3 AND SWAP1 POP SWAP2 SWAP1 POP JUMP JUMPDEST PUSH1 0x0 PUSH2 0x13CA DUP3 PUSH2 0x13B2 JUMP JUMPDEST SWAP2 POP PUSH1 0xFF DUP3 SUB PUSH2 0x13DD JUMPI PUSH2 0x13DC PUSH2 0x1383 JUMP JUMPDEST JUMPDEST PUSH1 0x1 DUP3 ADD SWAP1 POP SWAP2 SWAP1 POP JUMP JUMPDEST PUSH1 0x0 DUP3 DUP3 MSTORE PUSH1 0x20 DUP3 ADD SWAP1 POP SWAP3 SWAP2 POP POP JUMP JUMPDEST PUSH32 0x4F6E6C79207061727469636970616E7420776974686F757420737570706C6965 PUSH1 0x0 DUP3 ADD MSTORE PUSH32 0x722063616E2063616C6C20746869732066756E6374696F6E0000000000000000 PUSH1 0x20 DUP3 ADD MSTORE POP JUMP JUMPDEST PUSH1 0x0 PUSH2 0x1455 PUSH1 0x38 DUP4 PUSH2 0x13E8 JUMP JUMPDEST SWAP2 POP PUSH2 0x1460 DUP3 PUSH2 0x13F9 JUMP JUMPDEST PUSH1 0x40 DUP3 ADD SWAP1 POP SWAP2 SWAP1 POP JUMP JUMPDEST PUSH1 0x0 PUSH1 0x20 DUP3 ADD SWAP1 POP DUP2 DUP2 SUB PUSH1 0x0 DUP4 ADD MSTORE PUSH2 0x1484 DUP2 PUSH2 0x1448 JUMP JUMPDEST SWAP1 POP SWAP2 SWAP1 POP JUMP JUMPDEST PUSH1 0x0 PUSH2 0x1496 DUP3 PUSH2 0xF68 JUMP JUMPDEST SWAP2 POP PUSH2 0x14A1 DUP4 PUSH2 0xF68 JUMP JUMPDEST SWAP3 POP DUP3 DUP3 ADD SWAP1 POP DUP1 DUP3 GT ISZERO PUSH2 0x14B9 JUMPI PUSH2 0x14B8 PUSH2 0x1383 JUMP JUMPDEST JUMPDEST SWAP3 SWAP2 POP POP JUMP JUMPDEST PUSH1 0x0 PUSH1 0xA0 DUP3 ADD SWAP1 POP PUSH2 0x14D4 PUSH1 0x0 DUP4 ADD DUP9 PUSH2 0xFCE JUMP JUMPDEST PUSH2 0x14E1 PUSH1 0x20 DUP4 ADD DUP8 PUSH2 0xF72 JUMP JUMPDEST PUSH2 0x14EE PUSH1 0x40 DUP4 ADD DUP7 PUSH2 0xF72 JUMP JUMPDEST PUSH2 0x14FB PUSH1 0x60 DUP4 ADD DUP6 PUSH2 0xF72 JUMP JUMPDEST PUSH2 0x1508 PUSH1 0x80 DUP4 ADD DUP5 PUSH2 0xF72 JUMP JUMPDEST SWAP7 SWAP6 POP POP POP POP POP POP JUMP JUMPDEST PUSH32 0x4F6E6C79207061727469636970616E74206F7220737570706C6965722063616E PUSH1 0x0 DUP3 ADD MSTORE PUSH32 0x2072656365697665000000000000000000000000000000000000000000000000 PUSH1 0x20 DUP3 ADD MSTORE POP JUMP JUMPDEST PUSH1 0x0 PUSH2 0x156E PUSH1 0x28 DUP4 PUSH2 0x13E8 JUMP JUMPDEST SWAP2 POP PUSH2 0x1579 DUP3 PUSH2 0x1512 JUMP JUMPDEST PUSH1 0x40 DUP3 ADD SWAP1 POP SWAP2 SWAP1 POP JUMP JUMPDEST PUSH1 0x0 PUSH1 0x20 DUP3 ADD SWAP1 POP DUP2 DUP2 SUB PUSH1 0x0 DUP4 ADD MSTORE PUSH2 0x159D DUP2 PUSH2 0x1561 JUMP JUMPDEST SWAP1 POP SWAP2 SWAP1 POP JUMP JUMPDEST PUSH32 0x4E6F7420656E6F75676820657468657273000000000000000000000000000000 PUSH1 0x0 DUP3 ADD MSTORE POP JUMP JUMPDEST PUSH1 0x0 PUSH2 0x15DA PUSH1 0x11 DUP4 PUSH2 0x13E8 JUMP JUMPDEST SWAP2 POP PUSH2 0x15E5 DUP3 PUSH2 0x15A4 JUMP JUMPDEST PUSH1 0x20 DUP3 ADD SWAP1 POP SWAP2 SWAP1 POP JUMP JUMPDEST PUSH1 0x0 PUSH1 0x20 DUP3 ADD SWAP1 POP DUP2 DUP2 SUB PUSH1 0x0 DUP4 ADD MSTORE PUSH2 0x1609 DUP2 PUSH2 0x15CD JUMP JUMPDEST SWAP1 POP SWAP2 SWAP1 POP JUMP JUMPDEST PUSH32 0x4E6F7420656E6F75676820617373657473000000000000000000000000000000 PUSH1 0x0 DUP3 ADD MSTORE POP JUMP JUMPDEST PUSH1 0x0 PUSH2 0x1646 PUSH1 0x11 DUP4 PUSH2 0x13E8 JUMP JUMPDEST SWAP2 POP PUSH2 0x1651 DUP3 PUSH2 0x1610 JUMP JUMPDEST PUSH1 0x20 DUP3 ADD SWAP1 POP SWAP2 SWAP1 POP JUMP JUMPDEST PUSH1 0x0 PUSH1 0x20 DUP3 ADD SWAP1 POP DUP2 DUP2 SUB PUSH1 0x0 DUP4 ADD MSTORE PUSH2 0x1675 DUP2 PUSH2 0x1639 JUMP JUMPDEST SWAP1 POP SWAP2 SWAP1 POP JUMP JUMPDEST PUSH1 0x0 PUSH2 0x1687 DUP3 PUSH2 0xF68 JUMP JUMPDEST SWAP2 POP PUSH2 0x1692 DUP4 PUSH2 0xF68 JUMP JUMPDEST SWAP3 POP DUP3 DUP3 SUB SWAP1 POP DUP2 DUP2 GT ISZERO PUSH2 0x16AA JUMPI PUSH2 0x16A9 PUSH2 0x1383 JUMP JUMPDEST JUMPDEST SWAP3 SWAP2 POP POP JUMP JUMPDEST PUSH1 0x0 DUP2 SWAP1 POP SWAP2 SWAP1 POP JUMP JUMPDEST PUSH1 0x0 PUSH2 0x16D5 PUSH2 0x16D0 PUSH2 0x16CB DUP5 PUSH2 0xF9C JUMP JUMPDEST PUSH2 0x16B0 JUMP JUMPDEST PUSH2 0xF9C JUMP JUMPDEST SWAP1 POP SWAP2 SWAP1 POP JUMP JUMPDEST PUSH1 0x0 PUSH2 0x16E7 DUP3 PUSH2 0x16BA JUMP JUMPDEST SWAP1 POP SWAP2 SWAP1 POP JUMP JUMPDEST PUSH1 0x0 PUSH2 0x16F9 DUP3 PUSH2 0x16DC JUMP JUMPDEST SWAP1 POP SWAP2 SWAP1 POP JUMP JUMPDEST PUSH2 0x1709 DUP2 PUSH2 0x16EE JUMP JUMPDEST DUP3 MSTORE POP POP JUMP JUMPDEST PUSH1 0x0 PUSH1 0xA0 DUP3 ADD SWAP1 POP PUSH2 0x1724 PUSH1 0x0 DUP4 ADD DUP9 PUSH2 0x1700 JUMP JUMPDEST PUSH2 0x1731 PUSH1 0x20 DUP4 ADD DUP8 PUSH2 0xF72 JUMP JUMPDEST PUSH2 0x173E PUSH1 0x40 DUP4 ADD DUP7 PUSH2 0xF72 JUMP JUMPDEST PUSH2 0x174B PUSH1 0x60 DUP4 ADD DUP6 PUSH2 0xF72 JUMP JUMPDEST PUSH2 0x1758 PUSH1 0x80 DUP4 ADD DUP5 PUSH2 0xF72 JUMP JUMPDEST SWAP7 SWAP6 POP POP POP POP POP POP JUMP JUMPDEST PUSH32 0x4E487B7100000000000000000000000000000000000000000000000000000000 PUSH1 0x0 MSTORE PUSH1 0x41 PUSH1 0x4 MSTORE PUSH1 0x24 PUSH1 0x0 REVERT JUMPDEST PUSH32 0x4E487B7100000000000000000000000000000000000000000000000000000000 PUSH1 0x0 MSTORE PUSH1 0x22 PUSH1 0x4 MSTORE PUSH1 0x24 PUSH1 0x0 REVERT JUMPDEST PUSH1 0x0 PUSH1 0x2 DUP3 DIV SWAP1 POP PUSH1 0x1 DUP3 AND DUP1 PUSH2 0x17D8 JUMPI PUSH1 0x7F DUP3 AND SWAP2 POP JUMPDEST PUSH1 0x20 DUP3 LT DUP2 SUB PUSH2 0x17EB JUMPI PUSH2 0x17EA PUSH2 0x1791 JUMP JUMPDEST JUMPDEST POP SWAP2 SWAP1 POP JUMP JUMPDEST PUSH1 0x0 DUP2 SWAP1 POP SWAP3 SWAP2 POP POP JUMP JUMPDEST PUSH1 0x0 DUP2 SWAP1 POP DUP2 PUSH1 0x0 MSTORE PUSH1 0x20 PUSH1 0x0 KECCAK256 SWAP1 POP SWAP2 SWAP1 POP JUMP JUMPDEST PUSH1 0x0 DUP2 SLOAD PUSH2 0x181E DUP2 PUSH2 0x17C0 JUMP JUMPDEST PUSH2 0x1828 DUP2 DUP7 PUSH2 0x17F1 JUMP JUMPDEST SWAP5 POP PUSH1 0x1 DUP3 AND PUSH1 0x0 DUP2 EQ PUSH2 0x1843 JUMPI PUSH1 0x1 DUP2 EQ PUSH2 0x1858 JUMPI PUSH2 0x188B JUMP JUMPDEST PUSH1 0xFF NOT DUP4 AND DUP7 MSTORE DUP2 ISZERO ISZERO DUP3 MUL DUP7 ADD SWAP4 POP PUSH2 0x188B JUMP JUMPDEST PUSH2 0x1861 DUP6 PUSH2 0x17FC JUMP JUMPDEST PUSH1 0x0 JUMPDEST DUP4 DUP2 LT ISZERO PUSH2 0x1883 JUMPI DUP2 SLOAD DUP2 DUP10 ADD MSTORE PUSH1 0x1 DUP3 ADD SWAP2 POP PUSH1 0x20 DUP2 ADD SWAP1 POP PUSH2 0x1864 JUMP JUMPDEST DUP4 DUP9 ADD SWAP6 POP POP POP JUMPDEST POP POP POP SWAP3 SWAP2 POP POP JUMP JUMPDEST PUSH1 0x0 PUSH2 0x18A0 DUP3 DUP5 PUSH2 0x1811 JUMP JUMPDEST SWAP2 POP DUP2 SWAP1 POP SWAP3 SWAP2 POP POP JUMP JUMPDEST PUSH1 0x0 PUSH2 0x18B6 DUP3 PUSH2 0xF68 JUMP JUMPDEST SWAP2 POP PUSH32 0xFFFFFFFFFFFFFFFFFFFFFFFFFFFFFFFFFFFFFFFFFFFFFFFFFFFFFFFFFFFFFFFF DUP3 SUB PUSH2 0x18E8 JUMPI PUSH2 0x18E7 PUSH2 0x1383 JUMP JUMPDEST JUMPDEST PUSH1 0x1 DUP3 ADD SWAP1 POP SWAP2 SWAP1 POP JUMP JUMPDEST PUSH1 0x0 PUSH2 0x18FE DUP3 PUSH2 0xF68 JUMP JUMPDEST SWAP2 POP PUSH2 0x1909 DUP4 PUSH2 0xF68 JUMP JUMPDEST SWAP3 POP DUP3 DUP3 MUL PUSH2 0x1917 DUP2 PUSH2 0xF68 JUMP JUMPDEST SWAP2 POP DUP3 DUP3 DIV DUP5 EQ DUP4 ISZERO OR PUSH2 0x192E JUMPI PUSH2 0x192D PUSH2 0x1383 JUMP JUMPDEST JUMPDEST POP SWAP3 SWAP2 POP POP JUMP JUMPDEST PUSH32 0x4E487B7100000000000000000000000000000000000000000000000000000000 PUSH1 0x0 MSTORE PUSH1 0x12 PUSH1 0x4 MSTORE PUSH1 0x24 PUSH1 0x0 REVERT JUMPDEST PUSH1 0x0 PUSH2 0x196F DUP3 PUSH2 0xF68 JUMP JUMPDEST SWAP2 POP PUSH2 0x197A DUP4 PUSH2 0xF68 JUMP JUMPDEST SWAP3 POP DUP3 PUSH2 0x198A JUMPI PUSH2 0x1989 PUSH2 0x1935 JUMP JUMPDEST JUMPDEST DUP3 DUP3 DIV SWAP1 POP SWAP3 SWAP2 POP POP JUMP INVALID LOG2 PUSH5 0x6970667358 0x22 SLT KECCAK256 0xD3 0x4A BASEFEE 0xD9 0xCA DUP7 0xAE GT POP 0x5E PUSH15 0x2761910076C007D793A617000ABF8C PUSH26 0x66C45A4AFB64736F6C6343000813003300000000000000000000 "
        },
        "methodIdentifiers": {
          "getAssets(address)": "742978da",
          "getBalance()": "12065fe0",
          "getContractInformation()": "f6dfdad1",
          "getOwnerAddressWallet()": "9c01b52f",
          "getSupplierAddressWallet()": "14a24bcf",
          "getUserAddressWallet()": "3f44327a",
          "sendToSmartContract()": "4510fb59",
          "withDrawByCurrency(address,uint256)": "904e3cff",
          "withDrawByPercent(address,uint256)": "fbb05337"
        }
      }
    }
  }
}