{
  "contracts/SupplyChain.sol": {
    "SupplyChain": {
      "abi": [
        {
          "inputs": [
            {
              "internalType": "address[]",
              "name": "_user",
              "type": "address[]"
            },
            {
              "internalType": "address",
              "name": "_supplier",
              "type": "address"
            },
            {
              "internalType": "string[]",
              "name": "_keys",
              "type": "string[]"
            },
            {
              "internalType": "bytes[]",
              "name": "_values",
              "type": "bytes[]"
            },
            {
              "internalType": "uint256",
              "name": "_total",
              "type": "uint256"
            },
            {
              "components": [
                {
                  "internalType": "uint256",
                  "name": "percent",
                  "type": "uint256"
                },
                {
                  "internalType": "uint256",
                  "name": "deliveryAt",
                  "type": "uint256"
                },
                {
                  "internalType": "string",
                  "name": "description",
                  "type": "string"
                }
              ],
              "internalType": "struct SupplyChain.StageData[]",
              "name": "_stages",
              "type": "tuple[]"
            },
            {
              "internalType": "string",
              "name": "_privateKey",
              "type": "string"
            }
          ],
          "stateMutability": "nonpayable",
          "type": "constructor"
        },
        {
          "anonymous": false,
          "inputs": [
            {
              "indexed": false,
              "internalType": "uint256",
              "name": "percent",
              "type": "uint256"
            },
            {
              "indexed": false,
              "internalType": "bool",
              "name": "userConfirm",
              "type": "bool"
            },
            {
              "indexed": false,
              "internalType": "bool",
              "name": "supplierConfirm",
              "type": "bool"
            },
            {
              "indexed": false,
              "internalType": "bool",
              "name": "isDone",
              "type": "bool"
            },
            {
              "indexed": false,
              "internalType": "uint256",
              "name": "confirmedAt",
              "type": "uint256"
            }
          ],
          "name": "confirmedStage",
          "type": "event"
        },
        {
          "anonymous": false,
          "inputs": [
            {
              "indexed": false,
              "internalType": "address",
              "name": "owner",
              "type": "address"
            },
            {
              "indexed": false,
              "internalType": "address[]",
              "name": "user",
              "type": "address[]"
            },
            {
              "indexed": false,
              "internalType": "address",
              "name": "supplier",
              "type": "address"
            },
            {
              "indexed": false,
              "internalType": "uint256",
              "name": "totalBalance",
              "type": "uint256"
            },
            {
              "indexed": false,
              "internalType": "uint256",
              "name": "currentBalance",
              "type": "uint256"
            },
            {
              "indexed": false,
              "internalType": "uint256",
              "name": "deployAt",
              "type": "uint256"
            }
          ],
          "name": "contractCreated",
          "type": "event"
        },
        {
          "anonymous": false,
          "inputs": [
            {
              "indexed": false,
              "internalType": "address",
              "name": "sender",
              "type": "address"
            },
            {
              "indexed": false,
              "internalType": "uint256",
              "name": "amount",
              "type": "uint256"
            },
            {
              "indexed": false,
              "internalType": "uint256",
              "name": "totalBalance",
              "type": "uint256"
            },
            {
              "indexed": false,
              "internalType": "uint256",
              "name": "currentBalance",
              "type": "uint256"
            },
            {
              "indexed": false,
              "internalType": "uint256",
              "name": "receivedAt",
              "type": "uint256"
            }
          ],
          "name": "received",
          "type": "event"
        },
        {
          "anonymous": false,
          "inputs": [
            {
              "indexed": false,
              "internalType": "address",
              "name": "to",
              "type": "address"
            },
            {
              "indexed": false,
              "internalType": "uint256",
              "name": "amount",
              "type": "uint256"
            },
            {
              "indexed": false,
              "internalType": "uint256",
              "name": "totalBalance",
              "type": "uint256"
            },
            {
              "indexed": false,
              "internalType": "uint256",
              "name": "currentBalance",
              "type": "uint256"
            },
            {
              "indexed": false,
              "internalType": "uint256",
              "name": "widthdrewAt",
              "type": "uint256"
            }
          ],
          "name": "widthdrew",
          "type": "event"
        },
        {
          "inputs": [],
          "name": "confirmStage",
          "outputs": [],
          "stateMutability": "nonpayable",
          "type": "function"
        },
        {
          "inputs": [
            {
              "internalType": "address",
              "name": "_addressWallet",
              "type": "address"
            }
          ],
          "name": "getAssets",
          "outputs": [
            {
              "internalType": "uint256",
              "name": "",
              "type": "uint256"
            }
          ],
          "stateMutability": "view",
          "type": "function"
        },
        {
          "inputs": [],
          "name": "getBalance",
          "outputs": [
            {
              "internalType": "uint256",
              "name": "",
              "type": "uint256"
            }
          ],
          "stateMutability": "view",
          "type": "function"
        },
        {
          "inputs": [
            {
              "internalType": "string",
              "name": "_privateKey",
              "type": "string"
            }
          ],
          "name": "getContractInformation",
          "outputs": [
            {
              "internalType": "string[]",
              "name": "",
              "type": "string[]"
            }
          ],
          "stateMutability": "view",
          "type": "function"
        },
        {
          "inputs": [],
          "name": "getOwnerAddressWallet",
          "outputs": [
            {
              "internalType": "address",
              "name": "",
              "type": "address"
            }
          ],
          "stateMutability": "view",
          "type": "function"
        },
        {
          "inputs": [],
          "name": "getStages",
          "outputs": [
            {
              "components": [
                {
                  "internalType": "uint256",
                  "name": "percent",
                  "type": "uint256"
                },
                {
                  "internalType": "uint256",
                  "name": "deliveryAt",
                  "type": "uint256"
                },
                {
                  "internalType": "string",
                  "name": "description",
                  "type": "string"
                },
                {
                  "internalType": "bool",
                  "name": "userConfirm",
                  "type": "bool"
                },
                {
                  "internalType": "bool",
                  "name": "supplierConfirm",
                  "type": "bool"
                },
                {
                  "internalType": "bool",
                  "name": "isDone",
                  "type": "bool"
                }
              ],
              "internalType": "struct SupplyChain.Stage[]",
              "name": "",
              "type": "tuple[]"
            }
          ],
          "stateMutability": "view",
          "type": "function"
        },
        {
          "inputs": [],
          "name": "getStagesLength",
          "outputs": [
            {
              "internalType": "uint256",
              "name": "",
              "type": "uint256"
            }
          ],
          "stateMutability": "view",
          "type": "function"
        },
        {
          "inputs": [],
          "name": "getSupplierAddressWallet",
          "outputs": [
            {
              "internalType": "address",
              "name": "",
              "type": "address"
            }
          ],
          "stateMutability": "view",
          "type": "function"
        },
        {
          "inputs": [],
          "name": "getTotalBalance",
          "outputs": [
            {
              "internalType": "uint256",
              "name": "",
              "type": "uint256"
            }
          ],
          "stateMutability": "view",
          "type": "function"
        },
        {
          "inputs": [],
          "name": "getUserAddressWallet",
          "outputs": [
            {
              "internalType": "address[]",
              "name": "",
              "type": "address[]"
            }
          ],
          "stateMutability": "view",
          "type": "function"
        },
        {
          "inputs": [],
          "name": "sendToSmartContract",
          "outputs": [],
          "stateMutability": "payable",
          "type": "function"
        },
        {
          "inputs": [
            {
              "internalType": "address",
              "name": "_supplier",
              "type": "address"
            }
          ],
          "name": "setAddressSupplier",
          "outputs": [],
          "stateMutability": "nonpayable",
          "type": "function"
        },
        {
          "inputs": [
            {
              "internalType": "string[]",
              "name": "_keys",
              "type": "string[]"
            },
            {
              "internalType": "bytes[]",
              "name": "_values",
              "type": "bytes[]"
            }
          ],
          "name": "setInformation",
          "outputs": [],
          "stateMutability": "nonpayable",
          "type": "function"
        },
        {
          "inputs": [
            {
              "internalType": "string",
              "name": "_privateKey",
              "type": "string"
            }
          ],
          "name": "setPrivateKey",
          "outputs": [],
          "stateMutability": "nonpayable",
          "type": "function"
        },
        {
          "inputs": [
            {
              "components": [
                {
                  "internalType": "uint256",
                  "name": "percent",
                  "type": "uint256"
                },
                {
                  "internalType": "uint256",
                  "name": "deliveryAt",
                  "type": "uint256"
                },
                {
                  "internalType": "string",
                  "name": "description",
                  "type": "string"
                }
              ],
              "internalType": "struct SupplyChain.StageData[]",
              "name": "_stages",
              "type": "tuple[]"
            }
          ],
          "name": "setStages",
          "outputs": [],
          "stateMutability": "nonpayable",
          "type": "function"
        },
        {
          "inputs": [
            {
              "internalType": "uint256",
              "name": "_total",
              "type": "uint256"
            }
          ],
          "name": "setTotal",
          "outputs": [],
          "stateMutability": "nonpayable",
          "type": "function"
        },
        {
          "inputs": [
            {
              "internalType": "address[]",
              "name": "_users",
              "type": "address[]"
            }
          ],
          "name": "setUsers",
          "outputs": [],
          "stateMutability": "nonpayable",
          "type": "function"
        },
        {
          "inputs": [
            {
              "internalType": "address payable",
              "name": "_addressWallet",
              "type": "address"
            },
            {
              "internalType": "uint256",
              "name": "_amount",
              "type": "uint256"
            }
          ],
          "name": "withDrawByCurrency",
          "outputs": [],
          "stateMutability": "payable",
          "type": "function"
        },
        {
          "inputs": [
            {
              "internalType": "address payable",
              "name": "_addressWallet",
              "type": "address"
            },
            {
              "internalType": "uint256",
              "name": "_percent",
              "type": "uint256"
            }
          ],
          "name": "withDrawByPercent",
          "outputs": [],
          "stateMutability": "payable",
          "type": "function"
        }
      ],
      "evm": {
        "bytecode": {
          "linkReferences": {},
          "object": "60806040526000600860006101000a81548160ff021916908360ff1602179055503480156200002d57600080fd5b506040516200521738038062005217833981810160405281019062000053919062000c83565b806009908162000064919062001012565b506000600860016101000a81548160ff021916908360028111156200008e576200008d620010f9565b5b0217905550670de0b6b3a764000083620000a9919062001157565b60068190555085600360006101000a81548173ffffffffffffffffffffffffffffffffffffffff021916908373ffffffffffffffffffffffffffffffffffffffff160217905550336000806101000a81548173ffffffffffffffffffffffffffffffffffffffff021916908373ffffffffffffffffffffffffffffffffffffffff16021790555060005b87518160ff1610156200023e576001888260ff16815181106200015b576200015a620011a2565b5b60200260200101519080600181540180825580915050600190039060005260206000200160009091909190916101000a81548173ffffffffffffffffffffffffffffffffffffffff021916908373ffffffffffffffffffffffffffffffffffffffff1602179055506000600260008a8460ff1681518110620001e257620001e1620011a2565b5b602002602001015173ffffffffffffffffffffffffffffffffffffffff1673ffffffffffffffffffffffffffffffffffffffff1681526020019081526020016000208190555080806200023590620011de565b91505062000133565b5060005b85518160ff1610156200032c57848160ff1681518110620002685762000267620011a2565b5b60200260200101516004878360ff16815181106200028b576200028a620011a2565b5b6020026020010151604051620002a291906200124e565b90815260200160405180910390209081620002be9190620012d7565b506005868260ff1681518110620002da57620002d9620011a2565b5b602002602001015190806001815401808255809150506001900390600052602060002001600090919091909150908162000315919062001012565b5080806200032390620011de565b91505062000242565b5060005b82518160ff161015620004ae5760076040518060c00160405280858460ff1681518110620003635762000362620011a2565b5b6020026020010151600001518152602001858460ff16815181106200038d576200038c620011a2565b5b6020026020010151602001518152602001858460ff1681518110620003b757620003b6620011a2565b5b60200260200101516040015181526020016000151581526020016000151581526020016000151581525090806001815401808255809150506001900390600052602060002090600402016000909190919091506000820151816000015560208201518160010155604082015181600201908162000435919062001012565b5060608201518160030160006101000a81548160ff02191690831515021790555060808201518160030160016101000a81548160ff02191690831515021790555060a08201518160030160026101000a81548160ff02191690831515021790555050508080620004a590620011de565b91505062000330565b507f68e8e16725ae304c7b00b773ba80b94a2ea18bebc9d7cc7ade4f8c4980649ae160008054906101000a900473ffffffffffffffffffffffffffffffffffffffff166001600360009054906101000a900473ffffffffffffffffffffffffffffffffffffffff1660065447426040516200052f969594939291906200151c565b60405180910390a15050505050505062001590565b6000604051905090565b600080fd5b600080fd5b600080fd5b6000601f19601f8301169050919050565b7f4e487b7100000000000000000000000000000000000000000000000000000000600052604160045260246000fd5b620005a8826200055d565b810181811067ffffffffffffffff82111715620005ca57620005c96200056e565b5b80604052505050565b6000620005df62000544565b9050620005ed82826200059d565b919050565b600067ffffffffffffffff82111562000610576200060f6200056e565b5b602082029050602081019050919050565b600080fd5b600073ffffffffffffffffffffffffffffffffffffffff82169050919050565b6000620006538262000626565b9050919050565b620006658162000646565b81146200067157600080fd5b50565b60008151905062000685816200065a565b92915050565b6000620006a26200069c84620005f2565b620005d3565b90508083825260208201905060208402830185811115620006c857620006c762000621565b5b835b81811015620006f55780620006e0888262000674565b845260208401935050602081019050620006ca565b5050509392505050565b600082601f83011262000717576200071662000558565b5b8151620007298482602086016200068b565b91505092915050565b600067ffffffffffffffff82111562000750576200074f6200056e565b5b602082029050602081019050919050565b600080fd5b600067ffffffffffffffff8211156200078457620007836200056e565b5b6200078f826200055d565b9050602081019050919050565b60005b83811015620007bc5780820151818401526020810190506200079f565b60008484015250505050565b6000620007df620007d98462000766565b620005d3565b905082815260208101848484011115620007fe57620007fd62000761565b5b6200080b8482856200079c565b509392505050565b600082601f8301126200082b576200082a62000558565b5b81516200083d848260208601620007c8565b91505092915050565b60006200085d620008578462000732565b620005d3565b9050808382526020820190506020840283018581111562000883576200088262000621565b5b835b81811015620008d157805167ffffffffffffffff811115620008ac57620008ab62000558565b5b808601620008bb898262000813565b8552602085019450505060208101905062000885565b5050509392505050565b600082601f830112620008f357620008f262000558565b5b81516200090584826020860162000846565b91505092915050565b600067ffffffffffffffff8211156200092c576200092b6200056e565b5b602082029050602081019050919050565b600067ffffffffffffffff8211156200095b576200095a6200056e565b5b62000966826200055d565b9050602081019050919050565b60006200098a62000984846200093d565b620005d3565b905082815260208101848484011115620009a957620009a862000761565b5b620009b68482856200079c565b509392505050565b600082601f830112620009d657620009d562000558565b5b8151620009e884826020860162000973565b91505092915050565b600062000a0862000a02846200090e565b620005d3565b9050808382526020820190506020840283018581111562000a2e5762000a2d62000621565b5b835b8181101562000a7c57805167ffffffffffffffff81111562000a575762000a5662000558565b5b80860162000a668982620009be565b8552602085019450505060208101905062000a30565b5050509392505050565b600082601f83011262000a9e5762000a9d62000558565b5b815162000ab0848260208601620009f1565b91505092915050565b6000819050919050565b62000ace8162000ab9565b811462000ada57600080fd5b50565b60008151905062000aee8162000ac3565b92915050565b600067ffffffffffffffff82111562000b125762000b116200056e565b5b602082029050602081019050919050565b600080fd5b600080fd5b60006060828403121562000b465762000b4562000b23565b5b62000b526060620005d3565b9050600062000b648482850162000add565b600083015250602062000b7a8482850162000add565b602083015250604082015167ffffffffffffffff81111562000ba15762000ba062000b28565b5b62000baf8482850162000813565b60408301525092915050565b600062000bd262000bcc8462000af4565b620005d3565b9050808382526020820190506020840283018581111562000bf85762000bf762000621565b5b835b8181101562000c4657805167ffffffffffffffff81111562000c215762000c2062000558565b5b80860162000c30898262000b2d565b8552602085019450505060208101905062000bfa565b5050509392505050565b600082601f83011262000c685762000c6762000558565b5b815162000c7a84826020860162000bbb565b91505092915050565b600080600080600080600060e0888a03121562000ca55762000ca46200054e565b5b600088015167ffffffffffffffff81111562000cc65762000cc562000553565b5b62000cd48a828b01620006ff565b975050602062000ce78a828b0162000674565b965050604088015167ffffffffffffffff81111562000d0b5762000d0a62000553565b5b62000d198a828b01620008db565b955050606088015167ffffffffffffffff81111562000d3d5762000d3c62000553565b5b62000d4b8a828b0162000a86565b945050608062000d5e8a828b0162000add565b93505060a088015167ffffffffffffffff81111562000d825762000d8162000553565b5b62000d908a828b0162000c50565b92505060c088015167ffffffffffffffff81111562000db45762000db362000553565b5b62000dc28a828b0162000813565b91505092959891949750929550565b600081519050919050565b7f4e487b7100000000000000000000000000000000000000000000000000000000600052602260045260246000fd5b6000600282049050600182168062000e2457607f821691505b60208210810362000e3a5762000e3962000ddc565b5b50919050565b60008190508160005260206000209050919050565b60006020601f8301049050919050565b600082821b905092915050565b60006008830262000ea47fffffffffffffffffffffffffffffffffffffffffffffffffffffffffffffffff8262000e65565b62000eb0868362000e65565b95508019841693508086168417925050509392505050565b6000819050919050565b600062000ef362000eed62000ee78462000ab9565b62000ec8565b62000ab9565b9050919050565b6000819050919050565b62000f0f8362000ed2565b62000f2762000f1e8262000efa565b84845462000e72565b825550505050565b600090565b62000f3e62000f2f565b62000f4b81848462000f04565b505050565b5b8181101562000f735762000f6760008262000f34565b60018101905062000f51565b5050565b601f82111562000fc25762000f8c8162000e40565b62000f978462000e55565b8101602085101562000fa7578190505b62000fbf62000fb68562000e55565b83018262000f50565b50505b505050565b600082821c905092915050565b600062000fe76000198460080262000fc7565b1980831691505092915050565b600062001002838362000fd4565b9150826002028217905092915050565b6200101d8262000dd1565b67ffffffffffffffff8111156200103957620010386200056e565b5b62001045825462000e0b565b6200105282828562000f77565b600060209050601f8311600181146200108a576000841562001075578287015190505b62001081858262000ff4565b865550620010f1565b601f1984166200109a8662000e40565b60005b82811015620010c4578489015182556001820191506020850194506020810190506200109d565b86831015620010e45784890151620010e0601f89168262000fd4565b8355505b6001600288020188555050505b505050505050565b7f4e487b7100000000000000000000000000000000000000000000000000000000600052602160045260246000fd5b7f4e487b7100000000000000000000000000000000000000000000000000000000600052601160045260246000fd5b6000620011648262000ab9565b9150620011718362000ab9565b9250828202620011818162000ab9565b915082820484148315176200119b576200119a62001128565b5b5092915050565b7f4e487b7100000000000000000000000000000000000000000000000000000000600052603260045260246000fd5b600060ff82169050919050565b6000620011eb82620011d1565b915060ff820362001201576200120062001128565b5b600182019050919050565b600081905092915050565b6000620012248262000dd1565b6200123081856200120c565b9350620012428185602086016200079c565b80840191505092915050565b60006200125c828462001217565b915081905092915050565b600081519050919050565b60008190508160005260206000209050919050565b601f821115620012d2576200129c8162001272565b620012a78462000e55565b81016020851015620012b7578190505b620012cf620012c68562000e55565b83018262000f50565b50505b505050565b620012e28262001267565b67ffffffffffffffff811115620012fe57620012fd6200056e565b5b6200130a825462000e0b565b6200131782828562001287565b600060209050601f8311600181146200134f57600084156200133a578287015190505b62001346858262000ff4565b865550620013b6565b601f1984166200135f8662001272565b60005b82811015620013895784890151825560018201915060208501945060208101905062001362565b86831015620013a95784890151620013a5601f89168262000fd4565b8355505b6001600288020188555050505b505050505050565b620013c98162000646565b82525050565b600081549050919050565b600082825260208201905092915050565b60008190508160005260206000209050919050565b6200140b8162000646565b82525050565b60006200141f838362001400565b60208301905092915050565b60008160001c9050919050565b600073ffffffffffffffffffffffffffffffffffffffff82169050919050565b60006200146f62001469836200142b565b62001438565b9050919050565b600062001484825462001458565b9050919050565b6000600182019050919050565b6000620014a582620013cf565b620014b18185620013da565b9350620014be83620013eb565b8060005b83811015620014fe57620014d68262001476565b620014e2888262001411565b9750620014ef836200148b565b925050600181019050620014c2565b5085935050505092915050565b620015168162000ab9565b82525050565b600060c082019050620015336000830189620013be565b818103602083015262001547818862001498565b9050620015586040830187620013be565b6200156760608301866200150b565b6200157660808301856200150b565b6200158560a08301846200150b565b979650505050505050565b613c7780620015a06000396000f3fe6080604052600436106101145760003560e01c806381bcf830116100a0578063cdad720511610064578063cdad72051461034d578063d88eab6314610376578063da28cef71461039f578063e0d4f017146103ca578063fbb05337146103f357610114565b806381bcf83014610277578063904e3cff146102a05780639c01b52f146102bc578063a4477713146102e7578063aa4a70801461032457610114565b80633f44327a116100e75780633f44327a146101c35780634510fb59146101ee5780634bbe765a146101f8578063742978da1461020f57806379655bd01461024c57610114565b806312065fe01461011957806312b583491461014457806314a24bcf1461016f5780631f8d1d501461019a575b600080fd5b34801561012557600080fd5b5061012e61040f565b60405161013b9190612362565b60405180910390f35b34801561015057600080fd5b50610159610417565b6040516101669190612362565b60405180910390f35b34801561017b57600080fd5b50610184610421565b60405161019191906123be565b60405180910390f35b3480156101a657600080fd5b506101c160048036038101906101bc9190612419565b61044b565b005b3480156101cf57600080fd5b506101d8610595565b6040516101e59190612504565b60405180910390f35b6101f6610623565b005b34801561020457600080fd5b5061020d6107a4565b005b34801561021b57600080fd5b5061023660048036038101906102319190612552565b610dcf565b6040516102439190612362565b60405180910390f35b34801561025857600080fd5b50610261610f00565b60405161026e9190612784565b60405180910390f35b34801561028357600080fd5b5061029e60048036038101906102999190612b43565b611056565b005b6102ba60048036038101906102b59190612bf9565b611275565b005b3480156102c857600080fd5b506102d161169c565b6040516102de91906123be565b60405180910390f35b3480156102f357600080fd5b5061030e60048036038101906103099190612c39565b6116c5565b60405161031b9190612d44565b60405180910390f35b34801561033057600080fd5b5061034b60048036038101906103469190612e29565b6118be565b005b34801561035957600080fd5b50610374600480360381019061036f9190612552565b611aae565b005b34801561038257600080fd5b5061039d60048036038101906103989190612fdd565b611b84565b005b3480156103ab57600080fd5b506103b4611de2565b6040516103c19190612362565b60405180910390f35b3480156103d657600080fd5b506103f160048036038101906103ec9190612c39565b611def565b005b61040d60048036038101906104089190612bf9565b611eea565b005b600047905090565b6000600654905090565b6000600360009054906101000a900473ffffffffffffffffffffffffffffffffffffffff16905090565b336000805b6001805490508160ff1610156104f05760018160ff168154811061047757610476613026565b5b9060005260206000200160009054906101000a900473ffffffffffffffffffffffffffffffffffffffff1673ffffffffffffffffffffffffffffffffffffffff168373ffffffffffffffffffffffffffffffffffffffff16036104dd57600191506104f0565b80806104e890613091565b915050610450565b50808061054a5750600360009054906101000a900473ffffffffffffffffffffffffffffffffffffffff1673ffffffffffffffffffffffffffffffffffffffff168273ffffffffffffffffffffffffffffffffffffffff16145b610589576040517f08c379a00000000000000000000000000000000000000000000000000000000081526004016105809061313d565b60405180910390fd5b82600681905550505050565b6060600180548060200260200160405190810160405280929190818152602001828054801561061957602002820191906000526020600020905b8160009054906101000a900473ffffffffffffffffffffffffffffffffffffffff1673ffffffffffffffffffffffffffffffffffffffff16815260200190600101908083116105cf575b5050505050905090565b336000805b6001805490508160ff1610156106c85760018160ff168154811061064f5761064e613026565b5b9060005260206000200160009054906101000a900473ffffffffffffffffffffffffffffffffffffffff1673ffffffffffffffffffffffffffffffffffffffff168373ffffffffffffffffffffffffffffffffffffffff16036106b557600191506106c8565b80806106c090613091565b915050610628565b5080610709576040517f08c379a0000000000000000000000000000000000000000000000000000000008152600401610700906131cf565b60405180910390fd5b34600260003373ffffffffffffffffffffffffffffffffffffffff1673ffffffffffffffffffffffffffffffffffffffff168152602001908152602001600020600082825461075891906131ef565b925050819055507fe4f13824473bb5d7c83a33648a5b781337db89c57cdfdb2caf2c87a9ca0391f633346006544742604051610798959493929190613223565b60405180910390a15050565b336000805b6001805490508160ff1610156108495760018160ff16815481106107d0576107cf613026565b5b9060005260206000200160009054906101000a900473ffffffffffffffffffffffffffffffffffffffff1673ffffffffffffffffffffffffffffffffffffffff168373ffffffffffffffffffffffffffffffffffffffff16036108365760019150610849565b808061084190613091565b9150506107a9565b5080806108a35750600360009054906101000a900473ffffffffffffffffffffffffffffffffffffffff1673ffffffffffffffffffffffffffffffffffffffff168273ffffffffffffffffffffffffffffffffffffffff16145b6108e2576040517f08c379a00000000000000000000000000000000000000000000000000000000081526004016108d99061313d565b60405180910390fd5b600360009054906101000a900473ffffffffffffffffffffffffffffffffffffffff1673ffffffffffffffffffffffffffffffffffffffff163373ffffffffffffffffffffffffffffffffffffffff160361098c5760016007600860009054906101000a900460ff1660ff168154811061095f5761095e613026565b5b906000526020600020906004020160030160016101000a81548160ff0219169083151502179055506109dd565b60016007600860009054906101000a900460ff1660ff16815481106109b4576109b3613026565b5b906000526020600020906004020160030160006101000a81548160ff0219169083151502179055505b6007600860009054906101000a900460ff1660ff1681548110610a0357610a02613026565b5b906000526020600020906004020160030160019054906101000a900460ff168015610a6f57506007600860009054906101000a900460ff1660ff1681548110610a4f57610a4e613026565b5b906000526020600020906004020160030160009054906101000a900460ff165b15610c89573073ffffffffffffffffffffffffffffffffffffffff1663fbb05337600360009054906101000a900473ffffffffffffffffffffffffffffffffffffffff166007600860009054906101000a900460ff1660ff1681548110610ad957610ad8613026565b5b9060005260206000209060040201600001546040518363ffffffff1660e01b8152600401610b08929190613285565b600060405180830381600087803b158015610b2257600080fd5b505af1158015610b36573d6000803e3d6000fd5b505050506008600081819054906101000a900460ff1680929190610b5990613091565b91906101000a81548160ff021916908360ff160217905550503073ffffffffffffffffffffffffffffffffffffffff1663fbb05337600360009054906101000a900473ffffffffffffffffffffffffffffffffffffffff166007600860009054906101000a900460ff1660ff1681548110610bd757610bd6613026565b5b9060005260206000209060040201600001546040518363ffffffff1660e01b8152600401610c06929190613285565b600060405180830381600087803b158015610c2057600080fd5b505af1158015610c34573d6000803e3d6000fd5b5050505060016007600860009054906101000a900460ff1660ff1681548110610c6057610c5f613026565b5b906000526020600020906004020160030160026101000a81548160ff0219169083151502179055505b7f3b73a39967ce2bf2e7547f44bed45ab8268d03405789dee7c98598a496b82cfc6007600860009054906101000a900460ff1660ff1681548110610cd057610ccf613026565b5b9060005260206000209060040201600001546007600860009054906101000a900460ff1660ff1681548110610d0857610d07613026565b5b906000526020600020906004020160030160009054906101000a900460ff166007600860009054906101000a900460ff1660ff1681548110610d4d57610d4c613026565b5b906000526020600020906004020160030160019054906101000a900460ff166007600860009054906101000a900460ff1660ff1681548110610d9257610d91613026565b5b906000526020600020906004020160030160029054906101000a900460ff1642604051610dc39594939291906132bd565b60405180910390a15050565b6000816000805b6001805490508160ff161015610e765760018160ff1681548110610dfd57610dfc613026565b5b9060005260206000200160009054906101000a900473ffffffffffffffffffffffffffffffffffffffff1673ffffffffffffffffffffffffffffffffffffffff168373ffffffffffffffffffffffffffffffffffffffff1603610e635760019150610e76565b8080610e6e90613091565b915050610dd6565b5080610eb7576040517f08c379a0000000000000000000000000000000000000000000000000000000008152600401610eae906131cf565b60405180910390fd5b600260008573ffffffffffffffffffffffffffffffffffffffff1673ffffffffffffffffffffffffffffffffffffffff1681526020019081526020016000205492505050919050565b60606007805480602002602001604051908101604052809291908181526020016000905b8282101561104d57838290600052602060002090600402016040518060c00160405290816000820154815260200160018201548152602001600282018054610f6b9061333f565b80601f0160208091040260200160405190810160405280929190818152602001828054610f979061333f565b8015610fe45780601f10610fb957610100808354040283529160200191610fe4565b820191906000526020600020905b815481529060010190602001808311610fc757829003601f168201915b505050505081526020016003820160009054906101000a900460ff161515151581526020016003820160019054906101000a900460ff161515151581526020016003820160029054906101000a900460ff16151515158152505081526020019060010190610f24565b50505050905090565b336000805b6001805490508160ff1610156110fb5760018160ff168154811061108257611081613026565b5b9060005260206000200160009054906101000a900473ffffffffffffffffffffffffffffffffffffffff1673ffffffffffffffffffffffffffffffffffffffff168373ffffffffffffffffffffffffffffffffffffffff16036110e857600191506110fb565b80806110f390613091565b91505061105b565b5080806111555750600360009054906101000a900473ffffffffffffffffffffffffffffffffffffffff1673ffffffffffffffffffffffffffffffffffffffff168273ffffffffffffffffffffffffffffffffffffffff16145b611194576040517f08c379a000000000000000000000000000000000000000000000000000000000815260040161118b9061313d565b60405180910390fd5b60005b84518160ff16101561126e57838160ff16815181106111b9576111b8613026565b5b60200260200101516004868360ff16815181106111d9576111d8613026565b5b60200260200101516040516111ee91906133ac565b90815260200160405180910390209081611208919061357a565b506005858260ff168151811061122157611220613026565b5b602002602001015190806001815401808255809150506001900390600052602060002001600090919091909150908161125a91906136a7565b50808061126690613091565b915050611197565b5050505050565b336000805b6001805490508160ff16101561131a5760018160ff16815481106112a1576112a0613026565b5b9060005260206000200160009054906101000a900473ffffffffffffffffffffffffffffffffffffffff1673ffffffffffffffffffffffffffffffffffffffff168373ffffffffffffffffffffffffffffffffffffffff1603611307576001915061131a565b808061131290613091565b91505061127a565b508061135b576040517f08c379a0000000000000000000000000000000000000000000000000000000008152600401611352906131cf565b60405180910390fd5b836000805b6001805490508160ff1610156114005760018160ff168154811061138757611386613026565b5b9060005260206000200160009054906101000a900473ffffffffffffffffffffffffffffffffffffffff1673ffffffffffffffffffffffffffffffffffffffff168373ffffffffffffffffffffffffffffffffffffffff16036113ed5760019150611400565b80806113f890613091565b915050611360565b50808061145a5750600360009054906101000a900473ffffffffffffffffffffffffffffffffffffffff1673ffffffffffffffffffffffffffffffffffffffff168273ffffffffffffffffffffffffffffffffffffffff16145b611499576040517f08c379a0000000000000000000000000000000000000000000000000000000008152600401611490906137eb565b60405180910390fd5b84804710156114dd576040517f08c379a00000000000000000000000000000000000000000000000000000000081526004016114d490613857565b60405180910390fd5b600360009054906101000a900473ffffffffffffffffffffffffffffffffffffffff1673ffffffffffffffffffffffffffffffffffffffff168773ffffffffffffffffffffffffffffffffffffffff161461160b5785600260008973ffffffffffffffffffffffffffffffffffffffff1673ffffffffffffffffffffffffffffffffffffffff1681526020019081526020016000205410156115b4576040517f08c379a00000000000000000000000000000000000000000000000000000000081526004016115ab906138c3565b60405180910390fd5b85600260008973ffffffffffffffffffffffffffffffffffffffff1673ffffffffffffffffffffffffffffffffffffffff168152602001908152602001600020600082825461160391906138e3565b925050819055505b8673ffffffffffffffffffffffffffffffffffffffff166108fc879081150290604051600060405180830381858888f19350505050158015611651573d6000803e3d6000fd5b507f132717cc7ce0e7288e4e1e75cd3527373df35d716a6d9d576199b1ee22b159238787600654474260405161168b95949392919061396c565b60405180910390a150505050505050565b60008060009054906101000a900473ffffffffffffffffffffffffffffffffffffffff16905090565b60608160096040516020016116da9190613a42565b604051602081830303815290604052805190602001208160405160200161170191906133ac565b6040516020818303038152906040528051906020012014611757576040517f08c379a000000000000000000000000000000000000000000000000000000000815260040161174e90613aa5565b60405180910390fd5b600060058054905067ffffffffffffffff811115611778576117776127ab565b5b6040519080825280602002602001820160405280156117ab57816020015b60608152602001906001900390816117965790505b50905060005b6005805490508110156118b3576004600582815481106117d4576117d3613026565b5b906000526020600020016040516117eb9190613a42565b908152602001604051809103902080546118049061333f565b80601f01602080910402602001604051908101604052809291908181526020018280546118309061333f565b801561187d5780601f106118525761010080835404028352916020019161187d565b820191906000526020600020905b81548152906001019060200180831161186057829003601f168201915b505050505082828151811061189557611894613026565b5b602002602001018190525080806118ab90613ac5565b9150506117b1565b508092505050919050565b336000805b6001805490508160ff1610156119635760018160ff16815481106118ea576118e9613026565b5b9060005260206000200160009054906101000a900473ffffffffffffffffffffffffffffffffffffffff1673ffffffffffffffffffffffffffffffffffffffff168373ffffffffffffffffffffffffffffffffffffffff16036119505760019150611963565b808061195b90613091565b9150506118c3565b50806119a4576040517f08c379a000000000000000000000000000000000000000000000000000000000815260040161199b906131cf565b60405180910390fd5b60005b83518160ff161015611aa8576001848260ff16815181106119cb576119ca613026565b5b60200260200101519080600181540180825580915050600190039060005260206000200160009091909190916101000a81548173ffffffffffffffffffffffffffffffffffffffff021916908373ffffffffffffffffffffffffffffffffffffffff160217905550600060026000868460ff1681518110611a4f57611a4e613026565b5b602002602001015173ffffffffffffffffffffffffffffffffffffffff1673ffffffffffffffffffffffffffffffffffffffff168152602001908152602001600020819055508080611aa090613091565b9150506119a7565b50505050565b33600360009054906101000a900473ffffffffffffffffffffffffffffffffffffffff1673ffffffffffffffffffffffffffffffffffffffff168173ffffffffffffffffffffffffffffffffffffffff1614611b3f576040517f08c379a0000000000000000000000000000000000000000000000000000000008152600401611b3690613b7f565b60405180910390fd5b81600360006101000a81548173ffffffffffffffffffffffffffffffffffffffff021916908373ffffffffffffffffffffffffffffffffffffffff1602179055505050565b336000805b6001805490508160ff161015611c295760018160ff1681548110611bb057611baf613026565b5b9060005260206000200160009054906101000a900473ffffffffffffffffffffffffffffffffffffffff1673ffffffffffffffffffffffffffffffffffffffff168373ffffffffffffffffffffffffffffffffffffffff1603611c165760019150611c29565b8080611c2190613091565b915050611b89565b5080611c6a576040517f08c379a0000000000000000000000000000000000000000000000000000000008152600401611c61906131cf565b60405180910390fd5b60005b83518160ff161015611ddc5760076040518060c00160405280868460ff1681518110611c9c57611c9b613026565b5b6020026020010151600001518152602001868460ff1681518110611cc357611cc2613026565b5b6020026020010151602001518152602001868460ff1681518110611cea57611ce9613026565b5b602002602001015160400151815260200160001515815260200160001515815260200160001515815250908060018154018082558091505060019003906000526020600020906004020160009091909190915060008201518160000155602082015181600101556040820151816002019081611d6691906136a7565b5060608201518160030160006101000a81548160ff02191690831515021790555060808201518160030160016101000a81548160ff02191690831515021790555060a08201518160030160026101000a81548160ff02191690831515021790555050508080611dd490613091565b915050611c6d565b50505050565b6000600780549050905090565b336000805b6001805490508160ff161015611e945760018160ff1681548110611e1b57611e1a613026565b5b9060005260206000200160009054906101000a900473ffffffffffffffffffffffffffffffffffffffff1673ffffffffffffffffffffffffffffffffffffffff168373ffffffffffffffffffffffffffffffffffffffff1603611e815760019150611e94565b8080611e8c90613091565b915050611df4565b5080611ed5576040517f08c379a0000000000000000000000000000000000000000000000000000000008152600401611ecc906131cf565b60405180910390fd5b8260099081611ee491906136a7565b50505050565b336000805b6001805490508160ff161015611f8f5760018160ff1681548110611f1657611f15613026565b5b9060005260206000200160009054906101000a900473ffffffffffffffffffffffffffffffffffffffff1673ffffffffffffffffffffffffffffffffffffffff168373ffffffffffffffffffffffffffffffffffffffff1603611f7c5760019150611f8f565b8080611f8790613091565b915050611eef565b5080611fd0576040517f08c379a0000000000000000000000000000000000000000000000000000000008152600401611fc7906131cf565b60405180910390fd5b836000805b6001805490508160ff1610156120755760018160ff1681548110611ffc57611ffb613026565b5b9060005260206000200160009054906101000a900473ffffffffffffffffffffffffffffffffffffffff1673ffffffffffffffffffffffffffffffffffffffff168373ffffffffffffffffffffffffffffffffffffffff16036120625760019150612075565b808061206d90613091565b915050611fd5565b5080806120cf5750600360009054906101000a900473ffffffffffffffffffffffffffffffffffffffff1673ffffffffffffffffffffffffffffffffffffffff168273ffffffffffffffffffffffffffffffffffffffff16145b61210e576040517f08c379a0000000000000000000000000000000000000000000000000000000008152600401612105906137eb565b60405180910390fd5b60648560065461211e9190613b9f565b6121289190613c10565b8047101561216b576040517f08c379a000000000000000000000000000000000000000000000000000000000815260040161216290613857565b60405180910390fd5b600060648760065461217d9190613b9f565b6121879190613c10565b9050600360009054906101000a900473ffffffffffffffffffffffffffffffffffffffff1673ffffffffffffffffffffffffffffffffffffffff168873ffffffffffffffffffffffffffffffffffffffff16146122b75780600260008a73ffffffffffffffffffffffffffffffffffffffff1673ffffffffffffffffffffffffffffffffffffffff168152602001908152602001600020541015612260576040517f08c379a0000000000000000000000000000000000000000000000000000000008152600401612257906138c3565b60405180910390fd5b80600260008a73ffffffffffffffffffffffffffffffffffffffff1673ffffffffffffffffffffffffffffffffffffffff16815260200190815260200160002060008282546122af91906138e3565b925050819055505b8773ffffffffffffffffffffffffffffffffffffffff166108fc829081150290604051600060405180830381858888f193505050501580156122fd573d6000803e3d6000fd5b507f132717cc7ce0e7288e4e1e75cd3527373df35d716a6d9d576199b1ee22b159238882600654474260405161233795949392919061396c565b60405180910390a15050505050505050565b6000819050919050565b61235c81612349565b82525050565b60006020820190506123776000830184612353565b92915050565b600073ffffffffffffffffffffffffffffffffffffffff82169050919050565b60006123a88261237d565b9050919050565b6123b88161239d565b82525050565b60006020820190506123d360008301846123af565b92915050565b6000604051905090565b600080fd5b600080fd5b6123f681612349565b811461240157600080fd5b50565b600081359050612413816123ed565b92915050565b60006020828403121561242f5761242e6123e3565b5b600061243d84828501612404565b91505092915050565b600081519050919050565b600082825260208201905092915050565b6000819050602082019050919050565b61247b8161239d565b82525050565b600061248d8383612472565b60208301905092915050565b6000602082019050919050565b60006124b182612446565b6124bb8185612451565b93506124c683612462565b8060005b838110156124f75781516124de8882612481565b97506124e983612499565b9250506001810190506124ca565b5085935050505092915050565b6000602082019050818103600083015261251e81846124a6565b905092915050565b61252f8161239d565b811461253a57600080fd5b50565b60008135905061254c81612526565b92915050565b600060208284031215612568576125676123e3565b5b60006125768482850161253d565b91505092915050565b600081519050919050565b600082825260208201905092915050565b6000819050602082019050919050565b6125b481612349565b82525050565b600081519050919050565b600082825260208201905092915050565b60005b838110156125f45780820151818401526020810190506125d9565b60008484015250505050565b6000601f19601f8301169050919050565b600061261c826125ba565b61262681856125c5565b93506126368185602086016125d6565b61263f81612600565b840191505092915050565b60008115159050919050565b61265f8161264a565b82525050565b600060c08301600083015161267d60008601826125ab565b50602083015161269060208601826125ab565b50604083015184820360408601526126a88282612611565b91505060608301516126bd6060860182612656565b5060808301516126d06080860182612656565b5060a08301516126e360a0860182612656565b508091505092915050565b60006126fa8383612665565b905092915050565b6000602082019050919050565b600061271a8261257f565b612724818561258a565b9350836020820285016127368561259b565b8060005b85811015612772578484038952815161275385826126ee565b945061275e83612702565b925060208a0199505060018101905061273a565b50829750879550505050505092915050565b6000602082019050818103600083015261279e818461270f565b905092915050565b600080fd5b7f4e487b7100000000000000000000000000000000000000000000000000000000600052604160045260246000fd5b6127e382612600565b810181811067ffffffffffffffff82111715612802576128016127ab565b5b80604052505050565b60006128156123d9565b905061282182826127da565b919050565b600067ffffffffffffffff821115612841576128406127ab565b5b602082029050602081019050919050565b600080fd5b600080fd5b600067ffffffffffffffff821115612877576128766127ab565b5b61288082612600565b9050602081019050919050565b82818337600083830152505050565b60006128af6128aa8461285c565b61280b565b9050828152602081018484840111156128cb576128ca612857565b5b6128d684828561288d565b509392505050565b600082601f8301126128f3576128f26127a6565b5b813561290384826020860161289c565b91505092915050565b600061291f61291a84612826565b61280b565b9050808382526020820190506020840283018581111561294257612941612852565b5b835b8181101561298957803567ffffffffffffffff811115612967576129666127a6565b5b80860161297489826128de565b85526020850194505050602081019050612944565b5050509392505050565b600082601f8301126129a8576129a76127a6565b5b81356129b884826020860161290c565b91505092915050565b600067ffffffffffffffff8211156129dc576129db6127ab565b5b602082029050602081019050919050565b600067ffffffffffffffff821115612a0857612a076127ab565b5b612a1182612600565b9050602081019050919050565b6000612a31612a2c846129ed565b61280b565b905082815260208101848484011115612a4d57612a4c612857565b5b612a5884828561288d565b509392505050565b600082601f830112612a7557612a746127a6565b5b8135612a85848260208601612a1e565b91505092915050565b6000612aa1612a9c846129c1565b61280b565b90508083825260208201905060208402830185811115612ac457612ac3612852565b5b835b81811015612b0b57803567ffffffffffffffff811115612ae957612ae86127a6565b5b808601612af68982612a60565b85526020850194505050602081019050612ac6565b5050509392505050565b600082601f830112612b2a57612b296127a6565b5b8135612b3a848260208601612a8e565b91505092915050565b60008060408385031215612b5a57612b596123e3565b5b600083013567ffffffffffffffff811115612b7857612b776123e8565b5b612b8485828601612993565b925050602083013567ffffffffffffffff811115612ba557612ba46123e8565b5b612bb185828601612b15565b9150509250929050565b6000612bc68261237d565b9050919050565b612bd681612bbb565b8114612be157600080fd5b50565b600081359050612bf381612bcd565b92915050565b60008060408385031215612c1057612c0f6123e3565b5b6000612c1e85828601612be4565b9250506020612c2f85828601612404565b9150509250929050565b600060208284031215612c4f57612c4e6123e3565b5b600082013567ffffffffffffffff811115612c6d57612c6c6123e8565b5b612c79848285016128de565b91505092915050565b600081519050919050565b600082825260208201905092915050565b6000819050602082019050919050565b6000612cba8383612611565b905092915050565b6000602082019050919050565b6000612cda82612c82565b612ce48185612c8d565b935083602082028501612cf685612c9e565b8060005b85811015612d325784840389528151612d138582612cae565b9450612d1e83612cc2565b925060208a01995050600181019050612cfa565b50829750879550505050505092915050565b60006020820190508181036000830152612d5e8184612ccf565b905092915050565b600067ffffffffffffffff821115612d8157612d806127ab565b5b602082029050602081019050919050565b6000612da5612da084612d66565b61280b565b90508083825260208201905060208402830185811115612dc857612dc7612852565b5b835b81811015612df15780612ddd888261253d565b845260208401935050602081019050612dca565b5050509392505050565b600082601f830112612e1057612e0f6127a6565b5b8135612e20848260208601612d92565b91505092915050565b600060208284031215612e3f57612e3e6123e3565b5b600082013567ffffffffffffffff811115612e5d57612e5c6123e8565b5b612e6984828501612dfb565b91505092915050565b600067ffffffffffffffff821115612e8d57612e8c6127ab565b5b602082029050602081019050919050565b600080fd5b600080fd5b600060608284031215612ebe57612ebd612e9e565b5b612ec8606061280b565b90506000612ed884828501612404565b6000830152506020612eec84828501612404565b602083015250604082013567ffffffffffffffff811115612f1057612f0f612ea3565b5b612f1c848285016128de565b60408301525092915050565b6000612f3b612f3684612e72565b61280b565b90508083825260208201905060208402830185811115612f5e57612f5d612852565b5b835b81811015612fa557803567ffffffffffffffff811115612f8357612f826127a6565b5b808601612f908982612ea8565b85526020850194505050602081019050612f60565b5050509392505050565b600082601f830112612fc457612fc36127a6565b5b8135612fd4848260208601612f28565b91505092915050565b600060208284031215612ff357612ff26123e3565b5b600082013567ffffffffffffffff811115613011576130106123e8565b5b61301d84828501612faf565b91505092915050565b7f4e487b7100000000000000000000000000000000000000000000000000000000600052603260045260246000fd5b7f4e487b7100000000000000000000000000000000000000000000000000000000600052601160045260246000fd5b600060ff82169050919050565b600061309c82613084565b915060ff82036130af576130ae613055565b5b600182019050919050565b600082825260208201905092915050565b7f4f6e6c79207061727469636970616e74206f7220737570706c6965722063616e60008201527f2063616c6c20746869732066756e6374696f6e00000000000000000000000000602082015250565b60006131276033836130ba565b9150613132826130cb565b604082019050919050565b600060208201905081810360008301526131568161311a565b9050919050565b7f4f6e6c79207061727469636970616e7420776974686f757420737570706c696560008201527f722063616e2063616c6c20746869732066756e6374696f6e0000000000000000602082015250565b60006131b96038836130ba565b91506131c48261315d565b604082019050919050565b600060208201905081810360008301526131e8816131ac565b9050919050565b60006131fa82612349565b915061320583612349565b925082820190508082111561321d5761321c613055565b5b92915050565b600060a08201905061323860008301886123af565b6132456020830187612353565b6132526040830186612353565b61325f6060830185612353565b61326c6080830184612353565b9695505050505050565b61327f81612bbb565b82525050565b600060408201905061329a6000830185613276565b6132a76020830184612353565b9392505050565b6132b78161264a565b82525050565b600060a0820190506132d26000830188612353565b6132df60208301876132ae565b6132ec60408301866132ae565b6132f960608301856132ae565b6133066080830184612353565b9695505050505050565b7f4e487b7100000000000000000000000000000000000000000000000000000000600052602260045260246000fd5b6000600282049050600182168061335757607f821691505b60208210810361336a57613369613310565b5b50919050565b600081905092915050565b6000613386826125ba565b6133908185613370565b93506133a08185602086016125d6565b80840191505092915050565b60006133b8828461337b565b915081905092915050565b600081519050919050565b60008190508160005260206000209050919050565b60006020601f8301049050919050565b600082821b905092915050565b6000600883026134307fffffffffffffffffffffffffffffffffffffffffffffffffffffffffffffffff826133f3565b61343a86836133f3565b95508019841693508086168417925050509392505050565b6000819050919050565b600061347761347261346d84612349565b613452565b612349565b9050919050565b6000819050919050565b6134918361345c565b6134a561349d8261347e565b848454613400565b825550505050565b600090565b6134ba6134ad565b6134c5818484613488565b505050565b5b818110156134e9576134de6000826134b2565b6001810190506134cb565b5050565b601f82111561352e576134ff816133ce565b613508846133e3565b81016020851015613517578190505b61352b613523856133e3565b8301826134ca565b50505b505050565b600082821c905092915050565b600061355160001984600802613533565b1980831691505092915050565b600061356a8383613540565b9150826002028217905092915050565b613583826133c3565b67ffffffffffffffff81111561359c5761359b6127ab565b5b6135a6825461333f565b6135b18282856134ed565b600060209050601f8311600181146135e457600084156135d2578287015190505b6135dc858261355e565b865550613644565b601f1984166135f2866133ce565b60005b8281101561361a578489015182556001820191506020850194506020810190506135f5565b868310156136375784890151613633601f891682613540565b8355505b6001600288020188555050505b505050505050565b60008190508160005260206000209050919050565b601f8211156136a2576136738161364c565b61367c846133e3565b8101602085101561368b578190505b61369f613697856133e3565b8301826134ca565b50505b505050565b6136b0826125ba565b67ffffffffffffffff8111156136c9576136c86127ab565b5b6136d3825461333f565b6136de828285613661565b600060209050601f83116001811461371157600084156136ff578287015190505b613709858261355e565b865550613771565b601f19841661371f8661364c565b60005b8281101561374757848901518255600182019150602085019450602081019050613722565b868310156137645784890151613760601f891682613540565b8355505b6001600288020188555050505b505050505050565b7f4f6e6c79207061727469636970616e74206f7220737570706c6965722063616e60008201527f2072656365697665000000000000000000000000000000000000000000000000602082015250565b60006137d56028836130ba565b91506137e082613779565b604082019050919050565b60006020820190508181036000830152613804816137c8565b9050919050565b7f4e6f7420656e6f75676820657468657273000000000000000000000000000000600082015250565b60006138416011836130ba565b915061384c8261380b565b602082019050919050565b6000602082019050818103600083015261387081613834565b9050919050565b7f4e6f7420656e6f75676820617373657473000000000000000000000000000000600082015250565b60006138ad6011836130ba565b91506138b882613877565b602082019050919050565b600060208201905081810360008301526138dc816138a0565b9050919050565b60006138ee82612349565b91506138f983612349565b925082820390508181111561391157613910613055565b5b92915050565b600061393261392d6139288461237d565b613452565b61237d565b9050919050565b600061394482613917565b9050919050565b600061395682613939565b9050919050565b6139668161394b565b82525050565b600060a082019050613981600083018861395d565b61398e6020830187612353565b61399b6040830186612353565b6139a86060830185612353565b6139b56080830184612353565b9695505050505050565b600081546139cc8161333f565b6139d68186613370565b945060018216600081146139f15760018114613a0657613a39565b60ff1983168652811515820286019350613a39565b613a0f8561364c565b60005b83811015613a3157815481890152600182019150602081019050613a12565b838801955050505b50505092915050565b6000613a4e82846139bf565b915081905092915050565b7f50726976617465206b6579206973206e6f7420636f7272656374000000000000600082015250565b6000613a8f601a836130ba565b9150613a9a82613a59565b602082019050919050565b60006020820190508181036000830152613abe81613a82565b9050919050565b6000613ad082612349565b91507fffffffffffffffffffffffffffffffffffffffffffffffffffffffffffffffff8203613b0257613b01613055565b5b600182019050919050565b7f4f6e6c7920737570706c6965722063616e2063616c6c20746869732066756e6360008201527f74696f6e00000000000000000000000000000000000000000000000000000000602082015250565b6000613b696024836130ba565b9150613b7482613b0d565b604082019050919050565b60006020820190508181036000830152613b9881613b5c565b9050919050565b6000613baa82612349565b9150613bb583612349565b9250828202613bc381612349565b91508282048414831517613bda57613bd9613055565b5b5092915050565b7f4e487b7100000000000000000000000000000000000000000000000000000000600052601260045260246000fd5b6000613c1b82612349565b9150613c2683612349565b925082613c3657613c35613be1565b5b82820490509291505056fea26469706673582212205de5caac3621acc57059afc2db4c3d3fad56ea2aa2cd5ada181c6a0be8b7ae8264736f6c63430008130033",
          "opcodes": "PUSH1 0x80 PUSH1 0x40 MSTORE PUSH1 0x0 PUSH1 0x8 PUSH1 0x0 PUSH2 0x100 EXP DUP2 SLOAD DUP2 PUSH1 0xFF MUL NOT AND SWAP1 DUP4 PUSH1 0xFF AND MUL OR SWAP1 SSTORE POP CALLVALUE DUP1 ISZERO PUSH3 0x2D JUMPI PUSH1 0x0 DUP1 REVERT JUMPDEST POP PUSH1 0x40 MLOAD PUSH3 0x5217 CODESIZE SUB DUP1 PUSH3 0x5217 DUP4 CODECOPY DUP2 DUP2 ADD PUSH1 0x40 MSTORE DUP2 ADD SWAP1 PUSH3 0x53 SWAP2 SWAP1 PUSH3 0xC83 JUMP JUMPDEST DUP1 PUSH1 0x9 SWAP1 DUP2 PUSH3 0x64 SWAP2 SWAP1 PUSH3 0x1012 JUMP JUMPDEST POP PUSH1 0x0 PUSH1 0x8 PUSH1 0x1 PUSH2 0x100 EXP DUP2 SLOAD DUP2 PUSH1 0xFF MUL NOT AND SWAP1 DUP4 PUSH1 0x2 DUP2 GT ISZERO PUSH3 0x8E JUMPI PUSH3 0x8D PUSH3 0x10F9 JUMP JUMPDEST JUMPDEST MUL OR SWAP1 SSTORE POP PUSH8 0xDE0B6B3A7640000 DUP4 PUSH3 0xA9 SWAP2 SWAP1 PUSH3 0x1157 JUMP JUMPDEST PUSH1 0x6 DUP2 SWAP1 SSTORE POP DUP6 PUSH1 0x3 PUSH1 0x0 PUSH2 0x100 EXP DUP2 SLOAD DUP2 PUSH20 0xFFFFFFFFFFFFFFFFFFFFFFFFFFFFFFFFFFFFFFFF MUL NOT AND SWAP1 DUP4 PUSH20 0xFFFFFFFFFFFFFFFFFFFFFFFFFFFFFFFFFFFFFFFF AND MUL OR SWAP1 SSTORE POP CALLER PUSH1 0x0 DUP1 PUSH2 0x100 EXP DUP2 SLOAD DUP2 PUSH20 0xFFFFFFFFFFFFFFFFFFFFFFFFFFFFFFFFFFFFFFFF MUL NOT AND SWAP1 DUP4 PUSH20 0xFFFFFFFFFFFFFFFFFFFFFFFFFFFFFFFFFFFFFFFF AND MUL OR SWAP1 SSTORE POP PUSH1 0x0 JUMPDEST DUP8 MLOAD DUP2 PUSH1 0xFF AND LT ISZERO PUSH3 0x23E JUMPI PUSH1 0x1 DUP9 DUP3 PUSH1 0xFF AND DUP2 MLOAD DUP2 LT PUSH3 0x15B JUMPI PUSH3 0x15A PUSH3 0x11A2 JUMP JUMPDEST JUMPDEST PUSH1 0x20 MUL PUSH1 0x20 ADD ADD MLOAD SWAP1 DUP1 PUSH1 0x1 DUP2 SLOAD ADD DUP1 DUP3 SSTORE DUP1 SWAP2 POP POP PUSH1 0x1 SWAP1 SUB SWAP1 PUSH1 0x0 MSTORE PUSH1 0x20 PUSH1 0x0 KECCAK256 ADD PUSH1 0x0 SWAP1 SWAP2 SWAP1 SWAP2 SWAP1 SWAP2 PUSH2 0x100 EXP DUP2 SLOAD DUP2 PUSH20 0xFFFFFFFFFFFFFFFFFFFFFFFFFFFFFFFFFFFFFFFF MUL NOT AND SWAP1 DUP4 PUSH20 0xFFFFFFFFFFFFFFFFFFFFFFFFFFFFFFFFFFFFFFFF AND MUL OR SWAP1 SSTORE POP PUSH1 0x0 PUSH1 0x2 PUSH1 0x0 DUP11 DUP5 PUSH1 0xFF AND DUP2 MLOAD DUP2 LT PUSH3 0x1E2 JUMPI PUSH3 0x1E1 PUSH3 0x11A2 JUMP JUMPDEST JUMPDEST PUSH1 0x20 MUL PUSH1 0x20 ADD ADD MLOAD PUSH20 0xFFFFFFFFFFFFFFFFFFFFFFFFFFFFFFFFFFFFFFFF AND PUSH20 0xFFFFFFFFFFFFFFFFFFFFFFFFFFFFFFFFFFFFFFFF AND DUP2 MSTORE PUSH1 0x20 ADD SWAP1 DUP2 MSTORE PUSH1 0x20 ADD PUSH1 0x0 KECCAK256 DUP2 SWAP1 SSTORE POP DUP1 DUP1 PUSH3 0x235 SWAP1 PUSH3 0x11DE JUMP JUMPDEST SWAP2 POP POP PUSH3 0x133 JUMP JUMPDEST POP PUSH1 0x0 JUMPDEST DUP6 MLOAD DUP2 PUSH1 0xFF AND LT ISZERO PUSH3 0x32C JUMPI DUP5 DUP2 PUSH1 0xFF AND DUP2 MLOAD DUP2 LT PUSH3 0x268 JUMPI PUSH3 0x267 PUSH3 0x11A2 JUMP JUMPDEST JUMPDEST PUSH1 0x20 MUL PUSH1 0x20 ADD ADD MLOAD PUSH1 0x4 DUP8 DUP4 PUSH1 0xFF AND DUP2 MLOAD DUP2 LT PUSH3 0x28B JUMPI PUSH3 0x28A PUSH3 0x11A2 JUMP JUMPDEST JUMPDEST PUSH1 0x20 MUL PUSH1 0x20 ADD ADD MLOAD PUSH1 0x40 MLOAD PUSH3 0x2A2 SWAP2 SWAP1 PUSH3 0x124E JUMP JUMPDEST SWAP1 DUP2 MSTORE PUSH1 0x20 ADD PUSH1 0x40 MLOAD DUP1 SWAP2 SUB SWAP1 KECCAK256 SWAP1 DUP2 PUSH3 0x2BE SWAP2 SWAP1 PUSH3 0x12D7 JUMP JUMPDEST POP PUSH1 0x5 DUP7 DUP3 PUSH1 0xFF AND DUP2 MLOAD DUP2 LT PUSH3 0x2DA JUMPI PUSH3 0x2D9 PUSH3 0x11A2 JUMP JUMPDEST JUMPDEST PUSH1 0x20 MUL PUSH1 0x20 ADD ADD MLOAD SWAP1 DUP1 PUSH1 0x1 DUP2 SLOAD ADD DUP1 DUP3 SSTORE DUP1 SWAP2 POP POP PUSH1 0x1 SWAP1 SUB SWAP1 PUSH1 0x0 MSTORE PUSH1 0x20 PUSH1 0x0 KECCAK256 ADD PUSH1 0x0 SWAP1 SWAP2 SWAP1 SWAP2 SWAP1 SWAP2 POP SWAP1 DUP2 PUSH3 0x315 SWAP2 SWAP1 PUSH3 0x1012 JUMP JUMPDEST POP DUP1 DUP1 PUSH3 0x323 SWAP1 PUSH3 0x11DE JUMP JUMPDEST SWAP2 POP POP PUSH3 0x242 JUMP JUMPDEST POP PUSH1 0x0 JUMPDEST DUP3 MLOAD DUP2 PUSH1 0xFF AND LT ISZERO PUSH3 0x4AE JUMPI PUSH1 0x7 PUSH1 0x40 MLOAD DUP1 PUSH1 0xC0 ADD PUSH1 0x40 MSTORE DUP1 DUP6 DUP5 PUSH1 0xFF AND DUP2 MLOAD DUP2 LT PUSH3 0x363 JUMPI PUSH3 0x362 PUSH3 0x11A2 JUMP JUMPDEST JUMPDEST PUSH1 0x20 MUL PUSH1 0x20 ADD ADD MLOAD PUSH1 0x0 ADD MLOAD DUP2 MSTORE PUSH1 0x20 ADD DUP6 DUP5 PUSH1 0xFF AND DUP2 MLOAD DUP2 LT PUSH3 0x38D JUMPI PUSH3 0x38C PUSH3 0x11A2 JUMP JUMPDEST JUMPDEST PUSH1 0x20 MUL PUSH1 0x20 ADD ADD MLOAD PUSH1 0x20 ADD MLOAD DUP2 MSTORE PUSH1 0x20 ADD DUP6 DUP5 PUSH1 0xFF AND DUP2 MLOAD DUP2 LT PUSH3 0x3B7 JUMPI PUSH3 0x3B6 PUSH3 0x11A2 JUMP JUMPDEST JUMPDEST PUSH1 0x20 MUL PUSH1 0x20 ADD ADD MLOAD PUSH1 0x40 ADD MLOAD DUP2 MSTORE PUSH1 0x20 ADD PUSH1 0x0 ISZERO ISZERO DUP2 MSTORE PUSH1 0x20 ADD PUSH1 0x0 ISZERO ISZERO DUP2 MSTORE PUSH1 0x20 ADD PUSH1 0x0 ISZERO ISZERO DUP2 MSTORE POP SWAP1 DUP1 PUSH1 0x1 DUP2 SLOAD ADD DUP1 DUP3 SSTORE DUP1 SWAP2 POP POP PUSH1 0x1 SWAP1 SUB SWAP1 PUSH1 0x0 MSTORE PUSH1 0x20 PUSH1 0x0 KECCAK256 SWAP1 PUSH1 0x4 MUL ADD PUSH1 0x0 SWAP1 SWAP2 SWAP1 SWAP2 SWAP1 SWAP2 POP PUSH1 0x0 DUP3 ADD MLOAD DUP2 PUSH1 0x0 ADD SSTORE PUSH1 0x20 DUP3 ADD MLOAD DUP2 PUSH1 0x1 ADD SSTORE PUSH1 0x40 DUP3 ADD MLOAD DUP2 PUSH1 0x2 ADD SWAP1 DUP2 PUSH3 0x435 SWAP2 SWAP1 PUSH3 0x1012 JUMP JUMPDEST POP PUSH1 0x60 DUP3 ADD MLOAD DUP2 PUSH1 0x3 ADD PUSH1 0x0 PUSH2 0x100 EXP DUP2 SLOAD DUP2 PUSH1 0xFF MUL NOT AND SWAP1 DUP4 ISZERO ISZERO MUL OR SWAP1 SSTORE POP PUSH1 0x80 DUP3 ADD MLOAD DUP2 PUSH1 0x3 ADD PUSH1 0x1 PUSH2 0x100 EXP DUP2 SLOAD DUP2 PUSH1 0xFF MUL NOT AND SWAP1 DUP4 ISZERO ISZERO MUL OR SWAP1 SSTORE POP PUSH1 0xA0 DUP3 ADD MLOAD DUP2 PUSH1 0x3 ADD PUSH1 0x2 PUSH2 0x100 EXP DUP2 SLOAD DUP2 PUSH1 0xFF MUL NOT AND SWAP1 DUP4 ISZERO ISZERO MUL OR SWAP1 SSTORE POP POP POP DUP1 DUP1 PUSH3 0x4A5 SWAP1 PUSH3 0x11DE JUMP JUMPDEST SWAP2 POP POP PUSH3 0x330 JUMP JUMPDEST POP PUSH32 0x68E8E16725AE304C7B00B773BA80B94A2EA18BEBC9D7CC7ADE4F8C4980649AE1 PUSH1 0x0 DUP1 SLOAD SWAP1 PUSH2 0x100 EXP SWAP1 DIV PUSH20 0xFFFFFFFFFFFFFFFFFFFFFFFFFFFFFFFFFFFFFFFF AND PUSH1 0x1 PUSH1 0x3 PUSH1 0x0 SWAP1 SLOAD SWAP1 PUSH2 0x100 EXP SWAP1 DIV PUSH20 0xFFFFFFFFFFFFFFFFFFFFFFFFFFFFFFFFFFFFFFFF AND PUSH1 0x6 SLOAD SELFBALANCE TIMESTAMP PUSH1 0x40 MLOAD PUSH3 0x52F SWAP7 SWAP6 SWAP5 SWAP4 SWAP3 SWAP2 SWAP1 PUSH3 0x151C JUMP JUMPDEST PUSH1 0x40 MLOAD DUP1 SWAP2 SUB SWAP1 LOG1 POP POP POP POP POP POP POP PUSH3 0x1590 JUMP JUMPDEST PUSH1 0x0 PUSH1 0x40 MLOAD SWAP1 POP SWAP1 JUMP JUMPDEST PUSH1 0x0 DUP1 REVERT JUMPDEST PUSH1 0x0 DUP1 REVERT JUMPDEST PUSH1 0x0 DUP1 REVERT JUMPDEST PUSH1 0x0 PUSH1 0x1F NOT PUSH1 0x1F DUP4 ADD AND SWAP1 POP SWAP2 SWAP1 POP JUMP JUMPDEST PUSH32 0x4E487B7100000000000000000000000000000000000000000000000000000000 PUSH1 0x0 MSTORE PUSH1 0x41 PUSH1 0x4 MSTORE PUSH1 0x24 PUSH1 0x0 REVERT JUMPDEST PUSH3 0x5A8 DUP3 PUSH3 0x55D JUMP JUMPDEST DUP2 ADD DUP2 DUP2 LT PUSH8 0xFFFFFFFFFFFFFFFF DUP3 GT OR ISZERO PUSH3 0x5CA JUMPI PUSH3 0x5C9 PUSH3 0x56E JUMP JUMPDEST JUMPDEST DUP1 PUSH1 0x40 MSTORE POP POP POP JUMP JUMPDEST PUSH1 0x0 PUSH3 0x5DF PUSH3 0x544 JUMP JUMPDEST SWAP1 POP PUSH3 0x5ED DUP3 DUP3 PUSH3 0x59D JUMP JUMPDEST SWAP2 SWAP1 POP JUMP JUMPDEST PUSH1 0x0 PUSH8 0xFFFFFFFFFFFFFFFF DUP3 GT ISZERO PUSH3 0x610 JUMPI PUSH3 0x60F PUSH3 0x56E JUMP JUMPDEST JUMPDEST PUSH1 0x20 DUP3 MUL SWAP1 POP PUSH1 0x20 DUP2 ADD SWAP1 POP SWAP2 SWAP1 POP JUMP JUMPDEST PUSH1 0x0 DUP1 REVERT JUMPDEST PUSH1 0x0 PUSH20 0xFFFFFFFFFFFFFFFFFFFFFFFFFFFFFFFFFFFFFFFF DUP3 AND SWAP1 POP SWAP2 SWAP1 POP JUMP JUMPDEST PUSH1 0x0 PUSH3 0x653 DUP3 PUSH3 0x626 JUMP JUMPDEST SWAP1 POP SWAP2 SWAP1 POP JUMP JUMPDEST PUSH3 0x665 DUP2 PUSH3 0x646 JUMP JUMPDEST DUP2 EQ PUSH3 0x671 JUMPI PUSH1 0x0 DUP1 REVERT JUMPDEST POP JUMP JUMPDEST PUSH1 0x0 DUP2 MLOAD SWAP1 POP PUSH3 0x685 DUP2 PUSH3 0x65A JUMP JUMPDEST SWAP3 SWAP2 POP POP JUMP JUMPDEST PUSH1 0x0 PUSH3 0x6A2 PUSH3 0x69C DUP5 PUSH3 0x5F2 JUMP JUMPDEST PUSH3 0x5D3 JUMP JUMPDEST SWAP1 POP DUP1 DUP4 DUP3 MSTORE PUSH1 0x20 DUP3 ADD SWAP1 POP PUSH1 0x20 DUP5 MUL DUP4 ADD DUP6 DUP2 GT ISZERO PUSH3 0x6C8 JUMPI PUSH3 0x6C7 PUSH3 0x621 JUMP JUMPDEST JUMPDEST DUP4 JUMPDEST DUP2 DUP2 LT ISZERO PUSH3 0x6F5 JUMPI DUP1 PUSH3 0x6E0 DUP9 DUP3 PUSH3 0x674 JUMP JUMPDEST DUP5 MSTORE PUSH1 0x20 DUP5 ADD SWAP4 POP POP PUSH1 0x20 DUP2 ADD SWAP1 POP PUSH3 0x6CA JUMP JUMPDEST POP POP POP SWAP4 SWAP3 POP POP POP JUMP JUMPDEST PUSH1 0x0 DUP3 PUSH1 0x1F DUP4 ADD SLT PUSH3 0x717 JUMPI PUSH3 0x716 PUSH3 0x558 JUMP JUMPDEST JUMPDEST DUP2 MLOAD PUSH3 0x729 DUP5 DUP3 PUSH1 0x20 DUP7 ADD PUSH3 0x68B JUMP JUMPDEST SWAP2 POP POP SWAP3 SWAP2 POP POP JUMP JUMPDEST PUSH1 0x0 PUSH8 0xFFFFFFFFFFFFFFFF DUP3 GT ISZERO PUSH3 0x750 JUMPI PUSH3 0x74F PUSH3 0x56E JUMP JUMPDEST JUMPDEST PUSH1 0x20 DUP3 MUL SWAP1 POP PUSH1 0x20 DUP2 ADD SWAP1 POP SWAP2 SWAP1 POP JUMP JUMPDEST PUSH1 0x0 DUP1 REVERT JUMPDEST PUSH1 0x0 PUSH8 0xFFFFFFFFFFFFFFFF DUP3 GT ISZERO PUSH3 0x784 JUMPI PUSH3 0x783 PUSH3 0x56E JUMP JUMPDEST JUMPDEST PUSH3 0x78F DUP3 PUSH3 0x55D JUMP JUMPDEST SWAP1 POP PUSH1 0x20 DUP2 ADD SWAP1 POP SWAP2 SWAP1 POP JUMP JUMPDEST PUSH1 0x0 JUMPDEST DUP4 DUP2 LT ISZERO PUSH3 0x7BC JUMPI DUP1 DUP3 ADD MLOAD DUP2 DUP5 ADD MSTORE PUSH1 0x20 DUP2 ADD SWAP1 POP PUSH3 0x79F JUMP JUMPDEST PUSH1 0x0 DUP5 DUP5 ADD MSTORE POP POP POP POP JUMP JUMPDEST PUSH1 0x0 PUSH3 0x7DF PUSH3 0x7D9 DUP5 PUSH3 0x766 JUMP JUMPDEST PUSH3 0x5D3 JUMP JUMPDEST SWAP1 POP DUP3 DUP2 MSTORE PUSH1 0x20 DUP2 ADD DUP5 DUP5 DUP5 ADD GT ISZERO PUSH3 0x7FE JUMPI PUSH3 0x7FD PUSH3 0x761 JUMP JUMPDEST JUMPDEST PUSH3 0x80B DUP5 DUP3 DUP6 PUSH3 0x79C JUMP JUMPDEST POP SWAP4 SWAP3 POP POP POP JUMP JUMPDEST PUSH1 0x0 DUP3 PUSH1 0x1F DUP4 ADD SLT PUSH3 0x82B JUMPI PUSH3 0x82A PUSH3 0x558 JUMP JUMPDEST JUMPDEST DUP2 MLOAD PUSH3 0x83D DUP5 DUP3 PUSH1 0x20 DUP7 ADD PUSH3 0x7C8 JUMP JUMPDEST SWAP2 POP POP SWAP3 SWAP2 POP POP JUMP JUMPDEST PUSH1 0x0 PUSH3 0x85D PUSH3 0x857 DUP5 PUSH3 0x732 JUMP JUMPDEST PUSH3 0x5D3 JUMP JUMPDEST SWAP1 POP DUP1 DUP4 DUP3 MSTORE PUSH1 0x20 DUP3 ADD SWAP1 POP PUSH1 0x20 DUP5 MUL DUP4 ADD DUP6 DUP2 GT ISZERO PUSH3 0x883 JUMPI PUSH3 0x882 PUSH3 0x621 JUMP JUMPDEST JUMPDEST DUP4 JUMPDEST DUP2 DUP2 LT ISZERO PUSH3 0x8D1 JUMPI DUP1 MLOAD PUSH8 0xFFFFFFFFFFFFFFFF DUP2 GT ISZERO PUSH3 0x8AC JUMPI PUSH3 0x8AB PUSH3 0x558 JUMP JUMPDEST JUMPDEST DUP1 DUP7 ADD PUSH3 0x8BB DUP10 DUP3 PUSH3 0x813 JUMP JUMPDEST DUP6 MSTORE PUSH1 0x20 DUP6 ADD SWAP5 POP POP POP PUSH1 0x20 DUP2 ADD SWAP1 POP PUSH3 0x885 JUMP JUMPDEST POP POP POP SWAP4 SWAP3 POP POP POP JUMP JUMPDEST PUSH1 0x0 DUP3 PUSH1 0x1F DUP4 ADD SLT PUSH3 0x8F3 JUMPI PUSH3 0x8F2 PUSH3 0x558 JUMP JUMPDEST JUMPDEST DUP2 MLOAD PUSH3 0x905 DUP5 DUP3 PUSH1 0x20 DUP7 ADD PUSH3 0x846 JUMP JUMPDEST SWAP2 POP POP SWAP3 SWAP2 POP POP JUMP JUMPDEST PUSH1 0x0 PUSH8 0xFFFFFFFFFFFFFFFF DUP3 GT ISZERO PUSH3 0x92C JUMPI PUSH3 0x92B PUSH3 0x56E JUMP JUMPDEST JUMPDEST PUSH1 0x20 DUP3 MUL SWAP1 POP PUSH1 0x20 DUP2 ADD SWAP1 POP SWAP2 SWAP1 POP JUMP JUMPDEST PUSH1 0x0 PUSH8 0xFFFFFFFFFFFFFFFF DUP3 GT ISZERO PUSH3 0x95B JUMPI PUSH3 0x95A PUSH3 0x56E JUMP JUMPDEST JUMPDEST PUSH3 0x966 DUP3 PUSH3 0x55D JUMP JUMPDEST SWAP1 POP PUSH1 0x20 DUP2 ADD SWAP1 POP SWAP2 SWAP1 POP JUMP JUMPDEST PUSH1 0x0 PUSH3 0x98A PUSH3 0x984 DUP5 PUSH3 0x93D JUMP JUMPDEST PUSH3 0x5D3 JUMP JUMPDEST SWAP1 POP DUP3 DUP2 MSTORE PUSH1 0x20 DUP2 ADD DUP5 DUP5 DUP5 ADD GT ISZERO PUSH3 0x9A9 JUMPI PUSH3 0x9A8 PUSH3 0x761 JUMP JUMPDEST JUMPDEST PUSH3 0x9B6 DUP5 DUP3 DUP6 PUSH3 0x79C JUMP JUMPDEST POP SWAP4 SWAP3 POP POP POP JUMP JUMPDEST PUSH1 0x0 DUP3 PUSH1 0x1F DUP4 ADD SLT PUSH3 0x9D6 JUMPI PUSH3 0x9D5 PUSH3 0x558 JUMP JUMPDEST JUMPDEST DUP2 MLOAD PUSH3 0x9E8 DUP5 DUP3 PUSH1 0x20 DUP7 ADD PUSH3 0x973 JUMP JUMPDEST SWAP2 POP POP SWAP3 SWAP2 POP POP JUMP JUMPDEST PUSH1 0x0 PUSH3 0xA08 PUSH3 0xA02 DUP5 PUSH3 0x90E JUMP JUMPDEST PUSH3 0x5D3 JUMP JUMPDEST SWAP1 POP DUP1 DUP4 DUP3 MSTORE PUSH1 0x20 DUP3 ADD SWAP1 POP PUSH1 0x20 DUP5 MUL DUP4 ADD DUP6 DUP2 GT ISZERO PUSH3 0xA2E JUMPI PUSH3 0xA2D PUSH3 0x621 JUMP JUMPDEST JUMPDEST DUP4 JUMPDEST DUP2 DUP2 LT ISZERO PUSH3 0xA7C JUMPI DUP1 MLOAD PUSH8 0xFFFFFFFFFFFFFFFF DUP2 GT ISZERO PUSH3 0xA57 JUMPI PUSH3 0xA56 PUSH3 0x558 JUMP JUMPDEST JUMPDEST DUP1 DUP7 ADD PUSH3 0xA66 DUP10 DUP3 PUSH3 0x9BE JUMP JUMPDEST DUP6 MSTORE PUSH1 0x20 DUP6 ADD SWAP5 POP POP POP PUSH1 0x20 DUP2 ADD SWAP1 POP PUSH3 0xA30 JUMP JUMPDEST POP POP POP SWAP4 SWAP3 POP POP POP JUMP JUMPDEST PUSH1 0x0 DUP3 PUSH1 0x1F DUP4 ADD SLT PUSH3 0xA9E JUMPI PUSH3 0xA9D PUSH3 0x558 JUMP JUMPDEST JUMPDEST DUP2 MLOAD PUSH3 0xAB0 DUP5 DUP3 PUSH1 0x20 DUP7 ADD PUSH3 0x9F1 JUMP JUMPDEST SWAP2 POP POP SWAP3 SWAP2 POP POP JUMP JUMPDEST PUSH1 0x0 DUP2 SWAP1 POP SWAP2 SWAP1 POP JUMP JUMPDEST PUSH3 0xACE DUP2 PUSH3 0xAB9 JUMP JUMPDEST DUP2 EQ PUSH3 0xADA JUMPI PUSH1 0x0 DUP1 REVERT JUMPDEST POP JUMP JUMPDEST PUSH1 0x0 DUP2 MLOAD SWAP1 POP PUSH3 0xAEE DUP2 PUSH3 0xAC3 JUMP JUMPDEST SWAP3 SWAP2 POP POP JUMP JUMPDEST PUSH1 0x0 PUSH8 0xFFFFFFFFFFFFFFFF DUP3 GT ISZERO PUSH3 0xB12 JUMPI PUSH3 0xB11 PUSH3 0x56E JUMP JUMPDEST JUMPDEST PUSH1 0x20 DUP3 MUL SWAP1 POP PUSH1 0x20 DUP2 ADD SWAP1 POP SWAP2 SWAP1 POP JUMP JUMPDEST PUSH1 0x0 DUP1 REVERT JUMPDEST PUSH1 0x0 DUP1 REVERT JUMPDEST PUSH1 0x0 PUSH1 0x60 DUP3 DUP5 SUB SLT ISZERO PUSH3 0xB46 JUMPI PUSH3 0xB45 PUSH3 0xB23 JUMP JUMPDEST JUMPDEST PUSH3 0xB52 PUSH1 0x60 PUSH3 0x5D3 JUMP JUMPDEST SWAP1 POP PUSH1 0x0 PUSH3 0xB64 DUP5 DUP3 DUP6 ADD PUSH3 0xADD JUMP JUMPDEST PUSH1 0x0 DUP4 ADD MSTORE POP PUSH1 0x20 PUSH3 0xB7A DUP5 DUP3 DUP6 ADD PUSH3 0xADD JUMP JUMPDEST PUSH1 0x20 DUP4 ADD MSTORE POP PUSH1 0x40 DUP3 ADD MLOAD PUSH8 0xFFFFFFFFFFFFFFFF DUP2 GT ISZERO PUSH3 0xBA1 JUMPI PUSH3 0xBA0 PUSH3 0xB28 JUMP JUMPDEST JUMPDEST PUSH3 0xBAF DUP5 DUP3 DUP6 ADD PUSH3 0x813 JUMP JUMPDEST PUSH1 0x40 DUP4 ADD MSTORE POP SWAP3 SWAP2 POP POP JUMP JUMPDEST PUSH1 0x0 PUSH3 0xBD2 PUSH3 0xBCC DUP5 PUSH3 0xAF4 JUMP JUMPDEST PUSH3 0x5D3 JUMP JUMPDEST SWAP1 POP DUP1 DUP4 DUP3 MSTORE PUSH1 0x20 DUP3 ADD SWAP1 POP PUSH1 0x20 DUP5 MUL DUP4 ADD DUP6 DUP2 GT ISZERO PUSH3 0xBF8 JUMPI PUSH3 0xBF7 PUSH3 0x621 JUMP JUMPDEST JUMPDEST DUP4 JUMPDEST DUP2 DUP2 LT ISZERO PUSH3 0xC46 JUMPI DUP1 MLOAD PUSH8 0xFFFFFFFFFFFFFFFF DUP2 GT ISZERO PUSH3 0xC21 JUMPI PUSH3 0xC20 PUSH3 0x558 JUMP JUMPDEST JUMPDEST DUP1 DUP7 ADD PUSH3 0xC30 DUP10 DUP3 PUSH3 0xB2D JUMP JUMPDEST DUP6 MSTORE PUSH1 0x20 DUP6 ADD SWAP5 POP POP POP PUSH1 0x20 DUP2 ADD SWAP1 POP PUSH3 0xBFA JUMP JUMPDEST POP POP POP SWAP4 SWAP3 POP POP POP JUMP JUMPDEST PUSH1 0x0 DUP3 PUSH1 0x1F DUP4 ADD SLT PUSH3 0xC68 JUMPI PUSH3 0xC67 PUSH3 0x558 JUMP JUMPDEST JUMPDEST DUP2 MLOAD PUSH3 0xC7A DUP5 DUP3 PUSH1 0x20 DUP7 ADD PUSH3 0xBBB JUMP JUMPDEST SWAP2 POP POP SWAP3 SWAP2 POP POP JUMP JUMPDEST PUSH1 0x0 DUP1 PUSH1 0x0 DUP1 PUSH1 0x0 DUP1 PUSH1 0x0 PUSH1 0xE0 DUP9 DUP11 SUB SLT ISZERO PUSH3 0xCA5 JUMPI PUSH3 0xCA4 PUSH3 0x54E JUMP JUMPDEST JUMPDEST PUSH1 0x0 DUP9 ADD MLOAD PUSH8 0xFFFFFFFFFFFFFFFF DUP2 GT ISZERO PUSH3 0xCC6 JUMPI PUSH3 0xCC5 PUSH3 0x553 JUMP JUMPDEST JUMPDEST PUSH3 0xCD4 DUP11 DUP3 DUP12 ADD PUSH3 0x6FF JUMP JUMPDEST SWAP8 POP POP PUSH1 0x20 PUSH3 0xCE7 DUP11 DUP3 DUP12 ADD PUSH3 0x674 JUMP JUMPDEST SWAP7 POP POP PUSH1 0x40 DUP9 ADD MLOAD PUSH8 0xFFFFFFFFFFFFFFFF DUP2 GT ISZERO PUSH3 0xD0B JUMPI PUSH3 0xD0A PUSH3 0x553 JUMP JUMPDEST JUMPDEST PUSH3 0xD19 DUP11 DUP3 DUP12 ADD PUSH3 0x8DB JUMP JUMPDEST SWAP6 POP POP PUSH1 0x60 DUP9 ADD MLOAD PUSH8 0xFFFFFFFFFFFFFFFF DUP2 GT ISZERO PUSH3 0xD3D JUMPI PUSH3 0xD3C PUSH3 0x553 JUMP JUMPDEST JUMPDEST PUSH3 0xD4B DUP11 DUP3 DUP12 ADD PUSH3 0xA86 JUMP JUMPDEST SWAP5 POP POP PUSH1 0x80 PUSH3 0xD5E DUP11 DUP3 DUP12 ADD PUSH3 0xADD JUMP JUMPDEST SWAP4 POP POP PUSH1 0xA0 DUP9 ADD MLOAD PUSH8 0xFFFFFFFFFFFFFFFF DUP2 GT ISZERO PUSH3 0xD82 JUMPI PUSH3 0xD81 PUSH3 0x553 JUMP JUMPDEST JUMPDEST PUSH3 0xD90 DUP11 DUP3 DUP12 ADD PUSH3 0xC50 JUMP JUMPDEST SWAP3 POP POP PUSH1 0xC0 DUP9 ADD MLOAD PUSH8 0xFFFFFFFFFFFFFFFF DUP2 GT ISZERO PUSH3 0xDB4 JUMPI PUSH3 0xDB3 PUSH3 0x553 JUMP JUMPDEST JUMPDEST PUSH3 0xDC2 DUP11 DUP3 DUP12 ADD PUSH3 0x813 JUMP JUMPDEST SWAP2 POP POP SWAP3 SWAP6 SWAP9 SWAP2 SWAP5 SWAP8 POP SWAP3 SWAP6 POP JUMP JUMPDEST PUSH1 0x0 DUP2 MLOAD SWAP1 POP SWAP2 SWAP1 POP JUMP JUMPDEST PUSH32 0x4E487B7100000000000000000000000000000000000000000000000000000000 PUSH1 0x0 MSTORE PUSH1 0x22 PUSH1 0x4 MSTORE PUSH1 0x24 PUSH1 0x0 REVERT JUMPDEST PUSH1 0x0 PUSH1 0x2 DUP3 DIV SWAP1 POP PUSH1 0x1 DUP3 AND DUP1 PUSH3 0xE24 JUMPI PUSH1 0x7F DUP3 AND SWAP2 POP JUMPDEST PUSH1 0x20 DUP3 LT DUP2 SUB PUSH3 0xE3A JUMPI PUSH3 0xE39 PUSH3 0xDDC JUMP JUMPDEST JUMPDEST POP SWAP2 SWAP1 POP JUMP JUMPDEST PUSH1 0x0 DUP2 SWAP1 POP DUP2 PUSH1 0x0 MSTORE PUSH1 0x20 PUSH1 0x0 KECCAK256 SWAP1 POP SWAP2 SWAP1 POP JUMP JUMPDEST PUSH1 0x0 PUSH1 0x20 PUSH1 0x1F DUP4 ADD DIV SWAP1 POP SWAP2 SWAP1 POP JUMP JUMPDEST PUSH1 0x0 DUP3 DUP3 SHL SWAP1 POP SWAP3 SWAP2 POP POP JUMP JUMPDEST PUSH1 0x0 PUSH1 0x8 DUP4 MUL PUSH3 0xEA4 PUSH32 0xFFFFFFFFFFFFFFFFFFFFFFFFFFFFFFFFFFFFFFFFFFFFFFFFFFFFFFFFFFFFFFFF DUP3 PUSH3 0xE65 JUMP JUMPDEST PUSH3 0xEB0 DUP7 DUP4 PUSH3 0xE65 JUMP JUMPDEST SWAP6 POP DUP1 NOT DUP5 AND SWAP4 POP DUP1 DUP7 AND DUP5 OR SWAP3 POP POP POP SWAP4 SWAP3 POP POP POP JUMP JUMPDEST PUSH1 0x0 DUP2 SWAP1 POP SWAP2 SWAP1 POP JUMP JUMPDEST PUSH1 0x0 PUSH3 0xEF3 PUSH3 0xEED PUSH3 0xEE7 DUP5 PUSH3 0xAB9 JUMP JUMPDEST PUSH3 0xEC8 JUMP JUMPDEST PUSH3 0xAB9 JUMP JUMPDEST SWAP1 POP SWAP2 SWAP1 POP JUMP JUMPDEST PUSH1 0x0 DUP2 SWAP1 POP SWAP2 SWAP1 POP JUMP JUMPDEST PUSH3 0xF0F DUP4 PUSH3 0xED2 JUMP JUMPDEST PUSH3 0xF27 PUSH3 0xF1E DUP3 PUSH3 0xEFA JUMP JUMPDEST DUP5 DUP5 SLOAD PUSH3 0xE72 JUMP JUMPDEST DUP3 SSTORE POP POP POP POP JUMP JUMPDEST PUSH1 0x0 SWAP1 JUMP JUMPDEST PUSH3 0xF3E PUSH3 0xF2F JUMP JUMPDEST PUSH3 0xF4B DUP2 DUP5 DUP5 PUSH3 0xF04 JUMP JUMPDEST POP POP POP JUMP JUMPDEST JUMPDEST DUP2 DUP2 LT ISZERO PUSH3 0xF73 JUMPI PUSH3 0xF67 PUSH1 0x0 DUP3 PUSH3 0xF34 JUMP JUMPDEST PUSH1 0x1 DUP2 ADD SWAP1 POP PUSH3 0xF51 JUMP JUMPDEST POP POP JUMP JUMPDEST PUSH1 0x1F DUP3 GT ISZERO PUSH3 0xFC2 JUMPI PUSH3 0xF8C DUP2 PUSH3 0xE40 JUMP JUMPDEST PUSH3 0xF97 DUP5 PUSH3 0xE55 JUMP JUMPDEST DUP2 ADD PUSH1 0x20 DUP6 LT ISZERO PUSH3 0xFA7 JUMPI DUP2 SWAP1 POP JUMPDEST PUSH3 0xFBF PUSH3 0xFB6 DUP6 PUSH3 0xE55 JUMP JUMPDEST DUP4 ADD DUP3 PUSH3 0xF50 JUMP JUMPDEST POP POP JUMPDEST POP POP POP JUMP JUMPDEST PUSH1 0x0 DUP3 DUP3 SHR SWAP1 POP SWAP3 SWAP2 POP POP JUMP JUMPDEST PUSH1 0x0 PUSH3 0xFE7 PUSH1 0x0 NOT DUP5 PUSH1 0x8 MUL PUSH3 0xFC7 JUMP JUMPDEST NOT DUP1 DUP4 AND SWAP2 POP POP SWAP3 SWAP2 POP POP JUMP JUMPDEST PUSH1 0x0 PUSH3 0x1002 DUP4 DUP4 PUSH3 0xFD4 JUMP JUMPDEST SWAP2 POP DUP3 PUSH1 0x2 MUL DUP3 OR SWAP1 POP SWAP3 SWAP2 POP POP JUMP JUMPDEST PUSH3 0x101D DUP3 PUSH3 0xDD1 JUMP JUMPDEST PUSH8 0xFFFFFFFFFFFFFFFF DUP2 GT ISZERO PUSH3 0x1039 JUMPI PUSH3 0x1038 PUSH3 0x56E JUMP JUMPDEST JUMPDEST PUSH3 0x1045 DUP3 SLOAD PUSH3 0xE0B JUMP JUMPDEST PUSH3 0x1052 DUP3 DUP3 DUP6 PUSH3 0xF77 JUMP JUMPDEST PUSH1 0x0 PUSH1 0x20 SWAP1 POP PUSH1 0x1F DUP4 GT PUSH1 0x1 DUP2 EQ PUSH3 0x108A JUMPI PUSH1 0x0 DUP5 ISZERO PUSH3 0x1075 JUMPI DUP3 DUP8 ADD MLOAD SWAP1 POP JUMPDEST PUSH3 0x1081 DUP6 DUP3 PUSH3 0xFF4 JUMP JUMPDEST DUP7 SSTORE POP PUSH3 0x10F1 JUMP JUMPDEST PUSH1 0x1F NOT DUP5 AND PUSH3 0x109A DUP7 PUSH3 0xE40 JUMP JUMPDEST PUSH1 0x0 JUMPDEST DUP3 DUP2 LT ISZERO PUSH3 0x10C4 JUMPI DUP5 DUP10 ADD MLOAD DUP3 SSTORE PUSH1 0x1 DUP3 ADD SWAP2 POP PUSH1 0x20 DUP6 ADD SWAP5 POP PUSH1 0x20 DUP2 ADD SWAP1 POP PUSH3 0x109D JUMP JUMPDEST DUP7 DUP4 LT ISZERO PUSH3 0x10E4 JUMPI DUP5 DUP10 ADD MLOAD PUSH3 0x10E0 PUSH1 0x1F DUP10 AND DUP3 PUSH3 0xFD4 JUMP JUMPDEST DUP4 SSTORE POP JUMPDEST PUSH1 0x1 PUSH1 0x2 DUP9 MUL ADD DUP9 SSTORE POP POP POP JUMPDEST POP POP POP POP POP POP JUMP JUMPDEST PUSH32 0x4E487B7100000000000000000000000000000000000000000000000000000000 PUSH1 0x0 MSTORE PUSH1 0x21 PUSH1 0x4 MSTORE PUSH1 0x24 PUSH1 0x0 REVERT JUMPDEST PUSH32 0x4E487B7100000000000000000000000000000000000000000000000000000000 PUSH1 0x0 MSTORE PUSH1 0x11 PUSH1 0x4 MSTORE PUSH1 0x24 PUSH1 0x0 REVERT JUMPDEST PUSH1 0x0 PUSH3 0x1164 DUP3 PUSH3 0xAB9 JUMP JUMPDEST SWAP2 POP PUSH3 0x1171 DUP4 PUSH3 0xAB9 JUMP JUMPDEST SWAP3 POP DUP3 DUP3 MUL PUSH3 0x1181 DUP2 PUSH3 0xAB9 JUMP JUMPDEST SWAP2 POP DUP3 DUP3 DIV DUP5 EQ DUP4 ISZERO OR PUSH3 0x119B JUMPI PUSH3 0x119A PUSH3 0x1128 JUMP JUMPDEST JUMPDEST POP SWAP3 SWAP2 POP POP JUMP JUMPDEST PUSH32 0x4E487B7100000000000000000000000000000000000000000000000000000000 PUSH1 0x0 MSTORE PUSH1 0x32 PUSH1 0x4 MSTORE PUSH1 0x24 PUSH1 0x0 REVERT JUMPDEST PUSH1 0x0 PUSH1 0xFF DUP3 AND SWAP1 POP SWAP2 SWAP1 POP JUMP JUMPDEST PUSH1 0x0 PUSH3 0x11EB DUP3 PUSH3 0x11D1 JUMP JUMPDEST SWAP2 POP PUSH1 0xFF DUP3 SUB PUSH3 0x1201 JUMPI PUSH3 0x1200 PUSH3 0x1128 JUMP JUMPDEST JUMPDEST PUSH1 0x1 DUP3 ADD SWAP1 POP SWAP2 SWAP1 POP JUMP JUMPDEST PUSH1 0x0 DUP2 SWAP1 POP SWAP3 SWAP2 POP POP JUMP JUMPDEST PUSH1 0x0 PUSH3 0x1224 DUP3 PUSH3 0xDD1 JUMP JUMPDEST PUSH3 0x1230 DUP2 DUP6 PUSH3 0x120C JUMP JUMPDEST SWAP4 POP PUSH3 0x1242 DUP2 DUP6 PUSH1 0x20 DUP7 ADD PUSH3 0x79C JUMP JUMPDEST DUP1 DUP5 ADD SWAP2 POP POP SWAP3 SWAP2 POP POP JUMP JUMPDEST PUSH1 0x0 PUSH3 0x125C DUP3 DUP5 PUSH3 0x1217 JUMP JUMPDEST SWAP2 POP DUP2 SWAP1 POP SWAP3 SWAP2 POP POP JUMP JUMPDEST PUSH1 0x0 DUP2 MLOAD SWAP1 POP SWAP2 SWAP1 POP JUMP JUMPDEST PUSH1 0x0 DUP2 SWAP1 POP DUP2 PUSH1 0x0 MSTORE PUSH1 0x20 PUSH1 0x0 KECCAK256 SWAP1 POP SWAP2 SWAP1 POP JUMP JUMPDEST PUSH1 0x1F DUP3 GT ISZERO PUSH3 0x12D2 JUMPI PUSH3 0x129C DUP2 PUSH3 0x1272 JUMP JUMPDEST PUSH3 0x12A7 DUP5 PUSH3 0xE55 JUMP JUMPDEST DUP2 ADD PUSH1 0x20 DUP6 LT ISZERO PUSH3 0x12B7 JUMPI DUP2 SWAP1 POP JUMPDEST PUSH3 0x12CF PUSH3 0x12C6 DUP6 PUSH3 0xE55 JUMP JUMPDEST DUP4 ADD DUP3 PUSH3 0xF50 JUMP JUMPDEST POP POP JUMPDEST POP POP POP JUMP JUMPDEST PUSH3 0x12E2 DUP3 PUSH3 0x1267 JUMP JUMPDEST PUSH8 0xFFFFFFFFFFFFFFFF DUP2 GT ISZERO PUSH3 0x12FE JUMPI PUSH3 0x12FD PUSH3 0x56E JUMP JUMPDEST JUMPDEST PUSH3 0x130A DUP3 SLOAD PUSH3 0xE0B JUMP JUMPDEST PUSH3 0x1317 DUP3 DUP3 DUP6 PUSH3 0x1287 JUMP JUMPDEST PUSH1 0x0 PUSH1 0x20 SWAP1 POP PUSH1 0x1F DUP4 GT PUSH1 0x1 DUP2 EQ PUSH3 0x134F JUMPI PUSH1 0x0 DUP5 ISZERO PUSH3 0x133A JUMPI DUP3 DUP8 ADD MLOAD SWAP1 POP JUMPDEST PUSH3 0x1346 DUP6 DUP3 PUSH3 0xFF4 JUMP JUMPDEST DUP7 SSTORE POP PUSH3 0x13B6 JUMP JUMPDEST PUSH1 0x1F NOT DUP5 AND PUSH3 0x135F DUP7 PUSH3 0x1272 JUMP JUMPDEST PUSH1 0x0 JUMPDEST DUP3 DUP2 LT ISZERO PUSH3 0x1389 JUMPI DUP5 DUP10 ADD MLOAD DUP3 SSTORE PUSH1 0x1 DUP3 ADD SWAP2 POP PUSH1 0x20 DUP6 ADD SWAP5 POP PUSH1 0x20 DUP2 ADD SWAP1 POP PUSH3 0x1362 JUMP JUMPDEST DUP7 DUP4 LT ISZERO PUSH3 0x13A9 JUMPI DUP5 DUP10 ADD MLOAD PUSH3 0x13A5 PUSH1 0x1F DUP10 AND DUP3 PUSH3 0xFD4 JUMP JUMPDEST DUP4 SSTORE POP JUMPDEST PUSH1 0x1 PUSH1 0x2 DUP9 MUL ADD DUP9 SSTORE POP POP POP JUMPDEST POP POP POP POP POP POP JUMP JUMPDEST PUSH3 0x13C9 DUP2 PUSH3 0x646 JUMP JUMPDEST DUP3 MSTORE POP POP JUMP JUMPDEST PUSH1 0x0 DUP2 SLOAD SWAP1 POP SWAP2 SWAP1 POP JUMP JUMPDEST PUSH1 0x0 DUP3 DUP3 MSTORE PUSH1 0x20 DUP3 ADD SWAP1 POP SWAP3 SWAP2 POP POP JUMP JUMPDEST PUSH1 0x0 DUP2 SWAP1 POP DUP2 PUSH1 0x0 MSTORE PUSH1 0x20 PUSH1 0x0 KECCAK256 SWAP1 POP SWAP2 SWAP1 POP JUMP JUMPDEST PUSH3 0x140B DUP2 PUSH3 0x646 JUMP JUMPDEST DUP3 MSTORE POP POP JUMP JUMPDEST PUSH1 0x0 PUSH3 0x141F DUP4 DUP4 PUSH3 0x1400 JUMP JUMPDEST PUSH1 0x20 DUP4 ADD SWAP1 POP SWAP3 SWAP2 POP POP JUMP JUMPDEST PUSH1 0x0 DUP2 PUSH1 0x0 SHR SWAP1 POP SWAP2 SWAP1 POP JUMP JUMPDEST PUSH1 0x0 PUSH20 0xFFFFFFFFFFFFFFFFFFFFFFFFFFFFFFFFFFFFFFFF DUP3 AND SWAP1 POP SWAP2 SWAP1 POP JUMP JUMPDEST PUSH1 0x0 PUSH3 0x146F PUSH3 0x1469 DUP4 PUSH3 0x142B JUMP JUMPDEST PUSH3 0x1438 JUMP JUMPDEST SWAP1 POP SWAP2 SWAP1 POP JUMP JUMPDEST PUSH1 0x0 PUSH3 0x1484 DUP3 SLOAD PUSH3 0x1458 JUMP JUMPDEST SWAP1 POP SWAP2 SWAP1 POP JUMP JUMPDEST PUSH1 0x0 PUSH1 0x1 DUP3 ADD SWAP1 POP SWAP2 SWAP1 POP JUMP JUMPDEST PUSH1 0x0 PUSH3 0x14A5 DUP3 PUSH3 0x13CF JUMP JUMPDEST PUSH3 0x14B1 DUP2 DUP6 PUSH3 0x13DA JUMP JUMPDEST SWAP4 POP PUSH3 0x14BE DUP4 PUSH3 0x13EB JUMP JUMPDEST DUP1 PUSH1 0x0 JUMPDEST DUP4 DUP2 LT ISZERO PUSH3 0x14FE JUMPI PUSH3 0x14D6 DUP3 PUSH3 0x1476 JUMP JUMPDEST PUSH3 0x14E2 DUP9 DUP3 PUSH3 0x1411 JUMP JUMPDEST SWAP8 POP PUSH3 0x14EF DUP4 PUSH3 0x148B JUMP JUMPDEST SWAP3 POP POP PUSH1 0x1 DUP2 ADD SWAP1 POP PUSH3 0x14C2 JUMP JUMPDEST POP DUP6 SWAP4 POP POP POP POP SWAP3 SWAP2 POP POP JUMP JUMPDEST PUSH3 0x1516 DUP2 PUSH3 0xAB9 JUMP JUMPDEST DUP3 MSTORE POP POP JUMP JUMPDEST PUSH1 0x0 PUSH1 0xC0 DUP3 ADD SWAP1 POP PUSH3 0x1533 PUSH1 0x0 DUP4 ADD DUP10 PUSH3 0x13BE JUMP JUMPDEST DUP2 DUP2 SUB PUSH1 0x20 DUP4 ADD MSTORE PUSH3 0x1547 DUP2 DUP9 PUSH3 0x1498 JUMP JUMPDEST SWAP1 POP PUSH3 0x1558 PUSH1 0x40 DUP4 ADD DUP8 PUSH3 0x13BE JUMP JUMPDEST PUSH3 0x1567 PUSH1 0x60 DUP4 ADD DUP7 PUSH3 0x150B JUMP JUMPDEST PUSH3 0x1576 PUSH1 0x80 DUP4 ADD DUP6 PUSH3 0x150B JUMP JUMPDEST PUSH3 0x1585 PUSH1 0xA0 DUP4 ADD DUP5 PUSH3 0x150B JUMP JUMPDEST SWAP8 SWAP7 POP POP POP POP POP POP POP JUMP JUMPDEST PUSH2 0x3C77 DUP1 PUSH3 0x15A0 PUSH1 0x0 CODECOPY PUSH1 0x0 RETURN INVALID PUSH1 0x80 PUSH1 0x40 MSTORE PUSH1 0x4 CALLDATASIZE LT PUSH2 0x114 JUMPI PUSH1 0x0 CALLDATALOAD PUSH1 0xE0 SHR DUP1 PUSH4 0x81BCF830 GT PUSH2 0xA0 JUMPI DUP1 PUSH4 0xCDAD7205 GT PUSH2 0x64 JUMPI DUP1 PUSH4 0xCDAD7205 EQ PUSH2 0x34D JUMPI DUP1 PUSH4 0xD88EAB63 EQ PUSH2 0x376 JUMPI DUP1 PUSH4 0xDA28CEF7 EQ PUSH2 0x39F JUMPI DUP1 PUSH4 0xE0D4F017 EQ PUSH2 0x3CA JUMPI DUP1 PUSH4 0xFBB05337 EQ PUSH2 0x3F3 JUMPI PUSH2 0x114 JUMP JUMPDEST DUP1 PUSH4 0x81BCF830 EQ PUSH2 0x277 JUMPI DUP1 PUSH4 0x904E3CFF EQ PUSH2 0x2A0 JUMPI DUP1 PUSH4 0x9C01B52F EQ PUSH2 0x2BC JUMPI DUP1 PUSH4 0xA4477713 EQ PUSH2 0x2E7 JUMPI DUP1 PUSH4 0xAA4A7080 EQ PUSH2 0x324 JUMPI PUSH2 0x114 JUMP JUMPDEST DUP1 PUSH4 0x3F44327A GT PUSH2 0xE7 JUMPI DUP1 PUSH4 0x3F44327A EQ PUSH2 0x1C3 JUMPI DUP1 PUSH4 0x4510FB59 EQ PUSH2 0x1EE JUMPI DUP1 PUSH4 0x4BBE765A EQ PUSH2 0x1F8 JUMPI DUP1 PUSH4 0x742978DA EQ PUSH2 0x20F JUMPI DUP1 PUSH4 0x79655BD0 EQ PUSH2 0x24C JUMPI PUSH2 0x114 JUMP JUMPDEST DUP1 PUSH4 0x12065FE0 EQ PUSH2 0x119 JUMPI DUP1 PUSH4 0x12B58349 EQ PUSH2 0x144 JUMPI DUP1 PUSH4 0x14A24BCF EQ PUSH2 0x16F JUMPI DUP1 PUSH4 0x1F8D1D50 EQ PUSH2 0x19A JUMPI JUMPDEST PUSH1 0x0 DUP1 REVERT JUMPDEST CALLVALUE DUP1 ISZERO PUSH2 0x125 JUMPI PUSH1 0x0 DUP1 REVERT JUMPDEST POP PUSH2 0x12E PUSH2 0x40F JUMP JUMPDEST PUSH1 0x40 MLOAD PUSH2 0x13B SWAP2 SWAP1 PUSH2 0x2362 JUMP JUMPDEST PUSH1 0x40 MLOAD DUP1 SWAP2 SUB SWAP1 RETURN JUMPDEST CALLVALUE DUP1 ISZERO PUSH2 0x150 JUMPI PUSH1 0x0 DUP1 REVERT JUMPDEST POP PUSH2 0x159 PUSH2 0x417 JUMP JUMPDEST PUSH1 0x40 MLOAD PUSH2 0x166 SWAP2 SWAP1 PUSH2 0x2362 JUMP JUMPDEST PUSH1 0x40 MLOAD DUP1 SWAP2 SUB SWAP1 RETURN JUMPDEST CALLVALUE DUP1 ISZERO PUSH2 0x17B JUMPI PUSH1 0x0 DUP1 REVERT JUMPDEST POP PUSH2 0x184 PUSH2 0x421 JUMP JUMPDEST PUSH1 0x40 MLOAD PUSH2 0x191 SWAP2 SWAP1 PUSH2 0x23BE JUMP JUMPDEST PUSH1 0x40 MLOAD DUP1 SWAP2 SUB SWAP1 RETURN JUMPDEST CALLVALUE DUP1 ISZERO PUSH2 0x1A6 JUMPI PUSH1 0x0 DUP1 REVERT JUMPDEST POP PUSH2 0x1C1 PUSH1 0x4 DUP1 CALLDATASIZE SUB DUP2 ADD SWAP1 PUSH2 0x1BC SWAP2 SWAP1 PUSH2 0x2419 JUMP JUMPDEST PUSH2 0x44B JUMP JUMPDEST STOP JUMPDEST CALLVALUE DUP1 ISZERO PUSH2 0x1CF JUMPI PUSH1 0x0 DUP1 REVERT JUMPDEST POP PUSH2 0x1D8 PUSH2 0x595 JUMP JUMPDEST PUSH1 0x40 MLOAD PUSH2 0x1E5 SWAP2 SWAP1 PUSH2 0x2504 JUMP JUMPDEST PUSH1 0x40 MLOAD DUP1 SWAP2 SUB SWAP1 RETURN JUMPDEST PUSH2 0x1F6 PUSH2 0x623 JUMP JUMPDEST STOP JUMPDEST CALLVALUE DUP1 ISZERO PUSH2 0x204 JUMPI PUSH1 0x0 DUP1 REVERT JUMPDEST POP PUSH2 0x20D PUSH2 0x7A4 JUMP JUMPDEST STOP JUMPDEST CALLVALUE DUP1 ISZERO PUSH2 0x21B JUMPI PUSH1 0x0 DUP1 REVERT JUMPDEST POP PUSH2 0x236 PUSH1 0x4 DUP1 CALLDATASIZE SUB DUP2 ADD SWAP1 PUSH2 0x231 SWAP2 SWAP1 PUSH2 0x2552 JUMP JUMPDEST PUSH2 0xDCF JUMP JUMPDEST PUSH1 0x40 MLOAD PUSH2 0x243 SWAP2 SWAP1 PUSH2 0x2362 JUMP JUMPDEST PUSH1 0x40 MLOAD DUP1 SWAP2 SUB SWAP1 RETURN JUMPDEST CALLVALUE DUP1 ISZERO PUSH2 0x258 JUMPI PUSH1 0x0 DUP1 REVERT JUMPDEST POP PUSH2 0x261 PUSH2 0xF00 JUMP JUMPDEST PUSH1 0x40 MLOAD PUSH2 0x26E SWAP2 SWAP1 PUSH2 0x2784 JUMP JUMPDEST PUSH1 0x40 MLOAD DUP1 SWAP2 SUB SWAP1 RETURN JUMPDEST CALLVALUE DUP1 ISZERO PUSH2 0x283 JUMPI PUSH1 0x0 DUP1 REVERT JUMPDEST POP PUSH2 0x29E PUSH1 0x4 DUP1 CALLDATASIZE SUB DUP2 ADD SWAP1 PUSH2 0x299 SWAP2 SWAP1 PUSH2 0x2B43 JUMP JUMPDEST PUSH2 0x1056 JUMP JUMPDEST STOP JUMPDEST PUSH2 0x2BA PUSH1 0x4 DUP1 CALLDATASIZE SUB DUP2 ADD SWAP1 PUSH2 0x2B5 SWAP2 SWAP1 PUSH2 0x2BF9 JUMP JUMPDEST PUSH2 0x1275 JUMP JUMPDEST STOP JUMPDEST CALLVALUE DUP1 ISZERO PUSH2 0x2C8 JUMPI PUSH1 0x0 DUP1 REVERT JUMPDEST POP PUSH2 0x2D1 PUSH2 0x169C JUMP JUMPDEST PUSH1 0x40 MLOAD PUSH2 0x2DE SWAP2 SWAP1 PUSH2 0x23BE JUMP JUMPDEST PUSH1 0x40 MLOAD DUP1 SWAP2 SUB SWAP1 RETURN JUMPDEST CALLVALUE DUP1 ISZERO PUSH2 0x2F3 JUMPI PUSH1 0x0 DUP1 REVERT JUMPDEST POP PUSH2 0x30E PUSH1 0x4 DUP1 CALLDATASIZE SUB DUP2 ADD SWAP1 PUSH2 0x309 SWAP2 SWAP1 PUSH2 0x2C39 JUMP JUMPDEST PUSH2 0x16C5 JUMP JUMPDEST PUSH1 0x40 MLOAD PUSH2 0x31B SWAP2 SWAP1 PUSH2 0x2D44 JUMP JUMPDEST PUSH1 0x40 MLOAD DUP1 SWAP2 SUB SWAP1 RETURN JUMPDEST CALLVALUE DUP1 ISZERO PUSH2 0x330 JUMPI PUSH1 0x0 DUP1 REVERT JUMPDEST POP PUSH2 0x34B PUSH1 0x4 DUP1 CALLDATASIZE SUB DUP2 ADD SWAP1 PUSH2 0x346 SWAP2 SWAP1 PUSH2 0x2E29 JUMP JUMPDEST PUSH2 0x18BE JUMP JUMPDEST STOP JUMPDEST CALLVALUE DUP1 ISZERO PUSH2 0x359 JUMPI PUSH1 0x0 DUP1 REVERT JUMPDEST POP PUSH2 0x374 PUSH1 0x4 DUP1 CALLDATASIZE SUB DUP2 ADD SWAP1 PUSH2 0x36F SWAP2 SWAP1 PUSH2 0x2552 JUMP JUMPDEST PUSH2 0x1AAE JUMP JUMPDEST STOP JUMPDEST CALLVALUE DUP1 ISZERO PUSH2 0x382 JUMPI PUSH1 0x0 DUP1 REVERT JUMPDEST POP PUSH2 0x39D PUSH1 0x4 DUP1 CALLDATASIZE SUB DUP2 ADD SWAP1 PUSH2 0x398 SWAP2 SWAP1 PUSH2 0x2FDD JUMP JUMPDEST PUSH2 0x1B84 JUMP JUMPDEST STOP JUMPDEST CALLVALUE DUP1 ISZERO PUSH2 0x3AB JUMPI PUSH1 0x0 DUP1 REVERT JUMPDEST POP PUSH2 0x3B4 PUSH2 0x1DE2 JUMP JUMPDEST PUSH1 0x40 MLOAD PUSH2 0x3C1 SWAP2 SWAP1 PUSH2 0x2362 JUMP JUMPDEST PUSH1 0x40 MLOAD DUP1 SWAP2 SUB SWAP1 RETURN JUMPDEST CALLVALUE DUP1 ISZERO PUSH2 0x3D6 JUMPI PUSH1 0x0 DUP1 REVERT JUMPDEST POP PUSH2 0x3F1 PUSH1 0x4 DUP1 CALLDATASIZE SUB DUP2 ADD SWAP1 PUSH2 0x3EC SWAP2 SWAP1 PUSH2 0x2C39 JUMP JUMPDEST PUSH2 0x1DEF JUMP JUMPDEST STOP JUMPDEST PUSH2 0x40D PUSH1 0x4 DUP1 CALLDATASIZE SUB DUP2 ADD SWAP1 PUSH2 0x408 SWAP2 SWAP1 PUSH2 0x2BF9 JUMP JUMPDEST PUSH2 0x1EEA JUMP JUMPDEST STOP JUMPDEST PUSH1 0x0 SELFBALANCE SWAP1 POP SWAP1 JUMP JUMPDEST PUSH1 0x0 PUSH1 0x6 SLOAD SWAP1 POP SWAP1 JUMP JUMPDEST PUSH1 0x0 PUSH1 0x3 PUSH1 0x0 SWAP1 SLOAD SWAP1 PUSH2 0x100 EXP SWAP1 DIV PUSH20 0xFFFFFFFFFFFFFFFFFFFFFFFFFFFFFFFFFFFFFFFF AND SWAP1 POP SWAP1 JUMP JUMPDEST CALLER PUSH1 0x0 DUP1 JUMPDEST PUSH1 0x1 DUP1 SLOAD SWAP1 POP DUP2 PUSH1 0xFF AND LT ISZERO PUSH2 0x4F0 JUMPI PUSH1 0x1 DUP2 PUSH1 0xFF AND DUP2 SLOAD DUP2 LT PUSH2 0x477 JUMPI PUSH2 0x476 PUSH2 0x3026 JUMP JUMPDEST JUMPDEST SWAP1 PUSH1 0x0 MSTORE PUSH1 0x20 PUSH1 0x0 KECCAK256 ADD PUSH1 0x0 SWAP1 SLOAD SWAP1 PUSH2 0x100 EXP SWAP1 DIV PUSH20 0xFFFFFFFFFFFFFFFFFFFFFFFFFFFFFFFFFFFFFFFF AND PUSH20 0xFFFFFFFFFFFFFFFFFFFFFFFFFFFFFFFFFFFFFFFF AND DUP4 PUSH20 0xFFFFFFFFFFFFFFFFFFFFFFFFFFFFFFFFFFFFFFFF AND SUB PUSH2 0x4DD JUMPI PUSH1 0x1 SWAP2 POP PUSH2 0x4F0 JUMP JUMPDEST DUP1 DUP1 PUSH2 0x4E8 SWAP1 PUSH2 0x3091 JUMP JUMPDEST SWAP2 POP POP PUSH2 0x450 JUMP JUMPDEST POP DUP1 DUP1 PUSH2 0x54A JUMPI POP PUSH1 0x3 PUSH1 0x0 SWAP1 SLOAD SWAP1 PUSH2 0x100 EXP SWAP1 DIV PUSH20 0xFFFFFFFFFFFFFFFFFFFFFFFFFFFFFFFFFFFFFFFF AND PUSH20 0xFFFFFFFFFFFFFFFFFFFFFFFFFFFFFFFFFFFFFFFF AND DUP3 PUSH20 0xFFFFFFFFFFFFFFFFFFFFFFFFFFFFFFFFFFFFFFFF AND EQ JUMPDEST PUSH2 0x589 JUMPI PUSH1 0x40 MLOAD PUSH32 0x8C379A000000000000000000000000000000000000000000000000000000000 DUP2 MSTORE PUSH1 0x4 ADD PUSH2 0x580 SWAP1 PUSH2 0x313D JUMP JUMPDEST PUSH1 0x40 MLOAD DUP1 SWAP2 SUB SWAP1 REVERT JUMPDEST DUP3 PUSH1 0x6 DUP2 SWAP1 SSTORE POP POP POP POP JUMP JUMPDEST PUSH1 0x60 PUSH1 0x1 DUP1 SLOAD DUP1 PUSH1 0x20 MUL PUSH1 0x20 ADD PUSH1 0x40 MLOAD SWAP1 DUP2 ADD PUSH1 0x40 MSTORE DUP1 SWAP3 SWAP2 SWAP1 DUP2 DUP2 MSTORE PUSH1 0x20 ADD DUP3 DUP1 SLOAD DUP1 ISZERO PUSH2 0x619 JUMPI PUSH1 0x20 MUL DUP3 ADD SWAP2 SWAP1 PUSH1 0x0 MSTORE PUSH1 0x20 PUSH1 0x0 KECCAK256 SWAP1 JUMPDEST DUP2 PUSH1 0x0 SWAP1 SLOAD SWAP1 PUSH2 0x100 EXP SWAP1 DIV PUSH20 0xFFFFFFFFFFFFFFFFFFFFFFFFFFFFFFFFFFFFFFFF AND PUSH20 0xFFFFFFFFFFFFFFFFFFFFFFFFFFFFFFFFFFFFFFFF AND DUP2 MSTORE PUSH1 0x20 ADD SWAP1 PUSH1 0x1 ADD SWAP1 DUP1 DUP4 GT PUSH2 0x5CF JUMPI JUMPDEST POP POP POP POP POP SWAP1 POP SWAP1 JUMP JUMPDEST CALLER PUSH1 0x0 DUP1 JUMPDEST PUSH1 0x1 DUP1 SLOAD SWAP1 POP DUP2 PUSH1 0xFF AND LT ISZERO PUSH2 0x6C8 JUMPI PUSH1 0x1 DUP2 PUSH1 0xFF AND DUP2 SLOAD DUP2 LT PUSH2 0x64F JUMPI PUSH2 0x64E PUSH2 0x3026 JUMP JUMPDEST JUMPDEST SWAP1 PUSH1 0x0 MSTORE PUSH1 0x20 PUSH1 0x0 KECCAK256 ADD PUSH1 0x0 SWAP1 SLOAD SWAP1 PUSH2 0x100 EXP SWAP1 DIV PUSH20 0xFFFFFFFFFFFFFFFFFFFFFFFFFFFFFFFFFFFFFFFF AND PUSH20 0xFFFFFFFFFFFFFFFFFFFFFFFFFFFFFFFFFFFFFFFF AND DUP4 PUSH20 0xFFFFFFFFFFFFFFFFFFFFFFFFFFFFFFFFFFFFFFFF AND SUB PUSH2 0x6B5 JUMPI PUSH1 0x1 SWAP2 POP PUSH2 0x6C8 JUMP JUMPDEST DUP1 DUP1 PUSH2 0x6C0 SWAP1 PUSH2 0x3091 JUMP JUMPDEST SWAP2 POP POP PUSH2 0x628 JUMP JUMPDEST POP DUP1 PUSH2 0x709 JUMPI PUSH1 0x40 MLOAD PUSH32 0x8C379A000000000000000000000000000000000000000000000000000000000 DUP2 MSTORE PUSH1 0x4 ADD PUSH2 0x700 SWAP1 PUSH2 0x31CF JUMP JUMPDEST PUSH1 0x40 MLOAD DUP1 SWAP2 SUB SWAP1 REVERT JUMPDEST CALLVALUE PUSH1 0x2 PUSH1 0x0 CALLER PUSH20 0xFFFFFFFFFFFFFFFFFFFFFFFFFFFFFFFFFFFFFFFF AND PUSH20 0xFFFFFFFFFFFFFFFFFFFFFFFFFFFFFFFFFFFFFFFF AND DUP2 MSTORE PUSH1 0x20 ADD SWAP1 DUP2 MSTORE PUSH1 0x20 ADD PUSH1 0x0 KECCAK256 PUSH1 0x0 DUP3 DUP3 SLOAD PUSH2 0x758 SWAP2 SWAP1 PUSH2 0x31EF JUMP JUMPDEST SWAP3 POP POP DUP2 SWAP1 SSTORE POP PUSH32 0xE4F13824473BB5D7C83A33648A5B781337DB89C57CDFDB2CAF2C87A9CA0391F6 CALLER CALLVALUE PUSH1 0x6 SLOAD SELFBALANCE TIMESTAMP PUSH1 0x40 MLOAD PUSH2 0x798 SWAP6 SWAP5 SWAP4 SWAP3 SWAP2 SWAP1 PUSH2 0x3223 JUMP JUMPDEST PUSH1 0x40 MLOAD DUP1 SWAP2 SUB SWAP1 LOG1 POP POP JUMP JUMPDEST CALLER PUSH1 0x0 DUP1 JUMPDEST PUSH1 0x1 DUP1 SLOAD SWAP1 POP DUP2 PUSH1 0xFF AND LT ISZERO PUSH2 0x849 JUMPI PUSH1 0x1 DUP2 PUSH1 0xFF AND DUP2 SLOAD DUP2 LT PUSH2 0x7D0 JUMPI PUSH2 0x7CF PUSH2 0x3026 JUMP JUMPDEST JUMPDEST SWAP1 PUSH1 0x0 MSTORE PUSH1 0x20 PUSH1 0x0 KECCAK256 ADD PUSH1 0x0 SWAP1 SLOAD SWAP1 PUSH2 0x100 EXP SWAP1 DIV PUSH20 0xFFFFFFFFFFFFFFFFFFFFFFFFFFFFFFFFFFFFFFFF AND PUSH20 0xFFFFFFFFFFFFFFFFFFFFFFFFFFFFFFFFFFFFFFFF AND DUP4 PUSH20 0xFFFFFFFFFFFFFFFFFFFFFFFFFFFFFFFFFFFFFFFF AND SUB PUSH2 0x836 JUMPI PUSH1 0x1 SWAP2 POP PUSH2 0x849 JUMP JUMPDEST DUP1 DUP1 PUSH2 0x841 SWAP1 PUSH2 0x3091 JUMP JUMPDEST SWAP2 POP POP PUSH2 0x7A9 JUMP JUMPDEST POP DUP1 DUP1 PUSH2 0x8A3 JUMPI POP PUSH1 0x3 PUSH1 0x0 SWAP1 SLOAD SWAP1 PUSH2 0x100 EXP SWAP1 DIV PUSH20 0xFFFFFFFFFFFFFFFFFFFFFFFFFFFFFFFFFFFFFFFF AND PUSH20 0xFFFFFFFFFFFFFFFFFFFFFFFFFFFFFFFFFFFFFFFF AND DUP3 PUSH20 0xFFFFFFFFFFFFFFFFFFFFFFFFFFFFFFFFFFFFFFFF AND EQ JUMPDEST PUSH2 0x8E2 JUMPI PUSH1 0x40 MLOAD PUSH32 0x8C379A000000000000000000000000000000000000000000000000000000000 DUP2 MSTORE PUSH1 0x4 ADD PUSH2 0x8D9 SWAP1 PUSH2 0x313D JUMP JUMPDEST PUSH1 0x40 MLOAD DUP1 SWAP2 SUB SWAP1 REVERT JUMPDEST PUSH1 0x3 PUSH1 0x0 SWAP1 SLOAD SWAP1 PUSH2 0x100 EXP SWAP1 DIV PUSH20 0xFFFFFFFFFFFFFFFFFFFFFFFFFFFFFFFFFFFFFFFF AND PUSH20 0xFFFFFFFFFFFFFFFFFFFFFFFFFFFFFFFFFFFFFFFF AND CALLER PUSH20 0xFFFFFFFFFFFFFFFFFFFFFFFFFFFFFFFFFFFFFFFF AND SUB PUSH2 0x98C JUMPI PUSH1 0x1 PUSH1 0x7 PUSH1 0x8 PUSH1 0x0 SWAP1 SLOAD SWAP1 PUSH2 0x100 EXP SWAP1 DIV PUSH1 0xFF AND PUSH1 0xFF AND DUP2 SLOAD DUP2 LT PUSH2 0x95F JUMPI PUSH2 0x95E PUSH2 0x3026 JUMP JUMPDEST JUMPDEST SWAP1 PUSH1 0x0 MSTORE PUSH1 0x20 PUSH1 0x0 KECCAK256 SWAP1 PUSH1 0x4 MUL ADD PUSH1 0x3 ADD PUSH1 0x1 PUSH2 0x100 EXP DUP2 SLOAD DUP2 PUSH1 0xFF MUL NOT AND SWAP1 DUP4 ISZERO ISZERO MUL OR SWAP1 SSTORE POP PUSH2 0x9DD JUMP JUMPDEST PUSH1 0x1 PUSH1 0x7 PUSH1 0x8 PUSH1 0x0 SWAP1 SLOAD SWAP1 PUSH2 0x100 EXP SWAP1 DIV PUSH1 0xFF AND PUSH1 0xFF AND DUP2 SLOAD DUP2 LT PUSH2 0x9B4 JUMPI PUSH2 0x9B3 PUSH2 0x3026 JUMP JUMPDEST JUMPDEST SWAP1 PUSH1 0x0 MSTORE PUSH1 0x20 PUSH1 0x0 KECCAK256 SWAP1 PUSH1 0x4 MUL ADD PUSH1 0x3 ADD PUSH1 0x0 PUSH2 0x100 EXP DUP2 SLOAD DUP2 PUSH1 0xFF MUL NOT AND SWAP1 DUP4 ISZERO ISZERO MUL OR SWAP1 SSTORE POP JUMPDEST PUSH1 0x7 PUSH1 0x8 PUSH1 0x0 SWAP1 SLOAD SWAP1 PUSH2 0x100 EXP SWAP1 DIV PUSH1 0xFF AND PUSH1 0xFF AND DUP2 SLOAD DUP2 LT PUSH2 0xA03 JUMPI PUSH2 0xA02 PUSH2 0x3026 JUMP JUMPDEST JUMPDEST SWAP1 PUSH1 0x0 MSTORE PUSH1 0x20 PUSH1 0x0 KECCAK256 SWAP1 PUSH1 0x4 MUL ADD PUSH1 0x3 ADD PUSH1 0x1 SWAP1 SLOAD SWAP1 PUSH2 0x100 EXP SWAP1 DIV PUSH1 0xFF AND DUP1 ISZERO PUSH2 0xA6F JUMPI POP PUSH1 0x7 PUSH1 0x8 PUSH1 0x0 SWAP1 SLOAD SWAP1 PUSH2 0x100 EXP SWAP1 DIV PUSH1 0xFF AND PUSH1 0xFF AND DUP2 SLOAD DUP2 LT PUSH2 0xA4F JUMPI PUSH2 0xA4E PUSH2 0x3026 JUMP JUMPDEST JUMPDEST SWAP1 PUSH1 0x0 MSTORE PUSH1 0x20 PUSH1 0x0 KECCAK256 SWAP1 PUSH1 0x4 MUL ADD PUSH1 0x3 ADD PUSH1 0x0 SWAP1 SLOAD SWAP1 PUSH2 0x100 EXP SWAP1 DIV PUSH1 0xFF AND JUMPDEST ISZERO PUSH2 0xC89 JUMPI ADDRESS PUSH20 0xFFFFFFFFFFFFFFFFFFFFFFFFFFFFFFFFFFFFFFFF AND PUSH4 0xFBB05337 PUSH1 0x3 PUSH1 0x0 SWAP1 SLOAD SWAP1 PUSH2 0x100 EXP SWAP1 DIV PUSH20 0xFFFFFFFFFFFFFFFFFFFFFFFFFFFFFFFFFFFFFFFF AND PUSH1 0x7 PUSH1 0x8 PUSH1 0x0 SWAP1 SLOAD SWAP1 PUSH2 0x100 EXP SWAP1 DIV PUSH1 0xFF AND PUSH1 0xFF AND DUP2 SLOAD DUP2 LT PUSH2 0xAD9 JUMPI PUSH2 0xAD8 PUSH2 0x3026 JUMP JUMPDEST JUMPDEST SWAP1 PUSH1 0x0 MSTORE PUSH1 0x20 PUSH1 0x0 KECCAK256 SWAP1 PUSH1 0x4 MUL ADD PUSH1 0x0 ADD SLOAD PUSH1 0x40 MLOAD DUP4 PUSH4 0xFFFFFFFF AND PUSH1 0xE0 SHL DUP2 MSTORE PUSH1 0x4 ADD PUSH2 0xB08 SWAP3 SWAP2 SWAP1 PUSH2 0x3285 JUMP JUMPDEST PUSH1 0x0 PUSH1 0x40 MLOAD DUP1 DUP4 SUB DUP2 PUSH1 0x0 DUP8 DUP1 EXTCODESIZE ISZERO DUP1 ISZERO PUSH2 0xB22 JUMPI PUSH1 0x0 DUP1 REVERT JUMPDEST POP GAS CALL ISZERO DUP1 ISZERO PUSH2 0xB36 JUMPI RETURNDATASIZE PUSH1 0x0 DUP1 RETURNDATACOPY RETURNDATASIZE PUSH1 0x0 REVERT JUMPDEST POP POP POP POP PUSH1 0x8 PUSH1 0x0 DUP2 DUP2 SWAP1 SLOAD SWAP1 PUSH2 0x100 EXP SWAP1 DIV PUSH1 0xFF AND DUP1 SWAP3 SWAP2 SWAP1 PUSH2 0xB59 SWAP1 PUSH2 0x3091 JUMP JUMPDEST SWAP2 SWAP1 PUSH2 0x100 EXP DUP2 SLOAD DUP2 PUSH1 0xFF MUL NOT AND SWAP1 DUP4 PUSH1 0xFF AND MUL OR SWAP1 SSTORE POP POP ADDRESS PUSH20 0xFFFFFFFFFFFFFFFFFFFFFFFFFFFFFFFFFFFFFFFF AND PUSH4 0xFBB05337 PUSH1 0x3 PUSH1 0x0 SWAP1 SLOAD SWAP1 PUSH2 0x100 EXP SWAP1 DIV PUSH20 0xFFFFFFFFFFFFFFFFFFFFFFFFFFFFFFFFFFFFFFFF AND PUSH1 0x7 PUSH1 0x8 PUSH1 0x0 SWAP1 SLOAD SWAP1 PUSH2 0x100 EXP SWAP1 DIV PUSH1 0xFF AND PUSH1 0xFF AND DUP2 SLOAD DUP2 LT PUSH2 0xBD7 JUMPI PUSH2 0xBD6 PUSH2 0x3026 JUMP JUMPDEST JUMPDEST SWAP1 PUSH1 0x0 MSTORE PUSH1 0x20 PUSH1 0x0 KECCAK256 SWAP1 PUSH1 0x4 MUL ADD PUSH1 0x0 ADD SLOAD PUSH1 0x40 MLOAD DUP4 PUSH4 0xFFFFFFFF AND PUSH1 0xE0 SHL DUP2 MSTORE PUSH1 0x4 ADD PUSH2 0xC06 SWAP3 SWAP2 SWAP1 PUSH2 0x3285 JUMP JUMPDEST PUSH1 0x0 PUSH1 0x40 MLOAD DUP1 DUP4 SUB DUP2 PUSH1 0x0 DUP8 DUP1 EXTCODESIZE ISZERO DUP1 ISZERO PUSH2 0xC20 JUMPI PUSH1 0x0 DUP1 REVERT JUMPDEST POP GAS CALL ISZERO DUP1 ISZERO PUSH2 0xC34 JUMPI RETURNDATASIZE PUSH1 0x0 DUP1 RETURNDATACOPY RETURNDATASIZE PUSH1 0x0 REVERT JUMPDEST POP POP POP POP PUSH1 0x1 PUSH1 0x7 PUSH1 0x8 PUSH1 0x0 SWAP1 SLOAD SWAP1 PUSH2 0x100 EXP SWAP1 DIV PUSH1 0xFF AND PUSH1 0xFF AND DUP2 SLOAD DUP2 LT PUSH2 0xC60 JUMPI PUSH2 0xC5F PUSH2 0x3026 JUMP JUMPDEST JUMPDEST SWAP1 PUSH1 0x0 MSTORE PUSH1 0x20 PUSH1 0x0 KECCAK256 SWAP1 PUSH1 0x4 MUL ADD PUSH1 0x3 ADD PUSH1 0x2 PUSH2 0x100 EXP DUP2 SLOAD DUP2 PUSH1 0xFF MUL NOT AND SWAP1 DUP4 ISZERO ISZERO MUL OR SWAP1 SSTORE POP JUMPDEST PUSH32 0x3B73A39967CE2BF2E7547F44BED45AB8268D03405789DEE7C98598A496B82CFC PUSH1 0x7 PUSH1 0x8 PUSH1 0x0 SWAP1 SLOAD SWAP1 PUSH2 0x100 EXP SWAP1 DIV PUSH1 0xFF AND PUSH1 0xFF AND DUP2 SLOAD DUP2 LT PUSH2 0xCD0 JUMPI PUSH2 0xCCF PUSH2 0x3026 JUMP JUMPDEST JUMPDEST SWAP1 PUSH1 0x0 MSTORE PUSH1 0x20 PUSH1 0x0 KECCAK256 SWAP1 PUSH1 0x4 MUL ADD PUSH1 0x0 ADD SLOAD PUSH1 0x7 PUSH1 0x8 PUSH1 0x0 SWAP1 SLOAD SWAP1 PUSH2 0x100 EXP SWAP1 DIV PUSH1 0xFF AND PUSH1 0xFF AND DUP2 SLOAD DUP2 LT PUSH2 0xD08 JUMPI PUSH2 0xD07 PUSH2 0x3026 JUMP JUMPDEST JUMPDEST SWAP1 PUSH1 0x0 MSTORE PUSH1 0x20 PUSH1 0x0 KECCAK256 SWAP1 PUSH1 0x4 MUL ADD PUSH1 0x3 ADD PUSH1 0x0 SWAP1 SLOAD SWAP1 PUSH2 0x100 EXP SWAP1 DIV PUSH1 0xFF AND PUSH1 0x7 PUSH1 0x8 PUSH1 0x0 SWAP1 SLOAD SWAP1 PUSH2 0x100 EXP SWAP1 DIV PUSH1 0xFF AND PUSH1 0xFF AND DUP2 SLOAD DUP2 LT PUSH2 0xD4D JUMPI PUSH2 0xD4C PUSH2 0x3026 JUMP JUMPDEST JUMPDEST SWAP1 PUSH1 0x0 MSTORE PUSH1 0x20 PUSH1 0x0 KECCAK256 SWAP1 PUSH1 0x4 MUL ADD PUSH1 0x3 ADD PUSH1 0x1 SWAP1 SLOAD SWAP1 PUSH2 0x100 EXP SWAP1 DIV PUSH1 0xFF AND PUSH1 0x7 PUSH1 0x8 PUSH1 0x0 SWAP1 SLOAD SWAP1 PUSH2 0x100 EXP SWAP1 DIV PUSH1 0xFF AND PUSH1 0xFF AND DUP2 SLOAD DUP2 LT PUSH2 0xD92 JUMPI PUSH2 0xD91 PUSH2 0x3026 JUMP JUMPDEST JUMPDEST SWAP1 PUSH1 0x0 MSTORE PUSH1 0x20 PUSH1 0x0 KECCAK256 SWAP1 PUSH1 0x4 MUL ADD PUSH1 0x3 ADD PUSH1 0x2 SWAP1 SLOAD SWAP1 PUSH2 0x100 EXP SWAP1 DIV PUSH1 0xFF AND TIMESTAMP PUSH1 0x40 MLOAD PUSH2 0xDC3 SWAP6 SWAP5 SWAP4 SWAP3 SWAP2 SWAP1 PUSH2 0x32BD JUMP JUMPDEST PUSH1 0x40 MLOAD DUP1 SWAP2 SUB SWAP1 LOG1 POP POP JUMP JUMPDEST PUSH1 0x0 DUP2 PUSH1 0x0 DUP1 JUMPDEST PUSH1 0x1 DUP1 SLOAD SWAP1 POP DUP2 PUSH1 0xFF AND LT ISZERO PUSH2 0xE76 JUMPI PUSH1 0x1 DUP2 PUSH1 0xFF AND DUP2 SLOAD DUP2 LT PUSH2 0xDFD JUMPI PUSH2 0xDFC PUSH2 0x3026 JUMP JUMPDEST JUMPDEST SWAP1 PUSH1 0x0 MSTORE PUSH1 0x20 PUSH1 0x0 KECCAK256 ADD PUSH1 0x0 SWAP1 SLOAD SWAP1 PUSH2 0x100 EXP SWAP1 DIV PUSH20 0xFFFFFFFFFFFFFFFFFFFFFFFFFFFFFFFFFFFFFFFF AND PUSH20 0xFFFFFFFFFFFFFFFFFFFFFFFFFFFFFFFFFFFFFFFF AND DUP4 PUSH20 0xFFFFFFFFFFFFFFFFFFFFFFFFFFFFFFFFFFFFFFFF AND SUB PUSH2 0xE63 JUMPI PUSH1 0x1 SWAP2 POP PUSH2 0xE76 JUMP JUMPDEST DUP1 DUP1 PUSH2 0xE6E SWAP1 PUSH2 0x3091 JUMP JUMPDEST SWAP2 POP POP PUSH2 0xDD6 JUMP JUMPDEST POP DUP1 PUSH2 0xEB7 JUMPI PUSH1 0x40 MLOAD PUSH32 0x8C379A000000000000000000000000000000000000000000000000000000000 DUP2 MSTORE PUSH1 0x4 ADD PUSH2 0xEAE SWAP1 PUSH2 0x31CF JUMP JUMPDEST PUSH1 0x40 MLOAD DUP1 SWAP2 SUB SWAP1 REVERT JUMPDEST PUSH1 0x2 PUSH1 0x0 DUP6 PUSH20 0xFFFFFFFFFFFFFFFFFFFFFFFFFFFFFFFFFFFFFFFF AND PUSH20 0xFFFFFFFFFFFFFFFFFFFFFFFFFFFFFFFFFFFFFFFF AND DUP2 MSTORE PUSH1 0x20 ADD SWAP1 DUP2 MSTORE PUSH1 0x20 ADD PUSH1 0x0 KECCAK256 SLOAD SWAP3 POP POP POP SWAP2 SWAP1 POP JUMP JUMPDEST PUSH1 0x60 PUSH1 0x7 DUP1 SLOAD DUP1 PUSH1 0x20 MUL PUSH1 0x20 ADD PUSH1 0x40 MLOAD SWAP1 DUP2 ADD PUSH1 0x40 MSTORE DUP1 SWAP3 SWAP2 SWAP1 DUP2 DUP2 MSTORE PUSH1 0x20 ADD PUSH1 0x0 SWAP1 JUMPDEST DUP3 DUP3 LT ISZERO PUSH2 0x104D JUMPI DUP4 DUP3 SWAP1 PUSH1 0x0 MSTORE PUSH1 0x20 PUSH1 0x0 KECCAK256 SWAP1 PUSH1 0x4 MUL ADD PUSH1 0x40 MLOAD DUP1 PUSH1 0xC0 ADD PUSH1 0x40 MSTORE SWAP1 DUP2 PUSH1 0x0 DUP3 ADD SLOAD DUP2 MSTORE PUSH1 0x20 ADD PUSH1 0x1 DUP3 ADD SLOAD DUP2 MSTORE PUSH1 0x20 ADD PUSH1 0x2 DUP3 ADD DUP1 SLOAD PUSH2 0xF6B SWAP1 PUSH2 0x333F JUMP JUMPDEST DUP1 PUSH1 0x1F ADD PUSH1 0x20 DUP1 SWAP2 DIV MUL PUSH1 0x20 ADD PUSH1 0x40 MLOAD SWAP1 DUP2 ADD PUSH1 0x40 MSTORE DUP1 SWAP3 SWAP2 SWAP1 DUP2 DUP2 MSTORE PUSH1 0x20 ADD DUP3 DUP1 SLOAD PUSH2 0xF97 SWAP1 PUSH2 0x333F JUMP JUMPDEST DUP1 ISZERO PUSH2 0xFE4 JUMPI DUP1 PUSH1 0x1F LT PUSH2 0xFB9 JUMPI PUSH2 0x100 DUP1 DUP4 SLOAD DIV MUL DUP4 MSTORE SWAP2 PUSH1 0x20 ADD SWAP2 PUSH2 0xFE4 JUMP JUMPDEST DUP3 ADD SWAP2 SWAP1 PUSH1 0x0 MSTORE PUSH1 0x20 PUSH1 0x0 KECCAK256 SWAP1 JUMPDEST DUP2 SLOAD DUP2 MSTORE SWAP1 PUSH1 0x1 ADD SWAP1 PUSH1 0x20 ADD DUP1 DUP4 GT PUSH2 0xFC7 JUMPI DUP3 SWAP1 SUB PUSH1 0x1F AND DUP3 ADD SWAP2 JUMPDEST POP POP POP POP POP DUP2 MSTORE PUSH1 0x20 ADD PUSH1 0x3 DUP3 ADD PUSH1 0x0 SWAP1 SLOAD SWAP1 PUSH2 0x100 EXP SWAP1 DIV PUSH1 0xFF AND ISZERO ISZERO ISZERO ISZERO DUP2 MSTORE PUSH1 0x20 ADD PUSH1 0x3 DUP3 ADD PUSH1 0x1 SWAP1 SLOAD SWAP1 PUSH2 0x100 EXP SWAP1 DIV PUSH1 0xFF AND ISZERO ISZERO ISZERO ISZERO DUP2 MSTORE PUSH1 0x20 ADD PUSH1 0x3 DUP3 ADD PUSH1 0x2 SWAP1 SLOAD SWAP1 PUSH2 0x100 EXP SWAP1 DIV PUSH1 0xFF AND ISZERO ISZERO ISZERO ISZERO DUP2 MSTORE POP POP DUP2 MSTORE PUSH1 0x20 ADD SWAP1 PUSH1 0x1 ADD SWAP1 PUSH2 0xF24 JUMP JUMPDEST POP POP POP POP SWAP1 POP SWAP1 JUMP JUMPDEST CALLER PUSH1 0x0 DUP1 JUMPDEST PUSH1 0x1 DUP1 SLOAD SWAP1 POP DUP2 PUSH1 0xFF AND LT ISZERO PUSH2 0x10FB JUMPI PUSH1 0x1 DUP2 PUSH1 0xFF AND DUP2 SLOAD DUP2 LT PUSH2 0x1082 JUMPI PUSH2 0x1081 PUSH2 0x3026 JUMP JUMPDEST JUMPDEST SWAP1 PUSH1 0x0 MSTORE PUSH1 0x20 PUSH1 0x0 KECCAK256 ADD PUSH1 0x0 SWAP1 SLOAD SWAP1 PUSH2 0x100 EXP SWAP1 DIV PUSH20 0xFFFFFFFFFFFFFFFFFFFFFFFFFFFFFFFFFFFFFFFF AND PUSH20 0xFFFFFFFFFFFFFFFFFFFFFFFFFFFFFFFFFFFFFFFF AND DUP4 PUSH20 0xFFFFFFFFFFFFFFFFFFFFFFFFFFFFFFFFFFFFFFFF AND SUB PUSH2 0x10E8 JUMPI PUSH1 0x1 SWAP2 POP PUSH2 0x10FB JUMP JUMPDEST DUP1 DUP1 PUSH2 0x10F3 SWAP1 PUSH2 0x3091 JUMP JUMPDEST SWAP2 POP POP PUSH2 0x105B JUMP JUMPDEST POP DUP1 DUP1 PUSH2 0x1155 JUMPI POP PUSH1 0x3 PUSH1 0x0 SWAP1 SLOAD SWAP1 PUSH2 0x100 EXP SWAP1 DIV PUSH20 0xFFFFFFFFFFFFFFFFFFFFFFFFFFFFFFFFFFFFFFFF AND PUSH20 0xFFFFFFFFFFFFFFFFFFFFFFFFFFFFFFFFFFFFFFFF AND DUP3 PUSH20 0xFFFFFFFFFFFFFFFFFFFFFFFFFFFFFFFFFFFFFFFF AND EQ JUMPDEST PUSH2 0x1194 JUMPI PUSH1 0x40 MLOAD PUSH32 0x8C379A000000000000000000000000000000000000000000000000000000000 DUP2 MSTORE PUSH1 0x4 ADD PUSH2 0x118B SWAP1 PUSH2 0x313D JUMP JUMPDEST PUSH1 0x40 MLOAD DUP1 SWAP2 SUB SWAP1 REVERT JUMPDEST PUSH1 0x0 JUMPDEST DUP5 MLOAD DUP2 PUSH1 0xFF AND LT ISZERO PUSH2 0x126E JUMPI DUP4 DUP2 PUSH1 0xFF AND DUP2 MLOAD DUP2 LT PUSH2 0x11B9 JUMPI PUSH2 0x11B8 PUSH2 0x3026 JUMP JUMPDEST JUMPDEST PUSH1 0x20 MUL PUSH1 0x20 ADD ADD MLOAD PUSH1 0x4 DUP7 DUP4 PUSH1 0xFF AND DUP2 MLOAD DUP2 LT PUSH2 0x11D9 JUMPI PUSH2 0x11D8 PUSH2 0x3026 JUMP JUMPDEST JUMPDEST PUSH1 0x20 MUL PUSH1 0x20 ADD ADD MLOAD PUSH1 0x40 MLOAD PUSH2 0x11EE SWAP2 SWAP1 PUSH2 0x33AC JUMP JUMPDEST SWAP1 DUP2 MSTORE PUSH1 0x20 ADD PUSH1 0x40 MLOAD DUP1 SWAP2 SUB SWAP1 KECCAK256 SWAP1 DUP2 PUSH2 0x1208 SWAP2 SWAP1 PUSH2 0x357A JUMP JUMPDEST POP PUSH1 0x5 DUP6 DUP3 PUSH1 0xFF AND DUP2 MLOAD DUP2 LT PUSH2 0x1221 JUMPI PUSH2 0x1220 PUSH2 0x3026 JUMP JUMPDEST JUMPDEST PUSH1 0x20 MUL PUSH1 0x20 ADD ADD MLOAD SWAP1 DUP1 PUSH1 0x1 DUP2 SLOAD ADD DUP1 DUP3 SSTORE DUP1 SWAP2 POP POP PUSH1 0x1 SWAP1 SUB SWAP1 PUSH1 0x0 MSTORE PUSH1 0x20 PUSH1 0x0 KECCAK256 ADD PUSH1 0x0 SWAP1 SWAP2 SWAP1 SWAP2 SWAP1 SWAP2 POP SWAP1 DUP2 PUSH2 0x125A SWAP2 SWAP1 PUSH2 0x36A7 JUMP JUMPDEST POP DUP1 DUP1 PUSH2 0x1266 SWAP1 PUSH2 0x3091 JUMP JUMPDEST SWAP2 POP POP PUSH2 0x1197 JUMP JUMPDEST POP POP POP POP POP JUMP JUMPDEST CALLER PUSH1 0x0 DUP1 JUMPDEST PUSH1 0x1 DUP1 SLOAD SWAP1 POP DUP2 PUSH1 0xFF AND LT ISZERO PUSH2 0x131A JUMPI PUSH1 0x1 DUP2 PUSH1 0xFF AND DUP2 SLOAD DUP2 LT PUSH2 0x12A1 JUMPI PUSH2 0x12A0 PUSH2 0x3026 JUMP JUMPDEST JUMPDEST SWAP1 PUSH1 0x0 MSTORE PUSH1 0x20 PUSH1 0x0 KECCAK256 ADD PUSH1 0x0 SWAP1 SLOAD SWAP1 PUSH2 0x100 EXP SWAP1 DIV PUSH20 0xFFFFFFFFFFFFFFFFFFFFFFFFFFFFFFFFFFFFFFFF AND PUSH20 0xFFFFFFFFFFFFFFFFFFFFFFFFFFFFFFFFFFFFFFFF AND DUP4 PUSH20 0xFFFFFFFFFFFFFFFFFFFFFFFFFFFFFFFFFFFFFFFF AND SUB PUSH2 0x1307 JUMPI PUSH1 0x1 SWAP2 POP PUSH2 0x131A JUMP JUMPDEST DUP1 DUP1 PUSH2 0x1312 SWAP1 PUSH2 0x3091 JUMP JUMPDEST SWAP2 POP POP PUSH2 0x127A JUMP JUMPDEST POP DUP1 PUSH2 0x135B JUMPI PUSH1 0x40 MLOAD PUSH32 0x8C379A000000000000000000000000000000000000000000000000000000000 DUP2 MSTORE PUSH1 0x4 ADD PUSH2 0x1352 SWAP1 PUSH2 0x31CF JUMP JUMPDEST PUSH1 0x40 MLOAD DUP1 SWAP2 SUB SWAP1 REVERT JUMPDEST DUP4 PUSH1 0x0 DUP1 JUMPDEST PUSH1 0x1 DUP1 SLOAD SWAP1 POP DUP2 PUSH1 0xFF AND LT ISZERO PUSH2 0x1400 JUMPI PUSH1 0x1 DUP2 PUSH1 0xFF AND DUP2 SLOAD DUP2 LT PUSH2 0x1387 JUMPI PUSH2 0x1386 PUSH2 0x3026 JUMP JUMPDEST JUMPDEST SWAP1 PUSH1 0x0 MSTORE PUSH1 0x20 PUSH1 0x0 KECCAK256 ADD PUSH1 0x0 SWAP1 SLOAD SWAP1 PUSH2 0x100 EXP SWAP1 DIV PUSH20 0xFFFFFFFFFFFFFFFFFFFFFFFFFFFFFFFFFFFFFFFF AND PUSH20 0xFFFFFFFFFFFFFFFFFFFFFFFFFFFFFFFFFFFFFFFF AND DUP4 PUSH20 0xFFFFFFFFFFFFFFFFFFFFFFFFFFFFFFFFFFFFFFFF AND SUB PUSH2 0x13ED JUMPI PUSH1 0x1 SWAP2 POP PUSH2 0x1400 JUMP JUMPDEST DUP1 DUP1 PUSH2 0x13F8 SWAP1 PUSH2 0x3091 JUMP JUMPDEST SWAP2 POP POP PUSH2 0x1360 JUMP JUMPDEST POP DUP1 DUP1 PUSH2 0x145A JUMPI POP PUSH1 0x3 PUSH1 0x0 SWAP1 SLOAD SWAP1 PUSH2 0x100 EXP SWAP1 DIV PUSH20 0xFFFFFFFFFFFFFFFFFFFFFFFFFFFFFFFFFFFFFFFF AND PUSH20 0xFFFFFFFFFFFFFFFFFFFFFFFFFFFFFFFFFFFFFFFF AND DUP3 PUSH20 0xFFFFFFFFFFFFFFFFFFFFFFFFFFFFFFFFFFFFFFFF AND EQ JUMPDEST PUSH2 0x1499 JUMPI PUSH1 0x40 MLOAD PUSH32 0x8C379A000000000000000000000000000000000000000000000000000000000 DUP2 MSTORE PUSH1 0x4 ADD PUSH2 0x1490 SWAP1 PUSH2 0x37EB JUMP JUMPDEST PUSH1 0x40 MLOAD DUP1 SWAP2 SUB SWAP1 REVERT JUMPDEST DUP5 DUP1 SELFBALANCE LT ISZERO PUSH2 0x14DD JUMPI PUSH1 0x40 MLOAD PUSH32 0x8C379A000000000000000000000000000000000000000000000000000000000 DUP2 MSTORE PUSH1 0x4 ADD PUSH2 0x14D4 SWAP1 PUSH2 0x3857 JUMP JUMPDEST PUSH1 0x40 MLOAD DUP1 SWAP2 SUB SWAP1 REVERT JUMPDEST PUSH1 0x3 PUSH1 0x0 SWAP1 SLOAD SWAP1 PUSH2 0x100 EXP SWAP1 DIV PUSH20 0xFFFFFFFFFFFFFFFFFFFFFFFFFFFFFFFFFFFFFFFF AND PUSH20 0xFFFFFFFFFFFFFFFFFFFFFFFFFFFFFFFFFFFFFFFF AND DUP8 PUSH20 0xFFFFFFFFFFFFFFFFFFFFFFFFFFFFFFFFFFFFFFFF AND EQ PUSH2 0x160B JUMPI DUP6 PUSH1 0x2 PUSH1 0x0 DUP10 PUSH20 0xFFFFFFFFFFFFFFFFFFFFFFFFFFFFFFFFFFFFFFFF AND PUSH20 0xFFFFFFFFFFFFFFFFFFFFFFFFFFFFFFFFFFFFFFFF AND DUP2 MSTORE PUSH1 0x20 ADD SWAP1 DUP2 MSTORE PUSH1 0x20 ADD PUSH1 0x0 KECCAK256 SLOAD LT ISZERO PUSH2 0x15B4 JUMPI PUSH1 0x40 MLOAD PUSH32 0x8C379A000000000000000000000000000000000000000000000000000000000 DUP2 MSTORE PUSH1 0x4 ADD PUSH2 0x15AB SWAP1 PUSH2 0x38C3 JUMP JUMPDEST PUSH1 0x40 MLOAD DUP1 SWAP2 SUB SWAP1 REVERT JUMPDEST DUP6 PUSH1 0x2 PUSH1 0x0 DUP10 PUSH20 0xFFFFFFFFFFFFFFFFFFFFFFFFFFFFFFFFFFFFFFFF AND PUSH20 0xFFFFFFFFFFFFFFFFFFFFFFFFFFFFFFFFFFFFFFFF AND DUP2 MSTORE PUSH1 0x20 ADD SWAP1 DUP2 MSTORE PUSH1 0x20 ADD PUSH1 0x0 KECCAK256 PUSH1 0x0 DUP3 DUP3 SLOAD PUSH2 0x1603 SWAP2 SWAP1 PUSH2 0x38E3 JUMP JUMPDEST SWAP3 POP POP DUP2 SWAP1 SSTORE POP JUMPDEST DUP7 PUSH20 0xFFFFFFFFFFFFFFFFFFFFFFFFFFFFFFFFFFFFFFFF AND PUSH2 0x8FC DUP8 SWAP1 DUP2 ISZERO MUL SWAP1 PUSH1 0x40 MLOAD PUSH1 0x0 PUSH1 0x40 MLOAD DUP1 DUP4 SUB DUP2 DUP6 DUP9 DUP9 CALL SWAP4 POP POP POP POP ISZERO DUP1 ISZERO PUSH2 0x1651 JUMPI RETURNDATASIZE PUSH1 0x0 DUP1 RETURNDATACOPY RETURNDATASIZE PUSH1 0x0 REVERT JUMPDEST POP PUSH32 0x132717CC7CE0E7288E4E1E75CD3527373DF35D716A6D9D576199B1EE22B15923 DUP8 DUP8 PUSH1 0x6 SLOAD SELFBALANCE TIMESTAMP PUSH1 0x40 MLOAD PUSH2 0x168B SWAP6 SWAP5 SWAP4 SWAP3 SWAP2 SWAP1 PUSH2 0x396C JUMP JUMPDEST PUSH1 0x40 MLOAD DUP1 SWAP2 SUB SWAP1 LOG1 POP POP POP POP POP POP POP JUMP JUMPDEST PUSH1 0x0 DUP1 PUSH1 0x0 SWAP1 SLOAD SWAP1 PUSH2 0x100 EXP SWAP1 DIV PUSH20 0xFFFFFFFFFFFFFFFFFFFFFFFFFFFFFFFFFFFFFFFF AND SWAP1 POP SWAP1 JUMP JUMPDEST PUSH1 0x60 DUP2 PUSH1 0x9 PUSH1 0x40 MLOAD PUSH1 0x20 ADD PUSH2 0x16DA SWAP2 SWAP1 PUSH2 0x3A42 JUMP JUMPDEST PUSH1 0x40 MLOAD PUSH1 0x20 DUP2 DUP4 SUB SUB DUP2 MSTORE SWAP1 PUSH1 0x40 MSTORE DUP1 MLOAD SWAP1 PUSH1 0x20 ADD KECCAK256 DUP2 PUSH1 0x40 MLOAD PUSH1 0x20 ADD PUSH2 0x1701 SWAP2 SWAP1 PUSH2 0x33AC JUMP JUMPDEST PUSH1 0x40 MLOAD PUSH1 0x20 DUP2 DUP4 SUB SUB DUP2 MSTORE SWAP1 PUSH1 0x40 MSTORE DUP1 MLOAD SWAP1 PUSH1 0x20 ADD KECCAK256 EQ PUSH2 0x1757 JUMPI PUSH1 0x40 MLOAD PUSH32 0x8C379A000000000000000000000000000000000000000000000000000000000 DUP2 MSTORE PUSH1 0x4 ADD PUSH2 0x174E SWAP1 PUSH2 0x3AA5 JUMP JUMPDEST PUSH1 0x40 MLOAD DUP1 SWAP2 SUB SWAP1 REVERT JUMPDEST PUSH1 0x0 PUSH1 0x5 DUP1 SLOAD SWAP1 POP PUSH8 0xFFFFFFFFFFFFFFFF DUP2 GT ISZERO PUSH2 0x1778 JUMPI PUSH2 0x1777 PUSH2 0x27AB JUMP JUMPDEST JUMPDEST PUSH1 0x40 MLOAD SWAP1 DUP1 DUP3 MSTORE DUP1 PUSH1 0x20 MUL PUSH1 0x20 ADD DUP3 ADD PUSH1 0x40 MSTORE DUP1 ISZERO PUSH2 0x17AB JUMPI DUP2 PUSH1 0x20 ADD JUMPDEST PUSH1 0x60 DUP2 MSTORE PUSH1 0x20 ADD SWAP1 PUSH1 0x1 SWAP1 SUB SWAP1 DUP2 PUSH2 0x1796 JUMPI SWAP1 POP JUMPDEST POP SWAP1 POP PUSH1 0x0 JUMPDEST PUSH1 0x5 DUP1 SLOAD SWAP1 POP DUP2 LT ISZERO PUSH2 0x18B3 JUMPI PUSH1 0x4 PUSH1 0x5 DUP3 DUP2 SLOAD DUP2 LT PUSH2 0x17D4 JUMPI PUSH2 0x17D3 PUSH2 0x3026 JUMP JUMPDEST JUMPDEST SWAP1 PUSH1 0x0 MSTORE PUSH1 0x20 PUSH1 0x0 KECCAK256 ADD PUSH1 0x40 MLOAD PUSH2 0x17EB SWAP2 SWAP1 PUSH2 0x3A42 JUMP JUMPDEST SWAP1 DUP2 MSTORE PUSH1 0x20 ADD PUSH1 0x40 MLOAD DUP1 SWAP2 SUB SWAP1 KECCAK256 DUP1 SLOAD PUSH2 0x1804 SWAP1 PUSH2 0x333F JUMP JUMPDEST DUP1 PUSH1 0x1F ADD PUSH1 0x20 DUP1 SWAP2 DIV MUL PUSH1 0x20 ADD PUSH1 0x40 MLOAD SWAP1 DUP2 ADD PUSH1 0x40 MSTORE DUP1 SWAP3 SWAP2 SWAP1 DUP2 DUP2 MSTORE PUSH1 0x20 ADD DUP3 DUP1 SLOAD PUSH2 0x1830 SWAP1 PUSH2 0x333F JUMP JUMPDEST DUP1 ISZERO PUSH2 0x187D JUMPI DUP1 PUSH1 0x1F LT PUSH2 0x1852 JUMPI PUSH2 0x100 DUP1 DUP4 SLOAD DIV MUL DUP4 MSTORE SWAP2 PUSH1 0x20 ADD SWAP2 PUSH2 0x187D JUMP JUMPDEST DUP3 ADD SWAP2 SWAP1 PUSH1 0x0 MSTORE PUSH1 0x20 PUSH1 0x0 KECCAK256 SWAP1 JUMPDEST DUP2 SLOAD DUP2 MSTORE SWAP1 PUSH1 0x1 ADD SWAP1 PUSH1 0x20 ADD DUP1 DUP4 GT PUSH2 0x1860 JUMPI DUP3 SWAP1 SUB PUSH1 0x1F AND DUP3 ADD SWAP2 JUMPDEST POP POP POP POP POP DUP3 DUP3 DUP2 MLOAD DUP2 LT PUSH2 0x1895 JUMPI PUSH2 0x1894 PUSH2 0x3026 JUMP JUMPDEST JUMPDEST PUSH1 0x20 MUL PUSH1 0x20 ADD ADD DUP2 SWAP1 MSTORE POP DUP1 DUP1 PUSH2 0x18AB SWAP1 PUSH2 0x3AC5 JUMP JUMPDEST SWAP2 POP POP PUSH2 0x17B1 JUMP JUMPDEST POP DUP1 SWAP3 POP POP POP SWAP2 SWAP1 POP JUMP JUMPDEST CALLER PUSH1 0x0 DUP1 JUMPDEST PUSH1 0x1 DUP1 SLOAD SWAP1 POP DUP2 PUSH1 0xFF AND LT ISZERO PUSH2 0x1963 JUMPI PUSH1 0x1 DUP2 PUSH1 0xFF AND DUP2 SLOAD DUP2 LT PUSH2 0x18EA JUMPI PUSH2 0x18E9 PUSH2 0x3026 JUMP JUMPDEST JUMPDEST SWAP1 PUSH1 0x0 MSTORE PUSH1 0x20 PUSH1 0x0 KECCAK256 ADD PUSH1 0x0 SWAP1 SLOAD SWAP1 PUSH2 0x100 EXP SWAP1 DIV PUSH20 0xFFFFFFFFFFFFFFFFFFFFFFFFFFFFFFFFFFFFFFFF AND PUSH20 0xFFFFFFFFFFFFFFFFFFFFFFFFFFFFFFFFFFFFFFFF AND DUP4 PUSH20 0xFFFFFFFFFFFFFFFFFFFFFFFFFFFFFFFFFFFFFFFF AND SUB PUSH2 0x1950 JUMPI PUSH1 0x1 SWAP2 POP PUSH2 0x1963 JUMP JUMPDEST DUP1 DUP1 PUSH2 0x195B SWAP1 PUSH2 0x3091 JUMP JUMPDEST SWAP2 POP POP PUSH2 0x18C3 JUMP JUMPDEST POP DUP1 PUSH2 0x19A4 JUMPI PUSH1 0x40 MLOAD PUSH32 0x8C379A000000000000000000000000000000000000000000000000000000000 DUP2 MSTORE PUSH1 0x4 ADD PUSH2 0x199B SWAP1 PUSH2 0x31CF JUMP JUMPDEST PUSH1 0x40 MLOAD DUP1 SWAP2 SUB SWAP1 REVERT JUMPDEST PUSH1 0x0 JUMPDEST DUP4 MLOAD DUP2 PUSH1 0xFF AND LT ISZERO PUSH2 0x1AA8 JUMPI PUSH1 0x1 DUP5 DUP3 PUSH1 0xFF AND DUP2 MLOAD DUP2 LT PUSH2 0x19CB JUMPI PUSH2 0x19CA PUSH2 0x3026 JUMP JUMPDEST JUMPDEST PUSH1 0x20 MUL PUSH1 0x20 ADD ADD MLOAD SWAP1 DUP1 PUSH1 0x1 DUP2 SLOAD ADD DUP1 DUP3 SSTORE DUP1 SWAP2 POP POP PUSH1 0x1 SWAP1 SUB SWAP1 PUSH1 0x0 MSTORE PUSH1 0x20 PUSH1 0x0 KECCAK256 ADD PUSH1 0x0 SWAP1 SWAP2 SWAP1 SWAP2 SWAP1 SWAP2 PUSH2 0x100 EXP DUP2 SLOAD DUP2 PUSH20 0xFFFFFFFFFFFFFFFFFFFFFFFFFFFFFFFFFFFFFFFF MUL NOT AND SWAP1 DUP4 PUSH20 0xFFFFFFFFFFFFFFFFFFFFFFFFFFFFFFFFFFFFFFFF AND MUL OR SWAP1 SSTORE POP PUSH1 0x0 PUSH1 0x2 PUSH1 0x0 DUP7 DUP5 PUSH1 0xFF AND DUP2 MLOAD DUP2 LT PUSH2 0x1A4F JUMPI PUSH2 0x1A4E PUSH2 0x3026 JUMP JUMPDEST JUMPDEST PUSH1 0x20 MUL PUSH1 0x20 ADD ADD MLOAD PUSH20 0xFFFFFFFFFFFFFFFFFFFFFFFFFFFFFFFFFFFFFFFF AND PUSH20 0xFFFFFFFFFFFFFFFFFFFFFFFFFFFFFFFFFFFFFFFF AND DUP2 MSTORE PUSH1 0x20 ADD SWAP1 DUP2 MSTORE PUSH1 0x20 ADD PUSH1 0x0 KECCAK256 DUP2 SWAP1 SSTORE POP DUP1 DUP1 PUSH2 0x1AA0 SWAP1 PUSH2 0x3091 JUMP JUMPDEST SWAP2 POP POP PUSH2 0x19A7 JUMP JUMPDEST POP POP POP POP JUMP JUMPDEST CALLER PUSH1 0x3 PUSH1 0x0 SWAP1 SLOAD SWAP1 PUSH2 0x100 EXP SWAP1 DIV PUSH20 0xFFFFFFFFFFFFFFFFFFFFFFFFFFFFFFFFFFFFFFFF AND PUSH20 0xFFFFFFFFFFFFFFFFFFFFFFFFFFFFFFFFFFFFFFFF AND DUP2 PUSH20 0xFFFFFFFFFFFFFFFFFFFFFFFFFFFFFFFFFFFFFFFF AND EQ PUSH2 0x1B3F JUMPI PUSH1 0x40 MLOAD PUSH32 0x8C379A000000000000000000000000000000000000000000000000000000000 DUP2 MSTORE PUSH1 0x4 ADD PUSH2 0x1B36 SWAP1 PUSH2 0x3B7F JUMP JUMPDEST PUSH1 0x40 MLOAD DUP1 SWAP2 SUB SWAP1 REVERT JUMPDEST DUP2 PUSH1 0x3 PUSH1 0x0 PUSH2 0x100 EXP DUP2 SLOAD DUP2 PUSH20 0xFFFFFFFFFFFFFFFFFFFFFFFFFFFFFFFFFFFFFFFF MUL NOT AND SWAP1 DUP4 PUSH20 0xFFFFFFFFFFFFFFFFFFFFFFFFFFFFFFFFFFFFFFFF AND MUL OR SWAP1 SSTORE POP POP POP JUMP JUMPDEST CALLER PUSH1 0x0 DUP1 JUMPDEST PUSH1 0x1 DUP1 SLOAD SWAP1 POP DUP2 PUSH1 0xFF AND LT ISZERO PUSH2 0x1C29 JUMPI PUSH1 0x1 DUP2 PUSH1 0xFF AND DUP2 SLOAD DUP2 LT PUSH2 0x1BB0 JUMPI PUSH2 0x1BAF PUSH2 0x3026 JUMP JUMPDEST JUMPDEST SWAP1 PUSH1 0x0 MSTORE PUSH1 0x20 PUSH1 0x0 KECCAK256 ADD PUSH1 0x0 SWAP1 SLOAD SWAP1 PUSH2 0x100 EXP SWAP1 DIV PUSH20 0xFFFFFFFFFFFFFFFFFFFFFFFFFFFFFFFFFFFFFFFF AND PUSH20 0xFFFFFFFFFFFFFFFFFFFFFFFFFFFFFFFFFFFFFFFF AND DUP4 PUSH20 0xFFFFFFFFFFFFFFFFFFFFFFFFFFFFFFFFFFFFFFFF AND SUB PUSH2 0x1C16 JUMPI PUSH1 0x1 SWAP2 POP PUSH2 0x1C29 JUMP JUMPDEST DUP1 DUP1 PUSH2 0x1C21 SWAP1 PUSH2 0x3091 JUMP JUMPDEST SWAP2 POP POP PUSH2 0x1B89 JUMP JUMPDEST POP DUP1 PUSH2 0x1C6A JUMPI PUSH1 0x40 MLOAD PUSH32 0x8C379A000000000000000000000000000000000000000000000000000000000 DUP2 MSTORE PUSH1 0x4 ADD PUSH2 0x1C61 SWAP1 PUSH2 0x31CF JUMP JUMPDEST PUSH1 0x40 MLOAD DUP1 SWAP2 SUB SWAP1 REVERT JUMPDEST PUSH1 0x0 JUMPDEST DUP4 MLOAD DUP2 PUSH1 0xFF AND LT ISZERO PUSH2 0x1DDC JUMPI PUSH1 0x7 PUSH1 0x40 MLOAD DUP1 PUSH1 0xC0 ADD PUSH1 0x40 MSTORE DUP1 DUP7 DUP5 PUSH1 0xFF AND DUP2 MLOAD DUP2 LT PUSH2 0x1C9C JUMPI PUSH2 0x1C9B PUSH2 0x3026 JUMP JUMPDEST JUMPDEST PUSH1 0x20 MUL PUSH1 0x20 ADD ADD MLOAD PUSH1 0x0 ADD MLOAD DUP2 MSTORE PUSH1 0x20 ADD DUP7 DUP5 PUSH1 0xFF AND DUP2 MLOAD DUP2 LT PUSH2 0x1CC3 JUMPI PUSH2 0x1CC2 PUSH2 0x3026 JUMP JUMPDEST JUMPDEST PUSH1 0x20 MUL PUSH1 0x20 ADD ADD MLOAD PUSH1 0x20 ADD MLOAD DUP2 MSTORE PUSH1 0x20 ADD DUP7 DUP5 PUSH1 0xFF AND DUP2 MLOAD DUP2 LT PUSH2 0x1CEA JUMPI PUSH2 0x1CE9 PUSH2 0x3026 JUMP JUMPDEST JUMPDEST PUSH1 0x20 MUL PUSH1 0x20 ADD ADD MLOAD PUSH1 0x40 ADD MLOAD DUP2 MSTORE PUSH1 0x20 ADD PUSH1 0x0 ISZERO ISZERO DUP2 MSTORE PUSH1 0x20 ADD PUSH1 0x0 ISZERO ISZERO DUP2 MSTORE PUSH1 0x20 ADD PUSH1 0x0 ISZERO ISZERO DUP2 MSTORE POP SWAP1 DUP1 PUSH1 0x1 DUP2 SLOAD ADD DUP1 DUP3 SSTORE DUP1 SWAP2 POP POP PUSH1 0x1 SWAP1 SUB SWAP1 PUSH1 0x0 MSTORE PUSH1 0x20 PUSH1 0x0 KECCAK256 SWAP1 PUSH1 0x4 MUL ADD PUSH1 0x0 SWAP1 SWAP2 SWAP1 SWAP2 SWAP1 SWAP2 POP PUSH1 0x0 DUP3 ADD MLOAD DUP2 PUSH1 0x0 ADD SSTORE PUSH1 0x20 DUP3 ADD MLOAD DUP2 PUSH1 0x1 ADD SSTORE PUSH1 0x40 DUP3 ADD MLOAD DUP2 PUSH1 0x2 ADD SWAP1 DUP2 PUSH2 0x1D66 SWAP2 SWAP1 PUSH2 0x36A7 JUMP JUMPDEST POP PUSH1 0x60 DUP3 ADD MLOAD DUP2 PUSH1 0x3 ADD PUSH1 0x0 PUSH2 0x100 EXP DUP2 SLOAD DUP2 PUSH1 0xFF MUL NOT AND SWAP1 DUP4 ISZERO ISZERO MUL OR SWAP1 SSTORE POP PUSH1 0x80 DUP3 ADD MLOAD DUP2 PUSH1 0x3 ADD PUSH1 0x1 PUSH2 0x100 EXP DUP2 SLOAD DUP2 PUSH1 0xFF MUL NOT AND SWAP1 DUP4 ISZERO ISZERO MUL OR SWAP1 SSTORE POP PUSH1 0xA0 DUP3 ADD MLOAD DUP2 PUSH1 0x3 ADD PUSH1 0x2 PUSH2 0x100 EXP DUP2 SLOAD DUP2 PUSH1 0xFF MUL NOT AND SWAP1 DUP4 ISZERO ISZERO MUL OR SWAP1 SSTORE POP POP POP DUP1 DUP1 PUSH2 0x1DD4 SWAP1 PUSH2 0x3091 JUMP JUMPDEST SWAP2 POP POP PUSH2 0x1C6D JUMP JUMPDEST POP POP POP POP JUMP JUMPDEST PUSH1 0x0 PUSH1 0x7 DUP1 SLOAD SWAP1 POP SWAP1 POP SWAP1 JUMP JUMPDEST CALLER PUSH1 0x0 DUP1 JUMPDEST PUSH1 0x1 DUP1 SLOAD SWAP1 POP DUP2 PUSH1 0xFF AND LT ISZERO PUSH2 0x1E94 JUMPI PUSH1 0x1 DUP2 PUSH1 0xFF AND DUP2 SLOAD DUP2 LT PUSH2 0x1E1B JUMPI PUSH2 0x1E1A PUSH2 0x3026 JUMP JUMPDEST JUMPDEST SWAP1 PUSH1 0x0 MSTORE PUSH1 0x20 PUSH1 0x0 KECCAK256 ADD PUSH1 0x0 SWAP1 SLOAD SWAP1 PUSH2 0x100 EXP SWAP1 DIV PUSH20 0xFFFFFFFFFFFFFFFFFFFFFFFFFFFFFFFFFFFFFFFF AND PUSH20 0xFFFFFFFFFFFFFFFFFFFFFFFFFFFFFFFFFFFFFFFF AND DUP4 PUSH20 0xFFFFFFFFFFFFFFFFFFFFFFFFFFFFFFFFFFFFFFFF AND SUB PUSH2 0x1E81 JUMPI PUSH1 0x1 SWAP2 POP PUSH2 0x1E94 JUMP JUMPDEST DUP1 DUP1 PUSH2 0x1E8C SWAP1 PUSH2 0x3091 JUMP JUMPDEST SWAP2 POP POP PUSH2 0x1DF4 JUMP JUMPDEST POP DUP1 PUSH2 0x1ED5 JUMPI PUSH1 0x40 MLOAD PUSH32 0x8C379A000000000000000000000000000000000000000000000000000000000 DUP2 MSTORE PUSH1 0x4 ADD PUSH2 0x1ECC SWAP1 PUSH2 0x31CF JUMP JUMPDEST PUSH1 0x40 MLOAD DUP1 SWAP2 SUB SWAP1 REVERT JUMPDEST DUP3 PUSH1 0x9 SWAP1 DUP2 PUSH2 0x1EE4 SWAP2 SWAP1 PUSH2 0x36A7 JUMP JUMPDEST POP POP POP POP JUMP JUMPDEST CALLER PUSH1 0x0 DUP1 JUMPDEST PUSH1 0x1 DUP1 SLOAD SWAP1 POP DUP2 PUSH1 0xFF AND LT ISZERO PUSH2 0x1F8F JUMPI PUSH1 0x1 DUP2 PUSH1 0xFF AND DUP2 SLOAD DUP2 LT PUSH2 0x1F16 JUMPI PUSH2 0x1F15 PUSH2 0x3026 JUMP JUMPDEST JUMPDEST SWAP1 PUSH1 0x0 MSTORE PUSH1 0x20 PUSH1 0x0 KECCAK256 ADD PUSH1 0x0 SWAP1 SLOAD SWAP1 PUSH2 0x100 EXP SWAP1 DIV PUSH20 0xFFFFFFFFFFFFFFFFFFFFFFFFFFFFFFFFFFFFFFFF AND PUSH20 0xFFFFFFFFFFFFFFFFFFFFFFFFFFFFFFFFFFFFFFFF AND DUP4 PUSH20 0xFFFFFFFFFFFFFFFFFFFFFFFFFFFFFFFFFFFFFFFF AND SUB PUSH2 0x1F7C JUMPI PUSH1 0x1 SWAP2 POP PUSH2 0x1F8F JUMP JUMPDEST DUP1 DUP1 PUSH2 0x1F87 SWAP1 PUSH2 0x3091 JUMP JUMPDEST SWAP2 POP POP PUSH2 0x1EEF JUMP JUMPDEST POP DUP1 PUSH2 0x1FD0 JUMPI PUSH1 0x40 MLOAD PUSH32 0x8C379A000000000000000000000000000000000000000000000000000000000 DUP2 MSTORE PUSH1 0x4 ADD PUSH2 0x1FC7 SWAP1 PUSH2 0x31CF JUMP JUMPDEST PUSH1 0x40 MLOAD DUP1 SWAP2 SUB SWAP1 REVERT JUMPDEST DUP4 PUSH1 0x0 DUP1 JUMPDEST PUSH1 0x1 DUP1 SLOAD SWAP1 POP DUP2 PUSH1 0xFF AND LT ISZERO PUSH2 0x2075 JUMPI PUSH1 0x1 DUP2 PUSH1 0xFF AND DUP2 SLOAD DUP2 LT PUSH2 0x1FFC JUMPI PUSH2 0x1FFB PUSH2 0x3026 JUMP JUMPDEST JUMPDEST SWAP1 PUSH1 0x0 MSTORE PUSH1 0x20 PUSH1 0x0 KECCAK256 ADD PUSH1 0x0 SWAP1 SLOAD SWAP1 PUSH2 0x100 EXP SWAP1 DIV PUSH20 0xFFFFFFFFFFFFFFFFFFFFFFFFFFFFFFFFFFFFFFFF AND PUSH20 0xFFFFFFFFFFFFFFFFFFFFFFFFFFFFFFFFFFFFFFFF AND DUP4 PUSH20 0xFFFFFFFFFFFFFFFFFFFFFFFFFFFFFFFFFFFFFFFF AND SUB PUSH2 0x2062 JUMPI PUSH1 0x1 SWAP2 POP PUSH2 0x2075 JUMP JUMPDEST DUP1 DUP1 PUSH2 0x206D SWAP1 PUSH2 0x3091 JUMP JUMPDEST SWAP2 POP POP PUSH2 0x1FD5 JUMP JUMPDEST POP DUP1 DUP1 PUSH2 0x20CF JUMPI POP PUSH1 0x3 PUSH1 0x0 SWAP1 SLOAD SWAP1 PUSH2 0x100 EXP SWAP1 DIV PUSH20 0xFFFFFFFFFFFFFFFFFFFFFFFFFFFFFFFFFFFFFFFF AND PUSH20 0xFFFFFFFFFFFFFFFFFFFFFFFFFFFFFFFFFFFFFFFF AND DUP3 PUSH20 0xFFFFFFFFFFFFFFFFFFFFFFFFFFFFFFFFFFFFFFFF AND EQ JUMPDEST PUSH2 0x210E JUMPI PUSH1 0x40 MLOAD PUSH32 0x8C379A000000000000000000000000000000000000000000000000000000000 DUP2 MSTORE PUSH1 0x4 ADD PUSH2 0x2105 SWAP1 PUSH2 0x37EB JUMP JUMPDEST PUSH1 0x40 MLOAD DUP1 SWAP2 SUB SWAP1 REVERT JUMPDEST PUSH1 0x64 DUP6 PUSH1 0x6 SLOAD PUSH2 0x211E SWAP2 SWAP1 PUSH2 0x3B9F JUMP JUMPDEST PUSH2 0x2128 SWAP2 SWAP1 PUSH2 0x3C10 JUMP JUMPDEST DUP1 SELFBALANCE LT ISZERO PUSH2 0x216B JUMPI PUSH1 0x40 MLOAD PUSH32 0x8C379A000000000000000000000000000000000000000000000000000000000 DUP2 MSTORE PUSH1 0x4 ADD PUSH2 0x2162 SWAP1 PUSH2 0x3857 JUMP JUMPDEST PUSH1 0x40 MLOAD DUP1 SWAP2 SUB SWAP1 REVERT JUMPDEST PUSH1 0x0 PUSH1 0x64 DUP8 PUSH1 0x6 SLOAD PUSH2 0x217D SWAP2 SWAP1 PUSH2 0x3B9F JUMP JUMPDEST PUSH2 0x2187 SWAP2 SWAP1 PUSH2 0x3C10 JUMP JUMPDEST SWAP1 POP PUSH1 0x3 PUSH1 0x0 SWAP1 SLOAD SWAP1 PUSH2 0x100 EXP SWAP1 DIV PUSH20 0xFFFFFFFFFFFFFFFFFFFFFFFFFFFFFFFFFFFFFFFF AND PUSH20 0xFFFFFFFFFFFFFFFFFFFFFFFFFFFFFFFFFFFFFFFF AND DUP9 PUSH20 0xFFFFFFFFFFFFFFFFFFFFFFFFFFFFFFFFFFFFFFFF AND EQ PUSH2 0x22B7 JUMPI DUP1 PUSH1 0x2 PUSH1 0x0 DUP11 PUSH20 0xFFFFFFFFFFFFFFFFFFFFFFFFFFFFFFFFFFFFFFFF AND PUSH20 0xFFFFFFFFFFFFFFFFFFFFFFFFFFFFFFFFFFFFFFFF AND DUP2 MSTORE PUSH1 0x20 ADD SWAP1 DUP2 MSTORE PUSH1 0x20 ADD PUSH1 0x0 KECCAK256 SLOAD LT ISZERO PUSH2 0x2260 JUMPI PUSH1 0x40 MLOAD PUSH32 0x8C379A000000000000000000000000000000000000000000000000000000000 DUP2 MSTORE PUSH1 0x4 ADD PUSH2 0x2257 SWAP1 PUSH2 0x38C3 JUMP JUMPDEST PUSH1 0x40 MLOAD DUP1 SWAP2 SUB SWAP1 REVERT JUMPDEST DUP1 PUSH1 0x2 PUSH1 0x0 DUP11 PUSH20 0xFFFFFFFFFFFFFFFFFFFFFFFFFFFFFFFFFFFFFFFF AND PUSH20 0xFFFFFFFFFFFFFFFFFFFFFFFFFFFFFFFFFFFFFFFF AND DUP2 MSTORE PUSH1 0x20 ADD SWAP1 DUP2 MSTORE PUSH1 0x20 ADD PUSH1 0x0 KECCAK256 PUSH1 0x0 DUP3 DUP3 SLOAD PUSH2 0x22AF SWAP2 SWAP1 PUSH2 0x38E3 JUMP JUMPDEST SWAP3 POP POP DUP2 SWAP1 SSTORE POP JUMPDEST DUP8 PUSH20 0xFFFFFFFFFFFFFFFFFFFFFFFFFFFFFFFFFFFFFFFF AND PUSH2 0x8FC DUP3 SWAP1 DUP2 ISZERO MUL SWAP1 PUSH1 0x40 MLOAD PUSH1 0x0 PUSH1 0x40 MLOAD DUP1 DUP4 SUB DUP2 DUP6 DUP9 DUP9 CALL SWAP4 POP POP POP POP ISZERO DUP1 ISZERO PUSH2 0x22FD JUMPI RETURNDATASIZE PUSH1 0x0 DUP1 RETURNDATACOPY RETURNDATASIZE PUSH1 0x0 REVERT JUMPDEST POP PUSH32 0x132717CC7CE0E7288E4E1E75CD3527373DF35D716A6D9D576199B1EE22B15923 DUP9 DUP3 PUSH1 0x6 SLOAD SELFBALANCE TIMESTAMP PUSH1 0x40 MLOAD PUSH2 0x2337 SWAP6 SWAP5 SWAP4 SWAP3 SWAP2 SWAP1 PUSH2 0x396C JUMP JUMPDEST PUSH1 0x40 MLOAD DUP1 SWAP2 SUB SWAP1 LOG1 POP POP POP POP POP POP POP POP JUMP JUMPDEST PUSH1 0x0 DUP2 SWAP1 POP SWAP2 SWAP1 POP JUMP JUMPDEST PUSH2 0x235C DUP2 PUSH2 0x2349 JUMP JUMPDEST DUP3 MSTORE POP POP JUMP JUMPDEST PUSH1 0x0 PUSH1 0x20 DUP3 ADD SWAP1 POP PUSH2 0x2377 PUSH1 0x0 DUP4 ADD DUP5 PUSH2 0x2353 JUMP JUMPDEST SWAP3 SWAP2 POP POP JUMP JUMPDEST PUSH1 0x0 PUSH20 0xFFFFFFFFFFFFFFFFFFFFFFFFFFFFFFFFFFFFFFFF DUP3 AND SWAP1 POP SWAP2 SWAP1 POP JUMP JUMPDEST PUSH1 0x0 PUSH2 0x23A8 DUP3 PUSH2 0x237D JUMP JUMPDEST SWAP1 POP SWAP2 SWAP1 POP JUMP JUMPDEST PUSH2 0x23B8 DUP2 PUSH2 0x239D JUMP JUMPDEST DUP3 MSTORE POP POP JUMP JUMPDEST PUSH1 0x0 PUSH1 0x20 DUP3 ADD SWAP1 POP PUSH2 0x23D3 PUSH1 0x0 DUP4 ADD DUP5 PUSH2 0x23AF JUMP JUMPDEST SWAP3 SWAP2 POP POP JUMP JUMPDEST PUSH1 0x0 PUSH1 0x40 MLOAD SWAP1 POP SWAP1 JUMP JUMPDEST PUSH1 0x0 DUP1 REVERT JUMPDEST PUSH1 0x0 DUP1 REVERT JUMPDEST PUSH2 0x23F6 DUP2 PUSH2 0x2349 JUMP JUMPDEST DUP2 EQ PUSH2 0x2401 JUMPI PUSH1 0x0 DUP1 REVERT JUMPDEST POP JUMP JUMPDEST PUSH1 0x0 DUP2 CALLDATALOAD SWAP1 POP PUSH2 0x2413 DUP2 PUSH2 0x23ED JUMP JUMPDEST SWAP3 SWAP2 POP POP JUMP JUMPDEST PUSH1 0x0 PUSH1 0x20 DUP3 DUP5 SUB SLT ISZERO PUSH2 0x242F JUMPI PUSH2 0x242E PUSH2 0x23E3 JUMP JUMPDEST JUMPDEST PUSH1 0x0 PUSH2 0x243D DUP5 DUP3 DUP6 ADD PUSH2 0x2404 JUMP JUMPDEST SWAP2 POP POP SWAP3 SWAP2 POP POP JUMP JUMPDEST PUSH1 0x0 DUP2 MLOAD SWAP1 POP SWAP2 SWAP1 POP JUMP JUMPDEST PUSH1 0x0 DUP3 DUP3 MSTORE PUSH1 0x20 DUP3 ADD SWAP1 POP SWAP3 SWAP2 POP POP JUMP JUMPDEST PUSH1 0x0 DUP2 SWAP1 POP PUSH1 0x20 DUP3 ADD SWAP1 POP SWAP2 SWAP1 POP JUMP JUMPDEST PUSH2 0x247B DUP2 PUSH2 0x239D JUMP JUMPDEST DUP3 MSTORE POP POP JUMP JUMPDEST PUSH1 0x0 PUSH2 0x248D DUP4 DUP4 PUSH2 0x2472 JUMP JUMPDEST PUSH1 0x20 DUP4 ADD SWAP1 POP SWAP3 SWAP2 POP POP JUMP JUMPDEST PUSH1 0x0 PUSH1 0x20 DUP3 ADD SWAP1 POP SWAP2 SWAP1 POP JUMP JUMPDEST PUSH1 0x0 PUSH2 0x24B1 DUP3 PUSH2 0x2446 JUMP JUMPDEST PUSH2 0x24BB DUP2 DUP6 PUSH2 0x2451 JUMP JUMPDEST SWAP4 POP PUSH2 0x24C6 DUP4 PUSH2 0x2462 JUMP JUMPDEST DUP1 PUSH1 0x0 JUMPDEST DUP4 DUP2 LT ISZERO PUSH2 0x24F7 JUMPI DUP2 MLOAD PUSH2 0x24DE DUP9 DUP3 PUSH2 0x2481 JUMP JUMPDEST SWAP8 POP PUSH2 0x24E9 DUP4 PUSH2 0x2499 JUMP JUMPDEST SWAP3 POP POP PUSH1 0x1 DUP2 ADD SWAP1 POP PUSH2 0x24CA JUMP JUMPDEST POP DUP6 SWAP4 POP POP POP POP SWAP3 SWAP2 POP POP JUMP JUMPDEST PUSH1 0x0 PUSH1 0x20 DUP3 ADD SWAP1 POP DUP2 DUP2 SUB PUSH1 0x0 DUP4 ADD MSTORE PUSH2 0x251E DUP2 DUP5 PUSH2 0x24A6 JUMP JUMPDEST SWAP1 POP SWAP3 SWAP2 POP POP JUMP JUMPDEST PUSH2 0x252F DUP2 PUSH2 0x239D JUMP JUMPDEST DUP2 EQ PUSH2 0x253A JUMPI PUSH1 0x0 DUP1 REVERT JUMPDEST POP JUMP JUMPDEST PUSH1 0x0 DUP2 CALLDATALOAD SWAP1 POP PUSH2 0x254C DUP2 PUSH2 0x2526 JUMP JUMPDEST SWAP3 SWAP2 POP POP JUMP JUMPDEST PUSH1 0x0 PUSH1 0x20 DUP3 DUP5 SUB SLT ISZERO PUSH2 0x2568 JUMPI PUSH2 0x2567 PUSH2 0x23E3 JUMP JUMPDEST JUMPDEST PUSH1 0x0 PUSH2 0x2576 DUP5 DUP3 DUP6 ADD PUSH2 0x253D JUMP JUMPDEST SWAP2 POP POP SWAP3 SWAP2 POP POP JUMP JUMPDEST PUSH1 0x0 DUP2 MLOAD SWAP1 POP SWAP2 SWAP1 POP JUMP JUMPDEST PUSH1 0x0 DUP3 DUP3 MSTORE PUSH1 0x20 DUP3 ADD SWAP1 POP SWAP3 SWAP2 POP POP JUMP JUMPDEST PUSH1 0x0 DUP2 SWAP1 POP PUSH1 0x20 DUP3 ADD SWAP1 POP SWAP2 SWAP1 POP JUMP JUMPDEST PUSH2 0x25B4 DUP2 PUSH2 0x2349 JUMP JUMPDEST DUP3 MSTORE POP POP JUMP JUMPDEST PUSH1 0x0 DUP2 MLOAD SWAP1 POP SWAP2 SWAP1 POP JUMP JUMPDEST PUSH1 0x0 DUP3 DUP3 MSTORE PUSH1 0x20 DUP3 ADD SWAP1 POP SWAP3 SWAP2 POP POP JUMP JUMPDEST PUSH1 0x0 JUMPDEST DUP4 DUP2 LT ISZERO PUSH2 0x25F4 JUMPI DUP1 DUP3 ADD MLOAD DUP2 DUP5 ADD MSTORE PUSH1 0x20 DUP2 ADD SWAP1 POP PUSH2 0x25D9 JUMP JUMPDEST PUSH1 0x0 DUP5 DUP5 ADD MSTORE POP POP POP POP JUMP JUMPDEST PUSH1 0x0 PUSH1 0x1F NOT PUSH1 0x1F DUP4 ADD AND SWAP1 POP SWAP2 SWAP1 POP JUMP JUMPDEST PUSH1 0x0 PUSH2 0x261C DUP3 PUSH2 0x25BA JUMP JUMPDEST PUSH2 0x2626 DUP2 DUP6 PUSH2 0x25C5 JUMP JUMPDEST SWAP4 POP PUSH2 0x2636 DUP2 DUP6 PUSH1 0x20 DUP7 ADD PUSH2 0x25D6 JUMP JUMPDEST PUSH2 0x263F DUP2 PUSH2 0x2600 JUMP JUMPDEST DUP5 ADD SWAP2 POP POP SWAP3 SWAP2 POP POP JUMP JUMPDEST PUSH1 0x0 DUP2 ISZERO ISZERO SWAP1 POP SWAP2 SWAP1 POP JUMP JUMPDEST PUSH2 0x265F DUP2 PUSH2 0x264A JUMP JUMPDEST DUP3 MSTORE POP POP JUMP JUMPDEST PUSH1 0x0 PUSH1 0xC0 DUP4 ADD PUSH1 0x0 DUP4 ADD MLOAD PUSH2 0x267D PUSH1 0x0 DUP7 ADD DUP3 PUSH2 0x25AB JUMP JUMPDEST POP PUSH1 0x20 DUP4 ADD MLOAD PUSH2 0x2690 PUSH1 0x20 DUP7 ADD DUP3 PUSH2 0x25AB JUMP JUMPDEST POP PUSH1 0x40 DUP4 ADD MLOAD DUP5 DUP3 SUB PUSH1 0x40 DUP7 ADD MSTORE PUSH2 0x26A8 DUP3 DUP3 PUSH2 0x2611 JUMP JUMPDEST SWAP2 POP POP PUSH1 0x60 DUP4 ADD MLOAD PUSH2 0x26BD PUSH1 0x60 DUP7 ADD DUP3 PUSH2 0x2656 JUMP JUMPDEST POP PUSH1 0x80 DUP4 ADD MLOAD PUSH2 0x26D0 PUSH1 0x80 DUP7 ADD DUP3 PUSH2 0x2656 JUMP JUMPDEST POP PUSH1 0xA0 DUP4 ADD MLOAD PUSH2 0x26E3 PUSH1 0xA0 DUP7 ADD DUP3 PUSH2 0x2656 JUMP JUMPDEST POP DUP1 SWAP2 POP POP SWAP3 SWAP2 POP POP JUMP JUMPDEST PUSH1 0x0 PUSH2 0x26FA DUP4 DUP4 PUSH2 0x2665 JUMP JUMPDEST SWAP1 POP SWAP3 SWAP2 POP POP JUMP JUMPDEST PUSH1 0x0 PUSH1 0x20 DUP3 ADD SWAP1 POP SWAP2 SWAP1 POP JUMP JUMPDEST PUSH1 0x0 PUSH2 0x271A DUP3 PUSH2 0x257F JUMP JUMPDEST PUSH2 0x2724 DUP2 DUP6 PUSH2 0x258A JUMP JUMPDEST SWAP4 POP DUP4 PUSH1 0x20 DUP3 MUL DUP6 ADD PUSH2 0x2736 DUP6 PUSH2 0x259B JUMP JUMPDEST DUP1 PUSH1 0x0 JUMPDEST DUP6 DUP2 LT ISZERO PUSH2 0x2772 JUMPI DUP5 DUP5 SUB DUP10 MSTORE DUP2 MLOAD PUSH2 0x2753 DUP6 DUP3 PUSH2 0x26EE JUMP JUMPDEST SWAP5 POP PUSH2 0x275E DUP4 PUSH2 0x2702 JUMP JUMPDEST SWAP3 POP PUSH1 0x20 DUP11 ADD SWAP10 POP POP PUSH1 0x1 DUP2 ADD SWAP1 POP PUSH2 0x273A JUMP JUMPDEST POP DUP3 SWAP8 POP DUP8 SWAP6 POP POP POP POP POP POP SWAP3 SWAP2 POP POP JUMP JUMPDEST PUSH1 0x0 PUSH1 0x20 DUP3 ADD SWAP1 POP DUP2 DUP2 SUB PUSH1 0x0 DUP4 ADD MSTORE PUSH2 0x279E DUP2 DUP5 PUSH2 0x270F JUMP JUMPDEST SWAP1 POP SWAP3 SWAP2 POP POP JUMP JUMPDEST PUSH1 0x0 DUP1 REVERT JUMPDEST PUSH32 0x4E487B7100000000000000000000000000000000000000000000000000000000 PUSH1 0x0 MSTORE PUSH1 0x41 PUSH1 0x4 MSTORE PUSH1 0x24 PUSH1 0x0 REVERT JUMPDEST PUSH2 0x27E3 DUP3 PUSH2 0x2600 JUMP JUMPDEST DUP2 ADD DUP2 DUP2 LT PUSH8 0xFFFFFFFFFFFFFFFF DUP3 GT OR ISZERO PUSH2 0x2802 JUMPI PUSH2 0x2801 PUSH2 0x27AB JUMP JUMPDEST JUMPDEST DUP1 PUSH1 0x40 MSTORE POP POP POP JUMP JUMPDEST PUSH1 0x0 PUSH2 0x2815 PUSH2 0x23D9 JUMP JUMPDEST SWAP1 POP PUSH2 0x2821 DUP3 DUP3 PUSH2 0x27DA JUMP JUMPDEST SWAP2 SWAP1 POP JUMP JUMPDEST PUSH1 0x0 PUSH8 0xFFFFFFFFFFFFFFFF DUP3 GT ISZERO PUSH2 0x2841 JUMPI PUSH2 0x2840 PUSH2 0x27AB JUMP JUMPDEST JUMPDEST PUSH1 0x20 DUP3 MUL SWAP1 POP PUSH1 0x20 DUP2 ADD SWAP1 POP SWAP2 SWAP1 POP JUMP JUMPDEST PUSH1 0x0 DUP1 REVERT JUMPDEST PUSH1 0x0 DUP1 REVERT JUMPDEST PUSH1 0x0 PUSH8 0xFFFFFFFFFFFFFFFF DUP3 GT ISZERO PUSH2 0x2877 JUMPI PUSH2 0x2876 PUSH2 0x27AB JUMP JUMPDEST JUMPDEST PUSH2 0x2880 DUP3 PUSH2 0x2600 JUMP JUMPDEST SWAP1 POP PUSH1 0x20 DUP2 ADD SWAP1 POP SWAP2 SWAP1 POP JUMP JUMPDEST DUP3 DUP2 DUP4 CALLDATACOPY PUSH1 0x0 DUP4 DUP4 ADD MSTORE POP POP POP JUMP JUMPDEST PUSH1 0x0 PUSH2 0x28AF PUSH2 0x28AA DUP5 PUSH2 0x285C JUMP JUMPDEST PUSH2 0x280B JUMP JUMPDEST SWAP1 POP DUP3 DUP2 MSTORE PUSH1 0x20 DUP2 ADD DUP5 DUP5 DUP5 ADD GT ISZERO PUSH2 0x28CB JUMPI PUSH2 0x28CA PUSH2 0x2857 JUMP JUMPDEST JUMPDEST PUSH2 0x28D6 DUP5 DUP3 DUP6 PUSH2 0x288D JUMP JUMPDEST POP SWAP4 SWAP3 POP POP POP JUMP JUMPDEST PUSH1 0x0 DUP3 PUSH1 0x1F DUP4 ADD SLT PUSH2 0x28F3 JUMPI PUSH2 0x28F2 PUSH2 0x27A6 JUMP JUMPDEST JUMPDEST DUP2 CALLDATALOAD PUSH2 0x2903 DUP5 DUP3 PUSH1 0x20 DUP7 ADD PUSH2 0x289C JUMP JUMPDEST SWAP2 POP POP SWAP3 SWAP2 POP POP JUMP JUMPDEST PUSH1 0x0 PUSH2 0x291F PUSH2 0x291A DUP5 PUSH2 0x2826 JUMP JUMPDEST PUSH2 0x280B JUMP JUMPDEST SWAP1 POP DUP1 DUP4 DUP3 MSTORE PUSH1 0x20 DUP3 ADD SWAP1 POP PUSH1 0x20 DUP5 MUL DUP4 ADD DUP6 DUP2 GT ISZERO PUSH2 0x2942 JUMPI PUSH2 0x2941 PUSH2 0x2852 JUMP JUMPDEST JUMPDEST DUP4 JUMPDEST DUP2 DUP2 LT ISZERO PUSH2 0x2989 JUMPI DUP1 CALLDATALOAD PUSH8 0xFFFFFFFFFFFFFFFF DUP2 GT ISZERO PUSH2 0x2967 JUMPI PUSH2 0x2966 PUSH2 0x27A6 JUMP JUMPDEST JUMPDEST DUP1 DUP7 ADD PUSH2 0x2974 DUP10 DUP3 PUSH2 0x28DE JUMP JUMPDEST DUP6 MSTORE PUSH1 0x20 DUP6 ADD SWAP5 POP POP POP PUSH1 0x20 DUP2 ADD SWAP1 POP PUSH2 0x2944 JUMP JUMPDEST POP POP POP SWAP4 SWAP3 POP POP POP JUMP JUMPDEST PUSH1 0x0 DUP3 PUSH1 0x1F DUP4 ADD SLT PUSH2 0x29A8 JUMPI PUSH2 0x29A7 PUSH2 0x27A6 JUMP JUMPDEST JUMPDEST DUP2 CALLDATALOAD PUSH2 0x29B8 DUP5 DUP3 PUSH1 0x20 DUP7 ADD PUSH2 0x290C JUMP JUMPDEST SWAP2 POP POP SWAP3 SWAP2 POP POP JUMP JUMPDEST PUSH1 0x0 PUSH8 0xFFFFFFFFFFFFFFFF DUP3 GT ISZERO PUSH2 0x29DC JUMPI PUSH2 0x29DB PUSH2 0x27AB JUMP JUMPDEST JUMPDEST PUSH1 0x20 DUP3 MUL SWAP1 POP PUSH1 0x20 DUP2 ADD SWAP1 POP SWAP2 SWAP1 POP JUMP JUMPDEST PUSH1 0x0 PUSH8 0xFFFFFFFFFFFFFFFF DUP3 GT ISZERO PUSH2 0x2A08 JUMPI PUSH2 0x2A07 PUSH2 0x27AB JUMP JUMPDEST JUMPDEST PUSH2 0x2A11 DUP3 PUSH2 0x2600 JUMP JUMPDEST SWAP1 POP PUSH1 0x20 DUP2 ADD SWAP1 POP SWAP2 SWAP1 POP JUMP JUMPDEST PUSH1 0x0 PUSH2 0x2A31 PUSH2 0x2A2C DUP5 PUSH2 0x29ED JUMP JUMPDEST PUSH2 0x280B JUMP JUMPDEST SWAP1 POP DUP3 DUP2 MSTORE PUSH1 0x20 DUP2 ADD DUP5 DUP5 DUP5 ADD GT ISZERO PUSH2 0x2A4D JUMPI PUSH2 0x2A4C PUSH2 0x2857 JUMP JUMPDEST JUMPDEST PUSH2 0x2A58 DUP5 DUP3 DUP6 PUSH2 0x288D JUMP JUMPDEST POP SWAP4 SWAP3 POP POP POP JUMP JUMPDEST PUSH1 0x0 DUP3 PUSH1 0x1F DUP4 ADD SLT PUSH2 0x2A75 JUMPI PUSH2 0x2A74 PUSH2 0x27A6 JUMP JUMPDEST JUMPDEST DUP2 CALLDATALOAD PUSH2 0x2A85 DUP5 DUP3 PUSH1 0x20 DUP7 ADD PUSH2 0x2A1E JUMP JUMPDEST SWAP2 POP POP SWAP3 SWAP2 POP POP JUMP JUMPDEST PUSH1 0x0 PUSH2 0x2AA1 PUSH2 0x2A9C DUP5 PUSH2 0x29C1 JUMP JUMPDEST PUSH2 0x280B JUMP JUMPDEST SWAP1 POP DUP1 DUP4 DUP3 MSTORE PUSH1 0x20 DUP3 ADD SWAP1 POP PUSH1 0x20 DUP5 MUL DUP4 ADD DUP6 DUP2 GT ISZERO PUSH2 0x2AC4 JUMPI PUSH2 0x2AC3 PUSH2 0x2852 JUMP JUMPDEST JUMPDEST DUP4 JUMPDEST DUP2 DUP2 LT ISZERO PUSH2 0x2B0B JUMPI DUP1 CALLDATALOAD PUSH8 0xFFFFFFFFFFFFFFFF DUP2 GT ISZERO PUSH2 0x2AE9 JUMPI PUSH2 0x2AE8 PUSH2 0x27A6 JUMP JUMPDEST JUMPDEST DUP1 DUP7 ADD PUSH2 0x2AF6 DUP10 DUP3 PUSH2 0x2A60 JUMP JUMPDEST DUP6 MSTORE PUSH1 0x20 DUP6 ADD SWAP5 POP POP POP PUSH1 0x20 DUP2 ADD SWAP1 POP PUSH2 0x2AC6 JUMP JUMPDEST POP POP POP SWAP4 SWAP3 POP POP POP JUMP JUMPDEST PUSH1 0x0 DUP3 PUSH1 0x1F DUP4 ADD SLT PUSH2 0x2B2A JUMPI PUSH2 0x2B29 PUSH2 0x27A6 JUMP JUMPDEST JUMPDEST DUP2 CALLDATALOAD PUSH2 0x2B3A DUP5 DUP3 PUSH1 0x20 DUP7 ADD PUSH2 0x2A8E JUMP JUMPDEST SWAP2 POP POP SWAP3 SWAP2 POP POP JUMP JUMPDEST PUSH1 0x0 DUP1 PUSH1 0x40 DUP4 DUP6 SUB SLT ISZERO PUSH2 0x2B5A JUMPI PUSH2 0x2B59 PUSH2 0x23E3 JUMP JUMPDEST JUMPDEST PUSH1 0x0 DUP4 ADD CALLDATALOAD PUSH8 0xFFFFFFFFFFFFFFFF DUP2 GT ISZERO PUSH2 0x2B78 JUMPI PUSH2 0x2B77 PUSH2 0x23E8 JUMP JUMPDEST JUMPDEST PUSH2 0x2B84 DUP6 DUP3 DUP7 ADD PUSH2 0x2993 JUMP JUMPDEST SWAP3 POP POP PUSH1 0x20 DUP4 ADD CALLDATALOAD PUSH8 0xFFFFFFFFFFFFFFFF DUP2 GT ISZERO PUSH2 0x2BA5 JUMPI PUSH2 0x2BA4 PUSH2 0x23E8 JUMP JUMPDEST JUMPDEST PUSH2 0x2BB1 DUP6 DUP3 DUP7 ADD PUSH2 0x2B15 JUMP JUMPDEST SWAP2 POP POP SWAP3 POP SWAP3 SWAP1 POP JUMP JUMPDEST PUSH1 0x0 PUSH2 0x2BC6 DUP3 PUSH2 0x237D JUMP JUMPDEST SWAP1 POP SWAP2 SWAP1 POP JUMP JUMPDEST PUSH2 0x2BD6 DUP2 PUSH2 0x2BBB JUMP JUMPDEST DUP2 EQ PUSH2 0x2BE1 JUMPI PUSH1 0x0 DUP1 REVERT JUMPDEST POP JUMP JUMPDEST PUSH1 0x0 DUP2 CALLDATALOAD SWAP1 POP PUSH2 0x2BF3 DUP2 PUSH2 0x2BCD JUMP JUMPDEST SWAP3 SWAP2 POP POP JUMP JUMPDEST PUSH1 0x0 DUP1 PUSH1 0x40 DUP4 DUP6 SUB SLT ISZERO PUSH2 0x2C10 JUMPI PUSH2 0x2C0F PUSH2 0x23E3 JUMP JUMPDEST JUMPDEST PUSH1 0x0 PUSH2 0x2C1E DUP6 DUP3 DUP7 ADD PUSH2 0x2BE4 JUMP JUMPDEST SWAP3 POP POP PUSH1 0x20 PUSH2 0x2C2F DUP6 DUP3 DUP7 ADD PUSH2 0x2404 JUMP JUMPDEST SWAP2 POP POP SWAP3 POP SWAP3 SWAP1 POP JUMP JUMPDEST PUSH1 0x0 PUSH1 0x20 DUP3 DUP5 SUB SLT ISZERO PUSH2 0x2C4F JUMPI PUSH2 0x2C4E PUSH2 0x23E3 JUMP JUMPDEST JUMPDEST PUSH1 0x0 DUP3 ADD CALLDATALOAD PUSH8 0xFFFFFFFFFFFFFFFF DUP2 GT ISZERO PUSH2 0x2C6D JUMPI PUSH2 0x2C6C PUSH2 0x23E8 JUMP JUMPDEST JUMPDEST PUSH2 0x2C79 DUP5 DUP3 DUP6 ADD PUSH2 0x28DE JUMP JUMPDEST SWAP2 POP POP SWAP3 SWAP2 POP POP JUMP JUMPDEST PUSH1 0x0 DUP2 MLOAD SWAP1 POP SWAP2 SWAP1 POP JUMP JUMPDEST PUSH1 0x0 DUP3 DUP3 MSTORE PUSH1 0x20 DUP3 ADD SWAP1 POP SWAP3 SWAP2 POP POP JUMP JUMPDEST PUSH1 0x0 DUP2 SWAP1 POP PUSH1 0x20 DUP3 ADD SWAP1 POP SWAP2 SWAP1 POP JUMP JUMPDEST PUSH1 0x0 PUSH2 0x2CBA DUP4 DUP4 PUSH2 0x2611 JUMP JUMPDEST SWAP1 POP SWAP3 SWAP2 POP POP JUMP JUMPDEST PUSH1 0x0 PUSH1 0x20 DUP3 ADD SWAP1 POP SWAP2 SWAP1 POP JUMP JUMPDEST PUSH1 0x0 PUSH2 0x2CDA DUP3 PUSH2 0x2C82 JUMP JUMPDEST PUSH2 0x2CE4 DUP2 DUP6 PUSH2 0x2C8D JUMP JUMPDEST SWAP4 POP DUP4 PUSH1 0x20 DUP3 MUL DUP6 ADD PUSH2 0x2CF6 DUP6 PUSH2 0x2C9E JUMP JUMPDEST DUP1 PUSH1 0x0 JUMPDEST DUP6 DUP2 LT ISZERO PUSH2 0x2D32 JUMPI DUP5 DUP5 SUB DUP10 MSTORE DUP2 MLOAD PUSH2 0x2D13 DUP6 DUP3 PUSH2 0x2CAE JUMP JUMPDEST SWAP5 POP PUSH2 0x2D1E DUP4 PUSH2 0x2CC2 JUMP JUMPDEST SWAP3 POP PUSH1 0x20 DUP11 ADD SWAP10 POP POP PUSH1 0x1 DUP2 ADD SWAP1 POP PUSH2 0x2CFA JUMP JUMPDEST POP DUP3 SWAP8 POP DUP8 SWAP6 POP POP POP POP POP POP SWAP3 SWAP2 POP POP JUMP JUMPDEST PUSH1 0x0 PUSH1 0x20 DUP3 ADD SWAP1 POP DUP2 DUP2 SUB PUSH1 0x0 DUP4 ADD MSTORE PUSH2 0x2D5E DUP2 DUP5 PUSH2 0x2CCF JUMP JUMPDEST SWAP1 POP SWAP3 SWAP2 POP POP JUMP JUMPDEST PUSH1 0x0 PUSH8 0xFFFFFFFFFFFFFFFF DUP3 GT ISZERO PUSH2 0x2D81 JUMPI PUSH2 0x2D80 PUSH2 0x27AB JUMP JUMPDEST JUMPDEST PUSH1 0x20 DUP3 MUL SWAP1 POP PUSH1 0x20 DUP2 ADD SWAP1 POP SWAP2 SWAP1 POP JUMP JUMPDEST PUSH1 0x0 PUSH2 0x2DA5 PUSH2 0x2DA0 DUP5 PUSH2 0x2D66 JUMP JUMPDEST PUSH2 0x280B JUMP JUMPDEST SWAP1 POP DUP1 DUP4 DUP3 MSTORE PUSH1 0x20 DUP3 ADD SWAP1 POP PUSH1 0x20 DUP5 MUL DUP4 ADD DUP6 DUP2 GT ISZERO PUSH2 0x2DC8 JUMPI PUSH2 0x2DC7 PUSH2 0x2852 JUMP JUMPDEST JUMPDEST DUP4 JUMPDEST DUP2 DUP2 LT ISZERO PUSH2 0x2DF1 JUMPI DUP1 PUSH2 0x2DDD DUP9 DUP3 PUSH2 0x253D JUMP JUMPDEST DUP5 MSTORE PUSH1 0x20 DUP5 ADD SWAP4 POP POP PUSH1 0x20 DUP2 ADD SWAP1 POP PUSH2 0x2DCA JUMP JUMPDEST POP POP POP SWAP4 SWAP3 POP POP POP JUMP JUMPDEST PUSH1 0x0 DUP3 PUSH1 0x1F DUP4 ADD SLT PUSH2 0x2E10 JUMPI PUSH2 0x2E0F PUSH2 0x27A6 JUMP JUMPDEST JUMPDEST DUP2 CALLDATALOAD PUSH2 0x2E20 DUP5 DUP3 PUSH1 0x20 DUP7 ADD PUSH2 0x2D92 JUMP JUMPDEST SWAP2 POP POP SWAP3 SWAP2 POP POP JUMP JUMPDEST PUSH1 0x0 PUSH1 0x20 DUP3 DUP5 SUB SLT ISZERO PUSH2 0x2E3F JUMPI PUSH2 0x2E3E PUSH2 0x23E3 JUMP JUMPDEST JUMPDEST PUSH1 0x0 DUP3 ADD CALLDATALOAD PUSH8 0xFFFFFFFFFFFFFFFF DUP2 GT ISZERO PUSH2 0x2E5D JUMPI PUSH2 0x2E5C PUSH2 0x23E8 JUMP JUMPDEST JUMPDEST PUSH2 0x2E69 DUP5 DUP3 DUP6 ADD PUSH2 0x2DFB JUMP JUMPDEST SWAP2 POP POP SWAP3 SWAP2 POP POP JUMP JUMPDEST PUSH1 0x0 PUSH8 0xFFFFFFFFFFFFFFFF DUP3 GT ISZERO PUSH2 0x2E8D JUMPI PUSH2 0x2E8C PUSH2 0x27AB JUMP JUMPDEST JUMPDEST PUSH1 0x20 DUP3 MUL SWAP1 POP PUSH1 0x20 DUP2 ADD SWAP1 POP SWAP2 SWAP1 POP JUMP JUMPDEST PUSH1 0x0 DUP1 REVERT JUMPDEST PUSH1 0x0 DUP1 REVERT JUMPDEST PUSH1 0x0 PUSH1 0x60 DUP3 DUP5 SUB SLT ISZERO PUSH2 0x2EBE JUMPI PUSH2 0x2EBD PUSH2 0x2E9E JUMP JUMPDEST JUMPDEST PUSH2 0x2EC8 PUSH1 0x60 PUSH2 0x280B JUMP JUMPDEST SWAP1 POP PUSH1 0x0 PUSH2 0x2ED8 DUP5 DUP3 DUP6 ADD PUSH2 0x2404 JUMP JUMPDEST PUSH1 0x0 DUP4 ADD MSTORE POP PUSH1 0x20 PUSH2 0x2EEC DUP5 DUP3 DUP6 ADD PUSH2 0x2404 JUMP JUMPDEST PUSH1 0x20 DUP4 ADD MSTORE POP PUSH1 0x40 DUP3 ADD CALLDATALOAD PUSH8 0xFFFFFFFFFFFFFFFF DUP2 GT ISZERO PUSH2 0x2F10 JUMPI PUSH2 0x2F0F PUSH2 0x2EA3 JUMP JUMPDEST JUMPDEST PUSH2 0x2F1C DUP5 DUP3 DUP6 ADD PUSH2 0x28DE JUMP JUMPDEST PUSH1 0x40 DUP4 ADD MSTORE POP SWAP3 SWAP2 POP POP JUMP JUMPDEST PUSH1 0x0 PUSH2 0x2F3B PUSH2 0x2F36 DUP5 PUSH2 0x2E72 JUMP JUMPDEST PUSH2 0x280B JUMP JUMPDEST SWAP1 POP DUP1 DUP4 DUP3 MSTORE PUSH1 0x20 DUP3 ADD SWAP1 POP PUSH1 0x20 DUP5 MUL DUP4 ADD DUP6 DUP2 GT ISZERO PUSH2 0x2F5E JUMPI PUSH2 0x2F5D PUSH2 0x2852 JUMP JUMPDEST JUMPDEST DUP4 JUMPDEST DUP2 DUP2 LT ISZERO PUSH2 0x2FA5 JUMPI DUP1 CALLDATALOAD PUSH8 0xFFFFFFFFFFFFFFFF DUP2 GT ISZERO PUSH2 0x2F83 JUMPI PUSH2 0x2F82 PUSH2 0x27A6 JUMP JUMPDEST JUMPDEST DUP1 DUP7 ADD PUSH2 0x2F90 DUP10 DUP3 PUSH2 0x2EA8 JUMP JUMPDEST DUP6 MSTORE PUSH1 0x20 DUP6 ADD SWAP5 POP POP POP PUSH1 0x20 DUP2 ADD SWAP1 POP PUSH2 0x2F60 JUMP JUMPDEST POP POP POP SWAP4 SWAP3 POP POP POP JUMP JUMPDEST PUSH1 0x0 DUP3 PUSH1 0x1F DUP4 ADD SLT PUSH2 0x2FC4 JUMPI PUSH2 0x2FC3 PUSH2 0x27A6 JUMP JUMPDEST JUMPDEST DUP2 CALLDATALOAD PUSH2 0x2FD4 DUP5 DUP3 PUSH1 0x20 DUP7 ADD PUSH2 0x2F28 JUMP JUMPDEST SWAP2 POP POP SWAP3 SWAP2 POP POP JUMP JUMPDEST PUSH1 0x0 PUSH1 0x20 DUP3 DUP5 SUB SLT ISZERO PUSH2 0x2FF3 JUMPI PUSH2 0x2FF2 PUSH2 0x23E3 JUMP JUMPDEST JUMPDEST PUSH1 0x0 DUP3 ADD CALLDATALOAD PUSH8 0xFFFFFFFFFFFFFFFF DUP2 GT ISZERO PUSH2 0x3011 JUMPI PUSH2 0x3010 PUSH2 0x23E8 JUMP JUMPDEST JUMPDEST PUSH2 0x301D DUP5 DUP3 DUP6 ADD PUSH2 0x2FAF JUMP JUMPDEST SWAP2 POP POP SWAP3 SWAP2 POP POP JUMP JUMPDEST PUSH32 0x4E487B7100000000000000000000000000000000000000000000000000000000 PUSH1 0x0 MSTORE PUSH1 0x32 PUSH1 0x4 MSTORE PUSH1 0x24 PUSH1 0x0 REVERT JUMPDEST PUSH32 0x4E487B7100000000000000000000000000000000000000000000000000000000 PUSH1 0x0 MSTORE PUSH1 0x11 PUSH1 0x4 MSTORE PUSH1 0x24 PUSH1 0x0 REVERT JUMPDEST PUSH1 0x0 PUSH1 0xFF DUP3 AND SWAP1 POP SWAP2 SWAP1 POP JUMP JUMPDEST PUSH1 0x0 PUSH2 0x309C DUP3 PUSH2 0x3084 JUMP JUMPDEST SWAP2 POP PUSH1 0xFF DUP3 SUB PUSH2 0x30AF JUMPI PUSH2 0x30AE PUSH2 0x3055 JUMP JUMPDEST JUMPDEST PUSH1 0x1 DUP3 ADD SWAP1 POP SWAP2 SWAP1 POP JUMP JUMPDEST PUSH1 0x0 DUP3 DUP3 MSTORE PUSH1 0x20 DUP3 ADD SWAP1 POP SWAP3 SWAP2 POP POP JUMP JUMPDEST PUSH32 0x4F6E6C79207061727469636970616E74206F7220737570706C6965722063616E PUSH1 0x0 DUP3 ADD MSTORE PUSH32 0x2063616C6C20746869732066756E6374696F6E00000000000000000000000000 PUSH1 0x20 DUP3 ADD MSTORE POP JUMP JUMPDEST PUSH1 0x0 PUSH2 0x3127 PUSH1 0x33 DUP4 PUSH2 0x30BA JUMP JUMPDEST SWAP2 POP PUSH2 0x3132 DUP3 PUSH2 0x30CB JUMP JUMPDEST PUSH1 0x40 DUP3 ADD SWAP1 POP SWAP2 SWAP1 POP JUMP JUMPDEST PUSH1 0x0 PUSH1 0x20 DUP3 ADD SWAP1 POP DUP2 DUP2 SUB PUSH1 0x0 DUP4 ADD MSTORE PUSH2 0x3156 DUP2 PUSH2 0x311A JUMP JUMPDEST SWAP1 POP SWAP2 SWAP1 POP JUMP JUMPDEST PUSH32 0x4F6E6C79207061727469636970616E7420776974686F757420737570706C6965 PUSH1 0x0 DUP3 ADD MSTORE PUSH32 0x722063616E2063616C6C20746869732066756E6374696F6E0000000000000000 PUSH1 0x20 DUP3 ADD MSTORE POP JUMP JUMPDEST PUSH1 0x0 PUSH2 0x31B9 PUSH1 0x38 DUP4 PUSH2 0x30BA JUMP JUMPDEST SWAP2 POP PUSH2 0x31C4 DUP3 PUSH2 0x315D JUMP JUMPDEST PUSH1 0x40 DUP3 ADD SWAP1 POP SWAP2 SWAP1 POP JUMP JUMPDEST PUSH1 0x0 PUSH1 0x20 DUP3 ADD SWAP1 POP DUP2 DUP2 SUB PUSH1 0x0 DUP4 ADD MSTORE PUSH2 0x31E8 DUP2 PUSH2 0x31AC JUMP JUMPDEST SWAP1 POP SWAP2 SWAP1 POP JUMP JUMPDEST PUSH1 0x0 PUSH2 0x31FA DUP3 PUSH2 0x2349 JUMP JUMPDEST SWAP2 POP PUSH2 0x3205 DUP4 PUSH2 0x2349 JUMP JUMPDEST SWAP3 POP DUP3 DUP3 ADD SWAP1 POP DUP1 DUP3 GT ISZERO PUSH2 0x321D JUMPI PUSH2 0x321C PUSH2 0x3055 JUMP JUMPDEST JUMPDEST SWAP3 SWAP2 POP POP JUMP JUMPDEST PUSH1 0x0 PUSH1 0xA0 DUP3 ADD SWAP1 POP PUSH2 0x3238 PUSH1 0x0 DUP4 ADD DUP9 PUSH2 0x23AF JUMP JUMPDEST PUSH2 0x3245 PUSH1 0x20 DUP4 ADD DUP8 PUSH2 0x2353 JUMP JUMPDEST PUSH2 0x3252 PUSH1 0x40 DUP4 ADD DUP7 PUSH2 0x2353 JUMP JUMPDEST PUSH2 0x325F PUSH1 0x60 DUP4 ADD DUP6 PUSH2 0x2353 JUMP JUMPDEST PUSH2 0x326C PUSH1 0x80 DUP4 ADD DUP5 PUSH2 0x2353 JUMP JUMPDEST SWAP7 SWAP6 POP POP POP POP POP POP JUMP JUMPDEST PUSH2 0x327F DUP2 PUSH2 0x2BBB JUMP JUMPDEST DUP3 MSTORE POP POP JUMP JUMPDEST PUSH1 0x0 PUSH1 0x40 DUP3 ADD SWAP1 POP PUSH2 0x329A PUSH1 0x0 DUP4 ADD DUP6 PUSH2 0x3276 JUMP JUMPDEST PUSH2 0x32A7 PUSH1 0x20 DUP4 ADD DUP5 PUSH2 0x2353 JUMP JUMPDEST SWAP4 SWAP3 POP POP POP JUMP JUMPDEST PUSH2 0x32B7 DUP2 PUSH2 0x264A JUMP JUMPDEST DUP3 MSTORE POP POP JUMP JUMPDEST PUSH1 0x0 PUSH1 0xA0 DUP3 ADD SWAP1 POP PUSH2 0x32D2 PUSH1 0x0 DUP4 ADD DUP9 PUSH2 0x2353 JUMP JUMPDEST PUSH2 0x32DF PUSH1 0x20 DUP4 ADD DUP8 PUSH2 0x32AE JUMP JUMPDEST PUSH2 0x32EC PUSH1 0x40 DUP4 ADD DUP7 PUSH2 0x32AE JUMP JUMPDEST PUSH2 0x32F9 PUSH1 0x60 DUP4 ADD DUP6 PUSH2 0x32AE JUMP JUMPDEST PUSH2 0x3306 PUSH1 0x80 DUP4 ADD DUP5 PUSH2 0x2353 JUMP JUMPDEST SWAP7 SWAP6 POP POP POP POP POP POP JUMP JUMPDEST PUSH32 0x4E487B7100000000000000000000000000000000000000000000000000000000 PUSH1 0x0 MSTORE PUSH1 0x22 PUSH1 0x4 MSTORE PUSH1 0x24 PUSH1 0x0 REVERT JUMPDEST PUSH1 0x0 PUSH1 0x2 DUP3 DIV SWAP1 POP PUSH1 0x1 DUP3 AND DUP1 PUSH2 0x3357 JUMPI PUSH1 0x7F DUP3 AND SWAP2 POP JUMPDEST PUSH1 0x20 DUP3 LT DUP2 SUB PUSH2 0x336A JUMPI PUSH2 0x3369 PUSH2 0x3310 JUMP JUMPDEST JUMPDEST POP SWAP2 SWAP1 POP JUMP JUMPDEST PUSH1 0x0 DUP2 SWAP1 POP SWAP3 SWAP2 POP POP JUMP JUMPDEST PUSH1 0x0 PUSH2 0x3386 DUP3 PUSH2 0x25BA JUMP JUMPDEST PUSH2 0x3390 DUP2 DUP6 PUSH2 0x3370 JUMP JUMPDEST SWAP4 POP PUSH2 0x33A0 DUP2 DUP6 PUSH1 0x20 DUP7 ADD PUSH2 0x25D6 JUMP JUMPDEST DUP1 DUP5 ADD SWAP2 POP POP SWAP3 SWAP2 POP POP JUMP JUMPDEST PUSH1 0x0 PUSH2 0x33B8 DUP3 DUP5 PUSH2 0x337B JUMP JUMPDEST SWAP2 POP DUP2 SWAP1 POP SWAP3 SWAP2 POP POP JUMP JUMPDEST PUSH1 0x0 DUP2 MLOAD SWAP1 POP SWAP2 SWAP1 POP JUMP JUMPDEST PUSH1 0x0 DUP2 SWAP1 POP DUP2 PUSH1 0x0 MSTORE PUSH1 0x20 PUSH1 0x0 KECCAK256 SWAP1 POP SWAP2 SWAP1 POP JUMP JUMPDEST PUSH1 0x0 PUSH1 0x20 PUSH1 0x1F DUP4 ADD DIV SWAP1 POP SWAP2 SWAP1 POP JUMP JUMPDEST PUSH1 0x0 DUP3 DUP3 SHL SWAP1 POP SWAP3 SWAP2 POP POP JUMP JUMPDEST PUSH1 0x0 PUSH1 0x8 DUP4 MUL PUSH2 0x3430 PUSH32 0xFFFFFFFFFFFFFFFFFFFFFFFFFFFFFFFFFFFFFFFFFFFFFFFFFFFFFFFFFFFFFFFF DUP3 PUSH2 0x33F3 JUMP JUMPDEST PUSH2 0x343A DUP7 DUP4 PUSH2 0x33F3 JUMP JUMPDEST SWAP6 POP DUP1 NOT DUP5 AND SWAP4 POP DUP1 DUP7 AND DUP5 OR SWAP3 POP POP POP SWAP4 SWAP3 POP POP POP JUMP JUMPDEST PUSH1 0x0 DUP2 SWAP1 POP SWAP2 SWAP1 POP JUMP JUMPDEST PUSH1 0x0 PUSH2 0x3477 PUSH2 0x3472 PUSH2 0x346D DUP5 PUSH2 0x2349 JUMP JUMPDEST PUSH2 0x3452 JUMP JUMPDEST PUSH2 0x2349 JUMP JUMPDEST SWAP1 POP SWAP2 SWAP1 POP JUMP JUMPDEST PUSH1 0x0 DUP2 SWAP1 POP SWAP2 SWAP1 POP JUMP JUMPDEST PUSH2 0x3491 DUP4 PUSH2 0x345C JUMP JUMPDEST PUSH2 0x34A5 PUSH2 0x349D DUP3 PUSH2 0x347E JUMP JUMPDEST DUP5 DUP5 SLOAD PUSH2 0x3400 JUMP JUMPDEST DUP3 SSTORE POP POP POP POP JUMP JUMPDEST PUSH1 0x0 SWAP1 JUMP JUMPDEST PUSH2 0x34BA PUSH2 0x34AD JUMP JUMPDEST PUSH2 0x34C5 DUP2 DUP5 DUP5 PUSH2 0x3488 JUMP JUMPDEST POP POP POP JUMP JUMPDEST JUMPDEST DUP2 DUP2 LT ISZERO PUSH2 0x34E9 JUMPI PUSH2 0x34DE PUSH1 0x0 DUP3 PUSH2 0x34B2 JUMP JUMPDEST PUSH1 0x1 DUP2 ADD SWAP1 POP PUSH2 0x34CB JUMP JUMPDEST POP POP JUMP JUMPDEST PUSH1 0x1F DUP3 GT ISZERO PUSH2 0x352E JUMPI PUSH2 0x34FF DUP2 PUSH2 0x33CE JUMP JUMPDEST PUSH2 0x3508 DUP5 PUSH2 0x33E3 JUMP JUMPDEST DUP2 ADD PUSH1 0x20 DUP6 LT ISZERO PUSH2 0x3517 JUMPI DUP2 SWAP1 POP JUMPDEST PUSH2 0x352B PUSH2 0x3523 DUP6 PUSH2 0x33E3 JUMP JUMPDEST DUP4 ADD DUP3 PUSH2 0x34CA JUMP JUMPDEST POP POP JUMPDEST POP POP POP JUMP JUMPDEST PUSH1 0x0 DUP3 DUP3 SHR SWAP1 POP SWAP3 SWAP2 POP POP JUMP JUMPDEST PUSH1 0x0 PUSH2 0x3551 PUSH1 0x0 NOT DUP5 PUSH1 0x8 MUL PUSH2 0x3533 JUMP JUMPDEST NOT DUP1 DUP4 AND SWAP2 POP POP SWAP3 SWAP2 POP POP JUMP JUMPDEST PUSH1 0x0 PUSH2 0x356A DUP4 DUP4 PUSH2 0x3540 JUMP JUMPDEST SWAP2 POP DUP3 PUSH1 0x2 MUL DUP3 OR SWAP1 POP SWAP3 SWAP2 POP POP JUMP JUMPDEST PUSH2 0x3583 DUP3 PUSH2 0x33C3 JUMP JUMPDEST PUSH8 0xFFFFFFFFFFFFFFFF DUP2 GT ISZERO PUSH2 0x359C JUMPI PUSH2 0x359B PUSH2 0x27AB JUMP JUMPDEST JUMPDEST PUSH2 0x35A6 DUP3 SLOAD PUSH2 0x333F JUMP JUMPDEST PUSH2 0x35B1 DUP3 DUP3 DUP6 PUSH2 0x34ED JUMP JUMPDEST PUSH1 0x0 PUSH1 0x20 SWAP1 POP PUSH1 0x1F DUP4 GT PUSH1 0x1 DUP2 EQ PUSH2 0x35E4 JUMPI PUSH1 0x0 DUP5 ISZERO PUSH2 0x35D2 JUMPI DUP3 DUP8 ADD MLOAD SWAP1 POP JUMPDEST PUSH2 0x35DC DUP6 DUP3 PUSH2 0x355E JUMP JUMPDEST DUP7 SSTORE POP PUSH2 0x3644 JUMP JUMPDEST PUSH1 0x1F NOT DUP5 AND PUSH2 0x35F2 DUP7 PUSH2 0x33CE JUMP JUMPDEST PUSH1 0x0 JUMPDEST DUP3 DUP2 LT ISZERO PUSH2 0x361A JUMPI DUP5 DUP10 ADD MLOAD DUP3 SSTORE PUSH1 0x1 DUP3 ADD SWAP2 POP PUSH1 0x20 DUP6 ADD SWAP5 POP PUSH1 0x20 DUP2 ADD SWAP1 POP PUSH2 0x35F5 JUMP JUMPDEST DUP7 DUP4 LT ISZERO PUSH2 0x3637 JUMPI DUP5 DUP10 ADD MLOAD PUSH2 0x3633 PUSH1 0x1F DUP10 AND DUP3 PUSH2 0x3540 JUMP JUMPDEST DUP4 SSTORE POP JUMPDEST PUSH1 0x1 PUSH1 0x2 DUP9 MUL ADD DUP9 SSTORE POP POP POP JUMPDEST POP POP POP POP POP POP JUMP JUMPDEST PUSH1 0x0 DUP2 SWAP1 POP DUP2 PUSH1 0x0 MSTORE PUSH1 0x20 PUSH1 0x0 KECCAK256 SWAP1 POP SWAP2 SWAP1 POP JUMP JUMPDEST PUSH1 0x1F DUP3 GT ISZERO PUSH2 0x36A2 JUMPI PUSH2 0x3673 DUP2 PUSH2 0x364C JUMP JUMPDEST PUSH2 0x367C DUP5 PUSH2 0x33E3 JUMP JUMPDEST DUP2 ADD PUSH1 0x20 DUP6 LT ISZERO PUSH2 0x368B JUMPI DUP2 SWAP1 POP JUMPDEST PUSH2 0x369F PUSH2 0x3697 DUP6 PUSH2 0x33E3 JUMP JUMPDEST DUP4 ADD DUP3 PUSH2 0x34CA JUMP JUMPDEST POP POP JUMPDEST POP POP POP JUMP JUMPDEST PUSH2 0x36B0 DUP3 PUSH2 0x25BA JUMP JUMPDEST PUSH8 0xFFFFFFFFFFFFFFFF DUP2 GT ISZERO PUSH2 0x36C9 JUMPI PUSH2 0x36C8 PUSH2 0x27AB JUMP JUMPDEST JUMPDEST PUSH2 0x36D3 DUP3 SLOAD PUSH2 0x333F JUMP JUMPDEST PUSH2 0x36DE DUP3 DUP3 DUP6 PUSH2 0x3661 JUMP JUMPDEST PUSH1 0x0 PUSH1 0x20 SWAP1 POP PUSH1 0x1F DUP4 GT PUSH1 0x1 DUP2 EQ PUSH2 0x3711 JUMPI PUSH1 0x0 DUP5 ISZERO PUSH2 0x36FF JUMPI DUP3 DUP8 ADD MLOAD SWAP1 POP JUMPDEST PUSH2 0x3709 DUP6 DUP3 PUSH2 0x355E JUMP JUMPDEST DUP7 SSTORE POP PUSH2 0x3771 JUMP JUMPDEST PUSH1 0x1F NOT DUP5 AND PUSH2 0x371F DUP7 PUSH2 0x364C JUMP JUMPDEST PUSH1 0x0 JUMPDEST DUP3 DUP2 LT ISZERO PUSH2 0x3747 JUMPI DUP5 DUP10 ADD MLOAD DUP3 SSTORE PUSH1 0x1 DUP3 ADD SWAP2 POP PUSH1 0x20 DUP6 ADD SWAP5 POP PUSH1 0x20 DUP2 ADD SWAP1 POP PUSH2 0x3722 JUMP JUMPDEST DUP7 DUP4 LT ISZERO PUSH2 0x3764 JUMPI DUP5 DUP10 ADD MLOAD PUSH2 0x3760 PUSH1 0x1F DUP10 AND DUP3 PUSH2 0x3540 JUMP JUMPDEST DUP4 SSTORE POP JUMPDEST PUSH1 0x1 PUSH1 0x2 DUP9 MUL ADD DUP9 SSTORE POP POP POP JUMPDEST POP POP POP POP POP POP JUMP JUMPDEST PUSH32 0x4F6E6C79207061727469636970616E74206F7220737570706C6965722063616E PUSH1 0x0 DUP3 ADD MSTORE PUSH32 0x2072656365697665000000000000000000000000000000000000000000000000 PUSH1 0x20 DUP3 ADD MSTORE POP JUMP JUMPDEST PUSH1 0x0 PUSH2 0x37D5 PUSH1 0x28 DUP4 PUSH2 0x30BA JUMP JUMPDEST SWAP2 POP PUSH2 0x37E0 DUP3 PUSH2 0x3779 JUMP JUMPDEST PUSH1 0x40 DUP3 ADD SWAP1 POP SWAP2 SWAP1 POP JUMP JUMPDEST PUSH1 0x0 PUSH1 0x20 DUP3 ADD SWAP1 POP DUP2 DUP2 SUB PUSH1 0x0 DUP4 ADD MSTORE PUSH2 0x3804 DUP2 PUSH2 0x37C8 JUMP JUMPDEST SWAP1 POP SWAP2 SWAP1 POP JUMP JUMPDEST PUSH32 0x4E6F7420656E6F75676820657468657273000000000000000000000000000000 PUSH1 0x0 DUP3 ADD MSTORE POP JUMP JUMPDEST PUSH1 0x0 PUSH2 0x3841 PUSH1 0x11 DUP4 PUSH2 0x30BA JUMP JUMPDEST SWAP2 POP PUSH2 0x384C DUP3 PUSH2 0x380B JUMP JUMPDEST PUSH1 0x20 DUP3 ADD SWAP1 POP SWAP2 SWAP1 POP JUMP JUMPDEST PUSH1 0x0 PUSH1 0x20 DUP3 ADD SWAP1 POP DUP2 DUP2 SUB PUSH1 0x0 DUP4 ADD MSTORE PUSH2 0x3870 DUP2 PUSH2 0x3834 JUMP JUMPDEST SWAP1 POP SWAP2 SWAP1 POP JUMP JUMPDEST PUSH32 0x4E6F7420656E6F75676820617373657473000000000000000000000000000000 PUSH1 0x0 DUP3 ADD MSTORE POP JUMP JUMPDEST PUSH1 0x0 PUSH2 0x38AD PUSH1 0x11 DUP4 PUSH2 0x30BA JUMP JUMPDEST SWAP2 POP PUSH2 0x38B8 DUP3 PUSH2 0x3877 JUMP JUMPDEST PUSH1 0x20 DUP3 ADD SWAP1 POP SWAP2 SWAP1 POP JUMP JUMPDEST PUSH1 0x0 PUSH1 0x20 DUP3 ADD SWAP1 POP DUP2 DUP2 SUB PUSH1 0x0 DUP4 ADD MSTORE PUSH2 0x38DC DUP2 PUSH2 0x38A0 JUMP JUMPDEST SWAP1 POP SWAP2 SWAP1 POP JUMP JUMPDEST PUSH1 0x0 PUSH2 0x38EE DUP3 PUSH2 0x2349 JUMP JUMPDEST SWAP2 POP PUSH2 0x38F9 DUP4 PUSH2 0x2349 JUMP JUMPDEST SWAP3 POP DUP3 DUP3 SUB SWAP1 POP DUP2 DUP2 GT ISZERO PUSH2 0x3911 JUMPI PUSH2 0x3910 PUSH2 0x3055 JUMP JUMPDEST JUMPDEST SWAP3 SWAP2 POP POP JUMP JUMPDEST PUSH1 0x0 PUSH2 0x3932 PUSH2 0x392D PUSH2 0x3928 DUP5 PUSH2 0x237D JUMP JUMPDEST PUSH2 0x3452 JUMP JUMPDEST PUSH2 0x237D JUMP JUMPDEST SWAP1 POP SWAP2 SWAP1 POP JUMP JUMPDEST PUSH1 0x0 PUSH2 0x3944 DUP3 PUSH2 0x3917 JUMP JUMPDEST SWAP1 POP SWAP2 SWAP1 POP JUMP JUMPDEST PUSH1 0x0 PUSH2 0x3956 DUP3 PUSH2 0x3939 JUMP JUMPDEST SWAP1 POP SWAP2 SWAP1 POP JUMP JUMPDEST PUSH2 0x3966 DUP2 PUSH2 0x394B JUMP JUMPDEST DUP3 MSTORE POP POP JUMP JUMPDEST PUSH1 0x0 PUSH1 0xA0 DUP3 ADD SWAP1 POP PUSH2 0x3981 PUSH1 0x0 DUP4 ADD DUP9 PUSH2 0x395D JUMP JUMPDEST PUSH2 0x398E PUSH1 0x20 DUP4 ADD DUP8 PUSH2 0x2353 JUMP JUMPDEST PUSH2 0x399B PUSH1 0x40 DUP4 ADD DUP7 PUSH2 0x2353 JUMP JUMPDEST PUSH2 0x39A8 PUSH1 0x60 DUP4 ADD DUP6 PUSH2 0x2353 JUMP JUMPDEST PUSH2 0x39B5 PUSH1 0x80 DUP4 ADD DUP5 PUSH2 0x2353 JUMP JUMPDEST SWAP7 SWAP6 POP POP POP POP POP POP JUMP JUMPDEST PUSH1 0x0 DUP2 SLOAD PUSH2 0x39CC DUP2 PUSH2 0x333F JUMP JUMPDEST PUSH2 0x39D6 DUP2 DUP7 PUSH2 0x3370 JUMP JUMPDEST SWAP5 POP PUSH1 0x1 DUP3 AND PUSH1 0x0 DUP2 EQ PUSH2 0x39F1 JUMPI PUSH1 0x1 DUP2 EQ PUSH2 0x3A06 JUMPI PUSH2 0x3A39 JUMP JUMPDEST PUSH1 0xFF NOT DUP4 AND DUP7 MSTORE DUP2 ISZERO ISZERO DUP3 MUL DUP7 ADD SWAP4 POP PUSH2 0x3A39 JUMP JUMPDEST PUSH2 0x3A0F DUP6 PUSH2 0x364C JUMP JUMPDEST PUSH1 0x0 JUMPDEST DUP4 DUP2 LT ISZERO PUSH2 0x3A31 JUMPI DUP2 SLOAD DUP2 DUP10 ADD MSTORE PUSH1 0x1 DUP3 ADD SWAP2 POP PUSH1 0x20 DUP2 ADD SWAP1 POP PUSH2 0x3A12 JUMP JUMPDEST DUP4 DUP9 ADD SWAP6 POP POP POP JUMPDEST POP POP POP SWAP3 SWAP2 POP POP JUMP JUMPDEST PUSH1 0x0 PUSH2 0x3A4E DUP3 DUP5 PUSH2 0x39BF JUMP JUMPDEST SWAP2 POP DUP2 SWAP1 POP SWAP3 SWAP2 POP POP JUMP JUMPDEST PUSH32 0x50726976617465206B6579206973206E6F7420636F7272656374000000000000 PUSH1 0x0 DUP3 ADD MSTORE POP JUMP JUMPDEST PUSH1 0x0 PUSH2 0x3A8F PUSH1 0x1A DUP4 PUSH2 0x30BA JUMP JUMPDEST SWAP2 POP PUSH2 0x3A9A DUP3 PUSH2 0x3A59 JUMP JUMPDEST PUSH1 0x20 DUP3 ADD SWAP1 POP SWAP2 SWAP1 POP JUMP JUMPDEST PUSH1 0x0 PUSH1 0x20 DUP3 ADD SWAP1 POP DUP2 DUP2 SUB PUSH1 0x0 DUP4 ADD MSTORE PUSH2 0x3ABE DUP2 PUSH2 0x3A82 JUMP JUMPDEST SWAP1 POP SWAP2 SWAP1 POP JUMP JUMPDEST PUSH1 0x0 PUSH2 0x3AD0 DUP3 PUSH2 0x2349 JUMP JUMPDEST SWAP2 POP PUSH32 0xFFFFFFFFFFFFFFFFFFFFFFFFFFFFFFFFFFFFFFFFFFFFFFFFFFFFFFFFFFFFFFFF DUP3 SUB PUSH2 0x3B02 JUMPI PUSH2 0x3B01 PUSH2 0x3055 JUMP JUMPDEST JUMPDEST PUSH1 0x1 DUP3 ADD SWAP1 POP SWAP2 SWAP1 POP JUMP JUMPDEST PUSH32 0x4F6E6C7920737570706C6965722063616E2063616C6C20746869732066756E63 PUSH1 0x0 DUP3 ADD MSTORE PUSH32 0x74696F6E00000000000000000000000000000000000000000000000000000000 PUSH1 0x20 DUP3 ADD MSTORE POP JUMP JUMPDEST PUSH1 0x0 PUSH2 0x3B69 PUSH1 0x24 DUP4 PUSH2 0x30BA JUMP JUMPDEST SWAP2 POP PUSH2 0x3B74 DUP3 PUSH2 0x3B0D JUMP JUMPDEST PUSH1 0x40 DUP3 ADD SWAP1 POP SWAP2 SWAP1 POP JUMP JUMPDEST PUSH1 0x0 PUSH1 0x20 DUP3 ADD SWAP1 POP DUP2 DUP2 SUB PUSH1 0x0 DUP4 ADD MSTORE PUSH2 0x3B98 DUP2 PUSH2 0x3B5C JUMP JUMPDEST SWAP1 POP SWAP2 SWAP1 POP JUMP JUMPDEST PUSH1 0x0 PUSH2 0x3BAA DUP3 PUSH2 0x2349 JUMP JUMPDEST SWAP2 POP PUSH2 0x3BB5 DUP4 PUSH2 0x2349 JUMP JUMPDEST SWAP3 POP DUP3 DUP3 MUL PUSH2 0x3BC3 DUP2 PUSH2 0x2349 JUMP JUMPDEST SWAP2 POP DUP3 DUP3 DIV DUP5 EQ DUP4 ISZERO OR PUSH2 0x3BDA JUMPI PUSH2 0x3BD9 PUSH2 0x3055 JUMP JUMPDEST JUMPDEST POP SWAP3 SWAP2 POP POP JUMP JUMPDEST PUSH32 0x4E487B7100000000000000000000000000000000000000000000000000000000 PUSH1 0x0 MSTORE PUSH1 0x12 PUSH1 0x4 MSTORE PUSH1 0x24 PUSH1 0x0 REVERT JUMPDEST PUSH1 0x0 PUSH2 0x3C1B DUP3 PUSH2 0x2349 JUMP JUMPDEST SWAP2 POP PUSH2 0x3C26 DUP4 PUSH2 0x2349 JUMP JUMPDEST SWAP3 POP DUP3 PUSH2 0x3C36 JUMPI PUSH2 0x3C35 PUSH2 0x3BE1 JUMP JUMPDEST JUMPDEST DUP3 DUP3 DIV SWAP1 POP SWAP3 SWAP2 POP POP JUMP INVALID LOG2 PUSH5 0x6970667358 0x22 SLT KECCAK256 0x5D 0xE5 0xCA 0xAC CALLDATASIZE 0x21 0xAC 0xC5 PUSH17 0x59AFC2DB4C3D3FAD56EA2AA2CD5ADA181C PUSH11 0xBE8B7AE8264736F6C6343 STOP ADDMOD SGT STOP CALLER "
        },
        "methodIdentifiers": {
          "confirmStage()": "4bbe765a",
          "getAssets(address)": "742978da",
          "getBalance()": "12065fe0",
          "getContractInformation(string)": "a4477713",
          "getOwnerAddressWallet()": "9c01b52f",
          "getStages()": "79655bd0",
          "getStagesLength()": "da28cef7",
          "getSupplierAddressWallet()": "14a24bcf",
          "getTotalBalance()": "12b58349",
          "getUserAddressWallet()": "3f44327a",
          "sendToSmartContract()": "4510fb59",
          "setAddressSupplier(address)": "cdad7205",
          "setInformation(string[],bytes[])": "81bcf830",
          "setPrivateKey(string)": "e0d4f017",
          "setStages((uint256,uint256,string)[])": "d88eab63",
          "setTotal(uint256)": "1f8d1d50",
          "setUsers(address[])": "aa4a7080",
          "withDrawByCurrency(address,uint256)": "904e3cff",
          "withDrawByPercent(address,uint256)": "fbb05337"
        }
      }
    }
  }
}