{
  "contracts/SupplyChain.sol": {
    "SupplyChain": {
      "abi": [
        {
          "inputs": [
            {
              "internalType": "address[]",
              "name": "_user",
              "type": "address[]"
            },
            {
              "internalType": "address",
              "name": "_supplier",
              "type": "address"
            },
            {
              "internalType": "string[]",
              "name": "_keys",
              "type": "string[]"
            },
            {
              "internalType": "bytes[]",
              "name": "_values",
              "type": "bytes[]"
            },
            {
              "internalType": "uint256",
              "name": "_total",
              "type": "uint256"
            },
            {
              "components": [
                {
                  "internalType": "uint256",
                  "name": "percent",
                  "type": "uint256"
                },
                {
                  "internalType": "uint256",
                  "name": "deliveryAt",
                  "type": "uint256"
                },
                {
                  "internalType": "string",
                  "name": "description",
                  "type": "string"
                }
              ],
              "internalType": "struct SupplyChain.StageData[]",
              "name": "_stages",
              "type": "tuple[]"
            },
            {
              "internalType": "string",
              "name": "_privateKey",
              "type": "string"
            }
          ],
          "stateMutability": "nonpayable",
          "type": "constructor"
        },
        {
          "anonymous": false,
          "inputs": [
            {
              "indexed": false,
              "internalType": "uint256",
              "name": "percent",
              "type": "uint256"
            },
            {
              "indexed": false,
              "internalType": "bool",
              "name": "userConfirm",
              "type": "bool"
            },
            {
              "indexed": false,
              "internalType": "bool",
              "name": "supplierConfirm",
              "type": "bool"
            },
            {
              "indexed": false,
              "internalType": "bool",
              "name": "isDone",
              "type": "bool"
            },
            {
              "indexed": false,
              "internalType": "uint256",
              "name": "confirmedAt",
              "type": "uint256"
            }
          ],
          "name": "confirmedStage",
          "type": "event"
        },
        {
          "anonymous": false,
          "inputs": [
            {
              "indexed": false,
              "internalType": "address",
              "name": "owner",
              "type": "address"
            },
            {
              "indexed": false,
              "internalType": "address[]",
              "name": "user",
              "type": "address[]"
            },
            {
              "indexed": false,
              "internalType": "address",
              "name": "supplier",
              "type": "address"
            },
            {
              "indexed": false,
              "internalType": "uint256",
              "name": "totalBalance",
              "type": "uint256"
            },
            {
              "indexed": false,
              "internalType": "uint256",
              "name": "currentBalance",
              "type": "uint256"
            },
            {
              "indexed": false,
              "internalType": "uint256",
              "name": "deployAt",
              "type": "uint256"
            }
          ],
          "name": "contractCreated",
          "type": "event"
        },
        {
          "anonymous": false,
          "inputs": [
            {
              "indexed": false,
              "internalType": "address",
              "name": "sender",
              "type": "address"
            },
            {
              "indexed": false,
              "internalType": "uint256",
              "name": "amount",
              "type": "uint256"
            },
            {
              "indexed": false,
              "internalType": "uint256",
              "name": "totalBalance",
              "type": "uint256"
            },
            {
              "indexed": false,
              "internalType": "uint256",
              "name": "currentBalance",
              "type": "uint256"
            },
            {
              "indexed": false,
              "internalType": "uint256",
              "name": "receivedAt",
              "type": "uint256"
            }
          ],
          "name": "received",
          "type": "event"
        },
        {
          "anonymous": false,
          "inputs": [
            {
              "indexed": false,
              "internalType": "address",
              "name": "to",
              "type": "address"
            },
            {
              "indexed": false,
              "internalType": "uint256",
              "name": "amount",
              "type": "uint256"
            },
            {
              "indexed": false,
              "internalType": "uint256",
              "name": "totalBalance",
              "type": "uint256"
            },
            {
              "indexed": false,
              "internalType": "uint256",
              "name": "currentBalance",
              "type": "uint256"
            },
            {
              "indexed": false,
              "internalType": "uint256",
              "name": "widthdrewAt",
              "type": "uint256"
            }
          ],
          "name": "widthdrew",
          "type": "event"
        },
        {
          "inputs": [],
          "name": "confirmStage",
          "outputs": [],
          "stateMutability": "nonpayable",
          "type": "function"
        },
        {
          "inputs": [
            {
              "internalType": "address",
              "name": "_addressWallet",
              "type": "address"
            }
          ],
          "name": "getAssets",
          "outputs": [
            {
              "internalType": "uint256",
              "name": "",
              "type": "uint256"
            }
          ],
          "stateMutability": "view",
          "type": "function"
        },
        {
          "inputs": [],
          "name": "getBalance",
          "outputs": [
            {
              "internalType": "uint256",
              "name": "",
              "type": "uint256"
            }
          ],
          "stateMutability": "view",
          "type": "function"
        },
        {
          "inputs": [
            {
              "internalType": "string",
              "name": "_privateKey",
              "type": "string"
            }
          ],
          "name": "getContractInformation",
          "outputs": [
            {
              "internalType": "string[]",
              "name": "",
              "type": "string[]"
            }
          ],
          "stateMutability": "view",
          "type": "function"
        },
        {
          "inputs": [],
          "name": "getCurrentStage",
          "outputs": [
            {
              "components": [
                {
                  "internalType": "uint256",
                  "name": "percent",
                  "type": "uint256"
                },
                {
                  "internalType": "uint256",
                  "name": "deliveryAt",
                  "type": "uint256"
                },
                {
                  "internalType": "string",
                  "name": "description",
                  "type": "string"
                },
                {
                  "internalType": "bool",
                  "name": "userConfirm",
                  "type": "bool"
                },
                {
                  "internalType": "bool",
                  "name": "supplierConfirm",
                  "type": "bool"
                },
                {
                  "internalType": "bool",
                  "name": "isDone",
                  "type": "bool"
                },
                {
                  "internalType": "bool",
                  "name": "isWithdraw",
                  "type": "bool"
                }
              ],
              "internalType": "struct SupplyChain.Stage",
              "name": "",
              "type": "tuple"
            }
          ],
          "stateMutability": "view",
          "type": "function"
        },
        {
          "inputs": [],
          "name": "getNonWithdrawalStage",
          "outputs": [
            {
              "components": [
                {
                  "internalType": "uint256",
                  "name": "percent",
                  "type": "uint256"
                },
                {
                  "internalType": "uint256",
                  "name": "deliveryAt",
                  "type": "uint256"
                },
                {
                  "internalType": "string",
                  "name": "description",
                  "type": "string"
                },
                {
                  "internalType": "bool",
                  "name": "userConfirm",
                  "type": "bool"
                },
                {
                  "internalType": "bool",
                  "name": "supplierConfirm",
                  "type": "bool"
                },
                {
                  "internalType": "bool",
                  "name": "isDone",
                  "type": "bool"
                },
                {
                  "internalType": "bool",
                  "name": "isWithdraw",
                  "type": "bool"
                }
              ],
              "internalType": "struct SupplyChain.Stage",
              "name": "",
              "type": "tuple"
            }
          ],
          "stateMutability": "view",
          "type": "function"
        },
        {
          "inputs": [],
          "name": "getOwnerAddressWallet",
          "outputs": [
            {
              "internalType": "address",
              "name": "",
              "type": "address"
            }
          ],
          "stateMutability": "view",
          "type": "function"
        },
        {
          "inputs": [
            {
              "internalType": "address",
              "name": "_addressWallet",
              "type": "address"
            }
          ],
          "name": "getSignature",
          "outputs": [
            {
              "internalType": "string",
              "name": "",
              "type": "string"
            }
          ],
          "stateMutability": "view",
          "type": "function"
        },
        {
          "inputs": [],
          "name": "getStages",
          "outputs": [
            {
              "components": [
                {
                  "internalType": "uint256",
                  "name": "percent",
                  "type": "uint256"
                },
                {
                  "internalType": "uint256",
                  "name": "deliveryAt",
                  "type": "uint256"
                },
                {
                  "internalType": "string",
                  "name": "description",
                  "type": "string"
                },
                {
                  "internalType": "bool",
                  "name": "userConfirm",
                  "type": "bool"
                },
                {
                  "internalType": "bool",
                  "name": "supplierConfirm",
                  "type": "bool"
                },
                {
                  "internalType": "bool",
                  "name": "isDone",
                  "type": "bool"
                },
                {
                  "internalType": "bool",
                  "name": "isWithdraw",
                  "type": "bool"
                }
              ],
              "internalType": "struct SupplyChain.Stage[]",
              "name": "",
              "type": "tuple[]"
            }
          ],
          "stateMutability": "view",
          "type": "function"
        },
        {
          "inputs": [],
          "name": "getSupplierAddressWallet",
          "outputs": [
            {
              "internalType": "address",
              "name": "",
              "type": "address"
            }
          ],
          "stateMutability": "view",
          "type": "function"
        },
        {
          "inputs": [],
          "name": "getTotalBalance",
          "outputs": [
            {
              "internalType": "uint256",
              "name": "",
              "type": "uint256"
            }
          ],
          "stateMutability": "view",
          "type": "function"
        },
        {
          "inputs": [],
          "name": "getUserAddressWallet",
          "outputs": [
            {
              "internalType": "address[]",
              "name": "",
              "type": "address[]"
            }
          ],
          "stateMutability": "view",
          "type": "function"
        },
        {
          "inputs": [],
          "name": "sendToSmartContract",
          "outputs": [],
          "stateMutability": "payable",
          "type": "function"
        },
        {
          "inputs": [
            {
              "internalType": "address",
              "name": "_supplier",
              "type": "address"
            }
          ],
          "name": "setAddressSupplier",
          "outputs": [],
          "stateMutability": "nonpayable",
          "type": "function"
        },
        {
          "inputs": [
            {
              "internalType": "string[]",
              "name": "_keys",
              "type": "string[]"
            },
            {
              "internalType": "bytes[]",
              "name": "_values",
              "type": "bytes[]"
            }
          ],
          "name": "setInformation",
          "outputs": [],
          "stateMutability": "nonpayable",
          "type": "function"
        },
        {
          "inputs": [
            {
              "internalType": "string",
              "name": "_privateKey",
              "type": "string"
            }
          ],
          "name": "setPrivateKey",
          "outputs": [],
          "stateMutability": "nonpayable",
          "type": "function"
        },
        {
          "inputs": [
            {
              "components": [
                {
                  "internalType": "uint256",
                  "name": "percent",
                  "type": "uint256"
                },
                {
                  "internalType": "uint256",
                  "name": "deliveryAt",
                  "type": "uint256"
                },
                {
                  "internalType": "string",
                  "name": "description",
                  "type": "string"
                }
              ],
              "internalType": "struct SupplyChain.StageData[]",
              "name": "_stages",
              "type": "tuple[]"
            }
          ],
          "name": "setStages",
          "outputs": [],
          "stateMutability": "nonpayable",
          "type": "function"
        },
        {
          "inputs": [
            {
              "internalType": "enum SupplyChain.Status",
              "name": "_status",
              "type": "uint8"
            }
          ],
          "name": "setStatus",
          "outputs": [],
          "stateMutability": "nonpayable",
          "type": "function"
        },
        {
          "inputs": [
            {
              "internalType": "uint256",
              "name": "_total",
              "type": "uint256"
            }
          ],
          "name": "setTotal",
          "outputs": [],
          "stateMutability": "nonpayable",
          "type": "function"
        },
        {
          "inputs": [
            {
              "internalType": "address[]",
              "name": "_users",
              "type": "address[]"
            }
          ],
          "name": "setUsers",
          "outputs": [],
          "stateMutability": "nonpayable",
          "type": "function"
        },
        {
          "inputs": [
            {
              "internalType": "string",
              "name": "_signature",
              "type": "string"
            }
          ],
          "name": "sign",
          "outputs": [],
          "stateMutability": "nonpayable",
          "type": "function"
        },
        {
          "inputs": [
            {
              "internalType": "address payable",
              "name": "_addressWallet",
              "type": "address"
            },
            {
              "internalType": "uint256",
              "name": "_amount",
              "type": "uint256"
            }
          ],
          "name": "withDrawByCurrency",
          "outputs": [],
          "stateMutability": "payable",
          "type": "function"
        },
        {
          "inputs": [
            {
              "internalType": "address payable",
              "name": "_addressWallet",
              "type": "address"
            },
            {
              "internalType": "uint256",
              "name": "_percent",
              "type": "uint256"
            }
          ],
          "name": "withDrawByPercent",
          "outputs": [],
          "stateMutability": "payable",
          "type": "function"
        }
      ],
      "evm": {
        "bytecode": {
          "linkReferences": {},
          "object": "60806040523480156200001157600080fd5b50604051620059b4380380620059b4833981810160405281019062000037919062000d86565b6000600860006101000a81548160ff021916908360ff160217905550806009908162000064919062001115565b506000600860016101000a81548160ff021916908360028111156200008e576200008d620011fc565b5b0217905550670de0b6b3a764000083620000a991906200125a565b60068190555085600360006101000a81548173ffffffffffffffffffffffffffffffffffffffff021916908373ffffffffffffffffffffffffffffffffffffffff160217905550336000806101000a81548173ffffffffffffffffffffffffffffffffffffffff021916908373ffffffffffffffffffffffffffffffffffffffff16021790555060005b87518160ff1610156200023e576001888260ff16815181106200015b576200015a620012a5565b5b60200260200101519080600181540180825580915050600190039060005260206000200160009091909190916101000a81548173ffffffffffffffffffffffffffffffffffffffff021916908373ffffffffffffffffffffffffffffffffffffffff1602179055506000600260008a8460ff1681518110620001e257620001e1620012a5565b5b602002602001015173ffffffffffffffffffffffffffffffffffffffff1673ffffffffffffffffffffffffffffffffffffffff1681526020019081526020016000208190555080806200023590620012e1565b91505062000133565b5060005b85518160ff1610156200032c57848160ff1681518110620002685762000267620012a5565b5b60200260200101516004878360ff16815181106200028b576200028a620012a5565b5b6020026020010151604051620002a2919062001351565b90815260200160405180910390209081620002be9190620013da565b506005868260ff1681518110620002da57620002d9620012a5565b5b602002602001015190806001815401808255809150506001900390600052602060002001600090919091909150908162000315919062001115565b5080806200032390620012e1565b91505062000242565b5060005b82518160ff161015620004d75760076040518060e00160405280858460ff1681518110620003635762000362620012a5565b5b6020026020010151600001518152602001858460ff16815181106200038d576200038c620012a5565b5b6020026020010151602001518152602001858460ff1681518110620003b757620003b6620012a5565b5b6020026020010151604001518152602001600015158152602001600015158152602001600015158152602001600015158152509080600181540180825580915050600190039060005260206000209060040201600090919091909150600082015181600001556020820151816001015560408201518160020190816200043e919062001115565b5060608201518160030160006101000a81548160ff02191690831515021790555060808201518160030160016101000a81548160ff02191690831515021790555060a08201518160030160026101000a81548160ff02191690831515021790555060c08201518160030160036101000a81548160ff02191690831515021790555050508080620004ce90620012e1565b91505062000330565b5060405180602001604052806000815250600a600089600081518110620005035762000502620012a5565b5b602002602001015173ffffffffffffffffffffffffffffffffffffffff1673ffffffffffffffffffffffffffffffffffffffff168152602001908152602001600020908162000553919062001115565b5060405180602001604052806000815250600a60008873ffffffffffffffffffffffffffffffffffffffff1673ffffffffffffffffffffffffffffffffffffffff1681526020019081526020016000209081620005b1919062001115565b507f68e8e16725ae304c7b00b773ba80b94a2ea18bebc9d7cc7ade4f8c4980649ae160008054906101000a900473ffffffffffffffffffffffffffffffffffffffff166001600360009054906101000a900473ffffffffffffffffffffffffffffffffffffffff16600654474260405162000632969594939291906200161f565b60405180910390a15050505050505062001693565b6000604051905090565b600080fd5b600080fd5b600080fd5b6000601f19601f8301169050919050565b7f4e487b7100000000000000000000000000000000000000000000000000000000600052604160045260246000fd5b620006ab8262000660565b810181811067ffffffffffffffff82111715620006cd57620006cc62000671565b5b80604052505050565b6000620006e262000647565b9050620006f08282620006a0565b919050565b600067ffffffffffffffff82111562000713576200071262000671565b5b602082029050602081019050919050565b600080fd5b600073ffffffffffffffffffffffffffffffffffffffff82169050919050565b6000620007568262000729565b9050919050565b620007688162000749565b81146200077457600080fd5b50565b60008151905062000788816200075d565b92915050565b6000620007a56200079f84620006f5565b620006d6565b90508083825260208201905060208402830185811115620007cb57620007ca62000724565b5b835b81811015620007f85780620007e3888262000777565b845260208401935050602081019050620007cd565b5050509392505050565b600082601f8301126200081a57620008196200065b565b5b81516200082c8482602086016200078e565b91505092915050565b600067ffffffffffffffff82111562000853576200085262000671565b5b602082029050602081019050919050565b600080fd5b600067ffffffffffffffff82111562000887576200088662000671565b5b620008928262000660565b9050602081019050919050565b60005b83811015620008bf578082015181840152602081019050620008a2565b60008484015250505050565b6000620008e2620008dc8462000869565b620006d6565b90508281526020810184848401111562000901576200090062000864565b5b6200090e8482856200089f565b509392505050565b600082601f8301126200092e576200092d6200065b565b5b815162000940848260208601620008cb565b91505092915050565b6000620009606200095a8462000835565b620006d6565b9050808382526020820190506020840283018581111562000986576200098562000724565b5b835b81811015620009d457805167ffffffffffffffff811115620009af57620009ae6200065b565b5b808601620009be898262000916565b8552602085019450505060208101905062000988565b5050509392505050565b600082601f830112620009f657620009f56200065b565b5b815162000a0884826020860162000949565b91505092915050565b600067ffffffffffffffff82111562000a2f5762000a2e62000671565b5b602082029050602081019050919050565b600067ffffffffffffffff82111562000a5e5762000a5d62000671565b5b62000a698262000660565b9050602081019050919050565b600062000a8d62000a878462000a40565b620006d6565b90508281526020810184848401111562000aac5762000aab62000864565b5b62000ab98482856200089f565b509392505050565b600082601f83011262000ad95762000ad86200065b565b5b815162000aeb84826020860162000a76565b91505092915050565b600062000b0b62000b058462000a11565b620006d6565b9050808382526020820190506020840283018581111562000b315762000b3062000724565b5b835b8181101562000b7f57805167ffffffffffffffff81111562000b5a5762000b596200065b565b5b80860162000b69898262000ac1565b8552602085019450505060208101905062000b33565b5050509392505050565b600082601f83011262000ba15762000ba06200065b565b5b815162000bb384826020860162000af4565b91505092915050565b6000819050919050565b62000bd18162000bbc565b811462000bdd57600080fd5b50565b60008151905062000bf18162000bc6565b92915050565b600067ffffffffffffffff82111562000c155762000c1462000671565b5b602082029050602081019050919050565b600080fd5b600080fd5b60006060828403121562000c495762000c4862000c26565b5b62000c556060620006d6565b9050600062000c678482850162000be0565b600083015250602062000c7d8482850162000be0565b602083015250604082015167ffffffffffffffff81111562000ca45762000ca362000c2b565b5b62000cb28482850162000916565b60408301525092915050565b600062000cd562000ccf8462000bf7565b620006d6565b9050808382526020820190506020840283018581111562000cfb5762000cfa62000724565b5b835b8181101562000d4957805167ffffffffffffffff81111562000d245762000d236200065b565b5b80860162000d33898262000c30565b8552602085019450505060208101905062000cfd565b5050509392505050565b600082601f83011262000d6b5762000d6a6200065b565b5b815162000d7d84826020860162000cbe565b91505092915050565b600080600080600080600060e0888a03121562000da85762000da762000651565b5b600088015167ffffffffffffffff81111562000dc95762000dc862000656565b5b62000dd78a828b0162000802565b975050602062000dea8a828b0162000777565b965050604088015167ffffffffffffffff81111562000e0e5762000e0d62000656565b5b62000e1c8a828b01620009de565b955050606088015167ffffffffffffffff81111562000e405762000e3f62000656565b5b62000e4e8a828b0162000b89565b945050608062000e618a828b0162000be0565b93505060a088015167ffffffffffffffff81111562000e855762000e8462000656565b5b62000e938a828b0162000d53565b92505060c088015167ffffffffffffffff81111562000eb75762000eb662000656565b5b62000ec58a828b0162000916565b91505092959891949750929550565b600081519050919050565b7f4e487b7100000000000000000000000000000000000000000000000000000000600052602260045260246000fd5b6000600282049050600182168062000f2757607f821691505b60208210810362000f3d5762000f3c62000edf565b5b50919050565b60008190508160005260206000209050919050565b60006020601f8301049050919050565b600082821b905092915050565b60006008830262000fa77fffffffffffffffffffffffffffffffffffffffffffffffffffffffffffffffff8262000f68565b62000fb3868362000f68565b95508019841693508086168417925050509392505050565b6000819050919050565b600062000ff662000ff062000fea8462000bbc565b62000fcb565b62000bbc565b9050919050565b6000819050919050565b620010128362000fd5565b6200102a620010218262000ffd565b84845462000f75565b825550505050565b600090565b6200104162001032565b6200104e81848462001007565b505050565b5b8181101562001076576200106a60008262001037565b60018101905062001054565b5050565b601f821115620010c5576200108f8162000f43565b6200109a8462000f58565b81016020851015620010aa578190505b620010c2620010b98562000f58565b83018262001053565b50505b505050565b600082821c905092915050565b6000620010ea60001984600802620010ca565b1980831691505092915050565b6000620011058383620010d7565b9150826002028217905092915050565b620011208262000ed4565b67ffffffffffffffff8111156200113c576200113b62000671565b5b62001148825462000f0e565b620011558282856200107a565b600060209050601f8311600181146200118d576000841562001178578287015190505b620011848582620010f7565b865550620011f4565b601f1984166200119d8662000f43565b60005b82811015620011c757848901518255600182019150602085019450602081019050620011a0565b86831015620011e75784890151620011e3601f891682620010d7565b8355505b6001600288020188555050505b505050505050565b7f4e487b7100000000000000000000000000000000000000000000000000000000600052602160045260246000fd5b7f4e487b7100000000000000000000000000000000000000000000000000000000600052601160045260246000fd5b6000620012678262000bbc565b9150620012748362000bbc565b9250828202620012848162000bbc565b915082820484148315176200129e576200129d6200122b565b5b5092915050565b7f4e487b7100000000000000000000000000000000000000000000000000000000600052603260045260246000fd5b600060ff82169050919050565b6000620012ee82620012d4565b915060ff82036200130457620013036200122b565b5b600182019050919050565b600081905092915050565b6000620013278262000ed4565b6200133381856200130f565b9350620013458185602086016200089f565b80840191505092915050565b60006200135f82846200131a565b915081905092915050565b600081519050919050565b60008190508160005260206000209050919050565b601f821115620013d5576200139f8162001375565b620013aa8462000f58565b81016020851015620013ba578190505b620013d2620013c98562000f58565b83018262001053565b50505b505050565b620013e5826200136a565b67ffffffffffffffff81111562001401576200140062000671565b5b6200140d825462000f0e565b6200141a8282856200138a565b600060209050601f8311600181146200145257600084156200143d578287015190505b620014498582620010f7565b865550620014b9565b601f198416620014628662001375565b60005b828110156200148c5784890151825560018201915060208501945060208101905062001465565b86831015620014ac5784890151620014a8601f891682620010d7565b8355505b6001600288020188555050505b505050505050565b620014cc8162000749565b82525050565b600081549050919050565b600082825260208201905092915050565b60008190508160005260206000209050919050565b6200150e8162000749565b82525050565b600062001522838362001503565b60208301905092915050565b60008160001c9050919050565b600073ffffffffffffffffffffffffffffffffffffffff82169050919050565b6000620015726200156c836200152e565b6200153b565b9050919050565b60006200158782546200155b565b9050919050565b6000600182019050919050565b6000620015a882620014d2565b620015b48185620014dd565b9350620015c183620014ee565b8060005b838110156200160157620015d98262001579565b620015e5888262001514565b9750620015f2836200158e565b925050600181019050620015c5565b5085935050505092915050565b620016198162000bbc565b82525050565b600060c082019050620016366000830189620014c1565b81810360208301526200164a81886200159b565b90506200165b6040830187620014c1565b6200166a60608301866200160e565b6200167960808301856200160e565b6200168860a08301846200160e565b979650505050505050565b61431180620016a36000396000f3fe6080604052600436106101405760003560e01c806379655bd0116100b6578063aa4a70801161006f578063aa4a70801461040a578063cdad720514610433578063d88eab631461045c578063e0d4f01714610485578063eedbe31d146104ae578063fbb05337146104d957610140565b806379655bd01461030957806379d6348d1461033457806381bcf8301461035d578063904e3cff146103865780639c01b52f146103a2578063a4477713146103cd57610140565b80632e49d78b116101085780632e49d78b1461022c5780633f44327a146102555780634510fb59146102805780634bbe765a1461028a57806353c659bb146102a1578063742978da146102cc57610140565b806312065fe01461014557806312b583491461017057806314a24bcf1461019b5780631f8d1d50146101c6578063277fc0e9146101ef575b600080fd5b34801561015157600080fd5b5061015a6104f5565b60405161016791906128b4565b60405180910390f35b34801561017c57600080fd5b506101856104fd565b60405161019291906128b4565b60405180910390f35b3480156101a757600080fd5b506101b0610507565b6040516101bd9190612910565b60405180910390f35b3480156101d257600080fd5b506101ed60048036038101906101e8919061296b565b610531565b005b3480156101fb57600080fd5b50610216600480360381019061021191906129c4565b61067b565b6040516102239190612a81565b60405180910390f35b34801561023857600080fd5b50610253600480360381019061024e9190612ac8565b61074c565b005b34801561026157600080fd5b5061026a610861565b6040516102779190612bb3565b60405180910390f35b6102886108ef565b005b34801561029657600080fd5b5061029f610a70565b005b3480156102ad57600080fd5b506102b6610df9565b6040516102c39190612ce5565b60405180910390f35b3480156102d857600080fd5b506102f360048036038101906102ee91906129c4565b610ffa565b60405161030091906128b4565b60405180910390f35b34801561031557600080fd5b5061031e61112b565b60405161032b9190612e65565b60405180910390f35b34801561034057600080fd5b5061035b60048036038101906103569190612fbc565b61129c565b005b34801561036957600080fd5b50610384600480360381019061037f919061326d565b61142c565b005b6103a0600480360381019061039b9190613323565b61164b565b005b3480156103ae57600080fd5b506103b7611ac2565b6040516103c49190612910565b60405180910390f35b3480156103d957600080fd5b506103f460048036038101906103ef9190612fbc565b611aeb565b6040516104019190613425565b60405180910390f35b34801561041657600080fd5b50610431600480360381019061042c919061350a565b611ce4565b005b34801561043f57600080fd5b5061045a600480360381019061045591906129c4565b611ed4565b005b34801561046857600080fd5b50610483600480360381019061047e91906136be565b611faa565b005b34801561049157600080fd5b506104ac60048036038101906104a79190612fbc565b612231565b005b3480156104ba57600080fd5b506104c361232c565b6040516104d09190612ce5565b60405180910390f35b6104f360048036038101906104ee9190613323565b61248a565b005b600047905090565b6000600654905090565b6000600360009054906101000a900473ffffffffffffffffffffffffffffffffffffffff16905090565b336000805b6001805490508160ff1610156105d65760018160ff168154811061055d5761055c613707565b5b9060005260206000200160009054906101000a900473ffffffffffffffffffffffffffffffffffffffff1673ffffffffffffffffffffffffffffffffffffffff168373ffffffffffffffffffffffffffffffffffffffff16036105c357600191506105d6565b80806105ce90613772565b915050610536565b5080806106305750600360009054906101000a900473ffffffffffffffffffffffffffffffffffffffff1673ffffffffffffffffffffffffffffffffffffffff168273ffffffffffffffffffffffffffffffffffffffff16145b61066f576040517f08c379a00000000000000000000000000000000000000000000000000000000081526004016106669061380d565b60405180910390fd5b82600681905550505050565b6060600a60008373ffffffffffffffffffffffffffffffffffffffff1673ffffffffffffffffffffffffffffffffffffffff16815260200190815260200160002080546106c79061385c565b80601f01602080910402602001604051908101604052809291908181526020018280546106f39061385c565b80156107405780601f1061071557610100808354040283529160200191610740565b820191906000526020600020905b81548152906001019060200180831161072357829003601f168201915b50505050509050919050565b336000805b6001805490508160ff1610156107f15760018160ff168154811061077857610777613707565b5b9060005260206000200160009054906101000a900473ffffffffffffffffffffffffffffffffffffffff1673ffffffffffffffffffffffffffffffffffffffff168373ffffffffffffffffffffffffffffffffffffffff16036107de57600191506107f1565b80806107e990613772565b915050610751565b5080610832576040517f08c379a0000000000000000000000000000000000000000000000000000000008152600401610829906138ff565b60405180910390fd5b82600860016101000a81548160ff021916908360028111156108575761085661391f565b5b0217905550505050565b606060018054806020026020016040519081016040528092919081815260200182805480156108e557602002820191906000526020600020905b8160009054906101000a900473ffffffffffffffffffffffffffffffffffffffff1673ffffffffffffffffffffffffffffffffffffffff168152602001906001019080831161089b575b5050505050905090565b336000805b6001805490508160ff1610156109945760018160ff168154811061091b5761091a613707565b5b9060005260206000200160009054906101000a900473ffffffffffffffffffffffffffffffffffffffff1673ffffffffffffffffffffffffffffffffffffffff168373ffffffffffffffffffffffffffffffffffffffff16036109815760019150610994565b808061098c90613772565b9150506108f4565b50806109d5576040517f08c379a00000000000000000000000000000000000000000000000000000000081526004016109cc906138ff565b60405180910390fd5b34600260003373ffffffffffffffffffffffffffffffffffffffff1673ffffffffffffffffffffffffffffffffffffffff1681526020019081526020016000206000828254610a24919061394e565b925050819055507fe4f13824473bb5d7c83a33648a5b781337db89c57cdfdb2caf2c87a9ca0391f633346006544742604051610a64959493929190613982565b60405180910390a15050565b336000805b6001805490508160ff161015610b155760018160ff1681548110610a9c57610a9b613707565b5b9060005260206000200160009054906101000a900473ffffffffffffffffffffffffffffffffffffffff1673ffffffffffffffffffffffffffffffffffffffff168373ffffffffffffffffffffffffffffffffffffffff1603610b025760019150610b15565b8080610b0d90613772565b915050610a75565b508080610b6f5750600360009054906101000a900473ffffffffffffffffffffffffffffffffffffffff1673ffffffffffffffffffffffffffffffffffffffff168273ffffffffffffffffffffffffffffffffffffffff16145b610bae576040517f08c379a0000000000000000000000000000000000000000000000000000000008152600401610ba59061380d565b60405180910390fd5b600360009054906101000a900473ffffffffffffffffffffffffffffffffffffffff1673ffffffffffffffffffffffffffffffffffffffff163373ffffffffffffffffffffffffffffffffffffffff1603610c585760016007600860009054906101000a900460ff1660ff1681548110610c2b57610c2a613707565b5b906000526020600020906004020160030160016101000a81548160ff021916908315150217905550610ca9565b60016007600860009054906101000a900460ff1660ff1681548110610c8057610c7f613707565b5b906000526020600020906004020160030160006101000a81548160ff0219169083151502179055505b6007600860009054906101000a900460ff1660ff1681548110610ccf57610cce613707565b5b906000526020600020906004020160030160019054906101000a900460ff168015610d3b57506007600860009054906101000a900460ff1660ff1681548110610d1b57610d1a613707565b5b906000526020600020906004020160030160009054906101000a900460ff165b15610df55760016007600860009054906101000a900460ff1660ff1681548110610d6857610d67613707565b5b906000526020600020906004020160030160026101000a81548160ff0219169083151502179055506007805490506001600860009054906101000a900460ff16610db291906139d5565b60ff161015610df4576008600081819054906101000a900460ff1680929190610dda90613772565b91906101000a81548160ff021916908360ff160217905550505b5b5050565b610e01612856565b60005b600780549050811015610fa35760078181548110610e2557610e24613707565b5b906000526020600020906004020160030160039054906101000a900460ff1615610f905760078181548110610e5d57610e5c613707565b5b90600052602060002090600402016040518060e00160405290816000820154815260200160018201548152602001600282018054610e9a9061385c565b80601f0160208091040260200160405190810160405280929190818152602001828054610ec69061385c565b8015610f135780601f10610ee857610100808354040283529160200191610f13565b820191906000526020600020905b815481529060010190602001808311610ef657829003601f168201915b505050505081526020016003820160009054906101000a900460ff161515151581526020016003820160019054906101000a900460ff161515151581526020016003820160029054906101000a900460ff161515151581526020016003820160039054906101000a900460ff161515151581525050915050610ff7565b8080610f9b90613a0a565b915050610e04565b506040518060e0016040528060008152602001600081526020016040518060200160405280600081525081526020016000151581526020016000151581526020016000151581526020016000151581525090505b90565b6000816000805b6001805490508160ff1610156110a15760018160ff168154811061102857611027613707565b5b9060005260206000200160009054906101000a900473ffffffffffffffffffffffffffffffffffffffff1673ffffffffffffffffffffffffffffffffffffffff168373ffffffffffffffffffffffffffffffffffffffff160361108e57600191506110a1565b808061109990613772565b915050611001565b50806110e2576040517f08c379a00000000000000000000000000000000000000000000000000000000081526004016110d9906138ff565b60405180910390fd5b600260008573ffffffffffffffffffffffffffffffffffffffff1673ffffffffffffffffffffffffffffffffffffffff1681526020019081526020016000205492505050919050565b60606007805480602002602001604051908101604052809291908181526020016000905b8282101561129357838290600052602060002090600402016040518060e001604052908160008201548152602001600182015481526020016002820180546111969061385c565b80601f01602080910402602001604051908101604052809291908181526020018280546111c29061385c565b801561120f5780601f106111e45761010080835404028352916020019161120f565b820191906000526020600020905b8154815290600101906020018083116111f257829003601f168201915b505050505081526020016003820160009054906101000a900460ff161515151581526020016003820160019054906101000a900460ff161515151581526020016003820160029054906101000a900460ff161515151581526020016003820160039054906101000a900460ff1615151515815250508152602001906001019061114f565b50505050905090565b336000805b6001805490508160ff1610156113415760018160ff16815481106112c8576112c7613707565b5b9060005260206000200160009054906101000a900473ffffffffffffffffffffffffffffffffffffffff1673ffffffffffffffffffffffffffffffffffffffff168373ffffffffffffffffffffffffffffffffffffffff160361132e5760019150611341565b808061133990613772565b9150506112a1565b50808061139b5750600360009054906101000a900473ffffffffffffffffffffffffffffffffffffffff1673ffffffffffffffffffffffffffffffffffffffff168273ffffffffffffffffffffffffffffffffffffffff16145b6113da576040517f08c379a00000000000000000000000000000000000000000000000000000000081526004016113d19061380d565b60405180910390fd5b82600a60003373ffffffffffffffffffffffffffffffffffffffff1673ffffffffffffffffffffffffffffffffffffffff16815260200190815260200160002090816114269190613bfe565b50505050565b336000805b6001805490508160ff1610156114d15760018160ff168154811061145857611457613707565b5b9060005260206000200160009054906101000a900473ffffffffffffffffffffffffffffffffffffffff1673ffffffffffffffffffffffffffffffffffffffff168373ffffffffffffffffffffffffffffffffffffffff16036114be57600191506114d1565b80806114c990613772565b915050611431565b50808061152b5750600360009054906101000a900473ffffffffffffffffffffffffffffffffffffffff1673ffffffffffffffffffffffffffffffffffffffff168273ffffffffffffffffffffffffffffffffffffffff16145b61156a576040517f08c379a00000000000000000000000000000000000000000000000000000000081526004016115619061380d565b60405180910390fd5b60005b84518160ff16101561164457838160ff168151811061158f5761158e613707565b5b60200260200101516004868360ff16815181106115af576115ae613707565b5b60200260200101516040516115c49190613d0c565b908152602001604051809103902090816115de9190613d89565b506005858260ff16815181106115f7576115f6613707565b5b60200260200101519080600181540180825580915050600190039060005260206000200160009091909190915090816116309190613bfe565b50808061163c90613772565b91505061156d565b5050505050565b336000805b6001805490508160ff1610156116f05760018160ff168154811061167757611676613707565b5b9060005260206000200160009054906101000a900473ffffffffffffffffffffffffffffffffffffffff1673ffffffffffffffffffffffffffffffffffffffff168373ffffffffffffffffffffffffffffffffffffffff16036116dd57600191506116f0565b80806116e890613772565b915050611650565b5080611731576040517f08c379a0000000000000000000000000000000000000000000000000000000008152600401611728906138ff565b60405180910390fd5b836000805b6001805490508160ff1610156117d65760018160ff168154811061175d5761175c613707565b5b9060005260206000200160009054906101000a900473ffffffffffffffffffffffffffffffffffffffff1673ffffffffffffffffffffffffffffffffffffffff168373ffffffffffffffffffffffffffffffffffffffff16036117c357600191506117d6565b80806117ce90613772565b915050611736565b5080806118305750600360009054906101000a900473ffffffffffffffffffffffffffffffffffffffff1673ffffffffffffffffffffffffffffffffffffffff168273ffffffffffffffffffffffffffffffffffffffff16145b61186f576040517f08c379a000000000000000000000000000000000000000000000000000000000815260040161186690613ecd565b60405180910390fd5b84804710156118b3576040517f08c379a00000000000000000000000000000000000000000000000000000000081526004016118aa90613f39565b60405180910390fd5b600360009054906101000a900473ffffffffffffffffffffffffffffffffffffffff1673ffffffffffffffffffffffffffffffffffffffff168773ffffffffffffffffffffffffffffffffffffffff16146119e15785600260008973ffffffffffffffffffffffffffffffffffffffff1673ffffffffffffffffffffffffffffffffffffffff16815260200190815260200160002054101561198a576040517f08c379a000000000000000000000000000000000000000000000000000000000815260040161198190613fa5565b60405180910390fd5b85600260008973ffffffffffffffffffffffffffffffffffffffff1673ffffffffffffffffffffffffffffffffffffffff16815260200190815260200160002060008282546119d99190613fc5565b925050819055505b8673ffffffffffffffffffffffffffffffffffffffff166108fc879081150290604051600060405180830381858888f19350505050158015611a27573d6000803e3d6000fd5b5060016007600860009054906101000a900460ff1660ff1681548110611a5057611a4f613707565b5b906000526020600020906004020160030160036101000a81548160ff0219169083151502179055507f132717cc7ce0e7288e4e1e75cd3527373df35d716a6d9d576199b1ee22b1592387876006544742604051611ab195949392919061404e565b60405180910390a150505050505050565b60008060009054906101000a900473ffffffffffffffffffffffffffffffffffffffff16905090565b6060816009604051602001611b009190614124565b6040516020818303038152906040528051906020012081604051602001611b279190613d0c565b6040516020818303038152906040528051906020012014611b7d576040517f08c379a0000000000000000000000000000000000000000000000000000000008152600401611b7490614187565b60405180910390fd5b600060058054905067ffffffffffffffff811115611b9e57611b9d612e91565b5b604051908082528060200260200182016040528015611bd157816020015b6060815260200190600190039081611bbc5790505b50905060005b600580549050811015611cd957600460058281548110611bfa57611bf9613707565b5b90600052602060002001604051611c119190614124565b90815260200160405180910390208054611c2a9061385c565b80601f0160208091040260200160405190810160405280929190818152602001828054611c569061385c565b8015611ca35780601f10611c7857610100808354040283529160200191611ca3565b820191906000526020600020905b815481529060010190602001808311611c8657829003601f168201915b5050505050828281518110611cbb57611cba613707565b5b60200260200101819052508080611cd190613a0a565b915050611bd7565b508092505050919050565b336000805b6001805490508160ff161015611d895760018160ff1681548110611d1057611d0f613707565b5b9060005260206000200160009054906101000a900473ffffffffffffffffffffffffffffffffffffffff1673ffffffffffffffffffffffffffffffffffffffff168373ffffffffffffffffffffffffffffffffffffffff1603611d765760019150611d89565b8080611d8190613772565b915050611ce9565b5080611dca576040517f08c379a0000000000000000000000000000000000000000000000000000000008152600401611dc1906138ff565b60405180910390fd5b60005b83518160ff161015611ece576001848260ff1681518110611df157611df0613707565b5b60200260200101519080600181540180825580915050600190039060005260206000200160009091909190916101000a81548173ffffffffffffffffffffffffffffffffffffffff021916908373ffffffffffffffffffffffffffffffffffffffff160217905550600060026000868460ff1681518110611e7557611e74613707565b5b602002602001015173ffffffffffffffffffffffffffffffffffffffff1673ffffffffffffffffffffffffffffffffffffffff168152602001908152602001600020819055508080611ec690613772565b915050611dcd565b50505050565b33600360009054906101000a900473ffffffffffffffffffffffffffffffffffffffff1673ffffffffffffffffffffffffffffffffffffffff168173ffffffffffffffffffffffffffffffffffffffff1614611f65576040517f08c379a0000000000000000000000000000000000000000000000000000000008152600401611f5c90614219565b60405180910390fd5b81600360006101000a81548173ffffffffffffffffffffffffffffffffffffffff021916908373ffffffffffffffffffffffffffffffffffffffff1602179055505050565b336000805b6001805490508160ff16101561204f5760018160ff1681548110611fd657611fd5613707565b5b9060005260206000200160009054906101000a900473ffffffffffffffffffffffffffffffffffffffff1673ffffffffffffffffffffffffffffffffffffffff168373ffffffffffffffffffffffffffffffffffffffff160361203c576001915061204f565b808061204790613772565b915050611faf565b5080612090576040517f08c379a0000000000000000000000000000000000000000000000000000000008152600401612087906138ff565b60405180910390fd5b60005b83518160ff16101561222b5760076040518060e00160405280868460ff16815181106120c2576120c1613707565b5b6020026020010151600001518152602001868460ff16815181106120e9576120e8613707565b5b6020026020010151602001518152602001868460ff16815181106121105761210f613707565b5b6020026020010151604001518152602001600015158152602001600015158152602001600015158152602001600015158152509080600181540180825580915050600190039060005260206000209060040201600090919091909150600082015181600001556020820151816001015560408201518160020190816121959190613bfe565b5060608201518160030160006101000a81548160ff02191690831515021790555060808201518160030160016101000a81548160ff02191690831515021790555060a08201518160030160026101000a81548160ff02191690831515021790555060c08201518160030160036101000a81548160ff0219169083151502179055505050808061222390613772565b915050612093565b50505050565b336000805b6001805490508160ff1610156122d65760018160ff168154811061225d5761225c613707565b5b9060005260206000200160009054906101000a900473ffffffffffffffffffffffffffffffffffffffff1673ffffffffffffffffffffffffffffffffffffffff168373ffffffffffffffffffffffffffffffffffffffff16036122c357600191506122d6565b80806122ce90613772565b915050612236565b5080612317576040517f08c379a000000000000000000000000000000000000000000000000000000000815260040161230e906138ff565b60405180910390fd5b82600990816123269190613bfe565b50505050565b612334612856565b6007600860009054906101000a900460ff1660ff168154811061235a57612359613707565b5b90600052602060002090600402016040518060e001604052908160008201548152602001600182015481526020016002820180546123979061385c565b80601f01602080910402602001604051908101604052809291908181526020018280546123c39061385c565b80156124105780601f106123e557610100808354040283529160200191612410565b820191906000526020600020905b8154815290600101906020018083116123f357829003601f168201915b505050505081526020016003820160009054906101000a900460ff161515151581526020016003820160019054906101000a900460ff161515151581526020016003820160029054906101000a900460ff161515151581526020016003820160039054906101000a900460ff161515151581525050905090565b816000805b6001805490508160ff16101561252f5760018160ff16815481106124b6576124b5613707565b5b9060005260206000200160009054906101000a900473ffffffffffffffffffffffffffffffffffffffff1673ffffffffffffffffffffffffffffffffffffffff168373ffffffffffffffffffffffffffffffffffffffff160361251c576001915061252f565b808061252790613772565b91505061248f565b5080806125895750600360009054906101000a900473ffffffffffffffffffffffffffffffffffffffff1673ffffffffffffffffffffffffffffffffffffffff168273ffffffffffffffffffffffffffffffffffffffff16145b6125c8576040517f08c379a00000000000000000000000000000000000000000000000000000000081526004016125bf90613ecd565b60405180910390fd5b6064836006546125d89190614239565b6125e291906142aa565b80471015612625576040517f08c379a000000000000000000000000000000000000000000000000000000000815260040161261c90613f39565b60405180910390fd5b60006064856006546126379190614239565b61264191906142aa565b9050600360009054906101000a900473ffffffffffffffffffffffffffffffffffffffff1673ffffffffffffffffffffffffffffffffffffffff168673ffffffffffffffffffffffffffffffffffffffff16146127755780600260008873ffffffffffffffffffffffffffffffffffffffff1673ffffffffffffffffffffffffffffffffffffffff16815260200190815260200160002054101561271a576040517f08c379a000000000000000000000000000000000000000000000000000000000815260040161271190613fa5565b60405180910390fd5b80600260008873ffffffffffffffffffffffffffffffffffffffff1673ffffffffffffffffffffffffffffffffffffffff16815260200190815260200160002060008282546127699190613fc5565b9250508190555061280d565b8573ffffffffffffffffffffffffffffffffffffffff166108fc829081150290604051600060405180830381858888f193505050501580156127bb573d6000803e3d6000fd5b5060016007600860009054906101000a900460ff1660ff16815481106127e4576127e3613707565b5b906000526020600020906004020160030160036101000a81548160ff0219169083151502179055505b7f132717cc7ce0e7288e4e1e75cd3527373df35d716a6d9d576199b1ee22b159238682600654474260405161284695949392919061404e565b60405180910390a1505050505050565b6040518060e001604052806000815260200160008152602001606081526020016000151581526020016000151581526020016000151581526020016000151581525090565b6000819050919050565b6128ae8161289b565b82525050565b60006020820190506128c960008301846128a5565b92915050565b600073ffffffffffffffffffffffffffffffffffffffff82169050919050565b60006128fa826128cf565b9050919050565b61290a816128ef565b82525050565b60006020820190506129256000830184612901565b92915050565b6000604051905090565b600080fd5b600080fd5b6129488161289b565b811461295357600080fd5b50565b6000813590506129658161293f565b92915050565b60006020828403121561298157612980612935565b5b600061298f84828501612956565b91505092915050565b6129a1816128ef565b81146129ac57600080fd5b50565b6000813590506129be81612998565b92915050565b6000602082840312156129da576129d9612935565b5b60006129e8848285016129af565b91505092915050565b600081519050919050565b600082825260208201905092915050565b60005b83811015612a2b578082015181840152602081019050612a10565b60008484015250505050565b6000601f19601f8301169050919050565b6000612a53826129f1565b612a5d81856129fc565b9350612a6d818560208601612a0d565b612a7681612a37565b840191505092915050565b60006020820190508181036000830152612a9b8184612a48565b905092915050565b60038110612ab057600080fd5b50565b600081359050612ac281612aa3565b92915050565b600060208284031215612ade57612add612935565b5b6000612aec84828501612ab3565b91505092915050565b600081519050919050565b600082825260208201905092915050565b6000819050602082019050919050565b612b2a816128ef565b82525050565b6000612b3c8383612b21565b60208301905092915050565b6000602082019050919050565b6000612b6082612af5565b612b6a8185612b00565b9350612b7583612b11565b8060005b83811015612ba6578151612b8d8882612b30565b9750612b9883612b48565b925050600181019050612b79565b5085935050505092915050565b60006020820190508181036000830152612bcd8184612b55565b905092915050565b612bde8161289b565b82525050565b600082825260208201905092915050565b6000612c00826129f1565b612c0a8185612be4565b9350612c1a818560208601612a0d565b612c2381612a37565b840191505092915050565b60008115159050919050565b612c4381612c2e565b82525050565b600060e083016000830151612c616000860182612bd5565b506020830151612c746020860182612bd5565b5060408301518482036040860152612c8c8282612bf5565b9150506060830151612ca16060860182612c3a565b506080830151612cb46080860182612c3a565b5060a0830151612cc760a0860182612c3a565b5060c0830151612cda60c0860182612c3a565b508091505092915050565b60006020820190508181036000830152612cff8184612c49565b905092915050565b600081519050919050565b600082825260208201905092915050565b6000819050602082019050919050565b600060e083016000830151612d4b6000860182612bd5565b506020830151612d5e6020860182612bd5565b5060408301518482036040860152612d768282612bf5565b9150506060830151612d8b6060860182612c3a565b506080830151612d9e6080860182612c3a565b5060a0830151612db160a0860182612c3a565b5060c0830151612dc460c0860182612c3a565b508091505092915050565b6000612ddb8383612d33565b905092915050565b6000602082019050919050565b6000612dfb82612d07565b612e058185612d12565b935083602082028501612e1785612d23565b8060005b85811015612e535784840389528151612e348582612dcf565b9450612e3f83612de3565b925060208a01995050600181019050612e1b565b50829750879550505050505092915050565b60006020820190508181036000830152612e7f8184612df0565b905092915050565b600080fd5b600080fd5b7f4e487b7100000000000000000000000000000000000000000000000000000000600052604160045260246000fd5b612ec982612a37565b810181811067ffffffffffffffff82111715612ee857612ee7612e91565b5b80604052505050565b6000612efb61292b565b9050612f078282612ec0565b919050565b600067ffffffffffffffff821115612f2757612f26612e91565b5b612f3082612a37565b9050602081019050919050565b82818337600083830152505050565b6000612f5f612f5a84612f0c565b612ef1565b905082815260208101848484011115612f7b57612f7a612e8c565b5b612f86848285612f3d565b509392505050565b600082601f830112612fa357612fa2612e87565b5b8135612fb3848260208601612f4c565b91505092915050565b600060208284031215612fd257612fd1612935565b5b600082013567ffffffffffffffff811115612ff057612fef61293a565b5b612ffc84828501612f8e565b91505092915050565b600067ffffffffffffffff8211156130205761301f612e91565b5b602082029050602081019050919050565b600080fd5b600061304961304484613005565b612ef1565b9050808382526020820190506020840283018581111561306c5761306b613031565b5b835b818110156130b357803567ffffffffffffffff81111561309157613090612e87565b5b80860161309e8982612f8e565b8552602085019450505060208101905061306e565b5050509392505050565b600082601f8301126130d2576130d1612e87565b5b81356130e2848260208601613036565b91505092915050565b600067ffffffffffffffff82111561310657613105612e91565b5b602082029050602081019050919050565b600067ffffffffffffffff82111561313257613131612e91565b5b61313b82612a37565b9050602081019050919050565b600061315b61315684613117565b612ef1565b90508281526020810184848401111561317757613176612e8c565b5b613182848285612f3d565b509392505050565b600082601f83011261319f5761319e612e87565b5b81356131af848260208601613148565b91505092915050565b60006131cb6131c6846130eb565b612ef1565b905080838252602082019050602084028301858111156131ee576131ed613031565b5b835b8181101561323557803567ffffffffffffffff81111561321357613212612e87565b5b808601613220898261318a565b855260208501945050506020810190506131f0565b5050509392505050565b600082601f83011261325457613253612e87565b5b81356132648482602086016131b8565b91505092915050565b6000806040838503121561328457613283612935565b5b600083013567ffffffffffffffff8111156132a2576132a161293a565b5b6132ae858286016130bd565b925050602083013567ffffffffffffffff8111156132cf576132ce61293a565b5b6132db8582860161323f565b9150509250929050565b60006132f0826128cf565b9050919050565b613300816132e5565b811461330b57600080fd5b50565b60008135905061331d816132f7565b92915050565b6000806040838503121561333a57613339612935565b5b60006133488582860161330e565b925050602061335985828601612956565b9150509250929050565b600081519050919050565b600082825260208201905092915050565b6000819050602082019050919050565b600061339b8383612bf5565b905092915050565b6000602082019050919050565b60006133bb82613363565b6133c5818561336e565b9350836020820285016133d78561337f565b8060005b8581101561341357848403895281516133f4858261338f565b94506133ff836133a3565b925060208a019950506001810190506133db565b50829750879550505050505092915050565b6000602082019050818103600083015261343f81846133b0565b905092915050565b600067ffffffffffffffff82111561346257613461612e91565b5b602082029050602081019050919050565b600061348661348184613447565b612ef1565b905080838252602082019050602084028301858111156134a9576134a8613031565b5b835b818110156134d257806134be88826129af565b8452602084019350506020810190506134ab565b5050509392505050565b600082601f8301126134f1576134f0612e87565b5b8135613501848260208601613473565b91505092915050565b6000602082840312156135205761351f612935565b5b600082013567ffffffffffffffff81111561353e5761353d61293a565b5b61354a848285016134dc565b91505092915050565b600067ffffffffffffffff82111561356e5761356d612e91565b5b602082029050602081019050919050565b600080fd5b600080fd5b60006060828403121561359f5761359e61357f565b5b6135a96060612ef1565b905060006135b984828501612956565b60008301525060206135cd84828501612956565b602083015250604082013567ffffffffffffffff8111156135f1576135f0613584565b5b6135fd84828501612f8e565b60408301525092915050565b600061361c61361784613553565b612ef1565b9050808382526020820190506020840283018581111561363f5761363e613031565b5b835b8181101561368657803567ffffffffffffffff81111561366457613663612e87565b5b8086016136718982613589565b85526020850194505050602081019050613641565b5050509392505050565b600082601f8301126136a5576136a4612e87565b5b81356136b5848260208601613609565b91505092915050565b6000602082840312156136d4576136d3612935565b5b600082013567ffffffffffffffff8111156136f2576136f161293a565b5b6136fe84828501613690565b91505092915050565b7f4e487b7100000000000000000000000000000000000000000000000000000000600052603260045260246000fd5b7f4e487b7100000000000000000000000000000000000000000000000000000000600052601160045260246000fd5b600060ff82169050919050565b600061377d82613765565b915060ff82036137905761378f613736565b5b600182019050919050565b7f4f6e6c79207061727469636970616e74206f7220737570706c6965722063616e60008201527f2063616c6c20746869732066756e6374696f6e00000000000000000000000000602082015250565b60006137f76033836129fc565b91506138028261379b565b604082019050919050565b60006020820190508181036000830152613826816137ea565b9050919050565b7f4e487b7100000000000000000000000000000000000000000000000000000000600052602260045260246000fd5b6000600282049050600182168061387457607f821691505b6020821081036138875761388661382d565b5b50919050565b7f4f6e6c79207061727469636970616e7420776974686f757420737570706c696560008201527f722063616e2063616c6c20746869732066756e6374696f6e0000000000000000602082015250565b60006138e96038836129fc565b91506138f48261388d565b604082019050919050565b60006020820190508181036000830152613918816138dc565b9050919050565b7f4e487b7100000000000000000000000000000000000000000000000000000000600052602160045260246000fd5b60006139598261289b565b91506139648361289b565b925082820190508082111561397c5761397b613736565b5b92915050565b600060a0820190506139976000830188612901565b6139a460208301876128a5565b6139b160408301866128a5565b6139be60608301856128a5565b6139cb60808301846128a5565b9695505050505050565b60006139e082613765565b91506139eb83613765565b9250828201905060ff811115613a0457613a03613736565b5b92915050565b6000613a158261289b565b91507fffffffffffffffffffffffffffffffffffffffffffffffffffffffffffffffff8203613a4757613a46613736565b5b600182019050919050565b60008190508160005260206000209050919050565b60006020601f8301049050919050565b600082821b905092915050565b600060088302613ab47fffffffffffffffffffffffffffffffffffffffffffffffffffffffffffffffff82613a77565b613abe8683613a77565b95508019841693508086168417925050509392505050565b6000819050919050565b6000613afb613af6613af18461289b565b613ad6565b61289b565b9050919050565b6000819050919050565b613b1583613ae0565b613b29613b2182613b02565b848454613a84565b825550505050565b600090565b613b3e613b31565b613b49818484613b0c565b505050565b5b81811015613b6d57613b62600082613b36565b600181019050613b4f565b5050565b601f821115613bb257613b8381613a52565b613b8c84613a67565b81016020851015613b9b578190505b613baf613ba785613a67565b830182613b4e565b50505b505050565b600082821c905092915050565b6000613bd560001984600802613bb7565b1980831691505092915050565b6000613bee8383613bc4565b9150826002028217905092915050565b613c07826129f1565b67ffffffffffffffff811115613c2057613c1f612e91565b5b613c2a825461385c565b613c35828285613b71565b600060209050601f831160018114613c685760008415613c56578287015190505b613c608582613be2565b865550613cc8565b601f198416613c7686613a52565b60005b82811015613c9e57848901518255600182019150602085019450602081019050613c79565b86831015613cbb5784890151613cb7601f891682613bc4565b8355505b6001600288020188555050505b505050505050565b600081905092915050565b6000613ce6826129f1565b613cf08185613cd0565b9350613d00818560208601612a0d565b80840191505092915050565b6000613d188284613cdb565b915081905092915050565b600081519050919050565b60008190508160005260206000209050919050565b601f821115613d8457613d5581613d2e565b613d5e84613a67565b81016020851015613d6d578190505b613d81613d7985613a67565b830182613b4e565b50505b505050565b613d9282613d23565b67ffffffffffffffff811115613dab57613daa612e91565b5b613db5825461385c565b613dc0828285613d43565b600060209050601f831160018114613df35760008415613de1578287015190505b613deb8582613be2565b865550613e53565b601f198416613e0186613d2e565b60005b82811015613e2957848901518255600182019150602085019450602081019050613e04565b86831015613e465784890151613e42601f891682613bc4565b8355505b6001600288020188555050505b505050505050565b7f4f6e6c79207061727469636970616e74206f7220737570706c6965722063616e60008201527f2072656365697665000000000000000000000000000000000000000000000000602082015250565b6000613eb76028836129fc565b9150613ec282613e5b565b604082019050919050565b60006020820190508181036000830152613ee681613eaa565b9050919050565b7f4e6f7420656e6f75676820657468657273000000000000000000000000000000600082015250565b6000613f236011836129fc565b9150613f2e82613eed565b602082019050919050565b60006020820190508181036000830152613f5281613f16565b9050919050565b7f4e6f7420656e6f75676820617373657473000000000000000000000000000000600082015250565b6000613f8f6011836129fc565b9150613f9a82613f59565b602082019050919050565b60006020820190508181036000830152613fbe81613f82565b9050919050565b6000613fd08261289b565b9150613fdb8361289b565b9250828203905081811115613ff357613ff2613736565b5b92915050565b600061401461400f61400a846128cf565b613ad6565b6128cf565b9050919050565b600061402682613ff9565b9050919050565b60006140388261401b565b9050919050565b6140488161402d565b82525050565b600060a082019050614063600083018861403f565b61407060208301876128a5565b61407d60408301866128a5565b61408a60608301856128a5565b61409760808301846128a5565b9695505050505050565b600081546140ae8161385c565b6140b88186613cd0565b945060018216600081146140d357600181146140e85761411b565b60ff198316865281151582028601935061411b565b6140f185613a52565b60005b83811015614113578154818901526001820191506020810190506140f4565b838801955050505b50505092915050565b600061413082846140a1565b915081905092915050565b7f50726976617465206b6579206973206e6f7420636f7272656374000000000000600082015250565b6000614171601a836129fc565b915061417c8261413b565b602082019050919050565b600060208201905081810360008301526141a081614164565b9050919050565b7f4f6e6c7920737570706c6965722063616e2063616c6c20746869732066756e6360008201527f74696f6e00000000000000000000000000000000000000000000000000000000602082015250565b60006142036024836129fc565b915061420e826141a7565b604082019050919050565b60006020820190508181036000830152614232816141f6565b9050919050565b60006142448261289b565b915061424f8361289b565b925082820261425d8161289b565b9150828204841483151761427457614273613736565b5b5092915050565b7f4e487b7100000000000000000000000000000000000000000000000000000000600052601260045260246000fd5b60006142b58261289b565b91506142c08361289b565b9250826142d0576142cf61427b565b5b82820490509291505056fea264697066735822122027b971924e9b562d25ed46a1215e7edcdd5b0aa118839c17f9da769b50ad3c8864736f6c63430008130033",
          "opcodes": "PUSH1 0x80 PUSH1 0x40 MSTORE CALLVALUE DUP1 ISZERO PUSH3 0x11 JUMPI PUSH1 0x0 DUP1 REVERT JUMPDEST POP PUSH1 0x40 MLOAD PUSH3 0x59B4 CODESIZE SUB DUP1 PUSH3 0x59B4 DUP4 CODECOPY DUP2 DUP2 ADD PUSH1 0x40 MSTORE DUP2 ADD SWAP1 PUSH3 0x37 SWAP2 SWAP1 PUSH3 0xD86 JUMP JUMPDEST PUSH1 0x0 PUSH1 0x8 PUSH1 0x0 PUSH2 0x100 EXP DUP2 SLOAD DUP2 PUSH1 0xFF MUL NOT AND SWAP1 DUP4 PUSH1 0xFF AND MUL OR SWAP1 SSTORE POP DUP1 PUSH1 0x9 SWAP1 DUP2 PUSH3 0x64 SWAP2 SWAP1 PUSH3 0x1115 JUMP JUMPDEST POP PUSH1 0x0 PUSH1 0x8 PUSH1 0x1 PUSH2 0x100 EXP DUP2 SLOAD DUP2 PUSH1 0xFF MUL NOT AND SWAP1 DUP4 PUSH1 0x2 DUP2 GT ISZERO PUSH3 0x8E JUMPI PUSH3 0x8D PUSH3 0x11FC JUMP JUMPDEST JUMPDEST MUL OR SWAP1 SSTORE POP PUSH8 0xDE0B6B3A7640000 DUP4 PUSH3 0xA9 SWAP2 SWAP1 PUSH3 0x125A JUMP JUMPDEST PUSH1 0x6 DUP2 SWAP1 SSTORE POP DUP6 PUSH1 0x3 PUSH1 0x0 PUSH2 0x100 EXP DUP2 SLOAD DUP2 PUSH20 0xFFFFFFFFFFFFFFFFFFFFFFFFFFFFFFFFFFFFFFFF MUL NOT AND SWAP1 DUP4 PUSH20 0xFFFFFFFFFFFFFFFFFFFFFFFFFFFFFFFFFFFFFFFF AND MUL OR SWAP1 SSTORE POP CALLER PUSH1 0x0 DUP1 PUSH2 0x100 EXP DUP2 SLOAD DUP2 PUSH20 0xFFFFFFFFFFFFFFFFFFFFFFFFFFFFFFFFFFFFFFFF MUL NOT AND SWAP1 DUP4 PUSH20 0xFFFFFFFFFFFFFFFFFFFFFFFFFFFFFFFFFFFFFFFF AND MUL OR SWAP1 SSTORE POP PUSH1 0x0 JUMPDEST DUP8 MLOAD DUP2 PUSH1 0xFF AND LT ISZERO PUSH3 0x23E JUMPI PUSH1 0x1 DUP9 DUP3 PUSH1 0xFF AND DUP2 MLOAD DUP2 LT PUSH3 0x15B JUMPI PUSH3 0x15A PUSH3 0x12A5 JUMP JUMPDEST JUMPDEST PUSH1 0x20 MUL PUSH1 0x20 ADD ADD MLOAD SWAP1 DUP1 PUSH1 0x1 DUP2 SLOAD ADD DUP1 DUP3 SSTORE DUP1 SWAP2 POP POP PUSH1 0x1 SWAP1 SUB SWAP1 PUSH1 0x0 MSTORE PUSH1 0x20 PUSH1 0x0 KECCAK256 ADD PUSH1 0x0 SWAP1 SWAP2 SWAP1 SWAP2 SWAP1 SWAP2 PUSH2 0x100 EXP DUP2 SLOAD DUP2 PUSH20 0xFFFFFFFFFFFFFFFFFFFFFFFFFFFFFFFFFFFFFFFF MUL NOT AND SWAP1 DUP4 PUSH20 0xFFFFFFFFFFFFFFFFFFFFFFFFFFFFFFFFFFFFFFFF AND MUL OR SWAP1 SSTORE POP PUSH1 0x0 PUSH1 0x2 PUSH1 0x0 DUP11 DUP5 PUSH1 0xFF AND DUP2 MLOAD DUP2 LT PUSH3 0x1E2 JUMPI PUSH3 0x1E1 PUSH3 0x12A5 JUMP JUMPDEST JUMPDEST PUSH1 0x20 MUL PUSH1 0x20 ADD ADD MLOAD PUSH20 0xFFFFFFFFFFFFFFFFFFFFFFFFFFFFFFFFFFFFFFFF AND PUSH20 0xFFFFFFFFFFFFFFFFFFFFFFFFFFFFFFFFFFFFFFFF AND DUP2 MSTORE PUSH1 0x20 ADD SWAP1 DUP2 MSTORE PUSH1 0x20 ADD PUSH1 0x0 KECCAK256 DUP2 SWAP1 SSTORE POP DUP1 DUP1 PUSH3 0x235 SWAP1 PUSH3 0x12E1 JUMP JUMPDEST SWAP2 POP POP PUSH3 0x133 JUMP JUMPDEST POP PUSH1 0x0 JUMPDEST DUP6 MLOAD DUP2 PUSH1 0xFF AND LT ISZERO PUSH3 0x32C JUMPI DUP5 DUP2 PUSH1 0xFF AND DUP2 MLOAD DUP2 LT PUSH3 0x268 JUMPI PUSH3 0x267 PUSH3 0x12A5 JUMP JUMPDEST JUMPDEST PUSH1 0x20 MUL PUSH1 0x20 ADD ADD MLOAD PUSH1 0x4 DUP8 DUP4 PUSH1 0xFF AND DUP2 MLOAD DUP2 LT PUSH3 0x28B JUMPI PUSH3 0x28A PUSH3 0x12A5 JUMP JUMPDEST JUMPDEST PUSH1 0x20 MUL PUSH1 0x20 ADD ADD MLOAD PUSH1 0x40 MLOAD PUSH3 0x2A2 SWAP2 SWAP1 PUSH3 0x1351 JUMP JUMPDEST SWAP1 DUP2 MSTORE PUSH1 0x20 ADD PUSH1 0x40 MLOAD DUP1 SWAP2 SUB SWAP1 KECCAK256 SWAP1 DUP2 PUSH3 0x2BE SWAP2 SWAP1 PUSH3 0x13DA JUMP JUMPDEST POP PUSH1 0x5 DUP7 DUP3 PUSH1 0xFF AND DUP2 MLOAD DUP2 LT PUSH3 0x2DA JUMPI PUSH3 0x2D9 PUSH3 0x12A5 JUMP JUMPDEST JUMPDEST PUSH1 0x20 MUL PUSH1 0x20 ADD ADD MLOAD SWAP1 DUP1 PUSH1 0x1 DUP2 SLOAD ADD DUP1 DUP3 SSTORE DUP1 SWAP2 POP POP PUSH1 0x1 SWAP1 SUB SWAP1 PUSH1 0x0 MSTORE PUSH1 0x20 PUSH1 0x0 KECCAK256 ADD PUSH1 0x0 SWAP1 SWAP2 SWAP1 SWAP2 SWAP1 SWAP2 POP SWAP1 DUP2 PUSH3 0x315 SWAP2 SWAP1 PUSH3 0x1115 JUMP JUMPDEST POP DUP1 DUP1 PUSH3 0x323 SWAP1 PUSH3 0x12E1 JUMP JUMPDEST SWAP2 POP POP PUSH3 0x242 JUMP JUMPDEST POP PUSH1 0x0 JUMPDEST DUP3 MLOAD DUP2 PUSH1 0xFF AND LT ISZERO PUSH3 0x4D7 JUMPI PUSH1 0x7 PUSH1 0x40 MLOAD DUP1 PUSH1 0xE0 ADD PUSH1 0x40 MSTORE DUP1 DUP6 DUP5 PUSH1 0xFF AND DUP2 MLOAD DUP2 LT PUSH3 0x363 JUMPI PUSH3 0x362 PUSH3 0x12A5 JUMP JUMPDEST JUMPDEST PUSH1 0x20 MUL PUSH1 0x20 ADD ADD MLOAD PUSH1 0x0 ADD MLOAD DUP2 MSTORE PUSH1 0x20 ADD DUP6 DUP5 PUSH1 0xFF AND DUP2 MLOAD DUP2 LT PUSH3 0x38D JUMPI PUSH3 0x38C PUSH3 0x12A5 JUMP JUMPDEST JUMPDEST PUSH1 0x20 MUL PUSH1 0x20 ADD ADD MLOAD PUSH1 0x20 ADD MLOAD DUP2 MSTORE PUSH1 0x20 ADD DUP6 DUP5 PUSH1 0xFF AND DUP2 MLOAD DUP2 LT PUSH3 0x3B7 JUMPI PUSH3 0x3B6 PUSH3 0x12A5 JUMP JUMPDEST JUMPDEST PUSH1 0x20 MUL PUSH1 0x20 ADD ADD MLOAD PUSH1 0x40 ADD MLOAD DUP2 MSTORE PUSH1 0x20 ADD PUSH1 0x0 ISZERO ISZERO DUP2 MSTORE PUSH1 0x20 ADD PUSH1 0x0 ISZERO ISZERO DUP2 MSTORE PUSH1 0x20 ADD PUSH1 0x0 ISZERO ISZERO DUP2 MSTORE PUSH1 0x20 ADD PUSH1 0x0 ISZERO ISZERO DUP2 MSTORE POP SWAP1 DUP1 PUSH1 0x1 DUP2 SLOAD ADD DUP1 DUP3 SSTORE DUP1 SWAP2 POP POP PUSH1 0x1 SWAP1 SUB SWAP1 PUSH1 0x0 MSTORE PUSH1 0x20 PUSH1 0x0 KECCAK256 SWAP1 PUSH1 0x4 MUL ADD PUSH1 0x0 SWAP1 SWAP2 SWAP1 SWAP2 SWAP1 SWAP2 POP PUSH1 0x0 DUP3 ADD MLOAD DUP2 PUSH1 0x0 ADD SSTORE PUSH1 0x20 DUP3 ADD MLOAD DUP2 PUSH1 0x1 ADD SSTORE PUSH1 0x40 DUP3 ADD MLOAD DUP2 PUSH1 0x2 ADD SWAP1 DUP2 PUSH3 0x43E SWAP2 SWAP1 PUSH3 0x1115 JUMP JUMPDEST POP PUSH1 0x60 DUP3 ADD MLOAD DUP2 PUSH1 0x3 ADD PUSH1 0x0 PUSH2 0x100 EXP DUP2 SLOAD DUP2 PUSH1 0xFF MUL NOT AND SWAP1 DUP4 ISZERO ISZERO MUL OR SWAP1 SSTORE POP PUSH1 0x80 DUP3 ADD MLOAD DUP2 PUSH1 0x3 ADD PUSH1 0x1 PUSH2 0x100 EXP DUP2 SLOAD DUP2 PUSH1 0xFF MUL NOT AND SWAP1 DUP4 ISZERO ISZERO MUL OR SWAP1 SSTORE POP PUSH1 0xA0 DUP3 ADD MLOAD DUP2 PUSH1 0x3 ADD PUSH1 0x2 PUSH2 0x100 EXP DUP2 SLOAD DUP2 PUSH1 0xFF MUL NOT AND SWAP1 DUP4 ISZERO ISZERO MUL OR SWAP1 SSTORE POP PUSH1 0xC0 DUP3 ADD MLOAD DUP2 PUSH1 0x3 ADD PUSH1 0x3 PUSH2 0x100 EXP DUP2 SLOAD DUP2 PUSH1 0xFF MUL NOT AND SWAP1 DUP4 ISZERO ISZERO MUL OR SWAP1 SSTORE POP POP POP DUP1 DUP1 PUSH3 0x4CE SWAP1 PUSH3 0x12E1 JUMP JUMPDEST SWAP2 POP POP PUSH3 0x330 JUMP JUMPDEST POP PUSH1 0x40 MLOAD DUP1 PUSH1 0x20 ADD PUSH1 0x40 MSTORE DUP1 PUSH1 0x0 DUP2 MSTORE POP PUSH1 0xA PUSH1 0x0 DUP10 PUSH1 0x0 DUP2 MLOAD DUP2 LT PUSH3 0x503 JUMPI PUSH3 0x502 PUSH3 0x12A5 JUMP JUMPDEST JUMPDEST PUSH1 0x20 MUL PUSH1 0x20 ADD ADD MLOAD PUSH20 0xFFFFFFFFFFFFFFFFFFFFFFFFFFFFFFFFFFFFFFFF AND PUSH20 0xFFFFFFFFFFFFFFFFFFFFFFFFFFFFFFFFFFFFFFFF AND DUP2 MSTORE PUSH1 0x20 ADD SWAP1 DUP2 MSTORE PUSH1 0x20 ADD PUSH1 0x0 KECCAK256 SWAP1 DUP2 PUSH3 0x553 SWAP2 SWAP1 PUSH3 0x1115 JUMP JUMPDEST POP PUSH1 0x40 MLOAD DUP1 PUSH1 0x20 ADD PUSH1 0x40 MSTORE DUP1 PUSH1 0x0 DUP2 MSTORE POP PUSH1 0xA PUSH1 0x0 DUP9 PUSH20 0xFFFFFFFFFFFFFFFFFFFFFFFFFFFFFFFFFFFFFFFF AND PUSH20 0xFFFFFFFFFFFFFFFFFFFFFFFFFFFFFFFFFFFFFFFF AND DUP2 MSTORE PUSH1 0x20 ADD SWAP1 DUP2 MSTORE PUSH1 0x20 ADD PUSH1 0x0 KECCAK256 SWAP1 DUP2 PUSH3 0x5B1 SWAP2 SWAP1 PUSH3 0x1115 JUMP JUMPDEST POP PUSH32 0x68E8E16725AE304C7B00B773BA80B94A2EA18BEBC9D7CC7ADE4F8C4980649AE1 PUSH1 0x0 DUP1 SLOAD SWAP1 PUSH2 0x100 EXP SWAP1 DIV PUSH20 0xFFFFFFFFFFFFFFFFFFFFFFFFFFFFFFFFFFFFFFFF AND PUSH1 0x1 PUSH1 0x3 PUSH1 0x0 SWAP1 SLOAD SWAP1 PUSH2 0x100 EXP SWAP1 DIV PUSH20 0xFFFFFFFFFFFFFFFFFFFFFFFFFFFFFFFFFFFFFFFF AND PUSH1 0x6 SLOAD SELFBALANCE TIMESTAMP PUSH1 0x40 MLOAD PUSH3 0x632 SWAP7 SWAP6 SWAP5 SWAP4 SWAP3 SWAP2 SWAP1 PUSH3 0x161F JUMP JUMPDEST PUSH1 0x40 MLOAD DUP1 SWAP2 SUB SWAP1 LOG1 POP POP POP POP POP POP POP PUSH3 0x1693 JUMP JUMPDEST PUSH1 0x0 PUSH1 0x40 MLOAD SWAP1 POP SWAP1 JUMP JUMPDEST PUSH1 0x0 DUP1 REVERT JUMPDEST PUSH1 0x0 DUP1 REVERT JUMPDEST PUSH1 0x0 DUP1 REVERT JUMPDEST PUSH1 0x0 PUSH1 0x1F NOT PUSH1 0x1F DUP4 ADD AND SWAP1 POP SWAP2 SWAP1 POP JUMP JUMPDEST PUSH32 0x4E487B7100000000000000000000000000000000000000000000000000000000 PUSH1 0x0 MSTORE PUSH1 0x41 PUSH1 0x4 MSTORE PUSH1 0x24 PUSH1 0x0 REVERT JUMPDEST PUSH3 0x6AB DUP3 PUSH3 0x660 JUMP JUMPDEST DUP2 ADD DUP2 DUP2 LT PUSH8 0xFFFFFFFFFFFFFFFF DUP3 GT OR ISZERO PUSH3 0x6CD JUMPI PUSH3 0x6CC PUSH3 0x671 JUMP JUMPDEST JUMPDEST DUP1 PUSH1 0x40 MSTORE POP POP POP JUMP JUMPDEST PUSH1 0x0 PUSH3 0x6E2 PUSH3 0x647 JUMP JUMPDEST SWAP1 POP PUSH3 0x6F0 DUP3 DUP3 PUSH3 0x6A0 JUMP JUMPDEST SWAP2 SWAP1 POP JUMP JUMPDEST PUSH1 0x0 PUSH8 0xFFFFFFFFFFFFFFFF DUP3 GT ISZERO PUSH3 0x713 JUMPI PUSH3 0x712 PUSH3 0x671 JUMP JUMPDEST JUMPDEST PUSH1 0x20 DUP3 MUL SWAP1 POP PUSH1 0x20 DUP2 ADD SWAP1 POP SWAP2 SWAP1 POP JUMP JUMPDEST PUSH1 0x0 DUP1 REVERT JUMPDEST PUSH1 0x0 PUSH20 0xFFFFFFFFFFFFFFFFFFFFFFFFFFFFFFFFFFFFFFFF DUP3 AND SWAP1 POP SWAP2 SWAP1 POP JUMP JUMPDEST PUSH1 0x0 PUSH3 0x756 DUP3 PUSH3 0x729 JUMP JUMPDEST SWAP1 POP SWAP2 SWAP1 POP JUMP JUMPDEST PUSH3 0x768 DUP2 PUSH3 0x749 JUMP JUMPDEST DUP2 EQ PUSH3 0x774 JUMPI PUSH1 0x0 DUP1 REVERT JUMPDEST POP JUMP JUMPDEST PUSH1 0x0 DUP2 MLOAD SWAP1 POP PUSH3 0x788 DUP2 PUSH3 0x75D JUMP JUMPDEST SWAP3 SWAP2 POP POP JUMP JUMPDEST PUSH1 0x0 PUSH3 0x7A5 PUSH3 0x79F DUP5 PUSH3 0x6F5 JUMP JUMPDEST PUSH3 0x6D6 JUMP JUMPDEST SWAP1 POP DUP1 DUP4 DUP3 MSTORE PUSH1 0x20 DUP3 ADD SWAP1 POP PUSH1 0x20 DUP5 MUL DUP4 ADD DUP6 DUP2 GT ISZERO PUSH3 0x7CB JUMPI PUSH3 0x7CA PUSH3 0x724 JUMP JUMPDEST JUMPDEST DUP4 JUMPDEST DUP2 DUP2 LT ISZERO PUSH3 0x7F8 JUMPI DUP1 PUSH3 0x7E3 DUP9 DUP3 PUSH3 0x777 JUMP JUMPDEST DUP5 MSTORE PUSH1 0x20 DUP5 ADD SWAP4 POP POP PUSH1 0x20 DUP2 ADD SWAP1 POP PUSH3 0x7CD JUMP JUMPDEST POP POP POP SWAP4 SWAP3 POP POP POP JUMP JUMPDEST PUSH1 0x0 DUP3 PUSH1 0x1F DUP4 ADD SLT PUSH3 0x81A JUMPI PUSH3 0x819 PUSH3 0x65B JUMP JUMPDEST JUMPDEST DUP2 MLOAD PUSH3 0x82C DUP5 DUP3 PUSH1 0x20 DUP7 ADD PUSH3 0x78E JUMP JUMPDEST SWAP2 POP POP SWAP3 SWAP2 POP POP JUMP JUMPDEST PUSH1 0x0 PUSH8 0xFFFFFFFFFFFFFFFF DUP3 GT ISZERO PUSH3 0x853 JUMPI PUSH3 0x852 PUSH3 0x671 JUMP JUMPDEST JUMPDEST PUSH1 0x20 DUP3 MUL SWAP1 POP PUSH1 0x20 DUP2 ADD SWAP1 POP SWAP2 SWAP1 POP JUMP JUMPDEST PUSH1 0x0 DUP1 REVERT JUMPDEST PUSH1 0x0 PUSH8 0xFFFFFFFFFFFFFFFF DUP3 GT ISZERO PUSH3 0x887 JUMPI PUSH3 0x886 PUSH3 0x671 JUMP JUMPDEST JUMPDEST PUSH3 0x892 DUP3 PUSH3 0x660 JUMP JUMPDEST SWAP1 POP PUSH1 0x20 DUP2 ADD SWAP1 POP SWAP2 SWAP1 POP JUMP JUMPDEST PUSH1 0x0 JUMPDEST DUP4 DUP2 LT ISZERO PUSH3 0x8BF JUMPI DUP1 DUP3 ADD MLOAD DUP2 DUP5 ADD MSTORE PUSH1 0x20 DUP2 ADD SWAP1 POP PUSH3 0x8A2 JUMP JUMPDEST PUSH1 0x0 DUP5 DUP5 ADD MSTORE POP POP POP POP JUMP JUMPDEST PUSH1 0x0 PUSH3 0x8E2 PUSH3 0x8DC DUP5 PUSH3 0x869 JUMP JUMPDEST PUSH3 0x6D6 JUMP JUMPDEST SWAP1 POP DUP3 DUP2 MSTORE PUSH1 0x20 DUP2 ADD DUP5 DUP5 DUP5 ADD GT ISZERO PUSH3 0x901 JUMPI PUSH3 0x900 PUSH3 0x864 JUMP JUMPDEST JUMPDEST PUSH3 0x90E DUP5 DUP3 DUP6 PUSH3 0x89F JUMP JUMPDEST POP SWAP4 SWAP3 POP POP POP JUMP JUMPDEST PUSH1 0x0 DUP3 PUSH1 0x1F DUP4 ADD SLT PUSH3 0x92E JUMPI PUSH3 0x92D PUSH3 0x65B JUMP JUMPDEST JUMPDEST DUP2 MLOAD PUSH3 0x940 DUP5 DUP3 PUSH1 0x20 DUP7 ADD PUSH3 0x8CB JUMP JUMPDEST SWAP2 POP POP SWAP3 SWAP2 POP POP JUMP JUMPDEST PUSH1 0x0 PUSH3 0x960 PUSH3 0x95A DUP5 PUSH3 0x835 JUMP JUMPDEST PUSH3 0x6D6 JUMP JUMPDEST SWAP1 POP DUP1 DUP4 DUP3 MSTORE PUSH1 0x20 DUP3 ADD SWAP1 POP PUSH1 0x20 DUP5 MUL DUP4 ADD DUP6 DUP2 GT ISZERO PUSH3 0x986 JUMPI PUSH3 0x985 PUSH3 0x724 JUMP JUMPDEST JUMPDEST DUP4 JUMPDEST DUP2 DUP2 LT ISZERO PUSH3 0x9D4 JUMPI DUP1 MLOAD PUSH8 0xFFFFFFFFFFFFFFFF DUP2 GT ISZERO PUSH3 0x9AF JUMPI PUSH3 0x9AE PUSH3 0x65B JUMP JUMPDEST JUMPDEST DUP1 DUP7 ADD PUSH3 0x9BE DUP10 DUP3 PUSH3 0x916 JUMP JUMPDEST DUP6 MSTORE PUSH1 0x20 DUP6 ADD SWAP5 POP POP POP PUSH1 0x20 DUP2 ADD SWAP1 POP PUSH3 0x988 JUMP JUMPDEST POP POP POP SWAP4 SWAP3 POP POP POP JUMP JUMPDEST PUSH1 0x0 DUP3 PUSH1 0x1F DUP4 ADD SLT PUSH3 0x9F6 JUMPI PUSH3 0x9F5 PUSH3 0x65B JUMP JUMPDEST JUMPDEST DUP2 MLOAD PUSH3 0xA08 DUP5 DUP3 PUSH1 0x20 DUP7 ADD PUSH3 0x949 JUMP JUMPDEST SWAP2 POP POP SWAP3 SWAP2 POP POP JUMP JUMPDEST PUSH1 0x0 PUSH8 0xFFFFFFFFFFFFFFFF DUP3 GT ISZERO PUSH3 0xA2F JUMPI PUSH3 0xA2E PUSH3 0x671 JUMP JUMPDEST JUMPDEST PUSH1 0x20 DUP3 MUL SWAP1 POP PUSH1 0x20 DUP2 ADD SWAP1 POP SWAP2 SWAP1 POP JUMP JUMPDEST PUSH1 0x0 PUSH8 0xFFFFFFFFFFFFFFFF DUP3 GT ISZERO PUSH3 0xA5E JUMPI PUSH3 0xA5D PUSH3 0x671 JUMP JUMPDEST JUMPDEST PUSH3 0xA69 DUP3 PUSH3 0x660 JUMP JUMPDEST SWAP1 POP PUSH1 0x20 DUP2 ADD SWAP1 POP SWAP2 SWAP1 POP JUMP JUMPDEST PUSH1 0x0 PUSH3 0xA8D PUSH3 0xA87 DUP5 PUSH3 0xA40 JUMP JUMPDEST PUSH3 0x6D6 JUMP JUMPDEST SWAP1 POP DUP3 DUP2 MSTORE PUSH1 0x20 DUP2 ADD DUP5 DUP5 DUP5 ADD GT ISZERO PUSH3 0xAAC JUMPI PUSH3 0xAAB PUSH3 0x864 JUMP JUMPDEST JUMPDEST PUSH3 0xAB9 DUP5 DUP3 DUP6 PUSH3 0x89F JUMP JUMPDEST POP SWAP4 SWAP3 POP POP POP JUMP JUMPDEST PUSH1 0x0 DUP3 PUSH1 0x1F DUP4 ADD SLT PUSH3 0xAD9 JUMPI PUSH3 0xAD8 PUSH3 0x65B JUMP JUMPDEST JUMPDEST DUP2 MLOAD PUSH3 0xAEB DUP5 DUP3 PUSH1 0x20 DUP7 ADD PUSH3 0xA76 JUMP JUMPDEST SWAP2 POP POP SWAP3 SWAP2 POP POP JUMP JUMPDEST PUSH1 0x0 PUSH3 0xB0B PUSH3 0xB05 DUP5 PUSH3 0xA11 JUMP JUMPDEST PUSH3 0x6D6 JUMP JUMPDEST SWAP1 POP DUP1 DUP4 DUP3 MSTORE PUSH1 0x20 DUP3 ADD SWAP1 POP PUSH1 0x20 DUP5 MUL DUP4 ADD DUP6 DUP2 GT ISZERO PUSH3 0xB31 JUMPI PUSH3 0xB30 PUSH3 0x724 JUMP JUMPDEST JUMPDEST DUP4 JUMPDEST DUP2 DUP2 LT ISZERO PUSH3 0xB7F JUMPI DUP1 MLOAD PUSH8 0xFFFFFFFFFFFFFFFF DUP2 GT ISZERO PUSH3 0xB5A JUMPI PUSH3 0xB59 PUSH3 0x65B JUMP JUMPDEST JUMPDEST DUP1 DUP7 ADD PUSH3 0xB69 DUP10 DUP3 PUSH3 0xAC1 JUMP JUMPDEST DUP6 MSTORE PUSH1 0x20 DUP6 ADD SWAP5 POP POP POP PUSH1 0x20 DUP2 ADD SWAP1 POP PUSH3 0xB33 JUMP JUMPDEST POP POP POP SWAP4 SWAP3 POP POP POP JUMP JUMPDEST PUSH1 0x0 DUP3 PUSH1 0x1F DUP4 ADD SLT PUSH3 0xBA1 JUMPI PUSH3 0xBA0 PUSH3 0x65B JUMP JUMPDEST JUMPDEST DUP2 MLOAD PUSH3 0xBB3 DUP5 DUP3 PUSH1 0x20 DUP7 ADD PUSH3 0xAF4 JUMP JUMPDEST SWAP2 POP POP SWAP3 SWAP2 POP POP JUMP JUMPDEST PUSH1 0x0 DUP2 SWAP1 POP SWAP2 SWAP1 POP JUMP JUMPDEST PUSH3 0xBD1 DUP2 PUSH3 0xBBC JUMP JUMPDEST DUP2 EQ PUSH3 0xBDD JUMPI PUSH1 0x0 DUP1 REVERT JUMPDEST POP JUMP JUMPDEST PUSH1 0x0 DUP2 MLOAD SWAP1 POP PUSH3 0xBF1 DUP2 PUSH3 0xBC6 JUMP JUMPDEST SWAP3 SWAP2 POP POP JUMP JUMPDEST PUSH1 0x0 PUSH8 0xFFFFFFFFFFFFFFFF DUP3 GT ISZERO PUSH3 0xC15 JUMPI PUSH3 0xC14 PUSH3 0x671 JUMP JUMPDEST JUMPDEST PUSH1 0x20 DUP3 MUL SWAP1 POP PUSH1 0x20 DUP2 ADD SWAP1 POP SWAP2 SWAP1 POP JUMP JUMPDEST PUSH1 0x0 DUP1 REVERT JUMPDEST PUSH1 0x0 DUP1 REVERT JUMPDEST PUSH1 0x0 PUSH1 0x60 DUP3 DUP5 SUB SLT ISZERO PUSH3 0xC49 JUMPI PUSH3 0xC48 PUSH3 0xC26 JUMP JUMPDEST JUMPDEST PUSH3 0xC55 PUSH1 0x60 PUSH3 0x6D6 JUMP JUMPDEST SWAP1 POP PUSH1 0x0 PUSH3 0xC67 DUP5 DUP3 DUP6 ADD PUSH3 0xBE0 JUMP JUMPDEST PUSH1 0x0 DUP4 ADD MSTORE POP PUSH1 0x20 PUSH3 0xC7D DUP5 DUP3 DUP6 ADD PUSH3 0xBE0 JUMP JUMPDEST PUSH1 0x20 DUP4 ADD MSTORE POP PUSH1 0x40 DUP3 ADD MLOAD PUSH8 0xFFFFFFFFFFFFFFFF DUP2 GT ISZERO PUSH3 0xCA4 JUMPI PUSH3 0xCA3 PUSH3 0xC2B JUMP JUMPDEST JUMPDEST PUSH3 0xCB2 DUP5 DUP3 DUP6 ADD PUSH3 0x916 JUMP JUMPDEST PUSH1 0x40 DUP4 ADD MSTORE POP SWAP3 SWAP2 POP POP JUMP JUMPDEST PUSH1 0x0 PUSH3 0xCD5 PUSH3 0xCCF DUP5 PUSH3 0xBF7 JUMP JUMPDEST PUSH3 0x6D6 JUMP JUMPDEST SWAP1 POP DUP1 DUP4 DUP3 MSTORE PUSH1 0x20 DUP3 ADD SWAP1 POP PUSH1 0x20 DUP5 MUL DUP4 ADD DUP6 DUP2 GT ISZERO PUSH3 0xCFB JUMPI PUSH3 0xCFA PUSH3 0x724 JUMP JUMPDEST JUMPDEST DUP4 JUMPDEST DUP2 DUP2 LT ISZERO PUSH3 0xD49 JUMPI DUP1 MLOAD PUSH8 0xFFFFFFFFFFFFFFFF DUP2 GT ISZERO PUSH3 0xD24 JUMPI PUSH3 0xD23 PUSH3 0x65B JUMP JUMPDEST JUMPDEST DUP1 DUP7 ADD PUSH3 0xD33 DUP10 DUP3 PUSH3 0xC30 JUMP JUMPDEST DUP6 MSTORE PUSH1 0x20 DUP6 ADD SWAP5 POP POP POP PUSH1 0x20 DUP2 ADD SWAP1 POP PUSH3 0xCFD JUMP JUMPDEST POP POP POP SWAP4 SWAP3 POP POP POP JUMP JUMPDEST PUSH1 0x0 DUP3 PUSH1 0x1F DUP4 ADD SLT PUSH3 0xD6B JUMPI PUSH3 0xD6A PUSH3 0x65B JUMP JUMPDEST JUMPDEST DUP2 MLOAD PUSH3 0xD7D DUP5 DUP3 PUSH1 0x20 DUP7 ADD PUSH3 0xCBE JUMP JUMPDEST SWAP2 POP POP SWAP3 SWAP2 POP POP JUMP JUMPDEST PUSH1 0x0 DUP1 PUSH1 0x0 DUP1 PUSH1 0x0 DUP1 PUSH1 0x0 PUSH1 0xE0 DUP9 DUP11 SUB SLT ISZERO PUSH3 0xDA8 JUMPI PUSH3 0xDA7 PUSH3 0x651 JUMP JUMPDEST JUMPDEST PUSH1 0x0 DUP9 ADD MLOAD PUSH8 0xFFFFFFFFFFFFFFFF DUP2 GT ISZERO PUSH3 0xDC9 JUMPI PUSH3 0xDC8 PUSH3 0x656 JUMP JUMPDEST JUMPDEST PUSH3 0xDD7 DUP11 DUP3 DUP12 ADD PUSH3 0x802 JUMP JUMPDEST SWAP8 POP POP PUSH1 0x20 PUSH3 0xDEA DUP11 DUP3 DUP12 ADD PUSH3 0x777 JUMP JUMPDEST SWAP7 POP POP PUSH1 0x40 DUP9 ADD MLOAD PUSH8 0xFFFFFFFFFFFFFFFF DUP2 GT ISZERO PUSH3 0xE0E JUMPI PUSH3 0xE0D PUSH3 0x656 JUMP JUMPDEST JUMPDEST PUSH3 0xE1C DUP11 DUP3 DUP12 ADD PUSH3 0x9DE JUMP JUMPDEST SWAP6 POP POP PUSH1 0x60 DUP9 ADD MLOAD PUSH8 0xFFFFFFFFFFFFFFFF DUP2 GT ISZERO PUSH3 0xE40 JUMPI PUSH3 0xE3F PUSH3 0x656 JUMP JUMPDEST JUMPDEST PUSH3 0xE4E DUP11 DUP3 DUP12 ADD PUSH3 0xB89 JUMP JUMPDEST SWAP5 POP POP PUSH1 0x80 PUSH3 0xE61 DUP11 DUP3 DUP12 ADD PUSH3 0xBE0 JUMP JUMPDEST SWAP4 POP POP PUSH1 0xA0 DUP9 ADD MLOAD PUSH8 0xFFFFFFFFFFFFFFFF DUP2 GT ISZERO PUSH3 0xE85 JUMPI PUSH3 0xE84 PUSH3 0x656 JUMP JUMPDEST JUMPDEST PUSH3 0xE93 DUP11 DUP3 DUP12 ADD PUSH3 0xD53 JUMP JUMPDEST SWAP3 POP POP PUSH1 0xC0 DUP9 ADD MLOAD PUSH8 0xFFFFFFFFFFFFFFFF DUP2 GT ISZERO PUSH3 0xEB7 JUMPI PUSH3 0xEB6 PUSH3 0x656 JUMP JUMPDEST JUMPDEST PUSH3 0xEC5 DUP11 DUP3 DUP12 ADD PUSH3 0x916 JUMP JUMPDEST SWAP2 POP POP SWAP3 SWAP6 SWAP9 SWAP2 SWAP5 SWAP8 POP SWAP3 SWAP6 POP JUMP JUMPDEST PUSH1 0x0 DUP2 MLOAD SWAP1 POP SWAP2 SWAP1 POP JUMP JUMPDEST PUSH32 0x4E487B7100000000000000000000000000000000000000000000000000000000 PUSH1 0x0 MSTORE PUSH1 0x22 PUSH1 0x4 MSTORE PUSH1 0x24 PUSH1 0x0 REVERT JUMPDEST PUSH1 0x0 PUSH1 0x2 DUP3 DIV SWAP1 POP PUSH1 0x1 DUP3 AND DUP1 PUSH3 0xF27 JUMPI PUSH1 0x7F DUP3 AND SWAP2 POP JUMPDEST PUSH1 0x20 DUP3 LT DUP2 SUB PUSH3 0xF3D JUMPI PUSH3 0xF3C PUSH3 0xEDF JUMP JUMPDEST JUMPDEST POP SWAP2 SWAP1 POP JUMP JUMPDEST PUSH1 0x0 DUP2 SWAP1 POP DUP2 PUSH1 0x0 MSTORE PUSH1 0x20 PUSH1 0x0 KECCAK256 SWAP1 POP SWAP2 SWAP1 POP JUMP JUMPDEST PUSH1 0x0 PUSH1 0x20 PUSH1 0x1F DUP4 ADD DIV SWAP1 POP SWAP2 SWAP1 POP JUMP JUMPDEST PUSH1 0x0 DUP3 DUP3 SHL SWAP1 POP SWAP3 SWAP2 POP POP JUMP JUMPDEST PUSH1 0x0 PUSH1 0x8 DUP4 MUL PUSH3 0xFA7 PUSH32 0xFFFFFFFFFFFFFFFFFFFFFFFFFFFFFFFFFFFFFFFFFFFFFFFFFFFFFFFFFFFFFFFF DUP3 PUSH3 0xF68 JUMP JUMPDEST PUSH3 0xFB3 DUP7 DUP4 PUSH3 0xF68 JUMP JUMPDEST SWAP6 POP DUP1 NOT DUP5 AND SWAP4 POP DUP1 DUP7 AND DUP5 OR SWAP3 POP POP POP SWAP4 SWAP3 POP POP POP JUMP JUMPDEST PUSH1 0x0 DUP2 SWAP1 POP SWAP2 SWAP1 POP JUMP JUMPDEST PUSH1 0x0 PUSH3 0xFF6 PUSH3 0xFF0 PUSH3 0xFEA DUP5 PUSH3 0xBBC JUMP JUMPDEST PUSH3 0xFCB JUMP JUMPDEST PUSH3 0xBBC JUMP JUMPDEST SWAP1 POP SWAP2 SWAP1 POP JUMP JUMPDEST PUSH1 0x0 DUP2 SWAP1 POP SWAP2 SWAP1 POP JUMP JUMPDEST PUSH3 0x1012 DUP4 PUSH3 0xFD5 JUMP JUMPDEST PUSH3 0x102A PUSH3 0x1021 DUP3 PUSH3 0xFFD JUMP JUMPDEST DUP5 DUP5 SLOAD PUSH3 0xF75 JUMP JUMPDEST DUP3 SSTORE POP POP POP POP JUMP JUMPDEST PUSH1 0x0 SWAP1 JUMP JUMPDEST PUSH3 0x1041 PUSH3 0x1032 JUMP JUMPDEST PUSH3 0x104E DUP2 DUP5 DUP5 PUSH3 0x1007 JUMP JUMPDEST POP POP POP JUMP JUMPDEST JUMPDEST DUP2 DUP2 LT ISZERO PUSH3 0x1076 JUMPI PUSH3 0x106A PUSH1 0x0 DUP3 PUSH3 0x1037 JUMP JUMPDEST PUSH1 0x1 DUP2 ADD SWAP1 POP PUSH3 0x1054 JUMP JUMPDEST POP POP JUMP JUMPDEST PUSH1 0x1F DUP3 GT ISZERO PUSH3 0x10C5 JUMPI PUSH3 0x108F DUP2 PUSH3 0xF43 JUMP JUMPDEST PUSH3 0x109A DUP5 PUSH3 0xF58 JUMP JUMPDEST DUP2 ADD PUSH1 0x20 DUP6 LT ISZERO PUSH3 0x10AA JUMPI DUP2 SWAP1 POP JUMPDEST PUSH3 0x10C2 PUSH3 0x10B9 DUP6 PUSH3 0xF58 JUMP JUMPDEST DUP4 ADD DUP3 PUSH3 0x1053 JUMP JUMPDEST POP POP JUMPDEST POP POP POP JUMP JUMPDEST PUSH1 0x0 DUP3 DUP3 SHR SWAP1 POP SWAP3 SWAP2 POP POP JUMP JUMPDEST PUSH1 0x0 PUSH3 0x10EA PUSH1 0x0 NOT DUP5 PUSH1 0x8 MUL PUSH3 0x10CA JUMP JUMPDEST NOT DUP1 DUP4 AND SWAP2 POP POP SWAP3 SWAP2 POP POP JUMP JUMPDEST PUSH1 0x0 PUSH3 0x1105 DUP4 DUP4 PUSH3 0x10D7 JUMP JUMPDEST SWAP2 POP DUP3 PUSH1 0x2 MUL DUP3 OR SWAP1 POP SWAP3 SWAP2 POP POP JUMP JUMPDEST PUSH3 0x1120 DUP3 PUSH3 0xED4 JUMP JUMPDEST PUSH8 0xFFFFFFFFFFFFFFFF DUP2 GT ISZERO PUSH3 0x113C JUMPI PUSH3 0x113B PUSH3 0x671 JUMP JUMPDEST JUMPDEST PUSH3 0x1148 DUP3 SLOAD PUSH3 0xF0E JUMP JUMPDEST PUSH3 0x1155 DUP3 DUP3 DUP6 PUSH3 0x107A JUMP JUMPDEST PUSH1 0x0 PUSH1 0x20 SWAP1 POP PUSH1 0x1F DUP4 GT PUSH1 0x1 DUP2 EQ PUSH3 0x118D JUMPI PUSH1 0x0 DUP5 ISZERO PUSH3 0x1178 JUMPI DUP3 DUP8 ADD MLOAD SWAP1 POP JUMPDEST PUSH3 0x1184 DUP6 DUP3 PUSH3 0x10F7 JUMP JUMPDEST DUP7 SSTORE POP PUSH3 0x11F4 JUMP JUMPDEST PUSH1 0x1F NOT DUP5 AND PUSH3 0x119D DUP7 PUSH3 0xF43 JUMP JUMPDEST PUSH1 0x0 JUMPDEST DUP3 DUP2 LT ISZERO PUSH3 0x11C7 JUMPI DUP5 DUP10 ADD MLOAD DUP3 SSTORE PUSH1 0x1 DUP3 ADD SWAP2 POP PUSH1 0x20 DUP6 ADD SWAP5 POP PUSH1 0x20 DUP2 ADD SWAP1 POP PUSH3 0x11A0 JUMP JUMPDEST DUP7 DUP4 LT ISZERO PUSH3 0x11E7 JUMPI DUP5 DUP10 ADD MLOAD PUSH3 0x11E3 PUSH1 0x1F DUP10 AND DUP3 PUSH3 0x10D7 JUMP JUMPDEST DUP4 SSTORE POP JUMPDEST PUSH1 0x1 PUSH1 0x2 DUP9 MUL ADD DUP9 SSTORE POP POP POP JUMPDEST POP POP POP POP POP POP JUMP JUMPDEST PUSH32 0x4E487B7100000000000000000000000000000000000000000000000000000000 PUSH1 0x0 MSTORE PUSH1 0x21 PUSH1 0x4 MSTORE PUSH1 0x24 PUSH1 0x0 REVERT JUMPDEST PUSH32 0x4E487B7100000000000000000000000000000000000000000000000000000000 PUSH1 0x0 MSTORE PUSH1 0x11 PUSH1 0x4 MSTORE PUSH1 0x24 PUSH1 0x0 REVERT JUMPDEST PUSH1 0x0 PUSH3 0x1267 DUP3 PUSH3 0xBBC JUMP JUMPDEST SWAP2 POP PUSH3 0x1274 DUP4 PUSH3 0xBBC JUMP JUMPDEST SWAP3 POP DUP3 DUP3 MUL PUSH3 0x1284 DUP2 PUSH3 0xBBC JUMP JUMPDEST SWAP2 POP DUP3 DUP3 DIV DUP5 EQ DUP4 ISZERO OR PUSH3 0x129E JUMPI PUSH3 0x129D PUSH3 0x122B JUMP JUMPDEST JUMPDEST POP SWAP3 SWAP2 POP POP JUMP JUMPDEST PUSH32 0x4E487B7100000000000000000000000000000000000000000000000000000000 PUSH1 0x0 MSTORE PUSH1 0x32 PUSH1 0x4 MSTORE PUSH1 0x24 PUSH1 0x0 REVERT JUMPDEST PUSH1 0x0 PUSH1 0xFF DUP3 AND SWAP1 POP SWAP2 SWAP1 POP JUMP JUMPDEST PUSH1 0x0 PUSH3 0x12EE DUP3 PUSH3 0x12D4 JUMP JUMPDEST SWAP2 POP PUSH1 0xFF DUP3 SUB PUSH3 0x1304 JUMPI PUSH3 0x1303 PUSH3 0x122B JUMP JUMPDEST JUMPDEST PUSH1 0x1 DUP3 ADD SWAP1 POP SWAP2 SWAP1 POP JUMP JUMPDEST PUSH1 0x0 DUP2 SWAP1 POP SWAP3 SWAP2 POP POP JUMP JUMPDEST PUSH1 0x0 PUSH3 0x1327 DUP3 PUSH3 0xED4 JUMP JUMPDEST PUSH3 0x1333 DUP2 DUP6 PUSH3 0x130F JUMP JUMPDEST SWAP4 POP PUSH3 0x1345 DUP2 DUP6 PUSH1 0x20 DUP7 ADD PUSH3 0x89F JUMP JUMPDEST DUP1 DUP5 ADD SWAP2 POP POP SWAP3 SWAP2 POP POP JUMP JUMPDEST PUSH1 0x0 PUSH3 0x135F DUP3 DUP5 PUSH3 0x131A JUMP JUMPDEST SWAP2 POP DUP2 SWAP1 POP SWAP3 SWAP2 POP POP JUMP JUMPDEST PUSH1 0x0 DUP2 MLOAD SWAP1 POP SWAP2 SWAP1 POP JUMP JUMPDEST PUSH1 0x0 DUP2 SWAP1 POP DUP2 PUSH1 0x0 MSTORE PUSH1 0x20 PUSH1 0x0 KECCAK256 SWAP1 POP SWAP2 SWAP1 POP JUMP JUMPDEST PUSH1 0x1F DUP3 GT ISZERO PUSH3 0x13D5 JUMPI PUSH3 0x139F DUP2 PUSH3 0x1375 JUMP JUMPDEST PUSH3 0x13AA DUP5 PUSH3 0xF58 JUMP JUMPDEST DUP2 ADD PUSH1 0x20 DUP6 LT ISZERO PUSH3 0x13BA JUMPI DUP2 SWAP1 POP JUMPDEST PUSH3 0x13D2 PUSH3 0x13C9 DUP6 PUSH3 0xF58 JUMP JUMPDEST DUP4 ADD DUP3 PUSH3 0x1053 JUMP JUMPDEST POP POP JUMPDEST POP POP POP JUMP JUMPDEST PUSH3 0x13E5 DUP3 PUSH3 0x136A JUMP JUMPDEST PUSH8 0xFFFFFFFFFFFFFFFF DUP2 GT ISZERO PUSH3 0x1401 JUMPI PUSH3 0x1400 PUSH3 0x671 JUMP JUMPDEST JUMPDEST PUSH3 0x140D DUP3 SLOAD PUSH3 0xF0E JUMP JUMPDEST PUSH3 0x141A DUP3 DUP3 DUP6 PUSH3 0x138A JUMP JUMPDEST PUSH1 0x0 PUSH1 0x20 SWAP1 POP PUSH1 0x1F DUP4 GT PUSH1 0x1 DUP2 EQ PUSH3 0x1452 JUMPI PUSH1 0x0 DUP5 ISZERO PUSH3 0x143D JUMPI DUP3 DUP8 ADD MLOAD SWAP1 POP JUMPDEST PUSH3 0x1449 DUP6 DUP3 PUSH3 0x10F7 JUMP JUMPDEST DUP7 SSTORE POP PUSH3 0x14B9 JUMP JUMPDEST PUSH1 0x1F NOT DUP5 AND PUSH3 0x1462 DUP7 PUSH3 0x1375 JUMP JUMPDEST PUSH1 0x0 JUMPDEST DUP3 DUP2 LT ISZERO PUSH3 0x148C JUMPI DUP5 DUP10 ADD MLOAD DUP3 SSTORE PUSH1 0x1 DUP3 ADD SWAP2 POP PUSH1 0x20 DUP6 ADD SWAP5 POP PUSH1 0x20 DUP2 ADD SWAP1 POP PUSH3 0x1465 JUMP JUMPDEST DUP7 DUP4 LT ISZERO PUSH3 0x14AC JUMPI DUP5 DUP10 ADD MLOAD PUSH3 0x14A8 PUSH1 0x1F DUP10 AND DUP3 PUSH3 0x10D7 JUMP JUMPDEST DUP4 SSTORE POP JUMPDEST PUSH1 0x1 PUSH1 0x2 DUP9 MUL ADD DUP9 SSTORE POP POP POP JUMPDEST POP POP POP POP POP POP JUMP JUMPDEST PUSH3 0x14CC DUP2 PUSH3 0x749 JUMP JUMPDEST DUP3 MSTORE POP POP JUMP JUMPDEST PUSH1 0x0 DUP2 SLOAD SWAP1 POP SWAP2 SWAP1 POP JUMP JUMPDEST PUSH1 0x0 DUP3 DUP3 MSTORE PUSH1 0x20 DUP3 ADD SWAP1 POP SWAP3 SWAP2 POP POP JUMP JUMPDEST PUSH1 0x0 DUP2 SWAP1 POP DUP2 PUSH1 0x0 MSTORE PUSH1 0x20 PUSH1 0x0 KECCAK256 SWAP1 POP SWAP2 SWAP1 POP JUMP JUMPDEST PUSH3 0x150E DUP2 PUSH3 0x749 JUMP JUMPDEST DUP3 MSTORE POP POP JUMP JUMPDEST PUSH1 0x0 PUSH3 0x1522 DUP4 DUP4 PUSH3 0x1503 JUMP JUMPDEST PUSH1 0x20 DUP4 ADD SWAP1 POP SWAP3 SWAP2 POP POP JUMP JUMPDEST PUSH1 0x0 DUP2 PUSH1 0x0 SHR SWAP1 POP SWAP2 SWAP1 POP JUMP JUMPDEST PUSH1 0x0 PUSH20 0xFFFFFFFFFFFFFFFFFFFFFFFFFFFFFFFFFFFFFFFF DUP3 AND SWAP1 POP SWAP2 SWAP1 POP JUMP JUMPDEST PUSH1 0x0 PUSH3 0x1572 PUSH3 0x156C DUP4 PUSH3 0x152E JUMP JUMPDEST PUSH3 0x153B JUMP JUMPDEST SWAP1 POP SWAP2 SWAP1 POP JUMP JUMPDEST PUSH1 0x0 PUSH3 0x1587 DUP3 SLOAD PUSH3 0x155B JUMP JUMPDEST SWAP1 POP SWAP2 SWAP1 POP JUMP JUMPDEST PUSH1 0x0 PUSH1 0x1 DUP3 ADD SWAP1 POP SWAP2 SWAP1 POP JUMP JUMPDEST PUSH1 0x0 PUSH3 0x15A8 DUP3 PUSH3 0x14D2 JUMP JUMPDEST PUSH3 0x15B4 DUP2 DUP6 PUSH3 0x14DD JUMP JUMPDEST SWAP4 POP PUSH3 0x15C1 DUP4 PUSH3 0x14EE JUMP JUMPDEST DUP1 PUSH1 0x0 JUMPDEST DUP4 DUP2 LT ISZERO PUSH3 0x1601 JUMPI PUSH3 0x15D9 DUP3 PUSH3 0x1579 JUMP JUMPDEST PUSH3 0x15E5 DUP9 DUP3 PUSH3 0x1514 JUMP JUMPDEST SWAP8 POP PUSH3 0x15F2 DUP4 PUSH3 0x158E JUMP JUMPDEST SWAP3 POP POP PUSH1 0x1 DUP2 ADD SWAP1 POP PUSH3 0x15C5 JUMP JUMPDEST POP DUP6 SWAP4 POP POP POP POP SWAP3 SWAP2 POP POP JUMP JUMPDEST PUSH3 0x1619 DUP2 PUSH3 0xBBC JUMP JUMPDEST DUP3 MSTORE POP POP JUMP JUMPDEST PUSH1 0x0 PUSH1 0xC0 DUP3 ADD SWAP1 POP PUSH3 0x1636 PUSH1 0x0 DUP4 ADD DUP10 PUSH3 0x14C1 JUMP JUMPDEST DUP2 DUP2 SUB PUSH1 0x20 DUP4 ADD MSTORE PUSH3 0x164A DUP2 DUP9 PUSH3 0x159B JUMP JUMPDEST SWAP1 POP PUSH3 0x165B PUSH1 0x40 DUP4 ADD DUP8 PUSH3 0x14C1 JUMP JUMPDEST PUSH3 0x166A PUSH1 0x60 DUP4 ADD DUP7 PUSH3 0x160E JUMP JUMPDEST PUSH3 0x1679 PUSH1 0x80 DUP4 ADD DUP6 PUSH3 0x160E JUMP JUMPDEST PUSH3 0x1688 PUSH1 0xA0 DUP4 ADD DUP5 PUSH3 0x160E JUMP JUMPDEST SWAP8 SWAP7 POP POP POP POP POP POP POP JUMP JUMPDEST PUSH2 0x4311 DUP1 PUSH3 0x16A3 PUSH1 0x0 CODECOPY PUSH1 0x0 RETURN INVALID PUSH1 0x80 PUSH1 0x40 MSTORE PUSH1 0x4 CALLDATASIZE LT PUSH2 0x140 JUMPI PUSH1 0x0 CALLDATALOAD PUSH1 0xE0 SHR DUP1 PUSH4 0x79655BD0 GT PUSH2 0xB6 JUMPI DUP1 PUSH4 0xAA4A7080 GT PUSH2 0x6F JUMPI DUP1 PUSH4 0xAA4A7080 EQ PUSH2 0x40A JUMPI DUP1 PUSH4 0xCDAD7205 EQ PUSH2 0x433 JUMPI DUP1 PUSH4 0xD88EAB63 EQ PUSH2 0x45C JUMPI DUP1 PUSH4 0xE0D4F017 EQ PUSH2 0x485 JUMPI DUP1 PUSH4 0xEEDBE31D EQ PUSH2 0x4AE JUMPI DUP1 PUSH4 0xFBB05337 EQ PUSH2 0x4D9 JUMPI PUSH2 0x140 JUMP JUMPDEST DUP1 PUSH4 0x79655BD0 EQ PUSH2 0x309 JUMPI DUP1 PUSH4 0x79D6348D EQ PUSH2 0x334 JUMPI DUP1 PUSH4 0x81BCF830 EQ PUSH2 0x35D JUMPI DUP1 PUSH4 0x904E3CFF EQ PUSH2 0x386 JUMPI DUP1 PUSH4 0x9C01B52F EQ PUSH2 0x3A2 JUMPI DUP1 PUSH4 0xA4477713 EQ PUSH2 0x3CD JUMPI PUSH2 0x140 JUMP JUMPDEST DUP1 PUSH4 0x2E49D78B GT PUSH2 0x108 JUMPI DUP1 PUSH4 0x2E49D78B EQ PUSH2 0x22C JUMPI DUP1 PUSH4 0x3F44327A EQ PUSH2 0x255 JUMPI DUP1 PUSH4 0x4510FB59 EQ PUSH2 0x280 JUMPI DUP1 PUSH4 0x4BBE765A EQ PUSH2 0x28A JUMPI DUP1 PUSH4 0x53C659BB EQ PUSH2 0x2A1 JUMPI DUP1 PUSH4 0x742978DA EQ PUSH2 0x2CC JUMPI PUSH2 0x140 JUMP JUMPDEST DUP1 PUSH4 0x12065FE0 EQ PUSH2 0x145 JUMPI DUP1 PUSH4 0x12B58349 EQ PUSH2 0x170 JUMPI DUP1 PUSH4 0x14A24BCF EQ PUSH2 0x19B JUMPI DUP1 PUSH4 0x1F8D1D50 EQ PUSH2 0x1C6 JUMPI DUP1 PUSH4 0x277FC0E9 EQ PUSH2 0x1EF JUMPI JUMPDEST PUSH1 0x0 DUP1 REVERT JUMPDEST CALLVALUE DUP1 ISZERO PUSH2 0x151 JUMPI PUSH1 0x0 DUP1 REVERT JUMPDEST POP PUSH2 0x15A PUSH2 0x4F5 JUMP JUMPDEST PUSH1 0x40 MLOAD PUSH2 0x167 SWAP2 SWAP1 PUSH2 0x28B4 JUMP JUMPDEST PUSH1 0x40 MLOAD DUP1 SWAP2 SUB SWAP1 RETURN JUMPDEST CALLVALUE DUP1 ISZERO PUSH2 0x17C JUMPI PUSH1 0x0 DUP1 REVERT JUMPDEST POP PUSH2 0x185 PUSH2 0x4FD JUMP JUMPDEST PUSH1 0x40 MLOAD PUSH2 0x192 SWAP2 SWAP1 PUSH2 0x28B4 JUMP JUMPDEST PUSH1 0x40 MLOAD DUP1 SWAP2 SUB SWAP1 RETURN JUMPDEST CALLVALUE DUP1 ISZERO PUSH2 0x1A7 JUMPI PUSH1 0x0 DUP1 REVERT JUMPDEST POP PUSH2 0x1B0 PUSH2 0x507 JUMP JUMPDEST PUSH1 0x40 MLOAD PUSH2 0x1BD SWAP2 SWAP1 PUSH2 0x2910 JUMP JUMPDEST PUSH1 0x40 MLOAD DUP1 SWAP2 SUB SWAP1 RETURN JUMPDEST CALLVALUE DUP1 ISZERO PUSH2 0x1D2 JUMPI PUSH1 0x0 DUP1 REVERT JUMPDEST POP PUSH2 0x1ED PUSH1 0x4 DUP1 CALLDATASIZE SUB DUP2 ADD SWAP1 PUSH2 0x1E8 SWAP2 SWAP1 PUSH2 0x296B JUMP JUMPDEST PUSH2 0x531 JUMP JUMPDEST STOP JUMPDEST CALLVALUE DUP1 ISZERO PUSH2 0x1FB JUMPI PUSH1 0x0 DUP1 REVERT JUMPDEST POP PUSH2 0x216 PUSH1 0x4 DUP1 CALLDATASIZE SUB DUP2 ADD SWAP1 PUSH2 0x211 SWAP2 SWAP1 PUSH2 0x29C4 JUMP JUMPDEST PUSH2 0x67B JUMP JUMPDEST PUSH1 0x40 MLOAD PUSH2 0x223 SWAP2 SWAP1 PUSH2 0x2A81 JUMP JUMPDEST PUSH1 0x40 MLOAD DUP1 SWAP2 SUB SWAP1 RETURN JUMPDEST CALLVALUE DUP1 ISZERO PUSH2 0x238 JUMPI PUSH1 0x0 DUP1 REVERT JUMPDEST POP PUSH2 0x253 PUSH1 0x4 DUP1 CALLDATASIZE SUB DUP2 ADD SWAP1 PUSH2 0x24E SWAP2 SWAP1 PUSH2 0x2AC8 JUMP JUMPDEST PUSH2 0x74C JUMP JUMPDEST STOP JUMPDEST CALLVALUE DUP1 ISZERO PUSH2 0x261 JUMPI PUSH1 0x0 DUP1 REVERT JUMPDEST POP PUSH2 0x26A PUSH2 0x861 JUMP JUMPDEST PUSH1 0x40 MLOAD PUSH2 0x277 SWAP2 SWAP1 PUSH2 0x2BB3 JUMP JUMPDEST PUSH1 0x40 MLOAD DUP1 SWAP2 SUB SWAP1 RETURN JUMPDEST PUSH2 0x288 PUSH2 0x8EF JUMP JUMPDEST STOP JUMPDEST CALLVALUE DUP1 ISZERO PUSH2 0x296 JUMPI PUSH1 0x0 DUP1 REVERT JUMPDEST POP PUSH2 0x29F PUSH2 0xA70 JUMP JUMPDEST STOP JUMPDEST CALLVALUE DUP1 ISZERO PUSH2 0x2AD JUMPI PUSH1 0x0 DUP1 REVERT JUMPDEST POP PUSH2 0x2B6 PUSH2 0xDF9 JUMP JUMPDEST PUSH1 0x40 MLOAD PUSH2 0x2C3 SWAP2 SWAP1 PUSH2 0x2CE5 JUMP JUMPDEST PUSH1 0x40 MLOAD DUP1 SWAP2 SUB SWAP1 RETURN JUMPDEST CALLVALUE DUP1 ISZERO PUSH2 0x2D8 JUMPI PUSH1 0x0 DUP1 REVERT JUMPDEST POP PUSH2 0x2F3 PUSH1 0x4 DUP1 CALLDATASIZE SUB DUP2 ADD SWAP1 PUSH2 0x2EE SWAP2 SWAP1 PUSH2 0x29C4 JUMP JUMPDEST PUSH2 0xFFA JUMP JUMPDEST PUSH1 0x40 MLOAD PUSH2 0x300 SWAP2 SWAP1 PUSH2 0x28B4 JUMP JUMPDEST PUSH1 0x40 MLOAD DUP1 SWAP2 SUB SWAP1 RETURN JUMPDEST CALLVALUE DUP1 ISZERO PUSH2 0x315 JUMPI PUSH1 0x0 DUP1 REVERT JUMPDEST POP PUSH2 0x31E PUSH2 0x112B JUMP JUMPDEST PUSH1 0x40 MLOAD PUSH2 0x32B SWAP2 SWAP1 PUSH2 0x2E65 JUMP JUMPDEST PUSH1 0x40 MLOAD DUP1 SWAP2 SUB SWAP1 RETURN JUMPDEST CALLVALUE DUP1 ISZERO PUSH2 0x340 JUMPI PUSH1 0x0 DUP1 REVERT JUMPDEST POP PUSH2 0x35B PUSH1 0x4 DUP1 CALLDATASIZE SUB DUP2 ADD SWAP1 PUSH2 0x356 SWAP2 SWAP1 PUSH2 0x2FBC JUMP JUMPDEST PUSH2 0x129C JUMP JUMPDEST STOP JUMPDEST CALLVALUE DUP1 ISZERO PUSH2 0x369 JUMPI PUSH1 0x0 DUP1 REVERT JUMPDEST POP PUSH2 0x384 PUSH1 0x4 DUP1 CALLDATASIZE SUB DUP2 ADD SWAP1 PUSH2 0x37F SWAP2 SWAP1 PUSH2 0x326D JUMP JUMPDEST PUSH2 0x142C JUMP JUMPDEST STOP JUMPDEST PUSH2 0x3A0 PUSH1 0x4 DUP1 CALLDATASIZE SUB DUP2 ADD SWAP1 PUSH2 0x39B SWAP2 SWAP1 PUSH2 0x3323 JUMP JUMPDEST PUSH2 0x164B JUMP JUMPDEST STOP JUMPDEST CALLVALUE DUP1 ISZERO PUSH2 0x3AE JUMPI PUSH1 0x0 DUP1 REVERT JUMPDEST POP PUSH2 0x3B7 PUSH2 0x1AC2 JUMP JUMPDEST PUSH1 0x40 MLOAD PUSH2 0x3C4 SWAP2 SWAP1 PUSH2 0x2910 JUMP JUMPDEST PUSH1 0x40 MLOAD DUP1 SWAP2 SUB SWAP1 RETURN JUMPDEST CALLVALUE DUP1 ISZERO PUSH2 0x3D9 JUMPI PUSH1 0x0 DUP1 REVERT JUMPDEST POP PUSH2 0x3F4 PUSH1 0x4 DUP1 CALLDATASIZE SUB DUP2 ADD SWAP1 PUSH2 0x3EF SWAP2 SWAP1 PUSH2 0x2FBC JUMP JUMPDEST PUSH2 0x1AEB JUMP JUMPDEST PUSH1 0x40 MLOAD PUSH2 0x401 SWAP2 SWAP1 PUSH2 0x3425 JUMP JUMPDEST PUSH1 0x40 MLOAD DUP1 SWAP2 SUB SWAP1 RETURN JUMPDEST CALLVALUE DUP1 ISZERO PUSH2 0x416 JUMPI PUSH1 0x0 DUP1 REVERT JUMPDEST POP PUSH2 0x431 PUSH1 0x4 DUP1 CALLDATASIZE SUB DUP2 ADD SWAP1 PUSH2 0x42C SWAP2 SWAP1 PUSH2 0x350A JUMP JUMPDEST PUSH2 0x1CE4 JUMP JUMPDEST STOP JUMPDEST CALLVALUE DUP1 ISZERO PUSH2 0x43F JUMPI PUSH1 0x0 DUP1 REVERT JUMPDEST POP PUSH2 0x45A PUSH1 0x4 DUP1 CALLDATASIZE SUB DUP2 ADD SWAP1 PUSH2 0x455 SWAP2 SWAP1 PUSH2 0x29C4 JUMP JUMPDEST PUSH2 0x1ED4 JUMP JUMPDEST STOP JUMPDEST CALLVALUE DUP1 ISZERO PUSH2 0x468 JUMPI PUSH1 0x0 DUP1 REVERT JUMPDEST POP PUSH2 0x483 PUSH1 0x4 DUP1 CALLDATASIZE SUB DUP2 ADD SWAP1 PUSH2 0x47E SWAP2 SWAP1 PUSH2 0x36BE JUMP JUMPDEST PUSH2 0x1FAA JUMP JUMPDEST STOP JUMPDEST CALLVALUE DUP1 ISZERO PUSH2 0x491 JUMPI PUSH1 0x0 DUP1 REVERT JUMPDEST POP PUSH2 0x4AC PUSH1 0x4 DUP1 CALLDATASIZE SUB DUP2 ADD SWAP1 PUSH2 0x4A7 SWAP2 SWAP1 PUSH2 0x2FBC JUMP JUMPDEST PUSH2 0x2231 JUMP JUMPDEST STOP JUMPDEST CALLVALUE DUP1 ISZERO PUSH2 0x4BA JUMPI PUSH1 0x0 DUP1 REVERT JUMPDEST POP PUSH2 0x4C3 PUSH2 0x232C JUMP JUMPDEST PUSH1 0x40 MLOAD PUSH2 0x4D0 SWAP2 SWAP1 PUSH2 0x2CE5 JUMP JUMPDEST PUSH1 0x40 MLOAD DUP1 SWAP2 SUB SWAP1 RETURN JUMPDEST PUSH2 0x4F3 PUSH1 0x4 DUP1 CALLDATASIZE SUB DUP2 ADD SWAP1 PUSH2 0x4EE SWAP2 SWAP1 PUSH2 0x3323 JUMP JUMPDEST PUSH2 0x248A JUMP JUMPDEST STOP JUMPDEST PUSH1 0x0 SELFBALANCE SWAP1 POP SWAP1 JUMP JUMPDEST PUSH1 0x0 PUSH1 0x6 SLOAD SWAP1 POP SWAP1 JUMP JUMPDEST PUSH1 0x0 PUSH1 0x3 PUSH1 0x0 SWAP1 SLOAD SWAP1 PUSH2 0x100 EXP SWAP1 DIV PUSH20 0xFFFFFFFFFFFFFFFFFFFFFFFFFFFFFFFFFFFFFFFF AND SWAP1 POP SWAP1 JUMP JUMPDEST CALLER PUSH1 0x0 DUP1 JUMPDEST PUSH1 0x1 DUP1 SLOAD SWAP1 POP DUP2 PUSH1 0xFF AND LT ISZERO PUSH2 0x5D6 JUMPI PUSH1 0x1 DUP2 PUSH1 0xFF AND DUP2 SLOAD DUP2 LT PUSH2 0x55D JUMPI PUSH2 0x55C PUSH2 0x3707 JUMP JUMPDEST JUMPDEST SWAP1 PUSH1 0x0 MSTORE PUSH1 0x20 PUSH1 0x0 KECCAK256 ADD PUSH1 0x0 SWAP1 SLOAD SWAP1 PUSH2 0x100 EXP SWAP1 DIV PUSH20 0xFFFFFFFFFFFFFFFFFFFFFFFFFFFFFFFFFFFFFFFF AND PUSH20 0xFFFFFFFFFFFFFFFFFFFFFFFFFFFFFFFFFFFFFFFF AND DUP4 PUSH20 0xFFFFFFFFFFFFFFFFFFFFFFFFFFFFFFFFFFFFFFFF AND SUB PUSH2 0x5C3 JUMPI PUSH1 0x1 SWAP2 POP PUSH2 0x5D6 JUMP JUMPDEST DUP1 DUP1 PUSH2 0x5CE SWAP1 PUSH2 0x3772 JUMP JUMPDEST SWAP2 POP POP PUSH2 0x536 JUMP JUMPDEST POP DUP1 DUP1 PUSH2 0x630 JUMPI POP PUSH1 0x3 PUSH1 0x0 SWAP1 SLOAD SWAP1 PUSH2 0x100 EXP SWAP1 DIV PUSH20 0xFFFFFFFFFFFFFFFFFFFFFFFFFFFFFFFFFFFFFFFF AND PUSH20 0xFFFFFFFFFFFFFFFFFFFFFFFFFFFFFFFFFFFFFFFF AND DUP3 PUSH20 0xFFFFFFFFFFFFFFFFFFFFFFFFFFFFFFFFFFFFFFFF AND EQ JUMPDEST PUSH2 0x66F JUMPI PUSH1 0x40 MLOAD PUSH32 0x8C379A000000000000000000000000000000000000000000000000000000000 DUP2 MSTORE PUSH1 0x4 ADD PUSH2 0x666 SWAP1 PUSH2 0x380D JUMP JUMPDEST PUSH1 0x40 MLOAD DUP1 SWAP2 SUB SWAP1 REVERT JUMPDEST DUP3 PUSH1 0x6 DUP2 SWAP1 SSTORE POP POP POP POP JUMP JUMPDEST PUSH1 0x60 PUSH1 0xA PUSH1 0x0 DUP4 PUSH20 0xFFFFFFFFFFFFFFFFFFFFFFFFFFFFFFFFFFFFFFFF AND PUSH20 0xFFFFFFFFFFFFFFFFFFFFFFFFFFFFFFFFFFFFFFFF AND DUP2 MSTORE PUSH1 0x20 ADD SWAP1 DUP2 MSTORE PUSH1 0x20 ADD PUSH1 0x0 KECCAK256 DUP1 SLOAD PUSH2 0x6C7 SWAP1 PUSH2 0x385C JUMP JUMPDEST DUP1 PUSH1 0x1F ADD PUSH1 0x20 DUP1 SWAP2 DIV MUL PUSH1 0x20 ADD PUSH1 0x40 MLOAD SWAP1 DUP2 ADD PUSH1 0x40 MSTORE DUP1 SWAP3 SWAP2 SWAP1 DUP2 DUP2 MSTORE PUSH1 0x20 ADD DUP3 DUP1 SLOAD PUSH2 0x6F3 SWAP1 PUSH2 0x385C JUMP JUMPDEST DUP1 ISZERO PUSH2 0x740 JUMPI DUP1 PUSH1 0x1F LT PUSH2 0x715 JUMPI PUSH2 0x100 DUP1 DUP4 SLOAD DIV MUL DUP4 MSTORE SWAP2 PUSH1 0x20 ADD SWAP2 PUSH2 0x740 JUMP JUMPDEST DUP3 ADD SWAP2 SWAP1 PUSH1 0x0 MSTORE PUSH1 0x20 PUSH1 0x0 KECCAK256 SWAP1 JUMPDEST DUP2 SLOAD DUP2 MSTORE SWAP1 PUSH1 0x1 ADD SWAP1 PUSH1 0x20 ADD DUP1 DUP4 GT PUSH2 0x723 JUMPI DUP3 SWAP1 SUB PUSH1 0x1F AND DUP3 ADD SWAP2 JUMPDEST POP POP POP POP POP SWAP1 POP SWAP2 SWAP1 POP JUMP JUMPDEST CALLER PUSH1 0x0 DUP1 JUMPDEST PUSH1 0x1 DUP1 SLOAD SWAP1 POP DUP2 PUSH1 0xFF AND LT ISZERO PUSH2 0x7F1 JUMPI PUSH1 0x1 DUP2 PUSH1 0xFF AND DUP2 SLOAD DUP2 LT PUSH2 0x778 JUMPI PUSH2 0x777 PUSH2 0x3707 JUMP JUMPDEST JUMPDEST SWAP1 PUSH1 0x0 MSTORE PUSH1 0x20 PUSH1 0x0 KECCAK256 ADD PUSH1 0x0 SWAP1 SLOAD SWAP1 PUSH2 0x100 EXP SWAP1 DIV PUSH20 0xFFFFFFFFFFFFFFFFFFFFFFFFFFFFFFFFFFFFFFFF AND PUSH20 0xFFFFFFFFFFFFFFFFFFFFFFFFFFFFFFFFFFFFFFFF AND DUP4 PUSH20 0xFFFFFFFFFFFFFFFFFFFFFFFFFFFFFFFFFFFFFFFF AND SUB PUSH2 0x7DE JUMPI PUSH1 0x1 SWAP2 POP PUSH2 0x7F1 JUMP JUMPDEST DUP1 DUP1 PUSH2 0x7E9 SWAP1 PUSH2 0x3772 JUMP JUMPDEST SWAP2 POP POP PUSH2 0x751 JUMP JUMPDEST POP DUP1 PUSH2 0x832 JUMPI PUSH1 0x40 MLOAD PUSH32 0x8C379A000000000000000000000000000000000000000000000000000000000 DUP2 MSTORE PUSH1 0x4 ADD PUSH2 0x829 SWAP1 PUSH2 0x38FF JUMP JUMPDEST PUSH1 0x40 MLOAD DUP1 SWAP2 SUB SWAP1 REVERT JUMPDEST DUP3 PUSH1 0x8 PUSH1 0x1 PUSH2 0x100 EXP DUP2 SLOAD DUP2 PUSH1 0xFF MUL NOT AND SWAP1 DUP4 PUSH1 0x2 DUP2 GT ISZERO PUSH2 0x857 JUMPI PUSH2 0x856 PUSH2 0x391F JUMP JUMPDEST JUMPDEST MUL OR SWAP1 SSTORE POP POP POP POP JUMP JUMPDEST PUSH1 0x60 PUSH1 0x1 DUP1 SLOAD DUP1 PUSH1 0x20 MUL PUSH1 0x20 ADD PUSH1 0x40 MLOAD SWAP1 DUP2 ADD PUSH1 0x40 MSTORE DUP1 SWAP3 SWAP2 SWAP1 DUP2 DUP2 MSTORE PUSH1 0x20 ADD DUP3 DUP1 SLOAD DUP1 ISZERO PUSH2 0x8E5 JUMPI PUSH1 0x20 MUL DUP3 ADD SWAP2 SWAP1 PUSH1 0x0 MSTORE PUSH1 0x20 PUSH1 0x0 KECCAK256 SWAP1 JUMPDEST DUP2 PUSH1 0x0 SWAP1 SLOAD SWAP1 PUSH2 0x100 EXP SWAP1 DIV PUSH20 0xFFFFFFFFFFFFFFFFFFFFFFFFFFFFFFFFFFFFFFFF AND PUSH20 0xFFFFFFFFFFFFFFFFFFFFFFFFFFFFFFFFFFFFFFFF AND DUP2 MSTORE PUSH1 0x20 ADD SWAP1 PUSH1 0x1 ADD SWAP1 DUP1 DUP4 GT PUSH2 0x89B JUMPI JUMPDEST POP POP POP POP POP SWAP1 POP SWAP1 JUMP JUMPDEST CALLER PUSH1 0x0 DUP1 JUMPDEST PUSH1 0x1 DUP1 SLOAD SWAP1 POP DUP2 PUSH1 0xFF AND LT ISZERO PUSH2 0x994 JUMPI PUSH1 0x1 DUP2 PUSH1 0xFF AND DUP2 SLOAD DUP2 LT PUSH2 0x91B JUMPI PUSH2 0x91A PUSH2 0x3707 JUMP JUMPDEST JUMPDEST SWAP1 PUSH1 0x0 MSTORE PUSH1 0x20 PUSH1 0x0 KECCAK256 ADD PUSH1 0x0 SWAP1 SLOAD SWAP1 PUSH2 0x100 EXP SWAP1 DIV PUSH20 0xFFFFFFFFFFFFFFFFFFFFFFFFFFFFFFFFFFFFFFFF AND PUSH20 0xFFFFFFFFFFFFFFFFFFFFFFFFFFFFFFFFFFFFFFFF AND DUP4 PUSH20 0xFFFFFFFFFFFFFFFFFFFFFFFFFFFFFFFFFFFFFFFF AND SUB PUSH2 0x981 JUMPI PUSH1 0x1 SWAP2 POP PUSH2 0x994 JUMP JUMPDEST DUP1 DUP1 PUSH2 0x98C SWAP1 PUSH2 0x3772 JUMP JUMPDEST SWAP2 POP POP PUSH2 0x8F4 JUMP JUMPDEST POP DUP1 PUSH2 0x9D5 JUMPI PUSH1 0x40 MLOAD PUSH32 0x8C379A000000000000000000000000000000000000000000000000000000000 DUP2 MSTORE PUSH1 0x4 ADD PUSH2 0x9CC SWAP1 PUSH2 0x38FF JUMP JUMPDEST PUSH1 0x40 MLOAD DUP1 SWAP2 SUB SWAP1 REVERT JUMPDEST CALLVALUE PUSH1 0x2 PUSH1 0x0 CALLER PUSH20 0xFFFFFFFFFFFFFFFFFFFFFFFFFFFFFFFFFFFFFFFF AND PUSH20 0xFFFFFFFFFFFFFFFFFFFFFFFFFFFFFFFFFFFFFFFF AND DUP2 MSTORE PUSH1 0x20 ADD SWAP1 DUP2 MSTORE PUSH1 0x20 ADD PUSH1 0x0 KECCAK256 PUSH1 0x0 DUP3 DUP3 SLOAD PUSH2 0xA24 SWAP2 SWAP1 PUSH2 0x394E JUMP JUMPDEST SWAP3 POP POP DUP2 SWAP1 SSTORE POP PUSH32 0xE4F13824473BB5D7C83A33648A5B781337DB89C57CDFDB2CAF2C87A9CA0391F6 CALLER CALLVALUE PUSH1 0x6 SLOAD SELFBALANCE TIMESTAMP PUSH1 0x40 MLOAD PUSH2 0xA64 SWAP6 SWAP5 SWAP4 SWAP3 SWAP2 SWAP1 PUSH2 0x3982 JUMP JUMPDEST PUSH1 0x40 MLOAD DUP1 SWAP2 SUB SWAP1 LOG1 POP POP JUMP JUMPDEST CALLER PUSH1 0x0 DUP1 JUMPDEST PUSH1 0x1 DUP1 SLOAD SWAP1 POP DUP2 PUSH1 0xFF AND LT ISZERO PUSH2 0xB15 JUMPI PUSH1 0x1 DUP2 PUSH1 0xFF AND DUP2 SLOAD DUP2 LT PUSH2 0xA9C JUMPI PUSH2 0xA9B PUSH2 0x3707 JUMP JUMPDEST JUMPDEST SWAP1 PUSH1 0x0 MSTORE PUSH1 0x20 PUSH1 0x0 KECCAK256 ADD PUSH1 0x0 SWAP1 SLOAD SWAP1 PUSH2 0x100 EXP SWAP1 DIV PUSH20 0xFFFFFFFFFFFFFFFFFFFFFFFFFFFFFFFFFFFFFFFF AND PUSH20 0xFFFFFFFFFFFFFFFFFFFFFFFFFFFFFFFFFFFFFFFF AND DUP4 PUSH20 0xFFFFFFFFFFFFFFFFFFFFFFFFFFFFFFFFFFFFFFFF AND SUB PUSH2 0xB02 JUMPI PUSH1 0x1 SWAP2 POP PUSH2 0xB15 JUMP JUMPDEST DUP1 DUP1 PUSH2 0xB0D SWAP1 PUSH2 0x3772 JUMP JUMPDEST SWAP2 POP POP PUSH2 0xA75 JUMP JUMPDEST POP DUP1 DUP1 PUSH2 0xB6F JUMPI POP PUSH1 0x3 PUSH1 0x0 SWAP1 SLOAD SWAP1 PUSH2 0x100 EXP SWAP1 DIV PUSH20 0xFFFFFFFFFFFFFFFFFFFFFFFFFFFFFFFFFFFFFFFF AND PUSH20 0xFFFFFFFFFFFFFFFFFFFFFFFFFFFFFFFFFFFFFFFF AND DUP3 PUSH20 0xFFFFFFFFFFFFFFFFFFFFFFFFFFFFFFFFFFFFFFFF AND EQ JUMPDEST PUSH2 0xBAE JUMPI PUSH1 0x40 MLOAD PUSH32 0x8C379A000000000000000000000000000000000000000000000000000000000 DUP2 MSTORE PUSH1 0x4 ADD PUSH2 0xBA5 SWAP1 PUSH2 0x380D JUMP JUMPDEST PUSH1 0x40 MLOAD DUP1 SWAP2 SUB SWAP1 REVERT JUMPDEST PUSH1 0x3 PUSH1 0x0 SWAP1 SLOAD SWAP1 PUSH2 0x100 EXP SWAP1 DIV PUSH20 0xFFFFFFFFFFFFFFFFFFFFFFFFFFFFFFFFFFFFFFFF AND PUSH20 0xFFFFFFFFFFFFFFFFFFFFFFFFFFFFFFFFFFFFFFFF AND CALLER PUSH20 0xFFFFFFFFFFFFFFFFFFFFFFFFFFFFFFFFFFFFFFFF AND SUB PUSH2 0xC58 JUMPI PUSH1 0x1 PUSH1 0x7 PUSH1 0x8 PUSH1 0x0 SWAP1 SLOAD SWAP1 PUSH2 0x100 EXP SWAP1 DIV PUSH1 0xFF AND PUSH1 0xFF AND DUP2 SLOAD DUP2 LT PUSH2 0xC2B JUMPI PUSH2 0xC2A PUSH2 0x3707 JUMP JUMPDEST JUMPDEST SWAP1 PUSH1 0x0 MSTORE PUSH1 0x20 PUSH1 0x0 KECCAK256 SWAP1 PUSH1 0x4 MUL ADD PUSH1 0x3 ADD PUSH1 0x1 PUSH2 0x100 EXP DUP2 SLOAD DUP2 PUSH1 0xFF MUL NOT AND SWAP1 DUP4 ISZERO ISZERO MUL OR SWAP1 SSTORE POP PUSH2 0xCA9 JUMP JUMPDEST PUSH1 0x1 PUSH1 0x7 PUSH1 0x8 PUSH1 0x0 SWAP1 SLOAD SWAP1 PUSH2 0x100 EXP SWAP1 DIV PUSH1 0xFF AND PUSH1 0xFF AND DUP2 SLOAD DUP2 LT PUSH2 0xC80 JUMPI PUSH2 0xC7F PUSH2 0x3707 JUMP JUMPDEST JUMPDEST SWAP1 PUSH1 0x0 MSTORE PUSH1 0x20 PUSH1 0x0 KECCAK256 SWAP1 PUSH1 0x4 MUL ADD PUSH1 0x3 ADD PUSH1 0x0 PUSH2 0x100 EXP DUP2 SLOAD DUP2 PUSH1 0xFF MUL NOT AND SWAP1 DUP4 ISZERO ISZERO MUL OR SWAP1 SSTORE POP JUMPDEST PUSH1 0x7 PUSH1 0x8 PUSH1 0x0 SWAP1 SLOAD SWAP1 PUSH2 0x100 EXP SWAP1 DIV PUSH1 0xFF AND PUSH1 0xFF AND DUP2 SLOAD DUP2 LT PUSH2 0xCCF JUMPI PUSH2 0xCCE PUSH2 0x3707 JUMP JUMPDEST JUMPDEST SWAP1 PUSH1 0x0 MSTORE PUSH1 0x20 PUSH1 0x0 KECCAK256 SWAP1 PUSH1 0x4 MUL ADD PUSH1 0x3 ADD PUSH1 0x1 SWAP1 SLOAD SWAP1 PUSH2 0x100 EXP SWAP1 DIV PUSH1 0xFF AND DUP1 ISZERO PUSH2 0xD3B JUMPI POP PUSH1 0x7 PUSH1 0x8 PUSH1 0x0 SWAP1 SLOAD SWAP1 PUSH2 0x100 EXP SWAP1 DIV PUSH1 0xFF AND PUSH1 0xFF AND DUP2 SLOAD DUP2 LT PUSH2 0xD1B JUMPI PUSH2 0xD1A PUSH2 0x3707 JUMP JUMPDEST JUMPDEST SWAP1 PUSH1 0x0 MSTORE PUSH1 0x20 PUSH1 0x0 KECCAK256 SWAP1 PUSH1 0x4 MUL ADD PUSH1 0x3 ADD PUSH1 0x0 SWAP1 SLOAD SWAP1 PUSH2 0x100 EXP SWAP1 DIV PUSH1 0xFF AND JUMPDEST ISZERO PUSH2 0xDF5 JUMPI PUSH1 0x1 PUSH1 0x7 PUSH1 0x8 PUSH1 0x0 SWAP1 SLOAD SWAP1 PUSH2 0x100 EXP SWAP1 DIV PUSH1 0xFF AND PUSH1 0xFF AND DUP2 SLOAD DUP2 LT PUSH2 0xD68 JUMPI PUSH2 0xD67 PUSH2 0x3707 JUMP JUMPDEST JUMPDEST SWAP1 PUSH1 0x0 MSTORE PUSH1 0x20 PUSH1 0x0 KECCAK256 SWAP1 PUSH1 0x4 MUL ADD PUSH1 0x3 ADD PUSH1 0x2 PUSH2 0x100 EXP DUP2 SLOAD DUP2 PUSH1 0xFF MUL NOT AND SWAP1 DUP4 ISZERO ISZERO MUL OR SWAP1 SSTORE POP PUSH1 0x7 DUP1 SLOAD SWAP1 POP PUSH1 0x1 PUSH1 0x8 PUSH1 0x0 SWAP1 SLOAD SWAP1 PUSH2 0x100 EXP SWAP1 DIV PUSH1 0xFF AND PUSH2 0xDB2 SWAP2 SWAP1 PUSH2 0x39D5 JUMP JUMPDEST PUSH1 0xFF AND LT ISZERO PUSH2 0xDF4 JUMPI PUSH1 0x8 PUSH1 0x0 DUP2 DUP2 SWAP1 SLOAD SWAP1 PUSH2 0x100 EXP SWAP1 DIV PUSH1 0xFF AND DUP1 SWAP3 SWAP2 SWAP1 PUSH2 0xDDA SWAP1 PUSH2 0x3772 JUMP JUMPDEST SWAP2 SWAP1 PUSH2 0x100 EXP DUP2 SLOAD DUP2 PUSH1 0xFF MUL NOT AND SWAP1 DUP4 PUSH1 0xFF AND MUL OR SWAP1 SSTORE POP POP JUMPDEST JUMPDEST POP POP JUMP JUMPDEST PUSH2 0xE01 PUSH2 0x2856 JUMP JUMPDEST PUSH1 0x0 JUMPDEST PUSH1 0x7 DUP1 SLOAD SWAP1 POP DUP2 LT ISZERO PUSH2 0xFA3 JUMPI PUSH1 0x7 DUP2 DUP2 SLOAD DUP2 LT PUSH2 0xE25 JUMPI PUSH2 0xE24 PUSH2 0x3707 JUMP JUMPDEST JUMPDEST SWAP1 PUSH1 0x0 MSTORE PUSH1 0x20 PUSH1 0x0 KECCAK256 SWAP1 PUSH1 0x4 MUL ADD PUSH1 0x3 ADD PUSH1 0x3 SWAP1 SLOAD SWAP1 PUSH2 0x100 EXP SWAP1 DIV PUSH1 0xFF AND ISZERO PUSH2 0xF90 JUMPI PUSH1 0x7 DUP2 DUP2 SLOAD DUP2 LT PUSH2 0xE5D JUMPI PUSH2 0xE5C PUSH2 0x3707 JUMP JUMPDEST JUMPDEST SWAP1 PUSH1 0x0 MSTORE PUSH1 0x20 PUSH1 0x0 KECCAK256 SWAP1 PUSH1 0x4 MUL ADD PUSH1 0x40 MLOAD DUP1 PUSH1 0xE0 ADD PUSH1 0x40 MSTORE SWAP1 DUP2 PUSH1 0x0 DUP3 ADD SLOAD DUP2 MSTORE PUSH1 0x20 ADD PUSH1 0x1 DUP3 ADD SLOAD DUP2 MSTORE PUSH1 0x20 ADD PUSH1 0x2 DUP3 ADD DUP1 SLOAD PUSH2 0xE9A SWAP1 PUSH2 0x385C JUMP JUMPDEST DUP1 PUSH1 0x1F ADD PUSH1 0x20 DUP1 SWAP2 DIV MUL PUSH1 0x20 ADD PUSH1 0x40 MLOAD SWAP1 DUP2 ADD PUSH1 0x40 MSTORE DUP1 SWAP3 SWAP2 SWAP1 DUP2 DUP2 MSTORE PUSH1 0x20 ADD DUP3 DUP1 SLOAD PUSH2 0xEC6 SWAP1 PUSH2 0x385C JUMP JUMPDEST DUP1 ISZERO PUSH2 0xF13 JUMPI DUP1 PUSH1 0x1F LT PUSH2 0xEE8 JUMPI PUSH2 0x100 DUP1 DUP4 SLOAD DIV MUL DUP4 MSTORE SWAP2 PUSH1 0x20 ADD SWAP2 PUSH2 0xF13 JUMP JUMPDEST DUP3 ADD SWAP2 SWAP1 PUSH1 0x0 MSTORE PUSH1 0x20 PUSH1 0x0 KECCAK256 SWAP1 JUMPDEST DUP2 SLOAD DUP2 MSTORE SWAP1 PUSH1 0x1 ADD SWAP1 PUSH1 0x20 ADD DUP1 DUP4 GT PUSH2 0xEF6 JUMPI DUP3 SWAP1 SUB PUSH1 0x1F AND DUP3 ADD SWAP2 JUMPDEST POP POP POP POP POP DUP2 MSTORE PUSH1 0x20 ADD PUSH1 0x3 DUP3 ADD PUSH1 0x0 SWAP1 SLOAD SWAP1 PUSH2 0x100 EXP SWAP1 DIV PUSH1 0xFF AND ISZERO ISZERO ISZERO ISZERO DUP2 MSTORE PUSH1 0x20 ADD PUSH1 0x3 DUP3 ADD PUSH1 0x1 SWAP1 SLOAD SWAP1 PUSH2 0x100 EXP SWAP1 DIV PUSH1 0xFF AND ISZERO ISZERO ISZERO ISZERO DUP2 MSTORE PUSH1 0x20 ADD PUSH1 0x3 DUP3 ADD PUSH1 0x2 SWAP1 SLOAD SWAP1 PUSH2 0x100 EXP SWAP1 DIV PUSH1 0xFF AND ISZERO ISZERO ISZERO ISZERO DUP2 MSTORE PUSH1 0x20 ADD PUSH1 0x3 DUP3 ADD PUSH1 0x3 SWAP1 SLOAD SWAP1 PUSH2 0x100 EXP SWAP1 DIV PUSH1 0xFF AND ISZERO ISZERO ISZERO ISZERO DUP2 MSTORE POP POP SWAP2 POP POP PUSH2 0xFF7 JUMP JUMPDEST DUP1 DUP1 PUSH2 0xF9B SWAP1 PUSH2 0x3A0A JUMP JUMPDEST SWAP2 POP POP PUSH2 0xE04 JUMP JUMPDEST POP PUSH1 0x40 MLOAD DUP1 PUSH1 0xE0 ADD PUSH1 0x40 MSTORE DUP1 PUSH1 0x0 DUP2 MSTORE PUSH1 0x20 ADD PUSH1 0x0 DUP2 MSTORE PUSH1 0x20 ADD PUSH1 0x40 MLOAD DUP1 PUSH1 0x20 ADD PUSH1 0x40 MSTORE DUP1 PUSH1 0x0 DUP2 MSTORE POP DUP2 MSTORE PUSH1 0x20 ADD PUSH1 0x0 ISZERO ISZERO DUP2 MSTORE PUSH1 0x20 ADD PUSH1 0x0 ISZERO ISZERO DUP2 MSTORE PUSH1 0x20 ADD PUSH1 0x0 ISZERO ISZERO DUP2 MSTORE PUSH1 0x20 ADD PUSH1 0x0 ISZERO ISZERO DUP2 MSTORE POP SWAP1 POP JUMPDEST SWAP1 JUMP JUMPDEST PUSH1 0x0 DUP2 PUSH1 0x0 DUP1 JUMPDEST PUSH1 0x1 DUP1 SLOAD SWAP1 POP DUP2 PUSH1 0xFF AND LT ISZERO PUSH2 0x10A1 JUMPI PUSH1 0x1 DUP2 PUSH1 0xFF AND DUP2 SLOAD DUP2 LT PUSH2 0x1028 JUMPI PUSH2 0x1027 PUSH2 0x3707 JUMP JUMPDEST JUMPDEST SWAP1 PUSH1 0x0 MSTORE PUSH1 0x20 PUSH1 0x0 KECCAK256 ADD PUSH1 0x0 SWAP1 SLOAD SWAP1 PUSH2 0x100 EXP SWAP1 DIV PUSH20 0xFFFFFFFFFFFFFFFFFFFFFFFFFFFFFFFFFFFFFFFF AND PUSH20 0xFFFFFFFFFFFFFFFFFFFFFFFFFFFFFFFFFFFFFFFF AND DUP4 PUSH20 0xFFFFFFFFFFFFFFFFFFFFFFFFFFFFFFFFFFFFFFFF AND SUB PUSH2 0x108E JUMPI PUSH1 0x1 SWAP2 POP PUSH2 0x10A1 JUMP JUMPDEST DUP1 DUP1 PUSH2 0x1099 SWAP1 PUSH2 0x3772 JUMP JUMPDEST SWAP2 POP POP PUSH2 0x1001 JUMP JUMPDEST POP DUP1 PUSH2 0x10E2 JUMPI PUSH1 0x40 MLOAD PUSH32 0x8C379A000000000000000000000000000000000000000000000000000000000 DUP2 MSTORE PUSH1 0x4 ADD PUSH2 0x10D9 SWAP1 PUSH2 0x38FF JUMP JUMPDEST PUSH1 0x40 MLOAD DUP1 SWAP2 SUB SWAP1 REVERT JUMPDEST PUSH1 0x2 PUSH1 0x0 DUP6 PUSH20 0xFFFFFFFFFFFFFFFFFFFFFFFFFFFFFFFFFFFFFFFF AND PUSH20 0xFFFFFFFFFFFFFFFFFFFFFFFFFFFFFFFFFFFFFFFF AND DUP2 MSTORE PUSH1 0x20 ADD SWAP1 DUP2 MSTORE PUSH1 0x20 ADD PUSH1 0x0 KECCAK256 SLOAD SWAP3 POP POP POP SWAP2 SWAP1 POP JUMP JUMPDEST PUSH1 0x60 PUSH1 0x7 DUP1 SLOAD DUP1 PUSH1 0x20 MUL PUSH1 0x20 ADD PUSH1 0x40 MLOAD SWAP1 DUP2 ADD PUSH1 0x40 MSTORE DUP1 SWAP3 SWAP2 SWAP1 DUP2 DUP2 MSTORE PUSH1 0x20 ADD PUSH1 0x0 SWAP1 JUMPDEST DUP3 DUP3 LT ISZERO PUSH2 0x1293 JUMPI DUP4 DUP3 SWAP1 PUSH1 0x0 MSTORE PUSH1 0x20 PUSH1 0x0 KECCAK256 SWAP1 PUSH1 0x4 MUL ADD PUSH1 0x40 MLOAD DUP1 PUSH1 0xE0 ADD PUSH1 0x40 MSTORE SWAP1 DUP2 PUSH1 0x0 DUP3 ADD SLOAD DUP2 MSTORE PUSH1 0x20 ADD PUSH1 0x1 DUP3 ADD SLOAD DUP2 MSTORE PUSH1 0x20 ADD PUSH1 0x2 DUP3 ADD DUP1 SLOAD PUSH2 0x1196 SWAP1 PUSH2 0x385C JUMP JUMPDEST DUP1 PUSH1 0x1F ADD PUSH1 0x20 DUP1 SWAP2 DIV MUL PUSH1 0x20 ADD PUSH1 0x40 MLOAD SWAP1 DUP2 ADD PUSH1 0x40 MSTORE DUP1 SWAP3 SWAP2 SWAP1 DUP2 DUP2 MSTORE PUSH1 0x20 ADD DUP3 DUP1 SLOAD PUSH2 0x11C2 SWAP1 PUSH2 0x385C JUMP JUMPDEST DUP1 ISZERO PUSH2 0x120F JUMPI DUP1 PUSH1 0x1F LT PUSH2 0x11E4 JUMPI PUSH2 0x100 DUP1 DUP4 SLOAD DIV MUL DUP4 MSTORE SWAP2 PUSH1 0x20 ADD SWAP2 PUSH2 0x120F JUMP JUMPDEST DUP3 ADD SWAP2 SWAP1 PUSH1 0x0 MSTORE PUSH1 0x20 PUSH1 0x0 KECCAK256 SWAP1 JUMPDEST DUP2 SLOAD DUP2 MSTORE SWAP1 PUSH1 0x1 ADD SWAP1 PUSH1 0x20 ADD DUP1 DUP4 GT PUSH2 0x11F2 JUMPI DUP3 SWAP1 SUB PUSH1 0x1F AND DUP3 ADD SWAP2 JUMPDEST POP POP POP POP POP DUP2 MSTORE PUSH1 0x20 ADD PUSH1 0x3 DUP3 ADD PUSH1 0x0 SWAP1 SLOAD SWAP1 PUSH2 0x100 EXP SWAP1 DIV PUSH1 0xFF AND ISZERO ISZERO ISZERO ISZERO DUP2 MSTORE PUSH1 0x20 ADD PUSH1 0x3 DUP3 ADD PUSH1 0x1 SWAP1 SLOAD SWAP1 PUSH2 0x100 EXP SWAP1 DIV PUSH1 0xFF AND ISZERO ISZERO ISZERO ISZERO DUP2 MSTORE PUSH1 0x20 ADD PUSH1 0x3 DUP3 ADD PUSH1 0x2 SWAP1 SLOAD SWAP1 PUSH2 0x100 EXP SWAP1 DIV PUSH1 0xFF AND ISZERO ISZERO ISZERO ISZERO DUP2 MSTORE PUSH1 0x20 ADD PUSH1 0x3 DUP3 ADD PUSH1 0x3 SWAP1 SLOAD SWAP1 PUSH2 0x100 EXP SWAP1 DIV PUSH1 0xFF AND ISZERO ISZERO ISZERO ISZERO DUP2 MSTORE POP POP DUP2 MSTORE PUSH1 0x20 ADD SWAP1 PUSH1 0x1 ADD SWAP1 PUSH2 0x114F JUMP JUMPDEST POP POP POP POP SWAP1 POP SWAP1 JUMP JUMPDEST CALLER PUSH1 0x0 DUP1 JUMPDEST PUSH1 0x1 DUP1 SLOAD SWAP1 POP DUP2 PUSH1 0xFF AND LT ISZERO PUSH2 0x1341 JUMPI PUSH1 0x1 DUP2 PUSH1 0xFF AND DUP2 SLOAD DUP2 LT PUSH2 0x12C8 JUMPI PUSH2 0x12C7 PUSH2 0x3707 JUMP JUMPDEST JUMPDEST SWAP1 PUSH1 0x0 MSTORE PUSH1 0x20 PUSH1 0x0 KECCAK256 ADD PUSH1 0x0 SWAP1 SLOAD SWAP1 PUSH2 0x100 EXP SWAP1 DIV PUSH20 0xFFFFFFFFFFFFFFFFFFFFFFFFFFFFFFFFFFFFFFFF AND PUSH20 0xFFFFFFFFFFFFFFFFFFFFFFFFFFFFFFFFFFFFFFFF AND DUP4 PUSH20 0xFFFFFFFFFFFFFFFFFFFFFFFFFFFFFFFFFFFFFFFF AND SUB PUSH2 0x132E JUMPI PUSH1 0x1 SWAP2 POP PUSH2 0x1341 JUMP JUMPDEST DUP1 DUP1 PUSH2 0x1339 SWAP1 PUSH2 0x3772 JUMP JUMPDEST SWAP2 POP POP PUSH2 0x12A1 JUMP JUMPDEST POP DUP1 DUP1 PUSH2 0x139B JUMPI POP PUSH1 0x3 PUSH1 0x0 SWAP1 SLOAD SWAP1 PUSH2 0x100 EXP SWAP1 DIV PUSH20 0xFFFFFFFFFFFFFFFFFFFFFFFFFFFFFFFFFFFFFFFF AND PUSH20 0xFFFFFFFFFFFFFFFFFFFFFFFFFFFFFFFFFFFFFFFF AND DUP3 PUSH20 0xFFFFFFFFFFFFFFFFFFFFFFFFFFFFFFFFFFFFFFFF AND EQ JUMPDEST PUSH2 0x13DA JUMPI PUSH1 0x40 MLOAD PUSH32 0x8C379A000000000000000000000000000000000000000000000000000000000 DUP2 MSTORE PUSH1 0x4 ADD PUSH2 0x13D1 SWAP1 PUSH2 0x380D JUMP JUMPDEST PUSH1 0x40 MLOAD DUP1 SWAP2 SUB SWAP1 REVERT JUMPDEST DUP3 PUSH1 0xA PUSH1 0x0 CALLER PUSH20 0xFFFFFFFFFFFFFFFFFFFFFFFFFFFFFFFFFFFFFFFF AND PUSH20 0xFFFFFFFFFFFFFFFFFFFFFFFFFFFFFFFFFFFFFFFF AND DUP2 MSTORE PUSH1 0x20 ADD SWAP1 DUP2 MSTORE PUSH1 0x20 ADD PUSH1 0x0 KECCAK256 SWAP1 DUP2 PUSH2 0x1426 SWAP2 SWAP1 PUSH2 0x3BFE JUMP JUMPDEST POP POP POP POP JUMP JUMPDEST CALLER PUSH1 0x0 DUP1 JUMPDEST PUSH1 0x1 DUP1 SLOAD SWAP1 POP DUP2 PUSH1 0xFF AND LT ISZERO PUSH2 0x14D1 JUMPI PUSH1 0x1 DUP2 PUSH1 0xFF AND DUP2 SLOAD DUP2 LT PUSH2 0x1458 JUMPI PUSH2 0x1457 PUSH2 0x3707 JUMP JUMPDEST JUMPDEST SWAP1 PUSH1 0x0 MSTORE PUSH1 0x20 PUSH1 0x0 KECCAK256 ADD PUSH1 0x0 SWAP1 SLOAD SWAP1 PUSH2 0x100 EXP SWAP1 DIV PUSH20 0xFFFFFFFFFFFFFFFFFFFFFFFFFFFFFFFFFFFFFFFF AND PUSH20 0xFFFFFFFFFFFFFFFFFFFFFFFFFFFFFFFFFFFFFFFF AND DUP4 PUSH20 0xFFFFFFFFFFFFFFFFFFFFFFFFFFFFFFFFFFFFFFFF AND SUB PUSH2 0x14BE JUMPI PUSH1 0x1 SWAP2 POP PUSH2 0x14D1 JUMP JUMPDEST DUP1 DUP1 PUSH2 0x14C9 SWAP1 PUSH2 0x3772 JUMP JUMPDEST SWAP2 POP POP PUSH2 0x1431 JUMP JUMPDEST POP DUP1 DUP1 PUSH2 0x152B JUMPI POP PUSH1 0x3 PUSH1 0x0 SWAP1 SLOAD SWAP1 PUSH2 0x100 EXP SWAP1 DIV PUSH20 0xFFFFFFFFFFFFFFFFFFFFFFFFFFFFFFFFFFFFFFFF AND PUSH20 0xFFFFFFFFFFFFFFFFFFFFFFFFFFFFFFFFFFFFFFFF AND DUP3 PUSH20 0xFFFFFFFFFFFFFFFFFFFFFFFFFFFFFFFFFFFFFFFF AND EQ JUMPDEST PUSH2 0x156A JUMPI PUSH1 0x40 MLOAD PUSH32 0x8C379A000000000000000000000000000000000000000000000000000000000 DUP2 MSTORE PUSH1 0x4 ADD PUSH2 0x1561 SWAP1 PUSH2 0x380D JUMP JUMPDEST PUSH1 0x40 MLOAD DUP1 SWAP2 SUB SWAP1 REVERT JUMPDEST PUSH1 0x0 JUMPDEST DUP5 MLOAD DUP2 PUSH1 0xFF AND LT ISZERO PUSH2 0x1644 JUMPI DUP4 DUP2 PUSH1 0xFF AND DUP2 MLOAD DUP2 LT PUSH2 0x158F JUMPI PUSH2 0x158E PUSH2 0x3707 JUMP JUMPDEST JUMPDEST PUSH1 0x20 MUL PUSH1 0x20 ADD ADD MLOAD PUSH1 0x4 DUP7 DUP4 PUSH1 0xFF AND DUP2 MLOAD DUP2 LT PUSH2 0x15AF JUMPI PUSH2 0x15AE PUSH2 0x3707 JUMP JUMPDEST JUMPDEST PUSH1 0x20 MUL PUSH1 0x20 ADD ADD MLOAD PUSH1 0x40 MLOAD PUSH2 0x15C4 SWAP2 SWAP1 PUSH2 0x3D0C JUMP JUMPDEST SWAP1 DUP2 MSTORE PUSH1 0x20 ADD PUSH1 0x40 MLOAD DUP1 SWAP2 SUB SWAP1 KECCAK256 SWAP1 DUP2 PUSH2 0x15DE SWAP2 SWAP1 PUSH2 0x3D89 JUMP JUMPDEST POP PUSH1 0x5 DUP6 DUP3 PUSH1 0xFF AND DUP2 MLOAD DUP2 LT PUSH2 0x15F7 JUMPI PUSH2 0x15F6 PUSH2 0x3707 JUMP JUMPDEST JUMPDEST PUSH1 0x20 MUL PUSH1 0x20 ADD ADD MLOAD SWAP1 DUP1 PUSH1 0x1 DUP2 SLOAD ADD DUP1 DUP3 SSTORE DUP1 SWAP2 POP POP PUSH1 0x1 SWAP1 SUB SWAP1 PUSH1 0x0 MSTORE PUSH1 0x20 PUSH1 0x0 KECCAK256 ADD PUSH1 0x0 SWAP1 SWAP2 SWAP1 SWAP2 SWAP1 SWAP2 POP SWAP1 DUP2 PUSH2 0x1630 SWAP2 SWAP1 PUSH2 0x3BFE JUMP JUMPDEST POP DUP1 DUP1 PUSH2 0x163C SWAP1 PUSH2 0x3772 JUMP JUMPDEST SWAP2 POP POP PUSH2 0x156D JUMP JUMPDEST POP POP POP POP POP JUMP JUMPDEST CALLER PUSH1 0x0 DUP1 JUMPDEST PUSH1 0x1 DUP1 SLOAD SWAP1 POP DUP2 PUSH1 0xFF AND LT ISZERO PUSH2 0x16F0 JUMPI PUSH1 0x1 DUP2 PUSH1 0xFF AND DUP2 SLOAD DUP2 LT PUSH2 0x1677 JUMPI PUSH2 0x1676 PUSH2 0x3707 JUMP JUMPDEST JUMPDEST SWAP1 PUSH1 0x0 MSTORE PUSH1 0x20 PUSH1 0x0 KECCAK256 ADD PUSH1 0x0 SWAP1 SLOAD SWAP1 PUSH2 0x100 EXP SWAP1 DIV PUSH20 0xFFFFFFFFFFFFFFFFFFFFFFFFFFFFFFFFFFFFFFFF AND PUSH20 0xFFFFFFFFFFFFFFFFFFFFFFFFFFFFFFFFFFFFFFFF AND DUP4 PUSH20 0xFFFFFFFFFFFFFFFFFFFFFFFFFFFFFFFFFFFFFFFF AND SUB PUSH2 0x16DD JUMPI PUSH1 0x1 SWAP2 POP PUSH2 0x16F0 JUMP JUMPDEST DUP1 DUP1 PUSH2 0x16E8 SWAP1 PUSH2 0x3772 JUMP JUMPDEST SWAP2 POP POP PUSH2 0x1650 JUMP JUMPDEST POP DUP1 PUSH2 0x1731 JUMPI PUSH1 0x40 MLOAD PUSH32 0x8C379A000000000000000000000000000000000000000000000000000000000 DUP2 MSTORE PUSH1 0x4 ADD PUSH2 0x1728 SWAP1 PUSH2 0x38FF JUMP JUMPDEST PUSH1 0x40 MLOAD DUP1 SWAP2 SUB SWAP1 REVERT JUMPDEST DUP4 PUSH1 0x0 DUP1 JUMPDEST PUSH1 0x1 DUP1 SLOAD SWAP1 POP DUP2 PUSH1 0xFF AND LT ISZERO PUSH2 0x17D6 JUMPI PUSH1 0x1 DUP2 PUSH1 0xFF AND DUP2 SLOAD DUP2 LT PUSH2 0x175D JUMPI PUSH2 0x175C PUSH2 0x3707 JUMP JUMPDEST JUMPDEST SWAP1 PUSH1 0x0 MSTORE PUSH1 0x20 PUSH1 0x0 KECCAK256 ADD PUSH1 0x0 SWAP1 SLOAD SWAP1 PUSH2 0x100 EXP SWAP1 DIV PUSH20 0xFFFFFFFFFFFFFFFFFFFFFFFFFFFFFFFFFFFFFFFF AND PUSH20 0xFFFFFFFFFFFFFFFFFFFFFFFFFFFFFFFFFFFFFFFF AND DUP4 PUSH20 0xFFFFFFFFFFFFFFFFFFFFFFFFFFFFFFFFFFFFFFFF AND SUB PUSH2 0x17C3 JUMPI PUSH1 0x1 SWAP2 POP PUSH2 0x17D6 JUMP JUMPDEST DUP1 DUP1 PUSH2 0x17CE SWAP1 PUSH2 0x3772 JUMP JUMPDEST SWAP2 POP POP PUSH2 0x1736 JUMP JUMPDEST POP DUP1 DUP1 PUSH2 0x1830 JUMPI POP PUSH1 0x3 PUSH1 0x0 SWAP1 SLOAD SWAP1 PUSH2 0x100 EXP SWAP1 DIV PUSH20 0xFFFFFFFFFFFFFFFFFFFFFFFFFFFFFFFFFFFFFFFF AND PUSH20 0xFFFFFFFFFFFFFFFFFFFFFFFFFFFFFFFFFFFFFFFF AND DUP3 PUSH20 0xFFFFFFFFFFFFFFFFFFFFFFFFFFFFFFFFFFFFFFFF AND EQ JUMPDEST PUSH2 0x186F JUMPI PUSH1 0x40 MLOAD PUSH32 0x8C379A000000000000000000000000000000000000000000000000000000000 DUP2 MSTORE PUSH1 0x4 ADD PUSH2 0x1866 SWAP1 PUSH2 0x3ECD JUMP JUMPDEST PUSH1 0x40 MLOAD DUP1 SWAP2 SUB SWAP1 REVERT JUMPDEST DUP5 DUP1 SELFBALANCE LT ISZERO PUSH2 0x18B3 JUMPI PUSH1 0x40 MLOAD PUSH32 0x8C379A000000000000000000000000000000000000000000000000000000000 DUP2 MSTORE PUSH1 0x4 ADD PUSH2 0x18AA SWAP1 PUSH2 0x3F39 JUMP JUMPDEST PUSH1 0x40 MLOAD DUP1 SWAP2 SUB SWAP1 REVERT JUMPDEST PUSH1 0x3 PUSH1 0x0 SWAP1 SLOAD SWAP1 PUSH2 0x100 EXP SWAP1 DIV PUSH20 0xFFFFFFFFFFFFFFFFFFFFFFFFFFFFFFFFFFFFFFFF AND PUSH20 0xFFFFFFFFFFFFFFFFFFFFFFFFFFFFFFFFFFFFFFFF AND DUP8 PUSH20 0xFFFFFFFFFFFFFFFFFFFFFFFFFFFFFFFFFFFFFFFF AND EQ PUSH2 0x19E1 JUMPI DUP6 PUSH1 0x2 PUSH1 0x0 DUP10 PUSH20 0xFFFFFFFFFFFFFFFFFFFFFFFFFFFFFFFFFFFFFFFF AND PUSH20 0xFFFFFFFFFFFFFFFFFFFFFFFFFFFFFFFFFFFFFFFF AND DUP2 MSTORE PUSH1 0x20 ADD SWAP1 DUP2 MSTORE PUSH1 0x20 ADD PUSH1 0x0 KECCAK256 SLOAD LT ISZERO PUSH2 0x198A JUMPI PUSH1 0x40 MLOAD PUSH32 0x8C379A000000000000000000000000000000000000000000000000000000000 DUP2 MSTORE PUSH1 0x4 ADD PUSH2 0x1981 SWAP1 PUSH2 0x3FA5 JUMP JUMPDEST PUSH1 0x40 MLOAD DUP1 SWAP2 SUB SWAP1 REVERT JUMPDEST DUP6 PUSH1 0x2 PUSH1 0x0 DUP10 PUSH20 0xFFFFFFFFFFFFFFFFFFFFFFFFFFFFFFFFFFFFFFFF AND PUSH20 0xFFFFFFFFFFFFFFFFFFFFFFFFFFFFFFFFFFFFFFFF AND DUP2 MSTORE PUSH1 0x20 ADD SWAP1 DUP2 MSTORE PUSH1 0x20 ADD PUSH1 0x0 KECCAK256 PUSH1 0x0 DUP3 DUP3 SLOAD PUSH2 0x19D9 SWAP2 SWAP1 PUSH2 0x3FC5 JUMP JUMPDEST SWAP3 POP POP DUP2 SWAP1 SSTORE POP JUMPDEST DUP7 PUSH20 0xFFFFFFFFFFFFFFFFFFFFFFFFFFFFFFFFFFFFFFFF AND PUSH2 0x8FC DUP8 SWAP1 DUP2 ISZERO MUL SWAP1 PUSH1 0x40 MLOAD PUSH1 0x0 PUSH1 0x40 MLOAD DUP1 DUP4 SUB DUP2 DUP6 DUP9 DUP9 CALL SWAP4 POP POP POP POP ISZERO DUP1 ISZERO PUSH2 0x1A27 JUMPI RETURNDATASIZE PUSH1 0x0 DUP1 RETURNDATACOPY RETURNDATASIZE PUSH1 0x0 REVERT JUMPDEST POP PUSH1 0x1 PUSH1 0x7 PUSH1 0x8 PUSH1 0x0 SWAP1 SLOAD SWAP1 PUSH2 0x100 EXP SWAP1 DIV PUSH1 0xFF AND PUSH1 0xFF AND DUP2 SLOAD DUP2 LT PUSH2 0x1A50 JUMPI PUSH2 0x1A4F PUSH2 0x3707 JUMP JUMPDEST JUMPDEST SWAP1 PUSH1 0x0 MSTORE PUSH1 0x20 PUSH1 0x0 KECCAK256 SWAP1 PUSH1 0x4 MUL ADD PUSH1 0x3 ADD PUSH1 0x3 PUSH2 0x100 EXP DUP2 SLOAD DUP2 PUSH1 0xFF MUL NOT AND SWAP1 DUP4 ISZERO ISZERO MUL OR SWAP1 SSTORE POP PUSH32 0x132717CC7CE0E7288E4E1E75CD3527373DF35D716A6D9D576199B1EE22B15923 DUP8 DUP8 PUSH1 0x6 SLOAD SELFBALANCE TIMESTAMP PUSH1 0x40 MLOAD PUSH2 0x1AB1 SWAP6 SWAP5 SWAP4 SWAP3 SWAP2 SWAP1 PUSH2 0x404E JUMP JUMPDEST PUSH1 0x40 MLOAD DUP1 SWAP2 SUB SWAP1 LOG1 POP POP POP POP POP POP POP JUMP JUMPDEST PUSH1 0x0 DUP1 PUSH1 0x0 SWAP1 SLOAD SWAP1 PUSH2 0x100 EXP SWAP1 DIV PUSH20 0xFFFFFFFFFFFFFFFFFFFFFFFFFFFFFFFFFFFFFFFF AND SWAP1 POP SWAP1 JUMP JUMPDEST PUSH1 0x60 DUP2 PUSH1 0x9 PUSH1 0x40 MLOAD PUSH1 0x20 ADD PUSH2 0x1B00 SWAP2 SWAP1 PUSH2 0x4124 JUMP JUMPDEST PUSH1 0x40 MLOAD PUSH1 0x20 DUP2 DUP4 SUB SUB DUP2 MSTORE SWAP1 PUSH1 0x40 MSTORE DUP1 MLOAD SWAP1 PUSH1 0x20 ADD KECCAK256 DUP2 PUSH1 0x40 MLOAD PUSH1 0x20 ADD PUSH2 0x1B27 SWAP2 SWAP1 PUSH2 0x3D0C JUMP JUMPDEST PUSH1 0x40 MLOAD PUSH1 0x20 DUP2 DUP4 SUB SUB DUP2 MSTORE SWAP1 PUSH1 0x40 MSTORE DUP1 MLOAD SWAP1 PUSH1 0x20 ADD KECCAK256 EQ PUSH2 0x1B7D JUMPI PUSH1 0x40 MLOAD PUSH32 0x8C379A000000000000000000000000000000000000000000000000000000000 DUP2 MSTORE PUSH1 0x4 ADD PUSH2 0x1B74 SWAP1 PUSH2 0x4187 JUMP JUMPDEST PUSH1 0x40 MLOAD DUP1 SWAP2 SUB SWAP1 REVERT JUMPDEST PUSH1 0x0 PUSH1 0x5 DUP1 SLOAD SWAP1 POP PUSH8 0xFFFFFFFFFFFFFFFF DUP2 GT ISZERO PUSH2 0x1B9E JUMPI PUSH2 0x1B9D PUSH2 0x2E91 JUMP JUMPDEST JUMPDEST PUSH1 0x40 MLOAD SWAP1 DUP1 DUP3 MSTORE DUP1 PUSH1 0x20 MUL PUSH1 0x20 ADD DUP3 ADD PUSH1 0x40 MSTORE DUP1 ISZERO PUSH2 0x1BD1 JUMPI DUP2 PUSH1 0x20 ADD JUMPDEST PUSH1 0x60 DUP2 MSTORE PUSH1 0x20 ADD SWAP1 PUSH1 0x1 SWAP1 SUB SWAP1 DUP2 PUSH2 0x1BBC JUMPI SWAP1 POP JUMPDEST POP SWAP1 POP PUSH1 0x0 JUMPDEST PUSH1 0x5 DUP1 SLOAD SWAP1 POP DUP2 LT ISZERO PUSH2 0x1CD9 JUMPI PUSH1 0x4 PUSH1 0x5 DUP3 DUP2 SLOAD DUP2 LT PUSH2 0x1BFA JUMPI PUSH2 0x1BF9 PUSH2 0x3707 JUMP JUMPDEST JUMPDEST SWAP1 PUSH1 0x0 MSTORE PUSH1 0x20 PUSH1 0x0 KECCAK256 ADD PUSH1 0x40 MLOAD PUSH2 0x1C11 SWAP2 SWAP1 PUSH2 0x4124 JUMP JUMPDEST SWAP1 DUP2 MSTORE PUSH1 0x20 ADD PUSH1 0x40 MLOAD DUP1 SWAP2 SUB SWAP1 KECCAK256 DUP1 SLOAD PUSH2 0x1C2A SWAP1 PUSH2 0x385C JUMP JUMPDEST DUP1 PUSH1 0x1F ADD PUSH1 0x20 DUP1 SWAP2 DIV MUL PUSH1 0x20 ADD PUSH1 0x40 MLOAD SWAP1 DUP2 ADD PUSH1 0x40 MSTORE DUP1 SWAP3 SWAP2 SWAP1 DUP2 DUP2 MSTORE PUSH1 0x20 ADD DUP3 DUP1 SLOAD PUSH2 0x1C56 SWAP1 PUSH2 0x385C JUMP JUMPDEST DUP1 ISZERO PUSH2 0x1CA3 JUMPI DUP1 PUSH1 0x1F LT PUSH2 0x1C78 JUMPI PUSH2 0x100 DUP1 DUP4 SLOAD DIV MUL DUP4 MSTORE SWAP2 PUSH1 0x20 ADD SWAP2 PUSH2 0x1CA3 JUMP JUMPDEST DUP3 ADD SWAP2 SWAP1 PUSH1 0x0 MSTORE PUSH1 0x20 PUSH1 0x0 KECCAK256 SWAP1 JUMPDEST DUP2 SLOAD DUP2 MSTORE SWAP1 PUSH1 0x1 ADD SWAP1 PUSH1 0x20 ADD DUP1 DUP4 GT PUSH2 0x1C86 JUMPI DUP3 SWAP1 SUB PUSH1 0x1F AND DUP3 ADD SWAP2 JUMPDEST POP POP POP POP POP DUP3 DUP3 DUP2 MLOAD DUP2 LT PUSH2 0x1CBB JUMPI PUSH2 0x1CBA PUSH2 0x3707 JUMP JUMPDEST JUMPDEST PUSH1 0x20 MUL PUSH1 0x20 ADD ADD DUP2 SWAP1 MSTORE POP DUP1 DUP1 PUSH2 0x1CD1 SWAP1 PUSH2 0x3A0A JUMP JUMPDEST SWAP2 POP POP PUSH2 0x1BD7 JUMP JUMPDEST POP DUP1 SWAP3 POP POP POP SWAP2 SWAP1 POP JUMP JUMPDEST CALLER PUSH1 0x0 DUP1 JUMPDEST PUSH1 0x1 DUP1 SLOAD SWAP1 POP DUP2 PUSH1 0xFF AND LT ISZERO PUSH2 0x1D89 JUMPI PUSH1 0x1 DUP2 PUSH1 0xFF AND DUP2 SLOAD DUP2 LT PUSH2 0x1D10 JUMPI PUSH2 0x1D0F PUSH2 0x3707 JUMP JUMPDEST JUMPDEST SWAP1 PUSH1 0x0 MSTORE PUSH1 0x20 PUSH1 0x0 KECCAK256 ADD PUSH1 0x0 SWAP1 SLOAD SWAP1 PUSH2 0x100 EXP SWAP1 DIV PUSH20 0xFFFFFFFFFFFFFFFFFFFFFFFFFFFFFFFFFFFFFFFF AND PUSH20 0xFFFFFFFFFFFFFFFFFFFFFFFFFFFFFFFFFFFFFFFF AND DUP4 PUSH20 0xFFFFFFFFFFFFFFFFFFFFFFFFFFFFFFFFFFFFFFFF AND SUB PUSH2 0x1D76 JUMPI PUSH1 0x1 SWAP2 POP PUSH2 0x1D89 JUMP JUMPDEST DUP1 DUP1 PUSH2 0x1D81 SWAP1 PUSH2 0x3772 JUMP JUMPDEST SWAP2 POP POP PUSH2 0x1CE9 JUMP JUMPDEST POP DUP1 PUSH2 0x1DCA JUMPI PUSH1 0x40 MLOAD PUSH32 0x8C379A000000000000000000000000000000000000000000000000000000000 DUP2 MSTORE PUSH1 0x4 ADD PUSH2 0x1DC1 SWAP1 PUSH2 0x38FF JUMP JUMPDEST PUSH1 0x40 MLOAD DUP1 SWAP2 SUB SWAP1 REVERT JUMPDEST PUSH1 0x0 JUMPDEST DUP4 MLOAD DUP2 PUSH1 0xFF AND LT ISZERO PUSH2 0x1ECE JUMPI PUSH1 0x1 DUP5 DUP3 PUSH1 0xFF AND DUP2 MLOAD DUP2 LT PUSH2 0x1DF1 JUMPI PUSH2 0x1DF0 PUSH2 0x3707 JUMP JUMPDEST JUMPDEST PUSH1 0x20 MUL PUSH1 0x20 ADD ADD MLOAD SWAP1 DUP1 PUSH1 0x1 DUP2 SLOAD ADD DUP1 DUP3 SSTORE DUP1 SWAP2 POP POP PUSH1 0x1 SWAP1 SUB SWAP1 PUSH1 0x0 MSTORE PUSH1 0x20 PUSH1 0x0 KECCAK256 ADD PUSH1 0x0 SWAP1 SWAP2 SWAP1 SWAP2 SWAP1 SWAP2 PUSH2 0x100 EXP DUP2 SLOAD DUP2 PUSH20 0xFFFFFFFFFFFFFFFFFFFFFFFFFFFFFFFFFFFFFFFF MUL NOT AND SWAP1 DUP4 PUSH20 0xFFFFFFFFFFFFFFFFFFFFFFFFFFFFFFFFFFFFFFFF AND MUL OR SWAP1 SSTORE POP PUSH1 0x0 PUSH1 0x2 PUSH1 0x0 DUP7 DUP5 PUSH1 0xFF AND DUP2 MLOAD DUP2 LT PUSH2 0x1E75 JUMPI PUSH2 0x1E74 PUSH2 0x3707 JUMP JUMPDEST JUMPDEST PUSH1 0x20 MUL PUSH1 0x20 ADD ADD MLOAD PUSH20 0xFFFFFFFFFFFFFFFFFFFFFFFFFFFFFFFFFFFFFFFF AND PUSH20 0xFFFFFFFFFFFFFFFFFFFFFFFFFFFFFFFFFFFFFFFF AND DUP2 MSTORE PUSH1 0x20 ADD SWAP1 DUP2 MSTORE PUSH1 0x20 ADD PUSH1 0x0 KECCAK256 DUP2 SWAP1 SSTORE POP DUP1 DUP1 PUSH2 0x1EC6 SWAP1 PUSH2 0x3772 JUMP JUMPDEST SWAP2 POP POP PUSH2 0x1DCD JUMP JUMPDEST POP POP POP POP JUMP JUMPDEST CALLER PUSH1 0x3 PUSH1 0x0 SWAP1 SLOAD SWAP1 PUSH2 0x100 EXP SWAP1 DIV PUSH20 0xFFFFFFFFFFFFFFFFFFFFFFFFFFFFFFFFFFFFFFFF AND PUSH20 0xFFFFFFFFFFFFFFFFFFFFFFFFFFFFFFFFFFFFFFFF AND DUP2 PUSH20 0xFFFFFFFFFFFFFFFFFFFFFFFFFFFFFFFFFFFFFFFF AND EQ PUSH2 0x1F65 JUMPI PUSH1 0x40 MLOAD PUSH32 0x8C379A000000000000000000000000000000000000000000000000000000000 DUP2 MSTORE PUSH1 0x4 ADD PUSH2 0x1F5C SWAP1 PUSH2 0x4219 JUMP JUMPDEST PUSH1 0x40 MLOAD DUP1 SWAP2 SUB SWAP1 REVERT JUMPDEST DUP2 PUSH1 0x3 PUSH1 0x0 PUSH2 0x100 EXP DUP2 SLOAD DUP2 PUSH20 0xFFFFFFFFFFFFFFFFFFFFFFFFFFFFFFFFFFFFFFFF MUL NOT AND SWAP1 DUP4 PUSH20 0xFFFFFFFFFFFFFFFFFFFFFFFFFFFFFFFFFFFFFFFF AND MUL OR SWAP1 SSTORE POP POP POP JUMP JUMPDEST CALLER PUSH1 0x0 DUP1 JUMPDEST PUSH1 0x1 DUP1 SLOAD SWAP1 POP DUP2 PUSH1 0xFF AND LT ISZERO PUSH2 0x204F JUMPI PUSH1 0x1 DUP2 PUSH1 0xFF AND DUP2 SLOAD DUP2 LT PUSH2 0x1FD6 JUMPI PUSH2 0x1FD5 PUSH2 0x3707 JUMP JUMPDEST JUMPDEST SWAP1 PUSH1 0x0 MSTORE PUSH1 0x20 PUSH1 0x0 KECCAK256 ADD PUSH1 0x0 SWAP1 SLOAD SWAP1 PUSH2 0x100 EXP SWAP1 DIV PUSH20 0xFFFFFFFFFFFFFFFFFFFFFFFFFFFFFFFFFFFFFFFF AND PUSH20 0xFFFFFFFFFFFFFFFFFFFFFFFFFFFFFFFFFFFFFFFF AND DUP4 PUSH20 0xFFFFFFFFFFFFFFFFFFFFFFFFFFFFFFFFFFFFFFFF AND SUB PUSH2 0x203C JUMPI PUSH1 0x1 SWAP2 POP PUSH2 0x204F JUMP JUMPDEST DUP1 DUP1 PUSH2 0x2047 SWAP1 PUSH2 0x3772 JUMP JUMPDEST SWAP2 POP POP PUSH2 0x1FAF JUMP JUMPDEST POP DUP1 PUSH2 0x2090 JUMPI PUSH1 0x40 MLOAD PUSH32 0x8C379A000000000000000000000000000000000000000000000000000000000 DUP2 MSTORE PUSH1 0x4 ADD PUSH2 0x2087 SWAP1 PUSH2 0x38FF JUMP JUMPDEST PUSH1 0x40 MLOAD DUP1 SWAP2 SUB SWAP1 REVERT JUMPDEST PUSH1 0x0 JUMPDEST DUP4 MLOAD DUP2 PUSH1 0xFF AND LT ISZERO PUSH2 0x222B JUMPI PUSH1 0x7 PUSH1 0x40 MLOAD DUP1 PUSH1 0xE0 ADD PUSH1 0x40 MSTORE DUP1 DUP7 DUP5 PUSH1 0xFF AND DUP2 MLOAD DUP2 LT PUSH2 0x20C2 JUMPI PUSH2 0x20C1 PUSH2 0x3707 JUMP JUMPDEST JUMPDEST PUSH1 0x20 MUL PUSH1 0x20 ADD ADD MLOAD PUSH1 0x0 ADD MLOAD DUP2 MSTORE PUSH1 0x20 ADD DUP7 DUP5 PUSH1 0xFF AND DUP2 MLOAD DUP2 LT PUSH2 0x20E9 JUMPI PUSH2 0x20E8 PUSH2 0x3707 JUMP JUMPDEST JUMPDEST PUSH1 0x20 MUL PUSH1 0x20 ADD ADD MLOAD PUSH1 0x20 ADD MLOAD DUP2 MSTORE PUSH1 0x20 ADD DUP7 DUP5 PUSH1 0xFF AND DUP2 MLOAD DUP2 LT PUSH2 0x2110 JUMPI PUSH2 0x210F PUSH2 0x3707 JUMP JUMPDEST JUMPDEST PUSH1 0x20 MUL PUSH1 0x20 ADD ADD MLOAD PUSH1 0x40 ADD MLOAD DUP2 MSTORE PUSH1 0x20 ADD PUSH1 0x0 ISZERO ISZERO DUP2 MSTORE PUSH1 0x20 ADD PUSH1 0x0 ISZERO ISZERO DUP2 MSTORE PUSH1 0x20 ADD PUSH1 0x0 ISZERO ISZERO DUP2 MSTORE PUSH1 0x20 ADD PUSH1 0x0 ISZERO ISZERO DUP2 MSTORE POP SWAP1 DUP1 PUSH1 0x1 DUP2 SLOAD ADD DUP1 DUP3 SSTORE DUP1 SWAP2 POP POP PUSH1 0x1 SWAP1 SUB SWAP1 PUSH1 0x0 MSTORE PUSH1 0x20 PUSH1 0x0 KECCAK256 SWAP1 PUSH1 0x4 MUL ADD PUSH1 0x0 SWAP1 SWAP2 SWAP1 SWAP2 SWAP1 SWAP2 POP PUSH1 0x0 DUP3 ADD MLOAD DUP2 PUSH1 0x0 ADD SSTORE PUSH1 0x20 DUP3 ADD MLOAD DUP2 PUSH1 0x1 ADD SSTORE PUSH1 0x40 DUP3 ADD MLOAD DUP2 PUSH1 0x2 ADD SWAP1 DUP2 PUSH2 0x2195 SWAP2 SWAP1 PUSH2 0x3BFE JUMP JUMPDEST POP PUSH1 0x60 DUP3 ADD MLOAD DUP2 PUSH1 0x3 ADD PUSH1 0x0 PUSH2 0x100 EXP DUP2 SLOAD DUP2 PUSH1 0xFF MUL NOT AND SWAP1 DUP4 ISZERO ISZERO MUL OR SWAP1 SSTORE POP PUSH1 0x80 DUP3 ADD MLOAD DUP2 PUSH1 0x3 ADD PUSH1 0x1 PUSH2 0x100 EXP DUP2 SLOAD DUP2 PUSH1 0xFF MUL NOT AND SWAP1 DUP4 ISZERO ISZERO MUL OR SWAP1 SSTORE POP PUSH1 0xA0 DUP3 ADD MLOAD DUP2 PUSH1 0x3 ADD PUSH1 0x2 PUSH2 0x100 EXP DUP2 SLOAD DUP2 PUSH1 0xFF MUL NOT AND SWAP1 DUP4 ISZERO ISZERO MUL OR SWAP1 SSTORE POP PUSH1 0xC0 DUP3 ADD MLOAD DUP2 PUSH1 0x3 ADD PUSH1 0x3 PUSH2 0x100 EXP DUP2 SLOAD DUP2 PUSH1 0xFF MUL NOT AND SWAP1 DUP4 ISZERO ISZERO MUL OR SWAP1 SSTORE POP POP POP DUP1 DUP1 PUSH2 0x2223 SWAP1 PUSH2 0x3772 JUMP JUMPDEST SWAP2 POP POP PUSH2 0x2093 JUMP JUMPDEST POP POP POP POP JUMP JUMPDEST CALLER PUSH1 0x0 DUP1 JUMPDEST PUSH1 0x1 DUP1 SLOAD SWAP1 POP DUP2 PUSH1 0xFF AND LT ISZERO PUSH2 0x22D6 JUMPI PUSH1 0x1 DUP2 PUSH1 0xFF AND DUP2 SLOAD DUP2 LT PUSH2 0x225D JUMPI PUSH2 0x225C PUSH2 0x3707 JUMP JUMPDEST JUMPDEST SWAP1 PUSH1 0x0 MSTORE PUSH1 0x20 PUSH1 0x0 KECCAK256 ADD PUSH1 0x0 SWAP1 SLOAD SWAP1 PUSH2 0x100 EXP SWAP1 DIV PUSH20 0xFFFFFFFFFFFFFFFFFFFFFFFFFFFFFFFFFFFFFFFF AND PUSH20 0xFFFFFFFFFFFFFFFFFFFFFFFFFFFFFFFFFFFFFFFF AND DUP4 PUSH20 0xFFFFFFFFFFFFFFFFFFFFFFFFFFFFFFFFFFFFFFFF AND SUB PUSH2 0x22C3 JUMPI PUSH1 0x1 SWAP2 POP PUSH2 0x22D6 JUMP JUMPDEST DUP1 DUP1 PUSH2 0x22CE SWAP1 PUSH2 0x3772 JUMP JUMPDEST SWAP2 POP POP PUSH2 0x2236 JUMP JUMPDEST POP DUP1 PUSH2 0x2317 JUMPI PUSH1 0x40 MLOAD PUSH32 0x8C379A000000000000000000000000000000000000000000000000000000000 DUP2 MSTORE PUSH1 0x4 ADD PUSH2 0x230E SWAP1 PUSH2 0x38FF JUMP JUMPDEST PUSH1 0x40 MLOAD DUP1 SWAP2 SUB SWAP1 REVERT JUMPDEST DUP3 PUSH1 0x9 SWAP1 DUP2 PUSH2 0x2326 SWAP2 SWAP1 PUSH2 0x3BFE JUMP JUMPDEST POP POP POP POP JUMP JUMPDEST PUSH2 0x2334 PUSH2 0x2856 JUMP JUMPDEST PUSH1 0x7 PUSH1 0x8 PUSH1 0x0 SWAP1 SLOAD SWAP1 PUSH2 0x100 EXP SWAP1 DIV PUSH1 0xFF AND PUSH1 0xFF AND DUP2 SLOAD DUP2 LT PUSH2 0x235A JUMPI PUSH2 0x2359 PUSH2 0x3707 JUMP JUMPDEST JUMPDEST SWAP1 PUSH1 0x0 MSTORE PUSH1 0x20 PUSH1 0x0 KECCAK256 SWAP1 PUSH1 0x4 MUL ADD PUSH1 0x40 MLOAD DUP1 PUSH1 0xE0 ADD PUSH1 0x40 MSTORE SWAP1 DUP2 PUSH1 0x0 DUP3 ADD SLOAD DUP2 MSTORE PUSH1 0x20 ADD PUSH1 0x1 DUP3 ADD SLOAD DUP2 MSTORE PUSH1 0x20 ADD PUSH1 0x2 DUP3 ADD DUP1 SLOAD PUSH2 0x2397 SWAP1 PUSH2 0x385C JUMP JUMPDEST DUP1 PUSH1 0x1F ADD PUSH1 0x20 DUP1 SWAP2 DIV MUL PUSH1 0x20 ADD PUSH1 0x40 MLOAD SWAP1 DUP2 ADD PUSH1 0x40 MSTORE DUP1 SWAP3 SWAP2 SWAP1 DUP2 DUP2 MSTORE PUSH1 0x20 ADD DUP3 DUP1 SLOAD PUSH2 0x23C3 SWAP1 PUSH2 0x385C JUMP JUMPDEST DUP1 ISZERO PUSH2 0x2410 JUMPI DUP1 PUSH1 0x1F LT PUSH2 0x23E5 JUMPI PUSH2 0x100 DUP1 DUP4 SLOAD DIV MUL DUP4 MSTORE SWAP2 PUSH1 0x20 ADD SWAP2 PUSH2 0x2410 JUMP JUMPDEST DUP3 ADD SWAP2 SWAP1 PUSH1 0x0 MSTORE PUSH1 0x20 PUSH1 0x0 KECCAK256 SWAP1 JUMPDEST DUP2 SLOAD DUP2 MSTORE SWAP1 PUSH1 0x1 ADD SWAP1 PUSH1 0x20 ADD DUP1 DUP4 GT PUSH2 0x23F3 JUMPI DUP3 SWAP1 SUB PUSH1 0x1F AND DUP3 ADD SWAP2 JUMPDEST POP POP POP POP POP DUP2 MSTORE PUSH1 0x20 ADD PUSH1 0x3 DUP3 ADD PUSH1 0x0 SWAP1 SLOAD SWAP1 PUSH2 0x100 EXP SWAP1 DIV PUSH1 0xFF AND ISZERO ISZERO ISZERO ISZERO DUP2 MSTORE PUSH1 0x20 ADD PUSH1 0x3 DUP3 ADD PUSH1 0x1 SWAP1 SLOAD SWAP1 PUSH2 0x100 EXP SWAP1 DIV PUSH1 0xFF AND ISZERO ISZERO ISZERO ISZERO DUP2 MSTORE PUSH1 0x20 ADD PUSH1 0x3 DUP3 ADD PUSH1 0x2 SWAP1 SLOAD SWAP1 PUSH2 0x100 EXP SWAP1 DIV PUSH1 0xFF AND ISZERO ISZERO ISZERO ISZERO DUP2 MSTORE PUSH1 0x20 ADD PUSH1 0x3 DUP3 ADD PUSH1 0x3 SWAP1 SLOAD SWAP1 PUSH2 0x100 EXP SWAP1 DIV PUSH1 0xFF AND ISZERO ISZERO ISZERO ISZERO DUP2 MSTORE POP POP SWAP1 POP SWAP1 JUMP JUMPDEST DUP2 PUSH1 0x0 DUP1 JUMPDEST PUSH1 0x1 DUP1 SLOAD SWAP1 POP DUP2 PUSH1 0xFF AND LT ISZERO PUSH2 0x252F JUMPI PUSH1 0x1 DUP2 PUSH1 0xFF AND DUP2 SLOAD DUP2 LT PUSH2 0x24B6 JUMPI PUSH2 0x24B5 PUSH2 0x3707 JUMP JUMPDEST JUMPDEST SWAP1 PUSH1 0x0 MSTORE PUSH1 0x20 PUSH1 0x0 KECCAK256 ADD PUSH1 0x0 SWAP1 SLOAD SWAP1 PUSH2 0x100 EXP SWAP1 DIV PUSH20 0xFFFFFFFFFFFFFFFFFFFFFFFFFFFFFFFFFFFFFFFF AND PUSH20 0xFFFFFFFFFFFFFFFFFFFFFFFFFFFFFFFFFFFFFFFF AND DUP4 PUSH20 0xFFFFFFFFFFFFFFFFFFFFFFFFFFFFFFFFFFFFFFFF AND SUB PUSH2 0x251C JUMPI PUSH1 0x1 SWAP2 POP PUSH2 0x252F JUMP JUMPDEST DUP1 DUP1 PUSH2 0x2527 SWAP1 PUSH2 0x3772 JUMP JUMPDEST SWAP2 POP POP PUSH2 0x248F JUMP JUMPDEST POP DUP1 DUP1 PUSH2 0x2589 JUMPI POP PUSH1 0x3 PUSH1 0x0 SWAP1 SLOAD SWAP1 PUSH2 0x100 EXP SWAP1 DIV PUSH20 0xFFFFFFFFFFFFFFFFFFFFFFFFFFFFFFFFFFFFFFFF AND PUSH20 0xFFFFFFFFFFFFFFFFFFFFFFFFFFFFFFFFFFFFFFFF AND DUP3 PUSH20 0xFFFFFFFFFFFFFFFFFFFFFFFFFFFFFFFFFFFFFFFF AND EQ JUMPDEST PUSH2 0x25C8 JUMPI PUSH1 0x40 MLOAD PUSH32 0x8C379A000000000000000000000000000000000000000000000000000000000 DUP2 MSTORE PUSH1 0x4 ADD PUSH2 0x25BF SWAP1 PUSH2 0x3ECD JUMP JUMPDEST PUSH1 0x40 MLOAD DUP1 SWAP2 SUB SWAP1 REVERT JUMPDEST PUSH1 0x64 DUP4 PUSH1 0x6 SLOAD PUSH2 0x25D8 SWAP2 SWAP1 PUSH2 0x4239 JUMP JUMPDEST PUSH2 0x25E2 SWAP2 SWAP1 PUSH2 0x42AA JUMP JUMPDEST DUP1 SELFBALANCE LT ISZERO PUSH2 0x2625 JUMPI PUSH1 0x40 MLOAD PUSH32 0x8C379A000000000000000000000000000000000000000000000000000000000 DUP2 MSTORE PUSH1 0x4 ADD PUSH2 0x261C SWAP1 PUSH2 0x3F39 JUMP JUMPDEST PUSH1 0x40 MLOAD DUP1 SWAP2 SUB SWAP1 REVERT JUMPDEST PUSH1 0x0 PUSH1 0x64 DUP6 PUSH1 0x6 SLOAD PUSH2 0x2637 SWAP2 SWAP1 PUSH2 0x4239 JUMP JUMPDEST PUSH2 0x2641 SWAP2 SWAP1 PUSH2 0x42AA JUMP JUMPDEST SWAP1 POP PUSH1 0x3 PUSH1 0x0 SWAP1 SLOAD SWAP1 PUSH2 0x100 EXP SWAP1 DIV PUSH20 0xFFFFFFFFFFFFFFFFFFFFFFFFFFFFFFFFFFFFFFFF AND PUSH20 0xFFFFFFFFFFFFFFFFFFFFFFFFFFFFFFFFFFFFFFFF AND DUP7 PUSH20 0xFFFFFFFFFFFFFFFFFFFFFFFFFFFFFFFFFFFFFFFF AND EQ PUSH2 0x2775 JUMPI DUP1 PUSH1 0x2 PUSH1 0x0 DUP9 PUSH20 0xFFFFFFFFFFFFFFFFFFFFFFFFFFFFFFFFFFFFFFFF AND PUSH20 0xFFFFFFFFFFFFFFFFFFFFFFFFFFFFFFFFFFFFFFFF AND DUP2 MSTORE PUSH1 0x20 ADD SWAP1 DUP2 MSTORE PUSH1 0x20 ADD PUSH1 0x0 KECCAK256 SLOAD LT ISZERO PUSH2 0x271A JUMPI PUSH1 0x40 MLOAD PUSH32 0x8C379A000000000000000000000000000000000000000000000000000000000 DUP2 MSTORE PUSH1 0x4 ADD PUSH2 0x2711 SWAP1 PUSH2 0x3FA5 JUMP JUMPDEST PUSH1 0x40 MLOAD DUP1 SWAP2 SUB SWAP1 REVERT JUMPDEST DUP1 PUSH1 0x2 PUSH1 0x0 DUP9 PUSH20 0xFFFFFFFFFFFFFFFFFFFFFFFFFFFFFFFFFFFFFFFF AND PUSH20 0xFFFFFFFFFFFFFFFFFFFFFFFFFFFFFFFFFFFFFFFF AND DUP2 MSTORE PUSH1 0x20 ADD SWAP1 DUP2 MSTORE PUSH1 0x20 ADD PUSH1 0x0 KECCAK256 PUSH1 0x0 DUP3 DUP3 SLOAD PUSH2 0x2769 SWAP2 SWAP1 PUSH2 0x3FC5 JUMP JUMPDEST SWAP3 POP POP DUP2 SWAP1 SSTORE POP PUSH2 0x280D JUMP JUMPDEST DUP6 PUSH20 0xFFFFFFFFFFFFFFFFFFFFFFFFFFFFFFFFFFFFFFFF AND PUSH2 0x8FC DUP3 SWAP1 DUP2 ISZERO MUL SWAP1 PUSH1 0x40 MLOAD PUSH1 0x0 PUSH1 0x40 MLOAD DUP1 DUP4 SUB DUP2 DUP6 DUP9 DUP9 CALL SWAP4 POP POP POP POP ISZERO DUP1 ISZERO PUSH2 0x27BB JUMPI RETURNDATASIZE PUSH1 0x0 DUP1 RETURNDATACOPY RETURNDATASIZE PUSH1 0x0 REVERT JUMPDEST POP PUSH1 0x1 PUSH1 0x7 PUSH1 0x8 PUSH1 0x0 SWAP1 SLOAD SWAP1 PUSH2 0x100 EXP SWAP1 DIV PUSH1 0xFF AND PUSH1 0xFF AND DUP2 SLOAD DUP2 LT PUSH2 0x27E4 JUMPI PUSH2 0x27E3 PUSH2 0x3707 JUMP JUMPDEST JUMPDEST SWAP1 PUSH1 0x0 MSTORE PUSH1 0x20 PUSH1 0x0 KECCAK256 SWAP1 PUSH1 0x4 MUL ADD PUSH1 0x3 ADD PUSH1 0x3 PUSH2 0x100 EXP DUP2 SLOAD DUP2 PUSH1 0xFF MUL NOT AND SWAP1 DUP4 ISZERO ISZERO MUL OR SWAP1 SSTORE POP JUMPDEST PUSH32 0x132717CC7CE0E7288E4E1E75CD3527373DF35D716A6D9D576199B1EE22B15923 DUP7 DUP3 PUSH1 0x6 SLOAD SELFBALANCE TIMESTAMP PUSH1 0x40 MLOAD PUSH2 0x2846 SWAP6 SWAP5 SWAP4 SWAP3 SWAP2 SWAP1 PUSH2 0x404E JUMP JUMPDEST PUSH1 0x40 MLOAD DUP1 SWAP2 SUB SWAP1 LOG1 POP POP POP POP POP POP JUMP JUMPDEST PUSH1 0x40 MLOAD DUP1 PUSH1 0xE0 ADD PUSH1 0x40 MSTORE DUP1 PUSH1 0x0 DUP2 MSTORE PUSH1 0x20 ADD PUSH1 0x0 DUP2 MSTORE PUSH1 0x20 ADD PUSH1 0x60 DUP2 MSTORE PUSH1 0x20 ADD PUSH1 0x0 ISZERO ISZERO DUP2 MSTORE PUSH1 0x20 ADD PUSH1 0x0 ISZERO ISZERO DUP2 MSTORE PUSH1 0x20 ADD PUSH1 0x0 ISZERO ISZERO DUP2 MSTORE PUSH1 0x20 ADD PUSH1 0x0 ISZERO ISZERO DUP2 MSTORE POP SWAP1 JUMP JUMPDEST PUSH1 0x0 DUP2 SWAP1 POP SWAP2 SWAP1 POP JUMP JUMPDEST PUSH2 0x28AE DUP2 PUSH2 0x289B JUMP JUMPDEST DUP3 MSTORE POP POP JUMP JUMPDEST PUSH1 0x0 PUSH1 0x20 DUP3 ADD SWAP1 POP PUSH2 0x28C9 PUSH1 0x0 DUP4 ADD DUP5 PUSH2 0x28A5 JUMP JUMPDEST SWAP3 SWAP2 POP POP JUMP JUMPDEST PUSH1 0x0 PUSH20 0xFFFFFFFFFFFFFFFFFFFFFFFFFFFFFFFFFFFFFFFF DUP3 AND SWAP1 POP SWAP2 SWAP1 POP JUMP JUMPDEST PUSH1 0x0 PUSH2 0x28FA DUP3 PUSH2 0x28CF JUMP JUMPDEST SWAP1 POP SWAP2 SWAP1 POP JUMP JUMPDEST PUSH2 0x290A DUP2 PUSH2 0x28EF JUMP JUMPDEST DUP3 MSTORE POP POP JUMP JUMPDEST PUSH1 0x0 PUSH1 0x20 DUP3 ADD SWAP1 POP PUSH2 0x2925 PUSH1 0x0 DUP4 ADD DUP5 PUSH2 0x2901 JUMP JUMPDEST SWAP3 SWAP2 POP POP JUMP JUMPDEST PUSH1 0x0 PUSH1 0x40 MLOAD SWAP1 POP SWAP1 JUMP JUMPDEST PUSH1 0x0 DUP1 REVERT JUMPDEST PUSH1 0x0 DUP1 REVERT JUMPDEST PUSH2 0x2948 DUP2 PUSH2 0x289B JUMP JUMPDEST DUP2 EQ PUSH2 0x2953 JUMPI PUSH1 0x0 DUP1 REVERT JUMPDEST POP JUMP JUMPDEST PUSH1 0x0 DUP2 CALLDATALOAD SWAP1 POP PUSH2 0x2965 DUP2 PUSH2 0x293F JUMP JUMPDEST SWAP3 SWAP2 POP POP JUMP JUMPDEST PUSH1 0x0 PUSH1 0x20 DUP3 DUP5 SUB SLT ISZERO PUSH2 0x2981 JUMPI PUSH2 0x2980 PUSH2 0x2935 JUMP JUMPDEST JUMPDEST PUSH1 0x0 PUSH2 0x298F DUP5 DUP3 DUP6 ADD PUSH2 0x2956 JUMP JUMPDEST SWAP2 POP POP SWAP3 SWAP2 POP POP JUMP JUMPDEST PUSH2 0x29A1 DUP2 PUSH2 0x28EF JUMP JUMPDEST DUP2 EQ PUSH2 0x29AC JUMPI PUSH1 0x0 DUP1 REVERT JUMPDEST POP JUMP JUMPDEST PUSH1 0x0 DUP2 CALLDATALOAD SWAP1 POP PUSH2 0x29BE DUP2 PUSH2 0x2998 JUMP JUMPDEST SWAP3 SWAP2 POP POP JUMP JUMPDEST PUSH1 0x0 PUSH1 0x20 DUP3 DUP5 SUB SLT ISZERO PUSH2 0x29DA JUMPI PUSH2 0x29D9 PUSH2 0x2935 JUMP JUMPDEST JUMPDEST PUSH1 0x0 PUSH2 0x29E8 DUP5 DUP3 DUP6 ADD PUSH2 0x29AF JUMP JUMPDEST SWAP2 POP POP SWAP3 SWAP2 POP POP JUMP JUMPDEST PUSH1 0x0 DUP2 MLOAD SWAP1 POP SWAP2 SWAP1 POP JUMP JUMPDEST PUSH1 0x0 DUP3 DUP3 MSTORE PUSH1 0x20 DUP3 ADD SWAP1 POP SWAP3 SWAP2 POP POP JUMP JUMPDEST PUSH1 0x0 JUMPDEST DUP4 DUP2 LT ISZERO PUSH2 0x2A2B JUMPI DUP1 DUP3 ADD MLOAD DUP2 DUP5 ADD MSTORE PUSH1 0x20 DUP2 ADD SWAP1 POP PUSH2 0x2A10 JUMP JUMPDEST PUSH1 0x0 DUP5 DUP5 ADD MSTORE POP POP POP POP JUMP JUMPDEST PUSH1 0x0 PUSH1 0x1F NOT PUSH1 0x1F DUP4 ADD AND SWAP1 POP SWAP2 SWAP1 POP JUMP JUMPDEST PUSH1 0x0 PUSH2 0x2A53 DUP3 PUSH2 0x29F1 JUMP JUMPDEST PUSH2 0x2A5D DUP2 DUP6 PUSH2 0x29FC JUMP JUMPDEST SWAP4 POP PUSH2 0x2A6D DUP2 DUP6 PUSH1 0x20 DUP7 ADD PUSH2 0x2A0D JUMP JUMPDEST PUSH2 0x2A76 DUP2 PUSH2 0x2A37 JUMP JUMPDEST DUP5 ADD SWAP2 POP POP SWAP3 SWAP2 POP POP JUMP JUMPDEST PUSH1 0x0 PUSH1 0x20 DUP3 ADD SWAP1 POP DUP2 DUP2 SUB PUSH1 0x0 DUP4 ADD MSTORE PUSH2 0x2A9B DUP2 DUP5 PUSH2 0x2A48 JUMP JUMPDEST SWAP1 POP SWAP3 SWAP2 POP POP JUMP JUMPDEST PUSH1 0x3 DUP2 LT PUSH2 0x2AB0 JUMPI PUSH1 0x0 DUP1 REVERT JUMPDEST POP JUMP JUMPDEST PUSH1 0x0 DUP2 CALLDATALOAD SWAP1 POP PUSH2 0x2AC2 DUP2 PUSH2 0x2AA3 JUMP JUMPDEST SWAP3 SWAP2 POP POP JUMP JUMPDEST PUSH1 0x0 PUSH1 0x20 DUP3 DUP5 SUB SLT ISZERO PUSH2 0x2ADE JUMPI PUSH2 0x2ADD PUSH2 0x2935 JUMP JUMPDEST JUMPDEST PUSH1 0x0 PUSH2 0x2AEC DUP5 DUP3 DUP6 ADD PUSH2 0x2AB3 JUMP JUMPDEST SWAP2 POP POP SWAP3 SWAP2 POP POP JUMP JUMPDEST PUSH1 0x0 DUP2 MLOAD SWAP1 POP SWAP2 SWAP1 POP JUMP JUMPDEST PUSH1 0x0 DUP3 DUP3 MSTORE PUSH1 0x20 DUP3 ADD SWAP1 POP SWAP3 SWAP2 POP POP JUMP JUMPDEST PUSH1 0x0 DUP2 SWAP1 POP PUSH1 0x20 DUP3 ADD SWAP1 POP SWAP2 SWAP1 POP JUMP JUMPDEST PUSH2 0x2B2A DUP2 PUSH2 0x28EF JUMP JUMPDEST DUP3 MSTORE POP POP JUMP JUMPDEST PUSH1 0x0 PUSH2 0x2B3C DUP4 DUP4 PUSH2 0x2B21 JUMP JUMPDEST PUSH1 0x20 DUP4 ADD SWAP1 POP SWAP3 SWAP2 POP POP JUMP JUMPDEST PUSH1 0x0 PUSH1 0x20 DUP3 ADD SWAP1 POP SWAP2 SWAP1 POP JUMP JUMPDEST PUSH1 0x0 PUSH2 0x2B60 DUP3 PUSH2 0x2AF5 JUMP JUMPDEST PUSH2 0x2B6A DUP2 DUP6 PUSH2 0x2B00 JUMP JUMPDEST SWAP4 POP PUSH2 0x2B75 DUP4 PUSH2 0x2B11 JUMP JUMPDEST DUP1 PUSH1 0x0 JUMPDEST DUP4 DUP2 LT ISZERO PUSH2 0x2BA6 JUMPI DUP2 MLOAD PUSH2 0x2B8D DUP9 DUP3 PUSH2 0x2B30 JUMP JUMPDEST SWAP8 POP PUSH2 0x2B98 DUP4 PUSH2 0x2B48 JUMP JUMPDEST SWAP3 POP POP PUSH1 0x1 DUP2 ADD SWAP1 POP PUSH2 0x2B79 JUMP JUMPDEST POP DUP6 SWAP4 POP POP POP POP SWAP3 SWAP2 POP POP JUMP JUMPDEST PUSH1 0x0 PUSH1 0x20 DUP3 ADD SWAP1 POP DUP2 DUP2 SUB PUSH1 0x0 DUP4 ADD MSTORE PUSH2 0x2BCD DUP2 DUP5 PUSH2 0x2B55 JUMP JUMPDEST SWAP1 POP SWAP3 SWAP2 POP POP JUMP JUMPDEST PUSH2 0x2BDE DUP2 PUSH2 0x289B JUMP JUMPDEST DUP3 MSTORE POP POP JUMP JUMPDEST PUSH1 0x0 DUP3 DUP3 MSTORE PUSH1 0x20 DUP3 ADD SWAP1 POP SWAP3 SWAP2 POP POP JUMP JUMPDEST PUSH1 0x0 PUSH2 0x2C00 DUP3 PUSH2 0x29F1 JUMP JUMPDEST PUSH2 0x2C0A DUP2 DUP6 PUSH2 0x2BE4 JUMP JUMPDEST SWAP4 POP PUSH2 0x2C1A DUP2 DUP6 PUSH1 0x20 DUP7 ADD PUSH2 0x2A0D JUMP JUMPDEST PUSH2 0x2C23 DUP2 PUSH2 0x2A37 JUMP JUMPDEST DUP5 ADD SWAP2 POP POP SWAP3 SWAP2 POP POP JUMP JUMPDEST PUSH1 0x0 DUP2 ISZERO ISZERO SWAP1 POP SWAP2 SWAP1 POP JUMP JUMPDEST PUSH2 0x2C43 DUP2 PUSH2 0x2C2E JUMP JUMPDEST DUP3 MSTORE POP POP JUMP JUMPDEST PUSH1 0x0 PUSH1 0xE0 DUP4 ADD PUSH1 0x0 DUP4 ADD MLOAD PUSH2 0x2C61 PUSH1 0x0 DUP7 ADD DUP3 PUSH2 0x2BD5 JUMP JUMPDEST POP PUSH1 0x20 DUP4 ADD MLOAD PUSH2 0x2C74 PUSH1 0x20 DUP7 ADD DUP3 PUSH2 0x2BD5 JUMP JUMPDEST POP PUSH1 0x40 DUP4 ADD MLOAD DUP5 DUP3 SUB PUSH1 0x40 DUP7 ADD MSTORE PUSH2 0x2C8C DUP3 DUP3 PUSH2 0x2BF5 JUMP JUMPDEST SWAP2 POP POP PUSH1 0x60 DUP4 ADD MLOAD PUSH2 0x2CA1 PUSH1 0x60 DUP7 ADD DUP3 PUSH2 0x2C3A JUMP JUMPDEST POP PUSH1 0x80 DUP4 ADD MLOAD PUSH2 0x2CB4 PUSH1 0x80 DUP7 ADD DUP3 PUSH2 0x2C3A JUMP JUMPDEST POP PUSH1 0xA0 DUP4 ADD MLOAD PUSH2 0x2CC7 PUSH1 0xA0 DUP7 ADD DUP3 PUSH2 0x2C3A JUMP JUMPDEST POP PUSH1 0xC0 DUP4 ADD MLOAD PUSH2 0x2CDA PUSH1 0xC0 DUP7 ADD DUP3 PUSH2 0x2C3A JUMP JUMPDEST POP DUP1 SWAP2 POP POP SWAP3 SWAP2 POP POP JUMP JUMPDEST PUSH1 0x0 PUSH1 0x20 DUP3 ADD SWAP1 POP DUP2 DUP2 SUB PUSH1 0x0 DUP4 ADD MSTORE PUSH2 0x2CFF DUP2 DUP5 PUSH2 0x2C49 JUMP JUMPDEST SWAP1 POP SWAP3 SWAP2 POP POP JUMP JUMPDEST PUSH1 0x0 DUP2 MLOAD SWAP1 POP SWAP2 SWAP1 POP JUMP JUMPDEST PUSH1 0x0 DUP3 DUP3 MSTORE PUSH1 0x20 DUP3 ADD SWAP1 POP SWAP3 SWAP2 POP POP JUMP JUMPDEST PUSH1 0x0 DUP2 SWAP1 POP PUSH1 0x20 DUP3 ADD SWAP1 POP SWAP2 SWAP1 POP JUMP JUMPDEST PUSH1 0x0 PUSH1 0xE0 DUP4 ADD PUSH1 0x0 DUP4 ADD MLOAD PUSH2 0x2D4B PUSH1 0x0 DUP7 ADD DUP3 PUSH2 0x2BD5 JUMP JUMPDEST POP PUSH1 0x20 DUP4 ADD MLOAD PUSH2 0x2D5E PUSH1 0x20 DUP7 ADD DUP3 PUSH2 0x2BD5 JUMP JUMPDEST POP PUSH1 0x40 DUP4 ADD MLOAD DUP5 DUP3 SUB PUSH1 0x40 DUP7 ADD MSTORE PUSH2 0x2D76 DUP3 DUP3 PUSH2 0x2BF5 JUMP JUMPDEST SWAP2 POP POP PUSH1 0x60 DUP4 ADD MLOAD PUSH2 0x2D8B PUSH1 0x60 DUP7 ADD DUP3 PUSH2 0x2C3A JUMP JUMPDEST POP PUSH1 0x80 DUP4 ADD MLOAD PUSH2 0x2D9E PUSH1 0x80 DUP7 ADD DUP3 PUSH2 0x2C3A JUMP JUMPDEST POP PUSH1 0xA0 DUP4 ADD MLOAD PUSH2 0x2DB1 PUSH1 0xA0 DUP7 ADD DUP3 PUSH2 0x2C3A JUMP JUMPDEST POP PUSH1 0xC0 DUP4 ADD MLOAD PUSH2 0x2DC4 PUSH1 0xC0 DUP7 ADD DUP3 PUSH2 0x2C3A JUMP JUMPDEST POP DUP1 SWAP2 POP POP SWAP3 SWAP2 POP POP JUMP JUMPDEST PUSH1 0x0 PUSH2 0x2DDB DUP4 DUP4 PUSH2 0x2D33 JUMP JUMPDEST SWAP1 POP SWAP3 SWAP2 POP POP JUMP JUMPDEST PUSH1 0x0 PUSH1 0x20 DUP3 ADD SWAP1 POP SWAP2 SWAP1 POP JUMP JUMPDEST PUSH1 0x0 PUSH2 0x2DFB DUP3 PUSH2 0x2D07 JUMP JUMPDEST PUSH2 0x2E05 DUP2 DUP6 PUSH2 0x2D12 JUMP JUMPDEST SWAP4 POP DUP4 PUSH1 0x20 DUP3 MUL DUP6 ADD PUSH2 0x2E17 DUP6 PUSH2 0x2D23 JUMP JUMPDEST DUP1 PUSH1 0x0 JUMPDEST DUP6 DUP2 LT ISZERO PUSH2 0x2E53 JUMPI DUP5 DUP5 SUB DUP10 MSTORE DUP2 MLOAD PUSH2 0x2E34 DUP6 DUP3 PUSH2 0x2DCF JUMP JUMPDEST SWAP5 POP PUSH2 0x2E3F DUP4 PUSH2 0x2DE3 JUMP JUMPDEST SWAP3 POP PUSH1 0x20 DUP11 ADD SWAP10 POP POP PUSH1 0x1 DUP2 ADD SWAP1 POP PUSH2 0x2E1B JUMP JUMPDEST POP DUP3 SWAP8 POP DUP8 SWAP6 POP POP POP POP POP POP SWAP3 SWAP2 POP POP JUMP JUMPDEST PUSH1 0x0 PUSH1 0x20 DUP3 ADD SWAP1 POP DUP2 DUP2 SUB PUSH1 0x0 DUP4 ADD MSTORE PUSH2 0x2E7F DUP2 DUP5 PUSH2 0x2DF0 JUMP JUMPDEST SWAP1 POP SWAP3 SWAP2 POP POP JUMP JUMPDEST PUSH1 0x0 DUP1 REVERT JUMPDEST PUSH1 0x0 DUP1 REVERT JUMPDEST PUSH32 0x4E487B7100000000000000000000000000000000000000000000000000000000 PUSH1 0x0 MSTORE PUSH1 0x41 PUSH1 0x4 MSTORE PUSH1 0x24 PUSH1 0x0 REVERT JUMPDEST PUSH2 0x2EC9 DUP3 PUSH2 0x2A37 JUMP JUMPDEST DUP2 ADD DUP2 DUP2 LT PUSH8 0xFFFFFFFFFFFFFFFF DUP3 GT OR ISZERO PUSH2 0x2EE8 JUMPI PUSH2 0x2EE7 PUSH2 0x2E91 JUMP JUMPDEST JUMPDEST DUP1 PUSH1 0x40 MSTORE POP POP POP JUMP JUMPDEST PUSH1 0x0 PUSH2 0x2EFB PUSH2 0x292B JUMP JUMPDEST SWAP1 POP PUSH2 0x2F07 DUP3 DUP3 PUSH2 0x2EC0 JUMP JUMPDEST SWAP2 SWAP1 POP JUMP JUMPDEST PUSH1 0x0 PUSH8 0xFFFFFFFFFFFFFFFF DUP3 GT ISZERO PUSH2 0x2F27 JUMPI PUSH2 0x2F26 PUSH2 0x2E91 JUMP JUMPDEST JUMPDEST PUSH2 0x2F30 DUP3 PUSH2 0x2A37 JUMP JUMPDEST SWAP1 POP PUSH1 0x20 DUP2 ADD SWAP1 POP SWAP2 SWAP1 POP JUMP JUMPDEST DUP3 DUP2 DUP4 CALLDATACOPY PUSH1 0x0 DUP4 DUP4 ADD MSTORE POP POP POP JUMP JUMPDEST PUSH1 0x0 PUSH2 0x2F5F PUSH2 0x2F5A DUP5 PUSH2 0x2F0C JUMP JUMPDEST PUSH2 0x2EF1 JUMP JUMPDEST SWAP1 POP DUP3 DUP2 MSTORE PUSH1 0x20 DUP2 ADD DUP5 DUP5 DUP5 ADD GT ISZERO PUSH2 0x2F7B JUMPI PUSH2 0x2F7A PUSH2 0x2E8C JUMP JUMPDEST JUMPDEST PUSH2 0x2F86 DUP5 DUP3 DUP6 PUSH2 0x2F3D JUMP JUMPDEST POP SWAP4 SWAP3 POP POP POP JUMP JUMPDEST PUSH1 0x0 DUP3 PUSH1 0x1F DUP4 ADD SLT PUSH2 0x2FA3 JUMPI PUSH2 0x2FA2 PUSH2 0x2E87 JUMP JUMPDEST JUMPDEST DUP2 CALLDATALOAD PUSH2 0x2FB3 DUP5 DUP3 PUSH1 0x20 DUP7 ADD PUSH2 0x2F4C JUMP JUMPDEST SWAP2 POP POP SWAP3 SWAP2 POP POP JUMP JUMPDEST PUSH1 0x0 PUSH1 0x20 DUP3 DUP5 SUB SLT ISZERO PUSH2 0x2FD2 JUMPI PUSH2 0x2FD1 PUSH2 0x2935 JUMP JUMPDEST JUMPDEST PUSH1 0x0 DUP3 ADD CALLDATALOAD PUSH8 0xFFFFFFFFFFFFFFFF DUP2 GT ISZERO PUSH2 0x2FF0 JUMPI PUSH2 0x2FEF PUSH2 0x293A JUMP JUMPDEST JUMPDEST PUSH2 0x2FFC DUP5 DUP3 DUP6 ADD PUSH2 0x2F8E JUMP JUMPDEST SWAP2 POP POP SWAP3 SWAP2 POP POP JUMP JUMPDEST PUSH1 0x0 PUSH8 0xFFFFFFFFFFFFFFFF DUP3 GT ISZERO PUSH2 0x3020 JUMPI PUSH2 0x301F PUSH2 0x2E91 JUMP JUMPDEST JUMPDEST PUSH1 0x20 DUP3 MUL SWAP1 POP PUSH1 0x20 DUP2 ADD SWAP1 POP SWAP2 SWAP1 POP JUMP JUMPDEST PUSH1 0x0 DUP1 REVERT JUMPDEST PUSH1 0x0 PUSH2 0x3049 PUSH2 0x3044 DUP5 PUSH2 0x3005 JUMP JUMPDEST PUSH2 0x2EF1 JUMP JUMPDEST SWAP1 POP DUP1 DUP4 DUP3 MSTORE PUSH1 0x20 DUP3 ADD SWAP1 POP PUSH1 0x20 DUP5 MUL DUP4 ADD DUP6 DUP2 GT ISZERO PUSH2 0x306C JUMPI PUSH2 0x306B PUSH2 0x3031 JUMP JUMPDEST JUMPDEST DUP4 JUMPDEST DUP2 DUP2 LT ISZERO PUSH2 0x30B3 JUMPI DUP1 CALLDATALOAD PUSH8 0xFFFFFFFFFFFFFFFF DUP2 GT ISZERO PUSH2 0x3091 JUMPI PUSH2 0x3090 PUSH2 0x2E87 JUMP JUMPDEST JUMPDEST DUP1 DUP7 ADD PUSH2 0x309E DUP10 DUP3 PUSH2 0x2F8E JUMP JUMPDEST DUP6 MSTORE PUSH1 0x20 DUP6 ADD SWAP5 POP POP POP PUSH1 0x20 DUP2 ADD SWAP1 POP PUSH2 0x306E JUMP JUMPDEST POP POP POP SWAP4 SWAP3 POP POP POP JUMP JUMPDEST PUSH1 0x0 DUP3 PUSH1 0x1F DUP4 ADD SLT PUSH2 0x30D2 JUMPI PUSH2 0x30D1 PUSH2 0x2E87 JUMP JUMPDEST JUMPDEST DUP2 CALLDATALOAD PUSH2 0x30E2 DUP5 DUP3 PUSH1 0x20 DUP7 ADD PUSH2 0x3036 JUMP JUMPDEST SWAP2 POP POP SWAP3 SWAP2 POP POP JUMP JUMPDEST PUSH1 0x0 PUSH8 0xFFFFFFFFFFFFFFFF DUP3 GT ISZERO PUSH2 0x3106 JUMPI PUSH2 0x3105 PUSH2 0x2E91 JUMP JUMPDEST JUMPDEST PUSH1 0x20 DUP3 MUL SWAP1 POP PUSH1 0x20 DUP2 ADD SWAP1 POP SWAP2 SWAP1 POP JUMP JUMPDEST PUSH1 0x0 PUSH8 0xFFFFFFFFFFFFFFFF DUP3 GT ISZERO PUSH2 0x3132 JUMPI PUSH2 0x3131 PUSH2 0x2E91 JUMP JUMPDEST JUMPDEST PUSH2 0x313B DUP3 PUSH2 0x2A37 JUMP JUMPDEST SWAP1 POP PUSH1 0x20 DUP2 ADD SWAP1 POP SWAP2 SWAP1 POP JUMP JUMPDEST PUSH1 0x0 PUSH2 0x315B PUSH2 0x3156 DUP5 PUSH2 0x3117 JUMP JUMPDEST PUSH2 0x2EF1 JUMP JUMPDEST SWAP1 POP DUP3 DUP2 MSTORE PUSH1 0x20 DUP2 ADD DUP5 DUP5 DUP5 ADD GT ISZERO PUSH2 0x3177 JUMPI PUSH2 0x3176 PUSH2 0x2E8C JUMP JUMPDEST JUMPDEST PUSH2 0x3182 DUP5 DUP3 DUP6 PUSH2 0x2F3D JUMP JUMPDEST POP SWAP4 SWAP3 POP POP POP JUMP JUMPDEST PUSH1 0x0 DUP3 PUSH1 0x1F DUP4 ADD SLT PUSH2 0x319F JUMPI PUSH2 0x319E PUSH2 0x2E87 JUMP JUMPDEST JUMPDEST DUP2 CALLDATALOAD PUSH2 0x31AF DUP5 DUP3 PUSH1 0x20 DUP7 ADD PUSH2 0x3148 JUMP JUMPDEST SWAP2 POP POP SWAP3 SWAP2 POP POP JUMP JUMPDEST PUSH1 0x0 PUSH2 0x31CB PUSH2 0x31C6 DUP5 PUSH2 0x30EB JUMP JUMPDEST PUSH2 0x2EF1 JUMP JUMPDEST SWAP1 POP DUP1 DUP4 DUP3 MSTORE PUSH1 0x20 DUP3 ADD SWAP1 POP PUSH1 0x20 DUP5 MUL DUP4 ADD DUP6 DUP2 GT ISZERO PUSH2 0x31EE JUMPI PUSH2 0x31ED PUSH2 0x3031 JUMP JUMPDEST JUMPDEST DUP4 JUMPDEST DUP2 DUP2 LT ISZERO PUSH2 0x3235 JUMPI DUP1 CALLDATALOAD PUSH8 0xFFFFFFFFFFFFFFFF DUP2 GT ISZERO PUSH2 0x3213 JUMPI PUSH2 0x3212 PUSH2 0x2E87 JUMP JUMPDEST JUMPDEST DUP1 DUP7 ADD PUSH2 0x3220 DUP10 DUP3 PUSH2 0x318A JUMP JUMPDEST DUP6 MSTORE PUSH1 0x20 DUP6 ADD SWAP5 POP POP POP PUSH1 0x20 DUP2 ADD SWAP1 POP PUSH2 0x31F0 JUMP JUMPDEST POP POP POP SWAP4 SWAP3 POP POP POP JUMP JUMPDEST PUSH1 0x0 DUP3 PUSH1 0x1F DUP4 ADD SLT PUSH2 0x3254 JUMPI PUSH2 0x3253 PUSH2 0x2E87 JUMP JUMPDEST JUMPDEST DUP2 CALLDATALOAD PUSH2 0x3264 DUP5 DUP3 PUSH1 0x20 DUP7 ADD PUSH2 0x31B8 JUMP JUMPDEST SWAP2 POP POP SWAP3 SWAP2 POP POP JUMP JUMPDEST PUSH1 0x0 DUP1 PUSH1 0x40 DUP4 DUP6 SUB SLT ISZERO PUSH2 0x3284 JUMPI PUSH2 0x3283 PUSH2 0x2935 JUMP JUMPDEST JUMPDEST PUSH1 0x0 DUP4 ADD CALLDATALOAD PUSH8 0xFFFFFFFFFFFFFFFF DUP2 GT ISZERO PUSH2 0x32A2 JUMPI PUSH2 0x32A1 PUSH2 0x293A JUMP JUMPDEST JUMPDEST PUSH2 0x32AE DUP6 DUP3 DUP7 ADD PUSH2 0x30BD JUMP JUMPDEST SWAP3 POP POP PUSH1 0x20 DUP4 ADD CALLDATALOAD PUSH8 0xFFFFFFFFFFFFFFFF DUP2 GT ISZERO PUSH2 0x32CF JUMPI PUSH2 0x32CE PUSH2 0x293A JUMP JUMPDEST JUMPDEST PUSH2 0x32DB DUP6 DUP3 DUP7 ADD PUSH2 0x323F JUMP JUMPDEST SWAP2 POP POP SWAP3 POP SWAP3 SWAP1 POP JUMP JUMPDEST PUSH1 0x0 PUSH2 0x32F0 DUP3 PUSH2 0x28CF JUMP JUMPDEST SWAP1 POP SWAP2 SWAP1 POP JUMP JUMPDEST PUSH2 0x3300 DUP2 PUSH2 0x32E5 JUMP JUMPDEST DUP2 EQ PUSH2 0x330B JUMPI PUSH1 0x0 DUP1 REVERT JUMPDEST POP JUMP JUMPDEST PUSH1 0x0 DUP2 CALLDATALOAD SWAP1 POP PUSH2 0x331D DUP2 PUSH2 0x32F7 JUMP JUMPDEST SWAP3 SWAP2 POP POP JUMP JUMPDEST PUSH1 0x0 DUP1 PUSH1 0x40 DUP4 DUP6 SUB SLT ISZERO PUSH2 0x333A JUMPI PUSH2 0x3339 PUSH2 0x2935 JUMP JUMPDEST JUMPDEST PUSH1 0x0 PUSH2 0x3348 DUP6 DUP3 DUP7 ADD PUSH2 0x330E JUMP JUMPDEST SWAP3 POP POP PUSH1 0x20 PUSH2 0x3359 DUP6 DUP3 DUP7 ADD PUSH2 0x2956 JUMP JUMPDEST SWAP2 POP POP SWAP3 POP SWAP3 SWAP1 POP JUMP JUMPDEST PUSH1 0x0 DUP2 MLOAD SWAP1 POP SWAP2 SWAP1 POP JUMP JUMPDEST PUSH1 0x0 DUP3 DUP3 MSTORE PUSH1 0x20 DUP3 ADD SWAP1 POP SWAP3 SWAP2 POP POP JUMP JUMPDEST PUSH1 0x0 DUP2 SWAP1 POP PUSH1 0x20 DUP3 ADD SWAP1 POP SWAP2 SWAP1 POP JUMP JUMPDEST PUSH1 0x0 PUSH2 0x339B DUP4 DUP4 PUSH2 0x2BF5 JUMP JUMPDEST SWAP1 POP SWAP3 SWAP2 POP POP JUMP JUMPDEST PUSH1 0x0 PUSH1 0x20 DUP3 ADD SWAP1 POP SWAP2 SWAP1 POP JUMP JUMPDEST PUSH1 0x0 PUSH2 0x33BB DUP3 PUSH2 0x3363 JUMP JUMPDEST PUSH2 0x33C5 DUP2 DUP6 PUSH2 0x336E JUMP JUMPDEST SWAP4 POP DUP4 PUSH1 0x20 DUP3 MUL DUP6 ADD PUSH2 0x33D7 DUP6 PUSH2 0x337F JUMP JUMPDEST DUP1 PUSH1 0x0 JUMPDEST DUP6 DUP2 LT ISZERO PUSH2 0x3413 JUMPI DUP5 DUP5 SUB DUP10 MSTORE DUP2 MLOAD PUSH2 0x33F4 DUP6 DUP3 PUSH2 0x338F JUMP JUMPDEST SWAP5 POP PUSH2 0x33FF DUP4 PUSH2 0x33A3 JUMP JUMPDEST SWAP3 POP PUSH1 0x20 DUP11 ADD SWAP10 POP POP PUSH1 0x1 DUP2 ADD SWAP1 POP PUSH2 0x33DB JUMP JUMPDEST POP DUP3 SWAP8 POP DUP8 SWAP6 POP POP POP POP POP POP SWAP3 SWAP2 POP POP JUMP JUMPDEST PUSH1 0x0 PUSH1 0x20 DUP3 ADD SWAP1 POP DUP2 DUP2 SUB PUSH1 0x0 DUP4 ADD MSTORE PUSH2 0x343F DUP2 DUP5 PUSH2 0x33B0 JUMP JUMPDEST SWAP1 POP SWAP3 SWAP2 POP POP JUMP JUMPDEST PUSH1 0x0 PUSH8 0xFFFFFFFFFFFFFFFF DUP3 GT ISZERO PUSH2 0x3462 JUMPI PUSH2 0x3461 PUSH2 0x2E91 JUMP JUMPDEST JUMPDEST PUSH1 0x20 DUP3 MUL SWAP1 POP PUSH1 0x20 DUP2 ADD SWAP1 POP SWAP2 SWAP1 POP JUMP JUMPDEST PUSH1 0x0 PUSH2 0x3486 PUSH2 0x3481 DUP5 PUSH2 0x3447 JUMP JUMPDEST PUSH2 0x2EF1 JUMP JUMPDEST SWAP1 POP DUP1 DUP4 DUP3 MSTORE PUSH1 0x20 DUP3 ADD SWAP1 POP PUSH1 0x20 DUP5 MUL DUP4 ADD DUP6 DUP2 GT ISZERO PUSH2 0x34A9 JUMPI PUSH2 0x34A8 PUSH2 0x3031 JUMP JUMPDEST JUMPDEST DUP4 JUMPDEST DUP2 DUP2 LT ISZERO PUSH2 0x34D2 JUMPI DUP1 PUSH2 0x34BE DUP9 DUP3 PUSH2 0x29AF JUMP JUMPDEST DUP5 MSTORE PUSH1 0x20 DUP5 ADD SWAP4 POP POP PUSH1 0x20 DUP2 ADD SWAP1 POP PUSH2 0x34AB JUMP JUMPDEST POP POP POP SWAP4 SWAP3 POP POP POP JUMP JUMPDEST PUSH1 0x0 DUP3 PUSH1 0x1F DUP4 ADD SLT PUSH2 0x34F1 JUMPI PUSH2 0x34F0 PUSH2 0x2E87 JUMP JUMPDEST JUMPDEST DUP2 CALLDATALOAD PUSH2 0x3501 DUP5 DUP3 PUSH1 0x20 DUP7 ADD PUSH2 0x3473 JUMP JUMPDEST SWAP2 POP POP SWAP3 SWAP2 POP POP JUMP JUMPDEST PUSH1 0x0 PUSH1 0x20 DUP3 DUP5 SUB SLT ISZERO PUSH2 0x3520 JUMPI PUSH2 0x351F PUSH2 0x2935 JUMP JUMPDEST JUMPDEST PUSH1 0x0 DUP3 ADD CALLDATALOAD PUSH8 0xFFFFFFFFFFFFFFFF DUP2 GT ISZERO PUSH2 0x353E JUMPI PUSH2 0x353D PUSH2 0x293A JUMP JUMPDEST JUMPDEST PUSH2 0x354A DUP5 DUP3 DUP6 ADD PUSH2 0x34DC JUMP JUMPDEST SWAP2 POP POP SWAP3 SWAP2 POP POP JUMP JUMPDEST PUSH1 0x0 PUSH8 0xFFFFFFFFFFFFFFFF DUP3 GT ISZERO PUSH2 0x356E JUMPI PUSH2 0x356D PUSH2 0x2E91 JUMP JUMPDEST JUMPDEST PUSH1 0x20 DUP3 MUL SWAP1 POP PUSH1 0x20 DUP2 ADD SWAP1 POP SWAP2 SWAP1 POP JUMP JUMPDEST PUSH1 0x0 DUP1 REVERT JUMPDEST PUSH1 0x0 DUP1 REVERT JUMPDEST PUSH1 0x0 PUSH1 0x60 DUP3 DUP5 SUB SLT ISZERO PUSH2 0x359F JUMPI PUSH2 0x359E PUSH2 0x357F JUMP JUMPDEST JUMPDEST PUSH2 0x35A9 PUSH1 0x60 PUSH2 0x2EF1 JUMP JUMPDEST SWAP1 POP PUSH1 0x0 PUSH2 0x35B9 DUP5 DUP3 DUP6 ADD PUSH2 0x2956 JUMP JUMPDEST PUSH1 0x0 DUP4 ADD MSTORE POP PUSH1 0x20 PUSH2 0x35CD DUP5 DUP3 DUP6 ADD PUSH2 0x2956 JUMP JUMPDEST PUSH1 0x20 DUP4 ADD MSTORE POP PUSH1 0x40 DUP3 ADD CALLDATALOAD PUSH8 0xFFFFFFFFFFFFFFFF DUP2 GT ISZERO PUSH2 0x35F1 JUMPI PUSH2 0x35F0 PUSH2 0x3584 JUMP JUMPDEST JUMPDEST PUSH2 0x35FD DUP5 DUP3 DUP6 ADD PUSH2 0x2F8E JUMP JUMPDEST PUSH1 0x40 DUP4 ADD MSTORE POP SWAP3 SWAP2 POP POP JUMP JUMPDEST PUSH1 0x0 PUSH2 0x361C PUSH2 0x3617 DUP5 PUSH2 0x3553 JUMP JUMPDEST PUSH2 0x2EF1 JUMP JUMPDEST SWAP1 POP DUP1 DUP4 DUP3 MSTORE PUSH1 0x20 DUP3 ADD SWAP1 POP PUSH1 0x20 DUP5 MUL DUP4 ADD DUP6 DUP2 GT ISZERO PUSH2 0x363F JUMPI PUSH2 0x363E PUSH2 0x3031 JUMP JUMPDEST JUMPDEST DUP4 JUMPDEST DUP2 DUP2 LT ISZERO PUSH2 0x3686 JUMPI DUP1 CALLDATALOAD PUSH8 0xFFFFFFFFFFFFFFFF DUP2 GT ISZERO PUSH2 0x3664 JUMPI PUSH2 0x3663 PUSH2 0x2E87 JUMP JUMPDEST JUMPDEST DUP1 DUP7 ADD PUSH2 0x3671 DUP10 DUP3 PUSH2 0x3589 JUMP JUMPDEST DUP6 MSTORE PUSH1 0x20 DUP6 ADD SWAP5 POP POP POP PUSH1 0x20 DUP2 ADD SWAP1 POP PUSH2 0x3641 JUMP JUMPDEST POP POP POP SWAP4 SWAP3 POP POP POP JUMP JUMPDEST PUSH1 0x0 DUP3 PUSH1 0x1F DUP4 ADD SLT PUSH2 0x36A5 JUMPI PUSH2 0x36A4 PUSH2 0x2E87 JUMP JUMPDEST JUMPDEST DUP2 CALLDATALOAD PUSH2 0x36B5 DUP5 DUP3 PUSH1 0x20 DUP7 ADD PUSH2 0x3609 JUMP JUMPDEST SWAP2 POP POP SWAP3 SWAP2 POP POP JUMP JUMPDEST PUSH1 0x0 PUSH1 0x20 DUP3 DUP5 SUB SLT ISZERO PUSH2 0x36D4 JUMPI PUSH2 0x36D3 PUSH2 0x2935 JUMP JUMPDEST JUMPDEST PUSH1 0x0 DUP3 ADD CALLDATALOAD PUSH8 0xFFFFFFFFFFFFFFFF DUP2 GT ISZERO PUSH2 0x36F2 JUMPI PUSH2 0x36F1 PUSH2 0x293A JUMP JUMPDEST JUMPDEST PUSH2 0x36FE DUP5 DUP3 DUP6 ADD PUSH2 0x3690 JUMP JUMPDEST SWAP2 POP POP SWAP3 SWAP2 POP POP JUMP JUMPDEST PUSH32 0x4E487B7100000000000000000000000000000000000000000000000000000000 PUSH1 0x0 MSTORE PUSH1 0x32 PUSH1 0x4 MSTORE PUSH1 0x24 PUSH1 0x0 REVERT JUMPDEST PUSH32 0x4E487B7100000000000000000000000000000000000000000000000000000000 PUSH1 0x0 MSTORE PUSH1 0x11 PUSH1 0x4 MSTORE PUSH1 0x24 PUSH1 0x0 REVERT JUMPDEST PUSH1 0x0 PUSH1 0xFF DUP3 AND SWAP1 POP SWAP2 SWAP1 POP JUMP JUMPDEST PUSH1 0x0 PUSH2 0x377D DUP3 PUSH2 0x3765 JUMP JUMPDEST SWAP2 POP PUSH1 0xFF DUP3 SUB PUSH2 0x3790 JUMPI PUSH2 0x378F PUSH2 0x3736 JUMP JUMPDEST JUMPDEST PUSH1 0x1 DUP3 ADD SWAP1 POP SWAP2 SWAP1 POP JUMP JUMPDEST PUSH32 0x4F6E6C79207061727469636970616E74206F7220737570706C6965722063616E PUSH1 0x0 DUP3 ADD MSTORE PUSH32 0x2063616C6C20746869732066756E6374696F6E00000000000000000000000000 PUSH1 0x20 DUP3 ADD MSTORE POP JUMP JUMPDEST PUSH1 0x0 PUSH2 0x37F7 PUSH1 0x33 DUP4 PUSH2 0x29FC JUMP JUMPDEST SWAP2 POP PUSH2 0x3802 DUP3 PUSH2 0x379B JUMP JUMPDEST PUSH1 0x40 DUP3 ADD SWAP1 POP SWAP2 SWAP1 POP JUMP JUMPDEST PUSH1 0x0 PUSH1 0x20 DUP3 ADD SWAP1 POP DUP2 DUP2 SUB PUSH1 0x0 DUP4 ADD MSTORE PUSH2 0x3826 DUP2 PUSH2 0x37EA JUMP JUMPDEST SWAP1 POP SWAP2 SWAP1 POP JUMP JUMPDEST PUSH32 0x4E487B7100000000000000000000000000000000000000000000000000000000 PUSH1 0x0 MSTORE PUSH1 0x22 PUSH1 0x4 MSTORE PUSH1 0x24 PUSH1 0x0 REVERT JUMPDEST PUSH1 0x0 PUSH1 0x2 DUP3 DIV SWAP1 POP PUSH1 0x1 DUP3 AND DUP1 PUSH2 0x3874 JUMPI PUSH1 0x7F DUP3 AND SWAP2 POP JUMPDEST PUSH1 0x20 DUP3 LT DUP2 SUB PUSH2 0x3887 JUMPI PUSH2 0x3886 PUSH2 0x382D JUMP JUMPDEST JUMPDEST POP SWAP2 SWAP1 POP JUMP JUMPDEST PUSH32 0x4F6E6C79207061727469636970616E7420776974686F757420737570706C6965 PUSH1 0x0 DUP3 ADD MSTORE PUSH32 0x722063616E2063616C6C20746869732066756E6374696F6E0000000000000000 PUSH1 0x20 DUP3 ADD MSTORE POP JUMP JUMPDEST PUSH1 0x0 PUSH2 0x38E9 PUSH1 0x38 DUP4 PUSH2 0x29FC JUMP JUMPDEST SWAP2 POP PUSH2 0x38F4 DUP3 PUSH2 0x388D JUMP JUMPDEST PUSH1 0x40 DUP3 ADD SWAP1 POP SWAP2 SWAP1 POP JUMP JUMPDEST PUSH1 0x0 PUSH1 0x20 DUP3 ADD SWAP1 POP DUP2 DUP2 SUB PUSH1 0x0 DUP4 ADD MSTORE PUSH2 0x3918 DUP2 PUSH2 0x38DC JUMP JUMPDEST SWAP1 POP SWAP2 SWAP1 POP JUMP JUMPDEST PUSH32 0x4E487B7100000000000000000000000000000000000000000000000000000000 PUSH1 0x0 MSTORE PUSH1 0x21 PUSH1 0x4 MSTORE PUSH1 0x24 PUSH1 0x0 REVERT JUMPDEST PUSH1 0x0 PUSH2 0x3959 DUP3 PUSH2 0x289B JUMP JUMPDEST SWAP2 POP PUSH2 0x3964 DUP4 PUSH2 0x289B JUMP JUMPDEST SWAP3 POP DUP3 DUP3 ADD SWAP1 POP DUP1 DUP3 GT ISZERO PUSH2 0x397C JUMPI PUSH2 0x397B PUSH2 0x3736 JUMP JUMPDEST JUMPDEST SWAP3 SWAP2 POP POP JUMP JUMPDEST PUSH1 0x0 PUSH1 0xA0 DUP3 ADD SWAP1 POP PUSH2 0x3997 PUSH1 0x0 DUP4 ADD DUP9 PUSH2 0x2901 JUMP JUMPDEST PUSH2 0x39A4 PUSH1 0x20 DUP4 ADD DUP8 PUSH2 0x28A5 JUMP JUMPDEST PUSH2 0x39B1 PUSH1 0x40 DUP4 ADD DUP7 PUSH2 0x28A5 JUMP JUMPDEST PUSH2 0x39BE PUSH1 0x60 DUP4 ADD DUP6 PUSH2 0x28A5 JUMP JUMPDEST PUSH2 0x39CB PUSH1 0x80 DUP4 ADD DUP5 PUSH2 0x28A5 JUMP JUMPDEST SWAP7 SWAP6 POP POP POP POP POP POP JUMP JUMPDEST PUSH1 0x0 PUSH2 0x39E0 DUP3 PUSH2 0x3765 JUMP JUMPDEST SWAP2 POP PUSH2 0x39EB DUP4 PUSH2 0x3765 JUMP JUMPDEST SWAP3 POP DUP3 DUP3 ADD SWAP1 POP PUSH1 0xFF DUP2 GT ISZERO PUSH2 0x3A04 JUMPI PUSH2 0x3A03 PUSH2 0x3736 JUMP JUMPDEST JUMPDEST SWAP3 SWAP2 POP POP JUMP JUMPDEST PUSH1 0x0 PUSH2 0x3A15 DUP3 PUSH2 0x289B JUMP JUMPDEST SWAP2 POP PUSH32 0xFFFFFFFFFFFFFFFFFFFFFFFFFFFFFFFFFFFFFFFFFFFFFFFFFFFFFFFFFFFFFFFF DUP3 SUB PUSH2 0x3A47 JUMPI PUSH2 0x3A46 PUSH2 0x3736 JUMP JUMPDEST JUMPDEST PUSH1 0x1 DUP3 ADD SWAP1 POP SWAP2 SWAP1 POP JUMP JUMPDEST PUSH1 0x0 DUP2 SWAP1 POP DUP2 PUSH1 0x0 MSTORE PUSH1 0x20 PUSH1 0x0 KECCAK256 SWAP1 POP SWAP2 SWAP1 POP JUMP JUMPDEST PUSH1 0x0 PUSH1 0x20 PUSH1 0x1F DUP4 ADD DIV SWAP1 POP SWAP2 SWAP1 POP JUMP JUMPDEST PUSH1 0x0 DUP3 DUP3 SHL SWAP1 POP SWAP3 SWAP2 POP POP JUMP JUMPDEST PUSH1 0x0 PUSH1 0x8 DUP4 MUL PUSH2 0x3AB4 PUSH32 0xFFFFFFFFFFFFFFFFFFFFFFFFFFFFFFFFFFFFFFFFFFFFFFFFFFFFFFFFFFFFFFFF DUP3 PUSH2 0x3A77 JUMP JUMPDEST PUSH2 0x3ABE DUP7 DUP4 PUSH2 0x3A77 JUMP JUMPDEST SWAP6 POP DUP1 NOT DUP5 AND SWAP4 POP DUP1 DUP7 AND DUP5 OR SWAP3 POP POP POP SWAP4 SWAP3 POP POP POP JUMP JUMPDEST PUSH1 0x0 DUP2 SWAP1 POP SWAP2 SWAP1 POP JUMP JUMPDEST PUSH1 0x0 PUSH2 0x3AFB PUSH2 0x3AF6 PUSH2 0x3AF1 DUP5 PUSH2 0x289B JUMP JUMPDEST PUSH2 0x3AD6 JUMP JUMPDEST PUSH2 0x289B JUMP JUMPDEST SWAP1 POP SWAP2 SWAP1 POP JUMP JUMPDEST PUSH1 0x0 DUP2 SWAP1 POP SWAP2 SWAP1 POP JUMP JUMPDEST PUSH2 0x3B15 DUP4 PUSH2 0x3AE0 JUMP JUMPDEST PUSH2 0x3B29 PUSH2 0x3B21 DUP3 PUSH2 0x3B02 JUMP JUMPDEST DUP5 DUP5 SLOAD PUSH2 0x3A84 JUMP JUMPDEST DUP3 SSTORE POP POP POP POP JUMP JUMPDEST PUSH1 0x0 SWAP1 JUMP JUMPDEST PUSH2 0x3B3E PUSH2 0x3B31 JUMP JUMPDEST PUSH2 0x3B49 DUP2 DUP5 DUP5 PUSH2 0x3B0C JUMP JUMPDEST POP POP POP JUMP JUMPDEST JUMPDEST DUP2 DUP2 LT ISZERO PUSH2 0x3B6D JUMPI PUSH2 0x3B62 PUSH1 0x0 DUP3 PUSH2 0x3B36 JUMP JUMPDEST PUSH1 0x1 DUP2 ADD SWAP1 POP PUSH2 0x3B4F JUMP JUMPDEST POP POP JUMP JUMPDEST PUSH1 0x1F DUP3 GT ISZERO PUSH2 0x3BB2 JUMPI PUSH2 0x3B83 DUP2 PUSH2 0x3A52 JUMP JUMPDEST PUSH2 0x3B8C DUP5 PUSH2 0x3A67 JUMP JUMPDEST DUP2 ADD PUSH1 0x20 DUP6 LT ISZERO PUSH2 0x3B9B JUMPI DUP2 SWAP1 POP JUMPDEST PUSH2 0x3BAF PUSH2 0x3BA7 DUP6 PUSH2 0x3A67 JUMP JUMPDEST DUP4 ADD DUP3 PUSH2 0x3B4E JUMP JUMPDEST POP POP JUMPDEST POP POP POP JUMP JUMPDEST PUSH1 0x0 DUP3 DUP3 SHR SWAP1 POP SWAP3 SWAP2 POP POP JUMP JUMPDEST PUSH1 0x0 PUSH2 0x3BD5 PUSH1 0x0 NOT DUP5 PUSH1 0x8 MUL PUSH2 0x3BB7 JUMP JUMPDEST NOT DUP1 DUP4 AND SWAP2 POP POP SWAP3 SWAP2 POP POP JUMP JUMPDEST PUSH1 0x0 PUSH2 0x3BEE DUP4 DUP4 PUSH2 0x3BC4 JUMP JUMPDEST SWAP2 POP DUP3 PUSH1 0x2 MUL DUP3 OR SWAP1 POP SWAP3 SWAP2 POP POP JUMP JUMPDEST PUSH2 0x3C07 DUP3 PUSH2 0x29F1 JUMP JUMPDEST PUSH8 0xFFFFFFFFFFFFFFFF DUP2 GT ISZERO PUSH2 0x3C20 JUMPI PUSH2 0x3C1F PUSH2 0x2E91 JUMP JUMPDEST JUMPDEST PUSH2 0x3C2A DUP3 SLOAD PUSH2 0x385C JUMP JUMPDEST PUSH2 0x3C35 DUP3 DUP3 DUP6 PUSH2 0x3B71 JUMP JUMPDEST PUSH1 0x0 PUSH1 0x20 SWAP1 POP PUSH1 0x1F DUP4 GT PUSH1 0x1 DUP2 EQ PUSH2 0x3C68 JUMPI PUSH1 0x0 DUP5 ISZERO PUSH2 0x3C56 JUMPI DUP3 DUP8 ADD MLOAD SWAP1 POP JUMPDEST PUSH2 0x3C60 DUP6 DUP3 PUSH2 0x3BE2 JUMP JUMPDEST DUP7 SSTORE POP PUSH2 0x3CC8 JUMP JUMPDEST PUSH1 0x1F NOT DUP5 AND PUSH2 0x3C76 DUP7 PUSH2 0x3A52 JUMP JUMPDEST PUSH1 0x0 JUMPDEST DUP3 DUP2 LT ISZERO PUSH2 0x3C9E JUMPI DUP5 DUP10 ADD MLOAD DUP3 SSTORE PUSH1 0x1 DUP3 ADD SWAP2 POP PUSH1 0x20 DUP6 ADD SWAP5 POP PUSH1 0x20 DUP2 ADD SWAP1 POP PUSH2 0x3C79 JUMP JUMPDEST DUP7 DUP4 LT ISZERO PUSH2 0x3CBB JUMPI DUP5 DUP10 ADD MLOAD PUSH2 0x3CB7 PUSH1 0x1F DUP10 AND DUP3 PUSH2 0x3BC4 JUMP JUMPDEST DUP4 SSTORE POP JUMPDEST PUSH1 0x1 PUSH1 0x2 DUP9 MUL ADD DUP9 SSTORE POP POP POP JUMPDEST POP POP POP POP POP POP JUMP JUMPDEST PUSH1 0x0 DUP2 SWAP1 POP SWAP3 SWAP2 POP POP JUMP JUMPDEST PUSH1 0x0 PUSH2 0x3CE6 DUP3 PUSH2 0x29F1 JUMP JUMPDEST PUSH2 0x3CF0 DUP2 DUP6 PUSH2 0x3CD0 JUMP JUMPDEST SWAP4 POP PUSH2 0x3D00 DUP2 DUP6 PUSH1 0x20 DUP7 ADD PUSH2 0x2A0D JUMP JUMPDEST DUP1 DUP5 ADD SWAP2 POP POP SWAP3 SWAP2 POP POP JUMP JUMPDEST PUSH1 0x0 PUSH2 0x3D18 DUP3 DUP5 PUSH2 0x3CDB JUMP JUMPDEST SWAP2 POP DUP2 SWAP1 POP SWAP3 SWAP2 POP POP JUMP JUMPDEST PUSH1 0x0 DUP2 MLOAD SWAP1 POP SWAP2 SWAP1 POP JUMP JUMPDEST PUSH1 0x0 DUP2 SWAP1 POP DUP2 PUSH1 0x0 MSTORE PUSH1 0x20 PUSH1 0x0 KECCAK256 SWAP1 POP SWAP2 SWAP1 POP JUMP JUMPDEST PUSH1 0x1F DUP3 GT ISZERO PUSH2 0x3D84 JUMPI PUSH2 0x3D55 DUP2 PUSH2 0x3D2E JUMP JUMPDEST PUSH2 0x3D5E DUP5 PUSH2 0x3A67 JUMP JUMPDEST DUP2 ADD PUSH1 0x20 DUP6 LT ISZERO PUSH2 0x3D6D JUMPI DUP2 SWAP1 POP JUMPDEST PUSH2 0x3D81 PUSH2 0x3D79 DUP6 PUSH2 0x3A67 JUMP JUMPDEST DUP4 ADD DUP3 PUSH2 0x3B4E JUMP JUMPDEST POP POP JUMPDEST POP POP POP JUMP JUMPDEST PUSH2 0x3D92 DUP3 PUSH2 0x3D23 JUMP JUMPDEST PUSH8 0xFFFFFFFFFFFFFFFF DUP2 GT ISZERO PUSH2 0x3DAB JUMPI PUSH2 0x3DAA PUSH2 0x2E91 JUMP JUMPDEST JUMPDEST PUSH2 0x3DB5 DUP3 SLOAD PUSH2 0x385C JUMP JUMPDEST PUSH2 0x3DC0 DUP3 DUP3 DUP6 PUSH2 0x3D43 JUMP JUMPDEST PUSH1 0x0 PUSH1 0x20 SWAP1 POP PUSH1 0x1F DUP4 GT PUSH1 0x1 DUP2 EQ PUSH2 0x3DF3 JUMPI PUSH1 0x0 DUP5 ISZERO PUSH2 0x3DE1 JUMPI DUP3 DUP8 ADD MLOAD SWAP1 POP JUMPDEST PUSH2 0x3DEB DUP6 DUP3 PUSH2 0x3BE2 JUMP JUMPDEST DUP7 SSTORE POP PUSH2 0x3E53 JUMP JUMPDEST PUSH1 0x1F NOT DUP5 AND PUSH2 0x3E01 DUP7 PUSH2 0x3D2E JUMP JUMPDEST PUSH1 0x0 JUMPDEST DUP3 DUP2 LT ISZERO PUSH2 0x3E29 JUMPI DUP5 DUP10 ADD MLOAD DUP3 SSTORE PUSH1 0x1 DUP3 ADD SWAP2 POP PUSH1 0x20 DUP6 ADD SWAP5 POP PUSH1 0x20 DUP2 ADD SWAP1 POP PUSH2 0x3E04 JUMP JUMPDEST DUP7 DUP4 LT ISZERO PUSH2 0x3E46 JUMPI DUP5 DUP10 ADD MLOAD PUSH2 0x3E42 PUSH1 0x1F DUP10 AND DUP3 PUSH2 0x3BC4 JUMP JUMPDEST DUP4 SSTORE POP JUMPDEST PUSH1 0x1 PUSH1 0x2 DUP9 MUL ADD DUP9 SSTORE POP POP POP JUMPDEST POP POP POP POP POP POP JUMP JUMPDEST PUSH32 0x4F6E6C79207061727469636970616E74206F7220737570706C6965722063616E PUSH1 0x0 DUP3 ADD MSTORE PUSH32 0x2072656365697665000000000000000000000000000000000000000000000000 PUSH1 0x20 DUP3 ADD MSTORE POP JUMP JUMPDEST PUSH1 0x0 PUSH2 0x3EB7 PUSH1 0x28 DUP4 PUSH2 0x29FC JUMP JUMPDEST SWAP2 POP PUSH2 0x3EC2 DUP3 PUSH2 0x3E5B JUMP JUMPDEST PUSH1 0x40 DUP3 ADD SWAP1 POP SWAP2 SWAP1 POP JUMP JUMPDEST PUSH1 0x0 PUSH1 0x20 DUP3 ADD SWAP1 POP DUP2 DUP2 SUB PUSH1 0x0 DUP4 ADD MSTORE PUSH2 0x3EE6 DUP2 PUSH2 0x3EAA JUMP JUMPDEST SWAP1 POP SWAP2 SWAP1 POP JUMP JUMPDEST PUSH32 0x4E6F7420656E6F75676820657468657273000000000000000000000000000000 PUSH1 0x0 DUP3 ADD MSTORE POP JUMP JUMPDEST PUSH1 0x0 PUSH2 0x3F23 PUSH1 0x11 DUP4 PUSH2 0x29FC JUMP JUMPDEST SWAP2 POP PUSH2 0x3F2E DUP3 PUSH2 0x3EED JUMP JUMPDEST PUSH1 0x20 DUP3 ADD SWAP1 POP SWAP2 SWAP1 POP JUMP JUMPDEST PUSH1 0x0 PUSH1 0x20 DUP3 ADD SWAP1 POP DUP2 DUP2 SUB PUSH1 0x0 DUP4 ADD MSTORE PUSH2 0x3F52 DUP2 PUSH2 0x3F16 JUMP JUMPDEST SWAP1 POP SWAP2 SWAP1 POP JUMP JUMPDEST PUSH32 0x4E6F7420656E6F75676820617373657473000000000000000000000000000000 PUSH1 0x0 DUP3 ADD MSTORE POP JUMP JUMPDEST PUSH1 0x0 PUSH2 0x3F8F PUSH1 0x11 DUP4 PUSH2 0x29FC JUMP JUMPDEST SWAP2 POP PUSH2 0x3F9A DUP3 PUSH2 0x3F59 JUMP JUMPDEST PUSH1 0x20 DUP3 ADD SWAP1 POP SWAP2 SWAP1 POP JUMP JUMPDEST PUSH1 0x0 PUSH1 0x20 DUP3 ADD SWAP1 POP DUP2 DUP2 SUB PUSH1 0x0 DUP4 ADD MSTORE PUSH2 0x3FBE DUP2 PUSH2 0x3F82 JUMP JUMPDEST SWAP1 POP SWAP2 SWAP1 POP JUMP JUMPDEST PUSH1 0x0 PUSH2 0x3FD0 DUP3 PUSH2 0x289B JUMP JUMPDEST SWAP2 POP PUSH2 0x3FDB DUP4 PUSH2 0x289B JUMP JUMPDEST SWAP3 POP DUP3 DUP3 SUB SWAP1 POP DUP2 DUP2 GT ISZERO PUSH2 0x3FF3 JUMPI PUSH2 0x3FF2 PUSH2 0x3736 JUMP JUMPDEST JUMPDEST SWAP3 SWAP2 POP POP JUMP JUMPDEST PUSH1 0x0 PUSH2 0x4014 PUSH2 0x400F PUSH2 0x400A DUP5 PUSH2 0x28CF JUMP JUMPDEST PUSH2 0x3AD6 JUMP JUMPDEST PUSH2 0x28CF JUMP JUMPDEST SWAP1 POP SWAP2 SWAP1 POP JUMP JUMPDEST PUSH1 0x0 PUSH2 0x4026 DUP3 PUSH2 0x3FF9 JUMP JUMPDEST SWAP1 POP SWAP2 SWAP1 POP JUMP JUMPDEST PUSH1 0x0 PUSH2 0x4038 DUP3 PUSH2 0x401B JUMP JUMPDEST SWAP1 POP SWAP2 SWAP1 POP JUMP JUMPDEST PUSH2 0x4048 DUP2 PUSH2 0x402D JUMP JUMPDEST DUP3 MSTORE POP POP JUMP JUMPDEST PUSH1 0x0 PUSH1 0xA0 DUP3 ADD SWAP1 POP PUSH2 0x4063 PUSH1 0x0 DUP4 ADD DUP9 PUSH2 0x403F JUMP JUMPDEST PUSH2 0x4070 PUSH1 0x20 DUP4 ADD DUP8 PUSH2 0x28A5 JUMP JUMPDEST PUSH2 0x407D PUSH1 0x40 DUP4 ADD DUP7 PUSH2 0x28A5 JUMP JUMPDEST PUSH2 0x408A PUSH1 0x60 DUP4 ADD DUP6 PUSH2 0x28A5 JUMP JUMPDEST PUSH2 0x4097 PUSH1 0x80 DUP4 ADD DUP5 PUSH2 0x28A5 JUMP JUMPDEST SWAP7 SWAP6 POP POP POP POP POP POP JUMP JUMPDEST PUSH1 0x0 DUP2 SLOAD PUSH2 0x40AE DUP2 PUSH2 0x385C JUMP JUMPDEST PUSH2 0x40B8 DUP2 DUP7 PUSH2 0x3CD0 JUMP JUMPDEST SWAP5 POP PUSH1 0x1 DUP3 AND PUSH1 0x0 DUP2 EQ PUSH2 0x40D3 JUMPI PUSH1 0x1 DUP2 EQ PUSH2 0x40E8 JUMPI PUSH2 0x411B JUMP JUMPDEST PUSH1 0xFF NOT DUP4 AND DUP7 MSTORE DUP2 ISZERO ISZERO DUP3 MUL DUP7 ADD SWAP4 POP PUSH2 0x411B JUMP JUMPDEST PUSH2 0x40F1 DUP6 PUSH2 0x3A52 JUMP JUMPDEST PUSH1 0x0 JUMPDEST DUP4 DUP2 LT ISZERO PUSH2 0x4113 JUMPI DUP2 SLOAD DUP2 DUP10 ADD MSTORE PUSH1 0x1 DUP3 ADD SWAP2 POP PUSH1 0x20 DUP2 ADD SWAP1 POP PUSH2 0x40F4 JUMP JUMPDEST DUP4 DUP9 ADD SWAP6 POP POP POP JUMPDEST POP POP POP SWAP3 SWAP2 POP POP JUMP JUMPDEST PUSH1 0x0 PUSH2 0x4130 DUP3 DUP5 PUSH2 0x40A1 JUMP JUMPDEST SWAP2 POP DUP2 SWAP1 POP SWAP3 SWAP2 POP POP JUMP JUMPDEST PUSH32 0x50726976617465206B6579206973206E6F7420636F7272656374000000000000 PUSH1 0x0 DUP3 ADD MSTORE POP JUMP JUMPDEST PUSH1 0x0 PUSH2 0x4171 PUSH1 0x1A DUP4 PUSH2 0x29FC JUMP JUMPDEST SWAP2 POP PUSH2 0x417C DUP3 PUSH2 0x413B JUMP JUMPDEST PUSH1 0x20 DUP3 ADD SWAP1 POP SWAP2 SWAP1 POP JUMP JUMPDEST PUSH1 0x0 PUSH1 0x20 DUP3 ADD SWAP1 POP DUP2 DUP2 SUB PUSH1 0x0 DUP4 ADD MSTORE PUSH2 0x41A0 DUP2 PUSH2 0x4164 JUMP JUMPDEST SWAP1 POP SWAP2 SWAP1 POP JUMP JUMPDEST PUSH32 0x4F6E6C7920737570706C6965722063616E2063616C6C20746869732066756E63 PUSH1 0x0 DUP3 ADD MSTORE PUSH32 0x74696F6E00000000000000000000000000000000000000000000000000000000 PUSH1 0x20 DUP3 ADD MSTORE POP JUMP JUMPDEST PUSH1 0x0 PUSH2 0x4203 PUSH1 0x24 DUP4 PUSH2 0x29FC JUMP JUMPDEST SWAP2 POP PUSH2 0x420E DUP3 PUSH2 0x41A7 JUMP JUMPDEST PUSH1 0x40 DUP3 ADD SWAP1 POP SWAP2 SWAP1 POP JUMP JUMPDEST PUSH1 0x0 PUSH1 0x20 DUP3 ADD SWAP1 POP DUP2 DUP2 SUB PUSH1 0x0 DUP4 ADD MSTORE PUSH2 0x4232 DUP2 PUSH2 0x41F6 JUMP JUMPDEST SWAP1 POP SWAP2 SWAP1 POP JUMP JUMPDEST PUSH1 0x0 PUSH2 0x4244 DUP3 PUSH2 0x289B JUMP JUMPDEST SWAP2 POP PUSH2 0x424F DUP4 PUSH2 0x289B JUMP JUMPDEST SWAP3 POP DUP3 DUP3 MUL PUSH2 0x425D DUP2 PUSH2 0x289B JUMP JUMPDEST SWAP2 POP DUP3 DUP3 DIV DUP5 EQ DUP4 ISZERO OR PUSH2 0x4274 JUMPI PUSH2 0x4273 PUSH2 0x3736 JUMP JUMPDEST JUMPDEST POP SWAP3 SWAP2 POP POP JUMP JUMPDEST PUSH32 0x4E487B7100000000000000000000000000000000000000000000000000000000 PUSH1 0x0 MSTORE PUSH1 0x12 PUSH1 0x4 MSTORE PUSH1 0x24 PUSH1 0x0 REVERT JUMPDEST PUSH1 0x0 PUSH2 0x42B5 DUP3 PUSH2 0x289B JUMP JUMPDEST SWAP2 POP PUSH2 0x42C0 DUP4 PUSH2 0x289B JUMP JUMPDEST SWAP3 POP DUP3 PUSH2 0x42D0 JUMPI PUSH2 0x42CF PUSH2 0x427B JUMP JUMPDEST JUMPDEST DUP3 DUP3 DIV SWAP1 POP SWAP3 SWAP2 POP POP JUMP INVALID LOG2 PUSH5 0x6970667358 0x22 SLT KECCAK256 0x27 0xB9 PUSH18 0x924E9B562D25ED46A1215E7EDCDD5B0AA118 DUP4 SWAP13 OR 0xF9 0xDA PUSH23 0x9B50AD3C8864736F6C6343000813003300000000000000 "
        },
        "methodIdentifiers": {
          "confirmStage()": "4bbe765a",
          "getAssets(address)": "742978da",
          "getBalance()": "12065fe0",
          "getContractInformation(string)": "a4477713",
          "getCurrentStage()": "eedbe31d",
          "getNonWithdrawalStage()": "53c659bb",
          "getOwnerAddressWallet()": "9c01b52f",
          "getSignature(address)": "277fc0e9",
          "getStages()": "79655bd0",
          "getSupplierAddressWallet()": "14a24bcf",
          "getTotalBalance()": "12b58349",
          "getUserAddressWallet()": "3f44327a",
          "sendToSmartContract()": "4510fb59",
          "setAddressSupplier(address)": "cdad7205",
          "setInformation(string[],bytes[])": "81bcf830",
          "setPrivateKey(string)": "e0d4f017",
          "setStages((uint256,uint256,string)[])": "d88eab63",
          "setStatus(uint8)": "2e49d78b",
          "setTotal(uint256)": "1f8d1d50",
          "setUsers(address[])": "aa4a7080",
          "sign(string)": "79d6348d",
          "withDrawByCurrency(address,uint256)": "904e3cff",
          "withDrawByPercent(address,uint256)": "fbb05337"
        }
      }
    }
  }
}