{
  "_format": "hh-sol-artifact-1",
  "contractName": "DisputeSmartContract",
  "sourceName": "contracts/DisputeSmartContract.sol",
  "abi": [
    {
      "inputs": [
        {
          "internalType": "address",
          "name": "_supplier",
          "type": "address"
        },
        {
          "internalType": "address",
          "name": "_user",
          "type": "address"
        }
      ],
      "stateMutability": "nonpayable",
      "type": "constructor"
    },
    {
      "stateMutability": "payable",
      "type": "fallback"
    },
    {
      "inputs": [],
      "name": "getBalance",
      "outputs": [
        {
          "internalType": "uint256",
          "name": "",
          "type": "uint256"
        }
      ],
      "stateMutability": "view",
      "type": "function"
    },
    {
      "inputs": [
        {
          "internalType": "address",
          "name": "addressWallet",
          "type": "address"
        }
      ],
      "name": "withdraw",
      "outputs": [],
      "stateMutability": "payable",
      "type": "function"
    },
    {
      "stateMutability": "payable",
      "type": "receive"
    }
  ],
  "bytecode": "0x608060405234801561001057600080fd5b5060405161049a38038061049a8339818101604052810190610032919061011d565b816000806101000a81548173ffffffffffffffffffffffffffffffffffffffff021916908373ffffffffffffffffffffffffffffffffffffffff16021790555080600160006101000a81548173ffffffffffffffffffffffffffffffffffffffff021916908373ffffffffffffffffffffffffffffffffffffffff160217905550505061015d565b600080fd5b600073ffffffffffffffffffffffffffffffffffffffff82169050919050565b60006100ea826100bf565b9050919050565b6100fa816100df565b811461010557600080fd5b50565b600081519050610117816100f1565b92915050565b60008060408385031215610134576101336100ba565b5b600061014285828601610108565b925050602061015385828601610108565b9150509250929050565b61032e8061016c6000396000f3fe60806040526004361061002d5760003560e01c806312065fe01461003657806351cff8d91461006157610034565b3661003457005b005b34801561004257600080fd5b5061004b61007d565b60405161005891906101d0565b60405180910390f35b61007b6004803603810190610076919061024e565b610085565b005b600047905090565b8060008054906101000a900473ffffffffffffffffffffffffffffffffffffffff1673ffffffffffffffffffffffffffffffffffffffff168173ffffffffffffffffffffffffffffffffffffffff16148061012d5750600160009054906101000a900473ffffffffffffffffffffffffffffffffffffffff1673ffffffffffffffffffffffffffffffffffffffff168173ffffffffffffffffffffffffffffffffffffffff16145b61016c576040517f08c379a0000000000000000000000000000000000000000000000000000000008152600401610163906102d8565b60405180910390fd5b8173ffffffffffffffffffffffffffffffffffffffff166108fc479081150290604051600060405180830381858888f193505050501580156101b2573d6000803e3d6000fd5b505050565b6000819050919050565b6101ca816101b7565b82525050565b60006020820190506101e560008301846101c1565b92915050565b600080fd5b600073ffffffffffffffffffffffffffffffffffffffff82169050919050565b600061021b826101f0565b9050919050565b61022b81610210565b811461023657600080fd5b50565b60008135905061024881610222565b92915050565b600060208284031215610264576102636101eb565b5b600061027284828501610239565b91505092915050565b600082825260208201905092915050565b7f596f7520617265206e6f742061207061727469636970616e7400000000000000600082015250565b60006102c260198361027b565b91506102cd8261028c565b602082019050919050565b600060208201905081810360008301526102f1816102b5565b905091905056fea26469706673582212205685fb81b871376689f3e7d5893e5ff2cf33669b9e6cac95c50faab012c04c4564736f6c63430008130033",
  "linkReferences": {},
  "deployedLinkReferences": {}
}