{
  "_format": "hh-sol-artifact-1",
  "contractName": "SupplyChain",
  "sourceName": "contracts/SupplyChain.sol",
  "abi": [
    {
      "inputs": [
        {
          "internalType": "address[]",
          "name": "_user",
          "type": "address[]"
        },
        {
          "internalType": "address",
          "name": "_supplier",
          "type": "address"
        },
        {
          "internalType": "string[]",
          "name": "_keys",
          "type": "string[]"
        },
        {
          "internalType": "bytes[]",
          "name": "_values",
          "type": "bytes[]"
        },
        {
          "internalType": "uint256",
          "name": "_total",
          "type": "uint256"
        }
      ],
      "stateMutability": "nonpayable",
      "type": "constructor"
    },
    {
      "anonymous": false,
      "inputs": [
        {
          "indexed": false,
          "internalType": "address",
          "name": "owner",
          "type": "address"
        },
        {
          "indexed": false,
          "internalType": "address[]",
          "name": "user",
          "type": "address[]"
        },
        {
          "indexed": false,
          "internalType": "address",
          "name": "supplier",
          "type": "address"
        },
        {
          "indexed": false,
          "internalType": "uint256",
          "name": "totalBalance",
          "type": "uint256"
        },
        {
          "indexed": false,
          "internalType": "uint256",
          "name": "currentBalance",
          "type": "uint256"
        },
        {
          "indexed": false,
          "internalType": "uint256",
          "name": "deployAt",
          "type": "uint256"
        }
      ],
      "name": "contractCreated",
      "type": "event"
    },
    {
      "anonymous": false,
      "inputs": [
        {
          "indexed": false,
          "internalType": "address",
          "name": "sender",
          "type": "address"
        },
        {
          "indexed": false,
          "internalType": "uint256",
          "name": "amount",
          "type": "uint256"
        },
        {
          "indexed": false,
          "internalType": "uint256",
          "name": "totalBalance",
          "type": "uint256"
        },
        {
          "indexed": false,
          "internalType": "uint256",
          "name": "currentBalance",
          "type": "uint256"
        },
        {
          "indexed": false,
          "internalType": "uint256",
          "name": "receivedAt",
          "type": "uint256"
        }
      ],
      "name": "received",
      "type": "event"
    },
    {
      "anonymous": false,
      "inputs": [
        {
          "indexed": false,
          "internalType": "address",
          "name": "to",
          "type": "address"
        },
        {
          "indexed": false,
          "internalType": "uint256",
          "name": "amount",
          "type": "uint256"
        },
        {
          "indexed": false,
          "internalType": "uint256",
          "name": "totalBalance",
          "type": "uint256"
        },
        {
          "indexed": false,
          "internalType": "uint256",
          "name": "currentBalance",
          "type": "uint256"
        },
        {
          "indexed": false,
          "internalType": "uint256",
          "name": "widthdrewAt",
          "type": "uint256"
        }
      ],
      "name": "widthdrew",
      "type": "event"
    },
    {
      "inputs": [
        {
          "internalType": "address",
          "name": "_addressWallet",
          "type": "address"
        }
      ],
      "name": "getAssets",
      "outputs": [
        {
          "internalType": "uint256",
          "name": "",
          "type": "uint256"
        }
      ],
      "stateMutability": "view",
      "type": "function"
    },
    {
      "inputs": [],
      "name": "getBalance",
      "outputs": [
        {
          "internalType": "uint256",
          "name": "",
          "type": "uint256"
        }
      ],
      "stateMutability": "view",
      "type": "function"
    },
    {
      "inputs": [],
      "name": "getContractInformation",
      "outputs": [
        {
          "internalType": "bytes[]",
          "name": "",
          "type": "bytes[]"
        }
      ],
      "stateMutability": "view",
      "type": "function"
    },
    {
      "inputs": [],
      "name": "getOwnerAddressWallet",
      "outputs": [
        {
          "internalType": "address",
          "name": "",
          "type": "address"
        }
      ],
      "stateMutability": "view",
      "type": "function"
    },
    {
      "inputs": [],
      "name": "getSupplierAddressWallet",
      "outputs": [
        {
          "internalType": "address",
          "name": "",
          "type": "address"
        }
      ],
      "stateMutability": "view",
      "type": "function"
    },
    {
      "inputs": [],
      "name": "getUserAddressWallet",
      "outputs": [
        {
          "internalType": "address[]",
          "name": "",
          "type": "address[]"
        }
      ],
      "stateMutability": "view",
      "type": "function"
    },
    {
      "inputs": [],
      "name": "sendToSmartContract",
      "outputs": [],
      "stateMutability": "payable",
      "type": "function"
    },
    {
      "inputs": [
        {
          "internalType": "address payable",
          "name": "_addressWallet",
          "type": "address"
        },
        {
          "internalType": "uint256",
          "name": "_amount",
          "type": "uint256"
        }
      ],
      "name": "withDrawByCurrency",
      "outputs": [],
      "stateMutability": "payable",
      "type": "function"
    },
    {
      "inputs": [
        {
          "internalType": "address payable",
          "name": "_addressWallet",
          "type": "address"
        },
        {
          "internalType": "uint256",
          "name": "_percent",
          "type": "uint256"
        }
      ],
      "name": "withDrawByPercent",
      "outputs": [],
      "stateMutability": "payable",
      "type": "function"
    }
  ],
  "bytecode": "0x60806040523480156200001157600080fd5b5060405162002b0438038062002b048339818101604052810190620000379190620008ff565b8060068190555083600360006101000a81548173ffffffffffffffffffffffffffffffffffffffff021916908373ffffffffffffffffffffffffffffffffffffffff160217905550336000806101000a81548173ffffffffffffffffffffffffffffffffffffffff021916908373ffffffffffffffffffffffffffffffffffffffff16021790555060005b85518160ff161015620001cd576001868260ff1681518110620000ea57620000e9620009e4565b5b60200260200101519080600181540180825580915050600190039060005260206000200160009091909190916101000a81548173ffffffffffffffffffffffffffffffffffffffff021916908373ffffffffffffffffffffffffffffffffffffffff160217905550600060026000888460ff1681518110620001715762000170620009e4565b5b602002602001015173ffffffffffffffffffffffffffffffffffffffff1673ffffffffffffffffffffffffffffffffffffffff168152602001908152602001600020819055508080620001c49062000a4f565b915050620000c2565b5060005b83518160ff161015620002bb57828160ff1681518110620001f757620001f6620009e4565b5b60200260200101516004858360ff16815181106200021a5762000219620009e4565b5b602002602001015160405162000231919062000aca565b908152602001604051809103902090816200024d919062000d24565b506005848260ff1681518110620002695762000268620009e4565b5b6020026020010151908060018154018082558091505060019003906000526020600020016000909190919091509081620002a4919062000e70565b508080620002b29062000a4f565b915050620001d1565b507f68e8e16725ae304c7b00b773ba80b94a2ea18bebc9d7cc7ade4f8c4980649ae160008054906101000a900473ffffffffffffffffffffffffffffffffffffffff166001600360009054906101000a900473ffffffffffffffffffffffffffffffffffffffff1660065447426040516200033c96959493929190620010b5565b60405180910390a1505050505062001129565b6000604051905090565b600080fd5b600080fd5b600080fd5b6000601f19601f8301169050919050565b7f4e487b7100000000000000000000000000000000000000000000000000000000600052604160045260246000fd5b620003b38262000368565b810181811067ffffffffffffffff82111715620003d557620003d462000379565b5b80604052505050565b6000620003ea6200034f565b9050620003f88282620003a8565b919050565b600067ffffffffffffffff8211156200041b576200041a62000379565b5b602082029050602081019050919050565b600080fd5b600073ffffffffffffffffffffffffffffffffffffffff82169050919050565b60006200045e8262000431565b9050919050565b620004708162000451565b81146200047c57600080fd5b50565b600081519050620004908162000465565b92915050565b6000620004ad620004a784620003fd565b620003de565b90508083825260208201905060208402830185811115620004d357620004d26200042c565b5b835b81811015620005005780620004eb88826200047f565b845260208401935050602081019050620004d5565b5050509392505050565b600082601f83011262000522576200052162000363565b5b81516200053484826020860162000496565b91505092915050565b600067ffffffffffffffff8211156200055b576200055a62000379565b5b602082029050602081019050919050565b600080fd5b600067ffffffffffffffff8211156200058f576200058e62000379565b5b6200059a8262000368565b9050602081019050919050565b60005b83811015620005c7578082015181840152602081019050620005aa565b60008484015250505050565b6000620005ea620005e48462000571565b620003de565b9050828152602081018484840111156200060957620006086200056c565b5b62000616848285620005a7565b509392505050565b600082601f83011262000636576200063562000363565b5b815162000648848260208601620005d3565b91505092915050565b60006200066862000662846200053d565b620003de565b905080838252602082019050602084028301858111156200068e576200068d6200042c565b5b835b81811015620006dc57805167ffffffffffffffff811115620006b757620006b662000363565b5b808601620006c689826200061e565b8552602085019450505060208101905062000690565b5050509392505050565b600082601f830112620006fe57620006fd62000363565b5b81516200071084826020860162000651565b91505092915050565b600067ffffffffffffffff82111562000737576200073662000379565b5b602082029050602081019050919050565b600067ffffffffffffffff82111562000766576200076562000379565b5b620007718262000368565b9050602081019050919050565b6000620007956200078f8462000748565b620003de565b905082815260208101848484011115620007b457620007b36200056c565b5b620007c1848285620005a7565b509392505050565b600082601f830112620007e157620007e062000363565b5b8151620007f38482602086016200077e565b91505092915050565b6000620008136200080d8462000719565b620003de565b905080838252602082019050602084028301858111156200083957620008386200042c565b5b835b818110156200088757805167ffffffffffffffff81111562000862576200086162000363565b5b808601620008718982620007c9565b855260208501945050506020810190506200083b565b5050509392505050565b600082601f830112620008a957620008a862000363565b5b8151620008bb848260208601620007fc565b91505092915050565b6000819050919050565b620008d981620008c4565b8114620008e557600080fd5b50565b600081519050620008f981620008ce565b92915050565b600080600080600060a086880312156200091e576200091d62000359565b5b600086015167ffffffffffffffff8111156200093f576200093e6200035e565b5b6200094d888289016200050a565b955050602062000960888289016200047f565b945050604086015167ffffffffffffffff8111156200098457620009836200035e565b5b6200099288828901620006e6565b935050606086015167ffffffffffffffff811115620009b657620009b56200035e565b5b620009c48882890162000891565b9250506080620009d788828901620008e8565b9150509295509295909350565b7f4e487b7100000000000000000000000000000000000000000000000000000000600052603260045260246000fd5b7f4e487b7100000000000000000000000000000000000000000000000000000000600052601160045260246000fd5b600060ff82169050919050565b600062000a5c8262000a42565b915060ff820362000a725762000a7162000a13565b5b600182019050919050565b600081519050919050565b600081905092915050565b600062000aa08262000a7d565b62000aac818562000a88565b935062000abe818560208601620005a7565b80840191505092915050565b600062000ad8828462000a93565b915081905092915050565b600081519050919050565b7f4e487b7100000000000000000000000000000000000000000000000000000000600052602260045260246000fd5b6000600282049050600182168062000b3657607f821691505b60208210810362000b4c5762000b4b62000aee565b5b50919050565b60008190508160005260206000209050919050565b60006020601f8301049050919050565b600082821b905092915050565b60006008830262000bb67fffffffffffffffffffffffffffffffffffffffffffffffffffffffffffffffff8262000b77565b62000bc2868362000b77565b95508019841693508086168417925050509392505050565b6000819050919050565b600062000c0562000bff62000bf984620008c4565b62000bda565b620008c4565b9050919050565b6000819050919050565b62000c218362000be4565b62000c3962000c308262000c0c565b84845462000b84565b825550505050565b600090565b62000c5062000c41565b62000c5d81848462000c16565b505050565b5b8181101562000c855762000c7960008262000c46565b60018101905062000c63565b5050565b601f82111562000cd45762000c9e8162000b52565b62000ca98462000b67565b8101602085101562000cb9578190505b62000cd162000cc88562000b67565b83018262000c62565b50505b505050565b600082821c905092915050565b600062000cf96000198460080262000cd9565b1980831691505092915050565b600062000d14838362000ce6565b9150826002028217905092915050565b62000d2f8262000ae3565b67ffffffffffffffff81111562000d4b5762000d4a62000379565b5b62000d57825462000b1d565b62000d6482828562000c89565b600060209050601f83116001811462000d9c576000841562000d87578287015190505b62000d93858262000d06565b86555062000e03565b601f19841662000dac8662000b52565b60005b8281101562000dd65784890151825560018201915060208501945060208101905062000daf565b8683101562000df6578489015162000df2601f89168262000ce6565b8355505b6001600288020188555050505b505050505050565b60008190508160005260206000209050919050565b601f82111562000e6b5762000e358162000e0b565b62000e408462000b67565b8101602085101562000e50578190505b62000e6862000e5f8562000b67565b83018262000c62565b50505b505050565b62000e7b8262000a7d565b67ffffffffffffffff81111562000e975762000e9662000379565b5b62000ea3825462000b1d565b62000eb082828562000e20565b600060209050601f83116001811462000ee8576000841562000ed3578287015190505b62000edf858262000d06565b86555062000f4f565b601f19841662000ef88662000e0b565b60005b8281101562000f225784890151825560018201915060208501945060208101905062000efb565b8683101562000f42578489015162000f3e601f89168262000ce6565b8355505b6001600288020188555050505b505050505050565b62000f628162000451565b82525050565b600081549050919050565b600082825260208201905092915050565b60008190508160005260206000209050919050565b62000fa48162000451565b82525050565b600062000fb8838362000f99565b60208301905092915050565b60008160001c9050919050565b600073ffffffffffffffffffffffffffffffffffffffff82169050919050565b600062001008620010028362000fc4565b62000fd1565b9050919050565b60006200101d825462000ff1565b9050919050565b6000600182019050919050565b60006200103e8262000f68565b6200104a818562000f73565b9350620010578362000f84565b8060005b8381101562001097576200106f826200100f565b6200107b888262000faa565b9750620010888362001024565b9250506001810190506200105b565b5085935050505092915050565b620010af81620008c4565b82525050565b600060c082019050620010cc600083018962000f57565b8181036020830152620010e0818862001031565b9050620010f1604083018762000f57565b620011006060830186620010a4565b6200110f6080830185620010a4565b6200111e60a0830184620010a4565b979650505050505050565b6119cb80620011396000396000f3fe6080604052600436106100865760003560e01c8063742978da11610059578063742978da14610116578063904e3cff146101535780639c01b52f1461016f578063f6dfdad11461019a578063fbb05337146101c557610086565b806312065fe01461008b57806314a24bcf146100b65780633f44327a146100e15780634510fb591461010c575b600080fd5b34801561009757600080fd5b506100a06101e1565b6040516100ad9190610f81565b60405180910390f35b3480156100c257600080fd5b506100cb6101e9565b6040516100d89190610fdd565b60405180910390f35b3480156100ed57600080fd5b506100f6610213565b60405161010391906110b6565b60405180910390f35b6101146102a1565b005b34801561012257600080fd5b5061013d60048036038101906101389190611109565b610422565b60405161014a9190610f81565b60405180910390f35b61016d600480360381019061016891906111a0565b610553565b005b34801561017b57600080fd5b5061018461097a565b6040516101919190610fdd565b60405180910390f35b3480156101a657600080fd5b506101af6109a3565b6040516101bc9190611332565b60405180910390f35b6101df60048036038101906101da91906111a0565b610b09565b005b600047905090565b6000600360009054906101000a900473ffffffffffffffffffffffffffffffffffffffff16905090565b6060600180548060200260200160405190810160405280929190818152602001828054801561029757602002820191906000526020600020905b8160009054906101000a900473ffffffffffffffffffffffffffffffffffffffff1673ffffffffffffffffffffffffffffffffffffffff168152602001906001019080831161024d575b5050505050905090565b336000805b6001805490508160ff1610156103465760018160ff16815481106102cd576102cc611354565b5b9060005260206000200160009054906101000a900473ffffffffffffffffffffffffffffffffffffffff1673ffffffffffffffffffffffffffffffffffffffff168373ffffffffffffffffffffffffffffffffffffffff16036103335760019150610346565b808061033e906113bf565b9150506102a6565b5080610387576040517f08c379a000000000000000000000000000000000000000000000000000000000815260040161037e9061146b565b60405180910390fd5b34600260003373ffffffffffffffffffffffffffffffffffffffff1673ffffffffffffffffffffffffffffffffffffffff16815260200190815260200160002060008282546103d6919061148b565b925050819055507fe4f13824473bb5d7c83a33648a5b781337db89c57cdfdb2caf2c87a9ca0391f6333460065447426040516104169594939291906114bf565b60405180910390a15050565b6000816000805b6001805490508160ff1610156104c95760018160ff16815481106104505761044f611354565b5b9060005260206000200160009054906101000a900473ffffffffffffffffffffffffffffffffffffffff1673ffffffffffffffffffffffffffffffffffffffff168373ffffffffffffffffffffffffffffffffffffffff16036104b657600191506104c9565b80806104c1906113bf565b915050610429565b508061050a576040517f08c379a00000000000000000000000000000000000000000000000000000000081526004016105019061146b565b60405180910390fd5b600260008573ffffffffffffffffffffffffffffffffffffffff1673ffffffffffffffffffffffffffffffffffffffff1681526020019081526020016000205492505050919050565b336000805b6001805490508160ff1610156105f85760018160ff168154811061057f5761057e611354565b5b9060005260206000200160009054906101000a900473ffffffffffffffffffffffffffffffffffffffff1673ffffffffffffffffffffffffffffffffffffffff168373ffffffffffffffffffffffffffffffffffffffff16036105e557600191506105f8565b80806105f0906113bf565b915050610558565b5080610639576040517f08c379a00000000000000000000000000000000000000000000000000000000081526004016106309061146b565b60405180910390fd5b836000805b6001805490508160ff1610156106de5760018160ff168154811061066557610664611354565b5b9060005260206000200160009054906101000a900473ffffffffffffffffffffffffffffffffffffffff1673ffffffffffffffffffffffffffffffffffffffff168373ffffffffffffffffffffffffffffffffffffffff16036106cb57600191506106de565b80806106d6906113bf565b91505061063e565b5080806107385750600360009054906101000a900473ffffffffffffffffffffffffffffffffffffffff1673ffffffffffffffffffffffffffffffffffffffff168273ffffffffffffffffffffffffffffffffffffffff16145b610777576040517f08c379a000000000000000000000000000000000000000000000000000000000815260040161076e90611584565b60405180910390fd5b84804710156107bb576040517f08c379a00000000000000000000000000000000000000000000000000000000081526004016107b2906115f0565b60405180910390fd5b600360009054906101000a900473ffffffffffffffffffffffffffffffffffffffff1673ffffffffffffffffffffffffffffffffffffffff168773ffffffffffffffffffffffffffffffffffffffff16146108e95785600260008973ffffffffffffffffffffffffffffffffffffffff1673ffffffffffffffffffffffffffffffffffffffff168152602001908152602001600020541015610892576040517f08c379a00000000000000000000000000000000000000000000000000000000081526004016108899061165c565b60405180910390fd5b85600260008973ffffffffffffffffffffffffffffffffffffffff1673ffffffffffffffffffffffffffffffffffffffff16815260200190815260200160002060008282546108e1919061167c565b925050819055505b8673ffffffffffffffffffffffffffffffffffffffff166108fc879081150290604051600060405180830381858888f1935050505015801561092f573d6000803e3d6000fd5b507f132717cc7ce0e7288e4e1e75cd3527373df35d716a6d9d576199b1ee22b159238787600654474260405161096995949392919061170f565b60405180910390a150505050505050565b60008060009054906101000a900473ffffffffffffffffffffffffffffffffffffffff16905090565b6060600060058054905067ffffffffffffffff8111156109c6576109c5611762565b5b6040519080825280602002602001820160405280156109f957816020015b60608152602001906001900390816109e45790505b50905060005b600580549050811015610b0157600460058281548110610a2257610a21611354565b5b90600052602060002001604051610a399190611894565b90815260200160405180910390208054610a52906117c0565b80601f0160208091040260200160405190810160405280929190818152602001828054610a7e906117c0565b8015610acb5780601f10610aa057610100808354040283529160200191610acb565b820191906000526020600020905b815481529060010190602001808311610aae57829003601f168201915b5050505050828281518110610ae357610ae2611354565b5b60200260200101819052508080610af9906118ab565b9150506109ff565b508091505090565b336000805b6001805490508160ff161015610bae5760018160ff1681548110610b3557610b34611354565b5b9060005260206000200160009054906101000a900473ffffffffffffffffffffffffffffffffffffffff1673ffffffffffffffffffffffffffffffffffffffff168373ffffffffffffffffffffffffffffffffffffffff1603610b9b5760019150610bae565b8080610ba6906113bf565b915050610b0e565b5080610bef576040517f08c379a0000000000000000000000000000000000000000000000000000000008152600401610be69061146b565b60405180910390fd5b836000805b6001805490508160ff161015610c945760018160ff1681548110610c1b57610c1a611354565b5b9060005260206000200160009054906101000a900473ffffffffffffffffffffffffffffffffffffffff1673ffffffffffffffffffffffffffffffffffffffff168373ffffffffffffffffffffffffffffffffffffffff1603610c815760019150610c94565b8080610c8c906113bf565b915050610bf4565b508080610cee5750600360009054906101000a900473ffffffffffffffffffffffffffffffffffffffff1673ffffffffffffffffffffffffffffffffffffffff168273ffffffffffffffffffffffffffffffffffffffff16145b610d2d576040517f08c379a0000000000000000000000000000000000000000000000000000000008152600401610d2490611584565b60405180910390fd5b606485600654610d3d91906118f3565b610d479190611964565b80471015610d8a576040517f08c379a0000000000000000000000000000000000000000000000000000000008152600401610d81906115f0565b60405180910390fd5b6000606487600654610d9c91906118f3565b610da69190611964565b9050600360009054906101000a900473ffffffffffffffffffffffffffffffffffffffff1673ffffffffffffffffffffffffffffffffffffffff168873ffffffffffffffffffffffffffffffffffffffff1614610ed65780600260008a73ffffffffffffffffffffffffffffffffffffffff1673ffffffffffffffffffffffffffffffffffffffff168152602001908152602001600020541015610e7f576040517f08c379a0000000000000000000000000000000000000000000000000000000008152600401610e769061165c565b60405180910390fd5b80600260008a73ffffffffffffffffffffffffffffffffffffffff1673ffffffffffffffffffffffffffffffffffffffff1681526020019081526020016000206000828254610ece919061167c565b925050819055505b8773ffffffffffffffffffffffffffffffffffffffff166108fc829081150290604051600060405180830381858888f19350505050158015610f1c573d6000803e3d6000fd5b507f132717cc7ce0e7288e4e1e75cd3527373df35d716a6d9d576199b1ee22b1592388826006544742604051610f5695949392919061170f565b60405180910390a15050505050505050565b6000819050919050565b610f7b81610f68565b82525050565b6000602082019050610f966000830184610f72565b92915050565b600073ffffffffffffffffffffffffffffffffffffffff82169050919050565b6000610fc782610f9c565b9050919050565b610fd781610fbc565b82525050565b6000602082019050610ff26000830184610fce565b92915050565b600081519050919050565b600082825260208201905092915050565b6000819050602082019050919050565b61102d81610fbc565b82525050565b600061103f8383611024565b60208301905092915050565b6000602082019050919050565b600061106382610ff8565b61106d8185611003565b935061107883611014565b8060005b838110156110a95781516110908882611033565b975061109b8361104b565b92505060018101905061107c565b5085935050505092915050565b600060208201905081810360008301526110d08184611058565b905092915050565b600080fd5b6110e681610fbc565b81146110f157600080fd5b50565b600081359050611103816110dd565b92915050565b60006020828403121561111f5761111e6110d8565b5b600061112d848285016110f4565b91505092915050565b600061114182610f9c565b9050919050565b61115181611136565b811461115c57600080fd5b50565b60008135905061116e81611148565b92915050565b61117d81610f68565b811461118857600080fd5b50565b60008135905061119a81611174565b92915050565b600080604083850312156111b7576111b66110d8565b5b60006111c58582860161115f565b92505060206111d68582860161118b565b9150509250929050565b600081519050919050565b600082825260208201905092915050565b6000819050602082019050919050565b600081519050919050565b600082825260208201905092915050565b60005b8381101561124657808201518184015260208101905061122b565b60008484015250505050565b6000601f19601f8301169050919050565b600061126e8261120c565b6112788185611217565b9350611288818560208601611228565b61129181611252565b840191505092915050565b60006112a88383611263565b905092915050565b6000602082019050919050565b60006112c8826111e0565b6112d281856111eb565b9350836020820285016112e4856111fc565b8060005b858110156113205784840389528151611301858261129c565b945061130c836112b0565b925060208a019950506001810190506112e8565b50829750879550505050505092915050565b6000602082019050818103600083015261134c81846112bd565b905092915050565b7f4e487b7100000000000000000000000000000000000000000000000000000000600052603260045260246000fd5b7f4e487b7100000000000000000000000000000000000000000000000000000000600052601160045260246000fd5b600060ff82169050919050565b60006113ca826113b2565b915060ff82036113dd576113dc611383565b5b600182019050919050565b600082825260208201905092915050565b7f4f6e6c79207061727469636970616e7420776974686f757420737570706c696560008201527f722063616e2063616c6c20746869732066756e6374696f6e0000000000000000602082015250565b60006114556038836113e8565b9150611460826113f9565b604082019050919050565b6000602082019050818103600083015261148481611448565b9050919050565b600061149682610f68565b91506114a183610f68565b92508282019050808211156114b9576114b8611383565b5b92915050565b600060a0820190506114d46000830188610fce565b6114e16020830187610f72565b6114ee6040830186610f72565b6114fb6060830185610f72565b6115086080830184610f72565b9695505050505050565b7f4f6e6c79207061727469636970616e74206f7220737570706c6965722063616e60008201527f2072656365697665000000000000000000000000000000000000000000000000602082015250565b600061156e6028836113e8565b915061157982611512565b604082019050919050565b6000602082019050818103600083015261159d81611561565b9050919050565b7f4e6f7420656e6f75676820657468657273000000000000000000000000000000600082015250565b60006115da6011836113e8565b91506115e5826115a4565b602082019050919050565b60006020820190508181036000830152611609816115cd565b9050919050565b7f4e6f7420656e6f75676820617373657473000000000000000000000000000000600082015250565b60006116466011836113e8565b915061165182611610565b602082019050919050565b6000602082019050818103600083015261167581611639565b9050919050565b600061168782610f68565b915061169283610f68565b92508282039050818111156116aa576116a9611383565b5b92915050565b6000819050919050565b60006116d56116d06116cb84610f9c565b6116b0565b610f9c565b9050919050565b60006116e7826116ba565b9050919050565b60006116f9826116dc565b9050919050565b611709816116ee565b82525050565b600060a0820190506117246000830188611700565b6117316020830187610f72565b61173e6040830186610f72565b61174b6060830185610f72565b6117586080830184610f72565b9695505050505050565b7f4e487b7100000000000000000000000000000000000000000000000000000000600052604160045260246000fd5b7f4e487b7100000000000000000000000000000000000000000000000000000000600052602260045260246000fd5b600060028204905060018216806117d857607f821691505b6020821081036117eb576117ea611791565b5b50919050565b600081905092915050565b60008190508160005260206000209050919050565b6000815461181e816117c0565b61182881866117f1565b9450600182166000811461184357600181146118585761188b565b60ff198316865281151582028601935061188b565b611861856117fc565b60005b8381101561188357815481890152600182019150602081019050611864565b838801955050505b50505092915050565b60006118a08284611811565b915081905092915050565b60006118b682610f68565b91507fffffffffffffffffffffffffffffffffffffffffffffffffffffffffffffffff82036118e8576118e7611383565b5b600182019050919050565b60006118fe82610f68565b915061190983610f68565b925082820261191781610f68565b9150828204841483151761192e5761192d611383565b5b5092915050565b7f4e487b7100000000000000000000000000000000000000000000000000000000600052601260045260246000fd5b600061196f82610f68565b915061197a83610f68565b92508261198a57611989611935565b5b82820490509291505056fea2646970667358221220d34a48d9ca86ae11505e6e2761910076c007d793a617000abf8c7966c45a4afb64736f6c63430008130033",
  "linkReferences": {},
  "deployedLinkReferences": {}
}