{
  "_format": "hh-sol-artifact-1",
  "contractName": "SupplyChain",
  "sourceName": "contracts/SupplyChain.sol",
  "abi": [
    {
      "inputs": [
        {
          "internalType": "address[]",
          "name": "_user",
          "type": "address[]"
        },
        {
          "internalType": "address",
          "name": "_supplier",
          "type": "address"
        },
        {
          "internalType": "string[]",
          "name": "_keys",
          "type": "string[]"
        },
        {
          "internalType": "bytes[]",
          "name": "_values",
          "type": "bytes[]"
        },
        {
          "internalType": "uint256",
          "name": "_total",
          "type": "uint256"
        },
        {
          "components": [
            {
              "internalType": "uint256",
              "name": "percent",
              "type": "uint256"
            },
            {
              "internalType": "uint256",
              "name": "deliveryAt",
              "type": "uint256"
            },
            {
              "internalType": "string",
              "name": "description",
              "type": "string"
            }
          ],
          "internalType": "struct SupplyChain.StageData[]",
          "name": "_stages",
          "type": "tuple[]"
        },
        {
          "internalType": "string",
          "name": "_privateKey",
          "type": "string"
        }
      ],
      "stateMutability": "nonpayable",
      "type": "constructor"
    },
    {
      "anonymous": false,
      "inputs": [
        {
          "indexed": false,
          "internalType": "uint256",
          "name": "percent",
          "type": "uint256"
        },
        {
          "indexed": false,
          "internalType": "bool",
          "name": "userConfirm",
          "type": "bool"
        },
        {
          "indexed": false,
          "internalType": "bool",
          "name": "supplierConfirm",
          "type": "bool"
        },
        {
          "indexed": false,
          "internalType": "bool",
          "name": "isDone",
          "type": "bool"
        },
        {
          "indexed": false,
          "internalType": "uint256",
          "name": "confirmedAt",
          "type": "uint256"
        }
      ],
      "name": "confirmedStage",
      "type": "event"
    },
    {
      "anonymous": false,
      "inputs": [
        {
          "indexed": false,
          "internalType": "address",
          "name": "owner",
          "type": "address"
        },
        {
          "indexed": false,
          "internalType": "address[]",
          "name": "user",
          "type": "address[]"
        },
        {
          "indexed": false,
          "internalType": "address",
          "name": "supplier",
          "type": "address"
        },
        {
          "indexed": false,
          "internalType": "uint256",
          "name": "totalBalance",
          "type": "uint256"
        },
        {
          "indexed": false,
          "internalType": "uint256",
          "name": "currentBalance",
          "type": "uint256"
        },
        {
          "indexed": false,
          "internalType": "uint256",
          "name": "deployAt",
          "type": "uint256"
        }
      ],
      "name": "contractCreated",
      "type": "event"
    },
    {
      "anonymous": false,
      "inputs": [
        {
          "indexed": false,
          "internalType": "address",
          "name": "sender",
          "type": "address"
        },
        {
          "indexed": false,
          "internalType": "uint256",
          "name": "amount",
          "type": "uint256"
        },
        {
          "indexed": false,
          "internalType": "uint256",
          "name": "totalBalance",
          "type": "uint256"
        },
        {
          "indexed": false,
          "internalType": "uint256",
          "name": "currentBalance",
          "type": "uint256"
        },
        {
          "indexed": false,
          "internalType": "uint256",
          "name": "receivedAt",
          "type": "uint256"
        }
      ],
      "name": "received",
      "type": "event"
    },
    {
      "anonymous": false,
      "inputs": [
        {
          "indexed": false,
          "internalType": "address",
          "name": "to",
          "type": "address"
        },
        {
          "indexed": false,
          "internalType": "uint256",
          "name": "amount",
          "type": "uint256"
        },
        {
          "indexed": false,
          "internalType": "uint256",
          "name": "totalBalance",
          "type": "uint256"
        },
        {
          "indexed": false,
          "internalType": "uint256",
          "name": "currentBalance",
          "type": "uint256"
        },
        {
          "indexed": false,
          "internalType": "uint256",
          "name": "widthdrewAt",
          "type": "uint256"
        }
      ],
      "name": "widthdrew",
      "type": "event"
    },
    {
      "inputs": [],
      "name": "confirmStage",
      "outputs": [],
      "stateMutability": "nonpayable",
      "type": "function"
    },
    {
      "inputs": [
        {
          "internalType": "address",
          "name": "_addressWallet",
          "type": "address"
        }
      ],
      "name": "getAssets",
      "outputs": [
        {
          "internalType": "uint256",
          "name": "",
          "type": "uint256"
        }
      ],
      "stateMutability": "view",
      "type": "function"
    },
    {
      "inputs": [],
      "name": "getBalance",
      "outputs": [
        {
          "internalType": "uint256",
          "name": "",
          "type": "uint256"
        }
      ],
      "stateMutability": "view",
      "type": "function"
    },
    {
      "inputs": [
        {
          "internalType": "string",
          "name": "_privateKey",
          "type": "string"
        }
      ],
      "name": "getContractInformation",
      "outputs": [
        {
          "internalType": "string[]",
          "name": "",
          "type": "string[]"
        }
      ],
      "stateMutability": "view",
      "type": "function"
    },
    {
      "inputs": [],
      "name": "getOwnerAddressWallet",
      "outputs": [
        {
          "internalType": "address",
          "name": "",
          "type": "address"
        }
      ],
      "stateMutability": "view",
      "type": "function"
    },
    {
      "inputs": [],
      "name": "getStages",
      "outputs": [
        {
          "components": [
            {
              "internalType": "uint256",
              "name": "percent",
              "type": "uint256"
            },
            {
              "internalType": "uint256",
              "name": "deliveryAt",
              "type": "uint256"
            },
            {
              "internalType": "string",
              "name": "description",
              "type": "string"
            },
            {
              "internalType": "bool",
              "name": "userConfirm",
              "type": "bool"
            },
            {
              "internalType": "bool",
              "name": "supplierConfirm",
              "type": "bool"
            },
            {
              "internalType": "bool",
              "name": "isDone",
              "type": "bool"
            }
          ],
          "internalType": "struct SupplyChain.Stage[]",
          "name": "",
          "type": "tuple[]"
        }
      ],
      "stateMutability": "view",
      "type": "function"
    },
    {
      "inputs": [],
      "name": "getStagesLength",
      "outputs": [
        {
          "internalType": "uint256",
          "name": "",
          "type": "uint256"
        }
      ],
      "stateMutability": "view",
      "type": "function"
    },
    {
      "inputs": [],
      "name": "getSupplierAddressWallet",
      "outputs": [
        {
          "internalType": "address",
          "name": "",
          "type": "address"
        }
      ],
      "stateMutability": "view",
      "type": "function"
    },
    {
      "inputs": [],
      "name": "getTotalBalance",
      "outputs": [
        {
          "internalType": "uint256",
          "name": "",
          "type": "uint256"
        }
      ],
      "stateMutability": "view",
      "type": "function"
    },
    {
      "inputs": [],
      "name": "getUserAddressWallet",
      "outputs": [
        {
          "internalType": "address[]",
          "name": "",
          "type": "address[]"
        }
      ],
      "stateMutability": "view",
      "type": "function"
    },
    {
      "inputs": [],
      "name": "sendToSmartContract",
      "outputs": [],
      "stateMutability": "payable",
      "type": "function"
    },
    {
      "inputs": [
        {
          "internalType": "address",
          "name": "_supplier",
          "type": "address"
        }
      ],
      "name": "setAddressSupplier",
      "outputs": [],
      "stateMutability": "nonpayable",
      "type": "function"
    },
    {
      "inputs": [
        {
          "internalType": "string[]",
          "name": "_keys",
          "type": "string[]"
        },
        {
          "internalType": "bytes[]",
          "name": "_values",
          "type": "bytes[]"
        }
      ],
      "name": "setInformation",
      "outputs": [],
      "stateMutability": "nonpayable",
      "type": "function"
    },
    {
      "inputs": [
        {
          "internalType": "string",
          "name": "_privateKey",
          "type": "string"
        }
      ],
      "name": "setPrivateKey",
      "outputs": [],
      "stateMutability": "nonpayable",
      "type": "function"
    },
    {
      "inputs": [
        {
          "components": [
            {
              "internalType": "uint256",
              "name": "percent",
              "type": "uint256"
            },
            {
              "internalType": "uint256",
              "name": "deliveryAt",
              "type": "uint256"
            },
            {
              "internalType": "string",
              "name": "description",
              "type": "string"
            }
          ],
          "internalType": "struct SupplyChain.StageData[]",
          "name": "_stages",
          "type": "tuple[]"
        }
      ],
      "name": "setStages",
      "outputs": [],
      "stateMutability": "nonpayable",
      "type": "function"
    },
    {
      "inputs": [
        {
          "internalType": "uint256",
          "name": "_total",
          "type": "uint256"
        }
      ],
      "name": "setTotal",
      "outputs": [],
      "stateMutability": "nonpayable",
      "type": "function"
    },
    {
      "inputs": [
        {
          "internalType": "address[]",
          "name": "_users",
          "type": "address[]"
        }
      ],
      "name": "setUsers",
      "outputs": [],
      "stateMutability": "nonpayable",
      "type": "function"
    },
    {
      "inputs": [
        {
          "internalType": "address payable",
          "name": "_addressWallet",
          "type": "address"
        },
        {
          "internalType": "uint256",
          "name": "_amount",
          "type": "uint256"
        }
      ],
      "name": "withDrawByCurrency",
      "outputs": [],
      "stateMutability": "payable",
      "type": "function"
    },
    {
      "inputs": [
        {
          "internalType": "address payable",
          "name": "_addressWallet",
          "type": "address"
        },
        {
          "internalType": "uint256",
          "name": "_percent",
          "type": "uint256"
        }
      ],
      "name": "withDrawByPercent",
      "outputs": [],
      "stateMutability": "payable",
      "type": "function"
    }
  ],
  "bytecode": "0x60806040526000600860006101000a81548160ff021916908360ff1602179055503480156200002d57600080fd5b506040516200521738038062005217833981810160405281019062000053919062000c83565b806009908162000064919062001012565b506000600860016101000a81548160ff021916908360028111156200008e576200008d620010f9565b5b0217905550670de0b6b3a764000083620000a9919062001157565b60068190555085600360006101000a81548173ffffffffffffffffffffffffffffffffffffffff021916908373ffffffffffffffffffffffffffffffffffffffff160217905550336000806101000a81548173ffffffffffffffffffffffffffffffffffffffff021916908373ffffffffffffffffffffffffffffffffffffffff16021790555060005b87518160ff1610156200023e576001888260ff16815181106200015b576200015a620011a2565b5b60200260200101519080600181540180825580915050600190039060005260206000200160009091909190916101000a81548173ffffffffffffffffffffffffffffffffffffffff021916908373ffffffffffffffffffffffffffffffffffffffff1602179055506000600260008a8460ff1681518110620001e257620001e1620011a2565b5b602002602001015173ffffffffffffffffffffffffffffffffffffffff1673ffffffffffffffffffffffffffffffffffffffff1681526020019081526020016000208190555080806200023590620011de565b91505062000133565b5060005b85518160ff1610156200032c57848160ff1681518110620002685762000267620011a2565b5b60200260200101516004878360ff16815181106200028b576200028a620011a2565b5b6020026020010151604051620002a291906200124e565b90815260200160405180910390209081620002be9190620012d7565b506005868260ff1681518110620002da57620002d9620011a2565b5b602002602001015190806001815401808255809150506001900390600052602060002001600090919091909150908162000315919062001012565b5080806200032390620011de565b91505062000242565b5060005b82518160ff161015620004ae5760076040518060c00160405280858460ff1681518110620003635762000362620011a2565b5b6020026020010151600001518152602001858460ff16815181106200038d576200038c620011a2565b5b6020026020010151602001518152602001858460ff1681518110620003b757620003b6620011a2565b5b60200260200101516040015181526020016000151581526020016000151581526020016000151581525090806001815401808255809150506001900390600052602060002090600402016000909190919091506000820151816000015560208201518160010155604082015181600201908162000435919062001012565b5060608201518160030160006101000a81548160ff02191690831515021790555060808201518160030160016101000a81548160ff02191690831515021790555060a08201518160030160026101000a81548160ff02191690831515021790555050508080620004a590620011de565b91505062000330565b507f68e8e16725ae304c7b00b773ba80b94a2ea18bebc9d7cc7ade4f8c4980649ae160008054906101000a900473ffffffffffffffffffffffffffffffffffffffff166001600360009054906101000a900473ffffffffffffffffffffffffffffffffffffffff1660065447426040516200052f969594939291906200151c565b60405180910390a15050505050505062001590565b6000604051905090565b600080fd5b600080fd5b600080fd5b6000601f19601f8301169050919050565b7f4e487b7100000000000000000000000000000000000000000000000000000000600052604160045260246000fd5b620005a8826200055d565b810181811067ffffffffffffffff82111715620005ca57620005c96200056e565b5b80604052505050565b6000620005df62000544565b9050620005ed82826200059d565b919050565b600067ffffffffffffffff82111562000610576200060f6200056e565b5b602082029050602081019050919050565b600080fd5b600073ffffffffffffffffffffffffffffffffffffffff82169050919050565b6000620006538262000626565b9050919050565b620006658162000646565b81146200067157600080fd5b50565b60008151905062000685816200065a565b92915050565b6000620006a26200069c84620005f2565b620005d3565b90508083825260208201905060208402830185811115620006c857620006c762000621565b5b835b81811015620006f55780620006e0888262000674565b845260208401935050602081019050620006ca565b5050509392505050565b600082601f83011262000717576200071662000558565b5b8151620007298482602086016200068b565b91505092915050565b600067ffffffffffffffff82111562000750576200074f6200056e565b5b602082029050602081019050919050565b600080fd5b600067ffffffffffffffff8211156200078457620007836200056e565b5b6200078f826200055d565b9050602081019050919050565b60005b83811015620007bc5780820151818401526020810190506200079f565b60008484015250505050565b6000620007df620007d98462000766565b620005d3565b905082815260208101848484011115620007fe57620007fd62000761565b5b6200080b8482856200079c565b509392505050565b600082601f8301126200082b576200082a62000558565b5b81516200083d848260208601620007c8565b91505092915050565b60006200085d620008578462000732565b620005d3565b9050808382526020820190506020840283018581111562000883576200088262000621565b5b835b81811015620008d157805167ffffffffffffffff811115620008ac57620008ab62000558565b5b808601620008bb898262000813565b8552602085019450505060208101905062000885565b5050509392505050565b600082601f830112620008f357620008f262000558565b5b81516200090584826020860162000846565b91505092915050565b600067ffffffffffffffff8211156200092c576200092b6200056e565b5b602082029050602081019050919050565b600067ffffffffffffffff8211156200095b576200095a6200056e565b5b62000966826200055d565b9050602081019050919050565b60006200098a62000984846200093d565b620005d3565b905082815260208101848484011115620009a957620009a862000761565b5b620009b68482856200079c565b509392505050565b600082601f830112620009d657620009d562000558565b5b8151620009e884826020860162000973565b91505092915050565b600062000a0862000a02846200090e565b620005d3565b9050808382526020820190506020840283018581111562000a2e5762000a2d62000621565b5b835b8181101562000a7c57805167ffffffffffffffff81111562000a575762000a5662000558565b5b80860162000a668982620009be565b8552602085019450505060208101905062000a30565b5050509392505050565b600082601f83011262000a9e5762000a9d62000558565b5b815162000ab0848260208601620009f1565b91505092915050565b6000819050919050565b62000ace8162000ab9565b811462000ada57600080fd5b50565b60008151905062000aee8162000ac3565b92915050565b600067ffffffffffffffff82111562000b125762000b116200056e565b5b602082029050602081019050919050565b600080fd5b600080fd5b60006060828403121562000b465762000b4562000b23565b5b62000b526060620005d3565b9050600062000b648482850162000add565b600083015250602062000b7a8482850162000add565b602083015250604082015167ffffffffffffffff81111562000ba15762000ba062000b28565b5b62000baf8482850162000813565b60408301525092915050565b600062000bd262000bcc8462000af4565b620005d3565b9050808382526020820190506020840283018581111562000bf85762000bf762000621565b5b835b8181101562000c4657805167ffffffffffffffff81111562000c215762000c2062000558565b5b80860162000c30898262000b2d565b8552602085019450505060208101905062000bfa565b5050509392505050565b600082601f83011262000c685762000c6762000558565b5b815162000c7a84826020860162000bbb565b91505092915050565b600080600080600080600060e0888a03121562000ca55762000ca46200054e565b5b600088015167ffffffffffffffff81111562000cc65762000cc562000553565b5b62000cd48a828b01620006ff565b975050602062000ce78a828b0162000674565b965050604088015167ffffffffffffffff81111562000d0b5762000d0a62000553565b5b62000d198a828b01620008db565b955050606088015167ffffffffffffffff81111562000d3d5762000d3c62000553565b5b62000d4b8a828b0162000a86565b945050608062000d5e8a828b0162000add565b93505060a088015167ffffffffffffffff81111562000d825762000d8162000553565b5b62000d908a828b0162000c50565b92505060c088015167ffffffffffffffff81111562000db45762000db362000553565b5b62000dc28a828b0162000813565b91505092959891949750929550565b600081519050919050565b7f4e487b7100000000000000000000000000000000000000000000000000000000600052602260045260246000fd5b6000600282049050600182168062000e2457607f821691505b60208210810362000e3a5762000e3962000ddc565b5b50919050565b60008190508160005260206000209050919050565b60006020601f8301049050919050565b600082821b905092915050565b60006008830262000ea47fffffffffffffffffffffffffffffffffffffffffffffffffffffffffffffffff8262000e65565b62000eb0868362000e65565b95508019841693508086168417925050509392505050565b6000819050919050565b600062000ef362000eed62000ee78462000ab9565b62000ec8565b62000ab9565b9050919050565b6000819050919050565b62000f0f8362000ed2565b62000f2762000f1e8262000efa565b84845462000e72565b825550505050565b600090565b62000f3e62000f2f565b62000f4b81848462000f04565b505050565b5b8181101562000f735762000f6760008262000f34565b60018101905062000f51565b5050565b601f82111562000fc25762000f8c8162000e40565b62000f978462000e55565b8101602085101562000fa7578190505b62000fbf62000fb68562000e55565b83018262000f50565b50505b505050565b600082821c905092915050565b600062000fe76000198460080262000fc7565b1980831691505092915050565b600062001002838362000fd4565b9150826002028217905092915050565b6200101d8262000dd1565b67ffffffffffffffff8111156200103957620010386200056e565b5b62001045825462000e0b565b6200105282828562000f77565b600060209050601f8311600181146200108a576000841562001075578287015190505b62001081858262000ff4565b865550620010f1565b601f1984166200109a8662000e40565b60005b82811015620010c4578489015182556001820191506020850194506020810190506200109d565b86831015620010e45784890151620010e0601f89168262000fd4565b8355505b6001600288020188555050505b505050505050565b7f4e487b7100000000000000000000000000000000000000000000000000000000600052602160045260246000fd5b7f4e487b7100000000000000000000000000000000000000000000000000000000600052601160045260246000fd5b6000620011648262000ab9565b9150620011718362000ab9565b9250828202620011818162000ab9565b915082820484148315176200119b576200119a62001128565b5b5092915050565b7f4e487b7100000000000000000000000000000000000000000000000000000000600052603260045260246000fd5b600060ff82169050919050565b6000620011eb82620011d1565b915060ff820362001201576200120062001128565b5b600182019050919050565b600081905092915050565b6000620012248262000dd1565b6200123081856200120c565b9350620012428185602086016200079c565b80840191505092915050565b60006200125c828462001217565b915081905092915050565b600081519050919050565b60008190508160005260206000209050919050565b601f821115620012d2576200129c8162001272565b620012a78462000e55565b81016020851015620012b7578190505b620012cf620012c68562000e55565b83018262000f50565b50505b505050565b620012e28262001267565b67ffffffffffffffff811115620012fe57620012fd6200056e565b5b6200130a825462000e0b565b6200131782828562001287565b600060209050601f8311600181146200134f57600084156200133a578287015190505b62001346858262000ff4565b865550620013b6565b601f1984166200135f8662001272565b60005b82811015620013895784890151825560018201915060208501945060208101905062001362565b86831015620013a95784890151620013a5601f89168262000fd4565b8355505b6001600288020188555050505b505050505050565b620013c98162000646565b82525050565b600081549050919050565b600082825260208201905092915050565b60008190508160005260206000209050919050565b6200140b8162000646565b82525050565b60006200141f838362001400565b60208301905092915050565b60008160001c9050919050565b600073ffffffffffffffffffffffffffffffffffffffff82169050919050565b60006200146f62001469836200142b565b62001438565b9050919050565b600062001484825462001458565b9050919050565b6000600182019050919050565b6000620014a582620013cf565b620014b18185620013da565b9350620014be83620013eb565b8060005b83811015620014fe57620014d68262001476565b620014e2888262001411565b9750620014ef836200148b565b925050600181019050620014c2565b5085935050505092915050565b620015168162000ab9565b82525050565b600060c082019050620015336000830189620013be565b818103602083015262001547818862001498565b9050620015586040830187620013be565b6200156760608301866200150b565b6200157660808301856200150b565b6200158560a08301846200150b565b979650505050505050565b613c7780620015a06000396000f3fe6080604052600436106101145760003560e01c806381bcf830116100a0578063cdad720511610064578063cdad72051461034d578063d88eab6314610376578063da28cef71461039f578063e0d4f017146103ca578063fbb05337146103f357610114565b806381bcf83014610277578063904e3cff146102a05780639c01b52f146102bc578063a4477713146102e7578063aa4a70801461032457610114565b80633f44327a116100e75780633f44327a146101c35780634510fb59146101ee5780634bbe765a146101f8578063742978da1461020f57806379655bd01461024c57610114565b806312065fe01461011957806312b583491461014457806314a24bcf1461016f5780631f8d1d501461019a575b600080fd5b34801561012557600080fd5b5061012e61040f565b60405161013b9190612362565b60405180910390f35b34801561015057600080fd5b50610159610417565b6040516101669190612362565b60405180910390f35b34801561017b57600080fd5b50610184610421565b60405161019191906123be565b60405180910390f35b3480156101a657600080fd5b506101c160048036038101906101bc9190612419565b61044b565b005b3480156101cf57600080fd5b506101d8610595565b6040516101e59190612504565b60405180910390f35b6101f6610623565b005b34801561020457600080fd5b5061020d6107a4565b005b34801561021b57600080fd5b5061023660048036038101906102319190612552565b610dcf565b6040516102439190612362565b60405180910390f35b34801561025857600080fd5b50610261610f00565b60405161026e9190612784565b60405180910390f35b34801561028357600080fd5b5061029e60048036038101906102999190612b43565b611056565b005b6102ba60048036038101906102b59190612bf9565b611275565b005b3480156102c857600080fd5b506102d161169c565b6040516102de91906123be565b60405180910390f35b3480156102f357600080fd5b5061030e60048036038101906103099190612c39565b6116c5565b60405161031b9190612d44565b60405180910390f35b34801561033057600080fd5b5061034b60048036038101906103469190612e29565b6118be565b005b34801561035957600080fd5b50610374600480360381019061036f9190612552565b611aae565b005b34801561038257600080fd5b5061039d60048036038101906103989190612fdd565b611b84565b005b3480156103ab57600080fd5b506103b4611de2565b6040516103c19190612362565b60405180910390f35b3480156103d657600080fd5b506103f160048036038101906103ec9190612c39565b611def565b005b61040d60048036038101906104089190612bf9565b611eea565b005b600047905090565b6000600654905090565b6000600360009054906101000a900473ffffffffffffffffffffffffffffffffffffffff16905090565b336000805b6001805490508160ff1610156104f05760018160ff168154811061047757610476613026565b5b9060005260206000200160009054906101000a900473ffffffffffffffffffffffffffffffffffffffff1673ffffffffffffffffffffffffffffffffffffffff168373ffffffffffffffffffffffffffffffffffffffff16036104dd57600191506104f0565b80806104e890613091565b915050610450565b50808061054a5750600360009054906101000a900473ffffffffffffffffffffffffffffffffffffffff1673ffffffffffffffffffffffffffffffffffffffff168273ffffffffffffffffffffffffffffffffffffffff16145b610589576040517f08c379a00000000000000000000000000000000000000000000000000000000081526004016105809061313d565b60405180910390fd5b82600681905550505050565b6060600180548060200260200160405190810160405280929190818152602001828054801561061957602002820191906000526020600020905b8160009054906101000a900473ffffffffffffffffffffffffffffffffffffffff1673ffffffffffffffffffffffffffffffffffffffff16815260200190600101908083116105cf575b5050505050905090565b336000805b6001805490508160ff1610156106c85760018160ff168154811061064f5761064e613026565b5b9060005260206000200160009054906101000a900473ffffffffffffffffffffffffffffffffffffffff1673ffffffffffffffffffffffffffffffffffffffff168373ffffffffffffffffffffffffffffffffffffffff16036106b557600191506106c8565b80806106c090613091565b915050610628565b5080610709576040517f08c379a0000000000000000000000000000000000000000000000000000000008152600401610700906131cf565b60405180910390fd5b34600260003373ffffffffffffffffffffffffffffffffffffffff1673ffffffffffffffffffffffffffffffffffffffff168152602001908152602001600020600082825461075891906131ef565b925050819055507fe4f13824473bb5d7c83a33648a5b781337db89c57cdfdb2caf2c87a9ca0391f633346006544742604051610798959493929190613223565b60405180910390a15050565b336000805b6001805490508160ff1610156108495760018160ff16815481106107d0576107cf613026565b5b9060005260206000200160009054906101000a900473ffffffffffffffffffffffffffffffffffffffff1673ffffffffffffffffffffffffffffffffffffffff168373ffffffffffffffffffffffffffffffffffffffff16036108365760019150610849565b808061084190613091565b9150506107a9565b5080806108a35750600360009054906101000a900473ffffffffffffffffffffffffffffffffffffffff1673ffffffffffffffffffffffffffffffffffffffff168273ffffffffffffffffffffffffffffffffffffffff16145b6108e2576040517f08c379a00000000000000000000000000000000000000000000000000000000081526004016108d99061313d565b60405180910390fd5b600360009054906101000a900473ffffffffffffffffffffffffffffffffffffffff1673ffffffffffffffffffffffffffffffffffffffff163373ffffffffffffffffffffffffffffffffffffffff160361098c5760016007600860009054906101000a900460ff1660ff168154811061095f5761095e613026565b5b906000526020600020906004020160030160016101000a81548160ff0219169083151502179055506109dd565b60016007600860009054906101000a900460ff1660ff16815481106109b4576109b3613026565b5b906000526020600020906004020160030160006101000a81548160ff0219169083151502179055505b6007600860009054906101000a900460ff1660ff1681548110610a0357610a02613026565b5b906000526020600020906004020160030160019054906101000a900460ff168015610a6f57506007600860009054906101000a900460ff1660ff1681548110610a4f57610a4e613026565b5b906000526020600020906004020160030160009054906101000a900460ff165b15610c89573073ffffffffffffffffffffffffffffffffffffffff1663fbb05337600360009054906101000a900473ffffffffffffffffffffffffffffffffffffffff166007600860009054906101000a900460ff1660ff1681548110610ad957610ad8613026565b5b9060005260206000209060040201600001546040518363ffffffff1660e01b8152600401610b08929190613285565b600060405180830381600087803b158015610b2257600080fd5b505af1158015610b36573d6000803e3d6000fd5b505050506008600081819054906101000a900460ff1680929190610b5990613091565b91906101000a81548160ff021916908360ff160217905550503073ffffffffffffffffffffffffffffffffffffffff1663fbb05337600360009054906101000a900473ffffffffffffffffffffffffffffffffffffffff166007600860009054906101000a900460ff1660ff1681548110610bd757610bd6613026565b5b9060005260206000209060040201600001546040518363ffffffff1660e01b8152600401610c06929190613285565b600060405180830381600087803b158015610c2057600080fd5b505af1158015610c34573d6000803e3d6000fd5b5050505060016007600860009054906101000a900460ff1660ff1681548110610c6057610c5f613026565b5b906000526020600020906004020160030160026101000a81548160ff0219169083151502179055505b7f3b73a39967ce2bf2e7547f44bed45ab8268d03405789dee7c98598a496b82cfc6007600860009054906101000a900460ff1660ff1681548110610cd057610ccf613026565b5b9060005260206000209060040201600001546007600860009054906101000a900460ff1660ff1681548110610d0857610d07613026565b5b906000526020600020906004020160030160009054906101000a900460ff166007600860009054906101000a900460ff1660ff1681548110610d4d57610d4c613026565b5b906000526020600020906004020160030160019054906101000a900460ff166007600860009054906101000a900460ff1660ff1681548110610d9257610d91613026565b5b906000526020600020906004020160030160029054906101000a900460ff1642604051610dc39594939291906132bd565b60405180910390a15050565b6000816000805b6001805490508160ff161015610e765760018160ff1681548110610dfd57610dfc613026565b5b9060005260206000200160009054906101000a900473ffffffffffffffffffffffffffffffffffffffff1673ffffffffffffffffffffffffffffffffffffffff168373ffffffffffffffffffffffffffffffffffffffff1603610e635760019150610e76565b8080610e6e90613091565b915050610dd6565b5080610eb7576040517f08c379a0000000000000000000000000000000000000000000000000000000008152600401610eae906131cf565b60405180910390fd5b600260008573ffffffffffffffffffffffffffffffffffffffff1673ffffffffffffffffffffffffffffffffffffffff1681526020019081526020016000205492505050919050565b60606007805480602002602001604051908101604052809291908181526020016000905b8282101561104d57838290600052602060002090600402016040518060c00160405290816000820154815260200160018201548152602001600282018054610f6b9061333f565b80601f0160208091040260200160405190810160405280929190818152602001828054610f979061333f565b8015610fe45780601f10610fb957610100808354040283529160200191610fe4565b820191906000526020600020905b815481529060010190602001808311610fc757829003601f168201915b505050505081526020016003820160009054906101000a900460ff161515151581526020016003820160019054906101000a900460ff161515151581526020016003820160029054906101000a900460ff16151515158152505081526020019060010190610f24565b50505050905090565b336000805b6001805490508160ff1610156110fb5760018160ff168154811061108257611081613026565b5b9060005260206000200160009054906101000a900473ffffffffffffffffffffffffffffffffffffffff1673ffffffffffffffffffffffffffffffffffffffff168373ffffffffffffffffffffffffffffffffffffffff16036110e857600191506110fb565b80806110f390613091565b91505061105b565b5080806111555750600360009054906101000a900473ffffffffffffffffffffffffffffffffffffffff1673ffffffffffffffffffffffffffffffffffffffff168273ffffffffffffffffffffffffffffffffffffffff16145b611194576040517f08c379a000000000000000000000000000000000000000000000000000000000815260040161118b9061313d565b60405180910390fd5b60005b84518160ff16101561126e57838160ff16815181106111b9576111b8613026565b5b60200260200101516004868360ff16815181106111d9576111d8613026565b5b60200260200101516040516111ee91906133ac565b90815260200160405180910390209081611208919061357a565b506005858260ff168151811061122157611220613026565b5b602002602001015190806001815401808255809150506001900390600052602060002001600090919091909150908161125a91906136a7565b50808061126690613091565b915050611197565b5050505050565b336000805b6001805490508160ff16101561131a5760018160ff16815481106112a1576112a0613026565b5b9060005260206000200160009054906101000a900473ffffffffffffffffffffffffffffffffffffffff1673ffffffffffffffffffffffffffffffffffffffff168373ffffffffffffffffffffffffffffffffffffffff1603611307576001915061131a565b808061131290613091565b91505061127a565b508061135b576040517f08c379a0000000000000000000000000000000000000000000000000000000008152600401611352906131cf565b60405180910390fd5b836000805b6001805490508160ff1610156114005760018160ff168154811061138757611386613026565b5b9060005260206000200160009054906101000a900473ffffffffffffffffffffffffffffffffffffffff1673ffffffffffffffffffffffffffffffffffffffff168373ffffffffffffffffffffffffffffffffffffffff16036113ed5760019150611400565b80806113f890613091565b915050611360565b50808061145a5750600360009054906101000a900473ffffffffffffffffffffffffffffffffffffffff1673ffffffffffffffffffffffffffffffffffffffff168273ffffffffffffffffffffffffffffffffffffffff16145b611499576040517f08c379a0000000000000000000000000000000000000000000000000000000008152600401611490906137eb565b60405180910390fd5b84804710156114dd576040517f08c379a00000000000000000000000000000000000000000000000000000000081526004016114d490613857565b60405180910390fd5b600360009054906101000a900473ffffffffffffffffffffffffffffffffffffffff1673ffffffffffffffffffffffffffffffffffffffff168773ffffffffffffffffffffffffffffffffffffffff161461160b5785600260008973ffffffffffffffffffffffffffffffffffffffff1673ffffffffffffffffffffffffffffffffffffffff1681526020019081526020016000205410156115b4576040517f08c379a00000000000000000000000000000000000000000000000000000000081526004016115ab906138c3565b60405180910390fd5b85600260008973ffffffffffffffffffffffffffffffffffffffff1673ffffffffffffffffffffffffffffffffffffffff168152602001908152602001600020600082825461160391906138e3565b925050819055505b8673ffffffffffffffffffffffffffffffffffffffff166108fc879081150290604051600060405180830381858888f19350505050158015611651573d6000803e3d6000fd5b507f132717cc7ce0e7288e4e1e75cd3527373df35d716a6d9d576199b1ee22b159238787600654474260405161168b95949392919061396c565b60405180910390a150505050505050565b60008060009054906101000a900473ffffffffffffffffffffffffffffffffffffffff16905090565b60608160096040516020016116da9190613a42565b604051602081830303815290604052805190602001208160405160200161170191906133ac565b6040516020818303038152906040528051906020012014611757576040517f08c379a000000000000000000000000000000000000000000000000000000000815260040161174e90613aa5565b60405180910390fd5b600060058054905067ffffffffffffffff811115611778576117776127ab565b5b6040519080825280602002602001820160405280156117ab57816020015b60608152602001906001900390816117965790505b50905060005b6005805490508110156118b3576004600582815481106117d4576117d3613026565b5b906000526020600020016040516117eb9190613a42565b908152602001604051809103902080546118049061333f565b80601f01602080910402602001604051908101604052809291908181526020018280546118309061333f565b801561187d5780601f106118525761010080835404028352916020019161187d565b820191906000526020600020905b81548152906001019060200180831161186057829003601f168201915b505050505082828151811061189557611894613026565b5b602002602001018190525080806118ab90613ac5565b9150506117b1565b508092505050919050565b336000805b6001805490508160ff1610156119635760018160ff16815481106118ea576118e9613026565b5b9060005260206000200160009054906101000a900473ffffffffffffffffffffffffffffffffffffffff1673ffffffffffffffffffffffffffffffffffffffff168373ffffffffffffffffffffffffffffffffffffffff16036119505760019150611963565b808061195b90613091565b9150506118c3565b50806119a4576040517f08c379a000000000000000000000000000000000000000000000000000000000815260040161199b906131cf565b60405180910390fd5b60005b83518160ff161015611aa8576001848260ff16815181106119cb576119ca613026565b5b60200260200101519080600181540180825580915050600190039060005260206000200160009091909190916101000a81548173ffffffffffffffffffffffffffffffffffffffff021916908373ffffffffffffffffffffffffffffffffffffffff160217905550600060026000868460ff1681518110611a4f57611a4e613026565b5b602002602001015173ffffffffffffffffffffffffffffffffffffffff1673ffffffffffffffffffffffffffffffffffffffff168152602001908152602001600020819055508080611aa090613091565b9150506119a7565b50505050565b33600360009054906101000a900473ffffffffffffffffffffffffffffffffffffffff1673ffffffffffffffffffffffffffffffffffffffff168173ffffffffffffffffffffffffffffffffffffffff1614611b3f576040517f08c379a0000000000000000000000000000000000000000000000000000000008152600401611b3690613b7f565b60405180910390fd5b81600360006101000a81548173ffffffffffffffffffffffffffffffffffffffff021916908373ffffffffffffffffffffffffffffffffffffffff1602179055505050565b336000805b6001805490508160ff161015611c295760018160ff1681548110611bb057611baf613026565b5b9060005260206000200160009054906101000a900473ffffffffffffffffffffffffffffffffffffffff1673ffffffffffffffffffffffffffffffffffffffff168373ffffffffffffffffffffffffffffffffffffffff1603611c165760019150611c29565b8080611c2190613091565b915050611b89565b5080611c6a576040517f08c379a0000000000000000000000000000000000000000000000000000000008152600401611c61906131cf565b60405180910390fd5b60005b83518160ff161015611ddc5760076040518060c00160405280868460ff1681518110611c9c57611c9b613026565b5b6020026020010151600001518152602001868460ff1681518110611cc357611cc2613026565b5b6020026020010151602001518152602001868460ff1681518110611cea57611ce9613026565b5b602002602001015160400151815260200160001515815260200160001515815260200160001515815250908060018154018082558091505060019003906000526020600020906004020160009091909190915060008201518160000155602082015181600101556040820151816002019081611d6691906136a7565b5060608201518160030160006101000a81548160ff02191690831515021790555060808201518160030160016101000a81548160ff02191690831515021790555060a08201518160030160026101000a81548160ff02191690831515021790555050508080611dd490613091565b915050611c6d565b50505050565b6000600780549050905090565b336000805b6001805490508160ff161015611e945760018160ff1681548110611e1b57611e1a613026565b5b9060005260206000200160009054906101000a900473ffffffffffffffffffffffffffffffffffffffff1673ffffffffffffffffffffffffffffffffffffffff168373ffffffffffffffffffffffffffffffffffffffff1603611e815760019150611e94565b8080611e8c90613091565b915050611df4565b5080611ed5576040517f08c379a0000000000000000000000000000000000000000000000000000000008152600401611ecc906131cf565b60405180910390fd5b8260099081611ee491906136a7565b50505050565b336000805b6001805490508160ff161015611f8f5760018160ff1681548110611f1657611f15613026565b5b9060005260206000200160009054906101000a900473ffffffffffffffffffffffffffffffffffffffff1673ffffffffffffffffffffffffffffffffffffffff168373ffffffffffffffffffffffffffffffffffffffff1603611f7c5760019150611f8f565b8080611f8790613091565b915050611eef565b5080611fd0576040517f08c379a0000000000000000000000000000000000000000000000000000000008152600401611fc7906131cf565b60405180910390fd5b836000805b6001805490508160ff1610156120755760018160ff1681548110611ffc57611ffb613026565b5b9060005260206000200160009054906101000a900473ffffffffffffffffffffffffffffffffffffffff1673ffffffffffffffffffffffffffffffffffffffff168373ffffffffffffffffffffffffffffffffffffffff16036120625760019150612075565b808061206d90613091565b915050611fd5565b5080806120cf5750600360009054906101000a900473ffffffffffffffffffffffffffffffffffffffff1673ffffffffffffffffffffffffffffffffffffffff168273ffffffffffffffffffffffffffffffffffffffff16145b61210e576040517f08c379a0000000000000000000000000000000000000000000000000000000008152600401612105906137eb565b60405180910390fd5b60648560065461211e9190613b9f565b6121289190613c10565b8047101561216b576040517f08c379a000000000000000000000000000000000000000000000000000000000815260040161216290613857565b60405180910390fd5b600060648760065461217d9190613b9f565b6121879190613c10565b9050600360009054906101000a900473ffffffffffffffffffffffffffffffffffffffff1673ffffffffffffffffffffffffffffffffffffffff168873ffffffffffffffffffffffffffffffffffffffff16146122b75780600260008a73ffffffffffffffffffffffffffffffffffffffff1673ffffffffffffffffffffffffffffffffffffffff168152602001908152602001600020541015612260576040517f08c379a0000000000000000000000000000000000000000000000000000000008152600401612257906138c3565b60405180910390fd5b80600260008a73ffffffffffffffffffffffffffffffffffffffff1673ffffffffffffffffffffffffffffffffffffffff16815260200190815260200160002060008282546122af91906138e3565b925050819055505b8773ffffffffffffffffffffffffffffffffffffffff166108fc829081150290604051600060405180830381858888f193505050501580156122fd573d6000803e3d6000fd5b507f132717cc7ce0e7288e4e1e75cd3527373df35d716a6d9d576199b1ee22b159238882600654474260405161233795949392919061396c565b60405180910390a15050505050505050565b6000819050919050565b61235c81612349565b82525050565b60006020820190506123776000830184612353565b92915050565b600073ffffffffffffffffffffffffffffffffffffffff82169050919050565b60006123a88261237d565b9050919050565b6123b88161239d565b82525050565b60006020820190506123d360008301846123af565b92915050565b6000604051905090565b600080fd5b600080fd5b6123f681612349565b811461240157600080fd5b50565b600081359050612413816123ed565b92915050565b60006020828403121561242f5761242e6123e3565b5b600061243d84828501612404565b91505092915050565b600081519050919050565b600082825260208201905092915050565b6000819050602082019050919050565b61247b8161239d565b82525050565b600061248d8383612472565b60208301905092915050565b6000602082019050919050565b60006124b182612446565b6124bb8185612451565b93506124c683612462565b8060005b838110156124f75781516124de8882612481565b97506124e983612499565b9250506001810190506124ca565b5085935050505092915050565b6000602082019050818103600083015261251e81846124a6565b905092915050565b61252f8161239d565b811461253a57600080fd5b50565b60008135905061254c81612526565b92915050565b600060208284031215612568576125676123e3565b5b60006125768482850161253d565b91505092915050565b600081519050919050565b600082825260208201905092915050565b6000819050602082019050919050565b6125b481612349565b82525050565b600081519050919050565b600082825260208201905092915050565b60005b838110156125f45780820151818401526020810190506125d9565b60008484015250505050565b6000601f19601f8301169050919050565b600061261c826125ba565b61262681856125c5565b93506126368185602086016125d6565b61263f81612600565b840191505092915050565b60008115159050919050565b61265f8161264a565b82525050565b600060c08301600083015161267d60008601826125ab565b50602083015161269060208601826125ab565b50604083015184820360408601526126a88282612611565b91505060608301516126bd6060860182612656565b5060808301516126d06080860182612656565b5060a08301516126e360a0860182612656565b508091505092915050565b60006126fa8383612665565b905092915050565b6000602082019050919050565b600061271a8261257f565b612724818561258a565b9350836020820285016127368561259b565b8060005b85811015612772578484038952815161275385826126ee565b945061275e83612702565b925060208a0199505060018101905061273a565b50829750879550505050505092915050565b6000602082019050818103600083015261279e818461270f565b905092915050565b600080fd5b7f4e487b7100000000000000000000000000000000000000000000000000000000600052604160045260246000fd5b6127e382612600565b810181811067ffffffffffffffff82111715612802576128016127ab565b5b80604052505050565b60006128156123d9565b905061282182826127da565b919050565b600067ffffffffffffffff821115612841576128406127ab565b5b602082029050602081019050919050565b600080fd5b600080fd5b600067ffffffffffffffff821115612877576128766127ab565b5b61288082612600565b9050602081019050919050565b82818337600083830152505050565b60006128af6128aa8461285c565b61280b565b9050828152602081018484840111156128cb576128ca612857565b5b6128d684828561288d565b509392505050565b600082601f8301126128f3576128f26127a6565b5b813561290384826020860161289c565b91505092915050565b600061291f61291a84612826565b61280b565b9050808382526020820190506020840283018581111561294257612941612852565b5b835b8181101561298957803567ffffffffffffffff811115612967576129666127a6565b5b80860161297489826128de565b85526020850194505050602081019050612944565b5050509392505050565b600082601f8301126129a8576129a76127a6565b5b81356129b884826020860161290c565b91505092915050565b600067ffffffffffffffff8211156129dc576129db6127ab565b5b602082029050602081019050919050565b600067ffffffffffffffff821115612a0857612a076127ab565b5b612a1182612600565b9050602081019050919050565b6000612a31612a2c846129ed565b61280b565b905082815260208101848484011115612a4d57612a4c612857565b5b612a5884828561288d565b509392505050565b600082601f830112612a7557612a746127a6565b5b8135612a85848260208601612a1e565b91505092915050565b6000612aa1612a9c846129c1565b61280b565b90508083825260208201905060208402830185811115612ac457612ac3612852565b5b835b81811015612b0b57803567ffffffffffffffff811115612ae957612ae86127a6565b5b808601612af68982612a60565b85526020850194505050602081019050612ac6565b5050509392505050565b600082601f830112612b2a57612b296127a6565b5b8135612b3a848260208601612a8e565b91505092915050565b60008060408385031215612b5a57612b596123e3565b5b600083013567ffffffffffffffff811115612b7857612b776123e8565b5b612b8485828601612993565b925050602083013567ffffffffffffffff811115612ba557612ba46123e8565b5b612bb185828601612b15565b9150509250929050565b6000612bc68261237d565b9050919050565b612bd681612bbb565b8114612be157600080fd5b50565b600081359050612bf381612bcd565b92915050565b60008060408385031215612c1057612c0f6123e3565b5b6000612c1e85828601612be4565b9250506020612c2f85828601612404565b9150509250929050565b600060208284031215612c4f57612c4e6123e3565b5b600082013567ffffffffffffffff811115612c6d57612c6c6123e8565b5b612c79848285016128de565b91505092915050565b600081519050919050565b600082825260208201905092915050565b6000819050602082019050919050565b6000612cba8383612611565b905092915050565b6000602082019050919050565b6000612cda82612c82565b612ce48185612c8d565b935083602082028501612cf685612c9e565b8060005b85811015612d325784840389528151612d138582612cae565b9450612d1e83612cc2565b925060208a01995050600181019050612cfa565b50829750879550505050505092915050565b60006020820190508181036000830152612d5e8184612ccf565b905092915050565b600067ffffffffffffffff821115612d8157612d806127ab565b5b602082029050602081019050919050565b6000612da5612da084612d66565b61280b565b90508083825260208201905060208402830185811115612dc857612dc7612852565b5b835b81811015612df15780612ddd888261253d565b845260208401935050602081019050612dca565b5050509392505050565b600082601f830112612e1057612e0f6127a6565b5b8135612e20848260208601612d92565b91505092915050565b600060208284031215612e3f57612e3e6123e3565b5b600082013567ffffffffffffffff811115612e5d57612e5c6123e8565b5b612e6984828501612dfb565b91505092915050565b600067ffffffffffffffff821115612e8d57612e8c6127ab565b5b602082029050602081019050919050565b600080fd5b600080fd5b600060608284031215612ebe57612ebd612e9e565b5b612ec8606061280b565b90506000612ed884828501612404565b6000830152506020612eec84828501612404565b602083015250604082013567ffffffffffffffff811115612f1057612f0f612ea3565b5b612f1c848285016128de565b60408301525092915050565b6000612f3b612f3684612e72565b61280b565b90508083825260208201905060208402830185811115612f5e57612f5d612852565b5b835b81811015612fa557803567ffffffffffffffff811115612f8357612f826127a6565b5b808601612f908982612ea8565b85526020850194505050602081019050612f60565b5050509392505050565b600082601f830112612fc457612fc36127a6565b5b8135612fd4848260208601612f28565b91505092915050565b600060208284031215612ff357612ff26123e3565b5b600082013567ffffffffffffffff811115613011576130106123e8565b5b61301d84828501612faf565b91505092915050565b7f4e487b7100000000000000000000000000000000000000000000000000000000600052603260045260246000fd5b7f4e487b7100000000000000000000000000000000000000000000000000000000600052601160045260246000fd5b600060ff82169050919050565b600061309c82613084565b915060ff82036130af576130ae613055565b5b600182019050919050565b600082825260208201905092915050565b7f4f6e6c79207061727469636970616e74206f7220737570706c6965722063616e60008201527f2063616c6c20746869732066756e6374696f6e00000000000000000000000000602082015250565b60006131276033836130ba565b9150613132826130cb565b604082019050919050565b600060208201905081810360008301526131568161311a565b9050919050565b7f4f6e6c79207061727469636970616e7420776974686f757420737570706c696560008201527f722063616e2063616c6c20746869732066756e6374696f6e0000000000000000602082015250565b60006131b96038836130ba565b91506131c48261315d565b604082019050919050565b600060208201905081810360008301526131e8816131ac565b9050919050565b60006131fa82612349565b915061320583612349565b925082820190508082111561321d5761321c613055565b5b92915050565b600060a08201905061323860008301886123af565b6132456020830187612353565b6132526040830186612353565b61325f6060830185612353565b61326c6080830184612353565b9695505050505050565b61327f81612bbb565b82525050565b600060408201905061329a6000830185613276565b6132a76020830184612353565b9392505050565b6132b78161264a565b82525050565b600060a0820190506132d26000830188612353565b6132df60208301876132ae565b6132ec60408301866132ae565b6132f960608301856132ae565b6133066080830184612353565b9695505050505050565b7f4e487b7100000000000000000000000000000000000000000000000000000000600052602260045260246000fd5b6000600282049050600182168061335757607f821691505b60208210810361336a57613369613310565b5b50919050565b600081905092915050565b6000613386826125ba565b6133908185613370565b93506133a08185602086016125d6565b80840191505092915050565b60006133b8828461337b565b915081905092915050565b600081519050919050565b60008190508160005260206000209050919050565b60006020601f8301049050919050565b600082821b905092915050565b6000600883026134307fffffffffffffffffffffffffffffffffffffffffffffffffffffffffffffffff826133f3565b61343a86836133f3565b95508019841693508086168417925050509392505050565b6000819050919050565b600061347761347261346d84612349565b613452565b612349565b9050919050565b6000819050919050565b6134918361345c565b6134a561349d8261347e565b848454613400565b825550505050565b600090565b6134ba6134ad565b6134c5818484613488565b505050565b5b818110156134e9576134de6000826134b2565b6001810190506134cb565b5050565b601f82111561352e576134ff816133ce565b613508846133e3565b81016020851015613517578190505b61352b613523856133e3565b8301826134ca565b50505b505050565b600082821c905092915050565b600061355160001984600802613533565b1980831691505092915050565b600061356a8383613540565b9150826002028217905092915050565b613583826133c3565b67ffffffffffffffff81111561359c5761359b6127ab565b5b6135a6825461333f565b6135b18282856134ed565b600060209050601f8311600181146135e457600084156135d2578287015190505b6135dc858261355e565b865550613644565b601f1984166135f2866133ce565b60005b8281101561361a578489015182556001820191506020850194506020810190506135f5565b868310156136375784890151613633601f891682613540565b8355505b6001600288020188555050505b505050505050565b60008190508160005260206000209050919050565b601f8211156136a2576136738161364c565b61367c846133e3565b8101602085101561368b578190505b61369f613697856133e3565b8301826134ca565b50505b505050565b6136b0826125ba565b67ffffffffffffffff8111156136c9576136c86127ab565b5b6136d3825461333f565b6136de828285613661565b600060209050601f83116001811461371157600084156136ff578287015190505b613709858261355e565b865550613771565b601f19841661371f8661364c565b60005b8281101561374757848901518255600182019150602085019450602081019050613722565b868310156137645784890151613760601f891682613540565b8355505b6001600288020188555050505b505050505050565b7f4f6e6c79207061727469636970616e74206f7220737570706c6965722063616e60008201527f2072656365697665000000000000000000000000000000000000000000000000602082015250565b60006137d56028836130ba565b91506137e082613779565b604082019050919050565b60006020820190508181036000830152613804816137c8565b9050919050565b7f4e6f7420656e6f75676820657468657273000000000000000000000000000000600082015250565b60006138416011836130ba565b915061384c8261380b565b602082019050919050565b6000602082019050818103600083015261387081613834565b9050919050565b7f4e6f7420656e6f75676820617373657473000000000000000000000000000000600082015250565b60006138ad6011836130ba565b91506138b882613877565b602082019050919050565b600060208201905081810360008301526138dc816138a0565b9050919050565b60006138ee82612349565b91506138f983612349565b925082820390508181111561391157613910613055565b5b92915050565b600061393261392d6139288461237d565b613452565b61237d565b9050919050565b600061394482613917565b9050919050565b600061395682613939565b9050919050565b6139668161394b565b82525050565b600060a082019050613981600083018861395d565b61398e6020830187612353565b61399b6040830186612353565b6139a86060830185612353565b6139b56080830184612353565b9695505050505050565b600081546139cc8161333f565b6139d68186613370565b945060018216600081146139f15760018114613a0657613a39565b60ff1983168652811515820286019350613a39565b613a0f8561364c565b60005b83811015613a3157815481890152600182019150602081019050613a12565b838801955050505b50505092915050565b6000613a4e82846139bf565b915081905092915050565b7f50726976617465206b6579206973206e6f7420636f7272656374000000000000600082015250565b6000613a8f601a836130ba565b9150613a9a82613a59565b602082019050919050565b60006020820190508181036000830152613abe81613a82565b9050919050565b6000613ad082612349565b91507fffffffffffffffffffffffffffffffffffffffffffffffffffffffffffffffff8203613b0257613b01613055565b5b600182019050919050565b7f4f6e6c7920737570706c6965722063616e2063616c6c20746869732066756e6360008201527f74696f6e00000000000000000000000000000000000000000000000000000000602082015250565b6000613b696024836130ba565b9150613b7482613b0d565b604082019050919050565b60006020820190508181036000830152613b9881613b5c565b9050919050565b6000613baa82612349565b9150613bb583612349565b9250828202613bc381612349565b91508282048414831517613bda57613bd9613055565b5b5092915050565b7f4e487b7100000000000000000000000000000000000000000000000000000000600052601260045260246000fd5b6000613c1b82612349565b9150613c2683612349565b925082613c3657613c35613be1565b5b82820490509291505056fea26469706673582212205de5caac3621acc57059afc2db4c3d3fad56ea2aa2cd5ada181c6a0be8b7ae8264736f6c63430008130033",
  "linkReferences": {},
  "deployedLinkReferences": {}
}