{
  "_format": "hh-sol-artifact-1",
  "contractName": "SupplyChain",
  "sourceName": "contracts/SupplyChain.sol",
  "abi": [
    {
      "inputs": [
        {
          "internalType": "address[]",
          "name": "_user",
          "type": "address[]"
        },
        {
          "internalType": "address",
          "name": "_supplier",
          "type": "address"
        },
        {
          "internalType": "string[]",
          "name": "_keys",
          "type": "string[]"
        },
        {
          "internalType": "bytes[]",
          "name": "_values",
          "type": "bytes[]"
        },
        {
          "internalType": "uint256",
          "name": "_total",
          "type": "uint256"
        },
        {
          "components": [
            {
              "internalType": "uint256",
              "name": "percent",
              "type": "uint256"
            },
            {
              "internalType": "uint256",
              "name": "deliveryAt",
              "type": "uint256"
            }
          ],
          "internalType": "struct SupplyChain.StageData[]",
          "name": "_stages",
          "type": "tuple[]"
        }
      ],
      "stateMutability": "nonpayable",
      "type": "constructor"
    },
    {
      "anonymous": false,
      "inputs": [
        {
          "indexed": false,
          "internalType": "uint256",
          "name": "percent",
          "type": "uint256"
        },
        {
          "indexed": false,
          "internalType": "bool",
          "name": "userConfirm",
          "type": "bool"
        },
        {
          "indexed": false,
          "internalType": "bool",
          "name": "supplierConfirm",
          "type": "bool"
        },
        {
          "indexed": false,
          "internalType": "bool",
          "name": "isDone",
          "type": "bool"
        },
        {
          "indexed": false,
          "internalType": "uint256",
          "name": "confirmedAt",
          "type": "uint256"
        }
      ],
      "name": "confirmedStage",
      "type": "event"
    },
    {
      "anonymous": false,
      "inputs": [
        {
          "indexed": false,
          "internalType": "address",
          "name": "owner",
          "type": "address"
        },
        {
          "indexed": false,
          "internalType": "address[]",
          "name": "user",
          "type": "address[]"
        },
        {
          "indexed": false,
          "internalType": "address",
          "name": "supplier",
          "type": "address"
        },
        {
          "indexed": false,
          "internalType": "uint256",
          "name": "totalBalance",
          "type": "uint256"
        },
        {
          "indexed": false,
          "internalType": "uint256",
          "name": "currentBalance",
          "type": "uint256"
        },
        {
          "indexed": false,
          "internalType": "uint256",
          "name": "deployAt",
          "type": "uint256"
        }
      ],
      "name": "contractCreated",
      "type": "event"
    },
    {
      "anonymous": false,
      "inputs": [
        {
          "indexed": false,
          "internalType": "address",
          "name": "sender",
          "type": "address"
        },
        {
          "indexed": false,
          "internalType": "uint256",
          "name": "amount",
          "type": "uint256"
        },
        {
          "indexed": false,
          "internalType": "uint256",
          "name": "totalBalance",
          "type": "uint256"
        },
        {
          "indexed": false,
          "internalType": "uint256",
          "name": "currentBalance",
          "type": "uint256"
        },
        {
          "indexed": false,
          "internalType": "uint256",
          "name": "receivedAt",
          "type": "uint256"
        }
      ],
      "name": "received",
      "type": "event"
    },
    {
      "anonymous": false,
      "inputs": [
        {
          "indexed": false,
          "internalType": "address",
          "name": "to",
          "type": "address"
        },
        {
          "indexed": false,
          "internalType": "uint256",
          "name": "amount",
          "type": "uint256"
        },
        {
          "indexed": false,
          "internalType": "uint256",
          "name": "totalBalance",
          "type": "uint256"
        },
        {
          "indexed": false,
          "internalType": "uint256",
          "name": "currentBalance",
          "type": "uint256"
        },
        {
          "indexed": false,
          "internalType": "uint256",
          "name": "widthdrewAt",
          "type": "uint256"
        }
      ],
      "name": "widthdrew",
      "type": "event"
    },
    {
      "inputs": [],
      "name": "confirmStage",
      "outputs": [],
      "stateMutability": "nonpayable",
      "type": "function"
    },
    {
      "inputs": [
        {
          "internalType": "address",
          "name": "_addressWallet",
          "type": "address"
        }
      ],
      "name": "getAssets",
      "outputs": [
        {
          "internalType": "uint256",
          "name": "",
          "type": "uint256"
        }
      ],
      "stateMutability": "view",
      "type": "function"
    },
    {
      "inputs": [],
      "name": "getBalance",
      "outputs": [
        {
          "internalType": "uint256",
          "name": "",
          "type": "uint256"
        }
      ],
      "stateMutability": "view",
      "type": "function"
    },
    {
      "inputs": [],
      "name": "getContractInformation",
      "outputs": [
        {
          "internalType": "string[]",
          "name": "",
          "type": "string[]"
        }
      ],
      "stateMutability": "view",
      "type": "function"
    },
    {
      "inputs": [],
      "name": "getOwnerAddressWallet",
      "outputs": [
        {
          "internalType": "address",
          "name": "",
          "type": "address"
        }
      ],
      "stateMutability": "view",
      "type": "function"
    },
    {
      "inputs": [],
      "name": "getStages",
      "outputs": [
        {
          "components": [
            {
              "internalType": "uint256",
              "name": "percent",
              "type": "uint256"
            },
            {
              "internalType": "uint256",
              "name": "deliveryAt",
              "type": "uint256"
            },
            {
              "internalType": "bool",
              "name": "userConfirm",
              "type": "bool"
            },
            {
              "internalType": "bool",
              "name": "supplierConfirm",
              "type": "bool"
            },
            {
              "internalType": "bool",
              "name": "isDone",
              "type": "bool"
            }
          ],
          "internalType": "struct SupplyChain.Stage[]",
          "name": "",
          "type": "tuple[]"
        }
      ],
      "stateMutability": "view",
      "type": "function"
    },
    {
      "inputs": [],
      "name": "getSupplierAddressWallet",
      "outputs": [
        {
          "internalType": "address",
          "name": "",
          "type": "address"
        }
      ],
      "stateMutability": "view",
      "type": "function"
    },
    {
      "inputs": [],
      "name": "getTotalBalance",
      "outputs": [
        {
          "internalType": "uint256",
          "name": "",
          "type": "uint256"
        }
      ],
      "stateMutability": "view",
      "type": "function"
    },
    {
      "inputs": [],
      "name": "getUserAddressWallet",
      "outputs": [
        {
          "internalType": "address[]",
          "name": "",
          "type": "address[]"
        }
      ],
      "stateMutability": "view",
      "type": "function"
    },
    {
      "inputs": [],
      "name": "sendToSmartContract",
      "outputs": [],
      "stateMutability": "payable",
      "type": "function"
    },
    {
      "inputs": [
        {
          "internalType": "address payable",
          "name": "_addressWallet",
          "type": "address"
        },
        {
          "internalType": "uint256",
          "name": "_amount",
          "type": "uint256"
        }
      ],
      "name": "withDrawByCurrency",
      "outputs": [],
      "stateMutability": "payable",
      "type": "function"
    },
    {
      "inputs": [
        {
          "internalType": "address payable",
          "name": "_addressWallet",
          "type": "address"
        },
        {
          "internalType": "uint256",
          "name": "_percent",
          "type": "uint256"
        }
      ],
      "name": "withDrawByPercent",
      "outputs": [],
      "stateMutability": "payable",
      "type": "function"
    }
  ],
  "bytecode": "0x60806040526000600860006101000a81548160ff021916908360ff1602179055503480156200002d57600080fd5b506040516200383e3803806200383e833981810160405281019062000053919062000ba5565b670de0b6b3a76400008262000069919062000cec565b60068190555084600360006101000a81548173ffffffffffffffffffffffffffffffffffffffff021916908373ffffffffffffffffffffffffffffffffffffffff160217905550336000806101000a81548173ffffffffffffffffffffffffffffffffffffffff021916908373ffffffffffffffffffffffffffffffffffffffff16021790555060005b86518160ff161015620001fe576001878260ff16815181106200011b576200011a62000d37565b5b60200260200101519080600181540180825580915050600190039060005260206000200160009091909190916101000a81548173ffffffffffffffffffffffffffffffffffffffff021916908373ffffffffffffffffffffffffffffffffffffffff160217905550600060026000898460ff1681518110620001a257620001a162000d37565b5b602002602001015173ffffffffffffffffffffffffffffffffffffffff1673ffffffffffffffffffffffffffffffffffffffff168152602001908152602001600020819055508080620001f59062000d73565b915050620000f3565b5060005b84518160ff161015620002ec57838160ff168151811062000228576200022762000d37565b5b60200260200101516004868360ff16815181106200024b576200024a62000d37565b5b602002602001015160405162000262919062000dee565b908152602001604051809103902090816200027e919062001048565b506005858260ff16815181106200029a576200029962000d37565b5b6020026020010151908060018154018082558091505060019003906000526020600020016000909190919091509081620002d5919062001194565b508080620002e39062000d73565b91505062000202565b5060005b81518160ff1610156200042c5760076040518060a00160405280848460ff168151811062000323576200032262000d37565b5b6020026020010151600001518152602001848460ff16815181106200034d576200034c62000d37565b5b6020026020010151602001518152602001600015158152602001600015158152602001600015158152509080600181540180825580915050600190039060005260206000209060030201600090919091909150600082015181600001556020820151816001015560408201518160020160006101000a81548160ff02191690831515021790555060608201518160020160016101000a81548160ff02191690831515021790555060808201518160020160026101000a81548160ff02191690831515021790555050508080620004239062000d73565b915050620002f0565b507f68e8e16725ae304c7b00b773ba80b94a2ea18bebc9d7cc7ade4f8c4980649ae160008054906101000a900473ffffffffffffffffffffffffffffffffffffffff166001600360009054906101000a900473ffffffffffffffffffffffffffffffffffffffff166006544742604051620004ad96959493929190620013d9565b60405180910390a15050505050506200144d565b6000604051905090565b600080fd5b600080fd5b600080fd5b6000601f19601f8301169050919050565b7f4e487b7100000000000000000000000000000000000000000000000000000000600052604160045260246000fd5b6200052582620004da565b810181811067ffffffffffffffff82111715620005475762000546620004eb565b5b80604052505050565b60006200055c620004c1565b90506200056a82826200051a565b919050565b600067ffffffffffffffff8211156200058d576200058c620004eb565b5b602082029050602081019050919050565b600080fd5b600073ffffffffffffffffffffffffffffffffffffffff82169050919050565b6000620005d082620005a3565b9050919050565b620005e281620005c3565b8114620005ee57600080fd5b50565b6000815190506200060281620005d7565b92915050565b60006200061f62000619846200056f565b62000550565b905080838252602082019050602084028301858111156200064557620006446200059e565b5b835b818110156200067257806200065d8882620005f1565b84526020840193505060208101905062000647565b5050509392505050565b600082601f830112620006945762000693620004d5565b5b8151620006a684826020860162000608565b91505092915050565b600067ffffffffffffffff821115620006cd57620006cc620004eb565b5b602082029050602081019050919050565b600080fd5b600067ffffffffffffffff821115620007015762000700620004eb565b5b6200070c82620004da565b9050602081019050919050565b60005b83811015620007395780820151818401526020810190506200071c565b60008484015250505050565b60006200075c6200075684620006e3565b62000550565b9050828152602081018484840111156200077b576200077a620006de565b5b6200078884828562000719565b509392505050565b600082601f830112620007a857620007a7620004d5565b5b8151620007ba84826020860162000745565b91505092915050565b6000620007da620007d484620006af565b62000550565b905080838252602082019050602084028301858111156200080057620007ff6200059e565b5b835b818110156200084e57805167ffffffffffffffff811115620008295762000828620004d5565b5b80860162000838898262000790565b8552602085019450505060208101905062000802565b5050509392505050565b600082601f83011262000870576200086f620004d5565b5b815162000882848260208601620007c3565b91505092915050565b600067ffffffffffffffff821115620008a957620008a8620004eb565b5b602082029050602081019050919050565b600067ffffffffffffffff821115620008d857620008d7620004eb565b5b620008e382620004da565b9050602081019050919050565b6000620009076200090184620008ba565b62000550565b905082815260208101848484011115620009265762000925620006de565b5b6200093384828562000719565b509392505050565b600082601f830112620009535762000952620004d5565b5b815162000965848260208601620008f0565b91505092915050565b6000620009856200097f846200088b565b62000550565b90508083825260208201905060208402830185811115620009ab57620009aa6200059e565b5b835b81811015620009f957805167ffffffffffffffff811115620009d457620009d3620004d5565b5b808601620009e389826200093b565b85526020850194505050602081019050620009ad565b5050509392505050565b600082601f83011262000a1b5762000a1a620004d5565b5b815162000a2d8482602086016200096e565b91505092915050565b6000819050919050565b62000a4b8162000a36565b811462000a5757600080fd5b50565b60008151905062000a6b8162000a40565b92915050565b600067ffffffffffffffff82111562000a8f5762000a8e620004eb565b5b602082029050602081019050919050565b600080fd5b60006040828403121562000abe5762000abd62000aa0565b5b62000aca604062000550565b9050600062000adc8482850162000a5a565b600083015250602062000af28482850162000a5a565b60208301525092915050565b600062000b1562000b0f8462000a71565b62000550565b9050808382526020820190506040840283018581111562000b3b5762000b3a6200059e565b5b835b8181101562000b68578062000b53888262000aa5565b84526020840193505060408101905062000b3d565b5050509392505050565b600082601f83011262000b8a5762000b89620004d5565b5b815162000b9c84826020860162000afe565b91505092915050565b60008060008060008060c0878903121562000bc55762000bc4620004cb565b5b600087015167ffffffffffffffff81111562000be65762000be5620004d0565b5b62000bf489828a016200067c565b965050602062000c0789828a01620005f1565b955050604087015167ffffffffffffffff81111562000c2b5762000c2a620004d0565b5b62000c3989828a0162000858565b945050606087015167ffffffffffffffff81111562000c5d5762000c5c620004d0565b5b62000c6b89828a0162000a03565b935050608062000c7e89828a0162000a5a565b92505060a087015167ffffffffffffffff81111562000ca25762000ca1620004d0565b5b62000cb089828a0162000b72565b9150509295509295509295565b7f4e487b7100000000000000000000000000000000000000000000000000000000600052601160045260246000fd5b600062000cf98262000a36565b915062000d068362000a36565b925082820262000d168162000a36565b9150828204841483151762000d305762000d2f62000cbd565b5b5092915050565b7f4e487b7100000000000000000000000000000000000000000000000000000000600052603260045260246000fd5b600060ff82169050919050565b600062000d808262000d66565b915060ff820362000d965762000d9562000cbd565b5b600182019050919050565b600081519050919050565b600081905092915050565b600062000dc48262000da1565b62000dd0818562000dac565b935062000de281856020860162000719565b80840191505092915050565b600062000dfc828462000db7565b915081905092915050565b600081519050919050565b7f4e487b7100000000000000000000000000000000000000000000000000000000600052602260045260246000fd5b6000600282049050600182168062000e5a57607f821691505b60208210810362000e705762000e6f62000e12565b5b50919050565b60008190508160005260206000209050919050565b60006020601f8301049050919050565b600082821b905092915050565b60006008830262000eda7fffffffffffffffffffffffffffffffffffffffffffffffffffffffffffffffff8262000e9b565b62000ee6868362000e9b565b95508019841693508086168417925050509392505050565b6000819050919050565b600062000f2962000f2362000f1d8462000a36565b62000efe565b62000a36565b9050919050565b6000819050919050565b62000f458362000f08565b62000f5d62000f548262000f30565b84845462000ea8565b825550505050565b600090565b62000f7462000f65565b62000f8181848462000f3a565b505050565b5b8181101562000fa95762000f9d60008262000f6a565b60018101905062000f87565b5050565b601f82111562000ff85762000fc28162000e76565b62000fcd8462000e8b565b8101602085101562000fdd578190505b62000ff562000fec8562000e8b565b83018262000f86565b50505b505050565b600082821c905092915050565b60006200101d6000198460080262000ffd565b1980831691505092915050565b60006200103883836200100a565b9150826002028217905092915050565b620010538262000e07565b67ffffffffffffffff8111156200106f576200106e620004eb565b5b6200107b825462000e41565b6200108882828562000fad565b600060209050601f831160018114620010c05760008415620010ab578287015190505b620010b785826200102a565b86555062001127565b601f198416620010d08662000e76565b60005b82811015620010fa57848901518255600182019150602085019450602081019050620010d3565b868310156200111a578489015162001116601f8916826200100a565b8355505b6001600288020188555050505b505050505050565b60008190508160005260206000209050919050565b601f8211156200118f5762001159816200112f565b620011648462000e8b565b8101602085101562001174578190505b6200118c620011838562000e8b565b83018262000f86565b50505b505050565b6200119f8262000da1565b67ffffffffffffffff811115620011bb57620011ba620004eb565b5b620011c7825462000e41565b620011d482828562001144565b600060209050601f8311600181146200120c5760008415620011f7578287015190505b6200120385826200102a565b86555062001273565b601f1984166200121c866200112f565b60005b8281101562001246578489015182556001820191506020850194506020810190506200121f565b8683101562001266578489015162001262601f8916826200100a565b8355505b6001600288020188555050505b505050505050565b6200128681620005c3565b82525050565b600081549050919050565b600082825260208201905092915050565b60008190508160005260206000209050919050565b620012c881620005c3565b82525050565b6000620012dc8383620012bd565b60208301905092915050565b60008160001c9050919050565b600073ffffffffffffffffffffffffffffffffffffffff82169050919050565b60006200132c6200132683620012e8565b620012f5565b9050919050565b600062001341825462001315565b9050919050565b6000600182019050919050565b600062001362826200128c565b6200136e818562001297565b93506200137b83620012a8565b8060005b83811015620013bb57620013938262001333565b6200139f8882620012ce565b9750620013ac8362001348565b9250506001810190506200137f565b5085935050505092915050565b620013d38162000a36565b82525050565b600060c082019050620013f060008301896200127b565b818103602083015262001404818862001355565b90506200141560408301876200127b565b620014246060830186620013c8565b620014336080830185620013c8565b6200144260a0830184620013c8565b979650505050505050565b6123e1806200145d6000396000f3fe6080604052600436106100a75760003560e01c8063742978da11610064578063742978da1461017957806379655bd0146101b6578063904e3cff146101e15780639c01b52f146101fd578063f6dfdad114610228578063fbb0533714610253576100a7565b806312065fe0146100ac57806312b58349146100d757806314a24bcf146101025780633f44327a1461012d5780634510fb59146101585780634bbe765a14610162575b600080fd5b3480156100b857600080fd5b506100c161026f565b6040516100ce9190611708565b60405180910390f35b3480156100e357600080fd5b506100ec610277565b6040516100f99190611708565b60405180910390f35b34801561010e57600080fd5b50610117610281565b6040516101249190611764565b60405180910390f35b34801561013957600080fd5b506101426102ab565b60405161014f919061183d565b60405180910390f35b610160610339565b005b34801561016e57600080fd5b506101776104ba565b005b34801561018557600080fd5b506101a0600480360381019061019b9190611890565b610ae5565b6040516101ad9190611708565b60405180910390f35b3480156101c257600080fd5b506101cb610c16565b6040516101d891906119fe565b60405180910390f35b6101fb60048036038101906101f69190611a8a565b610cda565b005b34801561020957600080fd5b50610212611101565b60405161021f9190611764565b60405180910390f35b34801561023457600080fd5b5061023d61112a565b60405161024a9190611c1c565b60405180910390f35b61026d60048036038101906102689190611a8a565b611290565b005b600047905090565b6000600654905090565b6000600360009054906101000a900473ffffffffffffffffffffffffffffffffffffffff16905090565b6060600180548060200260200160405190810160405280929190818152602001828054801561032f57602002820191906000526020600020905b8160009054906101000a900473ffffffffffffffffffffffffffffffffffffffff1673ffffffffffffffffffffffffffffffffffffffff16815260200190600101908083116102e5575b5050505050905090565b336000805b6001805490508160ff1610156103de5760018160ff168154811061036557610364611c3e565b5b9060005260206000200160009054906101000a900473ffffffffffffffffffffffffffffffffffffffff1673ffffffffffffffffffffffffffffffffffffffff168373ffffffffffffffffffffffffffffffffffffffff16036103cb57600191506103de565b80806103d690611ca9565b91505061033e565b508061041f576040517f08c379a000000000000000000000000000000000000000000000000000000000815260040161041690611d55565b60405180910390fd5b34600260003373ffffffffffffffffffffffffffffffffffffffff1673ffffffffffffffffffffffffffffffffffffffff168152602001908152602001600020600082825461046e9190611d75565b925050819055507fe4f13824473bb5d7c83a33648a5b781337db89c57cdfdb2caf2c87a9ca0391f6333460065447426040516104ae959493929190611da9565b60405180910390a15050565b336000805b6001805490508160ff16101561055f5760018160ff16815481106104e6576104e5611c3e565b5b9060005260206000200160009054906101000a900473ffffffffffffffffffffffffffffffffffffffff1673ffffffffffffffffffffffffffffffffffffffff168373ffffffffffffffffffffffffffffffffffffffff160361054c576001915061055f565b808061055790611ca9565b9150506104bf565b5080806105b95750600360009054906101000a900473ffffffffffffffffffffffffffffffffffffffff1673ffffffffffffffffffffffffffffffffffffffff168273ffffffffffffffffffffffffffffffffffffffff16145b6105f8576040517f08c379a00000000000000000000000000000000000000000000000000000000081526004016105ef90611e6e565b60405180910390fd5b600360009054906101000a900473ffffffffffffffffffffffffffffffffffffffff1673ffffffffffffffffffffffffffffffffffffffff163373ffffffffffffffffffffffffffffffffffffffff16036106a25760016007600860009054906101000a900460ff1660ff168154811061067557610674611c3e565b5b906000526020600020906003020160020160016101000a81548160ff0219169083151502179055506106f3565b60016007600860009054906101000a900460ff1660ff16815481106106ca576106c9611c3e565b5b906000526020600020906003020160020160006101000a81548160ff0219169083151502179055505b6007600860009054906101000a900460ff1660ff168154811061071957610718611c3e565b5b906000526020600020906003020160020160019054906101000a900460ff16801561078557506007600860009054906101000a900460ff1660ff168154811061076557610764611c3e565b5b906000526020600020906003020160020160009054906101000a900460ff165b1561099f573073ffffffffffffffffffffffffffffffffffffffff1663fbb05337600360009054906101000a900473ffffffffffffffffffffffffffffffffffffffff166007600860009054906101000a900460ff1660ff16815481106107ef576107ee611c3e565b5b9060005260206000209060030201600001546040518363ffffffff1660e01b815260040161081e929190611e9d565b600060405180830381600087803b15801561083857600080fd5b505af115801561084c573d6000803e3d6000fd5b505050506008600081819054906101000a900460ff168092919061086f90611ca9565b91906101000a81548160ff021916908360ff160217905550503073ffffffffffffffffffffffffffffffffffffffff1663fbb05337600360009054906101000a900473ffffffffffffffffffffffffffffffffffffffff166007600860009054906101000a900460ff1660ff16815481106108ed576108ec611c3e565b5b9060005260206000209060030201600001546040518363ffffffff1660e01b815260040161091c929190611e9d565b600060405180830381600087803b15801561093657600080fd5b505af115801561094a573d6000803e3d6000fd5b5050505060016007600860009054906101000a900460ff1660ff168154811061097657610975611c3e565b5b906000526020600020906003020160020160026101000a81548160ff0219169083151502179055505b7f3b73a39967ce2bf2e7547f44bed45ab8268d03405789dee7c98598a496b82cfc6007600860009054906101000a900460ff1660ff16815481106109e6576109e5611c3e565b5b9060005260206000209060030201600001546007600860009054906101000a900460ff1660ff1681548110610a1e57610a1d611c3e565b5b906000526020600020906003020160020160009054906101000a900460ff166007600860009054906101000a900460ff1660ff1681548110610a6357610a62611c3e565b5b906000526020600020906003020160020160019054906101000a900460ff166007600860009054906101000a900460ff1660ff1681548110610aa857610aa7611c3e565b5b906000526020600020906003020160020160029054906101000a900460ff1642604051610ad9959493929190611ed5565b60405180910390a15050565b6000816000805b6001805490508160ff161015610b8c5760018160ff1681548110610b1357610b12611c3e565b5b9060005260206000200160009054906101000a900473ffffffffffffffffffffffffffffffffffffffff1673ffffffffffffffffffffffffffffffffffffffff168373ffffffffffffffffffffffffffffffffffffffff1603610b795760019150610b8c565b8080610b8490611ca9565b915050610aec565b5080610bcd576040517f08c379a0000000000000000000000000000000000000000000000000000000008152600401610bc490611d55565b60405180910390fd5b600260008573ffffffffffffffffffffffffffffffffffffffff1673ffffffffffffffffffffffffffffffffffffffff1681526020019081526020016000205492505050919050565b60606007805480602002602001604051908101604052809291908181526020016000905b82821015610cd157838290600052602060002090600302016040518060a001604052908160008201548152602001600182015481526020016002820160009054906101000a900460ff161515151581526020016002820160019054906101000a900460ff161515151581526020016002820160029054906101000a900460ff16151515158152505081526020019060010190610c3a565b50505050905090565b336000805b6001805490508160ff161015610d7f5760018160ff1681548110610d0657610d05611c3e565b5b9060005260206000200160009054906101000a900473ffffffffffffffffffffffffffffffffffffffff1673ffffffffffffffffffffffffffffffffffffffff168373ffffffffffffffffffffffffffffffffffffffff1603610d6c5760019150610d7f565b8080610d7790611ca9565b915050610cdf565b5080610dc0576040517f08c379a0000000000000000000000000000000000000000000000000000000008152600401610db790611d55565b60405180910390fd5b836000805b6001805490508160ff161015610e655760018160ff1681548110610dec57610deb611c3e565b5b9060005260206000200160009054906101000a900473ffffffffffffffffffffffffffffffffffffffff1673ffffffffffffffffffffffffffffffffffffffff168373ffffffffffffffffffffffffffffffffffffffff1603610e525760019150610e65565b8080610e5d90611ca9565b915050610dc5565b508080610ebf5750600360009054906101000a900473ffffffffffffffffffffffffffffffffffffffff1673ffffffffffffffffffffffffffffffffffffffff168273ffffffffffffffffffffffffffffffffffffffff16145b610efe576040517f08c379a0000000000000000000000000000000000000000000000000000000008152600401610ef590611f9a565b60405180910390fd5b8480471015610f42576040517f08c379a0000000000000000000000000000000000000000000000000000000008152600401610f3990612006565b60405180910390fd5b600360009054906101000a900473ffffffffffffffffffffffffffffffffffffffff1673ffffffffffffffffffffffffffffffffffffffff168773ffffffffffffffffffffffffffffffffffffffff16146110705785600260008973ffffffffffffffffffffffffffffffffffffffff1673ffffffffffffffffffffffffffffffffffffffff168152602001908152602001600020541015611019576040517f08c379a000000000000000000000000000000000000000000000000000000000815260040161101090612072565b60405180910390fd5b85600260008973ffffffffffffffffffffffffffffffffffffffff1673ffffffffffffffffffffffffffffffffffffffff16815260200190815260200160002060008282546110689190612092565b925050819055505b8673ffffffffffffffffffffffffffffffffffffffff166108fc879081150290604051600060405180830381858888f193505050501580156110b6573d6000803e3d6000fd5b507f132717cc7ce0e7288e4e1e75cd3527373df35d716a6d9d576199b1ee22b15923878760065447426040516110f0959493929190612125565b60405180910390a150505050505050565b60008060009054906101000a900473ffffffffffffffffffffffffffffffffffffffff16905090565b6060600060058054905067ffffffffffffffff81111561114d5761114c612178565b5b60405190808252806020026020018201604052801561118057816020015b606081526020019060019003908161116b5790505b50905060005b600580549050811015611288576004600582815481106111a9576111a8611c3e565b5b906000526020600020016040516111c091906122aa565b908152602001604051809103902080546111d9906121d6565b80601f0160208091040260200160405190810160405280929190818152602001828054611205906121d6565b80156112525780601f1061122757610100808354040283529160200191611252565b820191906000526020600020905b81548152906001019060200180831161123557829003601f168201915b505050505082828151811061126a57611269611c3e565b5b60200260200101819052508080611280906122c1565b915050611186565b508091505090565b336000805b6001805490508160ff1610156113355760018160ff16815481106112bc576112bb611c3e565b5b9060005260206000200160009054906101000a900473ffffffffffffffffffffffffffffffffffffffff1673ffffffffffffffffffffffffffffffffffffffff168373ffffffffffffffffffffffffffffffffffffffff16036113225760019150611335565b808061132d90611ca9565b915050611295565b5080611376576040517f08c379a000000000000000000000000000000000000000000000000000000000815260040161136d90611d55565b60405180910390fd5b836000805b6001805490508160ff16101561141b5760018160ff16815481106113a2576113a1611c3e565b5b9060005260206000200160009054906101000a900473ffffffffffffffffffffffffffffffffffffffff1673ffffffffffffffffffffffffffffffffffffffff168373ffffffffffffffffffffffffffffffffffffffff1603611408576001915061141b565b808061141390611ca9565b91505061137b565b5080806114755750600360009054906101000a900473ffffffffffffffffffffffffffffffffffffffff1673ffffffffffffffffffffffffffffffffffffffff168273ffffffffffffffffffffffffffffffffffffffff16145b6114b4576040517f08c379a00000000000000000000000000000000000000000000000000000000081526004016114ab90611f9a565b60405180910390fd5b6064856006546114c49190612309565b6114ce919061237a565b80471015611511576040517f08c379a000000000000000000000000000000000000000000000000000000000815260040161150890612006565b60405180910390fd5b60006064876006546115239190612309565b61152d919061237a565b9050600360009054906101000a900473ffffffffffffffffffffffffffffffffffffffff1673ffffffffffffffffffffffffffffffffffffffff168873ffffffffffffffffffffffffffffffffffffffff161461165d5780600260008a73ffffffffffffffffffffffffffffffffffffffff1673ffffffffffffffffffffffffffffffffffffffff168152602001908152602001600020541015611606576040517f08c379a00000000000000000000000000000000000000000000000000000000081526004016115fd90612072565b60405180910390fd5b80600260008a73ffffffffffffffffffffffffffffffffffffffff1673ffffffffffffffffffffffffffffffffffffffff16815260200190815260200160002060008282546116559190612092565b925050819055505b8773ffffffffffffffffffffffffffffffffffffffff166108fc829081150290604051600060405180830381858888f193505050501580156116a3573d6000803e3d6000fd5b507f132717cc7ce0e7288e4e1e75cd3527373df35d716a6d9d576199b1ee22b15923888260065447426040516116dd959493929190612125565b60405180910390a15050505050505050565b6000819050919050565b611702816116ef565b82525050565b600060208201905061171d60008301846116f9565b92915050565b600073ffffffffffffffffffffffffffffffffffffffff82169050919050565b600061174e82611723565b9050919050565b61175e81611743565b82525050565b60006020820190506117796000830184611755565b92915050565b600081519050919050565b600082825260208201905092915050565b6000819050602082019050919050565b6117b481611743565b82525050565b60006117c683836117ab565b60208301905092915050565b6000602082019050919050565b60006117ea8261177f565b6117f4818561178a565b93506117ff8361179b565b8060005b8381101561183057815161181788826117ba565b9750611822836117d2565b925050600181019050611803565b5085935050505092915050565b6000602082019050818103600083015261185781846117df565b905092915050565b600080fd5b61186d81611743565b811461187857600080fd5b50565b60008135905061188a81611864565b92915050565b6000602082840312156118a6576118a561185f565b5b60006118b48482850161187b565b91505092915050565b600081519050919050565b600082825260208201905092915050565b6000819050602082019050919050565b6118f2816116ef565b82525050565b60008115159050919050565b61190d816118f8565b82525050565b60a08201600082015161192960008501826118e9565b50602082015161193c60208501826118e9565b50604082015161194f6040850182611904565b5060608201516119626060850182611904565b5060808201516119756080850182611904565b50505050565b60006119878383611913565b60a08301905092915050565b6000602082019050919050565b60006119ab826118bd565b6119b581856118c8565b93506119c0836118d9565b8060005b838110156119f15781516119d8888261197b565b97506119e383611993565b9250506001810190506119c4565b5085935050505092915050565b60006020820190508181036000830152611a1881846119a0565b905092915050565b6000611a2b82611723565b9050919050565b611a3b81611a20565b8114611a4657600080fd5b50565b600081359050611a5881611a32565b92915050565b611a67816116ef565b8114611a7257600080fd5b50565b600081359050611a8481611a5e565b92915050565b60008060408385031215611aa157611aa061185f565b5b6000611aaf85828601611a49565b9250506020611ac085828601611a75565b9150509250929050565b600081519050919050565b600082825260208201905092915050565b6000819050602082019050919050565b600081519050919050565b600082825260208201905092915050565b60005b83811015611b30578082015181840152602081019050611b15565b60008484015250505050565b6000601f19601f8301169050919050565b6000611b5882611af6565b611b628185611b01565b9350611b72818560208601611b12565b611b7b81611b3c565b840191505092915050565b6000611b928383611b4d565b905092915050565b6000602082019050919050565b6000611bb282611aca565b611bbc8185611ad5565b935083602082028501611bce85611ae6565b8060005b85811015611c0a5784840389528151611beb8582611b86565b9450611bf683611b9a565b925060208a01995050600181019050611bd2565b50829750879550505050505092915050565b60006020820190508181036000830152611c368184611ba7565b905092915050565b7f4e487b7100000000000000000000000000000000000000000000000000000000600052603260045260246000fd5b7f4e487b7100000000000000000000000000000000000000000000000000000000600052601160045260246000fd5b600060ff82169050919050565b6000611cb482611c9c565b915060ff8203611cc757611cc6611c6d565b5b600182019050919050565b600082825260208201905092915050565b7f4f6e6c79207061727469636970616e7420776974686f757420737570706c696560008201527f722063616e2063616c6c20746869732066756e6374696f6e0000000000000000602082015250565b6000611d3f603883611cd2565b9150611d4a82611ce3565b604082019050919050565b60006020820190508181036000830152611d6e81611d32565b9050919050565b6000611d80826116ef565b9150611d8b836116ef565b9250828201905080821115611da357611da2611c6d565b5b92915050565b600060a082019050611dbe6000830188611755565b611dcb60208301876116f9565b611dd860408301866116f9565b611de560608301856116f9565b611df260808301846116f9565b9695505050505050565b7f4f6e6c79207061727469636970616e74206f7220737570706c6965722063616e60008201527f2063616c6c20746869732066756e6374696f6e00000000000000000000000000602082015250565b6000611e58603383611cd2565b9150611e6382611dfc565b604082019050919050565b60006020820190508181036000830152611e8781611e4b565b9050919050565b611e9781611a20565b82525050565b6000604082019050611eb26000830185611e8e565b611ebf60208301846116f9565b9392505050565b611ecf816118f8565b82525050565b600060a082019050611eea60008301886116f9565b611ef76020830187611ec6565b611f046040830186611ec6565b611f116060830185611ec6565b611f1e60808301846116f9565b9695505050505050565b7f4f6e6c79207061727469636970616e74206f7220737570706c6965722063616e60008201527f2072656365697665000000000000000000000000000000000000000000000000602082015250565b6000611f84602883611cd2565b9150611f8f82611f28565b604082019050919050565b60006020820190508181036000830152611fb381611f77565b9050919050565b7f4e6f7420656e6f75676820657468657273000000000000000000000000000000600082015250565b6000611ff0601183611cd2565b9150611ffb82611fba565b602082019050919050565b6000602082019050818103600083015261201f81611fe3565b9050919050565b7f4e6f7420656e6f75676820617373657473000000000000000000000000000000600082015250565b600061205c601183611cd2565b915061206782612026565b602082019050919050565b6000602082019050818103600083015261208b8161204f565b9050919050565b600061209d826116ef565b91506120a8836116ef565b92508282039050818111156120c0576120bf611c6d565b5b92915050565b6000819050919050565b60006120eb6120e66120e184611723565b6120c6565b611723565b9050919050565b60006120fd826120d0565b9050919050565b600061210f826120f2565b9050919050565b61211f81612104565b82525050565b600060a08201905061213a6000830188612116565b61214760208301876116f9565b61215460408301866116f9565b61216160608301856116f9565b61216e60808301846116f9565b9695505050505050565b7f4e487b7100000000000000000000000000000000000000000000000000000000600052604160045260246000fd5b7f4e487b7100000000000000000000000000000000000000000000000000000000600052602260045260246000fd5b600060028204905060018216806121ee57607f821691505b602082108103612201576122006121a7565b5b50919050565b600081905092915050565b60008190508160005260206000209050919050565b60008154612234816121d6565b61223e8186612207565b94506001821660008114612259576001811461226e576122a1565b60ff19831686528115158202860193506122a1565b61227785612212565b60005b838110156122995781548189015260018201915060208101905061227a565b838801955050505b50505092915050565b60006122b68284612227565b915081905092915050565b60006122cc826116ef565b91507fffffffffffffffffffffffffffffffffffffffffffffffffffffffffffffffff82036122fe576122fd611c6d565b5b600182019050919050565b6000612314826116ef565b915061231f836116ef565b925082820261232d816116ef565b9150828204841483151761234457612343611c6d565b5b5092915050565b7f4e487b7100000000000000000000000000000000000000000000000000000000600052601260045260246000fd5b6000612385826116ef565b9150612390836116ef565b9250826123a05761239f61234b565b5b82820490509291505056fea2646970667358221220e2421c53e1816d22042c333d5fc53097f82b1923928c3908d2f00467e4ce58d764736f6c63430008130033",
  "linkReferences": {},
  "deployedLinkReferences": {}
}