{
  "_format": "hh-sol-artifact-1",
  "contractName": "SupplyChain",
  "sourceName": "contracts/SupplyChain.sol",
  "abi": [
    {
      "inputs": [
        {
          "internalType": "address[]",
          "name": "_user",
          "type": "address[]"
        },
        {
          "internalType": "address",
          "name": "_supplier",
          "type": "address"
        },
        {
          "internalType": "string[]",
          "name": "_keys",
          "type": "string[]"
        },
        {
          "internalType": "bytes[]",
          "name": "_values",
          "type": "bytes[]"
        },
        {
          "internalType": "uint256",
          "name": "_total",
          "type": "uint256"
        },
        {
          "components": [
            {
              "internalType": "uint256",
              "name": "percent",
              "type": "uint256"
            },
            {
              "internalType": "uint256",
              "name": "deliveryAt",
              "type": "uint256"
            },
            {
              "internalType": "string",
              "name": "description",
              "type": "string"
            }
          ],
          "internalType": "struct SupplyChain.StageData[]",
          "name": "_stages",
          "type": "tuple[]"
        },
        {
          "internalType": "string",
          "name": "_privateKey",
          "type": "string"
        }
      ],
      "stateMutability": "nonpayable",
      "type": "constructor"
    },
    {
      "anonymous": false,
      "inputs": [
        {
          "indexed": false,
          "internalType": "uint256",
          "name": "percent",
          "type": "uint256"
        },
        {
          "indexed": false,
          "internalType": "bool",
          "name": "userConfirm",
          "type": "bool"
        },
        {
          "indexed": false,
          "internalType": "bool",
          "name": "supplierConfirm",
          "type": "bool"
        },
        {
          "indexed": false,
          "internalType": "bool",
          "name": "isDone",
          "type": "bool"
        },
        {
          "indexed": false,
          "internalType": "uint256",
          "name": "confirmedAt",
          "type": "uint256"
        }
      ],
      "name": "confirmedStage",
      "type": "event"
    },
    {
      "anonymous": false,
      "inputs": [
        {
          "indexed": false,
          "internalType": "address",
          "name": "owner",
          "type": "address"
        },
        {
          "indexed": false,
          "internalType": "address[]",
          "name": "user",
          "type": "address[]"
        },
        {
          "indexed": false,
          "internalType": "address",
          "name": "supplier",
          "type": "address"
        },
        {
          "indexed": false,
          "internalType": "uint256",
          "name": "totalBalance",
          "type": "uint256"
        },
        {
          "indexed": false,
          "internalType": "uint256",
          "name": "currentBalance",
          "type": "uint256"
        },
        {
          "indexed": false,
          "internalType": "uint256",
          "name": "deployAt",
          "type": "uint256"
        }
      ],
      "name": "contractCreated",
      "type": "event"
    },
    {
      "anonymous": false,
      "inputs": [
        {
          "indexed": false,
          "internalType": "address",
          "name": "sender",
          "type": "address"
        },
        {
          "indexed": false,
          "internalType": "uint256",
          "name": "amount",
          "type": "uint256"
        },
        {
          "indexed": false,
          "internalType": "uint256",
          "name": "totalBalance",
          "type": "uint256"
        },
        {
          "indexed": false,
          "internalType": "uint256",
          "name": "currentBalance",
          "type": "uint256"
        },
        {
          "indexed": false,
          "internalType": "uint256",
          "name": "receivedAt",
          "type": "uint256"
        }
      ],
      "name": "received",
      "type": "event"
    },
    {
      "anonymous": false,
      "inputs": [
        {
          "indexed": false,
          "internalType": "address",
          "name": "to",
          "type": "address"
        },
        {
          "indexed": false,
          "internalType": "uint256",
          "name": "amount",
          "type": "uint256"
        },
        {
          "indexed": false,
          "internalType": "uint256",
          "name": "totalBalance",
          "type": "uint256"
        },
        {
          "indexed": false,
          "internalType": "uint256",
          "name": "currentBalance",
          "type": "uint256"
        },
        {
          "indexed": false,
          "internalType": "uint256",
          "name": "widthdrewAt",
          "type": "uint256"
        }
      ],
      "name": "widthdrew",
      "type": "event"
    },
    {
      "inputs": [],
      "name": "confirmStage",
      "outputs": [],
      "stateMutability": "nonpayable",
      "type": "function"
    },
    {
      "inputs": [
        {
          "internalType": "address",
          "name": "_addressWallet",
          "type": "address"
        }
      ],
      "name": "getAssets",
      "outputs": [
        {
          "internalType": "uint256",
          "name": "",
          "type": "uint256"
        }
      ],
      "stateMutability": "view",
      "type": "function"
    },
    {
      "inputs": [],
      "name": "getBalance",
      "outputs": [
        {
          "internalType": "uint256",
          "name": "",
          "type": "uint256"
        }
      ],
      "stateMutability": "view",
      "type": "function"
    },
    {
      "inputs": [
        {
          "internalType": "string",
          "name": "_privateKey",
          "type": "string"
        }
      ],
      "name": "getContractInformation",
      "outputs": [
        {
          "internalType": "string[]",
          "name": "",
          "type": "string[]"
        }
      ],
      "stateMutability": "view",
      "type": "function"
    },
    {
      "inputs": [],
      "name": "getCurrentStage",
      "outputs": [
        {
          "components": [
            {
              "internalType": "uint256",
              "name": "percent",
              "type": "uint256"
            },
            {
              "internalType": "uint256",
              "name": "deliveryAt",
              "type": "uint256"
            },
            {
              "internalType": "string",
              "name": "description",
              "type": "string"
            },
            {
              "internalType": "bool",
              "name": "userConfirm",
              "type": "bool"
            },
            {
              "internalType": "bool",
              "name": "supplierConfirm",
              "type": "bool"
            },
            {
              "internalType": "bool",
              "name": "isDone",
              "type": "bool"
            },
            {
              "internalType": "bool",
              "name": "isWithdraw",
              "type": "bool"
            }
          ],
          "internalType": "struct SupplyChain.Stage",
          "name": "",
          "type": "tuple"
        }
      ],
      "stateMutability": "view",
      "type": "function"
    },
    {
      "inputs": [],
      "name": "getNonWithdrawalStage",
      "outputs": [
        {
          "components": [
            {
              "internalType": "uint256",
              "name": "percent",
              "type": "uint256"
            },
            {
              "internalType": "uint256",
              "name": "deliveryAt",
              "type": "uint256"
            },
            {
              "internalType": "string",
              "name": "description",
              "type": "string"
            },
            {
              "internalType": "bool",
              "name": "userConfirm",
              "type": "bool"
            },
            {
              "internalType": "bool",
              "name": "supplierConfirm",
              "type": "bool"
            },
            {
              "internalType": "bool",
              "name": "isDone",
              "type": "bool"
            },
            {
              "internalType": "bool",
              "name": "isWithdraw",
              "type": "bool"
            }
          ],
          "internalType": "struct SupplyChain.Stage",
          "name": "",
          "type": "tuple"
        }
      ],
      "stateMutability": "view",
      "type": "function"
    },
    {
      "inputs": [],
      "name": "getOwnerAddressWallet",
      "outputs": [
        {
          "internalType": "address",
          "name": "",
          "type": "address"
        }
      ],
      "stateMutability": "view",
      "type": "function"
    },
    {
      "inputs": [
        {
          "internalType": "address",
          "name": "_addressWallet",
          "type": "address"
        }
      ],
      "name": "getSignature",
      "outputs": [
        {
          "internalType": "string",
          "name": "",
          "type": "string"
        }
      ],
      "stateMutability": "view",
      "type": "function"
    },
    {
      "inputs": [],
      "name": "getStages",
      "outputs": [
        {
          "components": [
            {
              "internalType": "uint256",
              "name": "percent",
              "type": "uint256"
            },
            {
              "internalType": "uint256",
              "name": "deliveryAt",
              "type": "uint256"
            },
            {
              "internalType": "string",
              "name": "description",
              "type": "string"
            },
            {
              "internalType": "bool",
              "name": "userConfirm",
              "type": "bool"
            },
            {
              "internalType": "bool",
              "name": "supplierConfirm",
              "type": "bool"
            },
            {
              "internalType": "bool",
              "name": "isDone",
              "type": "bool"
            },
            {
              "internalType": "bool",
              "name": "isWithdraw",
              "type": "bool"
            }
          ],
          "internalType": "struct SupplyChain.Stage[]",
          "name": "",
          "type": "tuple[]"
        }
      ],
      "stateMutability": "view",
      "type": "function"
    },
    {
      "inputs": [],
      "name": "getSupplierAddressWallet",
      "outputs": [
        {
          "internalType": "address",
          "name": "",
          "type": "address"
        }
      ],
      "stateMutability": "view",
      "type": "function"
    },
    {
      "inputs": [],
      "name": "getTotalBalance",
      "outputs": [
        {
          "internalType": "uint256",
          "name": "",
          "type": "uint256"
        }
      ],
      "stateMutability": "view",
      "type": "function"
    },
    {
      "inputs": [],
      "name": "getUserAddressWallet",
      "outputs": [
        {
          "internalType": "address[]",
          "name": "",
          "type": "address[]"
        }
      ],
      "stateMutability": "view",
      "type": "function"
    },
    {
      "inputs": [],
      "name": "sendToSmartContract",
      "outputs": [],
      "stateMutability": "payable",
      "type": "function"
    },
    {
      "inputs": [
        {
          "internalType": "address",
          "name": "_supplier",
          "type": "address"
        }
      ],
      "name": "setAddressSupplier",
      "outputs": [],
      "stateMutability": "nonpayable",
      "type": "function"
    },
    {
      "inputs": [
        {
          "internalType": "string[]",
          "name": "_keys",
          "type": "string[]"
        },
        {
          "internalType": "bytes[]",
          "name": "_values",
          "type": "bytes[]"
        }
      ],
      "name": "setInformation",
      "outputs": [],
      "stateMutability": "nonpayable",
      "type": "function"
    },
    {
      "inputs": [
        {
          "internalType": "string",
          "name": "_privateKey",
          "type": "string"
        }
      ],
      "name": "setPrivateKey",
      "outputs": [],
      "stateMutability": "nonpayable",
      "type": "function"
    },
    {
      "inputs": [
        {
          "components": [
            {
              "internalType": "uint256",
              "name": "percent",
              "type": "uint256"
            },
            {
              "internalType": "uint256",
              "name": "deliveryAt",
              "type": "uint256"
            },
            {
              "internalType": "string",
              "name": "description",
              "type": "string"
            }
          ],
          "internalType": "struct SupplyChain.StageData[]",
          "name": "_stages",
          "type": "tuple[]"
        }
      ],
      "name": "setStages",
      "outputs": [],
      "stateMutability": "nonpayable",
      "type": "function"
    },
    {
      "inputs": [
        {
          "internalType": "enum SupplyChain.Status",
          "name": "_status",
          "type": "uint8"
        }
      ],
      "name": "setStatus",
      "outputs": [],
      "stateMutability": "nonpayable",
      "type": "function"
    },
    {
      "inputs": [
        {
          "internalType": "uint256",
          "name": "_total",
          "type": "uint256"
        }
      ],
      "name": "setTotal",
      "outputs": [],
      "stateMutability": "nonpayable",
      "type": "function"
    },
    {
      "inputs": [
        {
          "internalType": "address[]",
          "name": "_users",
          "type": "address[]"
        }
      ],
      "name": "setUsers",
      "outputs": [],
      "stateMutability": "nonpayable",
      "type": "function"
    },
    {
      "inputs": [
        {
          "internalType": "string",
          "name": "_signature",
          "type": "string"
        }
      ],
      "name": "sign",
      "outputs": [],
      "stateMutability": "nonpayable",
      "type": "function"
    },
    {
      "inputs": [
        {
          "internalType": "address payable",
          "name": "_addressWallet",
          "type": "address"
        },
        {
          "internalType": "uint256",
          "name": "_amount",
          "type": "uint256"
        }
      ],
      "name": "withDrawByCurrency",
      "outputs": [],
      "stateMutability": "payable",
      "type": "function"
    },
    {
      "inputs": [
        {
          "internalType": "address payable",
          "name": "_addressWallet",
          "type": "address"
        },
        {
          "internalType": "uint256",
          "name": "_percent",
          "type": "uint256"
        }
      ],
      "name": "withDrawByPercent",
      "outputs": [],
      "stateMutability": "payable",
      "type": "function"
    }
  ],
  "bytecode": "0x60806040523480156200001157600080fd5b5060405162005a9c38038062005a9c833981810160405281019062000037919062000d86565b6000600860006101000a81548160ff021916908360ff160217905550806009908162000064919062001115565b506000600860016101000a81548160ff021916908360028111156200008e576200008d620011fc565b5b0217905550670de0b6b3a764000083620000a991906200125a565b60068190555085600360006101000a81548173ffffffffffffffffffffffffffffffffffffffff021916908373ffffffffffffffffffffffffffffffffffffffff160217905550336000806101000a81548173ffffffffffffffffffffffffffffffffffffffff021916908373ffffffffffffffffffffffffffffffffffffffff16021790555060005b87518160ff1610156200023e576001888260ff16815181106200015b576200015a620012a5565b5b60200260200101519080600181540180825580915050600190039060005260206000200160009091909190916101000a81548173ffffffffffffffffffffffffffffffffffffffff021916908373ffffffffffffffffffffffffffffffffffffffff1602179055506000600260008a8460ff1681518110620001e257620001e1620012a5565b5b602002602001015173ffffffffffffffffffffffffffffffffffffffff1673ffffffffffffffffffffffffffffffffffffffff1681526020019081526020016000208190555080806200023590620012e1565b91505062000133565b5060005b85518160ff1610156200032c57848160ff1681518110620002685762000267620012a5565b5b60200260200101516004878360ff16815181106200028b576200028a620012a5565b5b6020026020010151604051620002a2919062001351565b90815260200160405180910390209081620002be9190620013da565b506005868260ff1681518110620002da57620002d9620012a5565b5b602002602001015190806001815401808255809150506001900390600052602060002001600090919091909150908162000315919062001115565b5080806200032390620012e1565b91505062000242565b5060005b82518160ff161015620004d75760076040518060e00160405280858460ff1681518110620003635762000362620012a5565b5b6020026020010151600001518152602001858460ff16815181106200038d576200038c620012a5565b5b6020026020010151602001518152602001858460ff1681518110620003b757620003b6620012a5565b5b6020026020010151604001518152602001600015158152602001600015158152602001600015158152602001600015158152509080600181540180825580915050600190039060005260206000209060040201600090919091909150600082015181600001556020820151816001015560408201518160020190816200043e919062001115565b5060608201518160030160006101000a81548160ff02191690831515021790555060808201518160030160016101000a81548160ff02191690831515021790555060a08201518160030160026101000a81548160ff02191690831515021790555060c08201518160030160036101000a81548160ff02191690831515021790555050508080620004ce90620012e1565b91505062000330565b5060405180602001604052806000815250600a600089600081518110620005035762000502620012a5565b5b602002602001015173ffffffffffffffffffffffffffffffffffffffff1673ffffffffffffffffffffffffffffffffffffffff168152602001908152602001600020908162000553919062001115565b5060405180602001604052806000815250600a60008873ffffffffffffffffffffffffffffffffffffffff1673ffffffffffffffffffffffffffffffffffffffff1681526020019081526020016000209081620005b1919062001115565b507f68e8e16725ae304c7b00b773ba80b94a2ea18bebc9d7cc7ade4f8c4980649ae160008054906101000a900473ffffffffffffffffffffffffffffffffffffffff166001600360009054906101000a900473ffffffffffffffffffffffffffffffffffffffff16600654474260405162000632969594939291906200161f565b60405180910390a15050505050505062001693565b6000604051905090565b600080fd5b600080fd5b600080fd5b6000601f19601f8301169050919050565b7f4e487b7100000000000000000000000000000000000000000000000000000000600052604160045260246000fd5b620006ab8262000660565b810181811067ffffffffffffffff82111715620006cd57620006cc62000671565b5b80604052505050565b6000620006e262000647565b9050620006f08282620006a0565b919050565b600067ffffffffffffffff82111562000713576200071262000671565b5b602082029050602081019050919050565b600080fd5b600073ffffffffffffffffffffffffffffffffffffffff82169050919050565b6000620007568262000729565b9050919050565b620007688162000749565b81146200077457600080fd5b50565b60008151905062000788816200075d565b92915050565b6000620007a56200079f84620006f5565b620006d6565b90508083825260208201905060208402830185811115620007cb57620007ca62000724565b5b835b81811015620007f85780620007e3888262000777565b845260208401935050602081019050620007cd565b5050509392505050565b600082601f8301126200081a57620008196200065b565b5b81516200082c8482602086016200078e565b91505092915050565b600067ffffffffffffffff82111562000853576200085262000671565b5b602082029050602081019050919050565b600080fd5b600067ffffffffffffffff82111562000887576200088662000671565b5b620008928262000660565b9050602081019050919050565b60005b83811015620008bf578082015181840152602081019050620008a2565b60008484015250505050565b6000620008e2620008dc8462000869565b620006d6565b90508281526020810184848401111562000901576200090062000864565b5b6200090e8482856200089f565b509392505050565b600082601f8301126200092e576200092d6200065b565b5b815162000940848260208601620008cb565b91505092915050565b6000620009606200095a8462000835565b620006d6565b9050808382526020820190506020840283018581111562000986576200098562000724565b5b835b81811015620009d457805167ffffffffffffffff811115620009af57620009ae6200065b565b5b808601620009be898262000916565b8552602085019450505060208101905062000988565b5050509392505050565b600082601f830112620009f657620009f56200065b565b5b815162000a0884826020860162000949565b91505092915050565b600067ffffffffffffffff82111562000a2f5762000a2e62000671565b5b602082029050602081019050919050565b600067ffffffffffffffff82111562000a5e5762000a5d62000671565b5b62000a698262000660565b9050602081019050919050565b600062000a8d62000a878462000a40565b620006d6565b90508281526020810184848401111562000aac5762000aab62000864565b5b62000ab98482856200089f565b509392505050565b600082601f83011262000ad95762000ad86200065b565b5b815162000aeb84826020860162000a76565b91505092915050565b600062000b0b62000b058462000a11565b620006d6565b9050808382526020820190506020840283018581111562000b315762000b3062000724565b5b835b8181101562000b7f57805167ffffffffffffffff81111562000b5a5762000b596200065b565b5b80860162000b69898262000ac1565b8552602085019450505060208101905062000b33565b5050509392505050565b600082601f83011262000ba15762000ba06200065b565b5b815162000bb384826020860162000af4565b91505092915050565b6000819050919050565b62000bd18162000bbc565b811462000bdd57600080fd5b50565b60008151905062000bf18162000bc6565b92915050565b600067ffffffffffffffff82111562000c155762000c1462000671565b5b602082029050602081019050919050565b600080fd5b600080fd5b60006060828403121562000c495762000c4862000c26565b5b62000c556060620006d6565b9050600062000c678482850162000be0565b600083015250602062000c7d8482850162000be0565b602083015250604082015167ffffffffffffffff81111562000ca45762000ca362000c2b565b5b62000cb28482850162000916565b60408301525092915050565b600062000cd562000ccf8462000bf7565b620006d6565b9050808382526020820190506020840283018581111562000cfb5762000cfa62000724565b5b835b8181101562000d4957805167ffffffffffffffff81111562000d245762000d236200065b565b5b80860162000d33898262000c30565b8552602085019450505060208101905062000cfd565b5050509392505050565b600082601f83011262000d6b5762000d6a6200065b565b5b815162000d7d84826020860162000cbe565b91505092915050565b600080600080600080600060e0888a03121562000da85762000da762000651565b5b600088015167ffffffffffffffff81111562000dc95762000dc862000656565b5b62000dd78a828b0162000802565b975050602062000dea8a828b0162000777565b965050604088015167ffffffffffffffff81111562000e0e5762000e0d62000656565b5b62000e1c8a828b01620009de565b955050606088015167ffffffffffffffff81111562000e405762000e3f62000656565b5b62000e4e8a828b0162000b89565b945050608062000e618a828b0162000be0565b93505060a088015167ffffffffffffffff81111562000e855762000e8462000656565b5b62000e938a828b0162000d53565b92505060c088015167ffffffffffffffff81111562000eb75762000eb662000656565b5b62000ec58a828b0162000916565b91505092959891949750929550565b600081519050919050565b7f4e487b7100000000000000000000000000000000000000000000000000000000600052602260045260246000fd5b6000600282049050600182168062000f2757607f821691505b60208210810362000f3d5762000f3c62000edf565b5b50919050565b60008190508160005260206000209050919050565b60006020601f8301049050919050565b600082821b905092915050565b60006008830262000fa77fffffffffffffffffffffffffffffffffffffffffffffffffffffffffffffffff8262000f68565b62000fb3868362000f68565b95508019841693508086168417925050509392505050565b6000819050919050565b600062000ff662000ff062000fea8462000bbc565b62000fcb565b62000bbc565b9050919050565b6000819050919050565b620010128362000fd5565b6200102a620010218262000ffd565b84845462000f75565b825550505050565b600090565b6200104162001032565b6200104e81848462001007565b505050565b5b8181101562001076576200106a60008262001037565b60018101905062001054565b5050565b601f821115620010c5576200108f8162000f43565b6200109a8462000f58565b81016020851015620010aa578190505b620010c2620010b98562000f58565b83018262001053565b50505b505050565b600082821c905092915050565b6000620010ea60001984600802620010ca565b1980831691505092915050565b6000620011058383620010d7565b9150826002028217905092915050565b620011208262000ed4565b67ffffffffffffffff8111156200113c576200113b62000671565b5b62001148825462000f0e565b620011558282856200107a565b600060209050601f8311600181146200118d576000841562001178578287015190505b620011848582620010f7565b865550620011f4565b601f1984166200119d8662000f43565b60005b82811015620011c757848901518255600182019150602085019450602081019050620011a0565b86831015620011e75784890151620011e3601f891682620010d7565b8355505b6001600288020188555050505b505050505050565b7f4e487b7100000000000000000000000000000000000000000000000000000000600052602160045260246000fd5b7f4e487b7100000000000000000000000000000000000000000000000000000000600052601160045260246000fd5b6000620012678262000bbc565b9150620012748362000bbc565b9250828202620012848162000bbc565b915082820484148315176200129e576200129d6200122b565b5b5092915050565b7f4e487b7100000000000000000000000000000000000000000000000000000000600052603260045260246000fd5b600060ff82169050919050565b6000620012ee82620012d4565b915060ff82036200130457620013036200122b565b5b600182019050919050565b600081905092915050565b6000620013278262000ed4565b6200133381856200130f565b9350620013458185602086016200089f565b80840191505092915050565b60006200135f82846200131a565b915081905092915050565b600081519050919050565b60008190508160005260206000209050919050565b601f821115620013d5576200139f8162001375565b620013aa8462000f58565b81016020851015620013ba578190505b620013d2620013c98562000f58565b83018262001053565b50505b505050565b620013e5826200136a565b67ffffffffffffffff81111562001401576200140062000671565b5b6200140d825462000f0e565b6200141a8282856200138a565b600060209050601f8311600181146200145257600084156200143d578287015190505b620014498582620010f7565b865550620014b9565b601f198416620014628662001375565b60005b828110156200148c5784890151825560018201915060208501945060208101905062001465565b86831015620014ac5784890151620014a8601f891682620010d7565b8355505b6001600288020188555050505b505050505050565b620014cc8162000749565b82525050565b600081549050919050565b600082825260208201905092915050565b60008190508160005260206000209050919050565b6200150e8162000749565b82525050565b600062001522838362001503565b60208301905092915050565b60008160001c9050919050565b600073ffffffffffffffffffffffffffffffffffffffff82169050919050565b6000620015726200156c836200152e565b6200153b565b9050919050565b60006200158782546200155b565b9050919050565b6000600182019050919050565b6000620015a882620014d2565b620015b48185620014dd565b9350620015c183620014ee565b8060005b838110156200160157620015d98262001579565b620015e5888262001514565b9750620015f2836200158e565b925050600181019050620015c5565b5085935050505092915050565b620016198162000bbc565b82525050565b600060c082019050620016366000830189620014c1565b81810360208301526200164a81886200159b565b90506200165b6040830187620014c1565b6200166a60608301866200160e565b6200167960808301856200160e565b6200168860a08301846200160e565b979650505050505050565b6143f980620016a36000396000f3fe6080604052600436106101405760003560e01c806379655bd0116100b6578063aa4a70801161006f578063aa4a70801461040a578063cdad720514610433578063d88eab631461045c578063e0d4f01714610485578063eedbe31d146104ae578063fbb05337146104d957610140565b806379655bd01461030957806379d6348d1461033457806381bcf8301461035d578063904e3cff146103865780639c01b52f146103a2578063a4477713146103cd57610140565b80632e49d78b116101085780632e49d78b1461022c5780633f44327a146102555780634510fb59146102805780634bbe765a1461028a57806353c659bb146102a1578063742978da146102cc57610140565b806312065fe01461014557806312b583491461017057806314a24bcf1461019b5780631f8d1d50146101c6578063277fc0e9146101ef575b600080fd5b34801561015157600080fd5b5061015a6104f5565b604051610167919061299c565b60405180910390f35b34801561017c57600080fd5b506101856104fd565b604051610192919061299c565b60405180910390f35b3480156101a757600080fd5b506101b0610507565b6040516101bd91906129f8565b60405180910390f35b3480156101d257600080fd5b506101ed60048036038101906101e89190612a53565b610531565b005b3480156101fb57600080fd5b5061021660048036038101906102119190612aac565b61067b565b6040516102239190612b69565b60405180910390f35b34801561023857600080fd5b50610253600480360381019061024e9190612bb0565b61074c565b005b34801561026157600080fd5b5061026a610861565b6040516102779190612c9b565b60405180910390f35b6102886108ef565b005b34801561029657600080fd5b5061029f610a70565b005b3480156102ad57600080fd5b506102b6610df9565b6040516102c39190612dcd565b60405180910390f35b3480156102d857600080fd5b506102f360048036038101906102ee9190612aac565b610ffa565b604051610300919061299c565b60405180910390f35b34801561031557600080fd5b5061031e61112b565b60405161032b9190612f4d565b60405180910390f35b34801561034057600080fd5b5061035b600480360381019061035691906130a4565b61129c565b005b34801561036957600080fd5b50610384600480360381019061037f9190613355565b61142c565b005b6103a0600480360381019061039b919061340b565b61164b565b005b3480156103ae57600080fd5b506103b7611ac2565b6040516103c491906129f8565b60405180910390f35b3480156103d957600080fd5b506103f460048036038101906103ef91906130a4565b611aeb565b604051610401919061350d565b60405180910390f35b34801561041657600080fd5b50610431600480360381019061042c91906135f2565b611ce4565b005b34801561043f57600080fd5b5061045a60048036038101906104559190612aac565b611ed4565b005b34801561046857600080fd5b50610483600480360381019061047e91906137a6565b611faa565b005b34801561049157600080fd5b506104ac60048036038101906104a791906130a4565b612231565b005b3480156104ba57600080fd5b506104c361232c565b6040516104d09190612dcd565b60405180910390f35b6104f360048036038101906104ee919061340b565b61248a565b005b600047905090565b6000600654905090565b6000600360009054906101000a900473ffffffffffffffffffffffffffffffffffffffff16905090565b336000805b6001805490508160ff1610156105d65760018160ff168154811061055d5761055c6137ef565b5b9060005260206000200160009054906101000a900473ffffffffffffffffffffffffffffffffffffffff1673ffffffffffffffffffffffffffffffffffffffff168373ffffffffffffffffffffffffffffffffffffffff16036105c357600191506105d6565b80806105ce9061385a565b915050610536565b5080806106305750600360009054906101000a900473ffffffffffffffffffffffffffffffffffffffff1673ffffffffffffffffffffffffffffffffffffffff168273ffffffffffffffffffffffffffffffffffffffff16145b61066f576040517f08c379a0000000000000000000000000000000000000000000000000000000008152600401610666906138f5565b60405180910390fd5b82600681905550505050565b6060600a60008373ffffffffffffffffffffffffffffffffffffffff1673ffffffffffffffffffffffffffffffffffffffff16815260200190815260200160002080546106c790613944565b80601f01602080910402602001604051908101604052809291908181526020018280546106f390613944565b80156107405780601f1061071557610100808354040283529160200191610740565b820191906000526020600020905b81548152906001019060200180831161072357829003601f168201915b50505050509050919050565b336000805b6001805490508160ff1610156107f15760018160ff1681548110610778576107776137ef565b5b9060005260206000200160009054906101000a900473ffffffffffffffffffffffffffffffffffffffff1673ffffffffffffffffffffffffffffffffffffffff168373ffffffffffffffffffffffffffffffffffffffff16036107de57600191506107f1565b80806107e99061385a565b915050610751565b5080610832576040517f08c379a0000000000000000000000000000000000000000000000000000000008152600401610829906139e7565b60405180910390fd5b82600860016101000a81548160ff0219169083600281111561085757610856613a07565b5b0217905550505050565b606060018054806020026020016040519081016040528092919081815260200182805480156108e557602002820191906000526020600020905b8160009054906101000a900473ffffffffffffffffffffffffffffffffffffffff1673ffffffffffffffffffffffffffffffffffffffff168152602001906001019080831161089b575b5050505050905090565b336000805b6001805490508160ff1610156109945760018160ff168154811061091b5761091a6137ef565b5b9060005260206000200160009054906101000a900473ffffffffffffffffffffffffffffffffffffffff1673ffffffffffffffffffffffffffffffffffffffff168373ffffffffffffffffffffffffffffffffffffffff16036109815760019150610994565b808061098c9061385a565b9150506108f4565b50806109d5576040517f08c379a00000000000000000000000000000000000000000000000000000000081526004016109cc906139e7565b60405180910390fd5b34600260003373ffffffffffffffffffffffffffffffffffffffff1673ffffffffffffffffffffffffffffffffffffffff1681526020019081526020016000206000828254610a249190613a36565b925050819055507fe4f13824473bb5d7c83a33648a5b781337db89c57cdfdb2caf2c87a9ca0391f633346006544742604051610a64959493929190613a6a565b60405180910390a15050565b336000805b6001805490508160ff161015610b155760018160ff1681548110610a9c57610a9b6137ef565b5b9060005260206000200160009054906101000a900473ffffffffffffffffffffffffffffffffffffffff1673ffffffffffffffffffffffffffffffffffffffff168373ffffffffffffffffffffffffffffffffffffffff1603610b025760019150610b15565b8080610b0d9061385a565b915050610a75565b508080610b6f5750600360009054906101000a900473ffffffffffffffffffffffffffffffffffffffff1673ffffffffffffffffffffffffffffffffffffffff168273ffffffffffffffffffffffffffffffffffffffff16145b610bae576040517f08c379a0000000000000000000000000000000000000000000000000000000008152600401610ba5906138f5565b60405180910390fd5b600360009054906101000a900473ffffffffffffffffffffffffffffffffffffffff1673ffffffffffffffffffffffffffffffffffffffff163373ffffffffffffffffffffffffffffffffffffffff1603610c585760016007600860009054906101000a900460ff1660ff1681548110610c2b57610c2a6137ef565b5b906000526020600020906004020160030160016101000a81548160ff021916908315150217905550610ca9565b60016007600860009054906101000a900460ff1660ff1681548110610c8057610c7f6137ef565b5b906000526020600020906004020160030160006101000a81548160ff0219169083151502179055505b6007600860009054906101000a900460ff1660ff1681548110610ccf57610cce6137ef565b5b906000526020600020906004020160030160019054906101000a900460ff168015610d3b57506007600860009054906101000a900460ff1660ff1681548110610d1b57610d1a6137ef565b5b906000526020600020906004020160030160009054906101000a900460ff165b15610df55760016007600860009054906101000a900460ff1660ff1681548110610d6857610d676137ef565b5b906000526020600020906004020160030160026101000a81548160ff0219169083151502179055506007805490506001600860009054906101000a900460ff16610db29190613abd565b60ff161015610df4576008600081819054906101000a900460ff1680929190610dda9061385a565b91906101000a81548160ff021916908360ff160217905550505b5b5050565b610e0161293e565b60005b600780549050811015610fa35760078181548110610e2557610e246137ef565b5b906000526020600020906004020160030160039054906101000a900460ff1615610f905760078181548110610e5d57610e5c6137ef565b5b90600052602060002090600402016040518060e00160405290816000820154815260200160018201548152602001600282018054610e9a90613944565b80601f0160208091040260200160405190810160405280929190818152602001828054610ec690613944565b8015610f135780601f10610ee857610100808354040283529160200191610f13565b820191906000526020600020905b815481529060010190602001808311610ef657829003601f168201915b505050505081526020016003820160009054906101000a900460ff161515151581526020016003820160019054906101000a900460ff161515151581526020016003820160029054906101000a900460ff161515151581526020016003820160039054906101000a900460ff161515151581525050915050610ff7565b8080610f9b90613af2565b915050610e04565b506040518060e0016040528060008152602001600081526020016040518060200160405280600081525081526020016000151581526020016000151581526020016000151581526020016000151581525090505b90565b6000816000805b6001805490508160ff1610156110a15760018160ff1681548110611028576110276137ef565b5b9060005260206000200160009054906101000a900473ffffffffffffffffffffffffffffffffffffffff1673ffffffffffffffffffffffffffffffffffffffff168373ffffffffffffffffffffffffffffffffffffffff160361108e57600191506110a1565b80806110999061385a565b915050611001565b50806110e2576040517f08c379a00000000000000000000000000000000000000000000000000000000081526004016110d9906139e7565b60405180910390fd5b600260008573ffffffffffffffffffffffffffffffffffffffff1673ffffffffffffffffffffffffffffffffffffffff1681526020019081526020016000205492505050919050565b60606007805480602002602001604051908101604052809291908181526020016000905b8282101561129357838290600052602060002090600402016040518060e0016040529081600082015481526020016001820154815260200160028201805461119690613944565b80601f01602080910402602001604051908101604052809291908181526020018280546111c290613944565b801561120f5780601f106111e45761010080835404028352916020019161120f565b820191906000526020600020905b8154815290600101906020018083116111f257829003601f168201915b505050505081526020016003820160009054906101000a900460ff161515151581526020016003820160019054906101000a900460ff161515151581526020016003820160029054906101000a900460ff161515151581526020016003820160039054906101000a900460ff1615151515815250508152602001906001019061114f565b50505050905090565b336000805b6001805490508160ff1610156113415760018160ff16815481106112c8576112c76137ef565b5b9060005260206000200160009054906101000a900473ffffffffffffffffffffffffffffffffffffffff1673ffffffffffffffffffffffffffffffffffffffff168373ffffffffffffffffffffffffffffffffffffffff160361132e5760019150611341565b80806113399061385a565b9150506112a1565b50808061139b5750600360009054906101000a900473ffffffffffffffffffffffffffffffffffffffff1673ffffffffffffffffffffffffffffffffffffffff168273ffffffffffffffffffffffffffffffffffffffff16145b6113da576040517f08c379a00000000000000000000000000000000000000000000000000000000081526004016113d1906138f5565b60405180910390fd5b82600a60003373ffffffffffffffffffffffffffffffffffffffff1673ffffffffffffffffffffffffffffffffffffffff16815260200190815260200160002090816114269190613ce6565b50505050565b336000805b6001805490508160ff1610156114d15760018160ff1681548110611458576114576137ef565b5b9060005260206000200160009054906101000a900473ffffffffffffffffffffffffffffffffffffffff1673ffffffffffffffffffffffffffffffffffffffff168373ffffffffffffffffffffffffffffffffffffffff16036114be57600191506114d1565b80806114c99061385a565b915050611431565b50808061152b5750600360009054906101000a900473ffffffffffffffffffffffffffffffffffffffff1673ffffffffffffffffffffffffffffffffffffffff168273ffffffffffffffffffffffffffffffffffffffff16145b61156a576040517f08c379a0000000000000000000000000000000000000000000000000000000008152600401611561906138f5565b60405180910390fd5b60005b84518160ff16101561164457838160ff168151811061158f5761158e6137ef565b5b60200260200101516004868360ff16815181106115af576115ae6137ef565b5b60200260200101516040516115c49190613df4565b908152602001604051809103902090816115de9190613e71565b506005858260ff16815181106115f7576115f66137ef565b5b60200260200101519080600181540180825580915050600190039060005260206000200160009091909190915090816116309190613ce6565b50808061163c9061385a565b91505061156d565b5050505050565b336000805b6001805490508160ff1610156116f05760018160ff1681548110611677576116766137ef565b5b9060005260206000200160009054906101000a900473ffffffffffffffffffffffffffffffffffffffff1673ffffffffffffffffffffffffffffffffffffffff168373ffffffffffffffffffffffffffffffffffffffff16036116dd57600191506116f0565b80806116e89061385a565b915050611650565b5080611731576040517f08c379a0000000000000000000000000000000000000000000000000000000008152600401611728906139e7565b60405180910390fd5b836000805b6001805490508160ff1610156117d65760018160ff168154811061175d5761175c6137ef565b5b9060005260206000200160009054906101000a900473ffffffffffffffffffffffffffffffffffffffff1673ffffffffffffffffffffffffffffffffffffffff168373ffffffffffffffffffffffffffffffffffffffff16036117c357600191506117d6565b80806117ce9061385a565b915050611736565b5080806118305750600360009054906101000a900473ffffffffffffffffffffffffffffffffffffffff1673ffffffffffffffffffffffffffffffffffffffff168273ffffffffffffffffffffffffffffffffffffffff16145b61186f576040517f08c379a000000000000000000000000000000000000000000000000000000000815260040161186690613fb5565b60405180910390fd5b84804710156118b3576040517f08c379a00000000000000000000000000000000000000000000000000000000081526004016118aa90614021565b60405180910390fd5b600360009054906101000a900473ffffffffffffffffffffffffffffffffffffffff1673ffffffffffffffffffffffffffffffffffffffff168773ffffffffffffffffffffffffffffffffffffffff16146119e15785600260008973ffffffffffffffffffffffffffffffffffffffff1673ffffffffffffffffffffffffffffffffffffffff16815260200190815260200160002054101561198a576040517f08c379a00000000000000000000000000000000000000000000000000000000081526004016119819061408d565b60405180910390fd5b85600260008973ffffffffffffffffffffffffffffffffffffffff1673ffffffffffffffffffffffffffffffffffffffff16815260200190815260200160002060008282546119d991906140ad565b925050819055505b8673ffffffffffffffffffffffffffffffffffffffff166108fc879081150290604051600060405180830381858888f19350505050158015611a27573d6000803e3d6000fd5b5060016007600860009054906101000a900460ff1660ff1681548110611a5057611a4f6137ef565b5b906000526020600020906004020160030160036101000a81548160ff0219169083151502179055507f132717cc7ce0e7288e4e1e75cd3527373df35d716a6d9d576199b1ee22b1592387876006544742604051611ab1959493929190614136565b60405180910390a150505050505050565b60008060009054906101000a900473ffffffffffffffffffffffffffffffffffffffff16905090565b6060816009604051602001611b00919061420c565b6040516020818303038152906040528051906020012081604051602001611b279190613df4565b6040516020818303038152906040528051906020012014611b7d576040517f08c379a0000000000000000000000000000000000000000000000000000000008152600401611b749061426f565b60405180910390fd5b600060058054905067ffffffffffffffff811115611b9e57611b9d612f79565b5b604051908082528060200260200182016040528015611bd157816020015b6060815260200190600190039081611bbc5790505b50905060005b600580549050811015611cd957600460058281548110611bfa57611bf96137ef565b5b90600052602060002001604051611c11919061420c565b90815260200160405180910390208054611c2a90613944565b80601f0160208091040260200160405190810160405280929190818152602001828054611c5690613944565b8015611ca35780601f10611c7857610100808354040283529160200191611ca3565b820191906000526020600020905b815481529060010190602001808311611c8657829003601f168201915b5050505050828281518110611cbb57611cba6137ef565b5b60200260200101819052508080611cd190613af2565b915050611bd7565b508092505050919050565b336000805b6001805490508160ff161015611d895760018160ff1681548110611d1057611d0f6137ef565b5b9060005260206000200160009054906101000a900473ffffffffffffffffffffffffffffffffffffffff1673ffffffffffffffffffffffffffffffffffffffff168373ffffffffffffffffffffffffffffffffffffffff1603611d765760019150611d89565b8080611d819061385a565b915050611ce9565b5080611dca576040517f08c379a0000000000000000000000000000000000000000000000000000000008152600401611dc1906139e7565b60405180910390fd5b60005b83518160ff161015611ece576001848260ff1681518110611df157611df06137ef565b5b60200260200101519080600181540180825580915050600190039060005260206000200160009091909190916101000a81548173ffffffffffffffffffffffffffffffffffffffff021916908373ffffffffffffffffffffffffffffffffffffffff160217905550600060026000868460ff1681518110611e7557611e746137ef565b5b602002602001015173ffffffffffffffffffffffffffffffffffffffff1673ffffffffffffffffffffffffffffffffffffffff168152602001908152602001600020819055508080611ec69061385a565b915050611dcd565b50505050565b33600360009054906101000a900473ffffffffffffffffffffffffffffffffffffffff1673ffffffffffffffffffffffffffffffffffffffff168173ffffffffffffffffffffffffffffffffffffffff1614611f65576040517f08c379a0000000000000000000000000000000000000000000000000000000008152600401611f5c90614301565b60405180910390fd5b81600360006101000a81548173ffffffffffffffffffffffffffffffffffffffff021916908373ffffffffffffffffffffffffffffffffffffffff1602179055505050565b336000805b6001805490508160ff16101561204f5760018160ff1681548110611fd657611fd56137ef565b5b9060005260206000200160009054906101000a900473ffffffffffffffffffffffffffffffffffffffff1673ffffffffffffffffffffffffffffffffffffffff168373ffffffffffffffffffffffffffffffffffffffff160361203c576001915061204f565b80806120479061385a565b915050611faf565b5080612090576040517f08c379a0000000000000000000000000000000000000000000000000000000008152600401612087906139e7565b60405180910390fd5b60005b83518160ff16101561222b5760076040518060e00160405280868460ff16815181106120c2576120c16137ef565b5b6020026020010151600001518152602001868460ff16815181106120e9576120e86137ef565b5b6020026020010151602001518152602001868460ff16815181106121105761210f6137ef565b5b6020026020010151604001518152602001600015158152602001600015158152602001600015158152602001600015158152509080600181540180825580915050600190039060005260206000209060040201600090919091909150600082015181600001556020820151816001015560408201518160020190816121959190613ce6565b5060608201518160030160006101000a81548160ff02191690831515021790555060808201518160030160016101000a81548160ff02191690831515021790555060a08201518160030160026101000a81548160ff02191690831515021790555060c08201518160030160036101000a81548160ff021916908315150217905550505080806122239061385a565b915050612093565b50505050565b336000805b6001805490508160ff1610156122d65760018160ff168154811061225d5761225c6137ef565b5b9060005260206000200160009054906101000a900473ffffffffffffffffffffffffffffffffffffffff1673ffffffffffffffffffffffffffffffffffffffff168373ffffffffffffffffffffffffffffffffffffffff16036122c357600191506122d6565b80806122ce9061385a565b915050612236565b5080612317576040517f08c379a000000000000000000000000000000000000000000000000000000000815260040161230e906139e7565b60405180910390fd5b82600990816123269190613ce6565b50505050565b61233461293e565b6007600860009054906101000a900460ff1660ff168154811061235a576123596137ef565b5b90600052602060002090600402016040518060e0016040529081600082015481526020016001820154815260200160028201805461239790613944565b80601f01602080910402602001604051908101604052809291908181526020018280546123c390613944565b80156124105780601f106123e557610100808354040283529160200191612410565b820191906000526020600020905b8154815290600101906020018083116123f357829003601f168201915b505050505081526020016003820160009054906101000a900460ff161515151581526020016003820160019054906101000a900460ff161515151581526020016003820160029054906101000a900460ff161515151581526020016003820160039054906101000a900460ff161515151581525050905090565b336000805b6001805490508160ff16101561252f5760018160ff16815481106124b6576124b56137ef565b5b9060005260206000200160009054906101000a900473ffffffffffffffffffffffffffffffffffffffff1673ffffffffffffffffffffffffffffffffffffffff168373ffffffffffffffffffffffffffffffffffffffff160361251c576001915061252f565b80806125279061385a565b91505061248f565b5080612570576040517f08c379a0000000000000000000000000000000000000000000000000000000008152600401612567906139e7565b60405180910390fd5b836000805b6001805490508160ff1610156126155760018160ff168154811061259c5761259b6137ef565b5b9060005260206000200160009054906101000a900473ffffffffffffffffffffffffffffffffffffffff1673ffffffffffffffffffffffffffffffffffffffff168373ffffffffffffffffffffffffffffffffffffffff16036126025760019150612615565b808061260d9061385a565b915050612575565b50808061266f5750600360009054906101000a900473ffffffffffffffffffffffffffffffffffffffff1673ffffffffffffffffffffffffffffffffffffffff168273ffffffffffffffffffffffffffffffffffffffff16145b6126ae576040517f08c379a00000000000000000000000000000000000000000000000000000000081526004016126a590613fb5565b60405180910390fd5b6064856006546126be9190614321565b6126c89190614392565b8047101561270b576040517f08c379a000000000000000000000000000000000000000000000000000000000815260040161270290614021565b60405180910390fd5b600060648760065461271d9190614321565b6127279190614392565b9050600360009054906101000a900473ffffffffffffffffffffffffffffffffffffffff1673ffffffffffffffffffffffffffffffffffffffff168873ffffffffffffffffffffffffffffffffffffffff161461285b5780600260008a73ffffffffffffffffffffffffffffffffffffffff1673ffffffffffffffffffffffffffffffffffffffff168152602001908152602001600020541015612800576040517f08c379a00000000000000000000000000000000000000000000000000000000081526004016127f79061408d565b60405180910390fd5b80600260008a73ffffffffffffffffffffffffffffffffffffffff1673ffffffffffffffffffffffffffffffffffffffff168152602001908152602001600020600082825461284f91906140ad565b925050819055506128f3565b8773ffffffffffffffffffffffffffffffffffffffff166108fc829081150290604051600060405180830381858888f193505050501580156128a1573d6000803e3d6000fd5b5060016007600860009054906101000a900460ff1660ff16815481106128ca576128c96137ef565b5b906000526020600020906004020160030160036101000a81548160ff0219169083151502179055505b7f132717cc7ce0e7288e4e1e75cd3527373df35d716a6d9d576199b1ee22b159238882600654474260405161292c959493929190614136565b60405180910390a15050505050505050565b6040518060e001604052806000815260200160008152602001606081526020016000151581526020016000151581526020016000151581526020016000151581525090565b6000819050919050565b61299681612983565b82525050565b60006020820190506129b1600083018461298d565b92915050565b600073ffffffffffffffffffffffffffffffffffffffff82169050919050565b60006129e2826129b7565b9050919050565b6129f2816129d7565b82525050565b6000602082019050612a0d60008301846129e9565b92915050565b6000604051905090565b600080fd5b600080fd5b612a3081612983565b8114612a3b57600080fd5b50565b600081359050612a4d81612a27565b92915050565b600060208284031215612a6957612a68612a1d565b5b6000612a7784828501612a3e565b91505092915050565b612a89816129d7565b8114612a9457600080fd5b50565b600081359050612aa681612a80565b92915050565b600060208284031215612ac257612ac1612a1d565b5b6000612ad084828501612a97565b91505092915050565b600081519050919050565b600082825260208201905092915050565b60005b83811015612b13578082015181840152602081019050612af8565b60008484015250505050565b6000601f19601f8301169050919050565b6000612b3b82612ad9565b612b458185612ae4565b9350612b55818560208601612af5565b612b5e81612b1f565b840191505092915050565b60006020820190508181036000830152612b838184612b30565b905092915050565b60038110612b9857600080fd5b50565b600081359050612baa81612b8b565b92915050565b600060208284031215612bc657612bc5612a1d565b5b6000612bd484828501612b9b565b91505092915050565b600081519050919050565b600082825260208201905092915050565b6000819050602082019050919050565b612c12816129d7565b82525050565b6000612c248383612c09565b60208301905092915050565b6000602082019050919050565b6000612c4882612bdd565b612c528185612be8565b9350612c5d83612bf9565b8060005b83811015612c8e578151612c758882612c18565b9750612c8083612c30565b925050600181019050612c61565b5085935050505092915050565b60006020820190508181036000830152612cb58184612c3d565b905092915050565b612cc681612983565b82525050565b600082825260208201905092915050565b6000612ce882612ad9565b612cf28185612ccc565b9350612d02818560208601612af5565b612d0b81612b1f565b840191505092915050565b60008115159050919050565b612d2b81612d16565b82525050565b600060e083016000830151612d496000860182612cbd565b506020830151612d5c6020860182612cbd565b5060408301518482036040860152612d748282612cdd565b9150506060830151612d896060860182612d22565b506080830151612d9c6080860182612d22565b5060a0830151612daf60a0860182612d22565b5060c0830151612dc260c0860182612d22565b508091505092915050565b60006020820190508181036000830152612de78184612d31565b905092915050565b600081519050919050565b600082825260208201905092915050565b6000819050602082019050919050565b600060e083016000830151612e336000860182612cbd565b506020830151612e466020860182612cbd565b5060408301518482036040860152612e5e8282612cdd565b9150506060830151612e736060860182612d22565b506080830151612e866080860182612d22565b5060a0830151612e9960a0860182612d22565b5060c0830151612eac60c0860182612d22565b508091505092915050565b6000612ec38383612e1b565b905092915050565b6000602082019050919050565b6000612ee382612def565b612eed8185612dfa565b935083602082028501612eff85612e0b565b8060005b85811015612f3b5784840389528151612f1c8582612eb7565b9450612f2783612ecb565b925060208a01995050600181019050612f03565b50829750879550505050505092915050565b60006020820190508181036000830152612f678184612ed8565b905092915050565b600080fd5b600080fd5b7f4e487b7100000000000000000000000000000000000000000000000000000000600052604160045260246000fd5b612fb182612b1f565b810181811067ffffffffffffffff82111715612fd057612fcf612f79565b5b80604052505050565b6000612fe3612a13565b9050612fef8282612fa8565b919050565b600067ffffffffffffffff82111561300f5761300e612f79565b5b61301882612b1f565b9050602081019050919050565b82818337600083830152505050565b600061304761304284612ff4565b612fd9565b90508281526020810184848401111561306357613062612f74565b5b61306e848285613025565b509392505050565b600082601f83011261308b5761308a612f6f565b5b813561309b848260208601613034565b91505092915050565b6000602082840312156130ba576130b9612a1d565b5b600082013567ffffffffffffffff8111156130d8576130d7612a22565b5b6130e484828501613076565b91505092915050565b600067ffffffffffffffff82111561310857613107612f79565b5b602082029050602081019050919050565b600080fd5b600061313161312c846130ed565b612fd9565b9050808382526020820190506020840283018581111561315457613153613119565b5b835b8181101561319b57803567ffffffffffffffff81111561317957613178612f6f565b5b8086016131868982613076565b85526020850194505050602081019050613156565b5050509392505050565b600082601f8301126131ba576131b9612f6f565b5b81356131ca84826020860161311e565b91505092915050565b600067ffffffffffffffff8211156131ee576131ed612f79565b5b602082029050602081019050919050565b600067ffffffffffffffff82111561321a57613219612f79565b5b61322382612b1f565b9050602081019050919050565b600061324361323e846131ff565b612fd9565b90508281526020810184848401111561325f5761325e612f74565b5b61326a848285613025565b509392505050565b600082601f83011261328757613286612f6f565b5b8135613297848260208601613230565b91505092915050565b60006132b36132ae846131d3565b612fd9565b905080838252602082019050602084028301858111156132d6576132d5613119565b5b835b8181101561331d57803567ffffffffffffffff8111156132fb576132fa612f6f565b5b8086016133088982613272565b855260208501945050506020810190506132d8565b5050509392505050565b600082601f83011261333c5761333b612f6f565b5b813561334c8482602086016132a0565b91505092915050565b6000806040838503121561336c5761336b612a1d565b5b600083013567ffffffffffffffff81111561338a57613389612a22565b5b613396858286016131a5565b925050602083013567ffffffffffffffff8111156133b7576133b6612a22565b5b6133c385828601613327565b9150509250929050565b60006133d8826129b7565b9050919050565b6133e8816133cd565b81146133f357600080fd5b50565b600081359050613405816133df565b92915050565b6000806040838503121561342257613421612a1d565b5b6000613430858286016133f6565b925050602061344185828601612a3e565b9150509250929050565b600081519050919050565b600082825260208201905092915050565b6000819050602082019050919050565b60006134838383612cdd565b905092915050565b6000602082019050919050565b60006134a38261344b565b6134ad8185613456565b9350836020820285016134bf85613467565b8060005b858110156134fb57848403895281516134dc8582613477565b94506134e78361348b565b925060208a019950506001810190506134c3565b50829750879550505050505092915050565b600060208201905081810360008301526135278184613498565b905092915050565b600067ffffffffffffffff82111561354a57613549612f79565b5b602082029050602081019050919050565b600061356e6135698461352f565b612fd9565b9050808382526020820190506020840283018581111561359157613590613119565b5b835b818110156135ba57806135a68882612a97565b845260208401935050602081019050613593565b5050509392505050565b600082601f8301126135d9576135d8612f6f565b5b81356135e984826020860161355b565b91505092915050565b60006020828403121561360857613607612a1d565b5b600082013567ffffffffffffffff81111561362657613625612a22565b5b613632848285016135c4565b91505092915050565b600067ffffffffffffffff82111561365657613655612f79565b5b602082029050602081019050919050565b600080fd5b600080fd5b60006060828403121561368757613686613667565b5b6136916060612fd9565b905060006136a184828501612a3e565b60008301525060206136b584828501612a3e565b602083015250604082013567ffffffffffffffff8111156136d9576136d861366c565b5b6136e584828501613076565b60408301525092915050565b60006137046136ff8461363b565b612fd9565b9050808382526020820190506020840283018581111561372757613726613119565b5b835b8181101561376e57803567ffffffffffffffff81111561374c5761374b612f6f565b5b8086016137598982613671565b85526020850194505050602081019050613729565b5050509392505050565b600082601f83011261378d5761378c612f6f565b5b813561379d8482602086016136f1565b91505092915050565b6000602082840312156137bc576137bb612a1d565b5b600082013567ffffffffffffffff8111156137da576137d9612a22565b5b6137e684828501613778565b91505092915050565b7f4e487b7100000000000000000000000000000000000000000000000000000000600052603260045260246000fd5b7f4e487b7100000000000000000000000000000000000000000000000000000000600052601160045260246000fd5b600060ff82169050919050565b60006138658261384d565b915060ff82036138785761387761381e565b5b600182019050919050565b7f4f6e6c79207061727469636970616e74206f7220737570706c6965722063616e60008201527f2063616c6c20746869732066756e6374696f6e00000000000000000000000000602082015250565b60006138df603383612ae4565b91506138ea82613883565b604082019050919050565b6000602082019050818103600083015261390e816138d2565b9050919050565b7f4e487b7100000000000000000000000000000000000000000000000000000000600052602260045260246000fd5b6000600282049050600182168061395c57607f821691505b60208210810361396f5761396e613915565b5b50919050565b7f4f6e6c79207061727469636970616e7420776974686f757420737570706c696560008201527f722063616e2063616c6c20746869732066756e6374696f6e0000000000000000602082015250565b60006139d1603883612ae4565b91506139dc82613975565b604082019050919050565b60006020820190508181036000830152613a00816139c4565b9050919050565b7f4e487b7100000000000000000000000000000000000000000000000000000000600052602160045260246000fd5b6000613a4182612983565b9150613a4c83612983565b9250828201905080821115613a6457613a6361381e565b5b92915050565b600060a082019050613a7f60008301886129e9565b613a8c602083018761298d565b613a99604083018661298d565b613aa6606083018561298d565b613ab3608083018461298d565b9695505050505050565b6000613ac88261384d565b9150613ad38361384d565b9250828201905060ff811115613aec57613aeb61381e565b5b92915050565b6000613afd82612983565b91507fffffffffffffffffffffffffffffffffffffffffffffffffffffffffffffffff8203613b2f57613b2e61381e565b5b600182019050919050565b60008190508160005260206000209050919050565b60006020601f8301049050919050565b600082821b905092915050565b600060088302613b9c7fffffffffffffffffffffffffffffffffffffffffffffffffffffffffffffffff82613b5f565b613ba68683613b5f565b95508019841693508086168417925050509392505050565b6000819050919050565b6000613be3613bde613bd984612983565b613bbe565b612983565b9050919050565b6000819050919050565b613bfd83613bc8565b613c11613c0982613bea565b848454613b6c565b825550505050565b600090565b613c26613c19565b613c31818484613bf4565b505050565b5b81811015613c5557613c4a600082613c1e565b600181019050613c37565b5050565b601f821115613c9a57613c6b81613b3a565b613c7484613b4f565b81016020851015613c83578190505b613c97613c8f85613b4f565b830182613c36565b50505b505050565b600082821c905092915050565b6000613cbd60001984600802613c9f565b1980831691505092915050565b6000613cd68383613cac565b9150826002028217905092915050565b613cef82612ad9565b67ffffffffffffffff811115613d0857613d07612f79565b5b613d128254613944565b613d1d828285613c59565b600060209050601f831160018114613d505760008415613d3e578287015190505b613d488582613cca565b865550613db0565b601f198416613d5e86613b3a565b60005b82811015613d8657848901518255600182019150602085019450602081019050613d61565b86831015613da35784890151613d9f601f891682613cac565b8355505b6001600288020188555050505b505050505050565b600081905092915050565b6000613dce82612ad9565b613dd88185613db8565b9350613de8818560208601612af5565b80840191505092915050565b6000613e008284613dc3565b915081905092915050565b600081519050919050565b60008190508160005260206000209050919050565b601f821115613e6c57613e3d81613e16565b613e4684613b4f565b81016020851015613e55578190505b613e69613e6185613b4f565b830182613c36565b50505b505050565b613e7a82613e0b565b67ffffffffffffffff811115613e9357613e92612f79565b5b613e9d8254613944565b613ea8828285613e2b565b600060209050601f831160018114613edb5760008415613ec9578287015190505b613ed38582613cca565b865550613f3b565b601f198416613ee986613e16565b60005b82811015613f1157848901518255600182019150602085019450602081019050613eec565b86831015613f2e5784890151613f2a601f891682613cac565b8355505b6001600288020188555050505b505050505050565b7f4f6e6c79207061727469636970616e74206f7220737570706c6965722063616e60008201527f2072656365697665000000000000000000000000000000000000000000000000602082015250565b6000613f9f602883612ae4565b9150613faa82613f43565b604082019050919050565b60006020820190508181036000830152613fce81613f92565b9050919050565b7f4e6f7420656e6f75676820657468657273000000000000000000000000000000600082015250565b600061400b601183612ae4565b915061401682613fd5565b602082019050919050565b6000602082019050818103600083015261403a81613ffe565b9050919050565b7f4e6f7420656e6f75676820617373657473000000000000000000000000000000600082015250565b6000614077601183612ae4565b915061408282614041565b602082019050919050565b600060208201905081810360008301526140a68161406a565b9050919050565b60006140b882612983565b91506140c383612983565b92508282039050818111156140db576140da61381e565b5b92915050565b60006140fc6140f76140f2846129b7565b613bbe565b6129b7565b9050919050565b600061410e826140e1565b9050919050565b600061412082614103565b9050919050565b61413081614115565b82525050565b600060a08201905061414b6000830188614127565b614158602083018761298d565b614165604083018661298d565b614172606083018561298d565b61417f608083018461298d565b9695505050505050565b6000815461419681613944565b6141a08186613db8565b945060018216600081146141bb57600181146141d057614203565b60ff1983168652811515820286019350614203565b6141d985613b3a565b60005b838110156141fb578154818901526001820191506020810190506141dc565b838801955050505b50505092915050565b60006142188284614189565b915081905092915050565b7f50726976617465206b6579206973206e6f7420636f7272656374000000000000600082015250565b6000614259601a83612ae4565b915061426482614223565b602082019050919050565b600060208201905081810360008301526142888161424c565b9050919050565b7f4f6e6c7920737570706c6965722063616e2063616c6c20746869732066756e6360008201527f74696f6e00000000000000000000000000000000000000000000000000000000602082015250565b60006142eb602483612ae4565b91506142f68261428f565b604082019050919050565b6000602082019050818103600083015261431a816142de565b9050919050565b600061432c82612983565b915061433783612983565b925082820261434581612983565b9150828204841483151761435c5761435b61381e565b5b5092915050565b7f4e487b7100000000000000000000000000000000000000000000000000000000600052601260045260246000fd5b600061439d82612983565b91506143a883612983565b9250826143b8576143b7614363565b5b82820490509291505056fea2646970667358221220dcd12ae1088942c1ffcc831cd3c957c03e02621d8573474984685e93c2a58e5f64736f6c63430008130033",
  "linkReferences": {},
  "deployedLinkReferences": {}
}