{
  "_format": "hh-sol-artifact-1",
  "contractName": "SupplyChain",
  "sourceName": "contracts/SupplyChain.sol",
  "abi": [
    {
      "inputs": [
        {
          "internalType": "address[]",
          "name": "_user",
          "type": "address[]"
        },
        {
          "internalType": "address",
          "name": "_supplier",
          "type": "address"
        },
        {
          "internalType": "string[]",
          "name": "_keys",
          "type": "string[]"
        },
        {
          "internalType": "bytes[]",
          "name": "_values",
          "type": "bytes[]"
        },
        {
          "internalType": "uint256",
          "name": "_total",
          "type": "uint256"
        },
        {
          "components": [
            {
              "internalType": "uint256",
              "name": "percent",
              "type": "uint256"
            },
            {
              "internalType": "uint256",
              "name": "deliveryAt",
              "type": "uint256"
            },
            {
              "internalType": "string",
              "name": "description",
              "type": "string"
            }
          ],
          "internalType": "struct SupplyChain.StageData[]",
          "name": "_stages",
          "type": "tuple[]"
        }
      ],
      "stateMutability": "nonpayable",
      "type": "constructor"
    },
    {
      "anonymous": false,
      "inputs": [
        {
          "indexed": false,
          "internalType": "uint256",
          "name": "percent",
          "type": "uint256"
        },
        {
          "indexed": false,
          "internalType": "bool",
          "name": "userConfirm",
          "type": "bool"
        },
        {
          "indexed": false,
          "internalType": "bool",
          "name": "supplierConfirm",
          "type": "bool"
        },
        {
          "indexed": false,
          "internalType": "bool",
          "name": "isDone",
          "type": "bool"
        },
        {
          "indexed": false,
          "internalType": "uint256",
          "name": "confirmedAt",
          "type": "uint256"
        }
      ],
      "name": "confirmedStage",
      "type": "event"
    },
    {
      "anonymous": false,
      "inputs": [
        {
          "indexed": false,
          "internalType": "address",
          "name": "owner",
          "type": "address"
        },
        {
          "indexed": false,
          "internalType": "address[]",
          "name": "user",
          "type": "address[]"
        },
        {
          "indexed": false,
          "internalType": "address",
          "name": "supplier",
          "type": "address"
        },
        {
          "indexed": false,
          "internalType": "uint256",
          "name": "totalBalance",
          "type": "uint256"
        },
        {
          "indexed": false,
          "internalType": "uint256",
          "name": "currentBalance",
          "type": "uint256"
        },
        {
          "indexed": false,
          "internalType": "uint256",
          "name": "deployAt",
          "type": "uint256"
        }
      ],
      "name": "contractCreated",
      "type": "event"
    },
    {
      "anonymous": false,
      "inputs": [
        {
          "indexed": false,
          "internalType": "address",
          "name": "sender",
          "type": "address"
        },
        {
          "indexed": false,
          "internalType": "uint256",
          "name": "amount",
          "type": "uint256"
        },
        {
          "indexed": false,
          "internalType": "uint256",
          "name": "totalBalance",
          "type": "uint256"
        },
        {
          "indexed": false,
          "internalType": "uint256",
          "name": "currentBalance",
          "type": "uint256"
        },
        {
          "indexed": false,
          "internalType": "uint256",
          "name": "receivedAt",
          "type": "uint256"
        }
      ],
      "name": "received",
      "type": "event"
    },
    {
      "anonymous": false,
      "inputs": [
        {
          "indexed": false,
          "internalType": "address",
          "name": "to",
          "type": "address"
        },
        {
          "indexed": false,
          "internalType": "uint256",
          "name": "amount",
          "type": "uint256"
        },
        {
          "indexed": false,
          "internalType": "uint256",
          "name": "totalBalance",
          "type": "uint256"
        },
        {
          "indexed": false,
          "internalType": "uint256",
          "name": "currentBalance",
          "type": "uint256"
        },
        {
          "indexed": false,
          "internalType": "uint256",
          "name": "widthdrewAt",
          "type": "uint256"
        }
      ],
      "name": "widthdrew",
      "type": "event"
    },
    {
      "inputs": [],
      "name": "confirmStage",
      "outputs": [],
      "stateMutability": "nonpayable",
      "type": "function"
    },
    {
      "inputs": [
        {
          "internalType": "address",
          "name": "_addressWallet",
          "type": "address"
        }
      ],
      "name": "getAssets",
      "outputs": [
        {
          "internalType": "uint256",
          "name": "",
          "type": "uint256"
        }
      ],
      "stateMutability": "view",
      "type": "function"
    },
    {
      "inputs": [],
      "name": "getBalance",
      "outputs": [
        {
          "internalType": "uint256",
          "name": "",
          "type": "uint256"
        }
      ],
      "stateMutability": "view",
      "type": "function"
    },
    {
      "inputs": [],
      "name": "getContractInformation",
      "outputs": [
        {
          "internalType": "string[]",
          "name": "",
          "type": "string[]"
        }
      ],
      "stateMutability": "view",
      "type": "function"
    },
    {
      "inputs": [],
      "name": "getOwnerAddressWallet",
      "outputs": [
        {
          "internalType": "address",
          "name": "",
          "type": "address"
        }
      ],
      "stateMutability": "view",
      "type": "function"
    },
    {
      "inputs": [],
      "name": "getStages",
      "outputs": [
        {
          "components": [
            {
              "internalType": "uint256",
              "name": "percent",
              "type": "uint256"
            },
            {
              "internalType": "uint256",
              "name": "deliveryAt",
              "type": "uint256"
            },
            {
              "internalType": "string",
              "name": "description",
              "type": "string"
            },
            {
              "internalType": "bool",
              "name": "userConfirm",
              "type": "bool"
            },
            {
              "internalType": "bool",
              "name": "supplierConfirm",
              "type": "bool"
            },
            {
              "internalType": "bool",
              "name": "isDone",
              "type": "bool"
            }
          ],
          "internalType": "struct SupplyChain.Stage[]",
          "name": "",
          "type": "tuple[]"
        }
      ],
      "stateMutability": "view",
      "type": "function"
    },
    {
      "inputs": [],
      "name": "getStagesLength",
      "outputs": [
        {
          "internalType": "uint256",
          "name": "",
          "type": "uint256"
        }
      ],
      "stateMutability": "view",
      "type": "function"
    },
    {
      "inputs": [],
      "name": "getSupplierAddressWallet",
      "outputs": [
        {
          "internalType": "address",
          "name": "",
          "type": "address"
        }
      ],
      "stateMutability": "view",
      "type": "function"
    },
    {
      "inputs": [],
      "name": "getTotalBalance",
      "outputs": [
        {
          "internalType": "uint256",
          "name": "",
          "type": "uint256"
        }
      ],
      "stateMutability": "view",
      "type": "function"
    },
    {
      "inputs": [],
      "name": "getUserAddressWallet",
      "outputs": [
        {
          "internalType": "address[]",
          "name": "",
          "type": "address[]"
        }
      ],
      "stateMutability": "view",
      "type": "function"
    },
    {
      "inputs": [],
      "name": "sendToSmartContract",
      "outputs": [],
      "stateMutability": "payable",
      "type": "function"
    },
    {
      "inputs": [
        {
          "internalType": "address payable",
          "name": "_addressWallet",
          "type": "address"
        },
        {
          "internalType": "uint256",
          "name": "_amount",
          "type": "uint256"
        }
      ],
      "name": "withDrawByCurrency",
      "outputs": [],
      "stateMutability": "payable",
      "type": "function"
    },
    {
      "inputs": [
        {
          "internalType": "address payable",
          "name": "_addressWallet",
          "type": "address"
        },
        {
          "internalType": "uint256",
          "name": "_percent",
          "type": "uint256"
        }
      ],
      "name": "withDrawByPercent",
      "outputs": [],
      "stateMutability": "payable",
      "type": "function"
    }
  ],
  "bytecode": "0x60806040526000600860006101000a81548160ff021916908360ff1602179055503480156200002d57600080fd5b5060405162003a5138038062003a51833981810160405281019062000053919062000c70565b6000600860016101000a81548160ff021916908360028111156200007c576200007b62000d88565b5b0217905550670de0b6b3a76400008262000097919062000de6565b60068190555084600360006101000a81548173ffffffffffffffffffffffffffffffffffffffff021916908373ffffffffffffffffffffffffffffffffffffffff160217905550336000806101000a81548173ffffffffffffffffffffffffffffffffffffffff021916908373ffffffffffffffffffffffffffffffffffffffff16021790555060005b86518160ff1610156200022c576001878260ff168151811062000149576200014862000e31565b5b60200260200101519080600181540180825580915050600190039060005260206000200160009091909190916101000a81548173ffffffffffffffffffffffffffffffffffffffff021916908373ffffffffffffffffffffffffffffffffffffffff160217905550600060026000898460ff1681518110620001d057620001cf62000e31565b5b602002602001015173ffffffffffffffffffffffffffffffffffffffff1673ffffffffffffffffffffffffffffffffffffffff168152602001908152602001600020819055508080620002239062000e6d565b91505062000121565b5060005b84518160ff1610156200031a57838160ff168151811062000256576200025562000e31565b5b60200260200101516004868360ff168151811062000279576200027862000e31565b5b602002602001015160405162000290919062000ee8565b90815260200160405180910390209081620002ac919062001142565b506005858260ff1681518110620002c857620002c762000e31565b5b60200260200101519080600181540180825580915050600190039060005260206000200160009091909190915090816200030391906200128e565b508080620003119062000e6d565b91505062000230565b5060005b81518160ff1610156200049c5760076040518060c00160405280848460ff168151811062000351576200035062000e31565b5b6020026020010151600001518152602001848460ff16815181106200037b576200037a62000e31565b5b6020026020010151602001518152602001848460ff1681518110620003a557620003a462000e31565b5b6020026020010151604001518152602001600015158152602001600015158152602001600015158152509080600181540180825580915050600190039060005260206000209060040201600090919091909150600082015181600001556020820151816001015560408201518160020190816200042391906200128e565b5060608201518160030160006101000a81548160ff02191690831515021790555060808201518160030160016101000a81548160ff02191690831515021790555060a08201518160030160026101000a81548160ff02191690831515021790555050508080620004939062000e6d565b9150506200031e565b507f68e8e16725ae304c7b00b773ba80b94a2ea18bebc9d7cc7ade4f8c4980649ae160008054906101000a900473ffffffffffffffffffffffffffffffffffffffff166001600360009054906101000a900473ffffffffffffffffffffffffffffffffffffffff1660065447426040516200051d96959493929190620014d3565b60405180910390a150505050505062001547565b6000604051905090565b600080fd5b600080fd5b600080fd5b6000601f19601f8301169050919050565b7f4e487b7100000000000000000000000000000000000000000000000000000000600052604160045260246000fd5b62000595826200054a565b810181811067ffffffffffffffff82111715620005b757620005b66200055b565b5b80604052505050565b6000620005cc62000531565b9050620005da82826200058a565b919050565b600067ffffffffffffffff821115620005fd57620005fc6200055b565b5b602082029050602081019050919050565b600080fd5b600073ffffffffffffffffffffffffffffffffffffffff82169050919050565b6000620006408262000613565b9050919050565b620006528162000633565b81146200065e57600080fd5b50565b600081519050620006728162000647565b92915050565b60006200068f6200068984620005df565b620005c0565b90508083825260208201905060208402830185811115620006b557620006b46200060e565b5b835b81811015620006e25780620006cd888262000661565b845260208401935050602081019050620006b7565b5050509392505050565b600082601f83011262000704576200070362000545565b5b81516200071684826020860162000678565b91505092915050565b600067ffffffffffffffff8211156200073d576200073c6200055b565b5b602082029050602081019050919050565b600080fd5b600067ffffffffffffffff8211156200077157620007706200055b565b5b6200077c826200054a565b9050602081019050919050565b60005b83811015620007a95780820151818401526020810190506200078c565b60008484015250505050565b6000620007cc620007c68462000753565b620005c0565b905082815260208101848484011115620007eb57620007ea6200074e565b5b620007f884828562000789565b509392505050565b600082601f83011262000818576200081762000545565b5b81516200082a848260208601620007b5565b91505092915050565b60006200084a62000844846200071f565b620005c0565b9050808382526020820190506020840283018581111562000870576200086f6200060e565b5b835b81811015620008be57805167ffffffffffffffff81111562000899576200089862000545565b5b808601620008a8898262000800565b8552602085019450505060208101905062000872565b5050509392505050565b600082601f830112620008e057620008df62000545565b5b8151620008f284826020860162000833565b91505092915050565b600067ffffffffffffffff8211156200091957620009186200055b565b5b602082029050602081019050919050565b600067ffffffffffffffff8211156200094857620009476200055b565b5b62000953826200054a565b9050602081019050919050565b60006200097762000971846200092a565b620005c0565b9050828152602081018484840111156200099657620009956200074e565b5b620009a384828562000789565b509392505050565b600082601f830112620009c357620009c262000545565b5b8151620009d584826020860162000960565b91505092915050565b6000620009f5620009ef84620008fb565b620005c0565b9050808382526020820190506020840283018581111562000a1b5762000a1a6200060e565b5b835b8181101562000a6957805167ffffffffffffffff81111562000a445762000a4362000545565b5b80860162000a538982620009ab565b8552602085019450505060208101905062000a1d565b5050509392505050565b600082601f83011262000a8b5762000a8a62000545565b5b815162000a9d848260208601620009de565b91505092915050565b6000819050919050565b62000abb8162000aa6565b811462000ac757600080fd5b50565b60008151905062000adb8162000ab0565b92915050565b600067ffffffffffffffff82111562000aff5762000afe6200055b565b5b602082029050602081019050919050565b600080fd5b600080fd5b60006060828403121562000b335762000b3262000b10565b5b62000b3f6060620005c0565b9050600062000b518482850162000aca565b600083015250602062000b678482850162000aca565b602083015250604082015167ffffffffffffffff81111562000b8e5762000b8d62000b15565b5b62000b9c8482850162000800565b60408301525092915050565b600062000bbf62000bb98462000ae1565b620005c0565b9050808382526020820190506020840283018581111562000be55762000be46200060e565b5b835b8181101562000c3357805167ffffffffffffffff81111562000c0e5762000c0d62000545565b5b80860162000c1d898262000b1a565b8552602085019450505060208101905062000be7565b5050509392505050565b600082601f83011262000c555762000c5462000545565b5b815162000c6784826020860162000ba8565b91505092915050565b60008060008060008060c0878903121562000c905762000c8f6200053b565b5b600087015167ffffffffffffffff81111562000cb15762000cb062000540565b5b62000cbf89828a01620006ec565b965050602062000cd289828a0162000661565b955050604087015167ffffffffffffffff81111562000cf65762000cf562000540565b5b62000d0489828a01620008c8565b945050606087015167ffffffffffffffff81111562000d285762000d2762000540565b5b62000d3689828a0162000a73565b935050608062000d4989828a0162000aca565b92505060a087015167ffffffffffffffff81111562000d6d5762000d6c62000540565b5b62000d7b89828a0162000c3d565b9150509295509295509295565b7f4e487b7100000000000000000000000000000000000000000000000000000000600052602160045260246000fd5b7f4e487b7100000000000000000000000000000000000000000000000000000000600052601160045260246000fd5b600062000df38262000aa6565b915062000e008362000aa6565b925082820262000e108162000aa6565b9150828204841483151762000e2a5762000e2962000db7565b5b5092915050565b7f4e487b7100000000000000000000000000000000000000000000000000000000600052603260045260246000fd5b600060ff82169050919050565b600062000e7a8262000e60565b915060ff820362000e905762000e8f62000db7565b5b600182019050919050565b600081519050919050565b600081905092915050565b600062000ebe8262000e9b565b62000eca818562000ea6565b935062000edc81856020860162000789565b80840191505092915050565b600062000ef6828462000eb1565b915081905092915050565b600081519050919050565b7f4e487b7100000000000000000000000000000000000000000000000000000000600052602260045260246000fd5b6000600282049050600182168062000f5457607f821691505b60208210810362000f6a5762000f6962000f0c565b5b50919050565b60008190508160005260206000209050919050565b60006020601f8301049050919050565b600082821b905092915050565b60006008830262000fd47fffffffffffffffffffffffffffffffffffffffffffffffffffffffffffffffff8262000f95565b62000fe0868362000f95565b95508019841693508086168417925050509392505050565b6000819050919050565b6000620010236200101d620010178462000aa6565b62000ff8565b62000aa6565b9050919050565b6000819050919050565b6200103f8362001002565b620010576200104e826200102a565b84845462000fa2565b825550505050565b600090565b6200106e6200105f565b6200107b81848462001034565b505050565b5b81811015620010a3576200109760008262001064565b60018101905062001081565b5050565b601f821115620010f257620010bc8162000f70565b620010c78462000f85565b81016020851015620010d7578190505b620010ef620010e68562000f85565b83018262001080565b50505b505050565b600082821c905092915050565b60006200111760001984600802620010f7565b1980831691505092915050565b600062001132838362001104565b9150826002028217905092915050565b6200114d8262000f01565b67ffffffffffffffff8111156200116957620011686200055b565b5b62001175825462000f3b565b62001182828285620010a7565b600060209050601f831160018114620011ba5760008415620011a5578287015190505b620011b1858262001124565b86555062001221565b601f198416620011ca8662000f70565b60005b82811015620011f457848901518255600182019150602085019450602081019050620011cd565b8683101562001214578489015162001210601f89168262001104565b8355505b6001600288020188555050505b505050505050565b60008190508160005260206000209050919050565b601f8211156200128957620012538162001229565b6200125e8462000f85565b810160208510156200126e578190505b620012866200127d8562000f85565b83018262001080565b50505b505050565b620012998262000e9b565b67ffffffffffffffff811115620012b557620012b46200055b565b5b620012c1825462000f3b565b620012ce8282856200123e565b600060209050601f831160018114620013065760008415620012f1578287015190505b620012fd858262001124565b8655506200136d565b601f198416620013168662001229565b60005b82811015620013405784890151825560018201915060208501945060208101905062001319565b868310156200136057848901516200135c601f89168262001104565b8355505b6001600288020188555050505b505050505050565b620013808162000633565b82525050565b600081549050919050565b600082825260208201905092915050565b60008190508160005260206000209050919050565b620013c28162000633565b82525050565b6000620013d68383620013b7565b60208301905092915050565b60008160001c9050919050565b600073ffffffffffffffffffffffffffffffffffffffff82169050919050565b6000620014266200142083620013e2565b620013ef565b9050919050565b60006200143b82546200140f565b9050919050565b6000600182019050919050565b60006200145c8262001386565b62001468818562001391565b93506200147583620013a2565b8060005b83811015620014b5576200148d826200142d565b620014998882620013c8565b9750620014a68362001442565b92505060018101905062001479565b5085935050505092915050565b620014cd8162000aa6565b82525050565b600060c082019050620014ea600083018962001375565b8181036020830152620014fe81886200144f565b90506200150f604083018762001375565b6200151e6060830186620014c2565b6200152d6080830185620014c2565b6200153c60a0830184620014c2565b979650505050505050565b6124fa80620015576000396000f3fe6080604052600436106100c25760003560e01c8063742978da1161007f5780639c01b52f116100595780639c01b52f14610218578063da28cef714610243578063f6dfdad11461026e578063fbb0533714610299576100c2565b8063742978da1461019457806379655bd0146101d1578063904e3cff146101fc576100c2565b806312065fe0146100c757806312b58349146100f257806314a24bcf1461011d5780633f44327a146101485780634510fb59146101735780634bbe765a1461017d575b600080fd5b3480156100d357600080fd5b506100dc6102b5565b6040516100e991906117ed565b60405180910390f35b3480156100fe57600080fd5b506101076102bd565b60405161011491906117ed565b60405180910390f35b34801561012957600080fd5b506101326102c7565b60405161013f9190611849565b60405180910390f35b34801561015457600080fd5b5061015d6102f1565b60405161016a9190611922565b60405180910390f35b61017b61037f565b005b34801561018957600080fd5b50610192610500565b005b3480156101a057600080fd5b506101bb60048036038101906101b69190611975565b610b2b565b6040516101c891906117ed565b60405180910390f35b3480156101dd57600080fd5b506101e6610c5c565b6040516101f39190611ba7565b60405180910390f35b61021660048036038101906102119190611c33565b610db2565b005b34801561022457600080fd5b5061022d6111d9565b60405161023a9190611849565b60405180910390f35b34801561024f57600080fd5b50610258611202565b60405161026591906117ed565b60405180910390f35b34801561027a57600080fd5b5061028361120f565b6040516102909190611d35565b60405180910390f35b6102b360048036038101906102ae9190611c33565b611375565b005b600047905090565b6000600654905090565b6000600360009054906101000a900473ffffffffffffffffffffffffffffffffffffffff16905090565b6060600180548060200260200160405190810160405280929190818152602001828054801561037557602002820191906000526020600020905b8160009054906101000a900473ffffffffffffffffffffffffffffffffffffffff1673ffffffffffffffffffffffffffffffffffffffff168152602001906001019080831161032b575b5050505050905090565b336000805b6001805490508160ff1610156104245760018160ff16815481106103ab576103aa611d57565b5b9060005260206000200160009054906101000a900473ffffffffffffffffffffffffffffffffffffffff1673ffffffffffffffffffffffffffffffffffffffff168373ffffffffffffffffffffffffffffffffffffffff16036104115760019150610424565b808061041c90611dc2565b915050610384565b5080610465576040517f08c379a000000000000000000000000000000000000000000000000000000000815260040161045c90611e6e565b60405180910390fd5b34600260003373ffffffffffffffffffffffffffffffffffffffff1673ffffffffffffffffffffffffffffffffffffffff16815260200190815260200160002060008282546104b49190611e8e565b925050819055507fe4f13824473bb5d7c83a33648a5b781337db89c57cdfdb2caf2c87a9ca0391f6333460065447426040516104f4959493929190611ec2565b60405180910390a15050565b336000805b6001805490508160ff1610156105a55760018160ff168154811061052c5761052b611d57565b5b9060005260206000200160009054906101000a900473ffffffffffffffffffffffffffffffffffffffff1673ffffffffffffffffffffffffffffffffffffffff168373ffffffffffffffffffffffffffffffffffffffff160361059257600191506105a5565b808061059d90611dc2565b915050610505565b5080806105ff5750600360009054906101000a900473ffffffffffffffffffffffffffffffffffffffff1673ffffffffffffffffffffffffffffffffffffffff168273ffffffffffffffffffffffffffffffffffffffff16145b61063e576040517f08c379a000000000000000000000000000000000000000000000000000000000815260040161063590611f87565b60405180910390fd5b600360009054906101000a900473ffffffffffffffffffffffffffffffffffffffff1673ffffffffffffffffffffffffffffffffffffffff163373ffffffffffffffffffffffffffffffffffffffff16036106e85760016007600860009054906101000a900460ff1660ff16815481106106bb576106ba611d57565b5b906000526020600020906004020160030160016101000a81548160ff021916908315150217905550610739565b60016007600860009054906101000a900460ff1660ff16815481106107105761070f611d57565b5b906000526020600020906004020160030160006101000a81548160ff0219169083151502179055505b6007600860009054906101000a900460ff1660ff168154811061075f5761075e611d57565b5b906000526020600020906004020160030160019054906101000a900460ff1680156107cb57506007600860009054906101000a900460ff1660ff16815481106107ab576107aa611d57565b5b906000526020600020906004020160030160009054906101000a900460ff165b156109e5573073ffffffffffffffffffffffffffffffffffffffff1663fbb05337600360009054906101000a900473ffffffffffffffffffffffffffffffffffffffff166007600860009054906101000a900460ff1660ff168154811061083557610834611d57565b5b9060005260206000209060040201600001546040518363ffffffff1660e01b8152600401610864929190611fb6565b600060405180830381600087803b15801561087e57600080fd5b505af1158015610892573d6000803e3d6000fd5b505050506008600081819054906101000a900460ff16809291906108b590611dc2565b91906101000a81548160ff021916908360ff160217905550503073ffffffffffffffffffffffffffffffffffffffff1663fbb05337600360009054906101000a900473ffffffffffffffffffffffffffffffffffffffff166007600860009054906101000a900460ff1660ff168154811061093357610932611d57565b5b9060005260206000209060040201600001546040518363ffffffff1660e01b8152600401610962929190611fb6565b600060405180830381600087803b15801561097c57600080fd5b505af1158015610990573d6000803e3d6000fd5b5050505060016007600860009054906101000a900460ff1660ff16815481106109bc576109bb611d57565b5b906000526020600020906004020160030160026101000a81548160ff0219169083151502179055505b7f3b73a39967ce2bf2e7547f44bed45ab8268d03405789dee7c98598a496b82cfc6007600860009054906101000a900460ff1660ff1681548110610a2c57610a2b611d57565b5b9060005260206000209060040201600001546007600860009054906101000a900460ff1660ff1681548110610a6457610a63611d57565b5b906000526020600020906004020160030160009054906101000a900460ff166007600860009054906101000a900460ff1660ff1681548110610aa957610aa8611d57565b5b906000526020600020906004020160030160019054906101000a900460ff166007600860009054906101000a900460ff1660ff1681548110610aee57610aed611d57565b5b906000526020600020906004020160030160029054906101000a900460ff1642604051610b1f959493929190611fee565b60405180910390a15050565b6000816000805b6001805490508160ff161015610bd25760018160ff1681548110610b5957610b58611d57565b5b9060005260206000200160009054906101000a900473ffffffffffffffffffffffffffffffffffffffff1673ffffffffffffffffffffffffffffffffffffffff168373ffffffffffffffffffffffffffffffffffffffff1603610bbf5760019150610bd2565b8080610bca90611dc2565b915050610b32565b5080610c13576040517f08c379a0000000000000000000000000000000000000000000000000000000008152600401610c0a90611e6e565b60405180910390fd5b600260008573ffffffffffffffffffffffffffffffffffffffff1673ffffffffffffffffffffffffffffffffffffffff1681526020019081526020016000205492505050919050565b60606007805480602002602001604051908101604052809291908181526020016000905b82821015610da957838290600052602060002090600402016040518060c00160405290816000820154815260200160018201548152602001600282018054610cc790612070565b80601f0160208091040260200160405190810160405280929190818152602001828054610cf390612070565b8015610d405780601f10610d1557610100808354040283529160200191610d40565b820191906000526020600020905b815481529060010190602001808311610d2357829003601f168201915b505050505081526020016003820160009054906101000a900460ff161515151581526020016003820160019054906101000a900460ff161515151581526020016003820160029054906101000a900460ff16151515158152505081526020019060010190610c80565b50505050905090565b336000805b6001805490508160ff161015610e575760018160ff1681548110610dde57610ddd611d57565b5b9060005260206000200160009054906101000a900473ffffffffffffffffffffffffffffffffffffffff1673ffffffffffffffffffffffffffffffffffffffff168373ffffffffffffffffffffffffffffffffffffffff1603610e445760019150610e57565b8080610e4f90611dc2565b915050610db7565b5080610e98576040517f08c379a0000000000000000000000000000000000000000000000000000000008152600401610e8f90611e6e565b60405180910390fd5b836000805b6001805490508160ff161015610f3d5760018160ff1681548110610ec457610ec3611d57565b5b9060005260206000200160009054906101000a900473ffffffffffffffffffffffffffffffffffffffff1673ffffffffffffffffffffffffffffffffffffffff168373ffffffffffffffffffffffffffffffffffffffff1603610f2a5760019150610f3d565b8080610f3590611dc2565b915050610e9d565b508080610f975750600360009054906101000a900473ffffffffffffffffffffffffffffffffffffffff1673ffffffffffffffffffffffffffffffffffffffff168273ffffffffffffffffffffffffffffffffffffffff16145b610fd6576040517f08c379a0000000000000000000000000000000000000000000000000000000008152600401610fcd90612113565b60405180910390fd5b848047101561101a576040517f08c379a00000000000000000000000000000000000000000000000000000000081526004016110119061217f565b60405180910390fd5b600360009054906101000a900473ffffffffffffffffffffffffffffffffffffffff1673ffffffffffffffffffffffffffffffffffffffff168773ffffffffffffffffffffffffffffffffffffffff16146111485785600260008973ffffffffffffffffffffffffffffffffffffffff1673ffffffffffffffffffffffffffffffffffffffff1681526020019081526020016000205410156110f1576040517f08c379a00000000000000000000000000000000000000000000000000000000081526004016110e8906121eb565b60405180910390fd5b85600260008973ffffffffffffffffffffffffffffffffffffffff1673ffffffffffffffffffffffffffffffffffffffff1681526020019081526020016000206000828254611140919061220b565b925050819055505b8673ffffffffffffffffffffffffffffffffffffffff166108fc879081150290604051600060405180830381858888f1935050505015801561118e573d6000803e3d6000fd5b507f132717cc7ce0e7288e4e1e75cd3527373df35d716a6d9d576199b1ee22b15923878760065447426040516111c895949392919061229e565b60405180910390a150505050505050565b60008060009054906101000a900473ffffffffffffffffffffffffffffffffffffffff16905090565b6000600780549050905090565b6060600060058054905067ffffffffffffffff811115611232576112316122f1565b5b60405190808252806020026020018201604052801561126557816020015b60608152602001906001900390816112505790505b50905060005b60058054905081101561136d5760046005828154811061128e5761128d611d57565b5b906000526020600020016040516112a591906123c3565b908152602001604051809103902080546112be90612070565b80601f01602080910402602001604051908101604052809291908181526020018280546112ea90612070565b80156113375780601f1061130c57610100808354040283529160200191611337565b820191906000526020600020905b81548152906001019060200180831161131a57829003601f168201915b505050505082828151811061134f5761134e611d57565b5b60200260200101819052508080611365906123da565b91505061126b565b508091505090565b336000805b6001805490508160ff16101561141a5760018160ff16815481106113a1576113a0611d57565b5b9060005260206000200160009054906101000a900473ffffffffffffffffffffffffffffffffffffffff1673ffffffffffffffffffffffffffffffffffffffff168373ffffffffffffffffffffffffffffffffffffffff1603611407576001915061141a565b808061141290611dc2565b91505061137a565b508061145b576040517f08c379a000000000000000000000000000000000000000000000000000000000815260040161145290611e6e565b60405180910390fd5b836000805b6001805490508160ff1610156115005760018160ff168154811061148757611486611d57565b5b9060005260206000200160009054906101000a900473ffffffffffffffffffffffffffffffffffffffff1673ffffffffffffffffffffffffffffffffffffffff168373ffffffffffffffffffffffffffffffffffffffff16036114ed5760019150611500565b80806114f890611dc2565b915050611460565b50808061155a5750600360009054906101000a900473ffffffffffffffffffffffffffffffffffffffff1673ffffffffffffffffffffffffffffffffffffffff168273ffffffffffffffffffffffffffffffffffffffff16145b611599576040517f08c379a000000000000000000000000000000000000000000000000000000000815260040161159090612113565b60405180910390fd5b6064856006546115a99190612422565b6115b39190612493565b804710156115f6576040517f08c379a00000000000000000000000000000000000000000000000000000000081526004016115ed9061217f565b60405180910390fd5b60006064876006546116089190612422565b6116129190612493565b9050600360009054906101000a900473ffffffffffffffffffffffffffffffffffffffff1673ffffffffffffffffffffffffffffffffffffffff168873ffffffffffffffffffffffffffffffffffffffff16146117425780600260008a73ffffffffffffffffffffffffffffffffffffffff1673ffffffffffffffffffffffffffffffffffffffff1681526020019081526020016000205410156116eb576040517f08c379a00000000000000000000000000000000000000000000000000000000081526004016116e2906121eb565b60405180910390fd5b80600260008a73ffffffffffffffffffffffffffffffffffffffff1673ffffffffffffffffffffffffffffffffffffffff168152602001908152602001600020600082825461173a919061220b565b925050819055505b8773ffffffffffffffffffffffffffffffffffffffff166108fc829081150290604051600060405180830381858888f19350505050158015611788573d6000803e3d6000fd5b507f132717cc7ce0e7288e4e1e75cd3527373df35d716a6d9d576199b1ee22b15923888260065447426040516117c295949392919061229e565b60405180910390a15050505050505050565b6000819050919050565b6117e7816117d4565b82525050565b600060208201905061180260008301846117de565b92915050565b600073ffffffffffffffffffffffffffffffffffffffff82169050919050565b600061183382611808565b9050919050565b61184381611828565b82525050565b600060208201905061185e600083018461183a565b92915050565b600081519050919050565b600082825260208201905092915050565b6000819050602082019050919050565b61189981611828565b82525050565b60006118ab8383611890565b60208301905092915050565b6000602082019050919050565b60006118cf82611864565b6118d9818561186f565b93506118e483611880565b8060005b838110156119155781516118fc888261189f565b9750611907836118b7565b9250506001810190506118e8565b5085935050505092915050565b6000602082019050818103600083015261193c81846118c4565b905092915050565b600080fd5b61195281611828565b811461195d57600080fd5b50565b60008135905061196f81611949565b92915050565b60006020828403121561198b5761198a611944565b5b600061199984828501611960565b91505092915050565b600081519050919050565b600082825260208201905092915050565b6000819050602082019050919050565b6119d7816117d4565b82525050565b600081519050919050565b600082825260208201905092915050565b60005b83811015611a175780820151818401526020810190506119fc565b60008484015250505050565b6000601f19601f8301169050919050565b6000611a3f826119dd565b611a4981856119e8565b9350611a598185602086016119f9565b611a6281611a23565b840191505092915050565b60008115159050919050565b611a8281611a6d565b82525050565b600060c083016000830151611aa060008601826119ce565b506020830151611ab360208601826119ce565b5060408301518482036040860152611acb8282611a34565b9150506060830151611ae06060860182611a79565b506080830151611af36080860182611a79565b5060a0830151611b0660a0860182611a79565b508091505092915050565b6000611b1d8383611a88565b905092915050565b6000602082019050919050565b6000611b3d826119a2565b611b4781856119ad565b935083602082028501611b59856119be565b8060005b85811015611b955784840389528151611b768582611b11565b9450611b8183611b25565b925060208a01995050600181019050611b5d565b50829750879550505050505092915050565b60006020820190508181036000830152611bc18184611b32565b905092915050565b6000611bd482611808565b9050919050565b611be481611bc9565b8114611bef57600080fd5b50565b600081359050611c0181611bdb565b92915050565b611c10816117d4565b8114611c1b57600080fd5b50565b600081359050611c2d81611c07565b92915050565b60008060408385031215611c4a57611c49611944565b5b6000611c5885828601611bf2565b9250506020611c6985828601611c1e565b9150509250929050565b600081519050919050565b600082825260208201905092915050565b6000819050602082019050919050565b6000611cab8383611a34565b905092915050565b6000602082019050919050565b6000611ccb82611c73565b611cd58185611c7e565b935083602082028501611ce785611c8f565b8060005b85811015611d235784840389528151611d048582611c9f565b9450611d0f83611cb3565b925060208a01995050600181019050611ceb565b50829750879550505050505092915050565b60006020820190508181036000830152611d4f8184611cc0565b905092915050565b7f4e487b7100000000000000000000000000000000000000000000000000000000600052603260045260246000fd5b7f4e487b7100000000000000000000000000000000000000000000000000000000600052601160045260246000fd5b600060ff82169050919050565b6000611dcd82611db5565b915060ff8203611de057611ddf611d86565b5b600182019050919050565b600082825260208201905092915050565b7f4f6e6c79207061727469636970616e7420776974686f757420737570706c696560008201527f722063616e2063616c6c20746869732066756e6374696f6e0000000000000000602082015250565b6000611e58603883611deb565b9150611e6382611dfc565b604082019050919050565b60006020820190508181036000830152611e8781611e4b565b9050919050565b6000611e99826117d4565b9150611ea4836117d4565b9250828201905080821115611ebc57611ebb611d86565b5b92915050565b600060a082019050611ed7600083018861183a565b611ee460208301876117de565b611ef160408301866117de565b611efe60608301856117de565b611f0b60808301846117de565b9695505050505050565b7f4f6e6c79207061727469636970616e74206f7220737570706c6965722063616e60008201527f2063616c6c20746869732066756e6374696f6e00000000000000000000000000602082015250565b6000611f71603383611deb565b9150611f7c82611f15565b604082019050919050565b60006020820190508181036000830152611fa081611f64565b9050919050565b611fb081611bc9565b82525050565b6000604082019050611fcb6000830185611fa7565b611fd860208301846117de565b9392505050565b611fe881611a6d565b82525050565b600060a08201905061200360008301886117de565b6120106020830187611fdf565b61201d6040830186611fdf565b61202a6060830185611fdf565b61203760808301846117de565b9695505050505050565b7f4e487b7100000000000000000000000000000000000000000000000000000000600052602260045260246000fd5b6000600282049050600182168061208857607f821691505b60208210810361209b5761209a612041565b5b50919050565b7f4f6e6c79207061727469636970616e74206f7220737570706c6965722063616e60008201527f2072656365697665000000000000000000000000000000000000000000000000602082015250565b60006120fd602883611deb565b9150612108826120a1565b604082019050919050565b6000602082019050818103600083015261212c816120f0565b9050919050565b7f4e6f7420656e6f75676820657468657273000000000000000000000000000000600082015250565b6000612169601183611deb565b915061217482612133565b602082019050919050565b600060208201905081810360008301526121988161215c565b9050919050565b7f4e6f7420656e6f75676820617373657473000000000000000000000000000000600082015250565b60006121d5601183611deb565b91506121e08261219f565b602082019050919050565b60006020820190508181036000830152612204816121c8565b9050919050565b6000612216826117d4565b9150612221836117d4565b925082820390508181111561223957612238611d86565b5b92915050565b6000819050919050565b600061226461225f61225a84611808565b61223f565b611808565b9050919050565b600061227682612249565b9050919050565b60006122888261226b565b9050919050565b6122988161227d565b82525050565b600060a0820190506122b3600083018861228f565b6122c060208301876117de565b6122cd60408301866117de565b6122da60608301856117de565b6122e760808301846117de565b9695505050505050565b7f4e487b7100000000000000000000000000000000000000000000000000000000600052604160045260246000fd5b600081905092915050565b60008190508160005260206000209050919050565b6000815461234d81612070565b6123578186612320565b945060018216600081146123725760018114612387576123ba565b60ff19831686528115158202860193506123ba565b6123908561232b565b60005b838110156123b257815481890152600182019150602081019050612393565b838801955050505b50505092915050565b60006123cf8284612340565b915081905092915050565b60006123e5826117d4565b91507fffffffffffffffffffffffffffffffffffffffffffffffffffffffffffffffff820361241757612416611d86565b5b600182019050919050565b600061242d826117d4565b9150612438836117d4565b9250828202612446816117d4565b9150828204841483151761245d5761245c611d86565b5b5092915050565b7f4e487b7100000000000000000000000000000000000000000000000000000000600052601260045260246000fd5b600061249e826117d4565b91506124a9836117d4565b9250826124b9576124b8612464565b5b82820490509291505056fea264697066735822122098aea15ab9d436d3ff73e05e5e8af154d74748ef2d392497445b2b1d4a51184e64736f6c63430008130033",
  "linkReferences": {},
  "deployedLinkReferences": {}
}