{
	"contracts/SupplyChain.sol": {
		"SupplyChain": {
			"abi": [
				{
					"inputs": [
						{
							"internalType": "address[]",
							"name": "_user",
							"type": "address[]"
						},
						{
							"internalType": "address",
							"name": "_supplier",
							"type": "address"
						},
						{
							"internalType": "string[]",
							"name": "_keys",
							"type": "string[]"
						},
						{
							"internalType": "bytes[]",
							"name": "_values",
							"type": "bytes[]"
						},
						{
							"internalType": "uint256",
							"name": "_total",
							"type": "uint256"
						},
						{
							"components": [
								{
									"internalType": "uint256",
									"name": "percent",
									"type": "uint256"
								},
								{
									"internalType": "uint256",
									"name": "deliveryAt",
									"type": "uint256"
								}
							],
							"internalType": "struct SupplyChain.StageData[]",
							"name": "_stages",
							"type": "tuple[]"
						}
					],
					"stateMutability": "nonpayable",
					"type": "constructor"
				},
				{
					"anonymous": false,
					"inputs": [
						{
							"indexed": false,
							"internalType": "uint256",
							"name": "percent",
							"type": "uint256"
						},
						{
							"indexed": false,
							"internalType": "bool",
							"name": "userConfirm",
							"type": "bool"
						},
						{
							"indexed": false,
							"internalType": "bool",
							"name": "supplierConfirm",
							"type": "bool"
						},
						{
							"indexed": false,
							"internalType": "bool",
							"name": "isDone",
							"type": "bool"
						},
						{
							"indexed": false,
							"internalType": "uint256",
							"name": "confirmedAt",
							"type": "uint256"
						}
					],
					"name": "confirmedStage",
					"type": "event"
				},
				{
					"anonymous": false,
					"inputs": [
						{
							"indexed": false,
							"internalType": "address",
							"name": "owner",
							"type": "address"
						},
						{
							"indexed": false,
							"internalType": "address[]",
							"name": "user",
							"type": "address[]"
						},
						{
							"indexed": false,
							"internalType": "address",
							"name": "supplier",
							"type": "address"
						},
						{
							"indexed": false,
							"internalType": "uint256",
							"name": "totalBalance",
							"type": "uint256"
						},
						{
							"indexed": false,
							"internalType": "uint256",
							"name": "currentBalance",
							"type": "uint256"
						},
						{
							"indexed": false,
							"internalType": "uint256",
							"name": "deployAt",
							"type": "uint256"
						}
					],
					"name": "contractCreated",
					"type": "event"
				},
				{
					"anonymous": false,
					"inputs": [
						{
							"indexed": false,
							"internalType": "address",
							"name": "sender",
							"type": "address"
						},
						{
							"indexed": false,
							"internalType": "uint256",
							"name": "amount",
							"type": "uint256"
						},
						{
							"indexed": false,
							"internalType": "uint256",
							"name": "totalBalance",
							"type": "uint256"
						},
						{
							"indexed": false,
							"internalType": "uint256",
							"name": "currentBalance",
							"type": "uint256"
						},
						{
							"indexed": false,
							"internalType": "uint256",
							"name": "receivedAt",
							"type": "uint256"
						}
					],
					"name": "received",
					"type": "event"
				},
				{
					"anonymous": false,
					"inputs": [
						{
							"indexed": false,
							"internalType": "address",
							"name": "to",
							"type": "address"
						},
						{
							"indexed": false,
							"internalType": "uint256",
							"name": "amount",
							"type": "uint256"
						},
						{
							"indexed": false,
							"internalType": "uint256",
							"name": "totalBalance",
							"type": "uint256"
						},
						{
							"indexed": false,
							"internalType": "uint256",
							"name": "currentBalance",
							"type": "uint256"
						},
						{
							"indexed": false,
							"internalType": "uint256",
							"name": "widthdrewAt",
							"type": "uint256"
						}
					],
					"name": "widthdrew",
					"type": "event"
				},
				{
					"inputs": [
						{
							"internalType": "address",
							"name": "_addressWallet",
							"type": "address"
						}
					],
					"name": "getAssets",
					"outputs": [
						{
							"internalType": "uint256",
							"name": "",
							"type": "uint256"
						}
					],
					"stateMutability": "view",
					"type": "function"
				},
				{
					"inputs": [],
					"name": "getBalance",
					"outputs": [
						{
							"internalType": "uint256",
							"name": "",
							"type": "uint256"
						}
					],
					"stateMutability": "view",
					"type": "function"
				},
				{
					"inputs": [],
					"name": "getContractInformation",
					"outputs": [
						{
							"internalType": "string[]",
							"name": "",
							"type": "string[]"
						}
					],
					"stateMutability": "view",
					"type": "function"
				},
				{
					"inputs": [],
					"name": "getOwnerAddressWallet",
					"outputs": [
						{
							"internalType": "address",
							"name": "",
							"type": "address"
						}
					],
					"stateMutability": "view",
					"type": "function"
				},
				{
					"inputs": [],
					"name": "getStages",
					"outputs": [
						{
							"components": [
								{
									"internalType": "uint256",
									"name": "percent",
									"type": "uint256"
								},
								{
									"internalType": "uint256",
									"name": "deliveryAt",
									"type": "uint256"
								},
								{
									"internalType": "bool",
									"name": "userConfirm",
									"type": "bool"
								},
								{
									"internalType": "bool",
									"name": "supplierConfirm",
									"type": "bool"
								},
								{
									"internalType": "bool",
									"name": "isDone",
									"type": "bool"
								}
							],
							"internalType": "struct SupplyChain.Stage[]",
							"name": "",
							"type": "tuple[]"
						}
					],
					"stateMutability": "view",
					"type": "function"
				},
				{
					"inputs": [],
					"name": "getSupplierAddressWallet",
					"outputs": [
						{
							"internalType": "address",
							"name": "",
							"type": "address"
						}
					],
					"stateMutability": "view",
					"type": "function"
				},
				{
					"inputs": [],
					"name": "getTotalBalance",
					"outputs": [
						{
							"internalType": "uint256",
							"name": "",
							"type": "uint256"
						}
					],
					"stateMutability": "view",
					"type": "function"
				},
				{
					"inputs": [],
					"name": "getUserAddressWallet",
					"outputs": [
						{
							"internalType": "address[]",
							"name": "",
							"type": "address[]"
						}
					],
					"stateMutability": "view",
					"type": "function"
				},
				{
					"inputs": [],
					"name": "sendToSmartContract",
					"outputs": [],
					"stateMutability": "payable",
					"type": "function"
				},
				{
					"inputs": [
						{
							"internalType": "address payable",
							"name": "_addressWallet",
							"type": "address"
						},
						{
							"internalType": "uint256",
							"name": "_amount",
							"type": "uint256"
						}
					],
					"name": "withDrawByCurrency",
					"outputs": [],
					"stateMutability": "payable",
					"type": "function"
				},
				{
					"inputs": [
						{
							"internalType": "address payable",
							"name": "_addressWallet",
							"type": "address"
						},
						{
							"internalType": "uint256",
							"name": "_percent",
							"type": "uint256"
						}
					],
					"name": "withDrawByPercent",
					"outputs": [],
					"stateMutability": "payable",
					"type": "function"
				}
			],
			"devdoc": {
				"kind": "dev",
				"methods": {},
				"version": 1
			},
			"evm": {
				"assembly": "    /* \"contracts/SupplyChain.sol\":61:6670  contract SupplyChain {... */\n  mstore(0x40, 0x80)\n    /* \"contracts/SupplyChain.sol\":604:605  0 */\n  0x00\n    /* \"contracts/SupplyChain.sol\":575:605  uint8 private currentStage = 0 */\n  0x08\n  exp(0x0100, 0x00)\n  dup2\n  sload\n  dup2\n  0xff\n  mul\n  not\n  and\n  swap1\n  dup4\n  0xff\n  and\n  mul\n  or\n  swap1\n  sstore\n  pop\n    /* \"contracts/SupplyChain.sol\":1564:2359  constructor(... */\n  callvalue\n  dup1\n  iszero\n  tag_1\n  jumpi\n  0x00\n  dup1\n  revert\ntag_1:\n  pop\n  mload(0x40)\n  sub(codesize, bytecodeSize)\n  dup1\n  bytecodeSize\n  dup4\n  codecopy\n  dup2\n  dup2\n  add\n  0x40\n  mstore\n  dup2\n  add\n  swap1\n  tag_2\n  swap2\n  swap1\n  tag_3\n  jump\t// in\ntag_2:\n    /* \"contracts/SupplyChain.sol\":1773:1780  1 ether */\n  0x0de0b6b3a7640000\n    /* \"contracts/SupplyChain.sol\":1764:1770  _total */\n  dup3\n    /* \"contracts/SupplyChain.sol\":1764:1780  _total * 1 ether */\n  tag_6\n  swap2\n  swap1\n  tag_7\n  jump\t// in\ntag_6:\n    /* \"contracts/SupplyChain.sol\":1749:1761  totalBalance */\n  0x06\n    /* \"contracts/SupplyChain.sol\":1749:1780  totalBalance = _total * 1 ether */\n  dup2\n  swap1\n  sstore\n  pop\n    /* \"contracts/SupplyChain.sol\":1798:1807  _supplier */\n  dup5\n    /* \"contracts/SupplyChain.sol\":1787:1795  supplier */\n  0x03\n  0x00\n    /* \"contracts/SupplyChain.sol\":1787:1807  supplier = _supplier */\n  0x0100\n  exp\n  dup2\n  sload\n  dup2\n  0xffffffffffffffffffffffffffffffffffffffff\n  mul\n  not\n  and\n  swap1\n  dup4\n  0xffffffffffffffffffffffffffffffffffffffff\n  and\n  mul\n  or\n  swap1\n  sstore\n  pop\n    /* \"contracts/SupplyChain.sol\":1822:1832  msg.sender */\n  caller\n    /* \"contracts/SupplyChain.sol\":1814:1819  owner */\n  0x00\n  dup1\n    /* \"contracts/SupplyChain.sol\":1814:1832  owner = msg.sender */\n  0x0100\n  exp\n  dup2\n  sload\n  dup2\n  0xffffffffffffffffffffffffffffffffffffffff\n  mul\n  not\n  and\n  swap1\n  dup4\n  0xffffffffffffffffffffffffffffffffffffffff\n  and\n  mul\n  or\n  swap1\n  sstore\n  pop\n    /* \"contracts/SupplyChain.sol\":1844:1851  uint8 i */\n  0x00\n    /* \"contracts/SupplyChain.sol\":1839:1946  for (uint8 i = 0; i < _user.length; i++) {... */\ntag_8:\n    /* \"contracts/SupplyChain.sol\":1861:1866  _user */\n  dup7\n    /* \"contracts/SupplyChain.sol\":1861:1873  _user.length */\n  mload\n    /* \"contracts/SupplyChain.sol\":1857:1858  i */\n  dup2\n    /* \"contracts/SupplyChain.sol\":1857:1873  i < _user.length */\n  0xff\n  and\n  lt\n    /* \"contracts/SupplyChain.sol\":1839:1946  for (uint8 i = 0; i < _user.length; i++) {... */\n  iszero\n  tag_9\n  jumpi\n    /* \"contracts/SupplyChain.sol\":1889:1894  users */\n  0x01\n    /* \"contracts/SupplyChain.sol\":1900:1905  _user */\n  dup8\n    /* \"contracts/SupplyChain.sol\":1906:1907  i */\n  dup3\n    /* \"contracts/SupplyChain.sol\":1900:1908  _user[i] */\n  0xff\n  and\n  dup2\n  mload\n  dup2\n  lt\n  tag_11\n  jumpi\n  tag_12\n  tag_13\n  jump\t// in\ntag_12:\ntag_11:\n  0x20\n  mul\n  0x20\n  add\n  add\n  mload\n    /* \"contracts/SupplyChain.sol\":1889:1909  users.push(_user[i]) */\n  swap1\n  dup1\n  0x01\n  dup2\n  sload\n  add\n  dup1\n  dup3\n  sstore\n  dup1\n  swap2\n  pop\n  pop\n  0x01\n  swap1\n  sub\n  swap1\n  0x00\n  mstore\n  keccak256(0x00, 0x20)\n  add\n  0x00\n  swap1\n  swap2\n  swap1\n  swap2\n  swap1\n  swap2\n  0x0100\n  exp\n  dup2\n  sload\n  dup2\n  0xffffffffffffffffffffffffffffffffffffffff\n  mul\n  not\n  and\n  swap1\n  dup4\n  0xffffffffffffffffffffffffffffffffffffffff\n  and\n  mul\n  or\n  swap1\n  sstore\n  pop\n    /* \"contracts/SupplyChain.sol\":1937:1938  0 */\n  0x00\n    /* \"contracts/SupplyChain.sol\":1918:1924  assets */\n  0x02\n    /* \"contracts/SupplyChain.sol\":1918:1934  assets[_user[i]] */\n  0x00\n    /* \"contracts/SupplyChain.sol\":1925:1930  _user */\n  dup10\n    /* \"contracts/SupplyChain.sol\":1931:1932  i */\n  dup5\n    /* \"contracts/SupplyChain.sol\":1925:1933  _user[i] */\n  0xff\n  and\n  dup2\n  mload\n  dup2\n  lt\n  tag_15\n  jumpi\n  tag_16\n  tag_13\n  jump\t// in\ntag_16:\ntag_15:\n  0x20\n  mul\n  0x20\n  add\n  add\n  mload\n    /* \"contracts/SupplyChain.sol\":1918:1934  assets[_user[i]] */\n  0xffffffffffffffffffffffffffffffffffffffff\n  and\n  0xffffffffffffffffffffffffffffffffffffffff\n  and\n  dup2\n  mstore\n  0x20\n  add\n  swap1\n  dup2\n  mstore\n  0x20\n  add\n  0x00\n  keccak256\n    /* \"contracts/SupplyChain.sol\":1918:1938  assets[_user[i]] = 0 */\n  dup2\n  swap1\n  sstore\n  pop\n    /* \"contracts/SupplyChain.sol\":1875:1878  i++ */\n  dup1\n  dup1\n  tag_17\n  swap1\n  tag_18\n  jump\t// in\ntag_17:\n  swap2\n  pop\n  pop\n    /* \"contracts/SupplyChain.sol\":1839:1946  for (uint8 i = 0; i < _user.length; i++) {... */\n  jump(tag_8)\ntag_9:\n  pop\n    /* \"contracts/SupplyChain.sol\":1957:1964  uint8 i */\n  0x00\n    /* \"contracts/SupplyChain.sol\":1952:2099  for (uint8 i = 0; i < _keys.length; i++) {... */\ntag_19:\n    /* \"contracts/SupplyChain.sol\":1974:1979  _keys */\n  dup5\n    /* \"contracts/SupplyChain.sol\":1974:1986  _keys.length */\n  mload\n    /* \"contracts/SupplyChain.sol\":1970:1971  i */\n  dup2\n    /* \"contracts/SupplyChain.sol\":1970:1986  i < _keys.length */\n  0xff\n  and\n  lt\n    /* \"contracts/SupplyChain.sol\":1952:2099  for (uint8 i = 0; i < _keys.length; i++) {... */\n  iszero\n  tag_20\n  jumpi\n    /* \"contracts/SupplyChain.sol\":2034:2041  _values */\n  dup4\n    /* \"contracts/SupplyChain.sol\":2042:2043  i */\n  dup2\n    /* \"contracts/SupplyChain.sol\":2034:2044  _values[i] */\n  0xff\n  and\n  dup2\n  mload\n  dup2\n  lt\n  tag_22\n  jumpi\n  tag_23\n  tag_13\n  jump\t// in\ntag_23:\ntag_22:\n  0x20\n  mul\n  0x20\n  add\n  add\n  mload\n    /* \"contracts/SupplyChain.sol\":2002:2021  contractInformation */\n  0x04\n    /* \"contracts/SupplyChain.sol\":2022:2027  _keys */\n  dup7\n    /* \"contracts/SupplyChain.sol\":2028:2029  i */\n  dup4\n    /* \"contracts/SupplyChain.sol\":2022:2030  _keys[i] */\n  0xff\n  and\n  dup2\n  mload\n  dup2\n  lt\n  tag_24\n  jumpi\n  tag_25\n  tag_13\n  jump\t// in\ntag_25:\ntag_24:\n  0x20\n  mul\n  0x20\n  add\n  add\n  mload\n    /* \"contracts/SupplyChain.sol\":2002:2031  contractInformation[_keys[i]] */\n  mload(0x40)\n  tag_26\n  swap2\n  swap1\n  tag_27\n  jump\t// in\ntag_26:\n  swap1\n  dup2\n  mstore\n  0x20\n  add\n  mload(0x40)\n  dup1\n  swap2\n  sub\n  swap1\n  keccak256\n    /* \"contracts/SupplyChain.sol\":2002:2044  contractInformation[_keys[i]] = _values[i] */\n  swap1\n  dup2\n  tag_28\n  swap2\n  swap1\n  tag_29\n  jump\t// in\ntag_28:\n  pop\n    /* \"contracts/SupplyChain.sol\":2053:2076  contractInformationKeys */\n  0x05\n    /* \"contracts/SupplyChain.sol\":2082:2087  _keys */\n  dup6\n    /* \"contracts/SupplyChain.sol\":2088:2089  i */\n  dup3\n    /* \"contracts/SupplyChain.sol\":2082:2090  _keys[i] */\n  0xff\n  and\n  dup2\n  mload\n  dup2\n  lt\n  tag_30\n  jumpi\n  tag_31\n  tag_13\n  jump\t// in\ntag_31:\ntag_30:\n  0x20\n  mul\n  0x20\n  add\n  add\n  mload\n    /* \"contracts/SupplyChain.sol\":2053:2091  contractInformationKeys.push(_keys[i]) */\n  swap1\n  dup1\n  0x01\n  dup2\n  sload\n  add\n  dup1\n  dup3\n  sstore\n  dup1\n  swap2\n  pop\n  pop\n  0x01\n  swap1\n  sub\n  swap1\n  0x00\n  mstore\n  keccak256(0x00, 0x20)\n  add\n  0x00\n  swap1\n  swap2\n  swap1\n  swap2\n  swap1\n  swap2\n  pop\n  swap1\n  dup2\n  tag_33\n  swap2\n  swap1\n  tag_34\n  jump\t// in\ntag_33:\n  pop\n    /* \"contracts/SupplyChain.sol\":1988:1991  i++ */\n  dup1\n  dup1\n  tag_35\n  swap1\n  tag_18\n  jump\t// in\ntag_35:\n  swap2\n  pop\n  pop\n    /* \"contracts/SupplyChain.sol\":1952:2099  for (uint8 i = 0; i < _keys.length; i++) {... */\n  jump(tag_19)\ntag_20:\n  pop\n    /* \"contracts/SupplyChain.sol\":2110:2117  uint8 i */\n  0x00\n    /* \"contracts/SupplyChain.sol\":2105:2247  for (uint8 i = 0; i < _stages.length; i++) {... */\ntag_36:\n    /* \"contracts/SupplyChain.sol\":2127:2134  _stages */\n  dup2\n    /* \"contracts/SupplyChain.sol\":2127:2141  _stages.length */\n  mload\n    /* \"contracts/SupplyChain.sol\":2123:2124  i */\n  dup2\n    /* \"contracts/SupplyChain.sol\":2123:2141  i < _stages.length */\n  0xff\n  and\n  lt\n    /* \"contracts/SupplyChain.sol\":2105:2247  for (uint8 i = 0; i < _stages.length; i++) {... */\n  iszero\n  tag_37\n  jumpi\n    /* \"contracts/SupplyChain.sol\":2157:2163  stages */\n  0x07\n    /* \"contracts/SupplyChain.sol\":2169:2238  Stage(_stages[i].percent, _stages[i].deliveryAt, false, false, false) */\n  mload(0x40)\n  dup1\n  0xa0\n  add\n  0x40\n  mstore\n  dup1\n    /* \"contracts/SupplyChain.sol\":2175:2182  _stages */\n  dup5\n    /* \"contracts/SupplyChain.sol\":2183:2184  i */\n  dup5\n    /* \"contracts/SupplyChain.sol\":2175:2185  _stages[i] */\n  0xff\n  and\n  dup2\n  mload\n  dup2\n  lt\n  tag_39\n  jumpi\n  tag_40\n  tag_13\n  jump\t// in\ntag_40:\ntag_39:\n  0x20\n  mul\n  0x20\n  add\n  add\n  mload\n    /* \"contracts/SupplyChain.sol\":2175:2193  _stages[i].percent */\n  0x00\n  add\n  mload\n    /* \"contracts/SupplyChain.sol\":2169:2238  Stage(_stages[i].percent, _stages[i].deliveryAt, false, false, false) */\n  dup2\n  mstore\n  0x20\n  add\n    /* \"contracts/SupplyChain.sol\":2195:2202  _stages */\n  dup5\n    /* \"contracts/SupplyChain.sol\":2203:2204  i */\n  dup5\n    /* \"contracts/SupplyChain.sol\":2195:2205  _stages[i] */\n  0xff\n  and\n  dup2\n  mload\n  dup2\n  lt\n  tag_41\n  jumpi\n  tag_42\n  tag_13\n  jump\t// in\ntag_42:\ntag_41:\n  0x20\n  mul\n  0x20\n  add\n  add\n  mload\n    /* \"contracts/SupplyChain.sol\":2195:2216  _stages[i].deliveryAt */\n  0x20\n  add\n  mload\n    /* \"contracts/SupplyChain.sol\":2169:2238  Stage(_stages[i].percent, _stages[i].deliveryAt, false, false, false) */\n  dup2\n  mstore\n  0x20\n  add\n    /* \"contracts/SupplyChain.sol\":2218:2223  false */\n  0x00\n    /* \"contracts/SupplyChain.sol\":2169:2238  Stage(_stages[i].percent, _stages[i].deliveryAt, false, false, false) */\n  iszero\n  iszero\n  dup2\n  mstore\n  0x20\n  add\n    /* \"contracts/SupplyChain.sol\":2225:2230  false */\n  0x00\n    /* \"contracts/SupplyChain.sol\":2169:2238  Stage(_stages[i].percent, _stages[i].deliveryAt, false, false, false) */\n  iszero\n  iszero\n  dup2\n  mstore\n  0x20\n  add\n    /* \"contracts/SupplyChain.sol\":2232:2237  false */\n  0x00\n    /* \"contracts/SupplyChain.sol\":2169:2238  Stage(_stages[i].percent, _stages[i].deliveryAt, false, false, false) */\n  iszero\n  iszero\n  dup2\n  mstore\n  pop\n    /* \"contracts/SupplyChain.sol\":2157:2239  stages.push(Stage(_stages[i].percent, _stages[i].deliveryAt, false, false, false)) */\n  swap1\n  dup1\n  0x01\n  dup2\n  sload\n  add\n  dup1\n  dup3\n  sstore\n  dup1\n  swap2\n  pop\n  pop\n  0x01\n  swap1\n  sub\n  swap1\n  0x00\n  mstore\n  keccak256(0x00, 0x20)\n  swap1\n  0x03\n  mul\n  add\n  0x00\n  swap1\n  swap2\n  swap1\n  swap2\n  swap1\n  swap2\n  pop\n  0x00\n  dup3\n  add\n  mload\n  dup2\n  0x00\n  add\n  sstore\n  0x20\n  dup3\n  add\n  mload\n  dup2\n  0x01\n  add\n  sstore\n  0x40\n  dup3\n  add\n  mload\n  dup2\n  0x02\n  add\n  exp(0x0100, 0x00)\n  dup2\n  sload\n  dup2\n  0xff\n  mul\n  not\n  and\n  swap1\n  dup4\n  iszero\n  iszero\n  mul\n  or\n  swap1\n  sstore\n  pop\n  0x60\n  dup3\n  add\n  mload\n  dup2\n  0x02\n  add\n  exp(0x0100, 0x01)\n  dup2\n  sload\n  dup2\n  0xff\n  mul\n  not\n  and\n  swap1\n  dup4\n  iszero\n  iszero\n  mul\n  or\n  swap1\n  sstore\n  pop\n  0x80\n  dup3\n  add\n  mload\n  dup2\n  0x02\n  add\n  exp(0x0100, 0x02)\n  dup2\n  sload\n  dup2\n  0xff\n  mul\n  not\n  and\n  swap1\n  dup4\n  iszero\n  iszero\n  mul\n  or\n  swap1\n  sstore\n  pop\n  pop\n  pop\n    /* \"contracts/SupplyChain.sol\":2143:2146  i++ */\n  dup1\n  dup1\n  tag_44\n  swap1\n  tag_18\n  jump\t// in\ntag_44:\n  swap2\n  pop\n  pop\n    /* \"contracts/SupplyChain.sol\":2105:2247  for (uint8 i = 0; i < _stages.length; i++) {... */\n  jump(tag_36)\ntag_37:\n  pop\n    /* \"contracts/SupplyChain.sol\":2260:2353  contractCreated(owner, users, supplier, totalBalance, address(this).balance, block.timestamp) */\n  0x68e8e16725ae304c7b00b773ba80b94a2ea18bebc9d7cc7ade4f8c4980649ae1\n    /* \"contracts/SupplyChain.sol\":2276:2281  owner */\n  0x00\n  dup1\n  sload\n  swap1\n  0x0100\n  exp\n  swap1\n  div\n  0xffffffffffffffffffffffffffffffffffffffff\n  and\n    /* \"contracts/SupplyChain.sol\":2283:2288  users */\n  0x01\n    /* \"contracts/SupplyChain.sol\":2290:2298  supplier */\n  0x03\n  0x00\n  swap1\n  sload\n  swap1\n  0x0100\n  exp\n  swap1\n  div\n  0xffffffffffffffffffffffffffffffffffffffff\n  and\n    /* \"contracts/SupplyChain.sol\":2300:2312  totalBalance */\n  sload(0x06)\n    /* \"contracts/SupplyChain.sol\":2314:2335  address(this).balance */\n  selfbalance\n    /* \"contracts/SupplyChain.sol\":2337:2352  block.timestamp */\n  timestamp\n    /* \"contracts/SupplyChain.sol\":2260:2353  contractCreated(owner, users, supplier, totalBalance, address(this).balance, block.timestamp) */\n  mload(0x40)\n  tag_45\n  swap7\n  swap6\n  swap5\n  swap4\n  swap3\n  swap2\n  swap1\n  tag_46\n  jump\t// in\ntag_45:\n  mload(0x40)\n  dup1\n  swap2\n  sub\n  swap1\n  log1\n    /* \"contracts/SupplyChain.sol\":1564:2359  constructor(... */\n  pop\n  pop\n  pop\n  pop\n  pop\n  pop\n    /* \"contracts/SupplyChain.sol\":61:6670  contract SupplyChain {... */\n  jump(tag_47)\n    /* \"#utility.yul\":7:82   */\ntag_48:\n    /* \"#utility.yul\":40:46   */\n  0x00\n    /* \"#utility.yul\":73:75   */\n  0x40\n    /* \"#utility.yul\":67:76   */\n  mload\n    /* \"#utility.yul\":57:76   */\n  swap1\n  pop\n    /* \"#utility.yul\":7:82   */\n  swap1\n  jump\t// out\n    /* \"#utility.yul\":88:205   */\ntag_49:\n    /* \"#utility.yul\":197:198   */\n  0x00\n    /* \"#utility.yul\":194:195   */\n  dup1\n    /* \"#utility.yul\":187:199   */\n  revert\n    /* \"#utility.yul\":211:328   */\ntag_50:\n    /* \"#utility.yul\":320:321   */\n  0x00\n    /* \"#utility.yul\":317:318   */\n  dup1\n    /* \"#utility.yul\":310:322   */\n  revert\n    /* \"#utility.yul\":334:451   */\ntag_51:\n    /* \"#utility.yul\":443:444   */\n  0x00\n    /* \"#utility.yul\":440:441   */\n  dup1\n    /* \"#utility.yul\":433:445   */\n  revert\n    /* \"#utility.yul\":457:559   */\ntag_52:\n    /* \"#utility.yul\":498:504   */\n  0x00\n    /* \"#utility.yul\":549:551   */\n  0x1f\n    /* \"#utility.yul\":545:552   */\n  not\n    /* \"#utility.yul\":540:542   */\n  0x1f\n    /* \"#utility.yul\":533:538   */\n  dup4\n    /* \"#utility.yul\":529:543   */\n  add\n    /* \"#utility.yul\":525:553   */\n  and\n    /* \"#utility.yul\":515:553   */\n  swap1\n  pop\n    /* \"#utility.yul\":457:559   */\n  swap2\n  swap1\n  pop\n  jump\t// out\n    /* \"#utility.yul\":565:745   */\ntag_53:\n    /* \"#utility.yul\":613:690   */\n  0x4e487b7100000000000000000000000000000000000000000000000000000000\n    /* \"#utility.yul\":610:611   */\n  0x00\n    /* \"#utility.yul\":603:691   */\n  mstore\n    /* \"#utility.yul\":710:714   */\n  0x41\n    /* \"#utility.yul\":707:708   */\n  0x04\n    /* \"#utility.yul\":700:715   */\n  mstore\n    /* \"#utility.yul\":734:738   */\n  0x24\n    /* \"#utility.yul\":731:732   */\n  0x00\n    /* \"#utility.yul\":724:739   */\n  revert\n    /* \"#utility.yul\":751:1032   */\ntag_54:\n    /* \"#utility.yul\":834:861   */\n  tag_133\n    /* \"#utility.yul\":856:860   */\n  dup3\n    /* \"#utility.yul\":834:861   */\n  tag_52\n  jump\t// in\ntag_133:\n    /* \"#utility.yul\":826:832   */\n  dup2\n    /* \"#utility.yul\":822:862   */\n  add\n    /* \"#utility.yul\":964:970   */\n  dup2\n    /* \"#utility.yul\":952:962   */\n  dup2\n    /* \"#utility.yul\":949:971   */\n  lt\n    /* \"#utility.yul\":928:946   */\n  0xffffffffffffffff\n    /* \"#utility.yul\":916:926   */\n  dup3\n    /* \"#utility.yul\":913:947   */\n  gt\n    /* \"#utility.yul\":910:972   */\n  or\n    /* \"#utility.yul\":907:995   */\n  iszero\n  tag_134\n  jumpi\n    /* \"#utility.yul\":975:993   */\n  tag_135\n  tag_53\n  jump\t// in\ntag_135:\n    /* \"#utility.yul\":907:995   */\ntag_134:\n    /* \"#utility.yul\":1015:1025   */\n  dup1\n    /* \"#utility.yul\":1011:1013   */\n  0x40\n    /* \"#utility.yul\":1004:1026   */\n  mstore\n    /* \"#utility.yul\":794:1032   */\n  pop\n    /* \"#utility.yul\":751:1032   */\n  pop\n  pop\n  jump\t// out\n    /* \"#utility.yul\":1038:1167   */\ntag_55:\n    /* \"#utility.yul\":1072:1078   */\n  0x00\n    /* \"#utility.yul\":1099:1119   */\n  tag_137\n  tag_48\n  jump\t// in\ntag_137:\n    /* \"#utility.yul\":1089:1119   */\n  swap1\n  pop\n    /* \"#utility.yul\":1128:1161   */\n  tag_138\n    /* \"#utility.yul\":1156:1160   */\n  dup3\n    /* \"#utility.yul\":1148:1154   */\n  dup3\n    /* \"#utility.yul\":1128:1161   */\n  tag_54\n  jump\t// in\ntag_138:\n    /* \"#utility.yul\":1038:1167   */\n  swap2\n  swap1\n  pop\n  jump\t// out\n    /* \"#utility.yul\":1173:1484   */\ntag_56:\n    /* \"#utility.yul\":1250:1254   */\n  0x00\n    /* \"#utility.yul\":1340:1358   */\n  0xffffffffffffffff\n    /* \"#utility.yul\":1332:1338   */\n  dup3\n    /* \"#utility.yul\":1329:1359   */\n  gt\n    /* \"#utility.yul\":1326:1382   */\n  iszero\n  tag_140\n  jumpi\n    /* \"#utility.yul\":1362:1380   */\n  tag_141\n  tag_53\n  jump\t// in\ntag_141:\n    /* \"#utility.yul\":1326:1382   */\ntag_140:\n    /* \"#utility.yul\":1412:1416   */\n  0x20\n    /* \"#utility.yul\":1404:1410   */\n  dup3\n    /* \"#utility.yul\":1400:1417   */\n  mul\n    /* \"#utility.yul\":1392:1417   */\n  swap1\n  pop\n    /* \"#utility.yul\":1472:1476   */\n  0x20\n    /* \"#utility.yul\":1466:1470   */\n  dup2\n    /* \"#utility.yul\":1462:1477   */\n  add\n    /* \"#utility.yul\":1454:1477   */\n  swap1\n  pop\n    /* \"#utility.yul\":1173:1484   */\n  swap2\n  swap1\n  pop\n  jump\t// out\n    /* \"#utility.yul\":1490:1607   */\ntag_57:\n    /* \"#utility.yul\":1599:1600   */\n  0x00\n    /* \"#utility.yul\":1596:1597   */\n  dup1\n    /* \"#utility.yul\":1589:1601   */\n  revert\n    /* \"#utility.yul\":1613:1739   */\ntag_58:\n    /* \"#utility.yul\":1650:1657   */\n  0x00\n    /* \"#utility.yul\":1690:1732   */\n  0xffffffffffffffffffffffffffffffffffffffff\n    /* \"#utility.yul\":1683:1688   */\n  dup3\n    /* \"#utility.yul\":1679:1733   */\n  and\n    /* \"#utility.yul\":1668:1733   */\n  swap1\n  pop\n    /* \"#utility.yul\":1613:1739   */\n  swap2\n  swap1\n  pop\n  jump\t// out\n    /* \"#utility.yul\":1745:1841   */\ntag_59:\n    /* \"#utility.yul\":1782:1789   */\n  0x00\n    /* \"#utility.yul\":1811:1835   */\n  tag_145\n    /* \"#utility.yul\":1829:1834   */\n  dup3\n    /* \"#utility.yul\":1811:1835   */\n  tag_58\n  jump\t// in\ntag_145:\n    /* \"#utility.yul\":1800:1835   */\n  swap1\n  pop\n    /* \"#utility.yul\":1745:1841   */\n  swap2\n  swap1\n  pop\n  jump\t// out\n    /* \"#utility.yul\":1847:1969   */\ntag_60:\n    /* \"#utility.yul\":1920:1944   */\n  tag_147\n    /* \"#utility.yul\":1938:1943   */\n  dup2\n    /* \"#utility.yul\":1920:1944   */\n  tag_59\n  jump\t// in\ntag_147:\n    /* \"#utility.yul\":1913:1918   */\n  dup2\n    /* \"#utility.yul\":1910:1945   */\n  eq\n    /* \"#utility.yul\":1900:1963   */\n  tag_148\n  jumpi\n    /* \"#utility.yul\":1959:1960   */\n  0x00\n    /* \"#utility.yul\":1956:1957   */\n  dup1\n    /* \"#utility.yul\":1949:1961   */\n  revert\n    /* \"#utility.yul\":1900:1963   */\ntag_148:\n    /* \"#utility.yul\":1847:1969   */\n  pop\n  jump\t// out\n    /* \"#utility.yul\":1975:2118   */\ntag_61:\n    /* \"#utility.yul\":2032:2037   */\n  0x00\n    /* \"#utility.yul\":2063:2069   */\n  dup2\n    /* \"#utility.yul\":2057:2070   */\n  mload\n    /* \"#utility.yul\":2048:2070   */\n  swap1\n  pop\n    /* \"#utility.yul\":2079:2112   */\n  tag_150\n    /* \"#utility.yul\":2106:2111   */\n  dup2\n    /* \"#utility.yul\":2079:2112   */\n  tag_60\n  jump\t// in\ntag_150:\n    /* \"#utility.yul\":1975:2118   */\n  swap3\n  swap2\n  pop\n  pop\n  jump\t// out\n    /* \"#utility.yul\":2141:2873   */\ntag_62:\n    /* \"#utility.yul\":2248:2253   */\n  0x00\n    /* \"#utility.yul\":2273:2354   */\n  tag_152\n    /* \"#utility.yul\":2289:2353   */\n  tag_153\n    /* \"#utility.yul\":2346:2352   */\n  dup5\n    /* \"#utility.yul\":2289:2353   */\n  tag_56\n  jump\t// in\ntag_153:\n    /* \"#utility.yul\":2273:2354   */\n  tag_55\n  jump\t// in\ntag_152:\n    /* \"#utility.yul\":2264:2354   */\n  swap1\n  pop\n    /* \"#utility.yul\":2374:2379   */\n  dup1\n    /* \"#utility.yul\":2403:2409   */\n  dup4\n    /* \"#utility.yul\":2396:2401   */\n  dup3\n    /* \"#utility.yul\":2389:2410   */\n  mstore\n    /* \"#utility.yul\":2437:2441   */\n  0x20\n    /* \"#utility.yul\":2430:2435   */\n  dup3\n    /* \"#utility.yul\":2426:2442   */\n  add\n    /* \"#utility.yul\":2419:2442   */\n  swap1\n  pop\n    /* \"#utility.yul\":2490:2494   */\n  0x20\n    /* \"#utility.yul\":2482:2488   */\n  dup5\n    /* \"#utility.yul\":2478:2495   */\n  mul\n    /* \"#utility.yul\":2470:2476   */\n  dup4\n    /* \"#utility.yul\":2466:2496   */\n  add\n    /* \"#utility.yul\":2519:2522   */\n  dup6\n    /* \"#utility.yul\":2511:2517   */\n  dup2\n    /* \"#utility.yul\":2508:2523   */\n  gt\n    /* \"#utility.yul\":2505:2627   */\n  iszero\n  tag_154\n  jumpi\n    /* \"#utility.yul\":2538:2617   */\n  tag_155\n  tag_57\n  jump\t// in\ntag_155:\n    /* \"#utility.yul\":2505:2627   */\ntag_154:\n    /* \"#utility.yul\":2653:2659   */\n  dup4\n    /* \"#utility.yul\":2636:2867   */\ntag_156:\n    /* \"#utility.yul\":2670:2676   */\n  dup2\n    /* \"#utility.yul\":2665:2668   */\n  dup2\n    /* \"#utility.yul\":2662:2677   */\n  lt\n    /* \"#utility.yul\":2636:2867   */\n  iszero\n  tag_158\n  jumpi\n    /* \"#utility.yul\":2745:2748   */\n  dup1\n    /* \"#utility.yul\":2774:2822   */\n  tag_159\n    /* \"#utility.yul\":2818:2821   */\n  dup9\n    /* \"#utility.yul\":2806:2816   */\n  dup3\n    /* \"#utility.yul\":2774:2822   */\n  tag_61\n  jump\t// in\ntag_159:\n    /* \"#utility.yul\":2769:2772   */\n  dup5\n    /* \"#utility.yul\":2762:2823   */\n  mstore\n    /* \"#utility.yul\":2852:2856   */\n  0x20\n    /* \"#utility.yul\":2847:2850   */\n  dup5\n    /* \"#utility.yul\":2843:2857   */\n  add\n    /* \"#utility.yul\":2836:2857   */\n  swap4\n  pop\n    /* \"#utility.yul\":2712:2867   */\n  pop\n    /* \"#utility.yul\":2696:2700   */\n  0x20\n    /* \"#utility.yul\":2691:2694   */\n  dup2\n    /* \"#utility.yul\":2687:2701   */\n  add\n    /* \"#utility.yul\":2680:2701   */\n  swap1\n  pop\n    /* \"#utility.yul\":2636:2867   */\n  jump(tag_156)\ntag_158:\n    /* \"#utility.yul\":2640:2661   */\n  pop\n    /* \"#utility.yul\":2254:2873   */\n  pop\n  pop\n    /* \"#utility.yul\":2141:2873   */\n  swap4\n  swap3\n  pop\n  pop\n  pop\n  jump\t// out\n    /* \"#utility.yul\":2896:3281   */\ntag_63:\n    /* \"#utility.yul\":2978:2983   */\n  0x00\n    /* \"#utility.yul\":3027:3030   */\n  dup3\n    /* \"#utility.yul\":3020:3024   */\n  0x1f\n    /* \"#utility.yul\":3012:3018   */\n  dup4\n    /* \"#utility.yul\":3008:3025   */\n  add\n    /* \"#utility.yul\":3004:3031   */\n  slt\n    /* \"#utility.yul\":2994:3116   */\n  tag_161\n  jumpi\n    /* \"#utility.yul\":3035:3114   */\n  tag_162\n  tag_51\n  jump\t// in\ntag_162:\n    /* \"#utility.yul\":2994:3116   */\ntag_161:\n    /* \"#utility.yul\":3145:3151   */\n  dup2\n    /* \"#utility.yul\":3139:3152   */\n  mload\n    /* \"#utility.yul\":3170:3275   */\n  tag_163\n    /* \"#utility.yul\":3271:3274   */\n  dup5\n    /* \"#utility.yul\":3263:3269   */\n  dup3\n    /* \"#utility.yul\":3256:3260   */\n  0x20\n    /* \"#utility.yul\":3248:3254   */\n  dup7\n    /* \"#utility.yul\":3244:3261   */\n  add\n    /* \"#utility.yul\":3170:3275   */\n  tag_62\n  jump\t// in\ntag_163:\n    /* \"#utility.yul\":3161:3275   */\n  swap2\n  pop\n    /* \"#utility.yul\":2984:3281   */\n  pop\n    /* \"#utility.yul\":2896:3281   */\n  swap3\n  swap2\n  pop\n  pop\n  jump\t// out\n    /* \"#utility.yul\":3287:3608   */\ntag_64:\n    /* \"#utility.yul\":3374:3378   */\n  0x00\n    /* \"#utility.yul\":3464:3482   */\n  0xffffffffffffffff\n    /* \"#utility.yul\":3456:3462   */\n  dup3\n    /* \"#utility.yul\":3453:3483   */\n  gt\n    /* \"#utility.yul\":3450:3506   */\n  iszero\n  tag_165\n  jumpi\n    /* \"#utility.yul\":3486:3504   */\n  tag_166\n  tag_53\n  jump\t// in\ntag_166:\n    /* \"#utility.yul\":3450:3506   */\ntag_165:\n    /* \"#utility.yul\":3536:3540   */\n  0x20\n    /* \"#utility.yul\":3528:3534   */\n  dup3\n    /* \"#utility.yul\":3524:3541   */\n  mul\n    /* \"#utility.yul\":3516:3541   */\n  swap1\n  pop\n    /* \"#utility.yul\":3596:3600   */\n  0x20\n    /* \"#utility.yul\":3590:3594   */\n  dup2\n    /* \"#utility.yul\":3586:3601   */\n  add\n    /* \"#utility.yul\":3578:3601   */\n  swap1\n  pop\n    /* \"#utility.yul\":3287:3608   */\n  swap2\n  swap1\n  pop\n  jump\t// out\n    /* \"#utility.yul\":3614:3731   */\ntag_65:\n    /* \"#utility.yul\":3723:3724   */\n  0x00\n    /* \"#utility.yul\":3720:3721   */\n  dup1\n    /* \"#utility.yul\":3713:3725   */\n  revert\n    /* \"#utility.yul\":3737:4045   */\ntag_66:\n    /* \"#utility.yul\":3799:3803   */\n  0x00\n    /* \"#utility.yul\":3889:3907   */\n  0xffffffffffffffff\n    /* \"#utility.yul\":3881:3887   */\n  dup3\n    /* \"#utility.yul\":3878:3908   */\n  gt\n    /* \"#utility.yul\":3875:3931   */\n  iszero\n  tag_169\n  jumpi\n    /* \"#utility.yul\":3911:3929   */\n  tag_170\n  tag_53\n  jump\t// in\ntag_170:\n    /* \"#utility.yul\":3875:3931   */\ntag_169:\n    /* \"#utility.yul\":3949:3978   */\n  tag_171\n    /* \"#utility.yul\":3971:3977   */\n  dup3\n    /* \"#utility.yul\":3949:3978   */\n  tag_52\n  jump\t// in\ntag_171:\n    /* \"#utility.yul\":3941:3978   */\n  swap1\n  pop\n    /* \"#utility.yul\":4033:4037   */\n  0x20\n    /* \"#utility.yul\":4027:4031   */\n  dup2\n    /* \"#utility.yul\":4023:4038   */\n  add\n    /* \"#utility.yul\":4015:4038   */\n  swap1\n  pop\n    /* \"#utility.yul\":3737:4045   */\n  swap2\n  swap1\n  pop\n  jump\t// out\n    /* \"#utility.yul\":4051:4190   */\ntag_67:\n    /* \"#utility.yul\":4140:4146   */\n  dup3\n    /* \"#utility.yul\":4135:4138   */\n  dup2\n    /* \"#utility.yul\":4130:4133   */\n  dup4\n    /* \"#utility.yul\":4124:4147   */\n  mcopy\n    /* \"#utility.yul\":4181:4182   */\n  0x00\n    /* \"#utility.yul\":4172:4178   */\n  dup4\n    /* \"#utility.yul\":4167:4170   */\n  dup4\n    /* \"#utility.yul\":4163:4179   */\n  add\n    /* \"#utility.yul\":4156:4183   */\n  mstore\n    /* \"#utility.yul\":4051:4190   */\n  pop\n  pop\n  pop\n  jump\t// out\n    /* \"#utility.yul\":4196:4630   */\ntag_68:\n    /* \"#utility.yul\":4285:4290   */\n  0x00\n    /* \"#utility.yul\":4310:4376   */\n  tag_174\n    /* \"#utility.yul\":4326:4375   */\n  tag_175\n    /* \"#utility.yul\":4368:4374   */\n  dup5\n    /* \"#utility.yul\":4326:4375   */\n  tag_66\n  jump\t// in\ntag_175:\n    /* \"#utility.yul\":4310:4376   */\n  tag_55\n  jump\t// in\ntag_174:\n    /* \"#utility.yul\":4301:4376   */\n  swap1\n  pop\n    /* \"#utility.yul\":4399:4405   */\n  dup3\n    /* \"#utility.yul\":4392:4397   */\n  dup2\n    /* \"#utility.yul\":4385:4406   */\n  mstore\n    /* \"#utility.yul\":4437:4441   */\n  0x20\n    /* \"#utility.yul\":4430:4435   */\n  dup2\n    /* \"#utility.yul\":4426:4442   */\n  add\n    /* \"#utility.yul\":4475:4478   */\n  dup5\n    /* \"#utility.yul\":4466:4472   */\n  dup5\n    /* \"#utility.yul\":4461:4464   */\n  dup5\n    /* \"#utility.yul\":4457:4473   */\n  add\n    /* \"#utility.yul\":4454:4479   */\n  gt\n    /* \"#utility.yul\":4451:4563   */\n  iszero\n  tag_176\n  jumpi\n    /* \"#utility.yul\":4482:4561   */\n  tag_177\n  tag_65\n  jump\t// in\ntag_177:\n    /* \"#utility.yul\":4451:4563   */\ntag_176:\n    /* \"#utility.yul\":4572:4624   */\n  tag_178\n    /* \"#utility.yul\":4617:4623   */\n  dup5\n    /* \"#utility.yul\":4612:4615   */\n  dup3\n    /* \"#utility.yul\":4607:4610   */\n  dup6\n    /* \"#utility.yul\":4572:4624   */\n  tag_67\n  jump\t// in\ntag_178:\n    /* \"#utility.yul\":4291:4630   */\n  pop\n    /* \"#utility.yul\":4196:4630   */\n  swap4\n  swap3\n  pop\n  pop\n  pop\n  jump\t// out\n    /* \"#utility.yul\":4650:5005   */\ntag_69:\n    /* \"#utility.yul\":4717:4722   */\n  0x00\n    /* \"#utility.yul\":4766:4769   */\n  dup3\n    /* \"#utility.yul\":4759:4763   */\n  0x1f\n    /* \"#utility.yul\":4751:4757   */\n  dup4\n    /* \"#utility.yul\":4747:4764   */\n  add\n    /* \"#utility.yul\":4743:4770   */\n  slt\n    /* \"#utility.yul\":4733:4855   */\n  tag_180\n  jumpi\n    /* \"#utility.yul\":4774:4853   */\n  tag_181\n  tag_51\n  jump\t// in\ntag_181:\n    /* \"#utility.yul\":4733:4855   */\ntag_180:\n    /* \"#utility.yul\":4884:4890   */\n  dup2\n    /* \"#utility.yul\":4878:4891   */\n  mload\n    /* \"#utility.yul\":4909:4999   */\n  tag_182\n    /* \"#utility.yul\":4995:4998   */\n  dup5\n    /* \"#utility.yul\":4987:4993   */\n  dup3\n    /* \"#utility.yul\":4980:4984   */\n  0x20\n    /* \"#utility.yul\":4972:4978   */\n  dup7\n    /* \"#utility.yul\":4968:4985   */\n  add\n    /* \"#utility.yul\":4909:4999   */\n  tag_68\n  jump\t// in\ntag_182:\n    /* \"#utility.yul\":4900:4999   */\n  swap2\n  pop\n    /* \"#utility.yul\":4723:5005   */\n  pop\n    /* \"#utility.yul\":4650:5005   */\n  swap3\n  swap2\n  pop\n  pop\n  jump\t// out\n    /* \"#utility.yul\":5027:5987   */\ntag_70:\n    /* \"#utility.yul\":5144:5149   */\n  0x00\n    /* \"#utility.yul\":5169:5260   */\n  tag_184\n    /* \"#utility.yul\":5185:5259   */\n  tag_185\n    /* \"#utility.yul\":5252:5258   */\n  dup5\n    /* \"#utility.yul\":5185:5259   */\n  tag_64\n  jump\t// in\ntag_185:\n    /* \"#utility.yul\":5169:5260   */\n  tag_55\n  jump\t// in\ntag_184:\n    /* \"#utility.yul\":5160:5260   */\n  swap1\n  pop\n    /* \"#utility.yul\":5280:5285   */\n  dup1\n    /* \"#utility.yul\":5309:5315   */\n  dup4\n    /* \"#utility.yul\":5302:5307   */\n  dup3\n    /* \"#utility.yul\":5295:5316   */\n  mstore\n    /* \"#utility.yul\":5343:5347   */\n  0x20\n    /* \"#utility.yul\":5336:5341   */\n  dup3\n    /* \"#utility.yul\":5332:5348   */\n  add\n    /* \"#utility.yul\":5325:5348   */\n  swap1\n  pop\n    /* \"#utility.yul\":5396:5400   */\n  0x20\n    /* \"#utility.yul\":5388:5394   */\n  dup5\n    /* \"#utility.yul\":5384:5401   */\n  mul\n    /* \"#utility.yul\":5376:5382   */\n  dup4\n    /* \"#utility.yul\":5372:5402   */\n  add\n    /* \"#utility.yul\":5425:5428   */\n  dup6\n    /* \"#utility.yul\":5417:5423   */\n  dup2\n    /* \"#utility.yul\":5414:5429   */\n  gt\n    /* \"#utility.yul\":5411:5533   */\n  iszero\n  tag_186\n  jumpi\n    /* \"#utility.yul\":5444:5523   */\n  tag_187\n  tag_57\n  jump\t// in\ntag_187:\n    /* \"#utility.yul\":5411:5533   */\ntag_186:\n    /* \"#utility.yul\":5559:5565   */\n  dup4\n    /* \"#utility.yul\":5542:5981   */\ntag_188:\n    /* \"#utility.yul\":5576:5582   */\n  dup2\n    /* \"#utility.yul\":5571:5574   */\n  dup2\n    /* \"#utility.yul\":5568:5583   */\n  lt\n    /* \"#utility.yul\":5542:5981   */\n  iszero\n  tag_190\n  jumpi\n    /* \"#utility.yul\":5658:5661   */\n  dup1\n    /* \"#utility.yul\":5652:5662   */\n  mload\n    /* \"#utility.yul\":5694:5712   */\n  0xffffffffffffffff\n    /* \"#utility.yul\":5681:5692   */\n  dup2\n    /* \"#utility.yul\":5678:5713   */\n  gt\n    /* \"#utility.yul\":5675:5797   */\n  iszero\n  tag_191\n  jumpi\n    /* \"#utility.yul\":5716:5795   */\n  tag_192\n  tag_51\n  jump\t// in\ntag_192:\n    /* \"#utility.yul\":5675:5797   */\ntag_191:\n    /* \"#utility.yul\":5840:5851   */\n  dup1\n    /* \"#utility.yul\":5832:5838   */\n  dup7\n    /* \"#utility.yul\":5828:5852   */\n  add\n    /* \"#utility.yul\":5878:5936   */\n  tag_193\n    /* \"#utility.yul\":5932:5935   */\n  dup10\n    /* \"#utility.yul\":5920:5930   */\n  dup3\n    /* \"#utility.yul\":5878:5936   */\n  tag_69\n  jump\t// in\ntag_193:\n    /* \"#utility.yul\":5873:5876   */\n  dup6\n    /* \"#utility.yul\":5866:5937   */\n  mstore\n    /* \"#utility.yul\":5966:5970   */\n  0x20\n    /* \"#utility.yul\":5961:5964   */\n  dup6\n    /* \"#utility.yul\":5957:5971   */\n  add\n    /* \"#utility.yul\":5950:5971   */\n  swap5\n  pop\n    /* \"#utility.yul\":5618:5981   */\n  pop\n  pop\n    /* \"#utility.yul\":5602:5606   */\n  0x20\n    /* \"#utility.yul\":5597:5600   */\n  dup2\n    /* \"#utility.yul\":5593:5607   */\n  add\n    /* \"#utility.yul\":5586:5607   */\n  swap1\n  pop\n    /* \"#utility.yul\":5542:5981   */\n  jump(tag_188)\ntag_190:\n    /* \"#utility.yul\":5546:5567   */\n  pop\n    /* \"#utility.yul\":5150:5987   */\n  pop\n  pop\n    /* \"#utility.yul\":5027:5987   */\n  swap4\n  swap3\n  pop\n  pop\n  pop\n  jump\t// out\n    /* \"#utility.yul\":6009:6414   */\ntag_71:\n    /* \"#utility.yul\":6101:6106   */\n  0x00\n    /* \"#utility.yul\":6150:6153   */\n  dup3\n    /* \"#utility.yul\":6143:6147   */\n  0x1f\n    /* \"#utility.yul\":6135:6141   */\n  dup4\n    /* \"#utility.yul\":6131:6148   */\n  add\n    /* \"#utility.yul\":6127:6154   */\n  slt\n    /* \"#utility.yul\":6117:6239   */\n  tag_195\n  jumpi\n    /* \"#utility.yul\":6158:6237   */\n  tag_196\n  tag_51\n  jump\t// in\ntag_196:\n    /* \"#utility.yul\":6117:6239   */\ntag_195:\n    /* \"#utility.yul\":6268:6274   */\n  dup2\n    /* \"#utility.yul\":6262:6275   */\n  mload\n    /* \"#utility.yul\":6293:6408   */\n  tag_197\n    /* \"#utility.yul\":6404:6407   */\n  dup5\n    /* \"#utility.yul\":6396:6402   */\n  dup3\n    /* \"#utility.yul\":6389:6393   */\n  0x20\n    /* \"#utility.yul\":6381:6387   */\n  dup7\n    /* \"#utility.yul\":6377:6394   */\n  add\n    /* \"#utility.yul\":6293:6408   */\n  tag_70\n  jump\t// in\ntag_197:\n    /* \"#utility.yul\":6284:6408   */\n  swap2\n  pop\n    /* \"#utility.yul\":6107:6414   */\n  pop\n    /* \"#utility.yul\":6009:6414   */\n  swap3\n  swap2\n  pop\n  pop\n  jump\t// out\n    /* \"#utility.yul\":6420:6740   */\ntag_72:\n    /* \"#utility.yul\":6506:6510   */\n  0x00\n    /* \"#utility.yul\":6596:6614   */\n  0xffffffffffffffff\n    /* \"#utility.yul\":6588:6594   */\n  dup3\n    /* \"#utility.yul\":6585:6615   */\n  gt\n    /* \"#utility.yul\":6582:6638   */\n  iszero\n  tag_199\n  jumpi\n    /* \"#utility.yul\":6618:6636   */\n  tag_200\n  tag_53\n  jump\t// in\ntag_200:\n    /* \"#utility.yul\":6582:6638   */\ntag_199:\n    /* \"#utility.yul\":6668:6672   */\n  0x20\n    /* \"#utility.yul\":6660:6666   */\n  dup3\n    /* \"#utility.yul\":6656:6673   */\n  mul\n    /* \"#utility.yul\":6648:6673   */\n  swap1\n  pop\n    /* \"#utility.yul\":6728:6732   */\n  0x20\n    /* \"#utility.yul\":6722:6726   */\n  dup2\n    /* \"#utility.yul\":6718:6733   */\n  add\n    /* \"#utility.yul\":6710:6733   */\n  swap1\n  pop\n    /* \"#utility.yul\":6420:6740   */\n  swap2\n  swap1\n  pop\n  jump\t// out\n    /* \"#utility.yul\":6746:7053   */\ntag_73:\n    /* \"#utility.yul\":6807:6811   */\n  0x00\n    /* \"#utility.yul\":6897:6915   */\n  0xffffffffffffffff\n    /* \"#utility.yul\":6889:6895   */\n  dup3\n    /* \"#utility.yul\":6886:6916   */\n  gt\n    /* \"#utility.yul\":6883:6939   */\n  iszero\n  tag_202\n  jumpi\n    /* \"#utility.yul\":6919:6937   */\n  tag_203\n  tag_53\n  jump\t// in\ntag_203:\n    /* \"#utility.yul\":6883:6939   */\ntag_202:\n    /* \"#utility.yul\":6957:6986   */\n  tag_204\n    /* \"#utility.yul\":6979:6985   */\n  dup3\n    /* \"#utility.yul\":6957:6986   */\n  tag_52\n  jump\t// in\ntag_204:\n    /* \"#utility.yul\":6949:6986   */\n  swap1\n  pop\n    /* \"#utility.yul\":7041:7045   */\n  0x20\n    /* \"#utility.yul\":7035:7039   */\n  dup2\n    /* \"#utility.yul\":7031:7046   */\n  add\n    /* \"#utility.yul\":7023:7046   */\n  swap1\n  pop\n    /* \"#utility.yul\":6746:7053   */\n  swap2\n  swap1\n  pop\n  jump\t// out\n    /* \"#utility.yul\":7059:7491   */\ntag_74:\n    /* \"#utility.yul\":7147:7152   */\n  0x00\n    /* \"#utility.yul\":7172:7237   */\n  tag_206\n    /* \"#utility.yul\":7188:7236   */\n  tag_207\n    /* \"#utility.yul\":7229:7235   */\n  dup5\n    /* \"#utility.yul\":7188:7236   */\n  tag_73\n  jump\t// in\ntag_207:\n    /* \"#utility.yul\":7172:7237   */\n  tag_55\n  jump\t// in\ntag_206:\n    /* \"#utility.yul\":7163:7237   */\n  swap1\n  pop\n    /* \"#utility.yul\":7260:7266   */\n  dup3\n    /* \"#utility.yul\":7253:7258   */\n  dup2\n    /* \"#utility.yul\":7246:7267   */\n  mstore\n    /* \"#utility.yul\":7298:7302   */\n  0x20\n    /* \"#utility.yul\":7291:7296   */\n  dup2\n    /* \"#utility.yul\":7287:7303   */\n  add\n    /* \"#utility.yul\":7336:7339   */\n  dup5\n    /* \"#utility.yul\":7327:7333   */\n  dup5\n    /* \"#utility.yul\":7322:7325   */\n  dup5\n    /* \"#utility.yul\":7318:7334   */\n  add\n    /* \"#utility.yul\":7315:7340   */\n  gt\n    /* \"#utility.yul\":7312:7424   */\n  iszero\n  tag_208\n  jumpi\n    /* \"#utility.yul\":7343:7422   */\n  tag_209\n  tag_65\n  jump\t// in\ntag_209:\n    /* \"#utility.yul\":7312:7424   */\ntag_208:\n    /* \"#utility.yul\":7433:7485   */\n  tag_210\n    /* \"#utility.yul\":7478:7484   */\n  dup5\n    /* \"#utility.yul\":7473:7476   */\n  dup3\n    /* \"#utility.yul\":7468:7471   */\n  dup6\n    /* \"#utility.yul\":7433:7485   */\n  tag_67\n  jump\t// in\ntag_210:\n    /* \"#utility.yul\":7153:7491   */\n  pop\n    /* \"#utility.yul\":7059:7491   */\n  swap4\n  swap3\n  pop\n  pop\n  pop\n  jump\t// out\n    /* \"#utility.yul\":7510:7863   */\ntag_75:\n    /* \"#utility.yul\":7576:7581   */\n  0x00\n    /* \"#utility.yul\":7625:7628   */\n  dup3\n    /* \"#utility.yul\":7618:7622   */\n  0x1f\n    /* \"#utility.yul\":7610:7616   */\n  dup4\n    /* \"#utility.yul\":7606:7623   */\n  add\n    /* \"#utility.yul\":7602:7629   */\n  slt\n    /* \"#utility.yul\":7592:7714   */\n  tag_212\n  jumpi\n    /* \"#utility.yul\":7633:7712   */\n  tag_213\n  tag_51\n  jump\t// in\ntag_213:\n    /* \"#utility.yul\":7592:7714   */\ntag_212:\n    /* \"#utility.yul\":7743:7749   */\n  dup2\n    /* \"#utility.yul\":7737:7750   */\n  mload\n    /* \"#utility.yul\":7768:7857   */\n  tag_214\n    /* \"#utility.yul\":7853:7856   */\n  dup5\n    /* \"#utility.yul\":7845:7851   */\n  dup3\n    /* \"#utility.yul\":7838:7842   */\n  0x20\n    /* \"#utility.yul\":7830:7836   */\n  dup7\n    /* \"#utility.yul\":7826:7843   */\n  add\n    /* \"#utility.yul\":7768:7857   */\n  tag_74\n  jump\t// in\ntag_214:\n    /* \"#utility.yul\":7759:7857   */\n  swap2\n  pop\n    /* \"#utility.yul\":7582:7863   */\n  pop\n    /* \"#utility.yul\":7510:7863   */\n  swap3\n  swap2\n  pop\n  pop\n  jump\t// out\n    /* \"#utility.yul\":7884:8841   */\ntag_76:\n    /* \"#utility.yul\":8000:8005   */\n  0x00\n    /* \"#utility.yul\":8025:8115   */\n  tag_216\n    /* \"#utility.yul\":8041:8114   */\n  tag_217\n    /* \"#utility.yul\":8107:8113   */\n  dup5\n    /* \"#utility.yul\":8041:8114   */\n  tag_72\n  jump\t// in\ntag_217:\n    /* \"#utility.yul\":8025:8115   */\n  tag_55\n  jump\t// in\ntag_216:\n    /* \"#utility.yul\":8016:8115   */\n  swap1\n  pop\n    /* \"#utility.yul\":8135:8140   */\n  dup1\n    /* \"#utility.yul\":8164:8170   */\n  dup4\n    /* \"#utility.yul\":8157:8162   */\n  dup3\n    /* \"#utility.yul\":8150:8171   */\n  mstore\n    /* \"#utility.yul\":8198:8202   */\n  0x20\n    /* \"#utility.yul\":8191:8196   */\n  dup3\n    /* \"#utility.yul\":8187:8203   */\n  add\n    /* \"#utility.yul\":8180:8203   */\n  swap1\n  pop\n    /* \"#utility.yul\":8251:8255   */\n  0x20\n    /* \"#utility.yul\":8243:8249   */\n  dup5\n    /* \"#utility.yul\":8239:8256   */\n  mul\n    /* \"#utility.yul\":8231:8237   */\n  dup4\n    /* \"#utility.yul\":8227:8257   */\n  add\n    /* \"#utility.yul\":8280:8283   */\n  dup6\n    /* \"#utility.yul\":8272:8278   */\n  dup2\n    /* \"#utility.yul\":8269:8284   */\n  gt\n    /* \"#utility.yul\":8266:8388   */\n  iszero\n  tag_218\n  jumpi\n    /* \"#utility.yul\":8299:8378   */\n  tag_219\n  tag_57\n  jump\t// in\ntag_219:\n    /* \"#utility.yul\":8266:8388   */\ntag_218:\n    /* \"#utility.yul\":8414:8420   */\n  dup4\n    /* \"#utility.yul\":8397:8835   */\ntag_220:\n    /* \"#utility.yul\":8431:8437   */\n  dup2\n    /* \"#utility.yul\":8426:8429   */\n  dup2\n    /* \"#utility.yul\":8423:8438   */\n  lt\n    /* \"#utility.yul\":8397:8835   */\n  iszero\n  tag_222\n  jumpi\n    /* \"#utility.yul\":8513:8516   */\n  dup1\n    /* \"#utility.yul\":8507:8517   */\n  mload\n    /* \"#utility.yul\":8549:8567   */\n  0xffffffffffffffff\n    /* \"#utility.yul\":8536:8547   */\n  dup2\n    /* \"#utility.yul\":8533:8568   */\n  gt\n    /* \"#utility.yul\":8530:8652   */\n  iszero\n  tag_223\n  jumpi\n    /* \"#utility.yul\":8571:8650   */\n  tag_224\n  tag_51\n  jump\t// in\ntag_224:\n    /* \"#utility.yul\":8530:8652   */\ntag_223:\n    /* \"#utility.yul\":8695:8706   */\n  dup1\n    /* \"#utility.yul\":8687:8693   */\n  dup7\n    /* \"#utility.yul\":8683:8707   */\n  add\n    /* \"#utility.yul\":8733:8790   */\n  tag_225\n    /* \"#utility.yul\":8786:8789   */\n  dup10\n    /* \"#utility.yul\":8774:8784   */\n  dup3\n    /* \"#utility.yul\":8733:8790   */\n  tag_75\n  jump\t// in\ntag_225:\n    /* \"#utility.yul\":8728:8731   */\n  dup6\n    /* \"#utility.yul\":8721:8791   */\n  mstore\n    /* \"#utility.yul\":8820:8824   */\n  0x20\n    /* \"#utility.yul\":8815:8818   */\n  dup6\n    /* \"#utility.yul\":8811:8825   */\n  add\n    /* \"#utility.yul\":8804:8825   */\n  swap5\n  pop\n    /* \"#utility.yul\":8473:8835   */\n  pop\n  pop\n    /* \"#utility.yul\":8457:8461   */\n  0x20\n    /* \"#utility.yul\":8452:8455   */\n  dup2\n    /* \"#utility.yul\":8448:8462   */\n  add\n    /* \"#utility.yul\":8441:8462   */\n  swap1\n  pop\n    /* \"#utility.yul\":8397:8835   */\n  jump(tag_220)\ntag_222:\n    /* \"#utility.yul\":8401:8422   */\n  pop\n    /* \"#utility.yul\":8006:8841   */\n  pop\n  pop\n    /* \"#utility.yul\":7884:8841   */\n  swap4\n  swap3\n  pop\n  pop\n  pop\n  jump\t// out\n    /* \"#utility.yul\":8862:9265   */\ntag_77:\n    /* \"#utility.yul\":8953:8958   */\n  0x00\n    /* \"#utility.yul\":9002:9005   */\n  dup3\n    /* \"#utility.yul\":8995:8999   */\n  0x1f\n    /* \"#utility.yul\":8987:8993   */\n  dup4\n    /* \"#utility.yul\":8983:9000   */\n  add\n    /* \"#utility.yul\":8979:9006   */\n  slt\n    /* \"#utility.yul\":8969:9091   */\n  tag_227\n  jumpi\n    /* \"#utility.yul\":9010:9089   */\n  tag_228\n  tag_51\n  jump\t// in\ntag_228:\n    /* \"#utility.yul\":8969:9091   */\ntag_227:\n    /* \"#utility.yul\":9120:9126   */\n  dup2\n    /* \"#utility.yul\":9114:9127   */\n  mload\n    /* \"#utility.yul\":9145:9259   */\n  tag_229\n    /* \"#utility.yul\":9255:9258   */\n  dup5\n    /* \"#utility.yul\":9247:9253   */\n  dup3\n    /* \"#utility.yul\":9240:9244   */\n  0x20\n    /* \"#utility.yul\":9232:9238   */\n  dup7\n    /* \"#utility.yul\":9228:9245   */\n  add\n    /* \"#utility.yul\":9145:9259   */\n  tag_76\n  jump\t// in\ntag_229:\n    /* \"#utility.yul\":9136:9259   */\n  swap2\n  pop\n    /* \"#utility.yul\":8959:9265   */\n  pop\n    /* \"#utility.yul\":8862:9265   */\n  swap3\n  swap2\n  pop\n  pop\n  jump\t// out\n    /* \"#utility.yul\":9271:9348   */\ntag_78:\n    /* \"#utility.yul\":9308:9315   */\n  0x00\n    /* \"#utility.yul\":9337:9342   */\n  dup2\n    /* \"#utility.yul\":9326:9342   */\n  swap1\n  pop\n    /* \"#utility.yul\":9271:9348   */\n  swap2\n  swap1\n  pop\n  jump\t// out\n    /* \"#utility.yul\":9354:9476   */\ntag_79:\n    /* \"#utility.yul\":9427:9451   */\n  tag_232\n    /* \"#utility.yul\":9445:9450   */\n  dup2\n    /* \"#utility.yul\":9427:9451   */\n  tag_78\n  jump\t// in\ntag_232:\n    /* \"#utility.yul\":9420:9425   */\n  dup2\n    /* \"#utility.yul\":9417:9452   */\n  eq\n    /* \"#utility.yul\":9407:9470   */\n  tag_233\n  jumpi\n    /* \"#utility.yul\":9466:9467   */\n  0x00\n    /* \"#utility.yul\":9463:9464   */\n  dup1\n    /* \"#utility.yul\":9456:9468   */\n  revert\n    /* \"#utility.yul\":9407:9470   */\ntag_233:\n    /* \"#utility.yul\":9354:9476   */\n  pop\n  jump\t// out\n    /* \"#utility.yul\":9482:9625   */\ntag_80:\n    /* \"#utility.yul\":9539:9544   */\n  0x00\n    /* \"#utility.yul\":9570:9576   */\n  dup2\n    /* \"#utility.yul\":9564:9577   */\n  mload\n    /* \"#utility.yul\":9555:9577   */\n  swap1\n  pop\n    /* \"#utility.yul\":9586:9619   */\n  tag_235\n    /* \"#utility.yul\":9613:9618   */\n  dup2\n    /* \"#utility.yul\":9586:9619   */\n  tag_79\n  jump\t// in\ntag_235:\n    /* \"#utility.yul\":9482:9625   */\n  swap3\n  swap2\n  pop\n  pop\n  jump\t// out\n    /* \"#utility.yul\":9631:9967   */\ntag_81:\n    /* \"#utility.yul\":9733:9737   */\n  0x00\n    /* \"#utility.yul\":9823:9841   */\n  0xffffffffffffffff\n    /* \"#utility.yul\":9815:9821   */\n  dup3\n    /* \"#utility.yul\":9812:9842   */\n  gt\n    /* \"#utility.yul\":9809:9865   */\n  iszero\n  tag_237\n  jumpi\n    /* \"#utility.yul\":9845:9863   */\n  tag_238\n  tag_53\n  jump\t// in\ntag_238:\n    /* \"#utility.yul\":9809:9865   */\ntag_237:\n    /* \"#utility.yul\":9895:9899   */\n  0x20\n    /* \"#utility.yul\":9887:9893   */\n  dup3\n    /* \"#utility.yul\":9883:9900   */\n  mul\n    /* \"#utility.yul\":9875:9900   */\n  swap1\n  pop\n    /* \"#utility.yul\":9955:9959   */\n  0x20\n    /* \"#utility.yul\":9949:9953   */\n  dup2\n    /* \"#utility.yul\":9945:9960   */\n  add\n    /* \"#utility.yul\":9937:9960   */\n  swap1\n  pop\n    /* \"#utility.yul\":9631:9967   */\n  swap2\n  swap1\n  pop\n  jump\t// out\n    /* \"#utility.yul\":9973:10090   */\ntag_82:\n    /* \"#utility.yul\":10082:10083   */\n  0x00\n    /* \"#utility.yul\":10079:10080   */\n  dup1\n    /* \"#utility.yul\":10072:10084   */\n  revert\n    /* \"#utility.yul\":10255:10871   */\ntag_84:\n    /* \"#utility.yul\":10340:10345   */\n  0x00\n    /* \"#utility.yul\":10384:10388   */\n  0x40\n    /* \"#utility.yul\":10372:10381   */\n  dup3\n    /* \"#utility.yul\":10367:10370   */\n  dup5\n    /* \"#utility.yul\":10363:10382   */\n  sub\n    /* \"#utility.yul\":10359:10389   */\n  slt\n    /* \"#utility.yul\":10356:10473   */\n  iszero\n  tag_242\n  jumpi\n    /* \"#utility.yul\":10392:10471   */\n  tag_243\n  tag_82\n  jump\t// in\ntag_243:\n    /* \"#utility.yul\":10356:10473   */\ntag_242:\n    /* \"#utility.yul\":10491:10512   */\n  tag_244\n    /* \"#utility.yul\":10507:10511   */\n  0x40\n    /* \"#utility.yul\":10491:10512   */\n  tag_55\n  jump\t// in\ntag_244:\n    /* \"#utility.yul\":10482:10512   */\n  swap1\n  pop\n    /* \"#utility.yul\":10574:10575   */\n  0x00\n    /* \"#utility.yul\":10614:10674   */\n  tag_245\n    /* \"#utility.yul\":10670:10673   */\n  dup5\n    /* \"#utility.yul\":10661:10667   */\n  dup3\n    /* \"#utility.yul\":10650:10659   */\n  dup6\n    /* \"#utility.yul\":10646:10668   */\n  add\n    /* \"#utility.yul\":10614:10674   */\n  tag_80\n  jump\t// in\ntag_245:\n    /* \"#utility.yul\":10607:10611   */\n  0x00\n    /* \"#utility.yul\":10600:10605   */\n  dup4\n    /* \"#utility.yul\":10596:10612   */\n  add\n    /* \"#utility.yul\":10589:10675   */\n  mstore\n    /* \"#utility.yul\":10522:10686   */\n  pop\n    /* \"#utility.yul\":10751:10753   */\n  0x20\n    /* \"#utility.yul\":10792:10852   */\n  tag_246\n    /* \"#utility.yul\":10848:10851   */\n  dup5\n    /* \"#utility.yul\":10839:10845   */\n  dup3\n    /* \"#utility.yul\":10828:10837   */\n  dup6\n    /* \"#utility.yul\":10824:10846   */\n  add\n    /* \"#utility.yul\":10792:10852   */\n  tag_80\n  jump\t// in\ntag_246:\n    /* \"#utility.yul\":10785:10789   */\n  0x20\n    /* \"#utility.yul\":10778:10783   */\n  dup4\n    /* \"#utility.yul\":10774:10790   */\n  add\n    /* \"#utility.yul\":10767:10853   */\n  mstore\n    /* \"#utility.yul\":10696:10864   */\n  pop\n    /* \"#utility.yul\":10255:10871   */\n  swap3\n  swap2\n  pop\n  pop\n  jump\t// out\n    /* \"#utility.yul\":10915:11722   */\ntag_85:\n    /* \"#utility.yul\":11047:11052   */\n  0x00\n    /* \"#utility.yul\":11072:11178   */\n  tag_248\n    /* \"#utility.yul\":11088:11177   */\n  tag_249\n    /* \"#utility.yul\":11170:11176   */\n  dup5\n    /* \"#utility.yul\":11088:11177   */\n  tag_81\n  jump\t// in\ntag_249:\n    /* \"#utility.yul\":11072:11178   */\n  tag_55\n  jump\t// in\ntag_248:\n    /* \"#utility.yul\":11063:11178   */\n  swap1\n  pop\n    /* \"#utility.yul\":11198:11203   */\n  dup1\n    /* \"#utility.yul\":11227:11233   */\n  dup4\n    /* \"#utility.yul\":11220:11225   */\n  dup3\n    /* \"#utility.yul\":11213:11234   */\n  mstore\n    /* \"#utility.yul\":11261:11265   */\n  0x20\n    /* \"#utility.yul\":11254:11259   */\n  dup3\n    /* \"#utility.yul\":11250:11266   */\n  add\n    /* \"#utility.yul\":11243:11266   */\n  swap1\n  pop\n    /* \"#utility.yul\":11314:11318   */\n  0x40\n    /* \"#utility.yul\":11306:11312   */\n  dup5\n    /* \"#utility.yul\":11302:11319   */\n  mul\n    /* \"#utility.yul\":11294:11300   */\n  dup4\n    /* \"#utility.yul\":11290:11320   */\n  add\n    /* \"#utility.yul\":11343:11346   */\n  dup6\n    /* \"#utility.yul\":11335:11341   */\n  dup2\n    /* \"#utility.yul\":11332:11347   */\n  gt\n    /* \"#utility.yul\":11329:11451   */\n  iszero\n  tag_250\n  jumpi\n    /* \"#utility.yul\":11362:11441   */\n  tag_251\n  tag_57\n  jump\t// in\ntag_251:\n    /* \"#utility.yul\":11329:11451   */\ntag_250:\n    /* \"#utility.yul\":11477:11483   */\n  dup4\n    /* \"#utility.yul\":11460:11716   */\ntag_252:\n    /* \"#utility.yul\":11494:11500   */\n  dup2\n    /* \"#utility.yul\":11489:11492   */\n  dup2\n    /* \"#utility.yul\":11486:11501   */\n  lt\n    /* \"#utility.yul\":11460:11716   */\n  iszero\n  tag_254\n  jumpi\n    /* \"#utility.yul\":11569:11572   */\n  dup1\n    /* \"#utility.yul\":11598:11671   */\n  tag_255\n    /* \"#utility.yul\":11667:11670   */\n  dup9\n    /* \"#utility.yul\":11655:11665   */\n  dup3\n    /* \"#utility.yul\":11598:11671   */\n  tag_84\n  jump\t// in\ntag_255:\n    /* \"#utility.yul\":11593:11596   */\n  dup5\n    /* \"#utility.yul\":11586:11672   */\n  mstore\n    /* \"#utility.yul\":11701:11705   */\n  0x20\n    /* \"#utility.yul\":11696:11699   */\n  dup5\n    /* \"#utility.yul\":11692:11706   */\n  add\n    /* \"#utility.yul\":11685:11706   */\n  swap4\n  pop\n    /* \"#utility.yul\":11536:11716   */\n  pop\n    /* \"#utility.yul\":11520:11524   */\n  0x40\n    /* \"#utility.yul\":11515:11518   */\n  dup2\n    /* \"#utility.yul\":11511:11525   */\n  add\n    /* \"#utility.yul\":11504:11525   */\n  swap1\n  pop\n    /* \"#utility.yul\":11460:11716   */\n  jump(tag_252)\ntag_254:\n    /* \"#utility.yul\":11464:11485   */\n  pop\n    /* \"#utility.yul\":11053:11722   */\n  pop\n  pop\n    /* \"#utility.yul\":10915:11722   */\n  swap4\n  swap3\n  pop\n  pop\n  pop\n  jump\t// out\n    /* \"#utility.yul\":11766:12201   */\ntag_86:\n    /* \"#utility.yul\":11873:11878   */\n  0x00\n    /* \"#utility.yul\":11922:11925   */\n  dup3\n    /* \"#utility.yul\":11915:11919   */\n  0x1f\n    /* \"#utility.yul\":11907:11913   */\n  dup4\n    /* \"#utility.yul\":11903:11920   */\n  add\n    /* \"#utility.yul\":11899:11926   */\n  slt\n    /* \"#utility.yul\":11889:12011   */\n  tag_257\n  jumpi\n    /* \"#utility.yul\":11930:12009   */\n  tag_258\n  tag_51\n  jump\t// in\ntag_258:\n    /* \"#utility.yul\":11889:12011   */\ntag_257:\n    /* \"#utility.yul\":12040:12046   */\n  dup2\n    /* \"#utility.yul\":12034:12047   */\n  mload\n    /* \"#utility.yul\":12065:12195   */\n  tag_259\n    /* \"#utility.yul\":12191:12194   */\n  dup5\n    /* \"#utility.yul\":12183:12189   */\n  dup3\n    /* \"#utility.yul\":12176:12180   */\n  0x20\n    /* \"#utility.yul\":12168:12174   */\n  dup7\n    /* \"#utility.yul\":12164:12181   */\n  add\n    /* \"#utility.yul\":12065:12195   */\n  tag_85\n  jump\t// in\ntag_259:\n    /* \"#utility.yul\":12056:12195   */\n  swap2\n  pop\n    /* \"#utility.yul\":11879:12201   */\n  pop\n    /* \"#utility.yul\":11766:12201   */\n  swap3\n  swap2\n  pop\n  pop\n  jump\t// out\n    /* \"#utility.yul\":12207:14241   */\ntag_3:\n    /* \"#utility.yul\":12466:12472   */\n  0x00\n    /* \"#utility.yul\":12474:12480   */\n  dup1\n    /* \"#utility.yul\":12482:12488   */\n  0x00\n    /* \"#utility.yul\":12490:12496   */\n  dup1\n    /* \"#utility.yul\":12498:12504   */\n  0x00\n    /* \"#utility.yul\":12506:12512   */\n  dup1\n    /* \"#utility.yul\":12555:12558   */\n  0xc0\n    /* \"#utility.yul\":12543:12552   */\n  dup8\n    /* \"#utility.yul\":12534:12541   */\n  dup10\n    /* \"#utility.yul\":12530:12553   */\n  sub\n    /* \"#utility.yul\":12526:12559   */\n  slt\n    /* \"#utility.yul\":12523:12643   */\n  iszero\n  tag_261\n  jumpi\n    /* \"#utility.yul\":12562:12641   */\n  tag_262\n  tag_49\n  jump\t// in\ntag_262:\n    /* \"#utility.yul\":12523:12643   */\ntag_261:\n    /* \"#utility.yul\":12703:12704   */\n  0x00\n    /* \"#utility.yul\":12692:12701   */\n  dup8\n    /* \"#utility.yul\":12688:12705   */\n  add\n    /* \"#utility.yul\":12682:12706   */\n  mload\n    /* \"#utility.yul\":12733:12751   */\n  0xffffffffffffffff\n    /* \"#utility.yul\":12725:12731   */\n  dup2\n    /* \"#utility.yul\":12722:12752   */\n  gt\n    /* \"#utility.yul\":12719:12836   */\n  iszero\n  tag_263\n  jumpi\n    /* \"#utility.yul\":12755:12834   */\n  tag_264\n  tag_50\n  jump\t// in\ntag_264:\n    /* \"#utility.yul\":12719:12836   */\ntag_263:\n    /* \"#utility.yul\":12860:12949   */\n  tag_265\n    /* \"#utility.yul\":12941:12948   */\n  dup10\n    /* \"#utility.yul\":12932:12938   */\n  dup3\n    /* \"#utility.yul\":12921:12930   */\n  dup11\n    /* \"#utility.yul\":12917:12939   */\n  add\n    /* \"#utility.yul\":12860:12949   */\n  tag_63\n  jump\t// in\ntag_265:\n    /* \"#utility.yul\":12850:12949   */\n  swap7\n  pop\n    /* \"#utility.yul\":12653:12959   */\n  pop\n    /* \"#utility.yul\":12998:13000   */\n  0x20\n    /* \"#utility.yul\":13024:13088   */\n  tag_266\n    /* \"#utility.yul\":13080:13087   */\n  dup10\n    /* \"#utility.yul\":13071:13077   */\n  dup3\n    /* \"#utility.yul\":13060:13069   */\n  dup11\n    /* \"#utility.yul\":13056:13078   */\n  add\n    /* \"#utility.yul\":13024:13088   */\n  tag_61\n  jump\t// in\ntag_266:\n    /* \"#utility.yul\":13014:13088   */\n  swap6\n  pop\n    /* \"#utility.yul\":12969:13098   */\n  pop\n    /* \"#utility.yul\":13158:13160   */\n  0x40\n    /* \"#utility.yul\":13147:13156   */\n  dup8\n    /* \"#utility.yul\":13143:13161   */\n  add\n    /* \"#utility.yul\":13137:13162   */\n  mload\n    /* \"#utility.yul\":13189:13207   */\n  0xffffffffffffffff\n    /* \"#utility.yul\":13181:13187   */\n  dup2\n    /* \"#utility.yul\":13178:13208   */\n  gt\n    /* \"#utility.yul\":13175:13292   */\n  iszero\n  tag_267\n  jumpi\n    /* \"#utility.yul\":13211:13290   */\n  tag_268\n  tag_50\n  jump\t// in\ntag_268:\n    /* \"#utility.yul\":13175:13292   */\ntag_267:\n    /* \"#utility.yul\":13316:13415   */\n  tag_269\n    /* \"#utility.yul\":13407:13414   */\n  dup10\n    /* \"#utility.yul\":13398:13404   */\n  dup3\n    /* \"#utility.yul\":13387:13396   */\n  dup11\n    /* \"#utility.yul\":13383:13405   */\n  add\n    /* \"#utility.yul\":13316:13415   */\n  tag_71\n  jump\t// in\ntag_269:\n    /* \"#utility.yul\":13306:13415   */\n  swap5\n  pop\n    /* \"#utility.yul\":13108:13425   */\n  pop\n    /* \"#utility.yul\":13485:13487   */\n  0x60\n    /* \"#utility.yul\":13474:13483   */\n  dup8\n    /* \"#utility.yul\":13470:13488   */\n  add\n    /* \"#utility.yul\":13464:13489   */\n  mload\n    /* \"#utility.yul\":13516:13534   */\n  0xffffffffffffffff\n    /* \"#utility.yul\":13508:13514   */\n  dup2\n    /* \"#utility.yul\":13505:13535   */\n  gt\n    /* \"#utility.yul\":13502:13619   */\n  iszero\n  tag_270\n  jumpi\n    /* \"#utility.yul\":13538:13617   */\n  tag_271\n  tag_50\n  jump\t// in\ntag_271:\n    /* \"#utility.yul\":13502:13619   */\ntag_270:\n    /* \"#utility.yul\":13643:13741   */\n  tag_272\n    /* \"#utility.yul\":13733:13740   */\n  dup10\n    /* \"#utility.yul\":13724:13730   */\n  dup3\n    /* \"#utility.yul\":13713:13722   */\n  dup11\n    /* \"#utility.yul\":13709:13731   */\n  add\n    /* \"#utility.yul\":13643:13741   */\n  tag_77\n  jump\t// in\ntag_272:\n    /* \"#utility.yul\":13633:13741   */\n  swap4\n  pop\n    /* \"#utility.yul\":13435:13751   */\n  pop\n    /* \"#utility.yul\":13790:13793   */\n  0x80\n    /* \"#utility.yul\":13817:13881   */\n  tag_273\n    /* \"#utility.yul\":13873:13880   */\n  dup10\n    /* \"#utility.yul\":13864:13870   */\n  dup3\n    /* \"#utility.yul\":13853:13862   */\n  dup11\n    /* \"#utility.yul\":13849:13871   */\n  add\n    /* \"#utility.yul\":13817:13881   */\n  tag_80\n  jump\t// in\ntag_273:\n    /* \"#utility.yul\":13807:13881   */\n  swap3\n  pop\n    /* \"#utility.yul\":13761:13891   */\n  pop\n    /* \"#utility.yul\":13951:13954   */\n  0xa0\n    /* \"#utility.yul\":13940:13949   */\n  dup8\n    /* \"#utility.yul\":13936:13955   */\n  add\n    /* \"#utility.yul\":13930:13956   */\n  mload\n    /* \"#utility.yul\":13983:14001   */\n  0xffffffffffffffff\n    /* \"#utility.yul\":13975:13981   */\n  dup2\n    /* \"#utility.yul\":13972:14002   */\n  gt\n    /* \"#utility.yul\":13969:14086   */\n  iszero\n  tag_274\n  jumpi\n    /* \"#utility.yul\":14005:14084   */\n  tag_275\n  tag_50\n  jump\t// in\ntag_275:\n    /* \"#utility.yul\":13969:14086   */\ntag_274:\n    /* \"#utility.yul\":14110:14224   */\n  tag_276\n    /* \"#utility.yul\":14216:14223   */\n  dup10\n    /* \"#utility.yul\":14207:14213   */\n  dup3\n    /* \"#utility.yul\":14196:14205   */\n  dup11\n    /* \"#utility.yul\":14192:14214   */\n  add\n    /* \"#utility.yul\":14110:14224   */\n  tag_86\n  jump\t// in\ntag_276:\n    /* \"#utility.yul\":14100:14224   */\n  swap2\n  pop\n    /* \"#utility.yul\":13901:14234   */\n  pop\n    /* \"#utility.yul\":12207:14241   */\n  swap3\n  swap6\n  pop\n  swap3\n  swap6\n  pop\n  swap3\n  swap6\n  jump\t// out\n    /* \"#utility.yul\":14247:14427   */\ntag_87:\n    /* \"#utility.yul\":14295:14372   */\n  0x4e487b7100000000000000000000000000000000000000000000000000000000\n    /* \"#utility.yul\":14292:14293   */\n  0x00\n    /* \"#utility.yul\":14285:14373   */\n  mstore\n    /* \"#utility.yul\":14392:14396   */\n  0x11\n    /* \"#utility.yul\":14389:14390   */\n  0x04\n    /* \"#utility.yul\":14382:14397   */\n  mstore\n    /* \"#utility.yul\":14416:14420   */\n  0x24\n    /* \"#utility.yul\":14413:14414   */\n  0x00\n    /* \"#utility.yul\":14406:14421   */\n  revert\n    /* \"#utility.yul\":14433:14843   */\ntag_7:\n    /* \"#utility.yul\":14473:14480   */\n  0x00\n    /* \"#utility.yul\":14496:14516   */\n  tag_279\n    /* \"#utility.yul\":14514:14515   */\n  dup3\n    /* \"#utility.yul\":14496:14516   */\n  tag_78\n  jump\t// in\ntag_279:\n    /* \"#utility.yul\":14491:14516   */\n  swap2\n  pop\n    /* \"#utility.yul\":14530:14550   */\n  tag_280\n    /* \"#utility.yul\":14548:14549   */\n  dup4\n    /* \"#utility.yul\":14530:14550   */\n  tag_78\n  jump\t// in\ntag_280:\n    /* \"#utility.yul\":14525:14550   */\n  swap3\n  pop\n    /* \"#utility.yul\":14585:14586   */\n  dup3\n    /* \"#utility.yul\":14582:14583   */\n  dup3\n    /* \"#utility.yul\":14578:14587   */\n  mul\n    /* \"#utility.yul\":14607:14637   */\n  tag_281\n    /* \"#utility.yul\":14625:14636   */\n  dup2\n    /* \"#utility.yul\":14607:14637   */\n  tag_78\n  jump\t// in\ntag_281:\n    /* \"#utility.yul\":14596:14637   */\n  swap2\n  pop\n    /* \"#utility.yul\":14786:14787   */\n  dup3\n    /* \"#utility.yul\":14777:14784   */\n  dup3\n    /* \"#utility.yul\":14773:14788   */\n  div\n    /* \"#utility.yul\":14770:14771   */\n  dup5\n    /* \"#utility.yul\":14767:14789   */\n  eq\n    /* \"#utility.yul\":14747:14748   */\n  dup4\n    /* \"#utility.yul\":14740:14749   */\n  iszero\n    /* \"#utility.yul\":14720:14803   */\n  or\n    /* \"#utility.yul\":14697:14836   */\n  tag_282\n  jumpi\n    /* \"#utility.yul\":14816:14834   */\n  tag_283\n  tag_87\n  jump\t// in\ntag_283:\n    /* \"#utility.yul\":14697:14836   */\ntag_282:\n    /* \"#utility.yul\":14481:14843   */\n  pop\n    /* \"#utility.yul\":14433:14843   */\n  swap3\n  swap2\n  pop\n  pop\n  jump\t// out\n    /* \"#utility.yul\":14849:15029   */\ntag_13:\n    /* \"#utility.yul\":14897:14974   */\n  0x4e487b7100000000000000000000000000000000000000000000000000000000\n    /* \"#utility.yul\":14894:14895   */\n  0x00\n    /* \"#utility.yul\":14887:14975   */\n  mstore\n    /* \"#utility.yul\":14994:14998   */\n  0x32\n    /* \"#utility.yul\":14991:14992   */\n  0x04\n    /* \"#utility.yul\":14984:14999   */\n  mstore\n    /* \"#utility.yul\":15018:15022   */\n  0x24\n    /* \"#utility.yul\":15015:15016   */\n  0x00\n    /* \"#utility.yul\":15008:15023   */\n  revert\n    /* \"#utility.yul\":15035:15121   */\ntag_88:\n    /* \"#utility.yul\":15070:15077   */\n  0x00\n    /* \"#utility.yul\":15110:15114   */\n  0xff\n    /* \"#utility.yul\":15103:15108   */\n  dup3\n    /* \"#utility.yul\":15099:15115   */\n  and\n    /* \"#utility.yul\":15088:15115   */\n  swap1\n  pop\n    /* \"#utility.yul\":15035:15121   */\n  swap2\n  swap1\n  pop\n  jump\t// out\n    /* \"#utility.yul\":15127:15294   */\ntag_18:\n    /* \"#utility.yul\":15164:15167   */\n  0x00\n    /* \"#utility.yul\":15187:15209   */\n  tag_287\n    /* \"#utility.yul\":15203:15208   */\n  dup3\n    /* \"#utility.yul\":15187:15209   */\n  tag_88\n  jump\t// in\ntag_287:\n    /* \"#utility.yul\":15178:15209   */\n  swap2\n  pop\n    /* \"#utility.yul\":15231:15235   */\n  0xff\n    /* \"#utility.yul\":15224:15229   */\n  dup3\n    /* \"#utility.yul\":15221:15236   */\n  sub\n    /* \"#utility.yul\":15218:15259   */\n  tag_288\n  jumpi\n    /* \"#utility.yul\":15239:15257   */\n  tag_289\n  tag_87\n  jump\t// in\ntag_289:\n    /* \"#utility.yul\":15218:15259   */\ntag_288:\n    /* \"#utility.yul\":15286:15287   */\n  0x01\n    /* \"#utility.yul\":15279:15284   */\n  dup3\n    /* \"#utility.yul\":15275:15288   */\n  add\n    /* \"#utility.yul\":15268:15288   */\n  swap1\n  pop\n    /* \"#utility.yul\":15127:15294   */\n  swap2\n  swap1\n  pop\n  jump\t// out\n    /* \"#utility.yul\":15300:15399   */\ntag_89:\n    /* \"#utility.yul\":15352:15358   */\n  0x00\n    /* \"#utility.yul\":15386:15391   */\n  dup2\n    /* \"#utility.yul\":15380:15392   */\n  mload\n    /* \"#utility.yul\":15370:15392   */\n  swap1\n  pop\n    /* \"#utility.yul\":15300:15399   */\n  swap2\n  swap1\n  pop\n  jump\t// out\n    /* \"#utility.yul\":15405:15553   */\ntag_90:\n    /* \"#utility.yul\":15507:15518   */\n  0x00\n    /* \"#utility.yul\":15544:15547   */\n  dup2\n    /* \"#utility.yul\":15529:15547   */\n  swap1\n  pop\n    /* \"#utility.yul\":15405:15553   */\n  swap3\n  swap2\n  pop\n  pop\n  jump\t// out\n    /* \"#utility.yul\":15559:15949   */\ntag_91:\n    /* \"#utility.yul\":15665:15668   */\n  0x00\n    /* \"#utility.yul\":15693:15732   */\n  tag_293\n    /* \"#utility.yul\":15726:15731   */\n  dup3\n    /* \"#utility.yul\":15693:15732   */\n  tag_89\n  jump\t// in\ntag_293:\n    /* \"#utility.yul\":15748:15837   */\n  tag_294\n    /* \"#utility.yul\":15830:15836   */\n  dup2\n    /* \"#utility.yul\":15825:15828   */\n  dup6\n    /* \"#utility.yul\":15748:15837   */\n  tag_90\n  jump\t// in\ntag_294:\n    /* \"#utility.yul\":15741:15837   */\n  swap4\n  pop\n    /* \"#utility.yul\":15846:15911   */\n  tag_295\n    /* \"#utility.yul\":15904:15910   */\n  dup2\n    /* \"#utility.yul\":15899:15902   */\n  dup6\n    /* \"#utility.yul\":15892:15896   */\n  0x20\n    /* \"#utility.yul\":15885:15890   */\n  dup7\n    /* \"#utility.yul\":15881:15897   */\n  add\n    /* \"#utility.yul\":15846:15911   */\n  tag_67\n  jump\t// in\ntag_295:\n    /* \"#utility.yul\":15936:15942   */\n  dup1\n    /* \"#utility.yul\":15931:15934   */\n  dup5\n    /* \"#utility.yul\":15927:15943   */\n  add\n    /* \"#utility.yul\":15920:15943   */\n  swap2\n  pop\n    /* \"#utility.yul\":15669:15949   */\n  pop\n    /* \"#utility.yul\":15559:15949   */\n  swap3\n  swap2\n  pop\n  pop\n  jump\t// out\n    /* \"#utility.yul\":15955:16230   */\ntag_27:\n    /* \"#utility.yul\":16087:16090   */\n  0x00\n    /* \"#utility.yul\":16109:16204   */\n  tag_297\n    /* \"#utility.yul\":16200:16203   */\n  dup3\n    /* \"#utility.yul\":16191:16197   */\n  dup5\n    /* \"#utility.yul\":16109:16204   */\n  tag_91\n  jump\t// in\ntag_297:\n    /* \"#utility.yul\":16102:16204   */\n  swap2\n  pop\n    /* \"#utility.yul\":16221:16224   */\n  dup2\n    /* \"#utility.yul\":16214:16224   */\n  swap1\n  pop\n    /* \"#utility.yul\":15955:16230   */\n  swap3\n  swap2\n  pop\n  pop\n  jump\t// out\n    /* \"#utility.yul\":16236:16334   */\ntag_92:\n    /* \"#utility.yul\":16287:16293   */\n  0x00\n    /* \"#utility.yul\":16321:16326   */\n  dup2\n    /* \"#utility.yul\":16315:16327   */\n  mload\n    /* \"#utility.yul\":16305:16327   */\n  swap1\n  pop\n    /* \"#utility.yul\":16236:16334   */\n  swap2\n  swap1\n  pop\n  jump\t// out\n    /* \"#utility.yul\":16340:16520   */\ntag_93:\n    /* \"#utility.yul\":16388:16465   */\n  0x4e487b7100000000000000000000000000000000000000000000000000000000\n    /* \"#utility.yul\":16385:16386   */\n  0x00\n    /* \"#utility.yul\":16378:16466   */\n  mstore\n    /* \"#utility.yul\":16485:16489   */\n  0x22\n    /* \"#utility.yul\":16482:16483   */\n  0x04\n    /* \"#utility.yul\":16475:16490   */\n  mstore\n    /* \"#utility.yul\":16509:16513   */\n  0x24\n    /* \"#utility.yul\":16506:16507   */\n  0x00\n    /* \"#utility.yul\":16499:16514   */\n  revert\n    /* \"#utility.yul\":16526:16846   */\ntag_94:\n    /* \"#utility.yul\":16570:16576   */\n  0x00\n    /* \"#utility.yul\":16607:16608   */\n  0x02\n    /* \"#utility.yul\":16601:16605   */\n  dup3\n    /* \"#utility.yul\":16597:16609   */\n  div\n    /* \"#utility.yul\":16587:16609   */\n  swap1\n  pop\n    /* \"#utility.yul\":16654:16655   */\n  0x01\n    /* \"#utility.yul\":16648:16652   */\n  dup3\n    /* \"#utility.yul\":16644:16656   */\n  and\n    /* \"#utility.yul\":16675:16693   */\n  dup1\n    /* \"#utility.yul\":16665:16746   */\n  tag_301\n  jumpi\n    /* \"#utility.yul\":16731:16735   */\n  0x7f\n    /* \"#utility.yul\":16723:16729   */\n  dup3\n    /* \"#utility.yul\":16719:16736   */\n  and\n    /* \"#utility.yul\":16709:16736   */\n  swap2\n  pop\n    /* \"#utility.yul\":16665:16746   */\ntag_301:\n    /* \"#utility.yul\":16793:16795   */\n  0x20\n    /* \"#utility.yul\":16785:16791   */\n  dup3\n    /* \"#utility.yul\":16782:16796   */\n  lt\n    /* \"#utility.yul\":16762:16780   */\n  dup2\n    /* \"#utility.yul\":16759:16797   */\n  sub\n    /* \"#utility.yul\":16756:16840   */\n  tag_302\n  jumpi\n    /* \"#utility.yul\":16812:16830   */\n  tag_303\n  tag_93\n  jump\t// in\ntag_303:\n    /* \"#utility.yul\":16756:16840   */\ntag_302:\n    /* \"#utility.yul\":16577:16846   */\n  pop\n    /* \"#utility.yul\":16526:16846   */\n  swap2\n  swap1\n  pop\n  jump\t// out\n    /* \"#utility.yul\":16852:16992   */\ntag_95:\n    /* \"#utility.yul\":16900:16904   */\n  0x00\n    /* \"#utility.yul\":16923:16926   */\n  dup2\n    /* \"#utility.yul\":16915:16926   */\n  swap1\n  pop\n    /* \"#utility.yul\":16946:16949   */\n  dup2\n    /* \"#utility.yul\":16943:16944   */\n  0x00\n    /* \"#utility.yul\":16936:16950   */\n  mstore\n    /* \"#utility.yul\":16980:16984   */\n  0x20\n    /* \"#utility.yul\":16977:16978   */\n  0x00\n    /* \"#utility.yul\":16967:16985   */\n  keccak256\n    /* \"#utility.yul\":16959:16985   */\n  swap1\n  pop\n    /* \"#utility.yul\":16852:16992   */\n  swap2\n  swap1\n  pop\n  jump\t// out\n    /* \"#utility.yul\":16998:17091   */\ntag_96:\n    /* \"#utility.yul\":17035:17041   */\n  0x00\n    /* \"#utility.yul\":17082:17084   */\n  0x20\n    /* \"#utility.yul\":17077:17079   */\n  0x1f\n    /* \"#utility.yul\":17070:17075   */\n  dup4\n    /* \"#utility.yul\":17066:17080   */\n  add\n    /* \"#utility.yul\":17062:17085   */\n  div\n    /* \"#utility.yul\":17052:17085   */\n  swap1\n  pop\n    /* \"#utility.yul\":16998:17091   */\n  swap2\n  swap1\n  pop\n  jump\t// out\n    /* \"#utility.yul\":17097:17204   */\ntag_97:\n    /* \"#utility.yul\":17141:17149   */\n  0x00\n    /* \"#utility.yul\":17191:17196   */\n  dup3\n    /* \"#utility.yul\":17185:17189   */\n  dup3\n    /* \"#utility.yul\":17181:17197   */\n  shl\n    /* \"#utility.yul\":17160:17197   */\n  swap1\n  pop\n    /* \"#utility.yul\":17097:17204   */\n  swap3\n  swap2\n  pop\n  pop\n  jump\t// out\n    /* \"#utility.yul\":17210:17603   */\ntag_98:\n    /* \"#utility.yul\":17279:17285   */\n  0x00\n    /* \"#utility.yul\":17329:17330   */\n  0x08\n    /* \"#utility.yul\":17317:17327   */\n  dup4\n    /* \"#utility.yul\":17313:17331   */\n  mul\n    /* \"#utility.yul\":17352:17449   */\n  tag_308\n    /* \"#utility.yul\":17382:17448   */\n  0xffffffffffffffffffffffffffffffffffffffffffffffffffffffffffffffff\n    /* \"#utility.yul\":17371:17380   */\n  dup3\n    /* \"#utility.yul\":17352:17449   */\n  tag_97\n  jump\t// in\ntag_308:\n    /* \"#utility.yul\":17470:17509   */\n  tag_309\n    /* \"#utility.yul\":17500:17508   */\n  dup7\n    /* \"#utility.yul\":17489:17498   */\n  dup4\n    /* \"#utility.yul\":17470:17509   */\n  tag_97\n  jump\t// in\ntag_309:\n    /* \"#utility.yul\":17458:17509   */\n  swap6\n  pop\n    /* \"#utility.yul\":17542:17546   */\n  dup1\n    /* \"#utility.yul\":17538:17547   */\n  not\n    /* \"#utility.yul\":17531:17536   */\n  dup5\n    /* \"#utility.yul\":17527:17548   */\n  and\n    /* \"#utility.yul\":17518:17548   */\n  swap4\n  pop\n    /* \"#utility.yul\":17591:17595   */\n  dup1\n    /* \"#utility.yul\":17581:17589   */\n  dup7\n    /* \"#utility.yul\":17577:17596   */\n  and\n    /* \"#utility.yul\":17570:17575   */\n  dup5\n    /* \"#utility.yul\":17567:17597   */\n  or\n    /* \"#utility.yul\":17557:17597   */\n  swap3\n  pop\n    /* \"#utility.yul\":17286:17603   */\n  pop\n  pop\n    /* \"#utility.yul\":17210:17603   */\n  swap4\n  swap3\n  pop\n  pop\n  pop\n  jump\t// out\n    /* \"#utility.yul\":17609:17669   */\ntag_99:\n    /* \"#utility.yul\":17637:17640   */\n  0x00\n    /* \"#utility.yul\":17658:17663   */\n  dup2\n    /* \"#utility.yul\":17651:17663   */\n  swap1\n  pop\n    /* \"#utility.yul\":17609:17669   */\n  swap2\n  swap1\n  pop\n  jump\t// out\n    /* \"#utility.yul\":17675:17817   */\ntag_100:\n    /* \"#utility.yul\":17725:17734   */\n  0x00\n    /* \"#utility.yul\":17758:17811   */\n  tag_312\n    /* \"#utility.yul\":17776:17810   */\n  tag_313\n    /* \"#utility.yul\":17785:17809   */\n  tag_314\n    /* \"#utility.yul\":17803:17808   */\n  dup5\n    /* \"#utility.yul\":17785:17809   */\n  tag_78\n  jump\t// in\ntag_314:\n    /* \"#utility.yul\":17776:17810   */\n  tag_99\n  jump\t// in\ntag_313:\n    /* \"#utility.yul\":17758:17811   */\n  tag_78\n  jump\t// in\ntag_312:\n    /* \"#utility.yul\":17745:17811   */\n  swap1\n  pop\n    /* \"#utility.yul\":17675:17817   */\n  swap2\n  swap1\n  pop\n  jump\t// out\n    /* \"#utility.yul\":17823:17898   */\ntag_101:\n    /* \"#utility.yul\":17866:17869   */\n  0x00\n    /* \"#utility.yul\":17887:17892   */\n  dup2\n    /* \"#utility.yul\":17880:17892   */\n  swap1\n  pop\n    /* \"#utility.yul\":17823:17898   */\n  swap2\n  swap1\n  pop\n  jump\t// out\n    /* \"#utility.yul\":17904:18173   */\ntag_102:\n    /* \"#utility.yul\":18014:18053   */\n  tag_317\n    /* \"#utility.yul\":18045:18052   */\n  dup4\n    /* \"#utility.yul\":18014:18053   */\n  tag_100\n  jump\t// in\ntag_317:\n    /* \"#utility.yul\":18075:18166   */\n  tag_318\n    /* \"#utility.yul\":18124:18165   */\n  tag_319\n    /* \"#utility.yul\":18148:18164   */\n  dup3\n    /* \"#utility.yul\":18124:18165   */\n  tag_101\n  jump\t// in\ntag_319:\n    /* \"#utility.yul\":18116:18122   */\n  dup5\n    /* \"#utility.yul\":18109:18113   */\n  dup5\n    /* \"#utility.yul\":18103:18114   */\n  sload\n    /* \"#utility.yul\":18075:18166   */\n  tag_98\n  jump\t// in\ntag_318:\n    /* \"#utility.yul\":18069:18073   */\n  dup3\n    /* \"#utility.yul\":18062:18167   */\n  sstore\n    /* \"#utility.yul\":17980:18173   */\n  pop\n    /* \"#utility.yul\":17904:18173   */\n  pop\n  pop\n  pop\n  jump\t// out\n    /* \"#utility.yul\":18179:18252   */\ntag_103:\n    /* \"#utility.yul\":18224:18227   */\n  0x00\n    /* \"#utility.yul\":18179:18252   */\n  swap1\n  jump\t// out\n    /* \"#utility.yul\":18258:18447   */\ntag_104:\n    /* \"#utility.yul\":18335:18367   */\n  tag_322\n  tag_103\n  jump\t// in\ntag_322:\n    /* \"#utility.yul\":18376:18441   */\n  tag_323\n    /* \"#utility.yul\":18434:18440   */\n  dup2\n    /* \"#utility.yul\":18426:18432   */\n  dup5\n    /* \"#utility.yul\":18420:18424   */\n  dup5\n    /* \"#utility.yul\":18376:18441   */\n  tag_102\n  jump\t// in\ntag_323:\n    /* \"#utility.yul\":18311:18447   */\n  pop\n    /* \"#utility.yul\":18258:18447   */\n  pop\n  pop\n  jump\t// out\n    /* \"#utility.yul\":18453:18639   */\ntag_105:\n    /* \"#utility.yul\":18513:18633   */\ntag_325:\n    /* \"#utility.yul\":18530:18533   */\n  dup2\n    /* \"#utility.yul\":18523:18528   */\n  dup2\n    /* \"#utility.yul\":18520:18534   */\n  lt\n    /* \"#utility.yul\":18513:18633   */\n  iszero\n  tag_327\n  jumpi\n    /* \"#utility.yul\":18584:18623   */\n  tag_328\n    /* \"#utility.yul\":18621:18622   */\n  0x00\n    /* \"#utility.yul\":18614:18619   */\n  dup3\n    /* \"#utility.yul\":18584:18623   */\n  tag_104\n  jump\t// in\ntag_328:\n    /* \"#utility.yul\":18557:18558   */\n  0x01\n    /* \"#utility.yul\":18550:18555   */\n  dup2\n    /* \"#utility.yul\":18546:18559   */\n  add\n    /* \"#utility.yul\":18537:18559   */\n  swap1\n  pop\n    /* \"#utility.yul\":18513:18633   */\n  jump(tag_325)\ntag_327:\n    /* \"#utility.yul\":18453:18639   */\n  pop\n  pop\n  jump\t// out\n    /* \"#utility.yul\":18645:19186   */\ntag_106:\n    /* \"#utility.yul\":18745:18747   */\n  0x1f\n    /* \"#utility.yul\":18740:18743   */\n  dup3\n    /* \"#utility.yul\":18737:18748   */\n  gt\n    /* \"#utility.yul\":18734:19179   */\n  iszero\n  tag_330\n  jumpi\n    /* \"#utility.yul\":18779:18816   */\n  tag_331\n    /* \"#utility.yul\":18810:18815   */\n  dup2\n    /* \"#utility.yul\":18779:18816   */\n  tag_95\n  jump\t// in\ntag_331:\n    /* \"#utility.yul\":18862:18891   */\n  tag_332\n    /* \"#utility.yul\":18880:18890   */\n  dup5\n    /* \"#utility.yul\":18862:18891   */\n  tag_96\n  jump\t// in\ntag_332:\n    /* \"#utility.yul\":18852:18860   */\n  dup2\n    /* \"#utility.yul\":18848:18892   */\n  add\n    /* \"#utility.yul\":19045:19047   */\n  0x20\n    /* \"#utility.yul\":19033:19043   */\n  dup6\n    /* \"#utility.yul\":19030:19048   */\n  lt\n    /* \"#utility.yul\":19027:19076   */\n  iszero\n  tag_333\n  jumpi\n    /* \"#utility.yul\":19066:19074   */\n  dup2\n    /* \"#utility.yul\":19051:19074   */\n  swap1\n  pop\n    /* \"#utility.yul\":19027:19076   */\ntag_333:\n    /* \"#utility.yul\":19089:19169   */\n  tag_334\n    /* \"#utility.yul\":19145:19167   */\n  tag_335\n    /* \"#utility.yul\":19163:19166   */\n  dup6\n    /* \"#utility.yul\":19145:19167   */\n  tag_96\n  jump\t// in\ntag_335:\n    /* \"#utility.yul\":19135:19143   */\n  dup4\n    /* \"#utility.yul\":19131:19168   */\n  add\n    /* \"#utility.yul\":19118:19129   */\n  dup3\n    /* \"#utility.yul\":19089:19169   */\n  tag_105\n  jump\t// in\ntag_334:\n    /* \"#utility.yul\":18749:19179   */\n  pop\n  pop\n    /* \"#utility.yul\":18734:19179   */\ntag_330:\n    /* \"#utility.yul\":18645:19186   */\n  pop\n  pop\n  pop\n  jump\t// out\n    /* \"#utility.yul\":19192:19309   */\ntag_107:\n    /* \"#utility.yul\":19246:19254   */\n  0x00\n    /* \"#utility.yul\":19296:19301   */\n  dup3\n    /* \"#utility.yul\":19290:19294   */\n  dup3\n    /* \"#utility.yul\":19286:19302   */\n  shr\n    /* \"#utility.yul\":19265:19302   */\n  swap1\n  pop\n    /* \"#utility.yul\":19192:19309   */\n  swap3\n  swap2\n  pop\n  pop\n  jump\t// out\n    /* \"#utility.yul\":19315:19484   */\ntag_108:\n    /* \"#utility.yul\":19359:19365   */\n  0x00\n    /* \"#utility.yul\":19392:19443   */\n  tag_338\n    /* \"#utility.yul\":19440:19441   */\n  0x00\n    /* \"#utility.yul\":19436:19442   */\n  not\n    /* \"#utility.yul\":19428:19433   */\n  dup5\n    /* \"#utility.yul\":19425:19426   */\n  0x08\n    /* \"#utility.yul\":19421:19434   */\n  mul\n    /* \"#utility.yul\":19392:19443   */\n  tag_107\n  jump\t// in\ntag_338:\n    /* \"#utility.yul\":19388:19444   */\n  not\n    /* \"#utility.yul\":19473:19477   */\n  dup1\n    /* \"#utility.yul\":19467:19471   */\n  dup4\n    /* \"#utility.yul\":19463:19478   */\n  and\n    /* \"#utility.yul\":19453:19478   */\n  swap2\n  pop\n    /* \"#utility.yul\":19366:19484   */\n  pop\n    /* \"#utility.yul\":19315:19484   */\n  swap3\n  swap2\n  pop\n  pop\n  jump\t// out\n    /* \"#utility.yul\":19489:19784   */\ntag_109:\n    /* \"#utility.yul\":19565:19569   */\n  0x00\n    /* \"#utility.yul\":19711:19740   */\n  tag_340\n    /* \"#utility.yul\":19736:19739   */\n  dup4\n    /* \"#utility.yul\":19730:19734   */\n  dup4\n    /* \"#utility.yul\":19711:19740   */\n  tag_108\n  jump\t// in\ntag_340:\n    /* \"#utility.yul\":19703:19740   */\n  swap2\n  pop\n    /* \"#utility.yul\":19773:19776   */\n  dup3\n    /* \"#utility.yul\":19770:19771   */\n  0x02\n    /* \"#utility.yul\":19766:19777   */\n  mul\n    /* \"#utility.yul\":19760:19764   */\n  dup3\n    /* \"#utility.yul\":19757:19778   */\n  or\n    /* \"#utility.yul\":19749:19778   */\n  swap1\n  pop\n    /* \"#utility.yul\":19489:19784   */\n  swap3\n  swap2\n  pop\n  pop\n  jump\t// out\n    /* \"#utility.yul\":19789:21179   */\ntag_29:\n    /* \"#utility.yul\":19904:19940   */\n  tag_342\n    /* \"#utility.yul\":19936:19939   */\n  dup3\n    /* \"#utility.yul\":19904:19940   */\n  tag_92\n  jump\t// in\ntag_342:\n    /* \"#utility.yul\":20005:20023   */\n  0xffffffffffffffff\n    /* \"#utility.yul\":19997:20003   */\n  dup2\n    /* \"#utility.yul\":19994:20024   */\n  gt\n    /* \"#utility.yul\":19991:20047   */\n  iszero\n  tag_343\n  jumpi\n    /* \"#utility.yul\":20027:20045   */\n  tag_344\n  tag_53\n  jump\t// in\ntag_344:\n    /* \"#utility.yul\":19991:20047   */\ntag_343:\n    /* \"#utility.yul\":20071:20109   */\n  tag_345\n    /* \"#utility.yul\":20103:20107   */\n  dup3\n    /* \"#utility.yul\":20097:20108   */\n  sload\n    /* \"#utility.yul\":20071:20109   */\n  tag_94\n  jump\t// in\ntag_345:\n    /* \"#utility.yul\":20156:20222   */\n  tag_346\n    /* \"#utility.yul\":20215:20221   */\n  dup3\n    /* \"#utility.yul\":20207:20213   */\n  dup3\n    /* \"#utility.yul\":20201:20205   */\n  dup6\n    /* \"#utility.yul\":20156:20222   */\n  tag_106\n  jump\t// in\ntag_346:\n    /* \"#utility.yul\":20249:20250   */\n  0x00\n    /* \"#utility.yul\":20273:20277   */\n  0x20\n    /* \"#utility.yul\":20260:20277   */\n  swap1\n  pop\n    /* \"#utility.yul\":20305:20307   */\n  0x1f\n    /* \"#utility.yul\":20297:20303   */\n  dup4\n    /* \"#utility.yul\":20294:20308   */\n  gt\n    /* \"#utility.yul\":20322:20323   */\n  0x01\n    /* \"#utility.yul\":20317:20934   */\n  dup2\n  eq\n  tag_348\n  jumpi\n    /* \"#utility.yul\":20978:20979   */\n  0x00\n    /* \"#utility.yul\":20995:21001   */\n  dup5\n    /* \"#utility.yul\":20992:21069   */\n  iszero\n  tag_349\n  jumpi\n    /* \"#utility.yul\":21044:21053   */\n  dup3\n    /* \"#utility.yul\":21039:21042   */\n  dup8\n    /* \"#utility.yul\":21035:21054   */\n  add\n    /* \"#utility.yul\":21029:21055   */\n  mload\n    /* \"#utility.yul\":21020:21055   */\n  swap1\n  pop\n    /* \"#utility.yul\":20992:21069   */\ntag_349:\n    /* \"#utility.yul\":21095:21162   */\n  tag_350\n    /* \"#utility.yul\":21155:21161   */\n  dup6\n    /* \"#utility.yul\":21148:21153   */\n  dup3\n    /* \"#utility.yul\":21095:21162   */\n  tag_109\n  jump\t// in\ntag_350:\n    /* \"#utility.yul\":21089:21093   */\n  dup7\n    /* \"#utility.yul\":21082:21163   */\n  sstore\n    /* \"#utility.yul\":20951:21173   */\n  pop\n    /* \"#utility.yul\":20287:21173   */\n  jump(tag_347)\n    /* \"#utility.yul\":20317:20934   */\ntag_348:\n    /* \"#utility.yul\":20369:20373   */\n  0x1f\n    /* \"#utility.yul\":20365:20374   */\n  not\n    /* \"#utility.yul\":20357:20363   */\n  dup5\n    /* \"#utility.yul\":20353:20375   */\n  and\n    /* \"#utility.yul\":20403:20439   */\n  tag_351\n    /* \"#utility.yul\":20434:20438   */\n  dup7\n    /* \"#utility.yul\":20403:20439   */\n  tag_95\n  jump\t// in\ntag_351:\n    /* \"#utility.yul\":20461:20462   */\n  0x00\n    /* \"#utility.yul\":20475:20683   */\ntag_352:\n    /* \"#utility.yul\":20489:20496   */\n  dup3\n    /* \"#utility.yul\":20486:20487   */\n  dup2\n    /* \"#utility.yul\":20483:20497   */\n  lt\n    /* \"#utility.yul\":20475:20683   */\n  iszero\n  tag_354\n  jumpi\n    /* \"#utility.yul\":20568:20577   */\n  dup5\n    /* \"#utility.yul\":20563:20566   */\n  dup10\n    /* \"#utility.yul\":20559:20578   */\n  add\n    /* \"#utility.yul\":20553:20579   */\n  mload\n    /* \"#utility.yul\":20545:20551   */\n  dup3\n    /* \"#utility.yul\":20538:20580   */\n  sstore\n    /* \"#utility.yul\":20619:20620   */\n  0x01\n    /* \"#utility.yul\":20611:20617   */\n  dup3\n    /* \"#utility.yul\":20607:20621   */\n  add\n    /* \"#utility.yul\":20597:20621   */\n  swap2\n  pop\n    /* \"#utility.yul\":20666:20668   */\n  0x20\n    /* \"#utility.yul\":20655:20664   */\n  dup6\n    /* \"#utility.yul\":20651:20669   */\n  add\n    /* \"#utility.yul\":20638:20669   */\n  swap5\n  pop\n    /* \"#utility.yul\":20512:20516   */\n  0x20\n    /* \"#utility.yul\":20509:20510   */\n  dup2\n    /* \"#utility.yul\":20505:20517   */\n  add\n    /* \"#utility.yul\":20500:20517   */\n  swap1\n  pop\n    /* \"#utility.yul\":20475:20683   */\n  jump(tag_352)\ntag_354:\n    /* \"#utility.yul\":20711:20717   */\n  dup7\n    /* \"#utility.yul\":20702:20709   */\n  dup4\n    /* \"#utility.yul\":20699:20718   */\n  lt\n    /* \"#utility.yul\":20696:20875   */\n  iszero\n  tag_355\n  jumpi\n    /* \"#utility.yul\":20769:20778   */\n  dup5\n    /* \"#utility.yul\":20764:20767   */\n  dup10\n    /* \"#utility.yul\":20760:20779   */\n  add\n    /* \"#utility.yul\":20754:20780   */\n  mload\n    /* \"#utility.yul\":20812:20860   */\n  tag_356\n    /* \"#utility.yul\":20854:20858   */\n  0x1f\n    /* \"#utility.yul\":20846:20852   */\n  dup10\n    /* \"#utility.yul\":20842:20859   */\n  and\n    /* \"#utility.yul\":20831:20840   */\n  dup3\n    /* \"#utility.yul\":20812:20860   */\n  tag_108\n  jump\t// in\ntag_356:\n    /* \"#utility.yul\":20804:20810   */\n  dup4\n    /* \"#utility.yul\":20797:20861   */\n  sstore\n    /* \"#utility.yul\":20719:20875   */\n  pop\n    /* \"#utility.yul\":20696:20875   */\ntag_355:\n    /* \"#utility.yul\":20921:20922   */\n  0x01\n    /* \"#utility.yul\":20917:20918   */\n  0x02\n    /* \"#utility.yul\":20909:20915   */\n  dup9\n    /* \"#utility.yul\":20905:20919   */\n  mul\n    /* \"#utility.yul\":20901:20923   */\n  add\n    /* \"#utility.yul\":20895:20899   */\n  dup9\n    /* \"#utility.yul\":20888:20924   */\n  sstore\n    /* \"#utility.yul\":20324:20934   */\n  pop\n  pop\n  pop\n    /* \"#utility.yul\":20287:21173   */\ntag_347:\n  pop\n    /* \"#utility.yul\":19879:21179   */\n  pop\n  pop\n  pop\n    /* \"#utility.yul\":19789:21179   */\n  pop\n  pop\n  jump\t// out\n    /* \"#utility.yul\":21185:21326   */\ntag_110:\n    /* \"#utility.yul\":21234:21238   */\n  0x00\n    /* \"#utility.yul\":21257:21260   */\n  dup2\n    /* \"#utility.yul\":21249:21260   */\n  swap1\n  pop\n    /* \"#utility.yul\":21280:21283   */\n  dup2\n    /* \"#utility.yul\":21277:21278   */\n  0x00\n    /* \"#utility.yul\":21270:21284   */\n  mstore\n    /* \"#utility.yul\":21314:21318   */\n  0x20\n    /* \"#utility.yul\":21311:21312   */\n  0x00\n    /* \"#utility.yul\":21301:21319   */\n  keccak256\n    /* \"#utility.yul\":21293:21319   */\n  swap1\n  pop\n    /* \"#utility.yul\":21185:21326   */\n  swap2\n  swap1\n  pop\n  jump\t// out\n    /* \"#utility.yul\":21332:21875   */\ntag_111:\n    /* \"#utility.yul\":21433:21435   */\n  0x1f\n    /* \"#utility.yul\":21428:21431   */\n  dup3\n    /* \"#utility.yul\":21425:21436   */\n  gt\n    /* \"#utility.yul\":21422:21868   */\n  iszero\n  tag_359\n  jumpi\n    /* \"#utility.yul\":21467:21505   */\n  tag_360\n    /* \"#utility.yul\":21499:21504   */\n  dup2\n    /* \"#utility.yul\":21467:21505   */\n  tag_110\n  jump\t// in\ntag_360:\n    /* \"#utility.yul\":21551:21580   */\n  tag_361\n    /* \"#utility.yul\":21569:21579   */\n  dup5\n    /* \"#utility.yul\":21551:21580   */\n  tag_96\n  jump\t// in\ntag_361:\n    /* \"#utility.yul\":21541:21549   */\n  dup2\n    /* \"#utility.yul\":21537:21581   */\n  add\n    /* \"#utility.yul\":21734:21736   */\n  0x20\n    /* \"#utility.yul\":21722:21732   */\n  dup6\n    /* \"#utility.yul\":21719:21737   */\n  lt\n    /* \"#utility.yul\":21716:21765   */\n  iszero\n  tag_362\n  jumpi\n    /* \"#utility.yul\":21755:21763   */\n  dup2\n    /* \"#utility.yul\":21740:21763   */\n  swap1\n  pop\n    /* \"#utility.yul\":21716:21765   */\ntag_362:\n    /* \"#utility.yul\":21778:21858   */\n  tag_363\n    /* \"#utility.yul\":21834:21856   */\n  tag_364\n    /* \"#utility.yul\":21852:21855   */\n  dup6\n    /* \"#utility.yul\":21834:21856   */\n  tag_96\n  jump\t// in\ntag_364:\n    /* \"#utility.yul\":21824:21832   */\n  dup4\n    /* \"#utility.yul\":21820:21857   */\n  add\n    /* \"#utility.yul\":21807:21818   */\n  dup3\n    /* \"#utility.yul\":21778:21858   */\n  tag_105\n  jump\t// in\ntag_363:\n    /* \"#utility.yul\":21437:21868   */\n  pop\n  pop\n    /* \"#utility.yul\":21422:21868   */\ntag_359:\n    /* \"#utility.yul\":21332:21875   */\n  pop\n  pop\n  pop\n  jump\t// out\n    /* \"#utility.yul\":21881:23276   */\ntag_34:\n    /* \"#utility.yul\":21998:22035   */\n  tag_366\n    /* \"#utility.yul\":22031:22034   */\n  dup3\n    /* \"#utility.yul\":21998:22035   */\n  tag_89\n  jump\t// in\ntag_366:\n    /* \"#utility.yul\":22100:22118   */\n  0xffffffffffffffff\n    /* \"#utility.yul\":22092:22098   */\n  dup2\n    /* \"#utility.yul\":22089:22119   */\n  gt\n    /* \"#utility.yul\":22086:22142   */\n  iszero\n  tag_367\n  jumpi\n    /* \"#utility.yul\":22122:22140   */\n  tag_368\n  tag_53\n  jump\t// in\ntag_368:\n    /* \"#utility.yul\":22086:22142   */\ntag_367:\n    /* \"#utility.yul\":22166:22204   */\n  tag_369\n    /* \"#utility.yul\":22198:22202   */\n  dup3\n    /* \"#utility.yul\":22192:22203   */\n  sload\n    /* \"#utility.yul\":22166:22204   */\n  tag_94\n  jump\t// in\ntag_369:\n    /* \"#utility.yul\":22251:22318   */\n  tag_370\n    /* \"#utility.yul\":22311:22317   */\n  dup3\n    /* \"#utility.yul\":22303:22309   */\n  dup3\n    /* \"#utility.yul\":22297:22301   */\n  dup6\n    /* \"#utility.yul\":22251:22318   */\n  tag_111\n  jump\t// in\ntag_370:\n    /* \"#utility.yul\":22345:22346   */\n  0x00\n    /* \"#utility.yul\":22369:22373   */\n  0x20\n    /* \"#utility.yul\":22356:22373   */\n  swap1\n  pop\n    /* \"#utility.yul\":22401:22403   */\n  0x1f\n    /* \"#utility.yul\":22393:22399   */\n  dup4\n    /* \"#utility.yul\":22390:22404   */\n  gt\n    /* \"#utility.yul\":22418:22419   */\n  0x01\n    /* \"#utility.yul\":22413:23031   */\n  dup2\n  eq\n  tag_372\n  jumpi\n    /* \"#utility.yul\":23075:23076   */\n  0x00\n    /* \"#utility.yul\":23092:23098   */\n  dup5\n    /* \"#utility.yul\":23089:23166   */\n  iszero\n  tag_373\n  jumpi\n    /* \"#utility.yul\":23141:23150   */\n  dup3\n    /* \"#utility.yul\":23136:23139   */\n  dup8\n    /* \"#utility.yul\":23132:23151   */\n  add\n    /* \"#utility.yul\":23126:23152   */\n  mload\n    /* \"#utility.yul\":23117:23152   */\n  swap1\n  pop\n    /* \"#utility.yul\":23089:23166   */\ntag_373:\n    /* \"#utility.yul\":23192:23259   */\n  tag_374\n    /* \"#utility.yul\":23252:23258   */\n  dup6\n    /* \"#utility.yul\":23245:23250   */\n  dup3\n    /* \"#utility.yul\":23192:23259   */\n  tag_109\n  jump\t// in\ntag_374:\n    /* \"#utility.yul\":23186:23190   */\n  dup7\n    /* \"#utility.yul\":23179:23260   */\n  sstore\n    /* \"#utility.yul\":23048:23270   */\n  pop\n    /* \"#utility.yul\":22383:23270   */\n  jump(tag_371)\n    /* \"#utility.yul\":22413:23031   */\ntag_372:\n    /* \"#utility.yul\":22465:22469   */\n  0x1f\n    /* \"#utility.yul\":22461:22470   */\n  not\n    /* \"#utility.yul\":22453:22459   */\n  dup5\n    /* \"#utility.yul\":22449:22471   */\n  and\n    /* \"#utility.yul\":22499:22536   */\n  tag_375\n    /* \"#utility.yul\":22531:22535   */\n  dup7\n    /* \"#utility.yul\":22499:22536   */\n  tag_110\n  jump\t// in\ntag_375:\n    /* \"#utility.yul\":22558:22559   */\n  0x00\n    /* \"#utility.yul\":22572:22780   */\ntag_376:\n    /* \"#utility.yul\":22586:22593   */\n  dup3\n    /* \"#utility.yul\":22583:22584   */\n  dup2\n    /* \"#utility.yul\":22580:22594   */\n  lt\n    /* \"#utility.yul\":22572:22780   */\n  iszero\n  tag_378\n  jumpi\n    /* \"#utility.yul\":22665:22674   */\n  dup5\n    /* \"#utility.yul\":22660:22663   */\n  dup10\n    /* \"#utility.yul\":22656:22675   */\n  add\n    /* \"#utility.yul\":22650:22676   */\n  mload\n    /* \"#utility.yul\":22642:22648   */\n  dup3\n    /* \"#utility.yul\":22635:22677   */\n  sstore\n    /* \"#utility.yul\":22716:22717   */\n  0x01\n    /* \"#utility.yul\":22708:22714   */\n  dup3\n    /* \"#utility.yul\":22704:22718   */\n  add\n    /* \"#utility.yul\":22694:22718   */\n  swap2\n  pop\n    /* \"#utility.yul\":22763:22765   */\n  0x20\n    /* \"#utility.yul\":22752:22761   */\n  dup6\n    /* \"#utility.yul\":22748:22766   */\n  add\n    /* \"#utility.yul\":22735:22766   */\n  swap5\n  pop\n    /* \"#utility.yul\":22609:22613   */\n  0x20\n    /* \"#utility.yul\":22606:22607   */\n  dup2\n    /* \"#utility.yul\":22602:22614   */\n  add\n    /* \"#utility.yul\":22597:22614   */\n  swap1\n  pop\n    /* \"#utility.yul\":22572:22780   */\n  jump(tag_376)\ntag_378:\n    /* \"#utility.yul\":22808:22814   */\n  dup7\n    /* \"#utility.yul\":22799:22806   */\n  dup4\n    /* \"#utility.yul\":22796:22815   */\n  lt\n    /* \"#utility.yul\":22793:22972   */\n  iszero\n  tag_379\n  jumpi\n    /* \"#utility.yul\":22866:22875   */\n  dup5\n    /* \"#utility.yul\":22861:22864   */\n  dup10\n    /* \"#utility.yul\":22857:22876   */\n  add\n    /* \"#utility.yul\":22851:22877   */\n  mload\n    /* \"#utility.yul\":22909:22957   */\n  tag_380\n    /* \"#utility.yul\":22951:22955   */\n  0x1f\n    /* \"#utility.yul\":22943:22949   */\n  dup10\n    /* \"#utility.yul\":22939:22956   */\n  and\n    /* \"#utility.yul\":22928:22937   */\n  dup3\n    /* \"#utility.yul\":22909:22957   */\n  tag_108\n  jump\t// in\ntag_380:\n    /* \"#utility.yul\":22901:22907   */\n  dup4\n    /* \"#utility.yul\":22894:22958   */\n  sstore\n    /* \"#utility.yul\":22816:22972   */\n  pop\n    /* \"#utility.yul\":22793:22972   */\ntag_379:\n    /* \"#utility.yul\":23018:23019   */\n  0x01\n    /* \"#utility.yul\":23014:23015   */\n  0x02\n    /* \"#utility.yul\":23006:23012   */\n  dup9\n    /* \"#utility.yul\":23002:23016   */\n  mul\n    /* \"#utility.yul\":22998:23020   */\n  add\n    /* \"#utility.yul\":22992:22996   */\n  dup9\n    /* \"#utility.yul\":22985:23021   */\n  sstore\n    /* \"#utility.yul\":22420:23031   */\n  pop\n  pop\n  pop\n    /* \"#utility.yul\":22383:23270   */\ntag_371:\n  pop\n    /* \"#utility.yul\":21973:23276   */\n  pop\n  pop\n  pop\n    /* \"#utility.yul\":21881:23276   */\n  pop\n  pop\n  jump\t// out\n    /* \"#utility.yul\":23282:23400   */\ntag_112:\n    /* \"#utility.yul\":23369:23393   */\n  tag_382\n    /* \"#utility.yul\":23387:23392   */\n  dup2\n    /* \"#utility.yul\":23369:23393   */\n  tag_59\n  jump\t// in\ntag_382:\n    /* \"#utility.yul\":23364:23367   */\n  dup3\n    /* \"#utility.yul\":23357:23394   */\n  mstore\n    /* \"#utility.yul\":23282:23400   */\n  pop\n  pop\n  jump\t// out\n    /* \"#utility.yul\":23406:23517   */\ntag_113:\n    /* \"#utility.yul\":23470:23476   */\n  0x00\n    /* \"#utility.yul\":23504:23509   */\n  dup2\n    /* \"#utility.yul\":23498:23510   */\n  sload\n    /* \"#utility.yul\":23488:23510   */\n  swap1\n  pop\n    /* \"#utility.yul\":23406:23517   */\n  swap2\n  swap1\n  pop\n  jump\t// out\n    /* \"#utility.yul\":23523:23707   */\ntag_114:\n    /* \"#utility.yul\":23622:23633   */\n  0x00\n    /* \"#utility.yul\":23656:23662   */\n  dup3\n    /* \"#utility.yul\":23651:23654   */\n  dup3\n    /* \"#utility.yul\":23644:23663   */\n  mstore\n    /* \"#utility.yul\":23696:23700   */\n  0x20\n    /* \"#utility.yul\":23691:23694   */\n  dup3\n    /* \"#utility.yul\":23687:23701   */\n  add\n    /* \"#utility.yul\":23672:23701   */\n  swap1\n  pop\n    /* \"#utility.yul\":23523:23707   */\n  swap3\n  swap2\n  pop\n  pop\n  jump\t// out\n    /* \"#utility.yul\":23713:23869   */\ntag_115:\n    /* \"#utility.yul\":23777:23781   */\n  0x00\n    /* \"#utility.yul\":23800:23803   */\n  dup2\n    /* \"#utility.yul\":23792:23803   */\n  swap1\n  pop\n    /* \"#utility.yul\":23823:23826   */\n  dup2\n    /* \"#utility.yul\":23820:23821   */\n  0x00\n    /* \"#utility.yul\":23813:23827   */\n  mstore\n    /* \"#utility.yul\":23857:23861   */\n  0x20\n    /* \"#utility.yul\":23854:23855   */\n  0x00\n    /* \"#utility.yul\":23844:23862   */\n  keccak256\n    /* \"#utility.yul\":23836:23862   */\n  swap1\n  pop\n    /* \"#utility.yul\":23713:23869   */\n  swap2\n  swap1\n  pop\n  jump\t// out\n    /* \"#utility.yul\":23875:23983   */\ntag_116:\n    /* \"#utility.yul\":23952:23976   */\n  tag_387\n    /* \"#utility.yul\":23970:23975   */\n  dup2\n    /* \"#utility.yul\":23952:23976   */\n  tag_59\n  jump\t// in\ntag_387:\n    /* \"#utility.yul\":23947:23950   */\n  dup3\n    /* \"#utility.yul\":23940:23977   */\n  mstore\n    /* \"#utility.yul\":23875:23983   */\n  pop\n  pop\n  jump\t// out\n    /* \"#utility.yul\":23989:24168   */\ntag_117:\n    /* \"#utility.yul\":24058:24068   */\n  0x00\n    /* \"#utility.yul\":24079:24125   */\n  tag_389\n    /* \"#utility.yul\":24121:24124   */\n  dup4\n    /* \"#utility.yul\":24113:24119   */\n  dup4\n    /* \"#utility.yul\":24079:24125   */\n  tag_116\n  jump\t// in\ntag_389:\n    /* \"#utility.yul\":24157:24161   */\n  0x20\n    /* \"#utility.yul\":24152:24155   */\n  dup4\n    /* \"#utility.yul\":24148:24162   */\n  add\n    /* \"#utility.yul\":24134:24162   */\n  swap1\n  pop\n    /* \"#utility.yul\":23989:24168   */\n  swap3\n  swap2\n  pop\n  pop\n  jump\t// out\n    /* \"#utility.yul\":24174:24276   */\ntag_118:\n    /* \"#utility.yul\":24216:24224   */\n  0x00\n    /* \"#utility.yul\":24263:24268   */\n  dup2\n    /* \"#utility.yul\":24260:24261   */\n  0x00\n    /* \"#utility.yul\":24256:24269   */\n  shr\n    /* \"#utility.yul\":24235:24269   */\n  swap1\n  pop\n    /* \"#utility.yul\":24174:24276   */\n  swap2\n  swap1\n  pop\n  jump\t// out\n    /* \"#utility.yul\":24282:24421   */\ntag_119:\n    /* \"#utility.yul\":24332:24339   */\n  0x00\n    /* \"#utility.yul\":24372:24414   */\n  0xffffffffffffffffffffffffffffffffffffffff\n    /* \"#utility.yul\":24365:24370   */\n  dup3\n    /* \"#utility.yul\":24361:24415   */\n  and\n    /* \"#utility.yul\":24350:24415   */\n  swap1\n  pop\n    /* \"#utility.yul\":24282:24421   */\n  swap2\n  swap1\n  pop\n  jump\t// out\n    /* \"#utility.yul\":24427:24593   */\ntag_120:\n    /* \"#utility.yul\":24496:24501   */\n  0x00\n    /* \"#utility.yul\":24521:24587   */\n  tag_393\n    /* \"#utility.yul\":24552:24586   */\n  tag_394\n    /* \"#utility.yul\":24575:24585   */\n  dup4\n    /* \"#utility.yul\":24552:24586   */\n  tag_118\n  jump\t// in\ntag_394:\n    /* \"#utility.yul\":24521:24587   */\n  tag_119\n  jump\t// in\ntag_393:\n    /* \"#utility.yul\":24512:24587   */\n  swap1\n  pop\n    /* \"#utility.yul\":24427:24593   */\n  swap2\n  swap1\n  pop\n  jump\t// out\n    /* \"#utility.yul\":24599:24743   */\ntag_121:\n    /* \"#utility.yul\":24654:24659   */\n  0x00\n    /* \"#utility.yul\":24679:24736   */\n  tag_396\n    /* \"#utility.yul\":24730:24734   */\n  dup3\n    /* \"#utility.yul\":24724:24735   */\n  sload\n    /* \"#utility.yul\":24679:24736   */\n  tag_120\n  jump\t// in\ntag_396:\n    /* \"#utility.yul\":24670:24736   */\n  swap1\n  pop\n    /* \"#utility.yul\":24599:24743   */\n  swap2\n  swap1\n  pop\n  jump\t// out\n    /* \"#utility.yul\":24749:24859   */\ntag_122:\n    /* \"#utility.yul\":24816:24820   */\n  0x00\n    /* \"#utility.yul\":24848:24852   */\n  0x01\n    /* \"#utility.yul\":24843:24846   */\n  dup3\n    /* \"#utility.yul\":24839:24853   */\n  add\n    /* \"#utility.yul\":24831:24853   */\n  swap1\n  pop\n    /* \"#utility.yul\":24749:24859   */\n  swap2\n  swap1\n  pop\n  jump\t// out\n    /* \"#utility.yul\":24895:25646   */\ntag_123:\n    /* \"#utility.yul\":25011:25014   */\n  0x00\n    /* \"#utility.yul\":25040:25091   */\n  tag_399\n    /* \"#utility.yul\":25085:25090   */\n  dup3\n    /* \"#utility.yul\":25040:25091   */\n  tag_113\n  jump\t// in\ntag_399:\n    /* \"#utility.yul\":25107:25193   */\n  tag_400\n    /* \"#utility.yul\":25186:25192   */\n  dup2\n    /* \"#utility.yul\":25181:25184   */\n  dup6\n    /* \"#utility.yul\":25107:25193   */\n  tag_114\n  jump\t// in\ntag_400:\n    /* \"#utility.yul\":25100:25193   */\n  swap4\n  pop\n    /* \"#utility.yul\":25217:25270   */\n  tag_401\n    /* \"#utility.yul\":25264:25269   */\n  dup4\n    /* \"#utility.yul\":25217:25270   */\n  tag_115\n  jump\t// in\ntag_401:\n    /* \"#utility.yul\":25293:25300   */\n  dup1\n    /* \"#utility.yul\":25324:25325   */\n  0x00\n    /* \"#utility.yul\":25309:25621   */\ntag_402:\n    /* \"#utility.yul\":25334:25340   */\n  dup4\n    /* \"#utility.yul\":25331:25332   */\n  dup2\n    /* \"#utility.yul\":25328:25341   */\n  lt\n    /* \"#utility.yul\":25309:25621   */\n  iszero\n  tag_404\n  jumpi\n    /* \"#utility.yul\":25404:25448   */\n  tag_405\n    /* \"#utility.yul\":25441:25447   */\n  dup3\n    /* \"#utility.yul\":25404:25448   */\n  tag_121\n  jump\t// in\ntag_405:\n    /* \"#utility.yul\":25468:25531   */\n  tag_406\n    /* \"#utility.yul\":25527:25530   */\n  dup9\n    /* \"#utility.yul\":25512:25525   */\n  dup3\n    /* \"#utility.yul\":25468:25531   */\n  tag_117\n  jump\t// in\ntag_406:\n    /* \"#utility.yul\":25461:25531   */\n  swap8\n  pop\n    /* \"#utility.yul\":25554:25611   */\n  tag_407\n    /* \"#utility.yul\":25604:25610   */\n  dup4\n    /* \"#utility.yul\":25554:25611   */\n  tag_122\n  jump\t// in\ntag_407:\n    /* \"#utility.yul\":25544:25611   */\n  swap3\n  pop\n    /* \"#utility.yul\":25369:25621   */\n  pop\n    /* \"#utility.yul\":25356:25357   */\n  0x01\n    /* \"#utility.yul\":25353:25354   */\n  dup2\n    /* \"#utility.yul\":25349:25358   */\n  add\n    /* \"#utility.yul\":25344:25358   */\n  swap1\n  pop\n    /* \"#utility.yul\":25309:25621   */\n  jump(tag_402)\ntag_404:\n    /* \"#utility.yul\":25313:25327   */\n  pop\n    /* \"#utility.yul\":25637:25640   */\n  dup6\n    /* \"#utility.yul\":25630:25640   */\n  swap4\n  pop\n    /* \"#utility.yul\":25016:25646   */\n  pop\n  pop\n  pop\n    /* \"#utility.yul\":24895:25646   */\n  swap3\n  swap2\n  pop\n  pop\n  jump\t// out\n    /* \"#utility.yul\":25652:25770   */\ntag_124:\n    /* \"#utility.yul\":25739:25763   */\n  tag_409\n    /* \"#utility.yul\":25757:25762   */\n  dup2\n    /* \"#utility.yul\":25739:25763   */\n  tag_78\n  jump\t// in\ntag_409:\n    /* \"#utility.yul\":25734:25737   */\n  dup3\n    /* \"#utility.yul\":25727:25764   */\n  mstore\n    /* \"#utility.yul\":25652:25770   */\n  pop\n  pop\n  jump\t// out\n    /* \"#utility.yul\":25776:26696   */\ntag_46:\n    /* \"#utility.yul\":26056:26060   */\n  0x00\n    /* \"#utility.yul\":26094:26097   */\n  0xc0\n    /* \"#utility.yul\":26083:26092   */\n  dup3\n    /* \"#utility.yul\":26079:26098   */\n  add\n    /* \"#utility.yul\":26071:26098   */\n  swap1\n  pop\n    /* \"#utility.yul\":26108:26179   */\n  tag_411\n    /* \"#utility.yul\":26176:26177   */\n  0x00\n    /* \"#utility.yul\":26165:26174   */\n  dup4\n    /* \"#utility.yul\":26161:26178   */\n  add\n    /* \"#utility.yul\":26152:26158   */\n  dup10\n    /* \"#utility.yul\":26108:26179   */\n  tag_112\n  jump\t// in\ntag_411:\n    /* \"#utility.yul\":26226:26235   */\n  dup2\n    /* \"#utility.yul\":26220:26224   */\n  dup2\n    /* \"#utility.yul\":26216:26236   */\n  sub\n    /* \"#utility.yul\":26211:26213   */\n  0x20\n    /* \"#utility.yul\":26200:26209   */\n  dup4\n    /* \"#utility.yul\":26196:26214   */\n  add\n    /* \"#utility.yul\":26189:26237   */\n  mstore\n    /* \"#utility.yul\":26254:26359   */\n  tag_412\n    /* \"#utility.yul\":26354:26358   */\n  dup2\n    /* \"#utility.yul\":26345:26351   */\n  dup9\n    /* \"#utility.yul\":26254:26359   */\n  tag_123\n  jump\t// in\ntag_412:\n    /* \"#utility.yul\":26246:26359   */\n  swap1\n  pop\n    /* \"#utility.yul\":26369:26441   */\n  tag_413\n    /* \"#utility.yul\":26437:26439   */\n  0x40\n    /* \"#utility.yul\":26426:26435   */\n  dup4\n    /* \"#utility.yul\":26422:26440   */\n  add\n    /* \"#utility.yul\":26413:26419   */\n  dup8\n    /* \"#utility.yul\":26369:26441   */\n  tag_112\n  jump\t// in\ntag_413:\n    /* \"#utility.yul\":26451:26523   */\n  tag_414\n    /* \"#utility.yul\":26519:26521   */\n  0x60\n    /* \"#utility.yul\":26508:26517   */\n  dup4\n    /* \"#utility.yul\":26504:26522   */\n  add\n    /* \"#utility.yul\":26495:26501   */\n  dup7\n    /* \"#utility.yul\":26451:26523   */\n  tag_124\n  jump\t// in\ntag_414:\n    /* \"#utility.yul\":26533:26606   */\n  tag_415\n    /* \"#utility.yul\":26601:26604   */\n  0x80\n    /* \"#utility.yul\":26590:26599   */\n  dup4\n    /* \"#utility.yul\":26586:26605   */\n  add\n    /* \"#utility.yul\":26577:26583   */\n  dup6\n    /* \"#utility.yul\":26533:26606   */\n  tag_124\n  jump\t// in\ntag_415:\n    /* \"#utility.yul\":26616:26689   */\n  tag_416\n    /* \"#utility.yul\":26684:26687   */\n  0xa0\n    /* \"#utility.yul\":26673:26682   */\n  dup4\n    /* \"#utility.yul\":26669:26688   */\n  add\n    /* \"#utility.yul\":26660:26666   */\n  dup5\n    /* \"#utility.yul\":26616:26689   */\n  tag_124\n  jump\t// in\ntag_416:\n    /* \"#utility.yul\":25776:26696   */\n  swap8\n  swap7\n  pop\n  pop\n  pop\n  pop\n  pop\n  pop\n  pop\n  jump\t// out\n    /* \"contracts/SupplyChain.sol\":61:6670  contract SupplyChain {... */\ntag_47:\n  dataSize(sub_0)\n  dup1\n  dataOffset(sub_0)\n  0x00\n  codecopy\n  0x00\n  return\nstop\n\nsub_0: assembly {\n        /* \"contracts/SupplyChain.sol\":61:6670  contract SupplyChain {... */\n      mstore(0x40, 0x80)\n      jumpi(tag_1, lt(calldatasize, 0x04))\n      shr(0xe0, calldataload(0x00))\n      dup1\n      0x742978da\n      gt\n      tag_13\n      jumpi\n      dup1\n      0x742978da\n      eq\n      tag_7\n      jumpi\n      dup1\n      0x79655bd0\n      eq\n      tag_8\n      jumpi\n      dup1\n      0x904e3cff\n      eq\n      tag_9\n      jumpi\n      dup1\n      0x9c01b52f\n      eq\n      tag_10\n      jumpi\n      dup1\n      0xf6dfdad1\n      eq\n      tag_11\n      jumpi\n      dup1\n      0xfbb05337\n      eq\n      tag_12\n      jumpi\n      jump(tag_1)\n    tag_13:\n      dup1\n      0x12065fe0\n      eq\n      tag_2\n      jumpi\n      dup1\n      0x12b58349\n      eq\n      tag_3\n      jumpi\n      dup1\n      0x14a24bcf\n      eq\n      tag_4\n      jumpi\n      dup1\n      0x3f44327a\n      eq\n      tag_5\n      jumpi\n      dup1\n      0x4510fb59\n      eq\n      tag_6\n      jumpi\n    tag_1:\n      0x00\n      dup1\n      revert\n        /* \"contracts/SupplyChain.sol\":6246:6336  function getBalance() public view returns (uint) {... */\n    tag_2:\n      callvalue\n      dup1\n      iszero\n      tag_14\n      jumpi\n      0x00\n      dup1\n      revert\n    tag_14:\n      pop\n      tag_15\n      tag_16\n      jump\t// in\n    tag_15:\n      mload(0x40)\n      tag_17\n      swap2\n      swap1\n      tag_18\n      jump\t// in\n    tag_17:\n      mload(0x40)\n      dup1\n      swap2\n      sub\n      swap1\n      return\n        /* \"contracts/SupplyChain.sol\":6491:6577  function getTotalBalance() public view returns (uint) {... */\n    tag_3:\n      callvalue\n      dup1\n      iszero\n      tag_19\n      jumpi\n      0x00\n      dup1\n      revert\n    tag_19:\n      pop\n      tag_20\n      tag_21\n      jump\t// in\n    tag_20:\n      mload(0x40)\n      tag_22\n      swap2\n      swap1\n      tag_18\n      jump\t// in\n    tag_22:\n      mload(0x40)\n      dup1\n      swap2\n      sub\n      swap1\n      return\n        /* \"contracts/SupplyChain.sol\":5926:6020  function getSupplierAddressWallet() public view returns (address) {... */\n    tag_4:\n      callvalue\n      dup1\n      iszero\n      tag_23\n      jumpi\n      0x00\n      dup1\n      revert\n    tag_23:\n      pop\n      tag_24\n      tag_25\n      jump\t// in\n    tag_24:\n      mload(0x40)\n      tag_26\n      swap2\n      swap1\n      tag_27\n      jump\t// in\n    tag_26:\n      mload(0x40)\n      dup1\n      swap2\n      sub\n      swap1\n      return\n        /* \"contracts/SupplyChain.sol\":5824:5920  function getUserAddressWallet() public view returns (address[] memory) {... */\n    tag_5:\n      callvalue\n      dup1\n      iszero\n      tag_28\n      jumpi\n      0x00\n      dup1\n      revert\n    tag_28:\n      pop\n      tag_29\n      tag_30\n      jump\t// in\n    tag_29:\n      mload(0x40)\n      tag_31\n      swap2\n      swap1\n      tag_32\n      jump\t// in\n    tag_31:\n      mload(0x40)\n      dup1\n      swap2\n      sub\n      swap1\n      return\n        /* \"contracts/SupplyChain.sol\":6026:6240  function sendToSmartContract() public payable onlyPetitioner(msg.sender) {... */\n    tag_6:\n      tag_33\n      tag_34\n      jump\t// in\n    tag_33:\n      stop\n        /* \"contracts/SupplyChain.sol\":6342:6485  function getAssets(address _addressWallet) public view onlyPetitioner(_addressWallet) returns (uint) {... */\n    tag_7:\n      callvalue\n      dup1\n      iszero\n      tag_35\n      jumpi\n      0x00\n      dup1\n      revert\n    tag_35:\n      pop\n      tag_36\n      0x04\n      dup1\n      calldatasize\n      sub\n      dup2\n      add\n      swap1\n      tag_37\n      swap2\n      swap1\n      tag_38\n      jump\t// in\n    tag_37:\n      tag_39\n      jump\t// in\n    tag_36:\n      mload(0x40)\n      tag_40\n      swap2\n      swap1\n      tag_18\n      jump\t// in\n    tag_40:\n      mload(0x40)\n      dup1\n      swap2\n      sub\n      swap1\n      return\n        /* \"contracts/SupplyChain.sol\":6583:6667  function getStages() public view returns (Stage[] memory) {... */\n    tag_8:\n      callvalue\n      dup1\n      iszero\n      tag_41\n      jumpi\n      0x00\n      dup1\n      revert\n    tag_41:\n      pop\n      tag_42\n      tag_43\n      jump\t// in\n    tag_42:\n      mload(0x40)\n      tag_44\n      swap2\n      swap1\n      tag_45\n      jump\t// in\n    tag_44:\n      mload(0x40)\n      dup1\n      swap2\n      sub\n      swap1\n      return\n        /* \"contracts/SupplyChain.sol\":4902:5396  function withDrawByCurrency(... */\n    tag_9:\n      tag_46\n      0x04\n      dup1\n      calldatasize\n      sub\n      dup2\n      add\n      swap1\n      tag_47\n      swap2\n      swap1\n      tag_48\n      jump\t// in\n    tag_47:\n      tag_49\n      jump\t// in\n    tag_46:\n      stop\n        /* \"contracts/SupplyChain.sol\":5730:5818  function getOwnerAddressWallet() public view returns (address) {... */\n    tag_10:\n      callvalue\n      dup1\n      iszero\n      tag_50\n      jumpi\n      0x00\n      dup1\n      revert\n    tag_50:\n      pop\n      tag_51\n      tag_52\n      jump\t// in\n    tag_51:\n      mload(0x40)\n      tag_53\n      swap2\n      swap1\n      tag_27\n      jump\t// in\n    tag_53:\n      mload(0x40)\n      dup1\n      swap2\n      sub\n      swap1\n      return\n        /* \"contracts/SupplyChain.sol\":5402:5724  function getContractInformation() public view returns (string[] memory) {... */\n    tag_11:\n      callvalue\n      dup1\n      iszero\n      tag_54\n      jumpi\n      0x00\n      dup1\n      revert\n    tag_54:\n      pop\n      tag_55\n      tag_56\n      jump\t// in\n    tag_55:\n      mload(0x40)\n      tag_57\n      swap2\n      swap1\n      tag_58\n      jump\t// in\n    tag_57:\n      mload(0x40)\n      dup1\n      swap2\n      sub\n      swap1\n      return\n        /* \"contracts/SupplyChain.sol\":4297:4896  function withDrawByPercent(... */\n    tag_12:\n      tag_59\n      0x04\n      dup1\n      calldatasize\n      sub\n      dup2\n      add\n      swap1\n      tag_60\n      swap2\n      swap1\n      tag_48\n      jump\t// in\n    tag_60:\n      tag_61\n      jump\t// in\n    tag_59:\n      stop\n        /* \"contracts/SupplyChain.sol\":6246:6336  function getBalance() public view returns (uint) {... */\n    tag_16:\n        /* \"contracts/SupplyChain.sol\":6289:6293  uint */\n      0x00\n        /* \"contracts/SupplyChain.sol\":6309:6330  address(this).balance */\n      selfbalance\n        /* \"contracts/SupplyChain.sol\":6302:6330  return address(this).balance */\n      swap1\n      pop\n        /* \"contracts/SupplyChain.sol\":6246:6336  function getBalance() public view returns (uint) {... */\n      swap1\n      jump\t// out\n        /* \"contracts/SupplyChain.sol\":6491:6577  function getTotalBalance() public view returns (uint) {... */\n    tag_21:\n        /* \"contracts/SupplyChain.sol\":6539:6543  uint */\n      0x00\n        /* \"contracts/SupplyChain.sol\":6559:6571  totalBalance */\n      sload(0x06)\n        /* \"contracts/SupplyChain.sol\":6552:6571  return totalBalance */\n      swap1\n      pop\n        /* \"contracts/SupplyChain.sol\":6491:6577  function getTotalBalance() public view returns (uint) {... */\n      swap1\n      jump\t// out\n        /* \"contracts/SupplyChain.sol\":5926:6020  function getSupplierAddressWallet() public view returns (address) {... */\n    tag_25:\n        /* \"contracts/SupplyChain.sol\":5983:5990  address */\n      0x00\n        /* \"contracts/SupplyChain.sol\":6006:6014  supplier */\n      0x03\n      0x00\n      swap1\n      sload\n      swap1\n      0x0100\n      exp\n      swap1\n      div\n      0xffffffffffffffffffffffffffffffffffffffff\n      and\n        /* \"contracts/SupplyChain.sol\":5999:6014  return supplier */\n      swap1\n      pop\n        /* \"contracts/SupplyChain.sol\":5926:6020  function getSupplierAddressWallet() public view returns (address) {... */\n      swap1\n      jump\t// out\n        /* \"contracts/SupplyChain.sol\":5824:5920  function getUserAddressWallet() public view returns (address[] memory) {... */\n    tag_30:\n        /* \"contracts/SupplyChain.sol\":5877:5893  address[] memory */\n      0x60\n        /* \"contracts/SupplyChain.sol\":5909:5914  users */\n      0x01\n        /* \"contracts/SupplyChain.sol\":5902:5914  return users */\n      dup1\n      sload\n      dup1\n      0x20\n      mul\n      0x20\n      add\n      mload(0x40)\n      swap1\n      dup2\n      add\n      0x40\n      mstore\n      dup1\n      swap3\n      swap2\n      swap1\n      dup2\n      dup2\n      mstore\n      0x20\n      add\n      dup3\n      dup1\n      sload\n      dup1\n      iszero\n      tag_66\n      jumpi\n      0x20\n      mul\n      dup3\n      add\n      swap2\n      swap1\n      0x00\n      mstore\n      keccak256(0x00, 0x20)\n      swap1\n    tag_67:\n      dup2\n      0x00\n      swap1\n      sload\n      swap1\n      0x0100\n      exp\n      swap1\n      div\n      0xffffffffffffffffffffffffffffffffffffffff\n      and\n      0xffffffffffffffffffffffffffffffffffffffff\n      and\n      dup2\n      mstore\n      0x20\n      add\n      swap1\n      0x01\n      add\n      swap1\n      dup1\n      dup4\n      gt\n      tag_67\n      jumpi\n    tag_66:\n      pop\n      pop\n      pop\n      pop\n      pop\n      swap1\n      pop\n        /* \"contracts/SupplyChain.sol\":5824:5920  function getUserAddressWallet() public view returns (address[] memory) {... */\n      swap1\n      jump\t// out\n        /* \"contracts/SupplyChain.sol\":6026:6240  function sendToSmartContract() public payable onlyPetitioner(msg.sender) {... */\n    tag_34:\n        /* \"contracts/SupplyChain.sol\":6087:6097  msg.sender */\n      caller\n        /* \"contracts/SupplyChain.sol\":3106:3117  bool handle */\n      0x00\n        /* \"contracts/SupplyChain.sol\":3137:3144  uint8 i */\n      dup1\n        /* \"contracts/SupplyChain.sol\":3132:3270  for (uint8 i = 0; i < users.length; i++) {... */\n    tag_69:\n        /* \"contracts/SupplyChain.sol\":3154:3159  users */\n      0x01\n        /* \"contracts/SupplyChain.sol\":3154:3166  users.length */\n      dup1\n      sload\n      swap1\n      pop\n        /* \"contracts/SupplyChain.sol\":3150:3151  i */\n      dup2\n        /* \"contracts/SupplyChain.sol\":3150:3166  i < users.length */\n      0xff\n      and\n      lt\n        /* \"contracts/SupplyChain.sol\":3132:3270  for (uint8 i = 0; i < users.length; i++) {... */\n      iszero\n      tag_70\n      jumpi\n        /* \"contracts/SupplyChain.sol\":3203:3208  users */\n      0x01\n        /* \"contracts/SupplyChain.sol\":3209:3210  i */\n      dup2\n        /* \"contracts/SupplyChain.sol\":3203:3211  users[i] */\n      0xff\n      and\n      dup2\n      sload\n      dup2\n      lt\n      tag_72\n      jumpi\n      tag_73\n      tag_74\n      jump\t// in\n    tag_73:\n    tag_72:\n      swap1\n      0x00\n      mstore\n      keccak256(0x00, 0x20)\n      add\n      0x00\n      swap1\n      sload\n      swap1\n      0x0100\n      exp\n      swap1\n      div\n      0xffffffffffffffffffffffffffffffffffffffff\n      and\n        /* \"contracts/SupplyChain.sol\":3186:3211  addressWallet == users[i] */\n      0xffffffffffffffffffffffffffffffffffffffff\n      and\n        /* \"contracts/SupplyChain.sol\":3186:3199  addressWallet */\n      dup4\n        /* \"contracts/SupplyChain.sol\":3186:3211  addressWallet == users[i] */\n      0xffffffffffffffffffffffffffffffffffffffff\n      and\n      sub\n        /* \"contracts/SupplyChain.sol\":3182:3263  if (addressWallet == users[i]) {... */\n      tag_76\n      jumpi\n        /* \"contracts/SupplyChain.sol\":3233:3237  true */\n      0x01\n        /* \"contracts/SupplyChain.sol\":3224:3237  handle = true */\n      swap2\n      pop\n        /* \"contracts/SupplyChain.sol\":3248:3253  break */\n      jump(tag_70)\n        /* \"contracts/SupplyChain.sol\":3182:3263  if (addressWallet == users[i]) {... */\n    tag_76:\n        /* \"contracts/SupplyChain.sol\":3168:3171  i++ */\n      dup1\n      dup1\n      tag_77\n      swap1\n      tag_78\n      jump\t// in\n    tag_77:\n      swap2\n      pop\n      pop\n        /* \"contracts/SupplyChain.sol\":3132:3270  for (uint8 i = 0; i < users.length; i++) {... */\n      jump(tag_69)\n    tag_70:\n      pop\n        /* \"contracts/SupplyChain.sol\":3284:3290  handle */\n      dup1\n        /* \"contracts/SupplyChain.sol\":3276:3351  require(handle, 'Only participant without supplier can call this function') */\n      tag_79\n      jumpi\n      mload(0x40)\n      0x08c379a000000000000000000000000000000000000000000000000000000000\n      dup2\n      mstore\n      0x04\n      add\n      tag_80\n      swap1\n      tag_81\n      jump\t// in\n    tag_80:\n      mload(0x40)\n      dup1\n      swap2\n      sub\n      swap1\n      revert\n    tag_79:\n        /* \"contracts/SupplyChain.sol\":6128:6137  msg.value */\n      callvalue\n        /* \"contracts/SupplyChain.sol\":6106:6112  assets */\n      0x02\n        /* \"contracts/SupplyChain.sol\":6106:6124  assets[msg.sender] */\n      0x00\n        /* \"contracts/SupplyChain.sol\":6113:6123  msg.sender */\n      caller\n        /* \"contracts/SupplyChain.sol\":6106:6124  assets[msg.sender] */\n      0xffffffffffffffffffffffffffffffffffffffff\n      and\n      0xffffffffffffffffffffffffffffffffffffffff\n      and\n      dup2\n      mstore\n      0x20\n      add\n      swap1\n      dup2\n      mstore\n      0x20\n      add\n      0x00\n      keccak256\n      0x00\n        /* \"contracts/SupplyChain.sol\":6106:6137  assets[msg.sender] += msg.value */\n      dup3\n      dup3\n      sload\n      tag_83\n      swap2\n      swap1\n      tag_84\n      jump\t// in\n    tag_83:\n      swap3\n      pop\n      pop\n      dup2\n      swap1\n      sstore\n      pop\n        /* \"contracts/SupplyChain.sol\":6149:6234  received(msg.sender, msg.value, totalBalance, address(this).balance, block.timestamp) */\n      0xe4f13824473bb5d7c83a33648a5b781337db89c57cdfdb2caf2c87a9ca0391f6\n        /* \"contracts/SupplyChain.sol\":6158:6168  msg.sender */\n      caller\n        /* \"contracts/SupplyChain.sol\":6170:6179  msg.value */\n      callvalue\n        /* \"contracts/SupplyChain.sol\":6181:6193  totalBalance */\n      sload(0x06)\n        /* \"contracts/SupplyChain.sol\":6195:6216  address(this).balance */\n      selfbalance\n        /* \"contracts/SupplyChain.sol\":6218:6233  block.timestamp */\n      timestamp\n        /* \"contracts/SupplyChain.sol\":6149:6234  received(msg.sender, msg.value, totalBalance, address(this).balance, block.timestamp) */\n      mload(0x40)\n      tag_85\n      swap6\n      swap5\n      swap4\n      swap3\n      swap2\n      swap1\n      tag_86\n      jump\t// in\n    tag_85:\n      mload(0x40)\n      dup1\n      swap2\n      sub\n      swap1\n      log1\n        /* \"contracts/SupplyChain.sol\":3099:3365  {... */\n      pop\n        /* \"contracts/SupplyChain.sol\":6026:6240  function sendToSmartContract() public payable onlyPetitioner(msg.sender) {... */\n      pop\n      jump\t// out\n        /* \"contracts/SupplyChain.sol\":6342:6485  function getAssets(address _addressWallet) public view onlyPetitioner(_addressWallet) returns (uint) {... */\n    tag_39:\n        /* \"contracts/SupplyChain.sol\":6437:6441  uint */\n      0x00\n        /* \"contracts/SupplyChain.sol\":6412:6426  _addressWallet */\n      dup2\n        /* \"contracts/SupplyChain.sol\":3106:3117  bool handle */\n      0x00\n        /* \"contracts/SupplyChain.sol\":3137:3144  uint8 i */\n      dup1\n        /* \"contracts/SupplyChain.sol\":3132:3270  for (uint8 i = 0; i < users.length; i++) {... */\n    tag_88:\n        /* \"contracts/SupplyChain.sol\":3154:3159  users */\n      0x01\n        /* \"contracts/SupplyChain.sol\":3154:3166  users.length */\n      dup1\n      sload\n      swap1\n      pop\n        /* \"contracts/SupplyChain.sol\":3150:3151  i */\n      dup2\n        /* \"contracts/SupplyChain.sol\":3150:3166  i < users.length */\n      0xff\n      and\n      lt\n        /* \"contracts/SupplyChain.sol\":3132:3270  for (uint8 i = 0; i < users.length; i++) {... */\n      iszero\n      tag_89\n      jumpi\n        /* \"contracts/SupplyChain.sol\":3203:3208  users */\n      0x01\n        /* \"contracts/SupplyChain.sol\":3209:3210  i */\n      dup2\n        /* \"contracts/SupplyChain.sol\":3203:3211  users[i] */\n      0xff\n      and\n      dup2\n      sload\n      dup2\n      lt\n      tag_91\n      jumpi\n      tag_92\n      tag_74\n      jump\t// in\n    tag_92:\n    tag_91:\n      swap1\n      0x00\n      mstore\n      keccak256(0x00, 0x20)\n      add\n      0x00\n      swap1\n      sload\n      swap1\n      0x0100\n      exp\n      swap1\n      div\n      0xffffffffffffffffffffffffffffffffffffffff\n      and\n        /* \"contracts/SupplyChain.sol\":3186:3211  addressWallet == users[i] */\n      0xffffffffffffffffffffffffffffffffffffffff\n      and\n        /* \"contracts/SupplyChain.sol\":3186:3199  addressWallet */\n      dup4\n        /* \"contracts/SupplyChain.sol\":3186:3211  addressWallet == users[i] */\n      0xffffffffffffffffffffffffffffffffffffffff\n      and\n      sub\n        /* \"contracts/SupplyChain.sol\":3182:3263  if (addressWallet == users[i]) {... */\n      tag_94\n      jumpi\n        /* \"contracts/SupplyChain.sol\":3233:3237  true */\n      0x01\n        /* \"contracts/SupplyChain.sol\":3224:3237  handle = true */\n      swap2\n      pop\n        /* \"contracts/SupplyChain.sol\":3248:3253  break */\n      jump(tag_89)\n        /* \"contracts/SupplyChain.sol\":3182:3263  if (addressWallet == users[i]) {... */\n    tag_94:\n        /* \"contracts/SupplyChain.sol\":3168:3171  i++ */\n      dup1\n      dup1\n      tag_95\n      swap1\n      tag_78\n      jump\t// in\n    tag_95:\n      swap2\n      pop\n      pop\n        /* \"contracts/SupplyChain.sol\":3132:3270  for (uint8 i = 0; i < users.length; i++) {... */\n      jump(tag_88)\n    tag_89:\n      pop\n        /* \"contracts/SupplyChain.sol\":3284:3290  handle */\n      dup1\n        /* \"contracts/SupplyChain.sol\":3276:3351  require(handle, 'Only participant without supplier can call this function') */\n      tag_96\n      jumpi\n      mload(0x40)\n      0x08c379a000000000000000000000000000000000000000000000000000000000\n      dup2\n      mstore\n      0x04\n      add\n      tag_97\n      swap1\n      tag_81\n      jump\t// in\n    tag_97:\n      mload(0x40)\n      dup1\n      swap2\n      sub\n      swap1\n      revert\n    tag_96:\n        /* \"contracts/SupplyChain.sol\":6457:6463  assets */\n      0x02\n        /* \"contracts/SupplyChain.sol\":6457:6479  assets[_addressWallet] */\n      0x00\n        /* \"contracts/SupplyChain.sol\":6464:6478  _addressWallet */\n      dup6\n        /* \"contracts/SupplyChain.sol\":6457:6479  assets[_addressWallet] */\n      0xffffffffffffffffffffffffffffffffffffffff\n      and\n      0xffffffffffffffffffffffffffffffffffffffff\n      and\n      dup2\n      mstore\n      0x20\n      add\n      swap1\n      dup2\n      mstore\n      0x20\n      add\n      0x00\n      keccak256\n      sload\n        /* \"contracts/SupplyChain.sol\":6450:6479  return assets[_addressWallet] */\n      swap3\n      pop\n        /* \"contracts/SupplyChain.sol\":3099:3365  {... */\n      pop\n        /* \"contracts/SupplyChain.sol\":6342:6485  function getAssets(address _addressWallet) public view onlyPetitioner(_addressWallet) returns (uint) {... */\n      pop\n      swap2\n      swap1\n      pop\n      jump\t// out\n        /* \"contracts/SupplyChain.sol\":6583:6667  function getStages() public view returns (Stage[] memory) {... */\n    tag_43:\n        /* \"contracts/SupplyChain.sol\":6625:6639  Stage[] memory */\n      0x60\n        /* \"contracts/SupplyChain.sol\":6655:6661  stages */\n      0x07\n        /* \"contracts/SupplyChain.sol\":6648:6661  return stages */\n      dup1\n      sload\n      dup1\n      0x20\n      mul\n      0x20\n      add\n      mload(0x40)\n      swap1\n      dup2\n      add\n      0x40\n      mstore\n      dup1\n      swap3\n      swap2\n      swap1\n      dup2\n      dup2\n      mstore\n      0x20\n      add\n      0x00\n      swap1\n    tag_100:\n      dup3\n      dup3\n      lt\n      iszero\n      tag_101\n      jumpi\n      dup4\n      dup3\n      swap1\n      0x00\n      mstore\n      keccak256(0x00, 0x20)\n      swap1\n      0x03\n      mul\n      add\n      mload(0x40)\n      dup1\n      0xa0\n      add\n      0x40\n      mstore\n      swap1\n      dup2\n      0x00\n      dup3\n      add\n      sload\n      dup2\n      mstore\n      0x20\n      add\n      0x01\n      dup3\n      add\n      sload\n      dup2\n      mstore\n      0x20\n      add\n      0x02\n      dup3\n      add\n      0x00\n      swap1\n      sload\n      swap1\n      0x0100\n      exp\n      swap1\n      div\n      0xff\n      and\n      iszero\n      iszero\n      iszero\n      iszero\n      dup2\n      mstore\n      0x20\n      add\n      0x02\n      dup3\n      add\n      0x01\n      swap1\n      sload\n      swap1\n      0x0100\n      exp\n      swap1\n      div\n      0xff\n      and\n      iszero\n      iszero\n      iszero\n      iszero\n      dup2\n      mstore\n      0x20\n      add\n      0x02\n      dup3\n      add\n      0x02\n      swap1\n      sload\n      swap1\n      0x0100\n      exp\n      swap1\n      div\n      0xff\n      and\n      iszero\n      iszero\n      iszero\n      iszero\n      dup2\n      mstore\n      pop\n      pop\n      dup2\n      mstore\n      0x20\n      add\n      swap1\n      0x01\n      add\n      swap1\n      jump(tag_100)\n    tag_101:\n      pop\n      pop\n      pop\n      pop\n      swap1\n      pop\n        /* \"contracts/SupplyChain.sol\":6583:6667  function getStages() public view returns (Stage[] memory) {... */\n      swap1\n      jump\t// out\n        /* \"contracts/SupplyChain.sol\":4902:5396  function withDrawByCurrency(... */\n    tag_49:\n        /* \"contracts/SupplyChain.sol\":5021:5031  msg.sender */\n      caller\n        /* \"contracts/SupplyChain.sol\":3106:3117  bool handle */\n      0x00\n        /* \"contracts/SupplyChain.sol\":3137:3144  uint8 i */\n      dup1\n        /* \"contracts/SupplyChain.sol\":3132:3270  for (uint8 i = 0; i < users.length; i++) {... */\n    tag_104:\n        /* \"contracts/SupplyChain.sol\":3154:3159  users */\n      0x01\n        /* \"contracts/SupplyChain.sol\":3154:3166  users.length */\n      dup1\n      sload\n      swap1\n      pop\n        /* \"contracts/SupplyChain.sol\":3150:3151  i */\n      dup2\n        /* \"contracts/SupplyChain.sol\":3150:3166  i < users.length */\n      0xff\n      and\n      lt\n        /* \"contracts/SupplyChain.sol\":3132:3270  for (uint8 i = 0; i < users.length; i++) {... */\n      iszero\n      tag_105\n      jumpi\n        /* \"contracts/SupplyChain.sol\":3203:3208  users */\n      0x01\n        /* \"contracts/SupplyChain.sol\":3209:3210  i */\n      dup2\n        /* \"contracts/SupplyChain.sol\":3203:3211  users[i] */\n      0xff\n      and\n      dup2\n      sload\n      dup2\n      lt\n      tag_107\n      jumpi\n      tag_108\n      tag_74\n      jump\t// in\n    tag_108:\n    tag_107:\n      swap1\n      0x00\n      mstore\n      keccak256(0x00, 0x20)\n      add\n      0x00\n      swap1\n      sload\n      swap1\n      0x0100\n      exp\n      swap1\n      div\n      0xffffffffffffffffffffffffffffffffffffffff\n      and\n        /* \"contracts/SupplyChain.sol\":3186:3211  addressWallet == users[i] */\n      0xffffffffffffffffffffffffffffffffffffffff\n      and\n        /* \"contracts/SupplyChain.sol\":3186:3199  addressWallet */\n      dup4\n        /* \"contracts/SupplyChain.sol\":3186:3211  addressWallet == users[i] */\n      0xffffffffffffffffffffffffffffffffffffffff\n      and\n      sub\n        /* \"contracts/SupplyChain.sol\":3182:3263  if (addressWallet == users[i]) {... */\n      tag_110\n      jumpi\n        /* \"contracts/SupplyChain.sol\":3233:3237  true */\n      0x01\n        /* \"contracts/SupplyChain.sol\":3224:3237  handle = true */\n      swap2\n      pop\n        /* \"contracts/SupplyChain.sol\":3248:3253  break */\n      jump(tag_105)\n        /* \"contracts/SupplyChain.sol\":3182:3263  if (addressWallet == users[i]) {... */\n    tag_110:\n        /* \"contracts/SupplyChain.sol\":3168:3171  i++ */\n      dup1\n      dup1\n      tag_111\n      swap1\n      tag_78\n      jump\t// in\n    tag_111:\n      swap2\n      pop\n      pop\n        /* \"contracts/SupplyChain.sol\":3132:3270  for (uint8 i = 0; i < users.length; i++) {... */\n      jump(tag_104)\n    tag_105:\n      pop\n        /* \"contracts/SupplyChain.sol\":3284:3290  handle */\n      dup1\n        /* \"contracts/SupplyChain.sol\":3276:3351  require(handle, 'Only participant without supplier can call this function') */\n      tag_112\n      jumpi\n      mload(0x40)\n      0x08c379a000000000000000000000000000000000000000000000000000000000\n      dup2\n      mstore\n      0x04\n      add\n      tag_113\n      swap1\n      tag_81\n      jump\t// in\n    tag_113:\n      mload(0x40)\n      dup1\n      swap2\n      sub\n      swap1\n      revert\n    tag_112:\n        /* \"contracts/SupplyChain.sol\":5050:5064  _addressWallet */\n      dup4\n        /* \"contracts/SupplyChain.sol\":2774:2785  bool handle */\n      0x00\n        /* \"contracts/SupplyChain.sol\":2805:2812  uint8 i */\n      dup1\n        /* \"contracts/SupplyChain.sol\":2800:2938  for (uint8 i = 0; i < users.length; i++) {... */\n    tag_115:\n        /* \"contracts/SupplyChain.sol\":2822:2827  users */\n      0x01\n        /* \"contracts/SupplyChain.sol\":2822:2834  users.length */\n      dup1\n      sload\n      swap1\n      pop\n        /* \"contracts/SupplyChain.sol\":2818:2819  i */\n      dup2\n        /* \"contracts/SupplyChain.sol\":2818:2834  i < users.length */\n      0xff\n      and\n      lt\n        /* \"contracts/SupplyChain.sol\":2800:2938  for (uint8 i = 0; i < users.length; i++) {... */\n      iszero\n      tag_116\n      jumpi\n        /* \"contracts/SupplyChain.sol\":2871:2876  users */\n      0x01\n        /* \"contracts/SupplyChain.sol\":2877:2878  i */\n      dup2\n        /* \"contracts/SupplyChain.sol\":2871:2879  users[i] */\n      0xff\n      and\n      dup2\n      sload\n      dup2\n      lt\n      tag_118\n      jumpi\n      tag_119\n      tag_74\n      jump\t// in\n    tag_119:\n    tag_118:\n      swap1\n      0x00\n      mstore\n      keccak256(0x00, 0x20)\n      add\n      0x00\n      swap1\n      sload\n      swap1\n      0x0100\n      exp\n      swap1\n      div\n      0xffffffffffffffffffffffffffffffffffffffff\n      and\n        /* \"contracts/SupplyChain.sol\":2854:2879  addressWallet == users[i] */\n      0xffffffffffffffffffffffffffffffffffffffff\n      and\n        /* \"contracts/SupplyChain.sol\":2854:2867  addressWallet */\n      dup4\n        /* \"contracts/SupplyChain.sol\":2854:2879  addressWallet == users[i] */\n      0xffffffffffffffffffffffffffffffffffffffff\n      and\n      sub\n        /* \"contracts/SupplyChain.sol\":2850:2931  if (addressWallet == users[i]) {... */\n      tag_121\n      jumpi\n        /* \"contracts/SupplyChain.sol\":2901:2905  true */\n      0x01\n        /* \"contracts/SupplyChain.sol\":2892:2905  handle = true */\n      swap2\n      pop\n        /* \"contracts/SupplyChain.sol\":2916:2921  break */\n      jump(tag_116)\n        /* \"contracts/SupplyChain.sol\":2850:2931  if (addressWallet == users[i]) {... */\n    tag_121:\n        /* \"contracts/SupplyChain.sol\":2836:2839  i++ */\n      dup1\n      dup1\n      tag_122\n      swap1\n      tag_78\n      jump\t// in\n    tag_122:\n      swap2\n      pop\n      pop\n        /* \"contracts/SupplyChain.sol\":2800:2938  for (uint8 i = 0; i < users.length; i++) {... */\n      jump(tag_115)\n    tag_116:\n      pop\n        /* \"contracts/SupplyChain.sol\":2952:2958  handle */\n      dup1\n        /* \"contracts/SupplyChain.sol\":2952:2987  handle || addressWallet == supplier */\n      dup1\n      tag_123\n      jumpi\n      pop\n        /* \"contracts/SupplyChain.sol\":2979:2987  supplier */\n      0x03\n      0x00\n      swap1\n      sload\n      swap1\n      0x0100\n      exp\n      swap1\n      div\n      0xffffffffffffffffffffffffffffffffffffffff\n      and\n        /* \"contracts/SupplyChain.sol\":2962:2987  addressWallet == supplier */\n      0xffffffffffffffffffffffffffffffffffffffff\n      and\n        /* \"contracts/SupplyChain.sol\":2962:2975  addressWallet */\n      dup3\n        /* \"contracts/SupplyChain.sol\":2962:2987  addressWallet == supplier */\n      0xffffffffffffffffffffffffffffffffffffffff\n      and\n      eq\n        /* \"contracts/SupplyChain.sol\":2952:2987  handle || addressWallet == supplier */\n    tag_123:\n        /* \"contracts/SupplyChain.sol\":2944:3032  require(handle || addressWallet == supplier, 'Only participant or supplier can receive') */\n      tag_124\n      jumpi\n      mload(0x40)\n      0x08c379a000000000000000000000000000000000000000000000000000000000\n      dup2\n      mstore\n      0x04\n      add\n      tag_125\n      swap1\n      tag_126\n      jump\t// in\n    tag_125:\n      mload(0x40)\n      dup1\n      swap2\n      sub\n      swap1\n      revert\n    tag_124:\n        /* \"contracts/SupplyChain.sol\":5082:5089  _amount */\n      dup5\n        /* \"contracts/SupplyChain.sol\":3450:3457  _amount */\n      dup1\n        /* \"contracts/SupplyChain.sol\":3425:3446  address(this).balance */\n      selfbalance\n        /* \"contracts/SupplyChain.sol\":3425:3457  address(this).balance >= _amount */\n      lt\n      iszero\n        /* \"contracts/SupplyChain.sol\":3417:3479  require(address(this).balance >= _amount, 'Not enough ethers') */\n      tag_128\n      jumpi\n      mload(0x40)\n      0x08c379a000000000000000000000000000000000000000000000000000000000\n      dup2\n      mstore\n      0x04\n      add\n      tag_129\n      swap1\n      tag_130\n      jump\t// in\n    tag_129:\n      mload(0x40)\n      dup1\n      swap2\n      sub\n      swap1\n      revert\n    tag_128:\n        /* \"contracts/SupplyChain.sol\":5120:5128  supplier */\n      0x03\n      0x00\n      swap1\n      sload\n      swap1\n      0x0100\n      exp\n      swap1\n      div\n      0xffffffffffffffffffffffffffffffffffffffff\n      and\n        /* \"contracts/SupplyChain.sol\":5102:5128  _addressWallet != supplier */\n      0xffffffffffffffffffffffffffffffffffffffff\n      and\n        /* \"contracts/SupplyChain.sol\":5102:5116  _addressWallet */\n      dup8\n        /* \"contracts/SupplyChain.sol\":5102:5128  _addressWallet != supplier */\n      0xffffffffffffffffffffffffffffffffffffffff\n      and\n      eq\n        /* \"contracts/SupplyChain.sol\":5098:5252  if (_addressWallet != supplier) {... */\n      tag_132\n      jumpi\n        /* \"contracts/SupplyChain.sol\":5173:5180  _amount */\n      dup6\n        /* \"contracts/SupplyChain.sol\":5147:5153  assets */\n      0x02\n        /* \"contracts/SupplyChain.sol\":5147:5169  assets[_addressWallet] */\n      0x00\n        /* \"contracts/SupplyChain.sol\":5154:5168  _addressWallet */\n      dup10\n        /* \"contracts/SupplyChain.sol\":5147:5169  assets[_addressWallet] */\n      0xffffffffffffffffffffffffffffffffffffffff\n      and\n      0xffffffffffffffffffffffffffffffffffffffff\n      and\n      dup2\n      mstore\n      0x20\n      add\n      swap1\n      dup2\n      mstore\n      0x20\n      add\n      0x00\n      keccak256\n      sload\n        /* \"contracts/SupplyChain.sol\":5147:5180  assets[_addressWallet] >= _amount */\n      lt\n      iszero\n        /* \"contracts/SupplyChain.sol\":5139:5202  require(assets[_addressWallet] >= _amount, 'Not enough assets') */\n      tag_133\n      jumpi\n      mload(0x40)\n      0x08c379a000000000000000000000000000000000000000000000000000000000\n      dup2\n      mstore\n      0x04\n      add\n      tag_134\n      swap1\n      tag_135\n      jump\t// in\n    tag_134:\n      mload(0x40)\n      dup1\n      swap2\n      sub\n      swap1\n      revert\n    tag_133:\n        /* \"contracts/SupplyChain.sol\":5237:5244  _amount */\n      dup6\n        /* \"contracts/SupplyChain.sol\":5211:5217  assets */\n      0x02\n        /* \"contracts/SupplyChain.sol\":5211:5233  assets[_addressWallet] */\n      0x00\n        /* \"contracts/SupplyChain.sol\":5218:5232  _addressWallet */\n      dup10\n        /* \"contracts/SupplyChain.sol\":5211:5233  assets[_addressWallet] */\n      0xffffffffffffffffffffffffffffffffffffffff\n      and\n      0xffffffffffffffffffffffffffffffffffffffff\n      and\n      dup2\n      mstore\n      0x20\n      add\n      swap1\n      dup2\n      mstore\n      0x20\n      add\n      0x00\n      keccak256\n      0x00\n        /* \"contracts/SupplyChain.sol\":5211:5244  assets[_addressWallet] -= _amount */\n      dup3\n      dup3\n      sload\n      tag_136\n      swap2\n      swap1\n      tag_137\n      jump\t// in\n    tag_136:\n      swap3\n      pop\n      pop\n      dup2\n      swap1\n      sstore\n      pop\n        /* \"contracts/SupplyChain.sol\":5098:5252  if (_addressWallet != supplier) {... */\n    tag_132:\n        /* \"contracts/SupplyChain.sol\":5258:5272  _addressWallet */\n      dup7\n        /* \"contracts/SupplyChain.sol\":5258:5281  _addressWallet.transfer */\n      0xffffffffffffffffffffffffffffffffffffffff\n      and\n        /* \"contracts/SupplyChain.sol\":5258:5290  _addressWallet.transfer(_amount) */\n      0x08fc\n        /* \"contracts/SupplyChain.sol\":5282:5289  _amount */\n      dup8\n        /* \"contracts/SupplyChain.sol\":5258:5290  _addressWallet.transfer(_amount) */\n      swap1\n      dup2\n      iszero\n      mul\n      swap1\n      mload(0x40)\n      0x00\n      mload(0x40)\n      dup1\n      dup4\n      sub\n      dup2\n      dup6\n      dup9\n      dup9\n      call\n      swap4\n      pop\n      pop\n      pop\n      pop\n      iszero\n      dup1\n      iszero\n      tag_139\n      jumpi\n      returndatasize\n      0x00\n      dup1\n      returndatacopy\n      revert(0x00, returndatasize)\n    tag_139:\n      pop\n        /* \"contracts/SupplyChain.sol\":5302:5390  widthdrew(_addressWallet, _amount, totalBalance, address(this).balance, block.timestamp) */\n      0x132717cc7ce0e7288e4e1e75cd3527373df35d716a6d9d576199b1ee22b15923\n        /* \"contracts/SupplyChain.sol\":5312:5326  _addressWallet */\n      dup8\n        /* \"contracts/SupplyChain.sol\":5328:5335  _amount */\n      dup8\n        /* \"contracts/SupplyChain.sol\":5337:5349  totalBalance */\n      sload(0x06)\n        /* \"contracts/SupplyChain.sol\":5351:5372  address(this).balance */\n      selfbalance\n        /* \"contracts/SupplyChain.sol\":5374:5389  block.timestamp */\n      timestamp\n        /* \"contracts/SupplyChain.sol\":5302:5390  widthdrew(_addressWallet, _amount, totalBalance, address(this).balance, block.timestamp) */\n      mload(0x40)\n      tag_140\n      swap6\n      swap5\n      swap4\n      swap3\n      swap2\n      swap1\n      tag_141\n      jump\t// in\n    tag_140:\n      mload(0x40)\n      dup1\n      swap2\n      sub\n      swap1\n      log1\n        /* \"contracts/SupplyChain.sol\":3039:3040  _ */\n      pop\n        /* \"contracts/SupplyChain.sol\":2767:3046  {... */\n      pop\n        /* \"contracts/SupplyChain.sol\":3358:3359  _ */\n      pop\n        /* \"contracts/SupplyChain.sol\":3099:3365  {... */\n      pop\n        /* \"contracts/SupplyChain.sol\":4902:5396  function withDrawByCurrency(... */\n      pop\n      pop\n      pop\n      jump\t// out\n        /* \"contracts/SupplyChain.sol\":5730:5818  function getOwnerAddressWallet() public view returns (address) {... */\n    tag_52:\n        /* \"contracts/SupplyChain.sol\":5784:5791  address */\n      0x00\n        /* \"contracts/SupplyChain.sol\":5807:5812  owner */\n      dup1\n      0x00\n      swap1\n      sload\n      swap1\n      0x0100\n      exp\n      swap1\n      div\n      0xffffffffffffffffffffffffffffffffffffffff\n      and\n        /* \"contracts/SupplyChain.sol\":5800:5812  return owner */\n      swap1\n      pop\n        /* \"contracts/SupplyChain.sol\":5730:5818  function getOwnerAddressWallet() public view returns (address) {... */\n      swap1\n      jump\t// out\n        /* \"contracts/SupplyChain.sol\":5402:5724  function getContractInformation() public view returns (string[] memory) {... */\n    tag_56:\n        /* \"contracts/SupplyChain.sol\":5457:5472  string[] memory */\n      0x60\n        /* \"contracts/SupplyChain.sol\":5481:5503  string[] memory values */\n      0x00\n        /* \"contracts/SupplyChain.sol\":5519:5542  contractInformationKeys */\n      0x05\n        /* \"contracts/SupplyChain.sol\":5519:5549  contractInformationKeys.length */\n      dup1\n      sload\n      swap1\n      pop\n        /* \"contracts/SupplyChain.sol\":5506:5550  new string[](contractInformationKeys.length) */\n      0xffffffffffffffff\n      dup2\n      gt\n      iszero\n      tag_144\n      jumpi\n      tag_145\n      tag_146\n      jump\t// in\n    tag_145:\n    tag_144:\n      mload(0x40)\n      swap1\n      dup1\n      dup3\n      mstore\n      dup1\n      0x20\n      mul\n      0x20\n      add\n      dup3\n      add\n      0x40\n      mstore\n      dup1\n      iszero\n      tag_147\n      jumpi\n      dup2\n      0x20\n      add\n    tag_148:\n      0x60\n      dup2\n      mstore\n      0x20\n      add\n      swap1\n      0x01\n      swap1\n      sub\n      swap1\n      dup2\n      tag_148\n      jumpi\n      swap1\n      pop\n    tag_147:\n      pop\n        /* \"contracts/SupplyChain.sol\":5481:5550  string[] memory values = new string[](contractInformationKeys.length) */\n      swap1\n      pop\n        /* \"contracts/SupplyChain.sol\":5562:5568  uint i */\n      0x00\n        /* \"contracts/SupplyChain.sol\":5557:5699  for (uint i = 0; i < contractInformationKeys.length; i++) {... */\n    tag_149:\n        /* \"contracts/SupplyChain.sol\":5578:5601  contractInformationKeys */\n      0x05\n        /* \"contracts/SupplyChain.sol\":5578:5608  contractInformationKeys.length */\n      dup1\n      sload\n      swap1\n      pop\n        /* \"contracts/SupplyChain.sol\":5574:5575  i */\n      dup2\n        /* \"contracts/SupplyChain.sol\":5574:5608  i < contractInformationKeys.length */\n      lt\n        /* \"contracts/SupplyChain.sol\":5557:5699  for (uint i = 0; i < contractInformationKeys.length; i++) {... */\n      iszero\n      tag_150\n      jumpi\n        /* \"contracts/SupplyChain.sol\":5643:5662  contractInformation */\n      0x04\n        /* \"contracts/SupplyChain.sol\":5663:5686  contractInformationKeys */\n      0x05\n        /* \"contracts/SupplyChain.sol\":5687:5688  i */\n      dup3\n        /* \"contracts/SupplyChain.sol\":5663:5689  contractInformationKeys[i] */\n      dup2\n      sload\n      dup2\n      lt\n      tag_152\n      jumpi\n      tag_153\n      tag_74\n      jump\t// in\n    tag_153:\n    tag_152:\n      swap1\n      0x00\n      mstore\n      keccak256(0x00, 0x20)\n      add\n        /* \"contracts/SupplyChain.sol\":5643:5690  contractInformation[contractInformationKeys[i]] */\n      mload(0x40)\n      tag_155\n      swap2\n      swap1\n      tag_156\n      jump\t// in\n    tag_155:\n      swap1\n      dup2\n      mstore\n      0x20\n      add\n      mload(0x40)\n      dup1\n      swap2\n      sub\n      swap1\n      keccak256\n        /* \"contracts/SupplyChain.sol\":5624:5691  values[i] = string(contractInformation[contractInformationKeys[i]]) */\n      dup1\n      sload\n      tag_157\n      swap1\n      tag_158\n      jump\t// in\n    tag_157:\n      dup1\n      0x1f\n      add\n      0x20\n      dup1\n      swap2\n      div\n      mul\n      0x20\n      add\n      mload(0x40)\n      swap1\n      dup2\n      add\n      0x40\n      mstore\n      dup1\n      swap3\n      swap2\n      swap1\n      dup2\n      dup2\n      mstore\n      0x20\n      add\n      dup3\n      dup1\n      sload\n      tag_159\n      swap1\n      tag_158\n      jump\t// in\n    tag_159:\n      dup1\n      iszero\n      tag_160\n      jumpi\n      dup1\n      0x1f\n      lt\n      tag_161\n      jumpi\n      0x0100\n      dup1\n      dup4\n      sload\n      div\n      mul\n      dup4\n      mstore\n      swap2\n      0x20\n      add\n      swap2\n      jump(tag_160)\n    tag_161:\n      dup3\n      add\n      swap2\n      swap1\n      0x00\n      mstore\n      keccak256(0x00, 0x20)\n      swap1\n    tag_162:\n      dup2\n      sload\n      dup2\n      mstore\n      swap1\n      0x01\n      add\n      swap1\n      0x20\n      add\n      dup1\n      dup4\n      gt\n      tag_162\n      jumpi\n      dup3\n      swap1\n      sub\n      0x1f\n      and\n      dup3\n      add\n      swap2\n    tag_160:\n      pop\n      pop\n      pop\n      pop\n      pop\n        /* \"contracts/SupplyChain.sol\":5624:5630  values */\n      dup3\n        /* \"contracts/SupplyChain.sol\":5631:5632  i */\n      dup3\n        /* \"contracts/SupplyChain.sol\":5624:5633  values[i] */\n      dup2\n      mload\n      dup2\n      lt\n      tag_163\n      jumpi\n      tag_164\n      tag_74\n      jump\t// in\n    tag_164:\n    tag_163:\n      0x20\n      mul\n      0x20\n      add\n      add\n        /* \"contracts/SupplyChain.sol\":5624:5691  values[i] = string(contractInformation[contractInformationKeys[i]]) */\n      dup2\n      swap1\n      mstore\n      pop\n        /* \"contracts/SupplyChain.sol\":5610:5613  i++ */\n      dup1\n      dup1\n      0x01\n      add\n      swap2\n      pop\n      pop\n        /* \"contracts/SupplyChain.sol\":5557:5699  for (uint i = 0; i < contractInformationKeys.length; i++) {... */\n      jump(tag_149)\n    tag_150:\n      pop\n        /* \"contracts/SupplyChain.sol\":5712:5718  values */\n      dup1\n        /* \"contracts/SupplyChain.sol\":5705:5718  return values */\n      swap2\n      pop\n      pop\n        /* \"contracts/SupplyChain.sol\":5402:5724  function getContractInformation() public view returns (string[] memory) {... */\n      swap1\n      jump\t// out\n        /* \"contracts/SupplyChain.sol\":4297:4896  function withDrawByPercent(... */\n    tag_61:\n        /* \"contracts/SupplyChain.sol\":4431:4441  msg.sender */\n      caller\n        /* \"contracts/SupplyChain.sol\":3106:3117  bool handle */\n      0x00\n        /* \"contracts/SupplyChain.sol\":3137:3144  uint8 i */\n      dup1\n        /* \"contracts/SupplyChain.sol\":3132:3270  for (uint8 i = 0; i < users.length; i++) {... */\n    tag_166:\n        /* \"contracts/SupplyChain.sol\":3154:3159  users */\n      0x01\n        /* \"contracts/SupplyChain.sol\":3154:3166  users.length */\n      dup1\n      sload\n      swap1\n      pop\n        /* \"contracts/SupplyChain.sol\":3150:3151  i */\n      dup2\n        /* \"contracts/SupplyChain.sol\":3150:3166  i < users.length */\n      0xff\n      and\n      lt\n        /* \"contracts/SupplyChain.sol\":3132:3270  for (uint8 i = 0; i < users.length; i++) {... */\n      iszero\n      tag_167\n      jumpi\n        /* \"contracts/SupplyChain.sol\":3203:3208  users */\n      0x01\n        /* \"contracts/SupplyChain.sol\":3209:3210  i */\n      dup2\n        /* \"contracts/SupplyChain.sol\":3203:3211  users[i] */\n      0xff\n      and\n      dup2\n      sload\n      dup2\n      lt\n      tag_169\n      jumpi\n      tag_170\n      tag_74\n      jump\t// in\n    tag_170:\n    tag_169:\n      swap1\n      0x00\n      mstore\n      keccak256(0x00, 0x20)\n      add\n      0x00\n      swap1\n      sload\n      swap1\n      0x0100\n      exp\n      swap1\n      div\n      0xffffffffffffffffffffffffffffffffffffffff\n      and\n        /* \"contracts/SupplyChain.sol\":3186:3211  addressWallet == users[i] */\n      0xffffffffffffffffffffffffffffffffffffffff\n      and\n        /* \"contracts/SupplyChain.sol\":3186:3199  addressWallet */\n      dup4\n        /* \"contracts/SupplyChain.sol\":3186:3211  addressWallet == users[i] */\n      0xffffffffffffffffffffffffffffffffffffffff\n      and\n      sub\n        /* \"contracts/SupplyChain.sol\":3182:3263  if (addressWallet == users[i]) {... */\n      tag_172\n      jumpi\n        /* \"contracts/SupplyChain.sol\":3233:3237  true */\n      0x01\n        /* \"contracts/SupplyChain.sol\":3224:3237  handle = true */\n      swap2\n      pop\n        /* \"contracts/SupplyChain.sol\":3248:3253  break */\n      jump(tag_167)\n        /* \"contracts/SupplyChain.sol\":3182:3263  if (addressWallet == users[i]) {... */\n    tag_172:\n        /* \"contracts/SupplyChain.sol\":3168:3171  i++ */\n      dup1\n      dup1\n      tag_173\n      swap1\n      tag_78\n      jump\t// in\n    tag_173:\n      swap2\n      pop\n      pop\n        /* \"contracts/SupplyChain.sol\":3132:3270  for (uint8 i = 0; i < users.length; i++) {... */\n      jump(tag_166)\n    tag_167:\n      pop\n        /* \"contracts/SupplyChain.sol\":3284:3290  handle */\n      dup1\n        /* \"contracts/SupplyChain.sol\":3276:3351  require(handle, 'Only participant without supplier can call this function') */\n      tag_174\n      jumpi\n      mload(0x40)\n      0x08c379a000000000000000000000000000000000000000000000000000000000\n      dup2\n      mstore\n      0x04\n      add\n      tag_175\n      swap1\n      tag_81\n      jump\t// in\n    tag_175:\n      mload(0x40)\n      dup1\n      swap2\n      sub\n      swap1\n      revert\n    tag_174:\n        /* \"contracts/SupplyChain.sol\":4465:4479  _addressWallet */\n      dup4\n        /* \"contracts/SupplyChain.sol\":2774:2785  bool handle */\n      0x00\n        /* \"contracts/SupplyChain.sol\":2805:2812  uint8 i */\n      dup1\n        /* \"contracts/SupplyChain.sol\":2800:2938  for (uint8 i = 0; i < users.length; i++) {... */\n    tag_177:\n        /* \"contracts/SupplyChain.sol\":2822:2827  users */\n      0x01\n        /* \"contracts/SupplyChain.sol\":2822:2834  users.length */\n      dup1\n      sload\n      swap1\n      pop\n        /* \"contracts/SupplyChain.sol\":2818:2819  i */\n      dup2\n        /* \"contracts/SupplyChain.sol\":2818:2834  i < users.length */\n      0xff\n      and\n      lt\n        /* \"contracts/SupplyChain.sol\":2800:2938  for (uint8 i = 0; i < users.length; i++) {... */\n      iszero\n      tag_178\n      jumpi\n        /* \"contracts/SupplyChain.sol\":2871:2876  users */\n      0x01\n        /* \"contracts/SupplyChain.sol\":2877:2878  i */\n      dup2\n        /* \"contracts/SupplyChain.sol\":2871:2879  users[i] */\n      0xff\n      and\n      dup2\n      sload\n      dup2\n      lt\n      tag_180\n      jumpi\n      tag_181\n      tag_74\n      jump\t// in\n    tag_181:\n    tag_180:\n      swap1\n      0x00\n      mstore\n      keccak256(0x00, 0x20)\n      add\n      0x00\n      swap1\n      sload\n      swap1\n      0x0100\n      exp\n      swap1\n      div\n      0xffffffffffffffffffffffffffffffffffffffff\n      and\n        /* \"contracts/SupplyChain.sol\":2854:2879  addressWallet == users[i] */\n      0xffffffffffffffffffffffffffffffffffffffff\n      and\n        /* \"contracts/SupplyChain.sol\":2854:2867  addressWallet */\n      dup4\n        /* \"contracts/SupplyChain.sol\":2854:2879  addressWallet == users[i] */\n      0xffffffffffffffffffffffffffffffffffffffff\n      and\n      sub\n        /* \"contracts/SupplyChain.sol\":2850:2931  if (addressWallet == users[i]) {... */\n      tag_183\n      jumpi\n        /* \"contracts/SupplyChain.sol\":2901:2905  true */\n      0x01\n        /* \"contracts/SupplyChain.sol\":2892:2905  handle = true */\n      swap2\n      pop\n        /* \"contracts/SupplyChain.sol\":2916:2921  break */\n      jump(tag_178)\n        /* \"contracts/SupplyChain.sol\":2850:2931  if (addressWallet == users[i]) {... */\n    tag_183:\n        /* \"contracts/SupplyChain.sol\":2836:2839  i++ */\n      dup1\n      dup1\n      tag_184\n      swap1\n      tag_78\n      jump\t// in\n    tag_184:\n      swap2\n      pop\n      pop\n        /* \"contracts/SupplyChain.sol\":2800:2938  for (uint8 i = 0; i < users.length; i++) {... */\n      jump(tag_177)\n    tag_178:\n      pop\n        /* \"contracts/SupplyChain.sol\":2952:2958  handle */\n      dup1\n        /* \"contracts/SupplyChain.sol\":2952:2987  handle || addressWallet == supplier */\n      dup1\n      tag_185\n      jumpi\n      pop\n        /* \"contracts/SupplyChain.sol\":2979:2987  supplier */\n      0x03\n      0x00\n      swap1\n      sload\n      swap1\n      0x0100\n      exp\n      swap1\n      div\n      0xffffffffffffffffffffffffffffffffffffffff\n      and\n        /* \"contracts/SupplyChain.sol\":2962:2987  addressWallet == supplier */\n      0xffffffffffffffffffffffffffffffffffffffff\n      and\n        /* \"contracts/SupplyChain.sol\":2962:2975  addressWallet */\n      dup3\n        /* \"contracts/SupplyChain.sol\":2962:2987  addressWallet == supplier */\n      0xffffffffffffffffffffffffffffffffffffffff\n      and\n      eq\n        /* \"contracts/SupplyChain.sol\":2952:2987  handle || addressWallet == supplier */\n    tag_185:\n        /* \"contracts/SupplyChain.sol\":2944:3032  require(handle || addressWallet == supplier, 'Only participant or supplier can receive') */\n      tag_186\n      jumpi\n      mload(0x40)\n      0x08c379a000000000000000000000000000000000000000000000000000000000\n      dup2\n      mstore\n      0x04\n      add\n      tag_187\n      swap1\n      tag_126\n      jump\t// in\n    tag_187:\n      mload(0x40)\n      dup1\n      swap2\n      sub\n      swap1\n      revert\n    tag_186:\n        /* \"contracts/SupplyChain.sol\":4530:4533  100 */\n      0x64\n        /* \"contracts/SupplyChain.sol\":4518:4526  _percent */\n      dup6\n        /* \"contracts/SupplyChain.sol\":4503:4515  totalBalance */\n      sload(0x06)\n        /* \"contracts/SupplyChain.sol\":4503:4526  totalBalance * _percent */\n      tag_188\n      swap2\n      swap1\n      tag_189\n      jump\t// in\n    tag_188:\n        /* \"contracts/SupplyChain.sol\":4502:4533  (totalBalance * _percent) / 100 */\n      tag_190\n      swap2\n      swap1\n      tag_191\n      jump\t// in\n    tag_190:\n        /* \"contracts/SupplyChain.sol\":3450:3457  _amount */\n      dup1\n        /* \"contracts/SupplyChain.sol\":3425:3446  address(this).balance */\n      selfbalance\n        /* \"contracts/SupplyChain.sol\":3425:3457  address(this).balance >= _amount */\n      lt\n      iszero\n        /* \"contracts/SupplyChain.sol\":3417:3479  require(address(this).balance >= _amount, 'Not enough ethers') */\n      tag_193\n      jumpi\n      mload(0x40)\n      0x08c379a000000000000000000000000000000000000000000000000000000000\n      dup2\n      mstore\n      0x04\n      add\n      tag_194\n      swap1\n      tag_130\n      jump\t// in\n    tag_194:\n      mload(0x40)\n      dup1\n      swap2\n      sub\n      swap1\n      revert\n    tag_193:\n        /* \"contracts/SupplyChain.sol\":4545:4557  uint _amount */\n      0x00\n        /* \"contracts/SupplyChain.sol\":4588:4591  100 */\n      0x64\n        /* \"contracts/SupplyChain.sol\":4576:4584  _percent */\n      dup8\n        /* \"contracts/SupplyChain.sol\":4561:4573  totalBalance */\n      sload(0x06)\n        /* \"contracts/SupplyChain.sol\":4561:4584  totalBalance * _percent */\n      tag_196\n      swap2\n      swap1\n      tag_189\n      jump\t// in\n    tag_196:\n        /* \"contracts/SupplyChain.sol\":4560:4591  (totalBalance * _percent) / 100 */\n      tag_197\n      swap2\n      swap1\n      tag_191\n      jump\t// in\n    tag_197:\n        /* \"contracts/SupplyChain.sol\":4545:4591  uint _amount = (totalBalance * _percent) / 100 */\n      swap1\n      pop\n        /* \"contracts/SupplyChain.sol\":4620:4628  supplier */\n      0x03\n      0x00\n      swap1\n      sload\n      swap1\n      0x0100\n      exp\n      swap1\n      div\n      0xffffffffffffffffffffffffffffffffffffffff\n      and\n        /* \"contracts/SupplyChain.sol\":4602:4628  _addressWallet != supplier */\n      0xffffffffffffffffffffffffffffffffffffffff\n      and\n        /* \"contracts/SupplyChain.sol\":4602:4616  _addressWallet */\n      dup9\n        /* \"contracts/SupplyChain.sol\":4602:4628  _addressWallet != supplier */\n      0xffffffffffffffffffffffffffffffffffffffff\n      and\n      eq\n        /* \"contracts/SupplyChain.sol\":4598:4752  if (_addressWallet != supplier) {... */\n      tag_198\n      jumpi\n        /* \"contracts/SupplyChain.sol\":4673:4680  _amount */\n      dup1\n        /* \"contracts/SupplyChain.sol\":4647:4653  assets */\n      0x02\n        /* \"contracts/SupplyChain.sol\":4647:4669  assets[_addressWallet] */\n      0x00\n        /* \"contracts/SupplyChain.sol\":4654:4668  _addressWallet */\n      dup11\n        /* \"contracts/SupplyChain.sol\":4647:4669  assets[_addressWallet] */\n      0xffffffffffffffffffffffffffffffffffffffff\n      and\n      0xffffffffffffffffffffffffffffffffffffffff\n      and\n      dup2\n      mstore\n      0x20\n      add\n      swap1\n      dup2\n      mstore\n      0x20\n      add\n      0x00\n      keccak256\n      sload\n        /* \"contracts/SupplyChain.sol\":4647:4680  assets[_addressWallet] >= _amount */\n      lt\n      iszero\n        /* \"contracts/SupplyChain.sol\":4639:4702  require(assets[_addressWallet] >= _amount, 'Not enough assets') */\n      tag_199\n      jumpi\n      mload(0x40)\n      0x08c379a000000000000000000000000000000000000000000000000000000000\n      dup2\n      mstore\n      0x04\n      add\n      tag_200\n      swap1\n      tag_135\n      jump\t// in\n    tag_200:\n      mload(0x40)\n      dup1\n      swap2\n      sub\n      swap1\n      revert\n    tag_199:\n        /* \"contracts/SupplyChain.sol\":4737:4744  _amount */\n      dup1\n        /* \"contracts/SupplyChain.sol\":4711:4717  assets */\n      0x02\n        /* \"contracts/SupplyChain.sol\":4711:4733  assets[_addressWallet] */\n      0x00\n        /* \"contracts/SupplyChain.sol\":4718:4732  _addressWallet */\n      dup11\n        /* \"contracts/SupplyChain.sol\":4711:4733  assets[_addressWallet] */\n      0xffffffffffffffffffffffffffffffffffffffff\n      and\n      0xffffffffffffffffffffffffffffffffffffffff\n      and\n      dup2\n      mstore\n      0x20\n      add\n      swap1\n      dup2\n      mstore\n      0x20\n      add\n      0x00\n      keccak256\n      0x00\n        /* \"contracts/SupplyChain.sol\":4711:4744  assets[_addressWallet] -= _amount */\n      dup3\n      dup3\n      sload\n      tag_201\n      swap2\n      swap1\n      tag_137\n      jump\t// in\n    tag_201:\n      swap3\n      pop\n      pop\n      dup2\n      swap1\n      sstore\n      pop\n        /* \"contracts/SupplyChain.sol\":4598:4752  if (_addressWallet != supplier) {... */\n    tag_198:\n        /* \"contracts/SupplyChain.sol\":4758:4772  _addressWallet */\n      dup8\n        /* \"contracts/SupplyChain.sol\":4758:4781  _addressWallet.transfer */\n      0xffffffffffffffffffffffffffffffffffffffff\n      and\n        /* \"contracts/SupplyChain.sol\":4758:4790  _addressWallet.transfer(_amount) */\n      0x08fc\n        /* \"contracts/SupplyChain.sol\":4782:4789  _amount */\n      dup3\n        /* \"contracts/SupplyChain.sol\":4758:4790  _addressWallet.transfer(_amount) */\n      swap1\n      dup2\n      iszero\n      mul\n      swap1\n      mload(0x40)\n      0x00\n      mload(0x40)\n      dup1\n      dup4\n      sub\n      dup2\n      dup6\n      dup9\n      dup9\n      call\n      swap4\n      pop\n      pop\n      pop\n      pop\n      iszero\n      dup1\n      iszero\n      tag_203\n      jumpi\n      returndatasize\n      0x00\n      dup1\n      returndatacopy\n      revert(0x00, returndatasize)\n    tag_203:\n      pop\n        /* \"contracts/SupplyChain.sol\":4802:4890  widthdrew(_addressWallet, _amount, totalBalance, address(this).balance, block.timestamp) */\n      0x132717cc7ce0e7288e4e1e75cd3527373df35d716a6d9d576199b1ee22b15923\n        /* \"contracts/SupplyChain.sol\":4812:4826  _addressWallet */\n      dup9\n        /* \"contracts/SupplyChain.sol\":4828:4835  _amount */\n      dup3\n        /* \"contracts/SupplyChain.sol\":4837:4849  totalBalance */\n      sload(0x06)\n        /* \"contracts/SupplyChain.sol\":4851:4872  address(this).balance */\n      selfbalance\n        /* \"contracts/SupplyChain.sol\":4874:4889  block.timestamp */\n      timestamp\n        /* \"contracts/SupplyChain.sol\":4802:4890  widthdrew(_addressWallet, _amount, totalBalance, address(this).balance, block.timestamp) */\n      mload(0x40)\n      tag_204\n      swap6\n      swap5\n      swap4\n      swap3\n      swap2\n      swap1\n      tag_141\n      jump\t// in\n    tag_204:\n      mload(0x40)\n      dup1\n      swap2\n      sub\n      swap1\n      log1\n        /* \"contracts/SupplyChain.sol\":4538:4896  {... */\n      pop\n        /* \"contracts/SupplyChain.sol\":3039:3040  _ */\n      pop\n        /* \"contracts/SupplyChain.sol\":2767:3046  {... */\n      pop\n        /* \"contracts/SupplyChain.sol\":3358:3359  _ */\n      pop\n        /* \"contracts/SupplyChain.sol\":3099:3365  {... */\n      pop\n        /* \"contracts/SupplyChain.sol\":4297:4896  function withDrawByPercent(... */\n      pop\n      pop\n      pop\n      jump\t// out\n        /* \"#utility.yul\":7:84   */\n    tag_205:\n        /* \"#utility.yul\":44:51   */\n      0x00\n        /* \"#utility.yul\":73:78   */\n      dup2\n        /* \"#utility.yul\":62:78   */\n      swap1\n      pop\n        /* \"#utility.yul\":7:84   */\n      swap2\n      swap1\n      pop\n      jump\t// out\n        /* \"#utility.yul\":90:208   */\n    tag_206:\n        /* \"#utility.yul\":177:201   */\n      tag_272\n        /* \"#utility.yul\":195:200   */\n      dup2\n        /* \"#utility.yul\":177:201   */\n      tag_205\n      jump\t// in\n    tag_272:\n        /* \"#utility.yul\":172:175   */\n      dup3\n        /* \"#utility.yul\":165:202   */\n      mstore\n        /* \"#utility.yul\":90:208   */\n      pop\n      pop\n      jump\t// out\n        /* \"#utility.yul\":214:436   */\n    tag_18:\n        /* \"#utility.yul\":307:311   */\n      0x00\n        /* \"#utility.yul\":345:347   */\n      0x20\n        /* \"#utility.yul\":334:343   */\n      dup3\n        /* \"#utility.yul\":330:348   */\n      add\n        /* \"#utility.yul\":322:348   */\n      swap1\n      pop\n        /* \"#utility.yul\":358:429   */\n      tag_274\n        /* \"#utility.yul\":426:427   */\n      0x00\n        /* \"#utility.yul\":415:424   */\n      dup4\n        /* \"#utility.yul\":411:428   */\n      add\n        /* \"#utility.yul\":402:408   */\n      dup5\n        /* \"#utility.yul\":358:429   */\n      tag_206\n      jump\t// in\n    tag_274:\n        /* \"#utility.yul\":214:436   */\n      swap3\n      swap2\n      pop\n      pop\n      jump\t// out\n        /* \"#utility.yul\":442:568   */\n    tag_207:\n        /* \"#utility.yul\":479:486   */\n      0x00\n        /* \"#utility.yul\":519:561   */\n      0xffffffffffffffffffffffffffffffffffffffff\n        /* \"#utility.yul\":512:517   */\n      dup3\n        /* \"#utility.yul\":508:562   */\n      and\n        /* \"#utility.yul\":497:562   */\n      swap1\n      pop\n        /* \"#utility.yul\":442:568   */\n      swap2\n      swap1\n      pop\n      jump\t// out\n        /* \"#utility.yul\":574:670   */\n    tag_208:\n        /* \"#utility.yul\":611:618   */\n      0x00\n        /* \"#utility.yul\":640:664   */\n      tag_277\n        /* \"#utility.yul\":658:663   */\n      dup3\n        /* \"#utility.yul\":640:664   */\n      tag_207\n      jump\t// in\n    tag_277:\n        /* \"#utility.yul\":629:664   */\n      swap1\n      pop\n        /* \"#utility.yul\":574:670   */\n      swap2\n      swap1\n      pop\n      jump\t// out\n        /* \"#utility.yul\":676:794   */\n    tag_209:\n        /* \"#utility.yul\":763:787   */\n      tag_279\n        /* \"#utility.yul\":781:786   */\n      dup2\n        /* \"#utility.yul\":763:787   */\n      tag_208\n      jump\t// in\n    tag_279:\n        /* \"#utility.yul\":758:761   */\n      dup3\n        /* \"#utility.yul\":751:788   */\n      mstore\n        /* \"#utility.yul\":676:794   */\n      pop\n      pop\n      jump\t// out\n        /* \"#utility.yul\":800:1022   */\n    tag_27:\n        /* \"#utility.yul\":893:897   */\n      0x00\n        /* \"#utility.yul\":931:933   */\n      0x20\n        /* \"#utility.yul\":920:929   */\n      dup3\n        /* \"#utility.yul\":916:934   */\n      add\n        /* \"#utility.yul\":908:934   */\n      swap1\n      pop\n        /* \"#utility.yul\":944:1015   */\n      tag_281\n        /* \"#utility.yul\":1012:1013   */\n      0x00\n        /* \"#utility.yul\":1001:1010   */\n      dup4\n        /* \"#utility.yul\":997:1014   */\n      add\n        /* \"#utility.yul\":988:994   */\n      dup5\n        /* \"#utility.yul\":944:1015   */\n      tag_209\n      jump\t// in\n    tag_281:\n        /* \"#utility.yul\":800:1022   */\n      swap3\n      swap2\n      pop\n      pop\n      jump\t// out\n        /* \"#utility.yul\":1028:1142   */\n    tag_210:\n        /* \"#utility.yul\":1095:1101   */\n      0x00\n        /* \"#utility.yul\":1129:1134   */\n      dup2\n        /* \"#utility.yul\":1123:1135   */\n      mload\n        /* \"#utility.yul\":1113:1135   */\n      swap1\n      pop\n        /* \"#utility.yul\":1028:1142   */\n      swap2\n      swap1\n      pop\n      jump\t// out\n        /* \"#utility.yul\":1148:1332   */\n    tag_211:\n        /* \"#utility.yul\":1247:1258   */\n      0x00\n        /* \"#utility.yul\":1281:1287   */\n      dup3\n        /* \"#utility.yul\":1276:1279   */\n      dup3\n        /* \"#utility.yul\":1269:1288   */\n      mstore\n        /* \"#utility.yul\":1321:1325   */\n      0x20\n        /* \"#utility.yul\":1316:1319   */\n      dup3\n        /* \"#utility.yul\":1312:1326   */\n      add\n        /* \"#utility.yul\":1297:1326   */\n      swap1\n      pop\n        /* \"#utility.yul\":1148:1332   */\n      swap3\n      swap2\n      pop\n      pop\n      jump\t// out\n        /* \"#utility.yul\":1338:1470   */\n    tag_212:\n        /* \"#utility.yul\":1405:1409   */\n      0x00\n        /* \"#utility.yul\":1428:1431   */\n      dup2\n        /* \"#utility.yul\":1420:1431   */\n      swap1\n      pop\n        /* \"#utility.yul\":1458:1462   */\n      0x20\n        /* \"#utility.yul\":1453:1456   */\n      dup3\n        /* \"#utility.yul\":1449:1463   */\n      add\n        /* \"#utility.yul\":1441:1463   */\n      swap1\n      pop\n        /* \"#utility.yul\":1338:1470   */\n      swap2\n      swap1\n      pop\n      jump\t// out\n        /* \"#utility.yul\":1476:1584   */\n    tag_213:\n        /* \"#utility.yul\":1553:1577   */\n      tag_286\n        /* \"#utility.yul\":1571:1576   */\n      dup2\n        /* \"#utility.yul\":1553:1577   */\n      tag_208\n      jump\t// in\n    tag_286:\n        /* \"#utility.yul\":1548:1551   */\n      dup3\n        /* \"#utility.yul\":1541:1578   */\n      mstore\n        /* \"#utility.yul\":1476:1584   */\n      pop\n      pop\n      jump\t// out\n        /* \"#utility.yul\":1590:1769   */\n    tag_214:\n        /* \"#utility.yul\":1659:1669   */\n      0x00\n        /* \"#utility.yul\":1680:1726   */\n      tag_288\n        /* \"#utility.yul\":1722:1725   */\n      dup4\n        /* \"#utility.yul\":1714:1720   */\n      dup4\n        /* \"#utility.yul\":1680:1726   */\n      tag_213\n      jump\t// in\n    tag_288:\n        /* \"#utility.yul\":1758:1762   */\n      0x20\n        /* \"#utility.yul\":1753:1756   */\n      dup4\n        /* \"#utility.yul\":1749:1763   */\n      add\n        /* \"#utility.yul\":1735:1763   */\n      swap1\n      pop\n        /* \"#utility.yul\":1590:1769   */\n      swap3\n      swap2\n      pop\n      pop\n      jump\t// out\n        /* \"#utility.yul\":1775:1888   */\n    tag_215:\n        /* \"#utility.yul\":1845:1849   */\n      0x00\n        /* \"#utility.yul\":1877:1881   */\n      0x20\n        /* \"#utility.yul\":1872:1875   */\n      dup3\n        /* \"#utility.yul\":1868:1882   */\n      add\n        /* \"#utility.yul\":1860:1882   */\n      swap1\n      pop\n        /* \"#utility.yul\":1775:1888   */\n      swap2\n      swap1\n      pop\n      jump\t// out\n        /* \"#utility.yul\":1924:2656   */\n    tag_216:\n        /* \"#utility.yul\":2043:2046   */\n      0x00\n        /* \"#utility.yul\":2072:2126   */\n      tag_291\n        /* \"#utility.yul\":2120:2125   */\n      dup3\n        /* \"#utility.yul\":2072:2126   */\n      tag_210\n      jump\t// in\n    tag_291:\n        /* \"#utility.yul\":2142:2228   */\n      tag_292\n        /* \"#utility.yul\":2221:2227   */\n      dup2\n        /* \"#utility.yul\":2216:2219   */\n      dup6\n        /* \"#utility.yul\":2142:2228   */\n      tag_211\n      jump\t// in\n    tag_292:\n        /* \"#utility.yul\":2135:2228   */\n      swap4\n      pop\n        /* \"#utility.yul\":2252:2308   */\n      tag_293\n        /* \"#utility.yul\":2302:2307   */\n      dup4\n        /* \"#utility.yul\":2252:2308   */\n      tag_212\n      jump\t// in\n    tag_293:\n        /* \"#utility.yul\":2331:2338   */\n      dup1\n        /* \"#utility.yul\":2362:2363   */\n      0x00\n        /* \"#utility.yul\":2347:2631   */\n    tag_294:\n        /* \"#utility.yul\":2372:2378   */\n      dup4\n        /* \"#utility.yul\":2369:2370   */\n      dup2\n        /* \"#utility.yul\":2366:2379   */\n      lt\n        /* \"#utility.yul\":2347:2631   */\n      iszero\n      tag_296\n      jumpi\n        /* \"#utility.yul\":2448:2454   */\n      dup2\n        /* \"#utility.yul\":2442:2455   */\n      mload\n        /* \"#utility.yul\":2475:2538   */\n      tag_297\n        /* \"#utility.yul\":2534:2537   */\n      dup9\n        /* \"#utility.yul\":2519:2532   */\n      dup3\n        /* \"#utility.yul\":2475:2538   */\n      tag_214\n      jump\t// in\n    tag_297:\n        /* \"#utility.yul\":2468:2538   */\n      swap8\n      pop\n        /* \"#utility.yul\":2561:2621   */\n      tag_298\n        /* \"#utility.yul\":2614:2620   */\n      dup4\n        /* \"#utility.yul\":2561:2621   */\n      tag_215\n      jump\t// in\n    tag_298:\n        /* \"#utility.yul\":2551:2621   */\n      swap3\n      pop\n        /* \"#utility.yul\":2407:2631   */\n      pop\n        /* \"#utility.yul\":2394:2395   */\n      0x01\n        /* \"#utility.yul\":2391:2392   */\n      dup2\n        /* \"#utility.yul\":2387:2396   */\n      add\n        /* \"#utility.yul\":2382:2396   */\n      swap1\n      pop\n        /* \"#utility.yul\":2347:2631   */\n      jump(tag_294)\n    tag_296:\n        /* \"#utility.yul\":2351:2365   */\n      pop\n        /* \"#utility.yul\":2647:2650   */\n      dup6\n        /* \"#utility.yul\":2640:2650   */\n      swap4\n      pop\n        /* \"#utility.yul\":2048:2656   */\n      pop\n      pop\n      pop\n        /* \"#utility.yul\":1924:2656   */\n      swap3\n      swap2\n      pop\n      pop\n      jump\t// out\n        /* \"#utility.yul\":2662:3035   */\n    tag_32:\n        /* \"#utility.yul\":2805:2809   */\n      0x00\n        /* \"#utility.yul\":2843:2845   */\n      0x20\n        /* \"#utility.yul\":2832:2841   */\n      dup3\n        /* \"#utility.yul\":2828:2846   */\n      add\n        /* \"#utility.yul\":2820:2846   */\n      swap1\n      pop\n        /* \"#utility.yul\":2892:2901   */\n      dup2\n        /* \"#utility.yul\":2886:2890   */\n      dup2\n        /* \"#utility.yul\":2882:2902   */\n      sub\n        /* \"#utility.yul\":2878:2879   */\n      0x00\n        /* \"#utility.yul\":2867:2876   */\n      dup4\n        /* \"#utility.yul\":2863:2880   */\n      add\n        /* \"#utility.yul\":2856:2903   */\n      mstore\n        /* \"#utility.yul\":2920:3028   */\n      tag_300\n        /* \"#utility.yul\":3023:3027   */\n      dup2\n        /* \"#utility.yul\":3014:3020   */\n      dup5\n        /* \"#utility.yul\":2920:3028   */\n      tag_216\n      jump\t// in\n    tag_300:\n        /* \"#utility.yul\":2912:3028   */\n      swap1\n      pop\n        /* \"#utility.yul\":2662:3035   */\n      swap3\n      swap2\n      pop\n      pop\n      jump\t// out\n        /* \"#utility.yul\":3122:3239   */\n    tag_218:\n        /* \"#utility.yul\":3231:3232   */\n      0x00\n        /* \"#utility.yul\":3228:3229   */\n      dup1\n        /* \"#utility.yul\":3221:3233   */\n      revert\n        /* \"#utility.yul\":3368:3490   */\n    tag_220:\n        /* \"#utility.yul\":3441:3465   */\n      tag_305\n        /* \"#utility.yul\":3459:3464   */\n      dup2\n        /* \"#utility.yul\":3441:3465   */\n      tag_208\n      jump\t// in\n    tag_305:\n        /* \"#utility.yul\":3434:3439   */\n      dup2\n        /* \"#utility.yul\":3431:3466   */\n      eq\n        /* \"#utility.yul\":3421:3484   */\n      tag_306\n      jumpi\n        /* \"#utility.yul\":3480:3481   */\n      0x00\n        /* \"#utility.yul\":3477:3478   */\n      dup1\n        /* \"#utility.yul\":3470:3482   */\n      revert\n        /* \"#utility.yul\":3421:3484   */\n    tag_306:\n        /* \"#utility.yul\":3368:3490   */\n      pop\n      jump\t// out\n        /* \"#utility.yul\":3496:3635   */\n    tag_221:\n        /* \"#utility.yul\":3542:3547   */\n      0x00\n        /* \"#utility.yul\":3580:3586   */\n      dup2\n        /* \"#utility.yul\":3567:3587   */\n      calldataload\n        /* \"#utility.yul\":3558:3587   */\n      swap1\n      pop\n        /* \"#utility.yul\":3596:3629   */\n      tag_308\n        /* \"#utility.yul\":3623:3628   */\n      dup2\n        /* \"#utility.yul\":3596:3629   */\n      tag_220\n      jump\t// in\n    tag_308:\n        /* \"#utility.yul\":3496:3635   */\n      swap3\n      swap2\n      pop\n      pop\n      jump\t// out\n        /* \"#utility.yul\":3641:3970   */\n    tag_38:\n        /* \"#utility.yul\":3700:3706   */\n      0x00\n        /* \"#utility.yul\":3749:3751   */\n      0x20\n        /* \"#utility.yul\":3737:3746   */\n      dup3\n        /* \"#utility.yul\":3728:3735   */\n      dup5\n        /* \"#utility.yul\":3724:3747   */\n      sub\n        /* \"#utility.yul\":3720:3752   */\n      slt\n        /* \"#utility.yul\":3717:3836   */\n      iszero\n      tag_310\n      jumpi\n        /* \"#utility.yul\":3755:3834   */\n      tag_311\n      tag_218\n      jump\t// in\n    tag_311:\n        /* \"#utility.yul\":3717:3836   */\n    tag_310:\n        /* \"#utility.yul\":3875:3876   */\n      0x00\n        /* \"#utility.yul\":3900:3953   */\n      tag_312\n        /* \"#utility.yul\":3945:3952   */\n      dup5\n        /* \"#utility.yul\":3936:3942   */\n      dup3\n        /* \"#utility.yul\":3925:3934   */\n      dup6\n        /* \"#utility.yul\":3921:3943   */\n      add\n        /* \"#utility.yul\":3900:3953   */\n      tag_221\n      jump\t// in\n    tag_312:\n        /* \"#utility.yul\":3890:3953   */\n      swap2\n      pop\n        /* \"#utility.yul\":3846:3963   */\n      pop\n        /* \"#utility.yul\":3641:3970   */\n      swap3\n      swap2\n      pop\n      pop\n      jump\t// out\n        /* \"#utility.yul\":3976:4111   */\n    tag_222:\n        /* \"#utility.yul\":4064:4070   */\n      0x00\n        /* \"#utility.yul\":4098:4103   */\n      dup2\n        /* \"#utility.yul\":4092:4104   */\n      mload\n        /* \"#utility.yul\":4082:4104   */\n      swap1\n      pop\n        /* \"#utility.yul\":3976:4111   */\n      swap2\n      swap1\n      pop\n      jump\t// out\n        /* \"#utility.yul\":4117:4322   */\n    tag_223:\n        /* \"#utility.yul\":4237:4248   */\n      0x00\n        /* \"#utility.yul\":4271:4277   */\n      dup3\n        /* \"#utility.yul\":4266:4269   */\n      dup3\n        /* \"#utility.yul\":4259:4278   */\n      mstore\n        /* \"#utility.yul\":4311:4315   */\n      0x20\n        /* \"#utility.yul\":4306:4309   */\n      dup3\n        /* \"#utility.yul\":4302:4316   */\n      add\n        /* \"#utility.yul\":4287:4316   */\n      swap1\n      pop\n        /* \"#utility.yul\":4117:4322   */\n      swap3\n      swap2\n      pop\n      pop\n      jump\t// out\n        /* \"#utility.yul\":4328:4481   */\n    tag_224:\n        /* \"#utility.yul\":4416:4420   */\n      0x00\n        /* \"#utility.yul\":4439:4442   */\n      dup2\n        /* \"#utility.yul\":4431:4442   */\n      swap1\n      pop\n        /* \"#utility.yul\":4469:4473   */\n      0x20\n        /* \"#utility.yul\":4464:4467   */\n      dup3\n        /* \"#utility.yul\":4460:4474   */\n      add\n        /* \"#utility.yul\":4452:4474   */\n      swap1\n      pop\n        /* \"#utility.yul\":4328:4481   */\n      swap2\n      swap1\n      pop\n      jump\t// out\n        /* \"#utility.yul\":4487:4595   */\n    tag_225:\n        /* \"#utility.yul\":4564:4588   */\n      tag_317\n        /* \"#utility.yul\":4582:4587   */\n      dup2\n        /* \"#utility.yul\":4564:4588   */\n      tag_205\n      jump\t// in\n    tag_317:\n        /* \"#utility.yul\":4559:4562   */\n      dup3\n        /* \"#utility.yul\":4552:4589   */\n      mstore\n        /* \"#utility.yul\":4487:4595   */\n      pop\n      pop\n      jump\t// out\n        /* \"#utility.yul\":4601:4691   */\n    tag_226:\n        /* \"#utility.yul\":4635:4642   */\n      0x00\n        /* \"#utility.yul\":4678:4683   */\n      dup2\n        /* \"#utility.yul\":4671:4684   */\n      iszero\n        /* \"#utility.yul\":4664:4685   */\n      iszero\n        /* \"#utility.yul\":4653:4685   */\n      swap1\n      pop\n        /* \"#utility.yul\":4601:4691   */\n      swap2\n      swap1\n      pop\n      jump\t// out\n        /* \"#utility.yul\":4697:4796   */\n    tag_227:\n        /* \"#utility.yul\":4768:4789   */\n      tag_320\n        /* \"#utility.yul\":4783:4788   */\n      dup2\n        /* \"#utility.yul\":4768:4789   */\n      tag_226\n      jump\t// in\n    tag_320:\n        /* \"#utility.yul\":4763:4766   */\n      dup3\n        /* \"#utility.yul\":4756:4790   */\n      mstore\n        /* \"#utility.yul\":4697:4796   */\n      pop\n      pop\n      jump\t// out\n        /* \"#utility.yul\":4862:5884   */\n    tag_228:\n        /* \"#utility.yul\":4991:4995   */\n      0xa0\n        /* \"#utility.yul\":4986:4989   */\n      dup3\n        /* \"#utility.yul\":4982:4996   */\n      add\n        /* \"#utility.yul\":5081:5085   */\n      0x00\n        /* \"#utility.yul\":5074:5079   */\n      dup3\n        /* \"#utility.yul\":5070:5086   */\n      add\n        /* \"#utility.yul\":5064:5087   */\n      mload\n        /* \"#utility.yul\":5100:5163   */\n      tag_322\n        /* \"#utility.yul\":5157:5161   */\n      0x00\n        /* \"#utility.yul\":5152:5155   */\n      dup6\n        /* \"#utility.yul\":5148:5162   */\n      add\n        /* \"#utility.yul\":5134:5146   */\n      dup3\n        /* \"#utility.yul\":5100:5163   */\n      tag_225\n      jump\t// in\n    tag_322:\n        /* \"#utility.yul\":5006:5173   */\n      pop\n        /* \"#utility.yul\":5261:5265   */\n      0x20\n        /* \"#utility.yul\":5254:5259   */\n      dup3\n        /* \"#utility.yul\":5250:5266   */\n      add\n        /* \"#utility.yul\":5244:5267   */\n      mload\n        /* \"#utility.yul\":5280:5343   */\n      tag_323\n        /* \"#utility.yul\":5337:5341   */\n      0x20\n        /* \"#utility.yul\":5332:5335   */\n      dup6\n        /* \"#utility.yul\":5328:5342   */\n      add\n        /* \"#utility.yul\":5314:5326   */\n      dup3\n        /* \"#utility.yul\":5280:5343   */\n      tag_225\n      jump\t// in\n    tag_323:\n        /* \"#utility.yul\":5183:5353   */\n      pop\n        /* \"#utility.yul\":5442:5446   */\n      0x40\n        /* \"#utility.yul\":5435:5440   */\n      dup3\n        /* \"#utility.yul\":5431:5447   */\n      add\n        /* \"#utility.yul\":5425:5448   */\n      mload\n        /* \"#utility.yul\":5461:5518   */\n      tag_324\n        /* \"#utility.yul\":5512:5516   */\n      0x40\n        /* \"#utility.yul\":5507:5510   */\n      dup6\n        /* \"#utility.yul\":5503:5517   */\n      add\n        /* \"#utility.yul\":5489:5501   */\n      dup3\n        /* \"#utility.yul\":5461:5518   */\n      tag_227\n      jump\t// in\n    tag_324:\n        /* \"#utility.yul\":5363:5528   */\n      pop\n        /* \"#utility.yul\":5621:5625   */\n      0x60\n        /* \"#utility.yul\":5614:5619   */\n      dup3\n        /* \"#utility.yul\":5610:5626   */\n      add\n        /* \"#utility.yul\":5604:5627   */\n      mload\n        /* \"#utility.yul\":5640:5697   */\n      tag_325\n        /* \"#utility.yul\":5691:5695   */\n      0x60\n        /* \"#utility.yul\":5686:5689   */\n      dup6\n        /* \"#utility.yul\":5682:5696   */\n      add\n        /* \"#utility.yul\":5668:5680   */\n      dup3\n        /* \"#utility.yul\":5640:5697   */\n      tag_227\n      jump\t// in\n    tag_325:\n        /* \"#utility.yul\":5538:5707   */\n      pop\n        /* \"#utility.yul\":5791:5795   */\n      0x80\n        /* \"#utility.yul\":5784:5789   */\n      dup3\n        /* \"#utility.yul\":5780:5796   */\n      add\n        /* \"#utility.yul\":5774:5797   */\n      mload\n        /* \"#utility.yul\":5810:5867   */\n      tag_326\n        /* \"#utility.yul\":5861:5865   */\n      0x80\n        /* \"#utility.yul\":5856:5859   */\n      dup6\n        /* \"#utility.yul\":5852:5866   */\n      add\n        /* \"#utility.yul\":5838:5850   */\n      dup3\n        /* \"#utility.yul\":5810:5867   */\n      tag_227\n      jump\t// in\n    tag_326:\n        /* \"#utility.yul\":5717:5877   */\n      pop\n        /* \"#utility.yul\":4960:5884   */\n      pop\n        /* \"#utility.yul\":4862:5884   */\n      pop\n      pop\n      jump\t// out\n        /* \"#utility.yul\":5890:6153   */\n    tag_229:\n        /* \"#utility.yul\":6001:6011   */\n      0x00\n        /* \"#utility.yul\":6022:6110   */\n      tag_328\n        /* \"#utility.yul\":6106:6109   */\n      dup4\n        /* \"#utility.yul\":6098:6104   */\n      dup4\n        /* \"#utility.yul\":6022:6110   */\n      tag_228\n      jump\t// in\n    tag_328:\n        /* \"#utility.yul\":6142:6146   */\n      0xa0\n        /* \"#utility.yul\":6137:6140   */\n      dup4\n        /* \"#utility.yul\":6133:6147   */\n      add\n        /* \"#utility.yul\":6119:6147   */\n      swap1\n      pop\n        /* \"#utility.yul\":5890:6153   */\n      swap3\n      swap2\n      pop\n      pop\n      jump\t// out\n        /* \"#utility.yul\":6159:6293   */\n    tag_230:\n        /* \"#utility.yul\":6250:6254   */\n      0x00\n        /* \"#utility.yul\":6282:6286   */\n      0x20\n        /* \"#utility.yul\":6277:6280   */\n      dup3\n        /* \"#utility.yul\":6273:6287   */\n      add\n        /* \"#utility.yul\":6265:6287   */\n      swap1\n      pop\n        /* \"#utility.yul\":6159:6293   */\n      swap2\n      swap1\n      pop\n      jump\t// out\n        /* \"#utility.yul\":6363:7263   */\n    tag_231:\n        /* \"#utility.yul\":6524:6527   */\n      0x00\n        /* \"#utility.yul\":6553:6628   */\n      tag_331\n        /* \"#utility.yul\":6622:6627   */\n      dup3\n        /* \"#utility.yul\":6553:6628   */\n      tag_222\n      jump\t// in\n    tag_331:\n        /* \"#utility.yul\":6644:6751   */\n      tag_332\n        /* \"#utility.yul\":6744:6750   */\n      dup2\n        /* \"#utility.yul\":6739:6742   */\n      dup6\n        /* \"#utility.yul\":6644:6751   */\n      tag_223\n      jump\t// in\n    tag_332:\n        /* \"#utility.yul\":6637:6751   */\n      swap4\n      pop\n        /* \"#utility.yul\":6775:6852   */\n      tag_333\n        /* \"#utility.yul\":6846:6851   */\n      dup4\n        /* \"#utility.yul\":6775:6852   */\n      tag_224\n      jump\t// in\n    tag_333:\n        /* \"#utility.yul\":6875:6882   */\n      dup1\n        /* \"#utility.yul\":6906:6907   */\n      0x00\n        /* \"#utility.yul\":6891:7238   */\n    tag_334:\n        /* \"#utility.yul\":6916:6922   */\n      dup4\n        /* \"#utility.yul\":6913:6914   */\n      dup2\n        /* \"#utility.yul\":6910:6923   */\n      lt\n        /* \"#utility.yul\":6891:7238   */\n      iszero\n      tag_336\n      jumpi\n        /* \"#utility.yul\":6992:6998   */\n      dup2\n        /* \"#utility.yul\":6986:6999   */\n      mload\n        /* \"#utility.yul\":7019:7124   */\n      tag_337\n        /* \"#utility.yul\":7120:7123   */\n      dup9\n        /* \"#utility.yul\":7105:7118   */\n      dup3\n        /* \"#utility.yul\":7019:7124   */\n      tag_229\n      jump\t// in\n    tag_337:\n        /* \"#utility.yul\":7012:7124   */\n      swap8\n      pop\n        /* \"#utility.yul\":7147:7228   */\n      tag_338\n        /* \"#utility.yul\":7221:7227   */\n      dup4\n        /* \"#utility.yul\":7147:7228   */\n      tag_230\n      jump\t// in\n    tag_338:\n        /* \"#utility.yul\":7137:7228   */\n      swap3\n      pop\n        /* \"#utility.yul\":6951:7238   */\n      pop\n        /* \"#utility.yul\":6938:6939   */\n      0x01\n        /* \"#utility.yul\":6935:6936   */\n      dup2\n        /* \"#utility.yul\":6931:6940   */\n      add\n        /* \"#utility.yul\":6926:6940   */\n      swap1\n      pop\n        /* \"#utility.yul\":6891:7238   */\n      jump(tag_334)\n    tag_336:\n        /* \"#utility.yul\":6895:6909   */\n      pop\n        /* \"#utility.yul\":7254:7257   */\n      dup6\n        /* \"#utility.yul\":7247:7257   */\n      swap4\n      pop\n        /* \"#utility.yul\":6529:7263   */\n      pop\n      pop\n      pop\n        /* \"#utility.yul\":6363:7263   */\n      swap3\n      swap2\n      pop\n      pop\n      jump\t// out\n        /* \"#utility.yul\":7269:7726   */\n    tag_45:\n        /* \"#utility.yul\":7454:7458   */\n      0x00\n        /* \"#utility.yul\":7492:7494   */\n      0x20\n        /* \"#utility.yul\":7481:7490   */\n      dup3\n        /* \"#utility.yul\":7477:7495   */\n      add\n        /* \"#utility.yul\":7469:7495   */\n      swap1\n      pop\n        /* \"#utility.yul\":7541:7550   */\n      dup2\n        /* \"#utility.yul\":7535:7539   */\n      dup2\n        /* \"#utility.yul\":7531:7551   */\n      sub\n        /* \"#utility.yul\":7527:7528   */\n      0x00\n        /* \"#utility.yul\":7516:7525   */\n      dup4\n        /* \"#utility.yul\":7512:7529   */\n      add\n        /* \"#utility.yul\":7505:7552   */\n      mstore\n        /* \"#utility.yul\":7569:7719   */\n      tag_340\n        /* \"#utility.yul\":7714:7718   */\n      dup2\n        /* \"#utility.yul\":7705:7711   */\n      dup5\n        /* \"#utility.yul\":7569:7719   */\n      tag_231\n      jump\t// in\n    tag_340:\n        /* \"#utility.yul\":7561:7719   */\n      swap1\n      pop\n        /* \"#utility.yul\":7269:7726   */\n      swap3\n      swap2\n      pop\n      pop\n      jump\t// out\n        /* \"#utility.yul\":7732:7836   */\n    tag_232:\n        /* \"#utility.yul\":7777:7784   */\n      0x00\n        /* \"#utility.yul\":7806:7830   */\n      tag_342\n        /* \"#utility.yul\":7824:7829   */\n      dup3\n        /* \"#utility.yul\":7806:7830   */\n      tag_207\n      jump\t// in\n    tag_342:\n        /* \"#utility.yul\":7795:7830   */\n      swap1\n      pop\n        /* \"#utility.yul\":7732:7836   */\n      swap2\n      swap1\n      pop\n      jump\t// out\n        /* \"#utility.yul\":7842:7980   */\n    tag_233:\n        /* \"#utility.yul\":7923:7955   */\n      tag_344\n        /* \"#utility.yul\":7949:7954   */\n      dup2\n        /* \"#utility.yul\":7923:7955   */\n      tag_232\n      jump\t// in\n    tag_344:\n        /* \"#utility.yul\":7916:7921   */\n      dup2\n        /* \"#utility.yul\":7913:7956   */\n      eq\n        /* \"#utility.yul\":7903:7974   */\n      tag_345\n      jumpi\n        /* \"#utility.yul\":7970:7971   */\n      0x00\n        /* \"#utility.yul\":7967:7968   */\n      dup1\n        /* \"#utility.yul\":7960:7972   */\n      revert\n        /* \"#utility.yul\":7903:7974   */\n    tag_345:\n        /* \"#utility.yul\":7842:7980   */\n      pop\n      jump\t// out\n        /* \"#utility.yul\":7986:8141   */\n    tag_234:\n        /* \"#utility.yul\":8040:8045   */\n      0x00\n        /* \"#utility.yul\":8078:8084   */\n      dup2\n        /* \"#utility.yul\":8065:8085   */\n      calldataload\n        /* \"#utility.yul\":8056:8085   */\n      swap1\n      pop\n        /* \"#utility.yul\":8094:8135   */\n      tag_347\n        /* \"#utility.yul\":8129:8134   */\n      dup2\n        /* \"#utility.yul\":8094:8135   */\n      tag_233\n      jump\t// in\n    tag_347:\n        /* \"#utility.yul\":7986:8141   */\n      swap3\n      swap2\n      pop\n      pop\n      jump\t// out\n        /* \"#utility.yul\":8147:8269   */\n    tag_235:\n        /* \"#utility.yul\":8220:8244   */\n      tag_349\n        /* \"#utility.yul\":8238:8243   */\n      dup2\n        /* \"#utility.yul\":8220:8244   */\n      tag_205\n      jump\t// in\n    tag_349:\n        /* \"#utility.yul\":8213:8218   */\n      dup2\n        /* \"#utility.yul\":8210:8245   */\n      eq\n        /* \"#utility.yul\":8200:8263   */\n      tag_350\n      jumpi\n        /* \"#utility.yul\":8259:8260   */\n      0x00\n        /* \"#utility.yul\":8256:8257   */\n      dup1\n        /* \"#utility.yul\":8249:8261   */\n      revert\n        /* \"#utility.yul\":8200:8263   */\n    tag_350:\n        /* \"#utility.yul\":8147:8269   */\n      pop\n      jump\t// out\n        /* \"#utility.yul\":8275:8414   */\n    tag_236:\n        /* \"#utility.yul\":8321:8326   */\n      0x00\n        /* \"#utility.yul\":8359:8365   */\n      dup2\n        /* \"#utility.yul\":8346:8366   */\n      calldataload\n        /* \"#utility.yul\":8337:8366   */\n      swap1\n      pop\n        /* \"#utility.yul\":8375:8408   */\n      tag_352\n        /* \"#utility.yul\":8402:8407   */\n      dup2\n        /* \"#utility.yul\":8375:8408   */\n      tag_235\n      jump\t// in\n    tag_352:\n        /* \"#utility.yul\":8275:8414   */\n      swap3\n      swap2\n      pop\n      pop\n      jump\t// out\n        /* \"#utility.yul\":8420:8910   */\n    tag_48:\n        /* \"#utility.yul\":8496:8502   */\n      0x00\n        /* \"#utility.yul\":8504:8510   */\n      dup1\n        /* \"#utility.yul\":8553:8555   */\n      0x40\n        /* \"#utility.yul\":8541:8550   */\n      dup4\n        /* \"#utility.yul\":8532:8539   */\n      dup6\n        /* \"#utility.yul\":8528:8551   */\n      sub\n        /* \"#utility.yul\":8524:8556   */\n      slt\n        /* \"#utility.yul\":8521:8640   */\n      iszero\n      tag_354\n      jumpi\n        /* \"#utility.yul\":8559:8638   */\n      tag_355\n      tag_218\n      jump\t// in\n    tag_355:\n        /* \"#utility.yul\":8521:8640   */\n    tag_354:\n        /* \"#utility.yul\":8679:8680   */\n      0x00\n        /* \"#utility.yul\":8704:8765   */\n      tag_356\n        /* \"#utility.yul\":8757:8764   */\n      dup6\n        /* \"#utility.yul\":8748:8754   */\n      dup3\n        /* \"#utility.yul\":8737:8746   */\n      dup7\n        /* \"#utility.yul\":8733:8755   */\n      add\n        /* \"#utility.yul\":8704:8765   */\n      tag_234\n      jump\t// in\n    tag_356:\n        /* \"#utility.yul\":8694:8765   */\n      swap3\n      pop\n        /* \"#utility.yul\":8650:8775   */\n      pop\n        /* \"#utility.yul\":8814:8816   */\n      0x20\n        /* \"#utility.yul\":8840:8893   */\n      tag_357\n        /* \"#utility.yul\":8885:8892   */\n      dup6\n        /* \"#utility.yul\":8876:8882   */\n      dup3\n        /* \"#utility.yul\":8865:8874   */\n      dup7\n        /* \"#utility.yul\":8861:8883   */\n      add\n        /* \"#utility.yul\":8840:8893   */\n      tag_236\n      jump\t// in\n    tag_357:\n        /* \"#utility.yul\":8830:8893   */\n      swap2\n      pop\n        /* \"#utility.yul\":8785:8903   */\n      pop\n        /* \"#utility.yul\":8420:8910   */\n      swap3\n      pop\n      swap3\n      swap1\n      pop\n      jump\t// out\n        /* \"#utility.yul\":8916:9040   */\n    tag_237:\n        /* \"#utility.yul\":8993:8999   */\n      0x00\n        /* \"#utility.yul\":9027:9032   */\n      dup2\n        /* \"#utility.yul\":9021:9033   */\n      mload\n        /* \"#utility.yul\":9011:9033   */\n      swap1\n      pop\n        /* \"#utility.yul\":8916:9040   */\n      swap2\n      swap1\n      pop\n      jump\t// out\n        /* \"#utility.yul\":9046:9240   */\n    tag_238:\n        /* \"#utility.yul\":9155:9166   */\n      0x00\n        /* \"#utility.yul\":9189:9195   */\n      dup3\n        /* \"#utility.yul\":9184:9187   */\n      dup3\n        /* \"#utility.yul\":9177:9196   */\n      mstore\n        /* \"#utility.yul\":9229:9233   */\n      0x20\n        /* \"#utility.yul\":9224:9227   */\n      dup3\n        /* \"#utility.yul\":9220:9234   */\n      add\n        /* \"#utility.yul\":9205:9234   */\n      swap1\n      pop\n        /* \"#utility.yul\":9046:9240   */\n      swap3\n      swap2\n      pop\n      pop\n      jump\t// out\n        /* \"#utility.yul\":9246:9388   */\n    tag_239:\n        /* \"#utility.yul\":9323:9327   */\n      0x00\n        /* \"#utility.yul\":9346:9349   */\n      dup2\n        /* \"#utility.yul\":9338:9349   */\n      swap1\n      pop\n        /* \"#utility.yul\":9376:9380   */\n      0x20\n        /* \"#utility.yul\":9371:9374   */\n      dup3\n        /* \"#utility.yul\":9367:9381   */\n      add\n        /* \"#utility.yul\":9359:9381   */\n      swap1\n      pop\n        /* \"#utility.yul\":9246:9388   */\n      swap2\n      swap1\n      pop\n      jump\t// out\n        /* \"#utility.yul\":9394:9493   */\n    tag_240:\n        /* \"#utility.yul\":9446:9452   */\n      0x00\n        /* \"#utility.yul\":9480:9485   */\n      dup2\n        /* \"#utility.yul\":9474:9486   */\n      mload\n        /* \"#utility.yul\":9464:9486   */\n      swap1\n      pop\n        /* \"#utility.yul\":9394:9493   */\n      swap2\n      swap1\n      pop\n      jump\t// out\n        /* \"#utility.yul\":9499:9658   */\n    tag_241:\n        /* \"#utility.yul\":9573:9584   */\n      0x00\n        /* \"#utility.yul\":9607:9613   */\n      dup3\n        /* \"#utility.yul\":9602:9605   */\n      dup3\n        /* \"#utility.yul\":9595:9614   */\n      mstore\n        /* \"#utility.yul\":9647:9651   */\n      0x20\n        /* \"#utility.yul\":9642:9645   */\n      dup3\n        /* \"#utility.yul\":9638:9652   */\n      add\n        /* \"#utility.yul\":9623:9652   */\n      swap1\n      pop\n        /* \"#utility.yul\":9499:9658   */\n      swap3\n      swap2\n      pop\n      pop\n      jump\t// out\n        /* \"#utility.yul\":9664:9803   */\n    tag_242:\n        /* \"#utility.yul\":9753:9759   */\n      dup3\n        /* \"#utility.yul\":9748:9751   */\n      dup2\n        /* \"#utility.yul\":9743:9746   */\n      dup4\n        /* \"#utility.yul\":9737:9760   */\n      mcopy\n        /* \"#utility.yul\":9794:9795   */\n      0x00\n        /* \"#utility.yul\":9785:9791   */\n      dup4\n        /* \"#utility.yul\":9780:9783   */\n      dup4\n        /* \"#utility.yul\":9776:9792   */\n      add\n        /* \"#utility.yul\":9769:9796   */\n      mstore\n        /* \"#utility.yul\":9664:9803   */\n      pop\n      pop\n      pop\n      jump\t// out\n        /* \"#utility.yul\":9809:9911   */\n    tag_243:\n        /* \"#utility.yul\":9850:9856   */\n      0x00\n        /* \"#utility.yul\":9901:9903   */\n      0x1f\n        /* \"#utility.yul\":9897:9904   */\n      not\n        /* \"#utility.yul\":9892:9894   */\n      0x1f\n        /* \"#utility.yul\":9885:9890   */\n      dup4\n        /* \"#utility.yul\":9881:9895   */\n      add\n        /* \"#utility.yul\":9877:9905   */\n      and\n        /* \"#utility.yul\":9867:9905   */\n      swap1\n      pop\n        /* \"#utility.yul\":9809:9911   */\n      swap2\n      swap1\n      pop\n      jump\t// out\n        /* \"#utility.yul\":9917:10274   */\n    tag_244:\n        /* \"#utility.yul\":9995:9998   */\n      0x00\n        /* \"#utility.yul\":10023:10062   */\n      tag_366\n        /* \"#utility.yul\":10056:10061   */\n      dup3\n        /* \"#utility.yul\":10023:10062   */\n      tag_240\n      jump\t// in\n    tag_366:\n        /* \"#utility.yul\":10078:10139   */\n      tag_367\n        /* \"#utility.yul\":10132:10138   */\n      dup2\n        /* \"#utility.yul\":10127:10130   */\n      dup6\n        /* \"#utility.yul\":10078:10139   */\n      tag_241\n      jump\t// in\n    tag_367:\n        /* \"#utility.yul\":10071:10139   */\n      swap4\n      pop\n        /* \"#utility.yul\":10148:10213   */\n      tag_368\n        /* \"#utility.yul\":10206:10212   */\n      dup2\n        /* \"#utility.yul\":10201:10204   */\n      dup6\n        /* \"#utility.yul\":10194:10198   */\n      0x20\n        /* \"#utility.yul\":10187:10192   */\n      dup7\n        /* \"#utility.yul\":10183:10199   */\n      add\n        /* \"#utility.yul\":10148:10213   */\n      tag_242\n      jump\t// in\n    tag_368:\n        /* \"#utility.yul\":10238:10267   */\n      tag_369\n        /* \"#utility.yul\":10260:10266   */\n      dup2\n        /* \"#utility.yul\":10238:10267   */\n      tag_243\n      jump\t// in\n    tag_369:\n        /* \"#utility.yul\":10233:10236   */\n      dup5\n        /* \"#utility.yul\":10229:10268   */\n      add\n        /* \"#utility.yul\":10222:10268   */\n      swap2\n      pop\n        /* \"#utility.yul\":9999:10274   */\n      pop\n        /* \"#utility.yul\":9917:10274   */\n      swap3\n      swap2\n      pop\n      pop\n      jump\t// out\n        /* \"#utility.yul\":10280:10476   */\n    tag_245:\n        /* \"#utility.yul\":10369:10379   */\n      0x00\n        /* \"#utility.yul\":10404:10470   */\n      tag_371\n        /* \"#utility.yul\":10466:10469   */\n      dup4\n        /* \"#utility.yul\":10458:10464   */\n      dup4\n        /* \"#utility.yul\":10404:10470   */\n      tag_244\n      jump\t// in\n    tag_371:\n        /* \"#utility.yul\":10390:10470   */\n      swap1\n      pop\n        /* \"#utility.yul\":10280:10476   */\n      swap3\n      swap2\n      pop\n      pop\n      jump\t// out\n        /* \"#utility.yul\":10482:10605   */\n    tag_246:\n        /* \"#utility.yul\":10562:10566   */\n      0x00\n        /* \"#utility.yul\":10594:10598   */\n      0x20\n        /* \"#utility.yul\":10589:10592   */\n      dup3\n        /* \"#utility.yul\":10585:10599   */\n      add\n        /* \"#utility.yul\":10577:10599   */\n      swap1\n      pop\n        /* \"#utility.yul\":10482:10605   */\n      swap2\n      swap1\n      pop\n      jump\t// out\n        /* \"#utility.yul\":10639:11630   */\n    tag_247:\n        /* \"#utility.yul\":10778:10781   */\n      0x00\n        /* \"#utility.yul\":10807:10871   */\n      tag_374\n        /* \"#utility.yul\":10865:10870   */\n      dup3\n        /* \"#utility.yul\":10807:10871   */\n      tag_237\n      jump\t// in\n    tag_374:\n        /* \"#utility.yul\":10887:10983   */\n      tag_375\n        /* \"#utility.yul\":10976:10982   */\n      dup2\n        /* \"#utility.yul\":10971:10974   */\n      dup6\n        /* \"#utility.yul\":10887:10983   */\n      tag_238\n      jump\t// in\n    tag_375:\n        /* \"#utility.yul\":10880:10983   */\n      swap4\n      pop\n        /* \"#utility.yul\":11009:11012   */\n      dup4\n        /* \"#utility.yul\":11054:11058   */\n      0x20\n        /* \"#utility.yul\":11046:11052   */\n      dup3\n        /* \"#utility.yul\":11042:11059   */\n      mul\n        /* \"#utility.yul\":11037:11040   */\n      dup6\n        /* \"#utility.yul\":11033:11060   */\n      add\n        /* \"#utility.yul\":11084:11150   */\n      tag_376\n        /* \"#utility.yul\":11144:11149   */\n      dup6\n        /* \"#utility.yul\":11084:11150   */\n      tag_239\n      jump\t// in\n    tag_376:\n        /* \"#utility.yul\":11173:11180   */\n      dup1\n        /* \"#utility.yul\":11204:11205   */\n      0x00\n        /* \"#utility.yul\":11189:11585   */\n    tag_377:\n        /* \"#utility.yul\":11214:11220   */\n      dup6\n        /* \"#utility.yul\":11211:11212   */\n      dup2\n        /* \"#utility.yul\":11208:11221   */\n      lt\n        /* \"#utility.yul\":11189:11585   */\n      iszero\n      tag_379\n      jumpi\n        /* \"#utility.yul\":11285:11294   */\n      dup5\n        /* \"#utility.yul\":11279:11283   */\n      dup5\n        /* \"#utility.yul\":11275:11295   */\n      sub\n        /* \"#utility.yul\":11270:11273   */\n      dup10\n        /* \"#utility.yul\":11263:11296   */\n      mstore\n        /* \"#utility.yul\":11336:11342   */\n      dup2\n        /* \"#utility.yul\":11330:11343   */\n      mload\n        /* \"#utility.yul\":11364:11448   */\n      tag_380\n        /* \"#utility.yul\":11443:11447   */\n      dup6\n        /* \"#utility.yul\":11428:11441   */\n      dup3\n        /* \"#utility.yul\":11364:11448   */\n      tag_245\n      jump\t// in\n    tag_380:\n        /* \"#utility.yul\":11356:11448   */\n      swap5\n      pop\n        /* \"#utility.yul\":11471:11541   */\n      tag_381\n        /* \"#utility.yul\":11534:11540   */\n      dup4\n        /* \"#utility.yul\":11471:11541   */\n      tag_246\n      jump\t// in\n    tag_381:\n        /* \"#utility.yul\":11461:11541   */\n      swap3\n      pop\n        /* \"#utility.yul\":11570:11574   */\n      0x20\n        /* \"#utility.yul\":11565:11568   */\n      dup11\n        /* \"#utility.yul\":11561:11575   */\n      add\n        /* \"#utility.yul\":11554:11575   */\n      swap10\n      pop\n        /* \"#utility.yul\":11249:11585   */\n      pop\n        /* \"#utility.yul\":11236:11237   */\n      0x01\n        /* \"#utility.yul\":11233:11234   */\n      dup2\n        /* \"#utility.yul\":11229:11238   */\n      add\n        /* \"#utility.yul\":11224:11238   */\n      swap1\n      pop\n        /* \"#utility.yul\":11189:11585   */\n      jump(tag_377)\n    tag_379:\n        /* \"#utility.yul\":11193:11207   */\n      pop\n        /* \"#utility.yul\":11601:11605   */\n      dup3\n        /* \"#utility.yul\":11594:11605   */\n      swap8\n      pop\n        /* \"#utility.yul\":11621:11624   */\n      dup8\n        /* \"#utility.yul\":11614:11624   */\n      swap6\n      pop\n        /* \"#utility.yul\":10783:11630   */\n      pop\n      pop\n      pop\n      pop\n      pop\n        /* \"#utility.yul\":10639:11630   */\n      swap3\n      swap2\n      pop\n      pop\n      jump\t// out\n        /* \"#utility.yul\":11636:12049   */\n    tag_58:\n        /* \"#utility.yul\":11799:11803   */\n      0x00\n        /* \"#utility.yul\":11837:11839   */\n      0x20\n        /* \"#utility.yul\":11826:11835   */\n      dup3\n        /* \"#utility.yul\":11822:11840   */\n      add\n        /* \"#utility.yul\":11814:11840   */\n      swap1\n      pop\n        /* \"#utility.yul\":11886:11895   */\n      dup2\n        /* \"#utility.yul\":11880:11884   */\n      dup2\n        /* \"#utility.yul\":11876:11896   */\n      sub\n        /* \"#utility.yul\":11872:11873   */\n      0x00\n        /* \"#utility.yul\":11861:11870   */\n      dup4\n        /* \"#utility.yul\":11857:11874   */\n      add\n        /* \"#utility.yul\":11850:11897   */\n      mstore\n        /* \"#utility.yul\":11914:12042   */\n      tag_383\n        /* \"#utility.yul\":12037:12041   */\n      dup2\n        /* \"#utility.yul\":12028:12034   */\n      dup5\n        /* \"#utility.yul\":11914:12042   */\n      tag_247\n      jump\t// in\n    tag_383:\n        /* \"#utility.yul\":11906:12042   */\n      swap1\n      pop\n        /* \"#utility.yul\":11636:12049   */\n      swap3\n      swap2\n      pop\n      pop\n      jump\t// out\n        /* \"#utility.yul\":12055:12235   */\n    tag_74:\n        /* \"#utility.yul\":12103:12180   */\n      0x4e487b7100000000000000000000000000000000000000000000000000000000\n        /* \"#utility.yul\":12100:12101   */\n      0x00\n        /* \"#utility.yul\":12093:12181   */\n      mstore\n        /* \"#utility.yul\":12200:12204   */\n      0x32\n        /* \"#utility.yul\":12197:12198   */\n      0x04\n        /* \"#utility.yul\":12190:12205   */\n      mstore\n        /* \"#utility.yul\":12224:12228   */\n      0x24\n        /* \"#utility.yul\":12221:12222   */\n      0x00\n        /* \"#utility.yul\":12214:12229   */\n      revert\n        /* \"#utility.yul\":12241:12421   */\n    tag_248:\n        /* \"#utility.yul\":12289:12366   */\n      0x4e487b7100000000000000000000000000000000000000000000000000000000\n        /* \"#utility.yul\":12286:12287   */\n      0x00\n        /* \"#utility.yul\":12279:12367   */\n      mstore\n        /* \"#utility.yul\":12386:12390   */\n      0x11\n        /* \"#utility.yul\":12383:12384   */\n      0x04\n        /* \"#utility.yul\":12376:12391   */\n      mstore\n        /* \"#utility.yul\":12410:12414   */\n      0x24\n        /* \"#utility.yul\":12407:12408   */\n      0x00\n        /* \"#utility.yul\":12400:12415   */\n      revert\n        /* \"#utility.yul\":12427:12513   */\n    tag_249:\n        /* \"#utility.yul\":12462:12469   */\n      0x00\n        /* \"#utility.yul\":12502:12506   */\n      0xff\n        /* \"#utility.yul\":12495:12500   */\n      dup3\n        /* \"#utility.yul\":12491:12507   */\n      and\n        /* \"#utility.yul\":12480:12507   */\n      swap1\n      pop\n        /* \"#utility.yul\":12427:12513   */\n      swap2\n      swap1\n      pop\n      jump\t// out\n        /* \"#utility.yul\":12519:12686   */\n    tag_78:\n        /* \"#utility.yul\":12556:12559   */\n      0x00\n        /* \"#utility.yul\":12579:12601   */\n      tag_388\n        /* \"#utility.yul\":12595:12600   */\n      dup3\n        /* \"#utility.yul\":12579:12601   */\n      tag_249\n      jump\t// in\n    tag_388:\n        /* \"#utility.yul\":12570:12601   */\n      swap2\n      pop\n        /* \"#utility.yul\":12623:12627   */\n      0xff\n        /* \"#utility.yul\":12616:12621   */\n      dup3\n        /* \"#utility.yul\":12613:12628   */\n      sub\n        /* \"#utility.yul\":12610:12651   */\n      tag_389\n      jumpi\n        /* \"#utility.yul\":12631:12649   */\n      tag_390\n      tag_248\n      jump\t// in\n    tag_390:\n        /* \"#utility.yul\":12610:12651   */\n    tag_389:\n        /* \"#utility.yul\":12678:12679   */\n      0x01\n        /* \"#utility.yul\":12671:12676   */\n      dup3\n        /* \"#utility.yul\":12667:12680   */\n      add\n        /* \"#utility.yul\":12660:12680   */\n      swap1\n      pop\n        /* \"#utility.yul\":12519:12686   */\n      swap2\n      swap1\n      pop\n      jump\t// out\n        /* \"#utility.yul\":12692:12861   */\n    tag_250:\n        /* \"#utility.yul\":12776:12787   */\n      0x00\n        /* \"#utility.yul\":12810:12816   */\n      dup3\n        /* \"#utility.yul\":12805:12808   */\n      dup3\n        /* \"#utility.yul\":12798:12817   */\n      mstore\n        /* \"#utility.yul\":12850:12854   */\n      0x20\n        /* \"#utility.yul\":12845:12848   */\n      dup3\n        /* \"#utility.yul\":12841:12855   */\n      add\n        /* \"#utility.yul\":12826:12855   */\n      swap1\n      pop\n        /* \"#utility.yul\":12692:12861   */\n      swap3\n      swap2\n      pop\n      pop\n      jump\t// out\n        /* \"#utility.yul\":12867:13110   */\n    tag_251:\n        /* \"#utility.yul\":13007:13041   */\n      0x4f6e6c79207061727469636970616e7420776974686f757420737570706c6965\n        /* \"#utility.yul\":13003:13004   */\n      0x00\n        /* \"#utility.yul\":12995:13001   */\n      dup3\n        /* \"#utility.yul\":12991:13005   */\n      add\n        /* \"#utility.yul\":12984:13042   */\n      mstore\n        /* \"#utility.yul\":13076:13102   */\n      0x722063616e2063616c6c20746869732066756e6374696f6e0000000000000000\n        /* \"#utility.yul\":13071:13073   */\n      0x20\n        /* \"#utility.yul\":13063:13069   */\n      dup3\n        /* \"#utility.yul\":13059:13074   */\n      add\n        /* \"#utility.yul\":13052:13103   */\n      mstore\n        /* \"#utility.yul\":12867:13110   */\n      pop\n      jump\t// out\n        /* \"#utility.yul\":13116:13482   */\n    tag_252:\n        /* \"#utility.yul\":13258:13261   */\n      0x00\n        /* \"#utility.yul\":13279:13346   */\n      tag_394\n        /* \"#utility.yul\":13343:13345   */\n      0x38\n        /* \"#utility.yul\":13338:13341   */\n      dup4\n        /* \"#utility.yul\":13279:13346   */\n      tag_250\n      jump\t// in\n    tag_394:\n        /* \"#utility.yul\":13272:13346   */\n      swap2\n      pop\n        /* \"#utility.yul\":13355:13448   */\n      tag_395\n        /* \"#utility.yul\":13444:13447   */\n      dup3\n        /* \"#utility.yul\":13355:13448   */\n      tag_251\n      jump\t// in\n    tag_395:\n        /* \"#utility.yul\":13473:13475   */\n      0x40\n        /* \"#utility.yul\":13468:13471   */\n      dup3\n        /* \"#utility.yul\":13464:13476   */\n      add\n        /* \"#utility.yul\":13457:13476   */\n      swap1\n      pop\n        /* \"#utility.yul\":13116:13482   */\n      swap2\n      swap1\n      pop\n      jump\t// out\n        /* \"#utility.yul\":13488:13907   */\n    tag_81:\n        /* \"#utility.yul\":13654:13658   */\n      0x00\n        /* \"#utility.yul\":13692:13694   */\n      0x20\n        /* \"#utility.yul\":13681:13690   */\n      dup3\n        /* \"#utility.yul\":13677:13695   */\n      add\n        /* \"#utility.yul\":13669:13695   */\n      swap1\n      pop\n        /* \"#utility.yul\":13741:13750   */\n      dup2\n        /* \"#utility.yul\":13735:13739   */\n      dup2\n        /* \"#utility.yul\":13731:13751   */\n      sub\n        /* \"#utility.yul\":13727:13728   */\n      0x00\n        /* \"#utility.yul\":13716:13725   */\n      dup4\n        /* \"#utility.yul\":13712:13729   */\n      add\n        /* \"#utility.yul\":13705:13752   */\n      mstore\n        /* \"#utility.yul\":13769:13900   */\n      tag_397\n        /* \"#utility.yul\":13895:13899   */\n      dup2\n        /* \"#utility.yul\":13769:13900   */\n      tag_252\n      jump\t// in\n    tag_397:\n        /* \"#utility.yul\":13761:13900   */\n      swap1\n      pop\n        /* \"#utility.yul\":13488:13907   */\n      swap2\n      swap1\n      pop\n      jump\t// out\n        /* \"#utility.yul\":13913:14104   */\n    tag_84:\n        /* \"#utility.yul\":13953:13956   */\n      0x00\n        /* \"#utility.yul\":13972:13992   */\n      tag_399\n        /* \"#utility.yul\":13990:13991   */\n      dup3\n        /* \"#utility.yul\":13972:13992   */\n      tag_205\n      jump\t// in\n    tag_399:\n        /* \"#utility.yul\":13967:13992   */\n      swap2\n      pop\n        /* \"#utility.yul\":14006:14026   */\n      tag_400\n        /* \"#utility.yul\":14024:14025   */\n      dup4\n        /* \"#utility.yul\":14006:14026   */\n      tag_205\n      jump\t// in\n    tag_400:\n        /* \"#utility.yul\":14001:14026   */\n      swap3\n      pop\n        /* \"#utility.yul\":14049:14050   */\n      dup3\n        /* \"#utility.yul\":14046:14047   */\n      dup3\n        /* \"#utility.yul\":14042:14051   */\n      add\n        /* \"#utility.yul\":14035:14051   */\n      swap1\n      pop\n        /* \"#utility.yul\":14070:14073   */\n      dup1\n        /* \"#utility.yul\":14067:14068   */\n      dup3\n        /* \"#utility.yul\":14064:14074   */\n      gt\n        /* \"#utility.yul\":14061:14097   */\n      iszero\n      tag_401\n      jumpi\n        /* \"#utility.yul\":14077:14095   */\n      tag_402\n      tag_248\n      jump\t// in\n    tag_402:\n        /* \"#utility.yul\":14061:14097   */\n    tag_401:\n        /* \"#utility.yul\":13913:14104   */\n      swap3\n      swap2\n      pop\n      pop\n      jump\t// out\n        /* \"#utility.yul\":14110:14774   */\n    tag_86:\n        /* \"#utility.yul\":14315:14319   */\n      0x00\n        /* \"#utility.yul\":14353:14356   */\n      0xa0\n        /* \"#utility.yul\":14342:14351   */\n      dup3\n        /* \"#utility.yul\":14338:14357   */\n      add\n        /* \"#utility.yul\":14330:14357   */\n      swap1\n      pop\n        /* \"#utility.yul\":14367:14438   */\n      tag_404\n        /* \"#utility.yul\":14435:14436   */\n      0x00\n        /* \"#utility.yul\":14424:14433   */\n      dup4\n        /* \"#utility.yul\":14420:14437   */\n      add\n        /* \"#utility.yul\":14411:14417   */\n      dup9\n        /* \"#utility.yul\":14367:14438   */\n      tag_209\n      jump\t// in\n    tag_404:\n        /* \"#utility.yul\":14448:14520   */\n      tag_405\n        /* \"#utility.yul\":14516:14518   */\n      0x20\n        /* \"#utility.yul\":14505:14514   */\n      dup4\n        /* \"#utility.yul\":14501:14519   */\n      add\n        /* \"#utility.yul\":14492:14498   */\n      dup8\n        /* \"#utility.yul\":14448:14520   */\n      tag_206\n      jump\t// in\n    tag_405:\n        /* \"#utility.yul\":14530:14602   */\n      tag_406\n        /* \"#utility.yul\":14598:14600   */\n      0x40\n        /* \"#utility.yul\":14587:14596   */\n      dup4\n        /* \"#utility.yul\":14583:14601   */\n      add\n        /* \"#utility.yul\":14574:14580   */\n      dup7\n        /* \"#utility.yul\":14530:14602   */\n      tag_206\n      jump\t// in\n    tag_406:\n        /* \"#utility.yul\":14612:14684   */\n      tag_407\n        /* \"#utility.yul\":14680:14682   */\n      0x60\n        /* \"#utility.yul\":14669:14678   */\n      dup4\n        /* \"#utility.yul\":14665:14683   */\n      add\n        /* \"#utility.yul\":14656:14662   */\n      dup6\n        /* \"#utility.yul\":14612:14684   */\n      tag_206\n      jump\t// in\n    tag_407:\n        /* \"#utility.yul\":14694:14767   */\n      tag_408\n        /* \"#utility.yul\":14762:14765   */\n      0x80\n        /* \"#utility.yul\":14751:14760   */\n      dup4\n        /* \"#utility.yul\":14747:14766   */\n      add\n        /* \"#utility.yul\":14738:14744   */\n      dup5\n        /* \"#utility.yul\":14694:14767   */\n      tag_206\n      jump\t// in\n    tag_408:\n        /* \"#utility.yul\":14110:14774   */\n      swap7\n      swap6\n      pop\n      pop\n      pop\n      pop\n      pop\n      pop\n      jump\t// out\n        /* \"#utility.yul\":14780:15007   */\n    tag_253:\n        /* \"#utility.yul\":14920:14954   */\n      0x4f6e6c79207061727469636970616e74206f7220737570706c6965722063616e\n        /* \"#utility.yul\":14916:14917   */\n      0x00\n        /* \"#utility.yul\":14908:14914   */\n      dup3\n        /* \"#utility.yul\":14904:14918   */\n      add\n        /* \"#utility.yul\":14897:14955   */\n      mstore\n        /* \"#utility.yul\":14989:14999   */\n      0x2072656365697665000000000000000000000000000000000000000000000000\n        /* \"#utility.yul\":14984:14986   */\n      0x20\n        /* \"#utility.yul\":14976:14982   */\n      dup3\n        /* \"#utility.yul\":14972:14987   */\n      add\n        /* \"#utility.yul\":14965:15000   */\n      mstore\n        /* \"#utility.yul\":14780:15007   */\n      pop\n      jump\t// out\n        /* \"#utility.yul\":15013:15379   */\n    tag_254:\n        /* \"#utility.yul\":15155:15158   */\n      0x00\n        /* \"#utility.yul\":15176:15243   */\n      tag_411\n        /* \"#utility.yul\":15240:15242   */\n      0x28\n        /* \"#utility.yul\":15235:15238   */\n      dup4\n        /* \"#utility.yul\":15176:15243   */\n      tag_250\n      jump\t// in\n    tag_411:\n        /* \"#utility.yul\":15169:15243   */\n      swap2\n      pop\n        /* \"#utility.yul\":15252:15345   */\n      tag_412\n        /* \"#utility.yul\":15341:15344   */\n      dup3\n        /* \"#utility.yul\":15252:15345   */\n      tag_253\n      jump\t// in\n    tag_412:\n        /* \"#utility.yul\":15370:15372   */\n      0x40\n        /* \"#utility.yul\":15365:15368   */\n      dup3\n        /* \"#utility.yul\":15361:15373   */\n      add\n        /* \"#utility.yul\":15354:15373   */\n      swap1\n      pop\n        /* \"#utility.yul\":15013:15379   */\n      swap2\n      swap1\n      pop\n      jump\t// out\n        /* \"#utility.yul\":15385:15804   */\n    tag_126:\n        /* \"#utility.yul\":15551:15555   */\n      0x00\n        /* \"#utility.yul\":15589:15591   */\n      0x20\n        /* \"#utility.yul\":15578:15587   */\n      dup3\n        /* \"#utility.yul\":15574:15592   */\n      add\n        /* \"#utility.yul\":15566:15592   */\n      swap1\n      pop\n        /* \"#utility.yul\":15638:15647   */\n      dup2\n        /* \"#utility.yul\":15632:15636   */\n      dup2\n        /* \"#utility.yul\":15628:15648   */\n      sub\n        /* \"#utility.yul\":15624:15625   */\n      0x00\n        /* \"#utility.yul\":15613:15622   */\n      dup4\n        /* \"#utility.yul\":15609:15626   */\n      add\n        /* \"#utility.yul\":15602:15649   */\n      mstore\n        /* \"#utility.yul\":15666:15797   */\n      tag_414\n        /* \"#utility.yul\":15792:15796   */\n      dup2\n        /* \"#utility.yul\":15666:15797   */\n      tag_254\n      jump\t// in\n    tag_414:\n        /* \"#utility.yul\":15658:15797   */\n      swap1\n      pop\n        /* \"#utility.yul\":15385:15804   */\n      swap2\n      swap1\n      pop\n      jump\t// out\n        /* \"#utility.yul\":15810:15977   */\n    tag_255:\n        /* \"#utility.yul\":15950:15969   */\n      0x4e6f7420656e6f75676820657468657273000000000000000000000000000000\n        /* \"#utility.yul\":15946:15947   */\n      0x00\n        /* \"#utility.yul\":15938:15944   */\n      dup3\n        /* \"#utility.yul\":15934:15948   */\n      add\n        /* \"#utility.yul\":15927:15970   */\n      mstore\n        /* \"#utility.yul\":15810:15977   */\n      pop\n      jump\t// out\n        /* \"#utility.yul\":15983:16349   */\n    tag_256:\n        /* \"#utility.yul\":16125:16128   */\n      0x00\n        /* \"#utility.yul\":16146:16213   */\n      tag_417\n        /* \"#utility.yul\":16210:16212   */\n      0x11\n        /* \"#utility.yul\":16205:16208   */\n      dup4\n        /* \"#utility.yul\":16146:16213   */\n      tag_250\n      jump\t// in\n    tag_417:\n        /* \"#utility.yul\":16139:16213   */\n      swap2\n      pop\n        /* \"#utility.yul\":16222:16315   */\n      tag_418\n        /* \"#utility.yul\":16311:16314   */\n      dup3\n        /* \"#utility.yul\":16222:16315   */\n      tag_255\n      jump\t// in\n    tag_418:\n        /* \"#utility.yul\":16340:16342   */\n      0x20\n        /* \"#utility.yul\":16335:16338   */\n      dup3\n        /* \"#utility.yul\":16331:16343   */\n      add\n        /* \"#utility.yul\":16324:16343   */\n      swap1\n      pop\n        /* \"#utility.yul\":15983:16349   */\n      swap2\n      swap1\n      pop\n      jump\t// out\n        /* \"#utility.yul\":16355:16774   */\n    tag_130:\n        /* \"#utility.yul\":16521:16525   */\n      0x00\n        /* \"#utility.yul\":16559:16561   */\n      0x20\n        /* \"#utility.yul\":16548:16557   */\n      dup3\n        /* \"#utility.yul\":16544:16562   */\n      add\n        /* \"#utility.yul\":16536:16562   */\n      swap1\n      pop\n        /* \"#utility.yul\":16608:16617   */\n      dup2\n        /* \"#utility.yul\":16602:16606   */\n      dup2\n        /* \"#utility.yul\":16598:16618   */\n      sub\n        /* \"#utility.yul\":16594:16595   */\n      0x00\n        /* \"#utility.yul\":16583:16592   */\n      dup4\n        /* \"#utility.yul\":16579:16596   */\n      add\n        /* \"#utility.yul\":16572:16619   */\n      mstore\n        /* \"#utility.yul\":16636:16767   */\n      tag_420\n        /* \"#utility.yul\":16762:16766   */\n      dup2\n        /* \"#utility.yul\":16636:16767   */\n      tag_256\n      jump\t// in\n    tag_420:\n        /* \"#utility.yul\":16628:16767   */\n      swap1\n      pop\n        /* \"#utility.yul\":16355:16774   */\n      swap2\n      swap1\n      pop\n      jump\t// out\n        /* \"#utility.yul\":16780:16947   */\n    tag_257:\n        /* \"#utility.yul\":16920:16939   */\n      0x4e6f7420656e6f75676820617373657473000000000000000000000000000000\n        /* \"#utility.yul\":16916:16917   */\n      0x00\n        /* \"#utility.yul\":16908:16914   */\n      dup3\n        /* \"#utility.yul\":16904:16918   */\n      add\n        /* \"#utility.yul\":16897:16940   */\n      mstore\n        /* \"#utility.yul\":16780:16947   */\n      pop\n      jump\t// out\n        /* \"#utility.yul\":16953:17319   */\n    tag_258:\n        /* \"#utility.yul\":17095:17098   */\n      0x00\n        /* \"#utility.yul\":17116:17183   */\n      tag_423\n        /* \"#utility.yul\":17180:17182   */\n      0x11\n        /* \"#utility.yul\":17175:17178   */\n      dup4\n        /* \"#utility.yul\":17116:17183   */\n      tag_250\n      jump\t// in\n    tag_423:\n        /* \"#utility.yul\":17109:17183   */\n      swap2\n      pop\n        /* \"#utility.yul\":17192:17285   */\n      tag_424\n        /* \"#utility.yul\":17281:17284   */\n      dup3\n        /* \"#utility.yul\":17192:17285   */\n      tag_257\n      jump\t// in\n    tag_424:\n        /* \"#utility.yul\":17310:17312   */\n      0x20\n        /* \"#utility.yul\":17305:17308   */\n      dup3\n        /* \"#utility.yul\":17301:17313   */\n      add\n        /* \"#utility.yul\":17294:17313   */\n      swap1\n      pop\n        /* \"#utility.yul\":16953:17319   */\n      swap2\n      swap1\n      pop\n      jump\t// out\n        /* \"#utility.yul\":17325:17744   */\n    tag_135:\n        /* \"#utility.yul\":17491:17495   */\n      0x00\n        /* \"#utility.yul\":17529:17531   */\n      0x20\n        /* \"#utility.yul\":17518:17527   */\n      dup3\n        /* \"#utility.yul\":17514:17532   */\n      add\n        /* \"#utility.yul\":17506:17532   */\n      swap1\n      pop\n        /* \"#utility.yul\":17578:17587   */\n      dup2\n        /* \"#utility.yul\":17572:17576   */\n      dup2\n        /* \"#utility.yul\":17568:17588   */\n      sub\n        /* \"#utility.yul\":17564:17565   */\n      0x00\n        /* \"#utility.yul\":17553:17562   */\n      dup4\n        /* \"#utility.yul\":17549:17566   */\n      add\n        /* \"#utility.yul\":17542:17589   */\n      mstore\n        /* \"#utility.yul\":17606:17737   */\n      tag_426\n        /* \"#utility.yul\":17732:17736   */\n      dup2\n        /* \"#utility.yul\":17606:17737   */\n      tag_258\n      jump\t// in\n    tag_426:\n        /* \"#utility.yul\":17598:17737   */\n      swap1\n      pop\n        /* \"#utility.yul\":17325:17744   */\n      swap2\n      swap1\n      pop\n      jump\t// out\n        /* \"#utility.yul\":17750:17944   */\n    tag_137:\n        /* \"#utility.yul\":17790:17794   */\n      0x00\n        /* \"#utility.yul\":17810:17830   */\n      tag_428\n        /* \"#utility.yul\":17828:17829   */\n      dup3\n        /* \"#utility.yul\":17810:17830   */\n      tag_205\n      jump\t// in\n    tag_428:\n        /* \"#utility.yul\":17805:17830   */\n      swap2\n      pop\n        /* \"#utility.yul\":17844:17864   */\n      tag_429\n        /* \"#utility.yul\":17862:17863   */\n      dup4\n        /* \"#utility.yul\":17844:17864   */\n      tag_205\n      jump\t// in\n    tag_429:\n        /* \"#utility.yul\":17839:17864   */\n      swap3\n      pop\n        /* \"#utility.yul\":17888:17889   */\n      dup3\n        /* \"#utility.yul\":17885:17886   */\n      dup3\n        /* \"#utility.yul\":17881:17890   */\n      sub\n        /* \"#utility.yul\":17873:17890   */\n      swap1\n      pop\n        /* \"#utility.yul\":17912:17913   */\n      dup2\n        /* \"#utility.yul\":17906:17910   */\n      dup2\n        /* \"#utility.yul\":17903:17914   */\n      gt\n        /* \"#utility.yul\":17900:17937   */\n      iszero\n      tag_430\n      jumpi\n        /* \"#utility.yul\":17917:17935   */\n      tag_431\n      tag_248\n      jump\t// in\n    tag_431:\n        /* \"#utility.yul\":17900:17937   */\n    tag_430:\n        /* \"#utility.yul\":17750:17944   */\n      swap3\n      swap2\n      pop\n      pop\n      jump\t// out\n        /* \"#utility.yul\":17950:18010   */\n    tag_259:\n        /* \"#utility.yul\":17978:17981   */\n      0x00\n        /* \"#utility.yul\":17999:18004   */\n      dup2\n        /* \"#utility.yul\":17992:18004   */\n      swap1\n      pop\n        /* \"#utility.yul\":17950:18010   */\n      swap2\n      swap1\n      pop\n      jump\t// out\n        /* \"#utility.yul\":18016:18158   */\n    tag_260:\n        /* \"#utility.yul\":18066:18075   */\n      0x00\n        /* \"#utility.yul\":18099:18152   */\n      tag_434\n        /* \"#utility.yul\":18117:18151   */\n      tag_435\n        /* \"#utility.yul\":18126:18150   */\n      tag_436\n        /* \"#utility.yul\":18144:18149   */\n      dup5\n        /* \"#utility.yul\":18126:18150   */\n      tag_207\n      jump\t// in\n    tag_436:\n        /* \"#utility.yul\":18117:18151   */\n      tag_259\n      jump\t// in\n    tag_435:\n        /* \"#utility.yul\":18099:18152   */\n      tag_207\n      jump\t// in\n    tag_434:\n        /* \"#utility.yul\":18086:18152   */\n      swap1\n      pop\n        /* \"#utility.yul\":18016:18158   */\n      swap2\n      swap1\n      pop\n      jump\t// out\n        /* \"#utility.yul\":18164:18290   */\n    tag_261:\n        /* \"#utility.yul\":18214:18223   */\n      0x00\n        /* \"#utility.yul\":18247:18284   */\n      tag_438\n        /* \"#utility.yul\":18278:18283   */\n      dup3\n        /* \"#utility.yul\":18247:18284   */\n      tag_260\n      jump\t// in\n    tag_438:\n        /* \"#utility.yul\":18234:18284   */\n      swap1\n      pop\n        /* \"#utility.yul\":18164:18290   */\n      swap2\n      swap1\n      pop\n      jump\t// out\n        /* \"#utility.yul\":18296:18430   */\n    tag_262:\n        /* \"#utility.yul\":18354:18363   */\n      0x00\n        /* \"#utility.yul\":18387:18424   */\n      tag_440\n        /* \"#utility.yul\":18418:18423   */\n      dup3\n        /* \"#utility.yul\":18387:18424   */\n      tag_261\n      jump\t// in\n    tag_440:\n        /* \"#utility.yul\":18374:18424   */\n      swap1\n      pop\n        /* \"#utility.yul\":18296:18430   */\n      swap2\n      swap1\n      pop\n      jump\t// out\n        /* \"#utility.yul\":18436:18583   */\n    tag_263:\n        /* \"#utility.yul\":18531:18576   */\n      tag_442\n        /* \"#utility.yul\":18570:18575   */\n      dup2\n        /* \"#utility.yul\":18531:18576   */\n      tag_262\n      jump\t// in\n    tag_442:\n        /* \"#utility.yul\":18526:18529   */\n      dup3\n        /* \"#utility.yul\":18519:18577   */\n      mstore\n        /* \"#utility.yul\":18436:18583   */\n      pop\n      pop\n      jump\t// out\n        /* \"#utility.yul\":18589:19269   */\n    tag_141:\n        /* \"#utility.yul\":18802:18806   */\n      0x00\n        /* \"#utility.yul\":18840:18843   */\n      0xa0\n        /* \"#utility.yul\":18829:18838   */\n      dup3\n        /* \"#utility.yul\":18825:18844   */\n      add\n        /* \"#utility.yul\":18817:18844   */\n      swap1\n      pop\n        /* \"#utility.yul\":18854:18933   */\n      tag_444\n        /* \"#utility.yul\":18930:18931   */\n      0x00\n        /* \"#utility.yul\":18919:18928   */\n      dup4\n        /* \"#utility.yul\":18915:18932   */\n      add\n        /* \"#utility.yul\":18906:18912   */\n      dup9\n        /* \"#utility.yul\":18854:18933   */\n      tag_263\n      jump\t// in\n    tag_444:\n        /* \"#utility.yul\":18943:19015   */\n      tag_445\n        /* \"#utility.yul\":19011:19013   */\n      0x20\n        /* \"#utility.yul\":19000:19009   */\n      dup4\n        /* \"#utility.yul\":18996:19014   */\n      add\n        /* \"#utility.yul\":18987:18993   */\n      dup8\n        /* \"#utility.yul\":18943:19015   */\n      tag_206\n      jump\t// in\n    tag_445:\n        /* \"#utility.yul\":19025:19097   */\n      tag_446\n        /* \"#utility.yul\":19093:19095   */\n      0x40\n        /* \"#utility.yul\":19082:19091   */\n      dup4\n        /* \"#utility.yul\":19078:19096   */\n      add\n        /* \"#utility.yul\":19069:19075   */\n      dup7\n        /* \"#utility.yul\":19025:19097   */\n      tag_206\n      jump\t// in\n    tag_446:\n        /* \"#utility.yul\":19107:19179   */\n      tag_447\n        /* \"#utility.yul\":19175:19177   */\n      0x60\n        /* \"#utility.yul\":19164:19173   */\n      dup4\n        /* \"#utility.yul\":19160:19178   */\n      add\n        /* \"#utility.yul\":19151:19157   */\n      dup6\n        /* \"#utility.yul\":19107:19179   */\n      tag_206\n      jump\t// in\n    tag_447:\n        /* \"#utility.yul\":19189:19262   */\n      tag_448\n        /* \"#utility.yul\":19257:19260   */\n      0x80\n        /* \"#utility.yul\":19246:19255   */\n      dup4\n        /* \"#utility.yul\":19242:19261   */\n      add\n        /* \"#utility.yul\":19233:19239   */\n      dup5\n        /* \"#utility.yul\":19189:19262   */\n      tag_206\n      jump\t// in\n    tag_448:\n        /* \"#utility.yul\":18589:19269   */\n      swap7\n      swap6\n      pop\n      pop\n      pop\n      pop\n      pop\n      pop\n      jump\t// out\n        /* \"#utility.yul\":19275:19455   */\n    tag_146:\n        /* \"#utility.yul\":19323:19400   */\n      0x4e487b7100000000000000000000000000000000000000000000000000000000\n        /* \"#utility.yul\":19320:19321   */\n      0x00\n        /* \"#utility.yul\":19313:19401   */\n      mstore\n        /* \"#utility.yul\":19420:19424   */\n      0x41\n        /* \"#utility.yul\":19417:19418   */\n      0x04\n        /* \"#utility.yul\":19410:19425   */\n      mstore\n        /* \"#utility.yul\":19444:19448   */\n      0x24\n        /* \"#utility.yul\":19441:19442   */\n      0x00\n        /* \"#utility.yul\":19434:19449   */\n      revert\n        /* \"#utility.yul\":19461:19641   */\n    tag_264:\n        /* \"#utility.yul\":19509:19586   */\n      0x4e487b7100000000000000000000000000000000000000000000000000000000\n        /* \"#utility.yul\":19506:19507   */\n      0x00\n        /* \"#utility.yul\":19499:19587   */\n      mstore\n        /* \"#utility.yul\":19606:19610   */\n      0x22\n        /* \"#utility.yul\":19603:19604   */\n      0x04\n        /* \"#utility.yul\":19596:19611   */\n      mstore\n        /* \"#utility.yul\":19630:19634   */\n      0x24\n        /* \"#utility.yul\":19627:19628   */\n      0x00\n        /* \"#utility.yul\":19620:19635   */\n      revert\n        /* \"#utility.yul\":19647:19967   */\n    tag_158:\n        /* \"#utility.yul\":19691:19697   */\n      0x00\n        /* \"#utility.yul\":19728:19729   */\n      0x02\n        /* \"#utility.yul\":19722:19726   */\n      dup3\n        /* \"#utility.yul\":19718:19730   */\n      div\n        /* \"#utility.yul\":19708:19730   */\n      swap1\n      pop\n        /* \"#utility.yul\":19775:19776   */\n      0x01\n        /* \"#utility.yul\":19769:19773   */\n      dup3\n        /* \"#utility.yul\":19765:19777   */\n      and\n        /* \"#utility.yul\":19796:19814   */\n      dup1\n        /* \"#utility.yul\":19786:19867   */\n      tag_452\n      jumpi\n        /* \"#utility.yul\":19852:19856   */\n      0x7f\n        /* \"#utility.yul\":19844:19850   */\n      dup3\n        /* \"#utility.yul\":19840:19857   */\n      and\n        /* \"#utility.yul\":19830:19857   */\n      swap2\n      pop\n        /* \"#utility.yul\":19786:19867   */\n    tag_452:\n        /* \"#utility.yul\":19914:19916   */\n      0x20\n        /* \"#utility.yul\":19906:19912   */\n      dup3\n        /* \"#utility.yul\":19903:19917   */\n      lt\n        /* \"#utility.yul\":19883:19901   */\n      dup2\n        /* \"#utility.yul\":19880:19918   */\n      sub\n        /* \"#utility.yul\":19877:19961   */\n      tag_453\n      jumpi\n        /* \"#utility.yul\":19933:19951   */\n      tag_454\n      tag_264\n      jump\t// in\n    tag_454:\n        /* \"#utility.yul\":19877:19961   */\n    tag_453:\n        /* \"#utility.yul\":19698:19967   */\n      pop\n        /* \"#utility.yul\":19647:19967   */\n      swap2\n      swap1\n      pop\n      jump\t// out\n        /* \"#utility.yul\":19973:20121   */\n    tag_265:\n        /* \"#utility.yul\":20075:20086   */\n      0x00\n        /* \"#utility.yul\":20112:20115   */\n      dup2\n        /* \"#utility.yul\":20097:20115   */\n      swap1\n      pop\n        /* \"#utility.yul\":19973:20121   */\n      swap3\n      swap2\n      pop\n      pop\n      jump\t// out\n        /* \"#utility.yul\":20127:20268   */\n    tag_266:\n        /* \"#utility.yul\":20176:20180   */\n      0x00\n        /* \"#utility.yul\":20199:20202   */\n      dup2\n        /* \"#utility.yul\":20191:20202   */\n      swap1\n      pop\n        /* \"#utility.yul\":20222:20225   */\n      dup2\n        /* \"#utility.yul\":20219:20220   */\n      0x00\n        /* \"#utility.yul\":20212:20226   */\n      mstore\n        /* \"#utility.yul\":20256:20260   */\n      0x20\n        /* \"#utility.yul\":20253:20254   */\n      0x00\n        /* \"#utility.yul\":20243:20261   */\n      keccak256\n        /* \"#utility.yul\":20235:20261   */\n      swap1\n      pop\n        /* \"#utility.yul\":20127:20268   */\n      swap2\n      swap1\n      pop\n      jump\t// out\n        /* \"#utility.yul\":20298:21172   */\n    tag_267:\n        /* \"#utility.yul\":20401:20404   */\n      0x00\n        /* \"#utility.yul\":20438:20443   */\n      dup2\n        /* \"#utility.yul\":20432:20444   */\n      sload\n        /* \"#utility.yul\":20467:20503   */\n      tag_458\n        /* \"#utility.yul\":20493:20502   */\n      dup2\n        /* \"#utility.yul\":20467:20503   */\n      tag_158\n      jump\t// in\n    tag_458:\n        /* \"#utility.yul\":20519:20608   */\n      tag_459\n        /* \"#utility.yul\":20601:20607   */\n      dup2\n        /* \"#utility.yul\":20596:20599   */\n      dup7\n        /* \"#utility.yul\":20519:20608   */\n      tag_265\n      jump\t// in\n    tag_459:\n        /* \"#utility.yul\":20512:20608   */\n      swap5\n      pop\n        /* \"#utility.yul\":20639:20640   */\n      0x01\n        /* \"#utility.yul\":20628:20637   */\n      dup3\n        /* \"#utility.yul\":20624:20641   */\n      and\n        /* \"#utility.yul\":20655:20656   */\n      0x00\n        /* \"#utility.yul\":20650:20816   */\n      dup2\n      eq\n      tag_461\n      jumpi\n        /* \"#utility.yul\":20830:20831   */\n      0x01\n        /* \"#utility.yul\":20825:21166   */\n      dup2\n      eq\n      tag_462\n      jumpi\n        /* \"#utility.yul\":20617:21166   */\n      jump(tag_460)\n        /* \"#utility.yul\":20650:20816   */\n    tag_461:\n        /* \"#utility.yul\":20734:20738   */\n      0xff\n        /* \"#utility.yul\":20730:20739   */\n      not\n        /* \"#utility.yul\":20719:20728   */\n      dup4\n        /* \"#utility.yul\":20715:20740   */\n      and\n        /* \"#utility.yul\":20710:20713   */\n      dup7\n        /* \"#utility.yul\":20703:20741   */\n      mstore\n        /* \"#utility.yul\":20796:20802   */\n      dup2\n        /* \"#utility.yul\":20789:20803   */\n      iszero\n        /* \"#utility.yul\":20782:20804   */\n      iszero\n        /* \"#utility.yul\":20774:20780   */\n      dup3\n        /* \"#utility.yul\":20770:20805   */\n      mul\n        /* \"#utility.yul\":20765:20768   */\n      dup7\n        /* \"#utility.yul\":20761:20806   */\n      add\n        /* \"#utility.yul\":20754:20806   */\n      swap4\n      pop\n        /* \"#utility.yul\":20650:20816   */\n      jump(tag_460)\n        /* \"#utility.yul\":20825:21166   */\n    tag_462:\n        /* \"#utility.yul\":20892:20930   */\n      tag_463\n        /* \"#utility.yul\":20924:20929   */\n      dup6\n        /* \"#utility.yul\":20892:20930   */\n      tag_266\n      jump\t// in\n    tag_463:\n        /* \"#utility.yul\":20952:20953   */\n      0x00\n        /* \"#utility.yul\":20966:21120   */\n    tag_464:\n        /* \"#utility.yul\":20980:20986   */\n      dup4\n        /* \"#utility.yul\":20977:20978   */\n      dup2\n        /* \"#utility.yul\":20974:20987   */\n      lt\n        /* \"#utility.yul\":20966:21120   */\n      iszero\n      tag_466\n      jumpi\n        /* \"#utility.yul\":21054:21061   */\n      dup2\n        /* \"#utility.yul\":21048:21062   */\n      sload\n        /* \"#utility.yul\":21044:21045   */\n      dup2\n        /* \"#utility.yul\":21039:21042   */\n      dup10\n        /* \"#utility.yul\":21035:21046   */\n      add\n        /* \"#utility.yul\":21028:21063   */\n      mstore\n        /* \"#utility.yul\":21104:21105   */\n      0x01\n        /* \"#utility.yul\":21095:21102   */\n      dup3\n        /* \"#utility.yul\":21091:21106   */\n      add\n        /* \"#utility.yul\":21080:21106   */\n      swap2\n      pop\n        /* \"#utility.yul\":21002:21006   */\n      0x20\n        /* \"#utility.yul\":20999:21000   */\n      dup2\n        /* \"#utility.yul\":20995:21007   */\n      add\n        /* \"#utility.yul\":20990:21007   */\n      swap1\n      pop\n        /* \"#utility.yul\":20966:21120   */\n      jump(tag_464)\n    tag_466:\n        /* \"#utility.yul\":21149:21155   */\n      dup4\n        /* \"#utility.yul\":21144:21147   */\n      dup9\n        /* \"#utility.yul\":21140:21156   */\n      add\n        /* \"#utility.yul\":21133:21156   */\n      swap6\n      pop\n        /* \"#utility.yul\":20832:21166   */\n      pop\n      pop\n        /* \"#utility.yul\":20617:21166   */\n    tag_460:\n      pop\n        /* \"#utility.yul\":20405:21172   */\n      pop\n      pop\n        /* \"#utility.yul\":20298:21172   */\n      swap3\n      swap2\n      pop\n      pop\n      jump\t// out\n        /* \"#utility.yul\":21178:21447   */\n    tag_156:\n        /* \"#utility.yul\":21307:21310   */\n      0x00\n        /* \"#utility.yul\":21329:21421   */\n      tag_468\n        /* \"#utility.yul\":21417:21420   */\n      dup3\n        /* \"#utility.yul\":21408:21414   */\n      dup5\n        /* \"#utility.yul\":21329:21421   */\n      tag_267\n      jump\t// in\n    tag_468:\n        /* \"#utility.yul\":21322:21421   */\n      swap2\n      pop\n        /* \"#utility.yul\":21438:21441   */\n      dup2\n        /* \"#utility.yul\":21431:21441   */\n      swap1\n      pop\n        /* \"#utility.yul\":21178:21447   */\n      swap3\n      swap2\n      pop\n      pop\n      jump\t// out\n        /* \"#utility.yul\":21453:21863   */\n    tag_189:\n        /* \"#utility.yul\":21493:21500   */\n      0x00\n        /* \"#utility.yul\":21516:21536   */\n      tag_470\n        /* \"#utility.yul\":21534:21535   */\n      dup3\n        /* \"#utility.yul\":21516:21536   */\n      tag_205\n      jump\t// in\n    tag_470:\n        /* \"#utility.yul\":21511:21536   */\n      swap2\n      pop\n        /* \"#utility.yul\":21550:21570   */\n      tag_471\n        /* \"#utility.yul\":21568:21569   */\n      dup4\n        /* \"#utility.yul\":21550:21570   */\n      tag_205\n      jump\t// in\n    tag_471:\n        /* \"#utility.yul\":21545:21570   */\n      swap3\n      pop\n        /* \"#utility.yul\":21605:21606   */\n      dup3\n        /* \"#utility.yul\":21602:21603   */\n      dup3\n        /* \"#utility.yul\":21598:21607   */\n      mul\n        /* \"#utility.yul\":21627:21657   */\n      tag_472\n        /* \"#utility.yul\":21645:21656   */\n      dup2\n        /* \"#utility.yul\":21627:21657   */\n      tag_205\n      jump\t// in\n    tag_472:\n        /* \"#utility.yul\":21616:21657   */\n      swap2\n      pop\n        /* \"#utility.yul\":21806:21807   */\n      dup3\n        /* \"#utility.yul\":21797:21804   */\n      dup3\n        /* \"#utility.yul\":21793:21808   */\n      div\n        /* \"#utility.yul\":21790:21791   */\n      dup5\n        /* \"#utility.yul\":21787:21809   */\n      eq\n        /* \"#utility.yul\":21767:21768   */\n      dup4\n        /* \"#utility.yul\":21760:21769   */\n      iszero\n        /* \"#utility.yul\":21740:21823   */\n      or\n        /* \"#utility.yul\":21717:21856   */\n      tag_473\n      jumpi\n        /* \"#utility.yul\":21836:21854   */\n      tag_474\n      tag_248\n      jump\t// in\n    tag_474:\n        /* \"#utility.yul\":21717:21856   */\n    tag_473:\n        /* \"#utility.yul\":21501:21863   */\n      pop\n        /* \"#utility.yul\":21453:21863   */\n      swap3\n      swap2\n      pop\n      pop\n      jump\t// out\n        /* \"#utility.yul\":21869:22049   */\n    tag_268:\n        /* \"#utility.yul\":21917:21994   */\n      0x4e487b7100000000000000000000000000000000000000000000000000000000\n        /* \"#utility.yul\":21914:21915   */\n      0x00\n        /* \"#utility.yul\":21907:21995   */\n      mstore\n        /* \"#utility.yul\":22014:22018   */\n      0x12\n        /* \"#utility.yul\":22011:22012   */\n      0x04\n        /* \"#utility.yul\":22004:22019   */\n      mstore\n        /* \"#utility.yul\":22038:22042   */\n      0x24\n        /* \"#utility.yul\":22035:22036   */\n      0x00\n        /* \"#utility.yul\":22028:22043   */\n      revert\n        /* \"#utility.yul\":22055:22240   */\n    tag_191:\n        /* \"#utility.yul\":22095:22096   */\n      0x00\n        /* \"#utility.yul\":22112:22132   */\n      tag_477\n        /* \"#utility.yul\":22130:22131   */\n      dup3\n        /* \"#utility.yul\":22112:22132   */\n      tag_205\n      jump\t// in\n    tag_477:\n        /* \"#utility.yul\":22107:22132   */\n      swap2\n      pop\n        /* \"#utility.yul\":22146:22166   */\n      tag_478\n        /* \"#utility.yul\":22164:22165   */\n      dup4\n        /* \"#utility.yul\":22146:22166   */\n      tag_205\n      jump\t// in\n    tag_478:\n        /* \"#utility.yul\":22141:22166   */\n      swap3\n      pop\n        /* \"#utility.yul\":22185:22186   */\n      dup3\n        /* \"#utility.yul\":22175:22210   */\n      tag_479\n      jumpi\n        /* \"#utility.yul\":22190:22208   */\n      tag_480\n      tag_268\n      jump\t// in\n    tag_480:\n        /* \"#utility.yul\":22175:22210   */\n    tag_479:\n        /* \"#utility.yul\":22232:22233   */\n      dup3\n        /* \"#utility.yul\":22229:22230   */\n      dup3\n        /* \"#utility.yul\":22225:22234   */\n      div\n        /* \"#utility.yul\":22220:22234   */\n      swap1\n      pop\n        /* \"#utility.yul\":22055:22240   */\n      swap3\n      swap2\n      pop\n      pop\n      jump\t// out\n\n    auxdata: 0xa26469706673582212208c8f6678278e1f0b941af53a419a2dc1c0ef545932494ffca4beed0dc03d0abd64736f6c63430008190033\n}\n",
				"bytecode": {
					"linkReferences": {},
					"object": "60806040525f60085f6101000a81548160ff021916908360ff160217905550348015610029575f80fd5b50604051612d85380380612d85833981810160405281019061004b9190610a7c565b670de0b6b3a76400008261005f9190610ba2565b6006819055508460035f6101000a81548173ffffffffffffffffffffffffffffffffffffffff021916908373ffffffffffffffffffffffffffffffffffffffff160217905550335f806101000a81548173ffffffffffffffffffffffffffffffffffffffff021916908373ffffffffffffffffffffffffffffffffffffffff1602179055505f5b86518160ff1610156101e1576001878260ff168151811061010a57610109610be3565b5b6020026020010151908060018154018082558091505060019003905f5260205f20015f9091909190916101000a81548173ffffffffffffffffffffffffffffffffffffffff021916908373ffffffffffffffffffffffffffffffffffffffff1602179055505f60025f898460ff168151811061018957610188610be3565b5b602002602001015173ffffffffffffffffffffffffffffffffffffffff1673ffffffffffffffffffffffffffffffffffffffff1681526020019081526020015f208190555080806101d990610c1c565b9150506100e6565b505f5b84518160ff1610156102b857838160ff168151811061020657610205610be3565b5b60200260200101516004868360ff168151811061022657610225610be3565b5b602002602001015160405161023b9190610c88565b908152602001604051809103902090816102559190610ea2565b506005858260ff168151811061026e5761026d610be3565b5b6020026020010151908060018154018082558091505060019003905f5260205f20015f9091909190915090816102a49190610fc9565b5080806102b090610c1c565b9150506101e4565b505f5b81518160ff1610156103e35760076040518060a00160405280848460ff16815181106102ea576102e9610be3565b5b60200260200101515f01518152602001848460ff16815181106103105761030f610be3565b5b60200260200101516020015181526020015f151581526020015f151581526020015f1515815250908060018154018082558091505060019003905f5260205f2090600302015f909190919091505f820151815f0155602082015181600101556040820151816002015f6101000a81548160ff02191690831515021790555060608201518160020160016101000a81548160ff02191690831515021790555060808201518160020160026101000a81548160ff021916908315150217905550505080806103db90610c1c565b9150506102bb565b507f68e8e16725ae304c7b00b773ba80b94a2ea18bebc9d7cc7ade4f8c4980649ae15f8054906101000a900473ffffffffffffffffffffffffffffffffffffffff16600160035f9054906101000a900473ffffffffffffffffffffffffffffffffffffffff166006544742604051610460969594939291906111cc565b60405180910390a1505050505050611232565b5f604051905090565b5f80fd5b5f80fd5b5f80fd5b5f601f19601f8301169050919050565b7f4e487b71000000000000000000000000000000000000000000000000000000005f52604160045260245ffd5b6104ce82610488565b810181811067ffffffffffffffff821117156104ed576104ec610498565b5b80604052505050565b5f6104ff610473565b905061050b82826104c5565b919050565b5f67ffffffffffffffff82111561052a57610529610498565b5b602082029050602081019050919050565b5f80fd5b5f73ffffffffffffffffffffffffffffffffffffffff82169050919050565b5f6105688261053f565b9050919050565b6105788161055e565b8114610582575f80fd5b50565b5f815190506105938161056f565b92915050565b5f6105ab6105a684610510565b6104f6565b905080838252602082019050602084028301858111156105ce576105cd61053b565b5b835b818110156105f757806105e38882610585565b8452602084019350506020810190506105d0565b5050509392505050565b5f82601f83011261061557610614610484565b5b8151610625848260208601610599565b91505092915050565b5f67ffffffffffffffff82111561064857610647610498565b5b602082029050602081019050919050565b5f80fd5b5f67ffffffffffffffff82111561067757610676610498565b5b61068082610488565b9050602081019050919050565b8281835e5f83830152505050565b5f6106ad6106a88461065d565b6104f6565b9050828152602081018484840111156106c9576106c8610659565b5b6106d484828561068d565b509392505050565b5f82601f8301126106f0576106ef610484565b5b815161070084826020860161069b565b91505092915050565b5f61071b6107168461062e565b6104f6565b9050808382526020820190506020840283018581111561073e5761073d61053b565b5b835b8181101561078557805167ffffffffffffffff81111561076357610762610484565b5b80860161077089826106dc565b85526020850194505050602081019050610740565b5050509392505050565b5f82601f8301126107a3576107a2610484565b5b81516107b3848260208601610709565b91505092915050565b5f67ffffffffffffffff8211156107d6576107d5610498565b5b602082029050602081019050919050565b5f67ffffffffffffffff82111561080157610800610498565b5b61080a82610488565b9050602081019050919050565b5f610829610824846107e7565b6104f6565b90508281526020810184848401111561084557610844610659565b5b61085084828561068d565b509392505050565b5f82601f83011261086c5761086b610484565b5b815161087c848260208601610817565b91505092915050565b5f610897610892846107bc565b6104f6565b905080838252602082019050602084028301858111156108ba576108b961053b565b5b835b8181101561090157805167ffffffffffffffff8111156108df576108de610484565b5b8086016108ec8982610858565b855260208501945050506020810190506108bc565b5050509392505050565b5f82601f83011261091f5761091e610484565b5b815161092f848260208601610885565b91505092915050565b5f819050919050565b61094a81610938565b8114610954575f80fd5b50565b5f8151905061096581610941565b92915050565b5f67ffffffffffffffff82111561098557610984610498565b5b602082029050602081019050919050565b5f80fd5b5f604082840312156109af576109ae610996565b5b6109b960406104f6565b90505f6109c884828501610957565b5f8301525060206109db84828501610957565b60208301525092915050565b5f6109f96109f48461096b565b6104f6565b90508083825260208201905060408402830185811115610a1c57610a1b61053b565b5b835b81811015610a455780610a31888261099a565b845260208401935050604081019050610a1e565b5050509392505050565b5f82601f830112610a6357610a62610484565b5b8151610a738482602086016109e7565b91505092915050565b5f805f805f8060c08789031215610a9657610a9561047c565b5b5f87015167ffffffffffffffff811115610ab357610ab2610480565b5b610abf89828a01610601565b9650506020610ad089828a01610585565b955050604087015167ffffffffffffffff811115610af157610af0610480565b5b610afd89828a0161078f565b945050606087015167ffffffffffffffff811115610b1e57610b1d610480565b5b610b2a89828a0161090b565b9350506080610b3b89828a01610957565b92505060a087015167ffffffffffffffff811115610b5c57610b5b610480565b5b610b6889828a01610a4f565b9150509295509295509295565b7f4e487b71000000000000000000000000000000000000000000000000000000005f52601160045260245ffd5b5f610bac82610938565b9150610bb783610938565b9250828202610bc581610938565b91508282048414831517610bdc57610bdb610b75565b5b5092915050565b7f4e487b71000000000000000000000000000000000000000000000000000000005f52603260045260245ffd5b5f60ff82169050919050565b5f610c2682610c10565b915060ff8203610c3957610c38610b75565b5b600182019050919050565b5f81519050919050565b5f81905092915050565b5f610c6282610c44565b610c6c8185610c4e565b9350610c7c81856020860161068d565b80840191505092915050565b5f610c938284610c58565b915081905092915050565b5f81519050919050565b7f4e487b71000000000000000000000000000000000000000000000000000000005f52602260045260245ffd5b5f6002820490506001821680610cec57607f821691505b602082108103610cff57610cfe610ca8565b5b50919050565b5f819050815f5260205f209050919050565b5f6020601f8301049050919050565b5f82821b905092915050565b5f60088302610d617fffffffffffffffffffffffffffffffffffffffffffffffffffffffffffffffff82610d26565b610d6b8683610d26565b95508019841693508086168417925050509392505050565b5f819050919050565b5f610da6610da1610d9c84610938565b610d83565b610938565b9050919050565b5f819050919050565b610dbf83610d8c565b610dd3610dcb82610dad565b848454610d32565b825550505050565b5f90565b610de7610ddb565b610df2818484610db6565b505050565b5b81811015610e1557610e0a5f82610ddf565b600181019050610df8565b5050565b601f821115610e5a57610e2b81610d05565b610e3484610d17565b81016020851015610e43578190505b610e57610e4f85610d17565b830182610df7565b50505b505050565b5f82821c905092915050565b5f610e7a5f1984600802610e5f565b1980831691505092915050565b5f610e928383610e6b565b9150826002028217905092915050565b610eab82610c9e565b67ffffffffffffffff811115610ec457610ec3610498565b5b610ece8254610cd5565b610ed9828285610e19565b5f60209050601f831160018114610f0a575f8415610ef8578287015190505b610f028582610e87565b865550610f69565b601f198416610f1886610d05565b5f5b82811015610f3f57848901518255600182019150602085019450602081019050610f1a565b86831015610f5c5784890151610f58601f891682610e6b565b8355505b6001600288020188555050505b505050505050565b5f819050815f5260205f209050919050565b601f821115610fc457610f9581610f71565b610f9e84610d17565b81016020851015610fad578190505b610fc1610fb985610d17565b830182610df7565b50505b505050565b610fd282610c44565b67ffffffffffffffff811115610feb57610fea610498565b5b610ff58254610cd5565b611000828285610f83565b5f60209050601f831160018114611031575f841561101f578287015190505b6110298582610e87565b865550611090565b601f19841661103f86610f71565b5f5b8281101561106657848901518255600182019150602085019450602081019050611041565b86831015611083578489015161107f601f891682610e6b565b8355505b6001600288020188555050505b505050505050565b6110a18161055e565b82525050565b5f81549050919050565b5f82825260208201905092915050565b5f819050815f5260205f209050919050565b6110dc8161055e565b82525050565b5f6110ed83836110d3565b60208301905092915050565b5f815f1c9050919050565b5f73ffffffffffffffffffffffffffffffffffffffff82169050919050565b5f611135611130836110f9565b611104565b9050919050565b5f6111478254611123565b9050919050565b5f600182019050919050565b5f611164826110a7565b61116e81856110b1565b9350611179836110c1565b805f5b838110156111b05761118d8261113c565b61119788826110e2565b97506111a28361114e565b92505060018101905061117c565b5085935050505092915050565b6111c681610938565b82525050565b5f60c0820190506111df5f830189611098565b81810360208301526111f1818861115a565b90506112006040830187611098565b61120d60608301866111bd565b61121a60808301856111bd565b61122760a08301846111bd565b979650505050505050565b611b468061123f5f395ff3fe60806040526004361061009b575f3560e01c8063742978da11610063578063742978da1461015157806379655bd01461018d578063904e3cff146101b75780639c01b52f146101d3578063f6dfdad1146101fd578063fbb05337146102275761009b565b806312065fe01461009f57806312b58349146100c957806314a24bcf146100f35780633f44327a1461011d5780634510fb5914610147575b5f80fd5b3480156100aa575f80fd5b506100b3610243565b6040516100c09190611063565b60405180910390f35b3480156100d4575f80fd5b506100dd61024a565b6040516100ea9190611063565b60405180910390f35b3480156100fe575f80fd5b50610107610253565b60405161011491906110bb565b60405180910390f35b348015610128575f80fd5b5061013161027b565b60405161013e919061118b565b60405180910390f35b61014f610306565b005b34801561015c575f80fd5b50610177600480360381019061017291906111d9565b610480565b6040516101849190611063565b60405180910390f35b348015610198575f80fd5b506101a16105aa565b6040516101ae919061133b565b60405180910390f35b6101d160048036038101906101cc91906113c0565b610669565b005b3480156101de575f80fd5b506101e7610a7e565b6040516101f491906110bb565b60405180910390f35b348015610208575f80fd5b50610211610aa5565b60405161021e9190611529565b60405180910390f35b610241600480360381019061023c91906113c0565b610bff565b005b5f47905090565b5f600654905090565b5f60035f9054906101000a900473ffffffffffffffffffffffffffffffffffffffff16905090565b606060018054806020026020016040519081016040528092919081815260200182805480156102fc57602002820191905f5260205f20905b815f9054906101000a900473ffffffffffffffffffffffffffffffffffffffff1673ffffffffffffffffffffffffffffffffffffffff16815260200190600101908083116102b3575b5050505050905090565b335f805b6001805490508160ff1610156103a75760018160ff168154811061033157610330611549565b5b905f5260205f20015f9054906101000a900473ffffffffffffffffffffffffffffffffffffffff1673ffffffffffffffffffffffffffffffffffffffff168373ffffffffffffffffffffffffffffffffffffffff160361039457600191506103a7565b808061039f906115af565b91505061030a565b50806103e8576040517f08c379a00000000000000000000000000000000000000000000000000000000081526004016103df90611657565b60405180910390fd5b3460025f3373ffffffffffffffffffffffffffffffffffffffff1673ffffffffffffffffffffffffffffffffffffffff1681526020019081526020015f205f8282546104349190611675565b925050819055507fe4f13824473bb5d7c83a33648a5b781337db89c57cdfdb2caf2c87a9ca0391f6333460065447426040516104749594939291906116a8565b60405180910390a15050565b5f815f805b6001805490508160ff1610156105225760018160ff16815481106104ac576104ab611549565b5b905f5260205f20015f9054906101000a900473ffffffffffffffffffffffffffffffffffffffff1673ffffffffffffffffffffffffffffffffffffffff168373ffffffffffffffffffffffffffffffffffffffff160361050f5760019150610522565b808061051a906115af565b915050610485565b5080610563576040517f08c379a000000000000000000000000000000000000000000000000000000000815260040161055a90611657565b60405180910390fd5b60025f8573ffffffffffffffffffffffffffffffffffffffff1673ffffffffffffffffffffffffffffffffffffffff1681526020019081526020015f205492505050919050565b60606007805480602002602001604051908101604052809291908181526020015f905b82821015610660578382905f5260205f2090600302016040518060a00160405290815f820154815260200160018201548152602001600282015f9054906101000a900460ff161515151581526020016002820160019054906101000a900460ff161515151581526020016002820160029054906101000a900460ff161515151581525050815260200190600101906105cd565b50505050905090565b335f805b6001805490508160ff16101561070a5760018160ff168154811061069457610693611549565b5b905f5260205f20015f9054906101000a900473ffffffffffffffffffffffffffffffffffffffff1673ffffffffffffffffffffffffffffffffffffffff168373ffffffffffffffffffffffffffffffffffffffff16036106f7576001915061070a565b8080610702906115af565b91505061066d565b508061074b576040517f08c379a000000000000000000000000000000000000000000000000000000000815260040161074290611657565b60405180910390fd5b835f805b6001805490508160ff1610156107ec5760018160ff168154811061077657610775611549565b5b905f5260205f20015f9054906101000a900473ffffffffffffffffffffffffffffffffffffffff1673ffffffffffffffffffffffffffffffffffffffff168373ffffffffffffffffffffffffffffffffffffffff16036107d957600191506107ec565b80806107e4906115af565b91505061074f565b508080610845575060035f9054906101000a900473ffffffffffffffffffffffffffffffffffffffff1673ffffffffffffffffffffffffffffffffffffffff168273ffffffffffffffffffffffffffffffffffffffff16145b610884576040517f08c379a000000000000000000000000000000000000000000000000000000000815260040161087b90611769565b60405180910390fd5b84804710156108c8576040517f08c379a00000000000000000000000000000000000000000000000000000000081526004016108bf906117d1565b60405180910390fd5b60035f9054906101000a900473ffffffffffffffffffffffffffffffffffffffff1673ffffffffffffffffffffffffffffffffffffffff168773ffffffffffffffffffffffffffffffffffffffff16146109f0578560025f8973ffffffffffffffffffffffffffffffffffffffff1673ffffffffffffffffffffffffffffffffffffffff1681526020019081526020015f2054101561099c576040517f08c379a000000000000000000000000000000000000000000000000000000000815260040161099390611839565b60405180910390fd5b8560025f8973ffffffffffffffffffffffffffffffffffffffff1673ffffffffffffffffffffffffffffffffffffffff1681526020019081526020015f205f8282546109e89190611857565b925050819055505b8673ffffffffffffffffffffffffffffffffffffffff166108fc8790811502906040515f60405180830381858888f19350505050158015610a33573d5f803e3d5ffd5b507f132717cc7ce0e7288e4e1e75cd3527373df35d716a6d9d576199b1ee22b1592387876006544742604051610a6d9594939291906118e5565b60405180910390a150505050505050565b5f805f9054906101000a900473ffffffffffffffffffffffffffffffffffffffff16905090565b60605f60058054905067ffffffffffffffff811115610ac757610ac6611936565b5b604051908082528060200260200182016040528015610afa57816020015b6060815260200190600190039081610ae55790505b5090505f5b600580549050811015610bf757600460058281548110610b2257610b21611549565b5b905f5260205f2001604051610b379190611a5c565b90815260200160405180910390208054610b5090611990565b80601f0160208091040260200160405190810160405280929190818152602001828054610b7c90611990565b8015610bc75780601f10610b9e57610100808354040283529160200191610bc7565b820191905f5260205f20905b815481529060010190602001808311610baa57829003601f168201915b5050505050828281518110610bdf57610bde611549565b5b60200260200101819052508080600101915050610aff565b508091505090565b335f805b6001805490508160ff161015610ca05760018160ff1681548110610c2a57610c29611549565b5b905f5260205f20015f9054906101000a900473ffffffffffffffffffffffffffffffffffffffff1673ffffffffffffffffffffffffffffffffffffffff168373ffffffffffffffffffffffffffffffffffffffff1603610c8d5760019150610ca0565b8080610c98906115af565b915050610c03565b5080610ce1576040517f08c379a0000000000000000000000000000000000000000000000000000000008152600401610cd890611657565b60405180910390fd5b835f805b6001805490508160ff161015610d825760018160ff1681548110610d0c57610d0b611549565b5b905f5260205f20015f9054906101000a900473ffffffffffffffffffffffffffffffffffffffff1673ffffffffffffffffffffffffffffffffffffffff168373ffffffffffffffffffffffffffffffffffffffff1603610d6f5760019150610d82565b8080610d7a906115af565b915050610ce5565b508080610ddb575060035f9054906101000a900473ffffffffffffffffffffffffffffffffffffffff1673ffffffffffffffffffffffffffffffffffffffff168273ffffffffffffffffffffffffffffffffffffffff16145b610e1a576040517f08c379a0000000000000000000000000000000000000000000000000000000008152600401610e1190611769565b60405180910390fd5b606485600654610e2a9190611a72565b610e349190611ae0565b80471015610e77576040517f08c379a0000000000000000000000000000000000000000000000000000000008152600401610e6e906117d1565b60405180910390fd5b5f606487600654610e889190611a72565b610e929190611ae0565b905060035f9054906101000a900473ffffffffffffffffffffffffffffffffffffffff1673ffffffffffffffffffffffffffffffffffffffff168873ffffffffffffffffffffffffffffffffffffffff1614610fbc578060025f8a73ffffffffffffffffffffffffffffffffffffffff1673ffffffffffffffffffffffffffffffffffffffff1681526020019081526020015f20541015610f68576040517f08c379a0000000000000000000000000000000000000000000000000000000008152600401610f5f90611839565b60405180910390fd5b8060025f8a73ffffffffffffffffffffffffffffffffffffffff1673ffffffffffffffffffffffffffffffffffffffff1681526020019081526020015f205f828254610fb49190611857565b925050819055505b8773ffffffffffffffffffffffffffffffffffffffff166108fc8290811502906040515f60405180830381858888f19350505050158015610fff573d5f803e3d5ffd5b507f132717cc7ce0e7288e4e1e75cd3527373df35d716a6d9d576199b1ee22b15923888260065447426040516110399594939291906118e5565b60405180910390a15050505050505050565b5f819050919050565b61105d8161104b565b82525050565b5f6020820190506110765f830184611054565b92915050565b5f73ffffffffffffffffffffffffffffffffffffffff82169050919050565b5f6110a58261107c565b9050919050565b6110b58161109b565b82525050565b5f6020820190506110ce5f8301846110ac565b92915050565b5f81519050919050565b5f82825260208201905092915050565b5f819050602082019050919050565b6111068161109b565b82525050565b5f61111783836110fd565b60208301905092915050565b5f602082019050919050565b5f611139826110d4565b61114381856110de565b935061114e836110ee565b805f5b8381101561117e578151611165888261110c565b975061117083611123565b925050600181019050611151565b5085935050505092915050565b5f6020820190508181035f8301526111a3818461112f565b905092915050565b5f80fd5b6111b88161109b565b81146111c2575f80fd5b50565b5f813590506111d3816111af565b92915050565b5f602082840312156111ee576111ed6111ab565b5b5f6111fb848285016111c5565b91505092915050565b5f81519050919050565b5f82825260208201905092915050565b5f819050602082019050919050565b6112368161104b565b82525050565b5f8115159050919050565b6112508161123c565b82525050565b60a082015f82015161126a5f85018261122d565b50602082015161127d602085018261122d565b5060408201516112906040850182611247565b5060608201516112a36060850182611247565b5060808201516112b66080850182611247565b50505050565b5f6112c78383611256565b60a08301905092915050565b5f602082019050919050565b5f6112e982611204565b6112f3818561120e565b93506112fe8361121e565b805f5b8381101561132e57815161131588826112bc565b9750611320836112d3565b925050600181019050611301565b5085935050505092915050565b5f6020820190508181035f83015261135381846112df565b905092915050565b5f6113658261107c565b9050919050565b6113758161135b565b811461137f575f80fd5b50565b5f813590506113908161136c565b92915050565b61139f8161104b565b81146113a9575f80fd5b50565b5f813590506113ba81611396565b92915050565b5f80604083850312156113d6576113d56111ab565b5b5f6113e385828601611382565b92505060206113f4858286016113ac565b9150509250929050565b5f81519050919050565b5f82825260208201905092915050565b5f819050602082019050919050565b5f81519050919050565b5f82825260208201905092915050565b8281835e5f83830152505050565b5f601f19601f8301169050919050565b5f61146982611427565b6114738185611431565b9350611483818560208601611441565b61148c8161144f565b840191505092915050565b5f6114a2838361145f565b905092915050565b5f602082019050919050565b5f6114c0826113fe565b6114ca8185611408565b9350836020820285016114dc85611418565b805f5b8581101561151757848403895281516114f88582611497565b9450611503836114aa565b925060208a019950506001810190506114df565b50829750879550505050505092915050565b5f6020820190508181035f83015261154181846114b6565b905092915050565b7f4e487b71000000000000000000000000000000000000000000000000000000005f52603260045260245ffd5b7f4e487b71000000000000000000000000000000000000000000000000000000005f52601160045260245ffd5b5f60ff82169050919050565b5f6115b9826115a3565b915060ff82036115cc576115cb611576565b5b600182019050919050565b5f82825260208201905092915050565b7f4f6e6c79207061727469636970616e7420776974686f757420737570706c69655f8201527f722063616e2063616c6c20746869732066756e6374696f6e0000000000000000602082015250565b5f6116416038836115d7565b915061164c826115e7565b604082019050919050565b5f6020820190508181035f83015261166e81611635565b9050919050565b5f61167f8261104b565b915061168a8361104b565b92508282019050808211156116a2576116a1611576565b5b92915050565b5f60a0820190506116bb5f8301886110ac565b6116c86020830187611054565b6116d56040830186611054565b6116e26060830185611054565b6116ef6080830184611054565b9695505050505050565b7f4f6e6c79207061727469636970616e74206f7220737570706c6965722063616e5f8201527f2072656365697665000000000000000000000000000000000000000000000000602082015250565b5f6117536028836115d7565b915061175e826116f9565b604082019050919050565b5f6020820190508181035f83015261178081611747565b9050919050565b7f4e6f7420656e6f756768206574686572730000000000000000000000000000005f82015250565b5f6117bb6011836115d7565b91506117c682611787565b602082019050919050565b5f6020820190508181035f8301526117e8816117af565b9050919050565b7f4e6f7420656e6f756768206173736574730000000000000000000000000000005f82015250565b5f6118236011836115d7565b915061182e826117ef565b602082019050919050565b5f6020820190508181035f83015261185081611817565b9050919050565b5f6118618261104b565b915061186c8361104b565b925082820390508181111561188457611883611576565b5b92915050565b5f819050919050565b5f6118ad6118a86118a38461107c565b61188a565b61107c565b9050919050565b5f6118be82611893565b9050919050565b5f6118cf826118b4565b9050919050565b6118df816118c5565b82525050565b5f60a0820190506118f85f8301886118d6565b6119056020830187611054565b6119126040830186611054565b61191f6060830185611054565b61192c6080830184611054565b9695505050505050565b7f4e487b71000000000000000000000000000000000000000000000000000000005f52604160045260245ffd5b7f4e487b71000000000000000000000000000000000000000000000000000000005f52602260045260245ffd5b5f60028204905060018216806119a757607f821691505b6020821081036119ba576119b9611963565b5b50919050565b5f81905092915050565b5f819050815f5260205f209050919050565b5f81546119e881611990565b6119f281866119c0565b9450600182165f8114611a0c5760018114611a2157611a53565b60ff1983168652811515820286019350611a53565b611a2a856119ca565b5f5b83811015611a4b57815481890152600182019150602081019050611a2c565b838801955050505b50505092915050565b5f611a6782846119dc565b915081905092915050565b5f611a7c8261104b565b9150611a878361104b565b9250828202611a958161104b565b91508282048414831517611aac57611aab611576565b5b5092915050565b7f4e487b71000000000000000000000000000000000000000000000000000000005f52601260045260245ffd5b5f611aea8261104b565b9150611af58361104b565b925082611b0557611b04611ab3565b5b82820490509291505056fea26469706673582212208c8f6678278e1f0b941af53a419a2dc1c0ef545932494ffca4beed0dc03d0abd64736f6c63430008190033",
					"opcodes": "PUSH1 0x80 PUSH1 0x40 MSTORE PUSH0 PUSH1 0x8 PUSH0 PUSH2 0x100 EXP DUP2 SLOAD DUP2 PUSH1 0xFF MUL NOT AND SWAP1 DUP4 PUSH1 0xFF AND MUL OR SWAP1 SSTORE POP CALLVALUE DUP1 ISZERO PUSH2 0x29 JUMPI PUSH0 DUP1 REVERT JUMPDEST POP PUSH1 0x40 MLOAD PUSH2 0x2D85 CODESIZE SUB DUP1 PUSH2 0x2D85 DUP4 CODECOPY DUP2 DUP2 ADD PUSH1 0x40 MSTORE DUP2 ADD SWAP1 PUSH2 0x4B SWAP2 SWAP1 PUSH2 0xA7C JUMP JUMPDEST PUSH8 0xDE0B6B3A7640000 DUP3 PUSH2 0x5F SWAP2 SWAP1 PUSH2 0xBA2 JUMP JUMPDEST PUSH1 0x6 DUP2 SWAP1 SSTORE POP DUP5 PUSH1 0x3 PUSH0 PUSH2 0x100 EXP DUP2 SLOAD DUP2 PUSH20 0xFFFFFFFFFFFFFFFFFFFFFFFFFFFFFFFFFFFFFFFF MUL NOT AND SWAP1 DUP4 PUSH20 0xFFFFFFFFFFFFFFFFFFFFFFFFFFFFFFFFFFFFFFFF AND MUL OR SWAP1 SSTORE POP CALLER PUSH0 DUP1 PUSH2 0x100 EXP DUP2 SLOAD DUP2 PUSH20 0xFFFFFFFFFFFFFFFFFFFFFFFFFFFFFFFFFFFFFFFF MUL NOT AND SWAP1 DUP4 PUSH20 0xFFFFFFFFFFFFFFFFFFFFFFFFFFFFFFFFFFFFFFFF AND MUL OR SWAP1 SSTORE POP PUSH0 JUMPDEST DUP7 MLOAD DUP2 PUSH1 0xFF AND LT ISZERO PUSH2 0x1E1 JUMPI PUSH1 0x1 DUP8 DUP3 PUSH1 0xFF AND DUP2 MLOAD DUP2 LT PUSH2 0x10A JUMPI PUSH2 0x109 PUSH2 0xBE3 JUMP JUMPDEST JUMPDEST PUSH1 0x20 MUL PUSH1 0x20 ADD ADD MLOAD SWAP1 DUP1 PUSH1 0x1 DUP2 SLOAD ADD DUP1 DUP3 SSTORE DUP1 SWAP2 POP POP PUSH1 0x1 SWAP1 SUB SWAP1 PUSH0 MSTORE PUSH1 0x20 PUSH0 KECCAK256 ADD PUSH0 SWAP1 SWAP2 SWAP1 SWAP2 SWAP1 SWAP2 PUSH2 0x100 EXP DUP2 SLOAD DUP2 PUSH20 0xFFFFFFFFFFFFFFFFFFFFFFFFFFFFFFFFFFFFFFFF MUL NOT AND SWAP1 DUP4 PUSH20 0xFFFFFFFFFFFFFFFFFFFFFFFFFFFFFFFFFFFFFFFF AND MUL OR SWAP1 SSTORE POP PUSH0 PUSH1 0x2 PUSH0 DUP10 DUP5 PUSH1 0xFF AND DUP2 MLOAD DUP2 LT PUSH2 0x189 JUMPI PUSH2 0x188 PUSH2 0xBE3 JUMP JUMPDEST JUMPDEST PUSH1 0x20 MUL PUSH1 0x20 ADD ADD MLOAD PUSH20 0xFFFFFFFFFFFFFFFFFFFFFFFFFFFFFFFFFFFFFFFF AND PUSH20 0xFFFFFFFFFFFFFFFFFFFFFFFFFFFFFFFFFFFFFFFF AND DUP2 MSTORE PUSH1 0x20 ADD SWAP1 DUP2 MSTORE PUSH1 0x20 ADD PUSH0 KECCAK256 DUP2 SWAP1 SSTORE POP DUP1 DUP1 PUSH2 0x1D9 SWAP1 PUSH2 0xC1C JUMP JUMPDEST SWAP2 POP POP PUSH2 0xE6 JUMP JUMPDEST POP PUSH0 JUMPDEST DUP5 MLOAD DUP2 PUSH1 0xFF AND LT ISZERO PUSH2 0x2B8 JUMPI DUP4 DUP2 PUSH1 0xFF AND DUP2 MLOAD DUP2 LT PUSH2 0x206 JUMPI PUSH2 0x205 PUSH2 0xBE3 JUMP JUMPDEST JUMPDEST PUSH1 0x20 MUL PUSH1 0x20 ADD ADD MLOAD PUSH1 0x4 DUP7 DUP4 PUSH1 0xFF AND DUP2 MLOAD DUP2 LT PUSH2 0x226 JUMPI PUSH2 0x225 PUSH2 0xBE3 JUMP JUMPDEST JUMPDEST PUSH1 0x20 MUL PUSH1 0x20 ADD ADD MLOAD PUSH1 0x40 MLOAD PUSH2 0x23B SWAP2 SWAP1 PUSH2 0xC88 JUMP JUMPDEST SWAP1 DUP2 MSTORE PUSH1 0x20 ADD PUSH1 0x40 MLOAD DUP1 SWAP2 SUB SWAP1 KECCAK256 SWAP1 DUP2 PUSH2 0x255 SWAP2 SWAP1 PUSH2 0xEA2 JUMP JUMPDEST POP PUSH1 0x5 DUP6 DUP3 PUSH1 0xFF AND DUP2 MLOAD DUP2 LT PUSH2 0x26E JUMPI PUSH2 0x26D PUSH2 0xBE3 JUMP JUMPDEST JUMPDEST PUSH1 0x20 MUL PUSH1 0x20 ADD ADD MLOAD SWAP1 DUP1 PUSH1 0x1 DUP2 SLOAD ADD DUP1 DUP3 SSTORE DUP1 SWAP2 POP POP PUSH1 0x1 SWAP1 SUB SWAP1 PUSH0 MSTORE PUSH1 0x20 PUSH0 KECCAK256 ADD PUSH0 SWAP1 SWAP2 SWAP1 SWAP2 SWAP1 SWAP2 POP SWAP1 DUP2 PUSH2 0x2A4 SWAP2 SWAP1 PUSH2 0xFC9 JUMP JUMPDEST POP DUP1 DUP1 PUSH2 0x2B0 SWAP1 PUSH2 0xC1C JUMP JUMPDEST SWAP2 POP POP PUSH2 0x1E4 JUMP JUMPDEST POP PUSH0 JUMPDEST DUP2 MLOAD DUP2 PUSH1 0xFF AND LT ISZERO PUSH2 0x3E3 JUMPI PUSH1 0x7 PUSH1 0x40 MLOAD DUP1 PUSH1 0xA0 ADD PUSH1 0x40 MSTORE DUP1 DUP5 DUP5 PUSH1 0xFF AND DUP2 MLOAD DUP2 LT PUSH2 0x2EA JUMPI PUSH2 0x2E9 PUSH2 0xBE3 JUMP JUMPDEST JUMPDEST PUSH1 0x20 MUL PUSH1 0x20 ADD ADD MLOAD PUSH0 ADD MLOAD DUP2 MSTORE PUSH1 0x20 ADD DUP5 DUP5 PUSH1 0xFF AND DUP2 MLOAD DUP2 LT PUSH2 0x310 JUMPI PUSH2 0x30F PUSH2 0xBE3 JUMP JUMPDEST JUMPDEST PUSH1 0x20 MUL PUSH1 0x20 ADD ADD MLOAD PUSH1 0x20 ADD MLOAD DUP2 MSTORE PUSH1 0x20 ADD PUSH0 ISZERO ISZERO DUP2 MSTORE PUSH1 0x20 ADD PUSH0 ISZERO ISZERO DUP2 MSTORE PUSH1 0x20 ADD PUSH0 ISZERO ISZERO DUP2 MSTORE POP SWAP1 DUP1 PUSH1 0x1 DUP2 SLOAD ADD DUP1 DUP3 SSTORE DUP1 SWAP2 POP POP PUSH1 0x1 SWAP1 SUB SWAP1 PUSH0 MSTORE PUSH1 0x20 PUSH0 KECCAK256 SWAP1 PUSH1 0x3 MUL ADD PUSH0 SWAP1 SWAP2 SWAP1 SWAP2 SWAP1 SWAP2 POP PUSH0 DUP3 ADD MLOAD DUP2 PUSH0 ADD SSTORE PUSH1 0x20 DUP3 ADD MLOAD DUP2 PUSH1 0x1 ADD SSTORE PUSH1 0x40 DUP3 ADD MLOAD DUP2 PUSH1 0x2 ADD PUSH0 PUSH2 0x100 EXP DUP2 SLOAD DUP2 PUSH1 0xFF MUL NOT AND SWAP1 DUP4 ISZERO ISZERO MUL OR SWAP1 SSTORE POP PUSH1 0x60 DUP3 ADD MLOAD DUP2 PUSH1 0x2 ADD PUSH1 0x1 PUSH2 0x100 EXP DUP2 SLOAD DUP2 PUSH1 0xFF MUL NOT AND SWAP1 DUP4 ISZERO ISZERO MUL OR SWAP1 SSTORE POP PUSH1 0x80 DUP3 ADD MLOAD DUP2 PUSH1 0x2 ADD PUSH1 0x2 PUSH2 0x100 EXP DUP2 SLOAD DUP2 PUSH1 0xFF MUL NOT AND SWAP1 DUP4 ISZERO ISZERO MUL OR SWAP1 SSTORE POP POP POP DUP1 DUP1 PUSH2 0x3DB SWAP1 PUSH2 0xC1C JUMP JUMPDEST SWAP2 POP POP PUSH2 0x2BB JUMP JUMPDEST POP PUSH32 0x68E8E16725AE304C7B00B773BA80B94A2EA18BEBC9D7CC7ADE4F8C4980649AE1 PUSH0 DUP1 SLOAD SWAP1 PUSH2 0x100 EXP SWAP1 DIV PUSH20 0xFFFFFFFFFFFFFFFFFFFFFFFFFFFFFFFFFFFFFFFF AND PUSH1 0x1 PUSH1 0x3 PUSH0 SWAP1 SLOAD SWAP1 PUSH2 0x100 EXP SWAP1 DIV PUSH20 0xFFFFFFFFFFFFFFFFFFFFFFFFFFFFFFFFFFFFFFFF AND PUSH1 0x6 SLOAD SELFBALANCE TIMESTAMP PUSH1 0x40 MLOAD PUSH2 0x460 SWAP7 SWAP6 SWAP5 SWAP4 SWAP3 SWAP2 SWAP1 PUSH2 0x11CC JUMP JUMPDEST PUSH1 0x40 MLOAD DUP1 SWAP2 SUB SWAP1 LOG1 POP POP POP POP POP POP PUSH2 0x1232 JUMP JUMPDEST PUSH0 PUSH1 0x40 MLOAD SWAP1 POP SWAP1 JUMP JUMPDEST PUSH0 DUP1 REVERT JUMPDEST PUSH0 DUP1 REVERT JUMPDEST PUSH0 DUP1 REVERT JUMPDEST PUSH0 PUSH1 0x1F NOT PUSH1 0x1F DUP4 ADD AND SWAP1 POP SWAP2 SWAP1 POP JUMP JUMPDEST PUSH32 0x4E487B7100000000000000000000000000000000000000000000000000000000 PUSH0 MSTORE PUSH1 0x41 PUSH1 0x4 MSTORE PUSH1 0x24 PUSH0 REVERT JUMPDEST PUSH2 0x4CE DUP3 PUSH2 0x488 JUMP JUMPDEST DUP2 ADD DUP2 DUP2 LT PUSH8 0xFFFFFFFFFFFFFFFF DUP3 GT OR ISZERO PUSH2 0x4ED JUMPI PUSH2 0x4EC PUSH2 0x498 JUMP JUMPDEST JUMPDEST DUP1 PUSH1 0x40 MSTORE POP POP POP JUMP JUMPDEST PUSH0 PUSH2 0x4FF PUSH2 0x473 JUMP JUMPDEST SWAP1 POP PUSH2 0x50B DUP3 DUP3 PUSH2 0x4C5 JUMP JUMPDEST SWAP2 SWAP1 POP JUMP JUMPDEST PUSH0 PUSH8 0xFFFFFFFFFFFFFFFF DUP3 GT ISZERO PUSH2 0x52A JUMPI PUSH2 0x529 PUSH2 0x498 JUMP JUMPDEST JUMPDEST PUSH1 0x20 DUP3 MUL SWAP1 POP PUSH1 0x20 DUP2 ADD SWAP1 POP SWAP2 SWAP1 POP JUMP JUMPDEST PUSH0 DUP1 REVERT JUMPDEST PUSH0 PUSH20 0xFFFFFFFFFFFFFFFFFFFFFFFFFFFFFFFFFFFFFFFF DUP3 AND SWAP1 POP SWAP2 SWAP1 POP JUMP JUMPDEST PUSH0 PUSH2 0x568 DUP3 PUSH2 0x53F JUMP JUMPDEST SWAP1 POP SWAP2 SWAP1 POP JUMP JUMPDEST PUSH2 0x578 DUP2 PUSH2 0x55E JUMP JUMPDEST DUP2 EQ PUSH2 0x582 JUMPI PUSH0 DUP1 REVERT JUMPDEST POP JUMP JUMPDEST PUSH0 DUP2 MLOAD SWAP1 POP PUSH2 0x593 DUP2 PUSH2 0x56F JUMP JUMPDEST SWAP3 SWAP2 POP POP JUMP JUMPDEST PUSH0 PUSH2 0x5AB PUSH2 0x5A6 DUP5 PUSH2 0x510 JUMP JUMPDEST PUSH2 0x4F6 JUMP JUMPDEST SWAP1 POP DUP1 DUP4 DUP3 MSTORE PUSH1 0x20 DUP3 ADD SWAP1 POP PUSH1 0x20 DUP5 MUL DUP4 ADD DUP6 DUP2 GT ISZERO PUSH2 0x5CE JUMPI PUSH2 0x5CD PUSH2 0x53B JUMP JUMPDEST JUMPDEST DUP4 JUMPDEST DUP2 DUP2 LT ISZERO PUSH2 0x5F7 JUMPI DUP1 PUSH2 0x5E3 DUP9 DUP3 PUSH2 0x585 JUMP JUMPDEST DUP5 MSTORE PUSH1 0x20 DUP5 ADD SWAP4 POP POP PUSH1 0x20 DUP2 ADD SWAP1 POP PUSH2 0x5D0 JUMP JUMPDEST POP POP POP SWAP4 SWAP3 POP POP POP JUMP JUMPDEST PUSH0 DUP3 PUSH1 0x1F DUP4 ADD SLT PUSH2 0x615 JUMPI PUSH2 0x614 PUSH2 0x484 JUMP JUMPDEST JUMPDEST DUP2 MLOAD PUSH2 0x625 DUP5 DUP3 PUSH1 0x20 DUP7 ADD PUSH2 0x599 JUMP JUMPDEST SWAP2 POP POP SWAP3 SWAP2 POP POP JUMP JUMPDEST PUSH0 PUSH8 0xFFFFFFFFFFFFFFFF DUP3 GT ISZERO PUSH2 0x648 JUMPI PUSH2 0x647 PUSH2 0x498 JUMP JUMPDEST JUMPDEST PUSH1 0x20 DUP3 MUL SWAP1 POP PUSH1 0x20 DUP2 ADD SWAP1 POP SWAP2 SWAP1 POP JUMP JUMPDEST PUSH0 DUP1 REVERT JUMPDEST PUSH0 PUSH8 0xFFFFFFFFFFFFFFFF DUP3 GT ISZERO PUSH2 0x677 JUMPI PUSH2 0x676 PUSH2 0x498 JUMP JUMPDEST JUMPDEST PUSH2 0x680 DUP3 PUSH2 0x488 JUMP JUMPDEST SWAP1 POP PUSH1 0x20 DUP2 ADD SWAP1 POP SWAP2 SWAP1 POP JUMP JUMPDEST DUP3 DUP2 DUP4 MCOPY PUSH0 DUP4 DUP4 ADD MSTORE POP POP POP JUMP JUMPDEST PUSH0 PUSH2 0x6AD PUSH2 0x6A8 DUP5 PUSH2 0x65D JUMP JUMPDEST PUSH2 0x4F6 JUMP JUMPDEST SWAP1 POP DUP3 DUP2 MSTORE PUSH1 0x20 DUP2 ADD DUP5 DUP5 DUP5 ADD GT ISZERO PUSH2 0x6C9 JUMPI PUSH2 0x6C8 PUSH2 0x659 JUMP JUMPDEST JUMPDEST PUSH2 0x6D4 DUP5 DUP3 DUP6 PUSH2 0x68D JUMP JUMPDEST POP SWAP4 SWAP3 POP POP POP JUMP JUMPDEST PUSH0 DUP3 PUSH1 0x1F DUP4 ADD SLT PUSH2 0x6F0 JUMPI PUSH2 0x6EF PUSH2 0x484 JUMP JUMPDEST JUMPDEST DUP2 MLOAD PUSH2 0x700 DUP5 DUP3 PUSH1 0x20 DUP7 ADD PUSH2 0x69B JUMP JUMPDEST SWAP2 POP POP SWAP3 SWAP2 POP POP JUMP JUMPDEST PUSH0 PUSH2 0x71B PUSH2 0x716 DUP5 PUSH2 0x62E JUMP JUMPDEST PUSH2 0x4F6 JUMP JUMPDEST SWAP1 POP DUP1 DUP4 DUP3 MSTORE PUSH1 0x20 DUP3 ADD SWAP1 POP PUSH1 0x20 DUP5 MUL DUP4 ADD DUP6 DUP2 GT ISZERO PUSH2 0x73E JUMPI PUSH2 0x73D PUSH2 0x53B JUMP JUMPDEST JUMPDEST DUP4 JUMPDEST DUP2 DUP2 LT ISZERO PUSH2 0x785 JUMPI DUP1 MLOAD PUSH8 0xFFFFFFFFFFFFFFFF DUP2 GT ISZERO PUSH2 0x763 JUMPI PUSH2 0x762 PUSH2 0x484 JUMP JUMPDEST JUMPDEST DUP1 DUP7 ADD PUSH2 0x770 DUP10 DUP3 PUSH2 0x6DC JUMP JUMPDEST DUP6 MSTORE PUSH1 0x20 DUP6 ADD SWAP5 POP POP POP PUSH1 0x20 DUP2 ADD SWAP1 POP PUSH2 0x740 JUMP JUMPDEST POP POP POP SWAP4 SWAP3 POP POP POP JUMP JUMPDEST PUSH0 DUP3 PUSH1 0x1F DUP4 ADD SLT PUSH2 0x7A3 JUMPI PUSH2 0x7A2 PUSH2 0x484 JUMP JUMPDEST JUMPDEST DUP2 MLOAD PUSH2 0x7B3 DUP5 DUP3 PUSH1 0x20 DUP7 ADD PUSH2 0x709 JUMP JUMPDEST SWAP2 POP POP SWAP3 SWAP2 POP POP JUMP JUMPDEST PUSH0 PUSH8 0xFFFFFFFFFFFFFFFF DUP3 GT ISZERO PUSH2 0x7D6 JUMPI PUSH2 0x7D5 PUSH2 0x498 JUMP JUMPDEST JUMPDEST PUSH1 0x20 DUP3 MUL SWAP1 POP PUSH1 0x20 DUP2 ADD SWAP1 POP SWAP2 SWAP1 POP JUMP JUMPDEST PUSH0 PUSH8 0xFFFFFFFFFFFFFFFF DUP3 GT ISZERO PUSH2 0x801 JUMPI PUSH2 0x800 PUSH2 0x498 JUMP JUMPDEST JUMPDEST PUSH2 0x80A DUP3 PUSH2 0x488 JUMP JUMPDEST SWAP1 POP PUSH1 0x20 DUP2 ADD SWAP1 POP SWAP2 SWAP1 POP JUMP JUMPDEST PUSH0 PUSH2 0x829 PUSH2 0x824 DUP5 PUSH2 0x7E7 JUMP JUMPDEST PUSH2 0x4F6 JUMP JUMPDEST SWAP1 POP DUP3 DUP2 MSTORE PUSH1 0x20 DUP2 ADD DUP5 DUP5 DUP5 ADD GT ISZERO PUSH2 0x845 JUMPI PUSH2 0x844 PUSH2 0x659 JUMP JUMPDEST JUMPDEST PUSH2 0x850 DUP5 DUP3 DUP6 PUSH2 0x68D JUMP JUMPDEST POP SWAP4 SWAP3 POP POP POP JUMP JUMPDEST PUSH0 DUP3 PUSH1 0x1F DUP4 ADD SLT PUSH2 0x86C JUMPI PUSH2 0x86B PUSH2 0x484 JUMP JUMPDEST JUMPDEST DUP2 MLOAD PUSH2 0x87C DUP5 DUP3 PUSH1 0x20 DUP7 ADD PUSH2 0x817 JUMP JUMPDEST SWAP2 POP POP SWAP3 SWAP2 POP POP JUMP JUMPDEST PUSH0 PUSH2 0x897 PUSH2 0x892 DUP5 PUSH2 0x7BC JUMP JUMPDEST PUSH2 0x4F6 JUMP JUMPDEST SWAP1 POP DUP1 DUP4 DUP3 MSTORE PUSH1 0x20 DUP3 ADD SWAP1 POP PUSH1 0x20 DUP5 MUL DUP4 ADD DUP6 DUP2 GT ISZERO PUSH2 0x8BA JUMPI PUSH2 0x8B9 PUSH2 0x53B JUMP JUMPDEST JUMPDEST DUP4 JUMPDEST DUP2 DUP2 LT ISZERO PUSH2 0x901 JUMPI DUP1 MLOAD PUSH8 0xFFFFFFFFFFFFFFFF DUP2 GT ISZERO PUSH2 0x8DF JUMPI PUSH2 0x8DE PUSH2 0x484 JUMP JUMPDEST JUMPDEST DUP1 DUP7 ADD PUSH2 0x8EC DUP10 DUP3 PUSH2 0x858 JUMP JUMPDEST DUP6 MSTORE PUSH1 0x20 DUP6 ADD SWAP5 POP POP POP PUSH1 0x20 DUP2 ADD SWAP1 POP PUSH2 0x8BC JUMP JUMPDEST POP POP POP SWAP4 SWAP3 POP POP POP JUMP JUMPDEST PUSH0 DUP3 PUSH1 0x1F DUP4 ADD SLT PUSH2 0x91F JUMPI PUSH2 0x91E PUSH2 0x484 JUMP JUMPDEST JUMPDEST DUP2 MLOAD PUSH2 0x92F DUP5 DUP3 PUSH1 0x20 DUP7 ADD PUSH2 0x885 JUMP JUMPDEST SWAP2 POP POP SWAP3 SWAP2 POP POP JUMP JUMPDEST PUSH0 DUP2 SWAP1 POP SWAP2 SWAP1 POP JUMP JUMPDEST PUSH2 0x94A DUP2 PUSH2 0x938 JUMP JUMPDEST DUP2 EQ PUSH2 0x954 JUMPI PUSH0 DUP1 REVERT JUMPDEST POP JUMP JUMPDEST PUSH0 DUP2 MLOAD SWAP1 POP PUSH2 0x965 DUP2 PUSH2 0x941 JUMP JUMPDEST SWAP3 SWAP2 POP POP JUMP JUMPDEST PUSH0 PUSH8 0xFFFFFFFFFFFFFFFF DUP3 GT ISZERO PUSH2 0x985 JUMPI PUSH2 0x984 PUSH2 0x498 JUMP JUMPDEST JUMPDEST PUSH1 0x20 DUP3 MUL SWAP1 POP PUSH1 0x20 DUP2 ADD SWAP1 POP SWAP2 SWAP1 POP JUMP JUMPDEST PUSH0 DUP1 REVERT JUMPDEST PUSH0 PUSH1 0x40 DUP3 DUP5 SUB SLT ISZERO PUSH2 0x9AF JUMPI PUSH2 0x9AE PUSH2 0x996 JUMP JUMPDEST JUMPDEST PUSH2 0x9B9 PUSH1 0x40 PUSH2 0x4F6 JUMP JUMPDEST SWAP1 POP PUSH0 PUSH2 0x9C8 DUP5 DUP3 DUP6 ADD PUSH2 0x957 JUMP JUMPDEST PUSH0 DUP4 ADD MSTORE POP PUSH1 0x20 PUSH2 0x9DB DUP5 DUP3 DUP6 ADD PUSH2 0x957 JUMP JUMPDEST PUSH1 0x20 DUP4 ADD MSTORE POP SWAP3 SWAP2 POP POP JUMP JUMPDEST PUSH0 PUSH2 0x9F9 PUSH2 0x9F4 DUP5 PUSH2 0x96B JUMP JUMPDEST PUSH2 0x4F6 JUMP JUMPDEST SWAP1 POP DUP1 DUP4 DUP3 MSTORE PUSH1 0x20 DUP3 ADD SWAP1 POP PUSH1 0x40 DUP5 MUL DUP4 ADD DUP6 DUP2 GT ISZERO PUSH2 0xA1C JUMPI PUSH2 0xA1B PUSH2 0x53B JUMP JUMPDEST JUMPDEST DUP4 JUMPDEST DUP2 DUP2 LT ISZERO PUSH2 0xA45 JUMPI DUP1 PUSH2 0xA31 DUP9 DUP3 PUSH2 0x99A JUMP JUMPDEST DUP5 MSTORE PUSH1 0x20 DUP5 ADD SWAP4 POP POP PUSH1 0x40 DUP2 ADD SWAP1 POP PUSH2 0xA1E JUMP JUMPDEST POP POP POP SWAP4 SWAP3 POP POP POP JUMP JUMPDEST PUSH0 DUP3 PUSH1 0x1F DUP4 ADD SLT PUSH2 0xA63 JUMPI PUSH2 0xA62 PUSH2 0x484 JUMP JUMPDEST JUMPDEST DUP2 MLOAD PUSH2 0xA73 DUP5 DUP3 PUSH1 0x20 DUP7 ADD PUSH2 0x9E7 JUMP JUMPDEST SWAP2 POP POP SWAP3 SWAP2 POP POP JUMP JUMPDEST PUSH0 DUP1 PUSH0 DUP1 PUSH0 DUP1 PUSH1 0xC0 DUP8 DUP10 SUB SLT ISZERO PUSH2 0xA96 JUMPI PUSH2 0xA95 PUSH2 0x47C JUMP JUMPDEST JUMPDEST PUSH0 DUP8 ADD MLOAD PUSH8 0xFFFFFFFFFFFFFFFF DUP2 GT ISZERO PUSH2 0xAB3 JUMPI PUSH2 0xAB2 PUSH2 0x480 JUMP JUMPDEST JUMPDEST PUSH2 0xABF DUP10 DUP3 DUP11 ADD PUSH2 0x601 JUMP JUMPDEST SWAP7 POP POP PUSH1 0x20 PUSH2 0xAD0 DUP10 DUP3 DUP11 ADD PUSH2 0x585 JUMP JUMPDEST SWAP6 POP POP PUSH1 0x40 DUP8 ADD MLOAD PUSH8 0xFFFFFFFFFFFFFFFF DUP2 GT ISZERO PUSH2 0xAF1 JUMPI PUSH2 0xAF0 PUSH2 0x480 JUMP JUMPDEST JUMPDEST PUSH2 0xAFD DUP10 DUP3 DUP11 ADD PUSH2 0x78F JUMP JUMPDEST SWAP5 POP POP PUSH1 0x60 DUP8 ADD MLOAD PUSH8 0xFFFFFFFFFFFFFFFF DUP2 GT ISZERO PUSH2 0xB1E JUMPI PUSH2 0xB1D PUSH2 0x480 JUMP JUMPDEST JUMPDEST PUSH2 0xB2A DUP10 DUP3 DUP11 ADD PUSH2 0x90B JUMP JUMPDEST SWAP4 POP POP PUSH1 0x80 PUSH2 0xB3B DUP10 DUP3 DUP11 ADD PUSH2 0x957 JUMP JUMPDEST SWAP3 POP POP PUSH1 0xA0 DUP8 ADD MLOAD PUSH8 0xFFFFFFFFFFFFFFFF DUP2 GT ISZERO PUSH2 0xB5C JUMPI PUSH2 0xB5B PUSH2 0x480 JUMP JUMPDEST JUMPDEST PUSH2 0xB68 DUP10 DUP3 DUP11 ADD PUSH2 0xA4F JUMP JUMPDEST SWAP2 POP POP SWAP3 SWAP6 POP SWAP3 SWAP6 POP SWAP3 SWAP6 JUMP JUMPDEST PUSH32 0x4E487B7100000000000000000000000000000000000000000000000000000000 PUSH0 MSTORE PUSH1 0x11 PUSH1 0x4 MSTORE PUSH1 0x24 PUSH0 REVERT JUMPDEST PUSH0 PUSH2 0xBAC DUP3 PUSH2 0x938 JUMP JUMPDEST SWAP2 POP PUSH2 0xBB7 DUP4 PUSH2 0x938 JUMP JUMPDEST SWAP3 POP DUP3 DUP3 MUL PUSH2 0xBC5 DUP2 PUSH2 0x938 JUMP JUMPDEST SWAP2 POP DUP3 DUP3 DIV DUP5 EQ DUP4 ISZERO OR PUSH2 0xBDC JUMPI PUSH2 0xBDB PUSH2 0xB75 JUMP JUMPDEST JUMPDEST POP SWAP3 SWAP2 POP POP JUMP JUMPDEST PUSH32 0x4E487B7100000000000000000000000000000000000000000000000000000000 PUSH0 MSTORE PUSH1 0x32 PUSH1 0x4 MSTORE PUSH1 0x24 PUSH0 REVERT JUMPDEST PUSH0 PUSH1 0xFF DUP3 AND SWAP1 POP SWAP2 SWAP1 POP JUMP JUMPDEST PUSH0 PUSH2 0xC26 DUP3 PUSH2 0xC10 JUMP JUMPDEST SWAP2 POP PUSH1 0xFF DUP3 SUB PUSH2 0xC39 JUMPI PUSH2 0xC38 PUSH2 0xB75 JUMP JUMPDEST JUMPDEST PUSH1 0x1 DUP3 ADD SWAP1 POP SWAP2 SWAP1 POP JUMP JUMPDEST PUSH0 DUP2 MLOAD SWAP1 POP SWAP2 SWAP1 POP JUMP JUMPDEST PUSH0 DUP2 SWAP1 POP SWAP3 SWAP2 POP POP JUMP JUMPDEST PUSH0 PUSH2 0xC62 DUP3 PUSH2 0xC44 JUMP JUMPDEST PUSH2 0xC6C DUP2 DUP6 PUSH2 0xC4E JUMP JUMPDEST SWAP4 POP PUSH2 0xC7C DUP2 DUP6 PUSH1 0x20 DUP7 ADD PUSH2 0x68D JUMP JUMPDEST DUP1 DUP5 ADD SWAP2 POP POP SWAP3 SWAP2 POP POP JUMP JUMPDEST PUSH0 PUSH2 0xC93 DUP3 DUP5 PUSH2 0xC58 JUMP JUMPDEST SWAP2 POP DUP2 SWAP1 POP SWAP3 SWAP2 POP POP JUMP JUMPDEST PUSH0 DUP2 MLOAD SWAP1 POP SWAP2 SWAP1 POP JUMP JUMPDEST PUSH32 0x4E487B7100000000000000000000000000000000000000000000000000000000 PUSH0 MSTORE PUSH1 0x22 PUSH1 0x4 MSTORE PUSH1 0x24 PUSH0 REVERT JUMPDEST PUSH0 PUSH1 0x2 DUP3 DIV SWAP1 POP PUSH1 0x1 DUP3 AND DUP1 PUSH2 0xCEC JUMPI PUSH1 0x7F DUP3 AND SWAP2 POP JUMPDEST PUSH1 0x20 DUP3 LT DUP2 SUB PUSH2 0xCFF JUMPI PUSH2 0xCFE PUSH2 0xCA8 JUMP JUMPDEST JUMPDEST POP SWAP2 SWAP1 POP JUMP JUMPDEST PUSH0 DUP2 SWAP1 POP DUP2 PUSH0 MSTORE PUSH1 0x20 PUSH0 KECCAK256 SWAP1 POP SWAP2 SWAP1 POP JUMP JUMPDEST PUSH0 PUSH1 0x20 PUSH1 0x1F DUP4 ADD DIV SWAP1 POP SWAP2 SWAP1 POP JUMP JUMPDEST PUSH0 DUP3 DUP3 SHL SWAP1 POP SWAP3 SWAP2 POP POP JUMP JUMPDEST PUSH0 PUSH1 0x8 DUP4 MUL PUSH2 0xD61 PUSH32 0xFFFFFFFFFFFFFFFFFFFFFFFFFFFFFFFFFFFFFFFFFFFFFFFFFFFFFFFFFFFFFFFF DUP3 PUSH2 0xD26 JUMP JUMPDEST PUSH2 0xD6B DUP7 DUP4 PUSH2 0xD26 JUMP JUMPDEST SWAP6 POP DUP1 NOT DUP5 AND SWAP4 POP DUP1 DUP7 AND DUP5 OR SWAP3 POP POP POP SWAP4 SWAP3 POP POP POP JUMP JUMPDEST PUSH0 DUP2 SWAP1 POP SWAP2 SWAP1 POP JUMP JUMPDEST PUSH0 PUSH2 0xDA6 PUSH2 0xDA1 PUSH2 0xD9C DUP5 PUSH2 0x938 JUMP JUMPDEST PUSH2 0xD83 JUMP JUMPDEST PUSH2 0x938 JUMP JUMPDEST SWAP1 POP SWAP2 SWAP1 POP JUMP JUMPDEST PUSH0 DUP2 SWAP1 POP SWAP2 SWAP1 POP JUMP JUMPDEST PUSH2 0xDBF DUP4 PUSH2 0xD8C JUMP JUMPDEST PUSH2 0xDD3 PUSH2 0xDCB DUP3 PUSH2 0xDAD JUMP JUMPDEST DUP5 DUP5 SLOAD PUSH2 0xD32 JUMP JUMPDEST DUP3 SSTORE POP POP POP POP JUMP JUMPDEST PUSH0 SWAP1 JUMP JUMPDEST PUSH2 0xDE7 PUSH2 0xDDB JUMP JUMPDEST PUSH2 0xDF2 DUP2 DUP5 DUP5 PUSH2 0xDB6 JUMP JUMPDEST POP POP POP JUMP JUMPDEST JUMPDEST DUP2 DUP2 LT ISZERO PUSH2 0xE15 JUMPI PUSH2 0xE0A PUSH0 DUP3 PUSH2 0xDDF JUMP JUMPDEST PUSH1 0x1 DUP2 ADD SWAP1 POP PUSH2 0xDF8 JUMP JUMPDEST POP POP JUMP JUMPDEST PUSH1 0x1F DUP3 GT ISZERO PUSH2 0xE5A JUMPI PUSH2 0xE2B DUP2 PUSH2 0xD05 JUMP JUMPDEST PUSH2 0xE34 DUP5 PUSH2 0xD17 JUMP JUMPDEST DUP2 ADD PUSH1 0x20 DUP6 LT ISZERO PUSH2 0xE43 JUMPI DUP2 SWAP1 POP JUMPDEST PUSH2 0xE57 PUSH2 0xE4F DUP6 PUSH2 0xD17 JUMP JUMPDEST DUP4 ADD DUP3 PUSH2 0xDF7 JUMP JUMPDEST POP POP JUMPDEST POP POP POP JUMP JUMPDEST PUSH0 DUP3 DUP3 SHR SWAP1 POP SWAP3 SWAP2 POP POP JUMP JUMPDEST PUSH0 PUSH2 0xE7A PUSH0 NOT DUP5 PUSH1 0x8 MUL PUSH2 0xE5F JUMP JUMPDEST NOT DUP1 DUP4 AND SWAP2 POP POP SWAP3 SWAP2 POP POP JUMP JUMPDEST PUSH0 PUSH2 0xE92 DUP4 DUP4 PUSH2 0xE6B JUMP JUMPDEST SWAP2 POP DUP3 PUSH1 0x2 MUL DUP3 OR SWAP1 POP SWAP3 SWAP2 POP POP JUMP JUMPDEST PUSH2 0xEAB DUP3 PUSH2 0xC9E JUMP JUMPDEST PUSH8 0xFFFFFFFFFFFFFFFF DUP2 GT ISZERO PUSH2 0xEC4 JUMPI PUSH2 0xEC3 PUSH2 0x498 JUMP JUMPDEST JUMPDEST PUSH2 0xECE DUP3 SLOAD PUSH2 0xCD5 JUMP JUMPDEST PUSH2 0xED9 DUP3 DUP3 DUP6 PUSH2 0xE19 JUMP JUMPDEST PUSH0 PUSH1 0x20 SWAP1 POP PUSH1 0x1F DUP4 GT PUSH1 0x1 DUP2 EQ PUSH2 0xF0A JUMPI PUSH0 DUP5 ISZERO PUSH2 0xEF8 JUMPI DUP3 DUP8 ADD MLOAD SWAP1 POP JUMPDEST PUSH2 0xF02 DUP6 DUP3 PUSH2 0xE87 JUMP JUMPDEST DUP7 SSTORE POP PUSH2 0xF69 JUMP JUMPDEST PUSH1 0x1F NOT DUP5 AND PUSH2 0xF18 DUP7 PUSH2 0xD05 JUMP JUMPDEST PUSH0 JUMPDEST DUP3 DUP2 LT ISZERO PUSH2 0xF3F JUMPI DUP5 DUP10 ADD MLOAD DUP3 SSTORE PUSH1 0x1 DUP3 ADD SWAP2 POP PUSH1 0x20 DUP6 ADD SWAP5 POP PUSH1 0x20 DUP2 ADD SWAP1 POP PUSH2 0xF1A JUMP JUMPDEST DUP7 DUP4 LT ISZERO PUSH2 0xF5C JUMPI DUP5 DUP10 ADD MLOAD PUSH2 0xF58 PUSH1 0x1F DUP10 AND DUP3 PUSH2 0xE6B JUMP JUMPDEST DUP4 SSTORE POP JUMPDEST PUSH1 0x1 PUSH1 0x2 DUP9 MUL ADD DUP9 SSTORE POP POP POP JUMPDEST POP POP POP POP POP POP JUMP JUMPDEST PUSH0 DUP2 SWAP1 POP DUP2 PUSH0 MSTORE PUSH1 0x20 PUSH0 KECCAK256 SWAP1 POP SWAP2 SWAP1 POP JUMP JUMPDEST PUSH1 0x1F DUP3 GT ISZERO PUSH2 0xFC4 JUMPI PUSH2 0xF95 DUP2 PUSH2 0xF71 JUMP JUMPDEST PUSH2 0xF9E DUP5 PUSH2 0xD17 JUMP JUMPDEST DUP2 ADD PUSH1 0x20 DUP6 LT ISZERO PUSH2 0xFAD JUMPI DUP2 SWAP1 POP JUMPDEST PUSH2 0xFC1 PUSH2 0xFB9 DUP6 PUSH2 0xD17 JUMP JUMPDEST DUP4 ADD DUP3 PUSH2 0xDF7 JUMP JUMPDEST POP POP JUMPDEST POP POP POP JUMP JUMPDEST PUSH2 0xFD2 DUP3 PUSH2 0xC44 JUMP JUMPDEST PUSH8 0xFFFFFFFFFFFFFFFF DUP2 GT ISZERO PUSH2 0xFEB JUMPI PUSH2 0xFEA PUSH2 0x498 JUMP JUMPDEST JUMPDEST PUSH2 0xFF5 DUP3 SLOAD PUSH2 0xCD5 JUMP JUMPDEST PUSH2 0x1000 DUP3 DUP3 DUP6 PUSH2 0xF83 JUMP JUMPDEST PUSH0 PUSH1 0x20 SWAP1 POP PUSH1 0x1F DUP4 GT PUSH1 0x1 DUP2 EQ PUSH2 0x1031 JUMPI PUSH0 DUP5 ISZERO PUSH2 0x101F JUMPI DUP3 DUP8 ADD MLOAD SWAP1 POP JUMPDEST PUSH2 0x1029 DUP6 DUP3 PUSH2 0xE87 JUMP JUMPDEST DUP7 SSTORE POP PUSH2 0x1090 JUMP JUMPDEST PUSH1 0x1F NOT DUP5 AND PUSH2 0x103F DUP7 PUSH2 0xF71 JUMP JUMPDEST PUSH0 JUMPDEST DUP3 DUP2 LT ISZERO PUSH2 0x1066 JUMPI DUP5 DUP10 ADD MLOAD DUP3 SSTORE PUSH1 0x1 DUP3 ADD SWAP2 POP PUSH1 0x20 DUP6 ADD SWAP5 POP PUSH1 0x20 DUP2 ADD SWAP1 POP PUSH2 0x1041 JUMP JUMPDEST DUP7 DUP4 LT ISZERO PUSH2 0x1083 JUMPI DUP5 DUP10 ADD MLOAD PUSH2 0x107F PUSH1 0x1F DUP10 AND DUP3 PUSH2 0xE6B JUMP JUMPDEST DUP4 SSTORE POP JUMPDEST PUSH1 0x1 PUSH1 0x2 DUP9 MUL ADD DUP9 SSTORE POP POP POP JUMPDEST POP POP POP POP POP POP JUMP JUMPDEST PUSH2 0x10A1 DUP2 PUSH2 0x55E JUMP JUMPDEST DUP3 MSTORE POP POP JUMP JUMPDEST PUSH0 DUP2 SLOAD SWAP1 POP SWAP2 SWAP1 POP JUMP JUMPDEST PUSH0 DUP3 DUP3 MSTORE PUSH1 0x20 DUP3 ADD SWAP1 POP SWAP3 SWAP2 POP POP JUMP JUMPDEST PUSH0 DUP2 SWAP1 POP DUP2 PUSH0 MSTORE PUSH1 0x20 PUSH0 KECCAK256 SWAP1 POP SWAP2 SWAP1 POP JUMP JUMPDEST PUSH2 0x10DC DUP2 PUSH2 0x55E JUMP JUMPDEST DUP3 MSTORE POP POP JUMP JUMPDEST PUSH0 PUSH2 0x10ED DUP4 DUP4 PUSH2 0x10D3 JUMP JUMPDEST PUSH1 0x20 DUP4 ADD SWAP1 POP SWAP3 SWAP2 POP POP JUMP JUMPDEST PUSH0 DUP2 PUSH0 SHR SWAP1 POP SWAP2 SWAP1 POP JUMP JUMPDEST PUSH0 PUSH20 0xFFFFFFFFFFFFFFFFFFFFFFFFFFFFFFFFFFFFFFFF DUP3 AND SWAP1 POP SWAP2 SWAP1 POP JUMP JUMPDEST PUSH0 PUSH2 0x1135 PUSH2 0x1130 DUP4 PUSH2 0x10F9 JUMP JUMPDEST PUSH2 0x1104 JUMP JUMPDEST SWAP1 POP SWAP2 SWAP1 POP JUMP JUMPDEST PUSH0 PUSH2 0x1147 DUP3 SLOAD PUSH2 0x1123 JUMP JUMPDEST SWAP1 POP SWAP2 SWAP1 POP JUMP JUMPDEST PUSH0 PUSH1 0x1 DUP3 ADD SWAP1 POP SWAP2 SWAP1 POP JUMP JUMPDEST PUSH0 PUSH2 0x1164 DUP3 PUSH2 0x10A7 JUMP JUMPDEST PUSH2 0x116E DUP2 DUP6 PUSH2 0x10B1 JUMP JUMPDEST SWAP4 POP PUSH2 0x1179 DUP4 PUSH2 0x10C1 JUMP JUMPDEST DUP1 PUSH0 JUMPDEST DUP4 DUP2 LT ISZERO PUSH2 0x11B0 JUMPI PUSH2 0x118D DUP3 PUSH2 0x113C JUMP JUMPDEST PUSH2 0x1197 DUP9 DUP3 PUSH2 0x10E2 JUMP JUMPDEST SWAP8 POP PUSH2 0x11A2 DUP4 PUSH2 0x114E JUMP JUMPDEST SWAP3 POP POP PUSH1 0x1 DUP2 ADD SWAP1 POP PUSH2 0x117C JUMP JUMPDEST POP DUP6 SWAP4 POP POP POP POP SWAP3 SWAP2 POP POP JUMP JUMPDEST PUSH2 0x11C6 DUP2 PUSH2 0x938 JUMP JUMPDEST DUP3 MSTORE POP POP JUMP JUMPDEST PUSH0 PUSH1 0xC0 DUP3 ADD SWAP1 POP PUSH2 0x11DF PUSH0 DUP4 ADD DUP10 PUSH2 0x1098 JUMP JUMPDEST DUP2 DUP2 SUB PUSH1 0x20 DUP4 ADD MSTORE PUSH2 0x11F1 DUP2 DUP9 PUSH2 0x115A JUMP JUMPDEST SWAP1 POP PUSH2 0x1200 PUSH1 0x40 DUP4 ADD DUP8 PUSH2 0x1098 JUMP JUMPDEST PUSH2 0x120D PUSH1 0x60 DUP4 ADD DUP7 PUSH2 0x11BD JUMP JUMPDEST PUSH2 0x121A PUSH1 0x80 DUP4 ADD DUP6 PUSH2 0x11BD JUMP JUMPDEST PUSH2 0x1227 PUSH1 0xA0 DUP4 ADD DUP5 PUSH2 0x11BD JUMP JUMPDEST SWAP8 SWAP7 POP POP POP POP POP POP POP JUMP JUMPDEST PUSH2 0x1B46 DUP1 PUSH2 0x123F PUSH0 CODECOPY PUSH0 RETURN INVALID PUSH1 0x80 PUSH1 0x40 MSTORE PUSH1 0x4 CALLDATASIZE LT PUSH2 0x9B JUMPI PUSH0 CALLDATALOAD PUSH1 0xE0 SHR DUP1 PUSH4 0x742978DA GT PUSH2 0x63 JUMPI DUP1 PUSH4 0x742978DA EQ PUSH2 0x151 JUMPI DUP1 PUSH4 0x79655BD0 EQ PUSH2 0x18D JUMPI DUP1 PUSH4 0x904E3CFF EQ PUSH2 0x1B7 JUMPI DUP1 PUSH4 0x9C01B52F EQ PUSH2 0x1D3 JUMPI DUP1 PUSH4 0xF6DFDAD1 EQ PUSH2 0x1FD JUMPI DUP1 PUSH4 0xFBB05337 EQ PUSH2 0x227 JUMPI PUSH2 0x9B JUMP JUMPDEST DUP1 PUSH4 0x12065FE0 EQ PUSH2 0x9F JUMPI DUP1 PUSH4 0x12B58349 EQ PUSH2 0xC9 JUMPI DUP1 PUSH4 0x14A24BCF EQ PUSH2 0xF3 JUMPI DUP1 PUSH4 0x3F44327A EQ PUSH2 0x11D JUMPI DUP1 PUSH4 0x4510FB59 EQ PUSH2 0x147 JUMPI JUMPDEST PUSH0 DUP1 REVERT JUMPDEST CALLVALUE DUP1 ISZERO PUSH2 0xAA JUMPI PUSH0 DUP1 REVERT JUMPDEST POP PUSH2 0xB3 PUSH2 0x243 JUMP JUMPDEST PUSH1 0x40 MLOAD PUSH2 0xC0 SWAP2 SWAP1 PUSH2 0x1063 JUMP JUMPDEST PUSH1 0x40 MLOAD DUP1 SWAP2 SUB SWAP1 RETURN JUMPDEST CALLVALUE DUP1 ISZERO PUSH2 0xD4 JUMPI PUSH0 DUP1 REVERT JUMPDEST POP PUSH2 0xDD PUSH2 0x24A JUMP JUMPDEST PUSH1 0x40 MLOAD PUSH2 0xEA SWAP2 SWAP1 PUSH2 0x1063 JUMP JUMPDEST PUSH1 0x40 MLOAD DUP1 SWAP2 SUB SWAP1 RETURN JUMPDEST CALLVALUE DUP1 ISZERO PUSH2 0xFE JUMPI PUSH0 DUP1 REVERT JUMPDEST POP PUSH2 0x107 PUSH2 0x253 JUMP JUMPDEST PUSH1 0x40 MLOAD PUSH2 0x114 SWAP2 SWAP1 PUSH2 0x10BB JUMP JUMPDEST PUSH1 0x40 MLOAD DUP1 SWAP2 SUB SWAP1 RETURN JUMPDEST CALLVALUE DUP1 ISZERO PUSH2 0x128 JUMPI PUSH0 DUP1 REVERT JUMPDEST POP PUSH2 0x131 PUSH2 0x27B JUMP JUMPDEST PUSH1 0x40 MLOAD PUSH2 0x13E SWAP2 SWAP1 PUSH2 0x118B JUMP JUMPDEST PUSH1 0x40 MLOAD DUP1 SWAP2 SUB SWAP1 RETURN JUMPDEST PUSH2 0x14F PUSH2 0x306 JUMP JUMPDEST STOP JUMPDEST CALLVALUE DUP1 ISZERO PUSH2 0x15C JUMPI PUSH0 DUP1 REVERT JUMPDEST POP PUSH2 0x177 PUSH1 0x4 DUP1 CALLDATASIZE SUB DUP2 ADD SWAP1 PUSH2 0x172 SWAP2 SWAP1 PUSH2 0x11D9 JUMP JUMPDEST PUSH2 0x480 JUMP JUMPDEST PUSH1 0x40 MLOAD PUSH2 0x184 SWAP2 SWAP1 PUSH2 0x1063 JUMP JUMPDEST PUSH1 0x40 MLOAD DUP1 SWAP2 SUB SWAP1 RETURN JUMPDEST CALLVALUE DUP1 ISZERO PUSH2 0x198 JUMPI PUSH0 DUP1 REVERT JUMPDEST POP PUSH2 0x1A1 PUSH2 0x5AA JUMP JUMPDEST PUSH1 0x40 MLOAD PUSH2 0x1AE SWAP2 SWAP1 PUSH2 0x133B JUMP JUMPDEST PUSH1 0x40 MLOAD DUP1 SWAP2 SUB SWAP1 RETURN JUMPDEST PUSH2 0x1D1 PUSH1 0x4 DUP1 CALLDATASIZE SUB DUP2 ADD SWAP1 PUSH2 0x1CC SWAP2 SWAP1 PUSH2 0x13C0 JUMP JUMPDEST PUSH2 0x669 JUMP JUMPDEST STOP JUMPDEST CALLVALUE DUP1 ISZERO PUSH2 0x1DE JUMPI PUSH0 DUP1 REVERT JUMPDEST POP PUSH2 0x1E7 PUSH2 0xA7E JUMP JUMPDEST PUSH1 0x40 MLOAD PUSH2 0x1F4 SWAP2 SWAP1 PUSH2 0x10BB JUMP JUMPDEST PUSH1 0x40 MLOAD DUP1 SWAP2 SUB SWAP1 RETURN JUMPDEST CALLVALUE DUP1 ISZERO PUSH2 0x208 JUMPI PUSH0 DUP1 REVERT JUMPDEST POP PUSH2 0x211 PUSH2 0xAA5 JUMP JUMPDEST PUSH1 0x40 MLOAD PUSH2 0x21E SWAP2 SWAP1 PUSH2 0x1529 JUMP JUMPDEST PUSH1 0x40 MLOAD DUP1 SWAP2 SUB SWAP1 RETURN JUMPDEST PUSH2 0x241 PUSH1 0x4 DUP1 CALLDATASIZE SUB DUP2 ADD SWAP1 PUSH2 0x23C SWAP2 SWAP1 PUSH2 0x13C0 JUMP JUMPDEST PUSH2 0xBFF JUMP JUMPDEST STOP JUMPDEST PUSH0 SELFBALANCE SWAP1 POP SWAP1 JUMP JUMPDEST PUSH0 PUSH1 0x6 SLOAD SWAP1 POP SWAP1 JUMP JUMPDEST PUSH0 PUSH1 0x3 PUSH0 SWAP1 SLOAD SWAP1 PUSH2 0x100 EXP SWAP1 DIV PUSH20 0xFFFFFFFFFFFFFFFFFFFFFFFFFFFFFFFFFFFFFFFF AND SWAP1 POP SWAP1 JUMP JUMPDEST PUSH1 0x60 PUSH1 0x1 DUP1 SLOAD DUP1 PUSH1 0x20 MUL PUSH1 0x20 ADD PUSH1 0x40 MLOAD SWAP1 DUP2 ADD PUSH1 0x40 MSTORE DUP1 SWAP3 SWAP2 SWAP1 DUP2 DUP2 MSTORE PUSH1 0x20 ADD DUP3 DUP1 SLOAD DUP1 ISZERO PUSH2 0x2FC JUMPI PUSH1 0x20 MUL DUP3 ADD SWAP2 SWAP1 PUSH0 MSTORE PUSH1 0x20 PUSH0 KECCAK256 SWAP1 JUMPDEST DUP2 PUSH0 SWAP1 SLOAD SWAP1 PUSH2 0x100 EXP SWAP1 DIV PUSH20 0xFFFFFFFFFFFFFFFFFFFFFFFFFFFFFFFFFFFFFFFF AND PUSH20 0xFFFFFFFFFFFFFFFFFFFFFFFFFFFFFFFFFFFFFFFF AND DUP2 MSTORE PUSH1 0x20 ADD SWAP1 PUSH1 0x1 ADD SWAP1 DUP1 DUP4 GT PUSH2 0x2B3 JUMPI JUMPDEST POP POP POP POP POP SWAP1 POP SWAP1 JUMP JUMPDEST CALLER PUSH0 DUP1 JUMPDEST PUSH1 0x1 DUP1 SLOAD SWAP1 POP DUP2 PUSH1 0xFF AND LT ISZERO PUSH2 0x3A7 JUMPI PUSH1 0x1 DUP2 PUSH1 0xFF AND DUP2 SLOAD DUP2 LT PUSH2 0x331 JUMPI PUSH2 0x330 PUSH2 0x1549 JUMP JUMPDEST JUMPDEST SWAP1 PUSH0 MSTORE PUSH1 0x20 PUSH0 KECCAK256 ADD PUSH0 SWAP1 SLOAD SWAP1 PUSH2 0x100 EXP SWAP1 DIV PUSH20 0xFFFFFFFFFFFFFFFFFFFFFFFFFFFFFFFFFFFFFFFF AND PUSH20 0xFFFFFFFFFFFFFFFFFFFFFFFFFFFFFFFFFFFFFFFF AND DUP4 PUSH20 0xFFFFFFFFFFFFFFFFFFFFFFFFFFFFFFFFFFFFFFFF AND SUB PUSH2 0x394 JUMPI PUSH1 0x1 SWAP2 POP PUSH2 0x3A7 JUMP JUMPDEST DUP1 DUP1 PUSH2 0x39F SWAP1 PUSH2 0x15AF JUMP JUMPDEST SWAP2 POP POP PUSH2 0x30A JUMP JUMPDEST POP DUP1 PUSH2 0x3E8 JUMPI PUSH1 0x40 MLOAD PUSH32 0x8C379A000000000000000000000000000000000000000000000000000000000 DUP2 MSTORE PUSH1 0x4 ADD PUSH2 0x3DF SWAP1 PUSH2 0x1657 JUMP JUMPDEST PUSH1 0x40 MLOAD DUP1 SWAP2 SUB SWAP1 REVERT JUMPDEST CALLVALUE PUSH1 0x2 PUSH0 CALLER PUSH20 0xFFFFFFFFFFFFFFFFFFFFFFFFFFFFFFFFFFFFFFFF AND PUSH20 0xFFFFFFFFFFFFFFFFFFFFFFFFFFFFFFFFFFFFFFFF AND DUP2 MSTORE PUSH1 0x20 ADD SWAP1 DUP2 MSTORE PUSH1 0x20 ADD PUSH0 KECCAK256 PUSH0 DUP3 DUP3 SLOAD PUSH2 0x434 SWAP2 SWAP1 PUSH2 0x1675 JUMP JUMPDEST SWAP3 POP POP DUP2 SWAP1 SSTORE POP PUSH32 0xE4F13824473BB5D7C83A33648A5B781337DB89C57CDFDB2CAF2C87A9CA0391F6 CALLER CALLVALUE PUSH1 0x6 SLOAD SELFBALANCE TIMESTAMP PUSH1 0x40 MLOAD PUSH2 0x474 SWAP6 SWAP5 SWAP4 SWAP3 SWAP2 SWAP1 PUSH2 0x16A8 JUMP JUMPDEST PUSH1 0x40 MLOAD DUP1 SWAP2 SUB SWAP1 LOG1 POP POP JUMP JUMPDEST PUSH0 DUP2 PUSH0 DUP1 JUMPDEST PUSH1 0x1 DUP1 SLOAD SWAP1 POP DUP2 PUSH1 0xFF AND LT ISZERO PUSH2 0x522 JUMPI PUSH1 0x1 DUP2 PUSH1 0xFF AND DUP2 SLOAD DUP2 LT PUSH2 0x4AC JUMPI PUSH2 0x4AB PUSH2 0x1549 JUMP JUMPDEST JUMPDEST SWAP1 PUSH0 MSTORE PUSH1 0x20 PUSH0 KECCAK256 ADD PUSH0 SWAP1 SLOAD SWAP1 PUSH2 0x100 EXP SWAP1 DIV PUSH20 0xFFFFFFFFFFFFFFFFFFFFFFFFFFFFFFFFFFFFFFFF AND PUSH20 0xFFFFFFFFFFFFFFFFFFFFFFFFFFFFFFFFFFFFFFFF AND DUP4 PUSH20 0xFFFFFFFFFFFFFFFFFFFFFFFFFFFFFFFFFFFFFFFF AND SUB PUSH2 0x50F JUMPI PUSH1 0x1 SWAP2 POP PUSH2 0x522 JUMP JUMPDEST DUP1 DUP1 PUSH2 0x51A SWAP1 PUSH2 0x15AF JUMP JUMPDEST SWAP2 POP POP PUSH2 0x485 JUMP JUMPDEST POP DUP1 PUSH2 0x563 JUMPI PUSH1 0x40 MLOAD PUSH32 0x8C379A000000000000000000000000000000000000000000000000000000000 DUP2 MSTORE PUSH1 0x4 ADD PUSH2 0x55A SWAP1 PUSH2 0x1657 JUMP JUMPDEST PUSH1 0x40 MLOAD DUP1 SWAP2 SUB SWAP1 REVERT JUMPDEST PUSH1 0x2 PUSH0 DUP6 PUSH20 0xFFFFFFFFFFFFFFFFFFFFFFFFFFFFFFFFFFFFFFFF AND PUSH20 0xFFFFFFFFFFFFFFFFFFFFFFFFFFFFFFFFFFFFFFFF AND DUP2 MSTORE PUSH1 0x20 ADD SWAP1 DUP2 MSTORE PUSH1 0x20 ADD PUSH0 KECCAK256 SLOAD SWAP3 POP POP POP SWAP2 SWAP1 POP JUMP JUMPDEST PUSH1 0x60 PUSH1 0x7 DUP1 SLOAD DUP1 PUSH1 0x20 MUL PUSH1 0x20 ADD PUSH1 0x40 MLOAD SWAP1 DUP2 ADD PUSH1 0x40 MSTORE DUP1 SWAP3 SWAP2 SWAP1 DUP2 DUP2 MSTORE PUSH1 0x20 ADD PUSH0 SWAP1 JUMPDEST DUP3 DUP3 LT ISZERO PUSH2 0x660 JUMPI DUP4 DUP3 SWAP1 PUSH0 MSTORE PUSH1 0x20 PUSH0 KECCAK256 SWAP1 PUSH1 0x3 MUL ADD PUSH1 0x40 MLOAD DUP1 PUSH1 0xA0 ADD PUSH1 0x40 MSTORE SWAP1 DUP2 PUSH0 DUP3 ADD SLOAD DUP2 MSTORE PUSH1 0x20 ADD PUSH1 0x1 DUP3 ADD SLOAD DUP2 MSTORE PUSH1 0x20 ADD PUSH1 0x2 DUP3 ADD PUSH0 SWAP1 SLOAD SWAP1 PUSH2 0x100 EXP SWAP1 DIV PUSH1 0xFF AND ISZERO ISZERO ISZERO ISZERO DUP2 MSTORE PUSH1 0x20 ADD PUSH1 0x2 DUP3 ADD PUSH1 0x1 SWAP1 SLOAD SWAP1 PUSH2 0x100 EXP SWAP1 DIV PUSH1 0xFF AND ISZERO ISZERO ISZERO ISZERO DUP2 MSTORE PUSH1 0x20 ADD PUSH1 0x2 DUP3 ADD PUSH1 0x2 SWAP1 SLOAD SWAP1 PUSH2 0x100 EXP SWAP1 DIV PUSH1 0xFF AND ISZERO ISZERO ISZERO ISZERO DUP2 MSTORE POP POP DUP2 MSTORE PUSH1 0x20 ADD SWAP1 PUSH1 0x1 ADD SWAP1 PUSH2 0x5CD JUMP JUMPDEST POP POP POP POP SWAP1 POP SWAP1 JUMP JUMPDEST CALLER PUSH0 DUP1 JUMPDEST PUSH1 0x1 DUP1 SLOAD SWAP1 POP DUP2 PUSH1 0xFF AND LT ISZERO PUSH2 0x70A JUMPI PUSH1 0x1 DUP2 PUSH1 0xFF AND DUP2 SLOAD DUP2 LT PUSH2 0x694 JUMPI PUSH2 0x693 PUSH2 0x1549 JUMP JUMPDEST JUMPDEST SWAP1 PUSH0 MSTORE PUSH1 0x20 PUSH0 KECCAK256 ADD PUSH0 SWAP1 SLOAD SWAP1 PUSH2 0x100 EXP SWAP1 DIV PUSH20 0xFFFFFFFFFFFFFFFFFFFFFFFFFFFFFFFFFFFFFFFF AND PUSH20 0xFFFFFFFFFFFFFFFFFFFFFFFFFFFFFFFFFFFFFFFF AND DUP4 PUSH20 0xFFFFFFFFFFFFFFFFFFFFFFFFFFFFFFFFFFFFFFFF AND SUB PUSH2 0x6F7 JUMPI PUSH1 0x1 SWAP2 POP PUSH2 0x70A JUMP JUMPDEST DUP1 DUP1 PUSH2 0x702 SWAP1 PUSH2 0x15AF JUMP JUMPDEST SWAP2 POP POP PUSH2 0x66D JUMP JUMPDEST POP DUP1 PUSH2 0x74B JUMPI PUSH1 0x40 MLOAD PUSH32 0x8C379A000000000000000000000000000000000000000000000000000000000 DUP2 MSTORE PUSH1 0x4 ADD PUSH2 0x742 SWAP1 PUSH2 0x1657 JUMP JUMPDEST PUSH1 0x40 MLOAD DUP1 SWAP2 SUB SWAP1 REVERT JUMPDEST DUP4 PUSH0 DUP1 JUMPDEST PUSH1 0x1 DUP1 SLOAD SWAP1 POP DUP2 PUSH1 0xFF AND LT ISZERO PUSH2 0x7EC JUMPI PUSH1 0x1 DUP2 PUSH1 0xFF AND DUP2 SLOAD DUP2 LT PUSH2 0x776 JUMPI PUSH2 0x775 PUSH2 0x1549 JUMP JUMPDEST JUMPDEST SWAP1 PUSH0 MSTORE PUSH1 0x20 PUSH0 KECCAK256 ADD PUSH0 SWAP1 SLOAD SWAP1 PUSH2 0x100 EXP SWAP1 DIV PUSH20 0xFFFFFFFFFFFFFFFFFFFFFFFFFFFFFFFFFFFFFFFF AND PUSH20 0xFFFFFFFFFFFFFFFFFFFFFFFFFFFFFFFFFFFFFFFF AND DUP4 PUSH20 0xFFFFFFFFFFFFFFFFFFFFFFFFFFFFFFFFFFFFFFFF AND SUB PUSH2 0x7D9 JUMPI PUSH1 0x1 SWAP2 POP PUSH2 0x7EC JUMP JUMPDEST DUP1 DUP1 PUSH2 0x7E4 SWAP1 PUSH2 0x15AF JUMP JUMPDEST SWAP2 POP POP PUSH2 0x74F JUMP JUMPDEST POP DUP1 DUP1 PUSH2 0x845 JUMPI POP PUSH1 0x3 PUSH0 SWAP1 SLOAD SWAP1 PUSH2 0x100 EXP SWAP1 DIV PUSH20 0xFFFFFFFFFFFFFFFFFFFFFFFFFFFFFFFFFFFFFFFF AND PUSH20 0xFFFFFFFFFFFFFFFFFFFFFFFFFFFFFFFFFFFFFFFF AND DUP3 PUSH20 0xFFFFFFFFFFFFFFFFFFFFFFFFFFFFFFFFFFFFFFFF AND EQ JUMPDEST PUSH2 0x884 JUMPI PUSH1 0x40 MLOAD PUSH32 0x8C379A000000000000000000000000000000000000000000000000000000000 DUP2 MSTORE PUSH1 0x4 ADD PUSH2 0x87B SWAP1 PUSH2 0x1769 JUMP JUMPDEST PUSH1 0x40 MLOAD DUP1 SWAP2 SUB SWAP1 REVERT JUMPDEST DUP5 DUP1 SELFBALANCE LT ISZERO PUSH2 0x8C8 JUMPI PUSH1 0x40 MLOAD PUSH32 0x8C379A000000000000000000000000000000000000000000000000000000000 DUP2 MSTORE PUSH1 0x4 ADD PUSH2 0x8BF SWAP1 PUSH2 0x17D1 JUMP JUMPDEST PUSH1 0x40 MLOAD DUP1 SWAP2 SUB SWAP1 REVERT JUMPDEST PUSH1 0x3 PUSH0 SWAP1 SLOAD SWAP1 PUSH2 0x100 EXP SWAP1 DIV PUSH20 0xFFFFFFFFFFFFFFFFFFFFFFFFFFFFFFFFFFFFFFFF AND PUSH20 0xFFFFFFFFFFFFFFFFFFFFFFFFFFFFFFFFFFFFFFFF AND DUP8 PUSH20 0xFFFFFFFFFFFFFFFFFFFFFFFFFFFFFFFFFFFFFFFF AND EQ PUSH2 0x9F0 JUMPI DUP6 PUSH1 0x2 PUSH0 DUP10 PUSH20 0xFFFFFFFFFFFFFFFFFFFFFFFFFFFFFFFFFFFFFFFF AND PUSH20 0xFFFFFFFFFFFFFFFFFFFFFFFFFFFFFFFFFFFFFFFF AND DUP2 MSTORE PUSH1 0x20 ADD SWAP1 DUP2 MSTORE PUSH1 0x20 ADD PUSH0 KECCAK256 SLOAD LT ISZERO PUSH2 0x99C JUMPI PUSH1 0x40 MLOAD PUSH32 0x8C379A000000000000000000000000000000000000000000000000000000000 DUP2 MSTORE PUSH1 0x4 ADD PUSH2 0x993 SWAP1 PUSH2 0x1839 JUMP JUMPDEST PUSH1 0x40 MLOAD DUP1 SWAP2 SUB SWAP1 REVERT JUMPDEST DUP6 PUSH1 0x2 PUSH0 DUP10 PUSH20 0xFFFFFFFFFFFFFFFFFFFFFFFFFFFFFFFFFFFFFFFF AND PUSH20 0xFFFFFFFFFFFFFFFFFFFFFFFFFFFFFFFFFFFFFFFF AND DUP2 MSTORE PUSH1 0x20 ADD SWAP1 DUP2 MSTORE PUSH1 0x20 ADD PUSH0 KECCAK256 PUSH0 DUP3 DUP3 SLOAD PUSH2 0x9E8 SWAP2 SWAP1 PUSH2 0x1857 JUMP JUMPDEST SWAP3 POP POP DUP2 SWAP1 SSTORE POP JUMPDEST DUP7 PUSH20 0xFFFFFFFFFFFFFFFFFFFFFFFFFFFFFFFFFFFFFFFF AND PUSH2 0x8FC DUP8 SWAP1 DUP2 ISZERO MUL SWAP1 PUSH1 0x40 MLOAD PUSH0 PUSH1 0x40 MLOAD DUP1 DUP4 SUB DUP2 DUP6 DUP9 DUP9 CALL SWAP4 POP POP POP POP ISZERO DUP1 ISZERO PUSH2 0xA33 JUMPI RETURNDATASIZE PUSH0 DUP1 RETURNDATACOPY RETURNDATASIZE PUSH0 REVERT JUMPDEST POP PUSH32 0x132717CC7CE0E7288E4E1E75CD3527373DF35D716A6D9D576199B1EE22B15923 DUP8 DUP8 PUSH1 0x6 SLOAD SELFBALANCE TIMESTAMP PUSH1 0x40 MLOAD PUSH2 0xA6D SWAP6 SWAP5 SWAP4 SWAP3 SWAP2 SWAP1 PUSH2 0x18E5 JUMP JUMPDEST PUSH1 0x40 MLOAD DUP1 SWAP2 SUB SWAP1 LOG1 POP POP POP POP POP POP POP JUMP JUMPDEST PUSH0 DUP1 PUSH0 SWAP1 SLOAD SWAP1 PUSH2 0x100 EXP SWAP1 DIV PUSH20 0xFFFFFFFFFFFFFFFFFFFFFFFFFFFFFFFFFFFFFFFF AND SWAP1 POP SWAP1 JUMP JUMPDEST PUSH1 0x60 PUSH0 PUSH1 0x5 DUP1 SLOAD SWAP1 POP PUSH8 0xFFFFFFFFFFFFFFFF DUP2 GT ISZERO PUSH2 0xAC7 JUMPI PUSH2 0xAC6 PUSH2 0x1936 JUMP JUMPDEST JUMPDEST PUSH1 0x40 MLOAD SWAP1 DUP1 DUP3 MSTORE DUP1 PUSH1 0x20 MUL PUSH1 0x20 ADD DUP3 ADD PUSH1 0x40 MSTORE DUP1 ISZERO PUSH2 0xAFA JUMPI DUP2 PUSH1 0x20 ADD JUMPDEST PUSH1 0x60 DUP2 MSTORE PUSH1 0x20 ADD SWAP1 PUSH1 0x1 SWAP1 SUB SWAP1 DUP2 PUSH2 0xAE5 JUMPI SWAP1 POP JUMPDEST POP SWAP1 POP PUSH0 JUMPDEST PUSH1 0x5 DUP1 SLOAD SWAP1 POP DUP2 LT ISZERO PUSH2 0xBF7 JUMPI PUSH1 0x4 PUSH1 0x5 DUP3 DUP2 SLOAD DUP2 LT PUSH2 0xB22 JUMPI PUSH2 0xB21 PUSH2 0x1549 JUMP JUMPDEST JUMPDEST SWAP1 PUSH0 MSTORE PUSH1 0x20 PUSH0 KECCAK256 ADD PUSH1 0x40 MLOAD PUSH2 0xB37 SWAP2 SWAP1 PUSH2 0x1A5C JUMP JUMPDEST SWAP1 DUP2 MSTORE PUSH1 0x20 ADD PUSH1 0x40 MLOAD DUP1 SWAP2 SUB SWAP1 KECCAK256 DUP1 SLOAD PUSH2 0xB50 SWAP1 PUSH2 0x1990 JUMP JUMPDEST DUP1 PUSH1 0x1F ADD PUSH1 0x20 DUP1 SWAP2 DIV MUL PUSH1 0x20 ADD PUSH1 0x40 MLOAD SWAP1 DUP2 ADD PUSH1 0x40 MSTORE DUP1 SWAP3 SWAP2 SWAP1 DUP2 DUP2 MSTORE PUSH1 0x20 ADD DUP3 DUP1 SLOAD PUSH2 0xB7C SWAP1 PUSH2 0x1990 JUMP JUMPDEST DUP1 ISZERO PUSH2 0xBC7 JUMPI DUP1 PUSH1 0x1F LT PUSH2 0xB9E JUMPI PUSH2 0x100 DUP1 DUP4 SLOAD DIV MUL DUP4 MSTORE SWAP2 PUSH1 0x20 ADD SWAP2 PUSH2 0xBC7 JUMP JUMPDEST DUP3 ADD SWAP2 SWAP1 PUSH0 MSTORE PUSH1 0x20 PUSH0 KECCAK256 SWAP1 JUMPDEST DUP2 SLOAD DUP2 MSTORE SWAP1 PUSH1 0x1 ADD SWAP1 PUSH1 0x20 ADD DUP1 DUP4 GT PUSH2 0xBAA JUMPI DUP3 SWAP1 SUB PUSH1 0x1F AND DUP3 ADD SWAP2 JUMPDEST POP POP POP POP POP DUP3 DUP3 DUP2 MLOAD DUP2 LT PUSH2 0xBDF JUMPI PUSH2 0xBDE PUSH2 0x1549 JUMP JUMPDEST JUMPDEST PUSH1 0x20 MUL PUSH1 0x20 ADD ADD DUP2 SWAP1 MSTORE POP DUP1 DUP1 PUSH1 0x1 ADD SWAP2 POP POP PUSH2 0xAFF JUMP JUMPDEST POP DUP1 SWAP2 POP POP SWAP1 JUMP JUMPDEST CALLER PUSH0 DUP1 JUMPDEST PUSH1 0x1 DUP1 SLOAD SWAP1 POP DUP2 PUSH1 0xFF AND LT ISZERO PUSH2 0xCA0 JUMPI PUSH1 0x1 DUP2 PUSH1 0xFF AND DUP2 SLOAD DUP2 LT PUSH2 0xC2A JUMPI PUSH2 0xC29 PUSH2 0x1549 JUMP JUMPDEST JUMPDEST SWAP1 PUSH0 MSTORE PUSH1 0x20 PUSH0 KECCAK256 ADD PUSH0 SWAP1 SLOAD SWAP1 PUSH2 0x100 EXP SWAP1 DIV PUSH20 0xFFFFFFFFFFFFFFFFFFFFFFFFFFFFFFFFFFFFFFFF AND PUSH20 0xFFFFFFFFFFFFFFFFFFFFFFFFFFFFFFFFFFFFFFFF AND DUP4 PUSH20 0xFFFFFFFFFFFFFFFFFFFFFFFFFFFFFFFFFFFFFFFF AND SUB PUSH2 0xC8D JUMPI PUSH1 0x1 SWAP2 POP PUSH2 0xCA0 JUMP JUMPDEST DUP1 DUP1 PUSH2 0xC98 SWAP1 PUSH2 0x15AF JUMP JUMPDEST SWAP2 POP POP PUSH2 0xC03 JUMP JUMPDEST POP DUP1 PUSH2 0xCE1 JUMPI PUSH1 0x40 MLOAD PUSH32 0x8C379A000000000000000000000000000000000000000000000000000000000 DUP2 MSTORE PUSH1 0x4 ADD PUSH2 0xCD8 SWAP1 PUSH2 0x1657 JUMP JUMPDEST PUSH1 0x40 MLOAD DUP1 SWAP2 SUB SWAP1 REVERT JUMPDEST DUP4 PUSH0 DUP1 JUMPDEST PUSH1 0x1 DUP1 SLOAD SWAP1 POP DUP2 PUSH1 0xFF AND LT ISZERO PUSH2 0xD82 JUMPI PUSH1 0x1 DUP2 PUSH1 0xFF AND DUP2 SLOAD DUP2 LT PUSH2 0xD0C JUMPI PUSH2 0xD0B PUSH2 0x1549 JUMP JUMPDEST JUMPDEST SWAP1 PUSH0 MSTORE PUSH1 0x20 PUSH0 KECCAK256 ADD PUSH0 SWAP1 SLOAD SWAP1 PUSH2 0x100 EXP SWAP1 DIV PUSH20 0xFFFFFFFFFFFFFFFFFFFFFFFFFFFFFFFFFFFFFFFF AND PUSH20 0xFFFFFFFFFFFFFFFFFFFFFFFFFFFFFFFFFFFFFFFF AND DUP4 PUSH20 0xFFFFFFFFFFFFFFFFFFFFFFFFFFFFFFFFFFFFFFFF AND SUB PUSH2 0xD6F JUMPI PUSH1 0x1 SWAP2 POP PUSH2 0xD82 JUMP JUMPDEST DUP1 DUP1 PUSH2 0xD7A SWAP1 PUSH2 0x15AF JUMP JUMPDEST SWAP2 POP POP PUSH2 0xCE5 JUMP JUMPDEST POP DUP1 DUP1 PUSH2 0xDDB JUMPI POP PUSH1 0x3 PUSH0 SWAP1 SLOAD SWAP1 PUSH2 0x100 EXP SWAP1 DIV PUSH20 0xFFFFFFFFFFFFFFFFFFFFFFFFFFFFFFFFFFFFFFFF AND PUSH20 0xFFFFFFFFFFFFFFFFFFFFFFFFFFFFFFFFFFFFFFFF AND DUP3 PUSH20 0xFFFFFFFFFFFFFFFFFFFFFFFFFFFFFFFFFFFFFFFF AND EQ JUMPDEST PUSH2 0xE1A JUMPI PUSH1 0x40 MLOAD PUSH32 0x8C379A000000000000000000000000000000000000000000000000000000000 DUP2 MSTORE PUSH1 0x4 ADD PUSH2 0xE11 SWAP1 PUSH2 0x1769 JUMP JUMPDEST PUSH1 0x40 MLOAD DUP1 SWAP2 SUB SWAP1 REVERT JUMPDEST PUSH1 0x64 DUP6 PUSH1 0x6 SLOAD PUSH2 0xE2A SWAP2 SWAP1 PUSH2 0x1A72 JUMP JUMPDEST PUSH2 0xE34 SWAP2 SWAP1 PUSH2 0x1AE0 JUMP JUMPDEST DUP1 SELFBALANCE LT ISZERO PUSH2 0xE77 JUMPI PUSH1 0x40 MLOAD PUSH32 0x8C379A000000000000000000000000000000000000000000000000000000000 DUP2 MSTORE PUSH1 0x4 ADD PUSH2 0xE6E SWAP1 PUSH2 0x17D1 JUMP JUMPDEST PUSH1 0x40 MLOAD DUP1 SWAP2 SUB SWAP1 REVERT JUMPDEST PUSH0 PUSH1 0x64 DUP8 PUSH1 0x6 SLOAD PUSH2 0xE88 SWAP2 SWAP1 PUSH2 0x1A72 JUMP JUMPDEST PUSH2 0xE92 SWAP2 SWAP1 PUSH2 0x1AE0 JUMP JUMPDEST SWAP1 POP PUSH1 0x3 PUSH0 SWAP1 SLOAD SWAP1 PUSH2 0x100 EXP SWAP1 DIV PUSH20 0xFFFFFFFFFFFFFFFFFFFFFFFFFFFFFFFFFFFFFFFF AND PUSH20 0xFFFFFFFFFFFFFFFFFFFFFFFFFFFFFFFFFFFFFFFF AND DUP9 PUSH20 0xFFFFFFFFFFFFFFFFFFFFFFFFFFFFFFFFFFFFFFFF AND EQ PUSH2 0xFBC JUMPI DUP1 PUSH1 0x2 PUSH0 DUP11 PUSH20 0xFFFFFFFFFFFFFFFFFFFFFFFFFFFFFFFFFFFFFFFF AND PUSH20 0xFFFFFFFFFFFFFFFFFFFFFFFFFFFFFFFFFFFFFFFF AND DUP2 MSTORE PUSH1 0x20 ADD SWAP1 DUP2 MSTORE PUSH1 0x20 ADD PUSH0 KECCAK256 SLOAD LT ISZERO PUSH2 0xF68 JUMPI PUSH1 0x40 MLOAD PUSH32 0x8C379A000000000000000000000000000000000000000000000000000000000 DUP2 MSTORE PUSH1 0x4 ADD PUSH2 0xF5F SWAP1 PUSH2 0x1839 JUMP JUMPDEST PUSH1 0x40 MLOAD DUP1 SWAP2 SUB SWAP1 REVERT JUMPDEST DUP1 PUSH1 0x2 PUSH0 DUP11 PUSH20 0xFFFFFFFFFFFFFFFFFFFFFFFFFFFFFFFFFFFFFFFF AND PUSH20 0xFFFFFFFFFFFFFFFFFFFFFFFFFFFFFFFFFFFFFFFF AND DUP2 MSTORE PUSH1 0x20 ADD SWAP1 DUP2 MSTORE PUSH1 0x20 ADD PUSH0 KECCAK256 PUSH0 DUP3 DUP3 SLOAD PUSH2 0xFB4 SWAP2 SWAP1 PUSH2 0x1857 JUMP JUMPDEST SWAP3 POP POP DUP2 SWAP1 SSTORE POP JUMPDEST DUP8 PUSH20 0xFFFFFFFFFFFFFFFFFFFFFFFFFFFFFFFFFFFFFFFF AND PUSH2 0x8FC DUP3 SWAP1 DUP2 ISZERO MUL SWAP1 PUSH1 0x40 MLOAD PUSH0 PUSH1 0x40 MLOAD DUP1 DUP4 SUB DUP2 DUP6 DUP9 DUP9 CALL SWAP4 POP POP POP POP ISZERO DUP1 ISZERO PUSH2 0xFFF JUMPI RETURNDATASIZE PUSH0 DUP1 RETURNDATACOPY RETURNDATASIZE PUSH0 REVERT JUMPDEST POP PUSH32 0x132717CC7CE0E7288E4E1E75CD3527373DF35D716A6D9D576199B1EE22B15923 DUP9 DUP3 PUSH1 0x6 SLOAD SELFBALANCE TIMESTAMP PUSH1 0x40 MLOAD PUSH2 0x1039 SWAP6 SWAP5 SWAP4 SWAP3 SWAP2 SWAP1 PUSH2 0x18E5 JUMP JUMPDEST PUSH1 0x40 MLOAD DUP1 SWAP2 SUB SWAP1 LOG1 POP POP POP POP POP POP POP POP JUMP JUMPDEST PUSH0 DUP2 SWAP1 POP SWAP2 SWAP1 POP JUMP JUMPDEST PUSH2 0x105D DUP2 PUSH2 0x104B JUMP JUMPDEST DUP3 MSTORE POP POP JUMP JUMPDEST PUSH0 PUSH1 0x20 DUP3 ADD SWAP1 POP PUSH2 0x1076 PUSH0 DUP4 ADD DUP5 PUSH2 0x1054 JUMP JUMPDEST SWAP3 SWAP2 POP POP JUMP JUMPDEST PUSH0 PUSH20 0xFFFFFFFFFFFFFFFFFFFFFFFFFFFFFFFFFFFFFFFF DUP3 AND SWAP1 POP SWAP2 SWAP1 POP JUMP JUMPDEST PUSH0 PUSH2 0x10A5 DUP3 PUSH2 0x107C JUMP JUMPDEST SWAP1 POP SWAP2 SWAP1 POP JUMP JUMPDEST PUSH2 0x10B5 DUP2 PUSH2 0x109B JUMP JUMPDEST DUP3 MSTORE POP POP JUMP JUMPDEST PUSH0 PUSH1 0x20 DUP3 ADD SWAP1 POP PUSH2 0x10CE PUSH0 DUP4 ADD DUP5 PUSH2 0x10AC JUMP JUMPDEST SWAP3 SWAP2 POP POP JUMP JUMPDEST PUSH0 DUP2 MLOAD SWAP1 POP SWAP2 SWAP1 POP JUMP JUMPDEST PUSH0 DUP3 DUP3 MSTORE PUSH1 0x20 DUP3 ADD SWAP1 POP SWAP3 SWAP2 POP POP JUMP JUMPDEST PUSH0 DUP2 SWAP1 POP PUSH1 0x20 DUP3 ADD SWAP1 POP SWAP2 SWAP1 POP JUMP JUMPDEST PUSH2 0x1106 DUP2 PUSH2 0x109B JUMP JUMPDEST DUP3 MSTORE POP POP JUMP JUMPDEST PUSH0 PUSH2 0x1117 DUP4 DUP4 PUSH2 0x10FD JUMP JUMPDEST PUSH1 0x20 DUP4 ADD SWAP1 POP SWAP3 SWAP2 POP POP JUMP JUMPDEST PUSH0 PUSH1 0x20 DUP3 ADD SWAP1 POP SWAP2 SWAP1 POP JUMP JUMPDEST PUSH0 PUSH2 0x1139 DUP3 PUSH2 0x10D4 JUMP JUMPDEST PUSH2 0x1143 DUP2 DUP6 PUSH2 0x10DE JUMP JUMPDEST SWAP4 POP PUSH2 0x114E DUP4 PUSH2 0x10EE JUMP JUMPDEST DUP1 PUSH0 JUMPDEST DUP4 DUP2 LT ISZERO PUSH2 0x117E JUMPI DUP2 MLOAD PUSH2 0x1165 DUP9 DUP3 PUSH2 0x110C JUMP JUMPDEST SWAP8 POP PUSH2 0x1170 DUP4 PUSH2 0x1123 JUMP JUMPDEST SWAP3 POP POP PUSH1 0x1 DUP2 ADD SWAP1 POP PUSH2 0x1151 JUMP JUMPDEST POP DUP6 SWAP4 POP POP POP POP SWAP3 SWAP2 POP POP JUMP JUMPDEST PUSH0 PUSH1 0x20 DUP3 ADD SWAP1 POP DUP2 DUP2 SUB PUSH0 DUP4 ADD MSTORE PUSH2 0x11A3 DUP2 DUP5 PUSH2 0x112F JUMP JUMPDEST SWAP1 POP SWAP3 SWAP2 POP POP JUMP JUMPDEST PUSH0 DUP1 REVERT JUMPDEST PUSH2 0x11B8 DUP2 PUSH2 0x109B JUMP JUMPDEST DUP2 EQ PUSH2 0x11C2 JUMPI PUSH0 DUP1 REVERT JUMPDEST POP JUMP JUMPDEST PUSH0 DUP2 CALLDATALOAD SWAP1 POP PUSH2 0x11D3 DUP2 PUSH2 0x11AF JUMP JUMPDEST SWAP3 SWAP2 POP POP JUMP JUMPDEST PUSH0 PUSH1 0x20 DUP3 DUP5 SUB SLT ISZERO PUSH2 0x11EE JUMPI PUSH2 0x11ED PUSH2 0x11AB JUMP JUMPDEST JUMPDEST PUSH0 PUSH2 0x11FB DUP5 DUP3 DUP6 ADD PUSH2 0x11C5 JUMP JUMPDEST SWAP2 POP POP SWAP3 SWAP2 POP POP JUMP JUMPDEST PUSH0 DUP2 MLOAD SWAP1 POP SWAP2 SWAP1 POP JUMP JUMPDEST PUSH0 DUP3 DUP3 MSTORE PUSH1 0x20 DUP3 ADD SWAP1 POP SWAP3 SWAP2 POP POP JUMP JUMPDEST PUSH0 DUP2 SWAP1 POP PUSH1 0x20 DUP3 ADD SWAP1 POP SWAP2 SWAP1 POP JUMP JUMPDEST PUSH2 0x1236 DUP2 PUSH2 0x104B JUMP JUMPDEST DUP3 MSTORE POP POP JUMP JUMPDEST PUSH0 DUP2 ISZERO ISZERO SWAP1 POP SWAP2 SWAP1 POP JUMP JUMPDEST PUSH2 0x1250 DUP2 PUSH2 0x123C JUMP JUMPDEST DUP3 MSTORE POP POP JUMP JUMPDEST PUSH1 0xA0 DUP3 ADD PUSH0 DUP3 ADD MLOAD PUSH2 0x126A PUSH0 DUP6 ADD DUP3 PUSH2 0x122D JUMP JUMPDEST POP PUSH1 0x20 DUP3 ADD MLOAD PUSH2 0x127D PUSH1 0x20 DUP6 ADD DUP3 PUSH2 0x122D JUMP JUMPDEST POP PUSH1 0x40 DUP3 ADD MLOAD PUSH2 0x1290 PUSH1 0x40 DUP6 ADD DUP3 PUSH2 0x1247 JUMP JUMPDEST POP PUSH1 0x60 DUP3 ADD MLOAD PUSH2 0x12A3 PUSH1 0x60 DUP6 ADD DUP3 PUSH2 0x1247 JUMP JUMPDEST POP PUSH1 0x80 DUP3 ADD MLOAD PUSH2 0x12B6 PUSH1 0x80 DUP6 ADD DUP3 PUSH2 0x1247 JUMP JUMPDEST POP POP POP POP JUMP JUMPDEST PUSH0 PUSH2 0x12C7 DUP4 DUP4 PUSH2 0x1256 JUMP JUMPDEST PUSH1 0xA0 DUP4 ADD SWAP1 POP SWAP3 SWAP2 POP POP JUMP JUMPDEST PUSH0 PUSH1 0x20 DUP3 ADD SWAP1 POP SWAP2 SWAP1 POP JUMP JUMPDEST PUSH0 PUSH2 0x12E9 DUP3 PUSH2 0x1204 JUMP JUMPDEST PUSH2 0x12F3 DUP2 DUP6 PUSH2 0x120E JUMP JUMPDEST SWAP4 POP PUSH2 0x12FE DUP4 PUSH2 0x121E JUMP JUMPDEST DUP1 PUSH0 JUMPDEST DUP4 DUP2 LT ISZERO PUSH2 0x132E JUMPI DUP2 MLOAD PUSH2 0x1315 DUP9 DUP3 PUSH2 0x12BC JUMP JUMPDEST SWAP8 POP PUSH2 0x1320 DUP4 PUSH2 0x12D3 JUMP JUMPDEST SWAP3 POP POP PUSH1 0x1 DUP2 ADD SWAP1 POP PUSH2 0x1301 JUMP JUMPDEST POP DUP6 SWAP4 POP POP POP POP SWAP3 SWAP2 POP POP JUMP JUMPDEST PUSH0 PUSH1 0x20 DUP3 ADD SWAP1 POP DUP2 DUP2 SUB PUSH0 DUP4 ADD MSTORE PUSH2 0x1353 DUP2 DUP5 PUSH2 0x12DF JUMP JUMPDEST SWAP1 POP SWAP3 SWAP2 POP POP JUMP JUMPDEST PUSH0 PUSH2 0x1365 DUP3 PUSH2 0x107C JUMP JUMPDEST SWAP1 POP SWAP2 SWAP1 POP JUMP JUMPDEST PUSH2 0x1375 DUP2 PUSH2 0x135B JUMP JUMPDEST DUP2 EQ PUSH2 0x137F JUMPI PUSH0 DUP1 REVERT JUMPDEST POP JUMP JUMPDEST PUSH0 DUP2 CALLDATALOAD SWAP1 POP PUSH2 0x1390 DUP2 PUSH2 0x136C JUMP JUMPDEST SWAP3 SWAP2 POP POP JUMP JUMPDEST PUSH2 0x139F DUP2 PUSH2 0x104B JUMP JUMPDEST DUP2 EQ PUSH2 0x13A9 JUMPI PUSH0 DUP1 REVERT JUMPDEST POP JUMP JUMPDEST PUSH0 DUP2 CALLDATALOAD SWAP1 POP PUSH2 0x13BA DUP2 PUSH2 0x1396 JUMP JUMPDEST SWAP3 SWAP2 POP POP JUMP JUMPDEST PUSH0 DUP1 PUSH1 0x40 DUP4 DUP6 SUB SLT ISZERO PUSH2 0x13D6 JUMPI PUSH2 0x13D5 PUSH2 0x11AB JUMP JUMPDEST JUMPDEST PUSH0 PUSH2 0x13E3 DUP6 DUP3 DUP7 ADD PUSH2 0x1382 JUMP JUMPDEST SWAP3 POP POP PUSH1 0x20 PUSH2 0x13F4 DUP6 DUP3 DUP7 ADD PUSH2 0x13AC JUMP JUMPDEST SWAP2 POP POP SWAP3 POP SWAP3 SWAP1 POP JUMP JUMPDEST PUSH0 DUP2 MLOAD SWAP1 POP SWAP2 SWAP1 POP JUMP JUMPDEST PUSH0 DUP3 DUP3 MSTORE PUSH1 0x20 DUP3 ADD SWAP1 POP SWAP3 SWAP2 POP POP JUMP JUMPDEST PUSH0 DUP2 SWAP1 POP PUSH1 0x20 DUP3 ADD SWAP1 POP SWAP2 SWAP1 POP JUMP JUMPDEST PUSH0 DUP2 MLOAD SWAP1 POP SWAP2 SWAP1 POP JUMP JUMPDEST PUSH0 DUP3 DUP3 MSTORE PUSH1 0x20 DUP3 ADD SWAP1 POP SWAP3 SWAP2 POP POP JUMP JUMPDEST DUP3 DUP2 DUP4 MCOPY PUSH0 DUP4 DUP4 ADD MSTORE POP POP POP JUMP JUMPDEST PUSH0 PUSH1 0x1F NOT PUSH1 0x1F DUP4 ADD AND SWAP1 POP SWAP2 SWAP1 POP JUMP JUMPDEST PUSH0 PUSH2 0x1469 DUP3 PUSH2 0x1427 JUMP JUMPDEST PUSH2 0x1473 DUP2 DUP6 PUSH2 0x1431 JUMP JUMPDEST SWAP4 POP PUSH2 0x1483 DUP2 DUP6 PUSH1 0x20 DUP7 ADD PUSH2 0x1441 JUMP JUMPDEST PUSH2 0x148C DUP2 PUSH2 0x144F JUMP JUMPDEST DUP5 ADD SWAP2 POP POP SWAP3 SWAP2 POP POP JUMP JUMPDEST PUSH0 PUSH2 0x14A2 DUP4 DUP4 PUSH2 0x145F JUMP JUMPDEST SWAP1 POP SWAP3 SWAP2 POP POP JUMP JUMPDEST PUSH0 PUSH1 0x20 DUP3 ADD SWAP1 POP SWAP2 SWAP1 POP JUMP JUMPDEST PUSH0 PUSH2 0x14C0 DUP3 PUSH2 0x13FE JUMP JUMPDEST PUSH2 0x14CA DUP2 DUP6 PUSH2 0x1408 JUMP JUMPDEST SWAP4 POP DUP4 PUSH1 0x20 DUP3 MUL DUP6 ADD PUSH2 0x14DC DUP6 PUSH2 0x1418 JUMP JUMPDEST DUP1 PUSH0 JUMPDEST DUP6 DUP2 LT ISZERO PUSH2 0x1517 JUMPI DUP5 DUP5 SUB DUP10 MSTORE DUP2 MLOAD PUSH2 0x14F8 DUP6 DUP3 PUSH2 0x1497 JUMP JUMPDEST SWAP5 POP PUSH2 0x1503 DUP4 PUSH2 0x14AA JUMP JUMPDEST SWAP3 POP PUSH1 0x20 DUP11 ADD SWAP10 POP POP PUSH1 0x1 DUP2 ADD SWAP1 POP PUSH2 0x14DF JUMP JUMPDEST POP DUP3 SWAP8 POP DUP8 SWAP6 POP POP POP POP POP POP SWAP3 SWAP2 POP POP JUMP JUMPDEST PUSH0 PUSH1 0x20 DUP3 ADD SWAP1 POP DUP2 DUP2 SUB PUSH0 DUP4 ADD MSTORE PUSH2 0x1541 DUP2 DUP5 PUSH2 0x14B6 JUMP JUMPDEST SWAP1 POP SWAP3 SWAP2 POP POP JUMP JUMPDEST PUSH32 0x4E487B7100000000000000000000000000000000000000000000000000000000 PUSH0 MSTORE PUSH1 0x32 PUSH1 0x4 MSTORE PUSH1 0x24 PUSH0 REVERT JUMPDEST PUSH32 0x4E487B7100000000000000000000000000000000000000000000000000000000 PUSH0 MSTORE PUSH1 0x11 PUSH1 0x4 MSTORE PUSH1 0x24 PUSH0 REVERT JUMPDEST PUSH0 PUSH1 0xFF DUP3 AND SWAP1 POP SWAP2 SWAP1 POP JUMP JUMPDEST PUSH0 PUSH2 0x15B9 DUP3 PUSH2 0x15A3 JUMP JUMPDEST SWAP2 POP PUSH1 0xFF DUP3 SUB PUSH2 0x15CC JUMPI PUSH2 0x15CB PUSH2 0x1576 JUMP JUMPDEST JUMPDEST PUSH1 0x1 DUP3 ADD SWAP1 POP SWAP2 SWAP1 POP JUMP JUMPDEST PUSH0 DUP3 DUP3 MSTORE PUSH1 0x20 DUP3 ADD SWAP1 POP SWAP3 SWAP2 POP POP JUMP JUMPDEST PUSH32 0x4F6E6C79207061727469636970616E7420776974686F757420737570706C6965 PUSH0 DUP3 ADD MSTORE PUSH32 0x722063616E2063616C6C20746869732066756E6374696F6E0000000000000000 PUSH1 0x20 DUP3 ADD MSTORE POP JUMP JUMPDEST PUSH0 PUSH2 0x1641 PUSH1 0x38 DUP4 PUSH2 0x15D7 JUMP JUMPDEST SWAP2 POP PUSH2 0x164C DUP3 PUSH2 0x15E7 JUMP JUMPDEST PUSH1 0x40 DUP3 ADD SWAP1 POP SWAP2 SWAP1 POP JUMP JUMPDEST PUSH0 PUSH1 0x20 DUP3 ADD SWAP1 POP DUP2 DUP2 SUB PUSH0 DUP4 ADD MSTORE PUSH2 0x166E DUP2 PUSH2 0x1635 JUMP JUMPDEST SWAP1 POP SWAP2 SWAP1 POP JUMP JUMPDEST PUSH0 PUSH2 0x167F DUP3 PUSH2 0x104B JUMP JUMPDEST SWAP2 POP PUSH2 0x168A DUP4 PUSH2 0x104B JUMP JUMPDEST SWAP3 POP DUP3 DUP3 ADD SWAP1 POP DUP1 DUP3 GT ISZERO PUSH2 0x16A2 JUMPI PUSH2 0x16A1 PUSH2 0x1576 JUMP JUMPDEST JUMPDEST SWAP3 SWAP2 POP POP JUMP JUMPDEST PUSH0 PUSH1 0xA0 DUP3 ADD SWAP1 POP PUSH2 0x16BB PUSH0 DUP4 ADD DUP9 PUSH2 0x10AC JUMP JUMPDEST PUSH2 0x16C8 PUSH1 0x20 DUP4 ADD DUP8 PUSH2 0x1054 JUMP JUMPDEST PUSH2 0x16D5 PUSH1 0x40 DUP4 ADD DUP7 PUSH2 0x1054 JUMP JUMPDEST PUSH2 0x16E2 PUSH1 0x60 DUP4 ADD DUP6 PUSH2 0x1054 JUMP JUMPDEST PUSH2 0x16EF PUSH1 0x80 DUP4 ADD DUP5 PUSH2 0x1054 JUMP JUMPDEST SWAP7 SWAP6 POP POP POP POP POP POP JUMP JUMPDEST PUSH32 0x4F6E6C79207061727469636970616E74206F7220737570706C6965722063616E PUSH0 DUP3 ADD MSTORE PUSH32 0x2072656365697665000000000000000000000000000000000000000000000000 PUSH1 0x20 DUP3 ADD MSTORE POP JUMP JUMPDEST PUSH0 PUSH2 0x1753 PUSH1 0x28 DUP4 PUSH2 0x15D7 JUMP JUMPDEST SWAP2 POP PUSH2 0x175E DUP3 PUSH2 0x16F9 JUMP JUMPDEST PUSH1 0x40 DUP3 ADD SWAP1 POP SWAP2 SWAP1 POP JUMP JUMPDEST PUSH0 PUSH1 0x20 DUP3 ADD SWAP1 POP DUP2 DUP2 SUB PUSH0 DUP4 ADD MSTORE PUSH2 0x1780 DUP2 PUSH2 0x1747 JUMP JUMPDEST SWAP1 POP SWAP2 SWAP1 POP JUMP JUMPDEST PUSH32 0x4E6F7420656E6F75676820657468657273000000000000000000000000000000 PUSH0 DUP3 ADD MSTORE POP JUMP JUMPDEST PUSH0 PUSH2 0x17BB PUSH1 0x11 DUP4 PUSH2 0x15D7 JUMP JUMPDEST SWAP2 POP PUSH2 0x17C6 DUP3 PUSH2 0x1787 JUMP JUMPDEST PUSH1 0x20 DUP3 ADD SWAP1 POP SWAP2 SWAP1 POP JUMP JUMPDEST PUSH0 PUSH1 0x20 DUP3 ADD SWAP1 POP DUP2 DUP2 SUB PUSH0 DUP4 ADD MSTORE PUSH2 0x17E8 DUP2 PUSH2 0x17AF JUMP JUMPDEST SWAP1 POP SWAP2 SWAP1 POP JUMP JUMPDEST PUSH32 0x4E6F7420656E6F75676820617373657473000000000000000000000000000000 PUSH0 DUP3 ADD MSTORE POP JUMP JUMPDEST PUSH0 PUSH2 0x1823 PUSH1 0x11 DUP4 PUSH2 0x15D7 JUMP JUMPDEST SWAP2 POP PUSH2 0x182E DUP3 PUSH2 0x17EF JUMP JUMPDEST PUSH1 0x20 DUP3 ADD SWAP1 POP SWAP2 SWAP1 POP JUMP JUMPDEST PUSH0 PUSH1 0x20 DUP3 ADD SWAP1 POP DUP2 DUP2 SUB PUSH0 DUP4 ADD MSTORE PUSH2 0x1850 DUP2 PUSH2 0x1817 JUMP JUMPDEST SWAP1 POP SWAP2 SWAP1 POP JUMP JUMPDEST PUSH0 PUSH2 0x1861 DUP3 PUSH2 0x104B JUMP JUMPDEST SWAP2 POP PUSH2 0x186C DUP4 PUSH2 0x104B JUMP JUMPDEST SWAP3 POP DUP3 DUP3 SUB SWAP1 POP DUP2 DUP2 GT ISZERO PUSH2 0x1884 JUMPI PUSH2 0x1883 PUSH2 0x1576 JUMP JUMPDEST JUMPDEST SWAP3 SWAP2 POP POP JUMP JUMPDEST PUSH0 DUP2 SWAP1 POP SWAP2 SWAP1 POP JUMP JUMPDEST PUSH0 PUSH2 0x18AD PUSH2 0x18A8 PUSH2 0x18A3 DUP5 PUSH2 0x107C JUMP JUMPDEST PUSH2 0x188A JUMP JUMPDEST PUSH2 0x107C JUMP JUMPDEST SWAP1 POP SWAP2 SWAP1 POP JUMP JUMPDEST PUSH0 PUSH2 0x18BE DUP3 PUSH2 0x1893 JUMP JUMPDEST SWAP1 POP SWAP2 SWAP1 POP JUMP JUMPDEST PUSH0 PUSH2 0x18CF DUP3 PUSH2 0x18B4 JUMP JUMPDEST SWAP1 POP SWAP2 SWAP1 POP JUMP JUMPDEST PUSH2 0x18DF DUP2 PUSH2 0x18C5 JUMP JUMPDEST DUP3 MSTORE POP POP JUMP JUMPDEST PUSH0 PUSH1 0xA0 DUP3 ADD SWAP1 POP PUSH2 0x18F8 PUSH0 DUP4 ADD DUP9 PUSH2 0x18D6 JUMP JUMPDEST PUSH2 0x1905 PUSH1 0x20 DUP4 ADD DUP8 PUSH2 0x1054 JUMP JUMPDEST PUSH2 0x1912 PUSH1 0x40 DUP4 ADD DUP7 PUSH2 0x1054 JUMP JUMPDEST PUSH2 0x191F PUSH1 0x60 DUP4 ADD DUP6 PUSH2 0x1054 JUMP JUMPDEST PUSH2 0x192C PUSH1 0x80 DUP4 ADD DUP5 PUSH2 0x1054 JUMP JUMPDEST SWAP7 SWAP6 POP POP POP POP POP POP JUMP JUMPDEST PUSH32 0x4E487B7100000000000000000000000000000000000000000000000000000000 PUSH0 MSTORE PUSH1 0x41 PUSH1 0x4 MSTORE PUSH1 0x24 PUSH0 REVERT JUMPDEST PUSH32 0x4E487B7100000000000000000000000000000000000000000000000000000000 PUSH0 MSTORE PUSH1 0x22 PUSH1 0x4 MSTORE PUSH1 0x24 PUSH0 REVERT JUMPDEST PUSH0 PUSH1 0x2 DUP3 DIV SWAP1 POP PUSH1 0x1 DUP3 AND DUP1 PUSH2 0x19A7 JUMPI PUSH1 0x7F DUP3 AND SWAP2 POP JUMPDEST PUSH1 0x20 DUP3 LT DUP2 SUB PUSH2 0x19BA JUMPI PUSH2 0x19B9 PUSH2 0x1963 JUMP JUMPDEST JUMPDEST POP SWAP2 SWAP1 POP JUMP JUMPDEST PUSH0 DUP2 SWAP1 POP SWAP3 SWAP2 POP POP JUMP JUMPDEST PUSH0 DUP2 SWAP1 POP DUP2 PUSH0 MSTORE PUSH1 0x20 PUSH0 KECCAK256 SWAP1 POP SWAP2 SWAP1 POP JUMP JUMPDEST PUSH0 DUP2 SLOAD PUSH2 0x19E8 DUP2 PUSH2 0x1990 JUMP JUMPDEST PUSH2 0x19F2 DUP2 DUP7 PUSH2 0x19C0 JUMP JUMPDEST SWAP5 POP PUSH1 0x1 DUP3 AND PUSH0 DUP2 EQ PUSH2 0x1A0C JUMPI PUSH1 0x1 DUP2 EQ PUSH2 0x1A21 JUMPI PUSH2 0x1A53 JUMP JUMPDEST PUSH1 0xFF NOT DUP4 AND DUP7 MSTORE DUP2 ISZERO ISZERO DUP3 MUL DUP7 ADD SWAP4 POP PUSH2 0x1A53 JUMP JUMPDEST PUSH2 0x1A2A DUP6 PUSH2 0x19CA JUMP JUMPDEST PUSH0 JUMPDEST DUP4 DUP2 LT ISZERO PUSH2 0x1A4B JUMPI DUP2 SLOAD DUP2 DUP10 ADD MSTORE PUSH1 0x1 DUP3 ADD SWAP2 POP PUSH1 0x20 DUP2 ADD SWAP1 POP PUSH2 0x1A2C JUMP JUMPDEST DUP4 DUP9 ADD SWAP6 POP POP POP JUMPDEST POP POP POP SWAP3 SWAP2 POP POP JUMP JUMPDEST PUSH0 PUSH2 0x1A67 DUP3 DUP5 PUSH2 0x19DC JUMP JUMPDEST SWAP2 POP DUP2 SWAP1 POP SWAP3 SWAP2 POP POP JUMP JUMPDEST PUSH0 PUSH2 0x1A7C DUP3 PUSH2 0x104B JUMP JUMPDEST SWAP2 POP PUSH2 0x1A87 DUP4 PUSH2 0x104B JUMP JUMPDEST SWAP3 POP DUP3 DUP3 MUL PUSH2 0x1A95 DUP2 PUSH2 0x104B JUMP JUMPDEST SWAP2 POP DUP3 DUP3 DIV DUP5 EQ DUP4 ISZERO OR PUSH2 0x1AAC JUMPI PUSH2 0x1AAB PUSH2 0x1576 JUMP JUMPDEST JUMPDEST POP SWAP3 SWAP2 POP POP JUMP JUMPDEST PUSH32 0x4E487B7100000000000000000000000000000000000000000000000000000000 PUSH0 MSTORE PUSH1 0x12 PUSH1 0x4 MSTORE PUSH1 0x24 PUSH0 REVERT JUMPDEST PUSH0 PUSH2 0x1AEA DUP3 PUSH2 0x104B JUMP JUMPDEST SWAP2 POP PUSH2 0x1AF5 DUP4 PUSH2 0x104B JUMP JUMPDEST SWAP3 POP DUP3 PUSH2 0x1B05 JUMPI PUSH2 0x1B04 PUSH2 0x1AB3 JUMP JUMPDEST JUMPDEST DUP3 DUP3 DIV SWAP1 POP SWAP3 SWAP2 POP POP JUMP INVALID LOG2 PUSH5 0x6970667358 0x22 SLT KECCAK256 DUP13 DUP16 PUSH7 0x78278E1F0B941A CREATE2 GASPRICE COINBASE SWAP11 0x2D 0xC1 0xC0 0xEF SLOAD MSIZE ORIGIN BLOBHASH 0x4F 0xFC LOG4 0xBE 0xED 0xD 0xC0 RETURNDATASIZE EXP 0xBD PUSH5 0x736F6C6343 STOP ADDMOD NOT STOP CALLER "
				},
				"gasEstimates": {
					"creation": {
						"codeDepositCost": "1396400",
						"executionCost": "infinite",
						"totalCost": "infinite"
					},
					"external": {
						"getAssets(address)": "infinite",
						"getBalance()": "335",
						"getContractInformation()": "infinite",
						"getOwnerAddressWallet()": "2581",
						"getStages()": "infinite",
						"getSupplierAddressWallet()": "2560",
						"getTotalBalance()": "2455",
						"getUserAddressWallet()": "infinite",
						"sendToSmartContract()": "infinite",
						"withDrawByCurrency(address,uint256)": "infinite",
						"withDrawByPercent(address,uint256)": "infinite"
					}
				},
				"methodIdentifiers": {
					"getAssets(address)": "742978da",
					"getBalance()": "12065fe0",
					"getContractInformation()": "f6dfdad1",
					"getOwnerAddressWallet()": "9c01b52f",
					"getStages()": "79655bd0",
					"getSupplierAddressWallet()": "14a24bcf",
					"getTotalBalance()": "12b58349",
					"getUserAddressWallet()": "3f44327a",
					"sendToSmartContract()": "4510fb59",
					"withDrawByCurrency(address,uint256)": "904e3cff",
					"withDrawByPercent(address,uint256)": "fbb05337"
				}
			},
			"storageLayout": {
				"storage": [
					{
						"astId": 19,
						"contract": "contracts/SupplyChain.sol:SupplyChain",
						"label": "owner",
						"offset": 0,
						"slot": "0",
						"type": "t_address"
					},
					{
						"astId": 22,
						"contract": "contracts/SupplyChain.sol:SupplyChain",
						"label": "users",
						"offset": 0,
						"slot": "1",
						"type": "t_array(t_address)dyn_storage"
					},
					{
						"astId": 26,
						"contract": "contracts/SupplyChain.sol:SupplyChain",
						"label": "assets",
						"offset": 0,
						"slot": "2",
						"type": "t_mapping(t_address,t_uint256)"
					},
					{
						"astId": 28,
						"contract": "contracts/SupplyChain.sol:SupplyChain",
						"label": "supplier",
						"offset": 0,
						"slot": "3",
						"type": "t_address"
					},
					{
						"astId": 32,
						"contract": "contracts/SupplyChain.sol:SupplyChain",
						"label": "contractInformation",
						"offset": 0,
						"slot": "4",
						"type": "t_mapping(t_string_memory_ptr,t_bytes_storage)"
					},
					{
						"astId": 35,
						"contract": "contracts/SupplyChain.sol:SupplyChain",
						"label": "contractInformationKeys",
						"offset": 0,
						"slot": "5",
						"type": "t_array(t_string_storage)dyn_storage"
					},
					{
						"astId": 37,
						"contract": "contracts/SupplyChain.sol:SupplyChain",
						"label": "totalBalance",
						"offset": 0,
						"slot": "6",
						"type": "t_uint256"
					},
					{
						"astId": 41,
						"contract": "contracts/SupplyChain.sol:SupplyChain",
						"label": "stages",
						"offset": 0,
						"slot": "7",
						"type": "t_array(t_struct(Stage)12_storage)dyn_storage"
					},
					{
						"astId": 44,
						"contract": "contracts/SupplyChain.sol:SupplyChain",
						"label": "currentStage",
						"offset": 0,
						"slot": "8",
						"type": "t_uint8"
					}
				],
				"types": {
					"t_address": {
						"encoding": "inplace",
						"label": "address",
						"numberOfBytes": "20"
					},
					"t_array(t_address)dyn_storage": {
						"base": "t_address",
						"encoding": "dynamic_array",
						"label": "address[]",
						"numberOfBytes": "32"
					},
					"t_array(t_string_storage)dyn_storage": {
						"base": "t_string_storage",
						"encoding": "dynamic_array",
						"label": "string[]",
						"numberOfBytes": "32"
					},
					"t_array(t_struct(Stage)12_storage)dyn_storage": {
						"base": "t_struct(Stage)12_storage",
						"encoding": "dynamic_array",
						"label": "struct SupplyChain.Stage[]",
						"numberOfBytes": "32"
					},
					"t_bool": {
						"encoding": "inplace",
						"label": "bool",
						"numberOfBytes": "1"
					},
					"t_bytes_storage": {
						"encoding": "bytes",
						"label": "bytes",
						"numberOfBytes": "32"
					},
					"t_mapping(t_address,t_uint256)": {
						"encoding": "mapping",
						"key": "t_address",
						"label": "mapping(address => uint256)",
						"numberOfBytes": "32",
						"value": "t_uint256"
					},
					"t_mapping(t_string_memory_ptr,t_bytes_storage)": {
						"encoding": "mapping",
						"key": "t_string_memory_ptr",
						"label": "mapping(string => bytes)",
						"numberOfBytes": "32",
						"value": "t_bytes_storage"
					},
					"t_string_memory_ptr": {
						"encoding": "bytes",
						"label": "string",
						"numberOfBytes": "32"
					},
					"t_string_storage": {
						"encoding": "bytes",
						"label": "string",
						"numberOfBytes": "32"
					},
					"t_struct(Stage)12_storage": {
						"encoding": "inplace",
						"label": "struct SupplyChain.Stage",
						"members": [
							{
								"astId": 3,
								"contract": "contracts/SupplyChain.sol:SupplyChain",
								"label": "percent",
								"offset": 0,
								"slot": "0",
								"type": "t_uint256"
							},
							{
								"astId": 5,
								"contract": "contracts/SupplyChain.sol:SupplyChain",
								"label": "deliveryAt",
								"offset": 0,
								"slot": "1",
								"type": "t_uint256"
							},
							{
								"astId": 7,
								"contract": "contracts/SupplyChain.sol:SupplyChain",
								"label": "userConfirm",
								"offset": 0,
								"slot": "2",
								"type": "t_bool"
							},
							{
								"astId": 9,
								"contract": "contracts/SupplyChain.sol:SupplyChain",
								"label": "supplierConfirm",
								"offset": 1,
								"slot": "2",
								"type": "t_bool"
							},
							{
								"astId": 11,
								"contract": "contracts/SupplyChain.sol:SupplyChain",
								"label": "isDone",
								"offset": 2,
								"slot": "2",
								"type": "t_bool"
							}
						],
						"numberOfBytes": "96"
					},
					"t_uint256": {
						"encoding": "inplace",
						"label": "uint256",
						"numberOfBytes": "32"
					},
					"t_uint8": {
						"encoding": "inplace",
						"label": "uint8",
						"numberOfBytes": "1"
					}
				}
			},
			"userdoc": {
				"kind": "user",
				"methods": {},
				"version": 1
			}
		}
	}
}