{
	"contracts/SupplyChain.sol": {
		"SupplyChain": {
			"abi": [
				{
					"inputs": [
						{
							"internalType": "string[]",
							"name": "_keys",
							"type": "string[]"
						},
						{
							"internalType": "bytes[]",
							"name": "_values",
							"type": "bytes[]"
						}
					],
					"stateMutability": "nonpayable",
					"type": "constructor"
				},
				{
					"inputs": [
						{
							"internalType": "string",
							"name": "",
							"type": "string"
						}
					],
					"name": "contractInfomation",
					"outputs": [
						{
							"internalType": "bytes",
							"name": "",
							"type": "bytes"
						}
					],
					"stateMutability": "view",
					"type": "function"
				}
			],
			"devdoc": {
				"kind": "dev",
				"methods": {},
				"version": 1
			},
			"evm": {
				"assembly": "    /* \"contracts/SupplyChain.sol\":61:632  contract SupplyChain {... */\n  mstore(0x40, 0x80)\n    /* \"contracts/SupplyChain.sol\":459:629  constructor(string[] memory _keys, bytes[] memory _values) {... */\n  callvalue\n  dup1\n  iszero\n  tag_1\n  jumpi\n  0x00\n  dup1\n  revert\ntag_1:\n  pop\n  mload(0x40)\n  sub(codesize, bytecodeSize)\n  dup1\n  bytecodeSize\n  dup4\n  codecopy\n  dup2\n  dup2\n  add\n  0x40\n  mstore\n  dup2\n  add\n  swap1\n  tag_2\n  swap2\n  swap1\n  tag_3\n  jump\t// in\ntag_2:\n    /* \"contracts/SupplyChain.sol\":529:537  uint56 i */\n  0x00\n    /* \"contracts/SupplyChain.sol\":524:622  for (uint56 i = 0; i < _keys.length; i++) {... */\ntag_6:\n    /* \"contracts/SupplyChain.sol\":547:552  _keys */\n  dup3\n    /* \"contracts/SupplyChain.sol\":547:559  _keys.length */\n  mload\n    /* \"contracts/SupplyChain.sol\":543:544  i */\n  dup2\n    /* \"contracts/SupplyChain.sol\":543:559  i < _keys.length */\n  0xffffffffffffff\n  and\n  lt\n    /* \"contracts/SupplyChain.sol\":524:622  for (uint56 i = 0; i < _keys.length; i++) {... */\n  iszero\n  tag_7\n  jumpi\n    /* \"contracts/SupplyChain.sol\":605:612  _values */\n  dup2\n    /* \"contracts/SupplyChain.sol\":613:614  i */\n  dup2\n    /* \"contracts/SupplyChain.sol\":605:615  _values[i] */\n  0xffffffffffffff\n  and\n  dup2\n  mload\n  dup2\n  lt\n  tag_9\n  jumpi\n  tag_10\n  tag_11\n  jump\t// in\ntag_10:\ntag_9:\n  0x20\n  mul\n  0x20\n  add\n  add\n  mload\n    /* \"contracts/SupplyChain.sol\":574:592  contractInfomation */\n  0x00\n    /* \"contracts/SupplyChain.sol\":593:598  _keys */\n  dup5\n    /* \"contracts/SupplyChain.sol\":599:600  i */\n  dup4\n    /* \"contracts/SupplyChain.sol\":593:601  _keys[i] */\n  0xffffffffffffff\n  and\n  dup2\n  mload\n  dup2\n  lt\n  tag_12\n  jumpi\n  tag_13\n  tag_11\n  jump\t// in\ntag_13:\ntag_12:\n  0x20\n  mul\n  0x20\n  add\n  add\n  mload\n    /* \"contracts/SupplyChain.sol\":574:602  contractInfomation[_keys[i]] */\n  mload(0x40)\n  tag_14\n  swap2\n  swap1\n  tag_15\n  jump\t// in\ntag_14:\n  swap1\n  dup2\n  mstore\n  0x20\n  add\n  mload(0x40)\n  dup1\n  swap2\n  sub\n  swap1\n  keccak256\n    /* \"contracts/SupplyChain.sol\":574:615  contractInfomation[_keys[i]] = _values[i] */\n  swap1\n  dup2\n  tag_16\n  swap2\n  swap1\n  tag_17\n  jump\t// in\ntag_16:\n  pop\n    /* \"contracts/SupplyChain.sol\":561:564  i++ */\n  dup1\n  dup1\n  tag_18\n  swap1\n  tag_19\n  jump\t// in\ntag_18:\n  swap2\n  pop\n  pop\n    /* \"contracts/SupplyChain.sol\":524:622  for (uint56 i = 0; i < _keys.length; i++) {... */\n  jump(tag_6)\ntag_7:\n  pop\n    /* \"contracts/SupplyChain.sol\":459:629  constructor(string[] memory _keys, bytes[] memory _values) {... */\n  pop\n  pop\n    /* \"contracts/SupplyChain.sol\":61:632  contract SupplyChain {... */\n  jump(tag_20)\n    /* \"#utility.yul\":7:82   */\ntag_21:\n    /* \"#utility.yul\":40:46   */\n  0x00\n    /* \"#utility.yul\":73:75   */\n  0x40\n    /* \"#utility.yul\":67:76   */\n  mload\n    /* \"#utility.yul\":57:76   */\n  swap1\n  pop\n    /* \"#utility.yul\":7:82   */\n  swap1\n  jump\t// out\n    /* \"#utility.yul\":88:205   */\ntag_22:\n    /* \"#utility.yul\":197:198   */\n  0x00\n    /* \"#utility.yul\":194:195   */\n  dup1\n    /* \"#utility.yul\":187:199   */\n  revert\n    /* \"#utility.yul\":211:328   */\ntag_23:\n    /* \"#utility.yul\":320:321   */\n  0x00\n    /* \"#utility.yul\":317:318   */\n  dup1\n    /* \"#utility.yul\":310:322   */\n  revert\n    /* \"#utility.yul\":334:451   */\ntag_24:\n    /* \"#utility.yul\":443:444   */\n  0x00\n    /* \"#utility.yul\":440:441   */\n  dup1\n    /* \"#utility.yul\":433:445   */\n  revert\n    /* \"#utility.yul\":457:559   */\ntag_25:\n    /* \"#utility.yul\":498:504   */\n  0x00\n    /* \"#utility.yul\":549:551   */\n  0x1f\n    /* \"#utility.yul\":545:552   */\n  not\n    /* \"#utility.yul\":540:542   */\n  0x1f\n    /* \"#utility.yul\":533:538   */\n  dup4\n    /* \"#utility.yul\":529:543   */\n  add\n    /* \"#utility.yul\":525:553   */\n  and\n    /* \"#utility.yul\":515:553   */\n  swap1\n  pop\n    /* \"#utility.yul\":457:559   */\n  swap2\n  swap1\n  pop\n  jump\t// out\n    /* \"#utility.yul\":565:745   */\ntag_26:\n    /* \"#utility.yul\":613:690   */\n  0x4e487b7100000000000000000000000000000000000000000000000000000000\n    /* \"#utility.yul\":610:611   */\n  0x00\n    /* \"#utility.yul\":603:691   */\n  mstore\n    /* \"#utility.yul\":710:714   */\n  0x41\n    /* \"#utility.yul\":707:708   */\n  0x04\n    /* \"#utility.yul\":700:715   */\n  mstore\n    /* \"#utility.yul\":734:738   */\n  0x24\n    /* \"#utility.yul\":731:732   */\n  0x00\n    /* \"#utility.yul\":724:739   */\n  revert\n    /* \"#utility.yul\":751:1032   */\ntag_27:\n    /* \"#utility.yul\":834:861   */\n  tag_76\n    /* \"#utility.yul\":856:860   */\n  dup3\n    /* \"#utility.yul\":834:861   */\n  tag_25\n  jump\t// in\ntag_76:\n    /* \"#utility.yul\":826:832   */\n  dup2\n    /* \"#utility.yul\":822:862   */\n  add\n    /* \"#utility.yul\":964:970   */\n  dup2\n    /* \"#utility.yul\":952:962   */\n  dup2\n    /* \"#utility.yul\":949:971   */\n  lt\n    /* \"#utility.yul\":928:946   */\n  0xffffffffffffffff\n    /* \"#utility.yul\":916:926   */\n  dup3\n    /* \"#utility.yul\":913:947   */\n  gt\n    /* \"#utility.yul\":910:972   */\n  or\n    /* \"#utility.yul\":907:995   */\n  iszero\n  tag_77\n  jumpi\n    /* \"#utility.yul\":975:993   */\n  tag_78\n  tag_26\n  jump\t// in\ntag_78:\n    /* \"#utility.yul\":907:995   */\ntag_77:\n    /* \"#utility.yul\":1015:1025   */\n  dup1\n    /* \"#utility.yul\":1011:1013   */\n  0x40\n    /* \"#utility.yul\":1004:1026   */\n  mstore\n    /* \"#utility.yul\":794:1032   */\n  pop\n    /* \"#utility.yul\":751:1032   */\n  pop\n  pop\n  jump\t// out\n    /* \"#utility.yul\":1038:1167   */\ntag_28:\n    /* \"#utility.yul\":1072:1078   */\n  0x00\n    /* \"#utility.yul\":1099:1119   */\n  tag_80\n  tag_21\n  jump\t// in\ntag_80:\n    /* \"#utility.yul\":1089:1119   */\n  swap1\n  pop\n    /* \"#utility.yul\":1128:1161   */\n  tag_81\n    /* \"#utility.yul\":1156:1160   */\n  dup3\n    /* \"#utility.yul\":1148:1154   */\n  dup3\n    /* \"#utility.yul\":1128:1161   */\n  tag_27\n  jump\t// in\ntag_81:\n    /* \"#utility.yul\":1038:1167   */\n  swap2\n  swap1\n  pop\n  jump\t// out\n    /* \"#utility.yul\":1173:1494   */\ntag_29:\n    /* \"#utility.yul\":1260:1264   */\n  0x00\n    /* \"#utility.yul\":1350:1368   */\n  0xffffffffffffffff\n    /* \"#utility.yul\":1342:1348   */\n  dup3\n    /* \"#utility.yul\":1339:1369   */\n  gt\n    /* \"#utility.yul\":1336:1392   */\n  iszero\n  tag_83\n  jumpi\n    /* \"#utility.yul\":1372:1390   */\n  tag_84\n  tag_26\n  jump\t// in\ntag_84:\n    /* \"#utility.yul\":1336:1392   */\ntag_83:\n    /* \"#utility.yul\":1422:1426   */\n  0x20\n    /* \"#utility.yul\":1414:1420   */\n  dup3\n    /* \"#utility.yul\":1410:1427   */\n  mul\n    /* \"#utility.yul\":1402:1427   */\n  swap1\n  pop\n    /* \"#utility.yul\":1482:1486   */\n  0x20\n    /* \"#utility.yul\":1476:1480   */\n  dup2\n    /* \"#utility.yul\":1472:1487   */\n  add\n    /* \"#utility.yul\":1464:1487   */\n  swap1\n  pop\n    /* \"#utility.yul\":1173:1494   */\n  swap2\n  swap1\n  pop\n  jump\t// out\n    /* \"#utility.yul\":1500:1617   */\ntag_30:\n    /* \"#utility.yul\":1609:1610   */\n  0x00\n    /* \"#utility.yul\":1606:1607   */\n  dup1\n    /* \"#utility.yul\":1599:1611   */\n  revert\n    /* \"#utility.yul\":1623:1740   */\ntag_31:\n    /* \"#utility.yul\":1732:1733   */\n  0x00\n    /* \"#utility.yul\":1729:1730   */\n  dup1\n    /* \"#utility.yul\":1722:1734   */\n  revert\n    /* \"#utility.yul\":1746:2054   */\ntag_32:\n    /* \"#utility.yul\":1808:1812   */\n  0x00\n    /* \"#utility.yul\":1898:1916   */\n  0xffffffffffffffff\n    /* \"#utility.yul\":1890:1896   */\n  dup3\n    /* \"#utility.yul\":1887:1917   */\n  gt\n    /* \"#utility.yul\":1884:1940   */\n  iszero\n  tag_88\n  jumpi\n    /* \"#utility.yul\":1920:1938   */\n  tag_89\n  tag_26\n  jump\t// in\ntag_89:\n    /* \"#utility.yul\":1884:1940   */\ntag_88:\n    /* \"#utility.yul\":1958:1987   */\n  tag_90\n    /* \"#utility.yul\":1980:1986   */\n  dup3\n    /* \"#utility.yul\":1958:1987   */\n  tag_25\n  jump\t// in\ntag_90:\n    /* \"#utility.yul\":1950:1987   */\n  swap1\n  pop\n    /* \"#utility.yul\":2042:2046   */\n  0x20\n    /* \"#utility.yul\":2036:2040   */\n  dup2\n    /* \"#utility.yul\":2032:2047   */\n  add\n    /* \"#utility.yul\":2024:2047   */\n  swap1\n  pop\n    /* \"#utility.yul\":1746:2054   */\n  swap2\n  swap1\n  pop\n  jump\t// out\n    /* \"#utility.yul\":2060:2306   */\ntag_33:\n    /* \"#utility.yul\":2141:2142   */\n  0x00\n    /* \"#utility.yul\":2151:2264   */\ntag_92:\n    /* \"#utility.yul\":2165:2171   */\n  dup4\n    /* \"#utility.yul\":2162:2163   */\n  dup2\n    /* \"#utility.yul\":2159:2172   */\n  lt\n    /* \"#utility.yul\":2151:2264   */\n  iszero\n  tag_94\n  jumpi\n    /* \"#utility.yul\":2250:2251   */\n  dup1\n    /* \"#utility.yul\":2245:2248   */\n  dup3\n    /* \"#utility.yul\":2241:2252   */\n  add\n    /* \"#utility.yul\":2235:2253   */\n  mload\n    /* \"#utility.yul\":2231:2232   */\n  dup2\n    /* \"#utility.yul\":2226:2229   */\n  dup5\n    /* \"#utility.yul\":2222:2233   */\n  add\n    /* \"#utility.yul\":2215:2254   */\n  mstore\n    /* \"#utility.yul\":2187:2189   */\n  0x20\n    /* \"#utility.yul\":2184:2185   */\n  dup2\n    /* \"#utility.yul\":2180:2190   */\n  add\n    /* \"#utility.yul\":2175:2190   */\n  swap1\n  pop\n    /* \"#utility.yul\":2151:2264   */\n  jump(tag_92)\ntag_94:\n    /* \"#utility.yul\":2298:2299   */\n  0x00\n    /* \"#utility.yul\":2289:2295   */\n  dup5\n    /* \"#utility.yul\":2284:2287   */\n  dup5\n    /* \"#utility.yul\":2280:2296   */\n  add\n    /* \"#utility.yul\":2273:2300   */\n  mstore\n    /* \"#utility.yul\":2122:2306   */\n  pop\n    /* \"#utility.yul\":2060:2306   */\n  pop\n  pop\n  pop\n  jump\t// out\n    /* \"#utility.yul\":2312:2746   */\ntag_34:\n    /* \"#utility.yul\":2401:2406   */\n  0x00\n    /* \"#utility.yul\":2426:2492   */\n  tag_96\n    /* \"#utility.yul\":2442:2491   */\n  tag_97\n    /* \"#utility.yul\":2484:2490   */\n  dup5\n    /* \"#utility.yul\":2442:2491   */\n  tag_32\n  jump\t// in\ntag_97:\n    /* \"#utility.yul\":2426:2492   */\n  tag_28\n  jump\t// in\ntag_96:\n    /* \"#utility.yul\":2417:2492   */\n  swap1\n  pop\n    /* \"#utility.yul\":2515:2521   */\n  dup3\n    /* \"#utility.yul\":2508:2513   */\n  dup2\n    /* \"#utility.yul\":2501:2522   */\n  mstore\n    /* \"#utility.yul\":2553:2557   */\n  0x20\n    /* \"#utility.yul\":2546:2551   */\n  dup2\n    /* \"#utility.yul\":2542:2558   */\n  add\n    /* \"#utility.yul\":2591:2594   */\n  dup5\n    /* \"#utility.yul\":2582:2588   */\n  dup5\n    /* \"#utility.yul\":2577:2580   */\n  dup5\n    /* \"#utility.yul\":2573:2589   */\n  add\n    /* \"#utility.yul\":2570:2595   */\n  gt\n    /* \"#utility.yul\":2567:2679   */\n  iszero\n  tag_98\n  jumpi\n    /* \"#utility.yul\":2598:2677   */\n  tag_99\n  tag_31\n  jump\t// in\ntag_99:\n    /* \"#utility.yul\":2567:2679   */\ntag_98:\n    /* \"#utility.yul\":2688:2740   */\n  tag_100\n    /* \"#utility.yul\":2733:2739   */\n  dup5\n    /* \"#utility.yul\":2728:2731   */\n  dup3\n    /* \"#utility.yul\":2723:2726   */\n  dup6\n    /* \"#utility.yul\":2688:2740   */\n  tag_33\n  jump\t// in\ntag_100:\n    /* \"#utility.yul\":2407:2746   */\n  pop\n    /* \"#utility.yul\":2312:2746   */\n  swap4\n  swap3\n  pop\n  pop\n  pop\n  jump\t// out\n    /* \"#utility.yul\":2766:3121   */\ntag_35:\n    /* \"#utility.yul\":2833:2838   */\n  0x00\n    /* \"#utility.yul\":2882:2885   */\n  dup3\n    /* \"#utility.yul\":2875:2879   */\n  0x1f\n    /* \"#utility.yul\":2867:2873   */\n  dup4\n    /* \"#utility.yul\":2863:2880   */\n  add\n    /* \"#utility.yul\":2859:2886   */\n  slt\n    /* \"#utility.yul\":2849:2971   */\n  tag_102\n  jumpi\n    /* \"#utility.yul\":2890:2969   */\n  tag_103\n  tag_24\n  jump\t// in\ntag_103:\n    /* \"#utility.yul\":2849:2971   */\ntag_102:\n    /* \"#utility.yul\":3000:3006   */\n  dup2\n    /* \"#utility.yul\":2994:3007   */\n  mload\n    /* \"#utility.yul\":3025:3115   */\n  tag_104\n    /* \"#utility.yul\":3111:3114   */\n  dup5\n    /* \"#utility.yul\":3103:3109   */\n  dup3\n    /* \"#utility.yul\":3096:3100   */\n  0x20\n    /* \"#utility.yul\":3088:3094   */\n  dup7\n    /* \"#utility.yul\":3084:3101   */\n  add\n    /* \"#utility.yul\":3025:3115   */\n  tag_34\n  jump\t// in\ntag_104:\n    /* \"#utility.yul\":3016:3115   */\n  swap2\n  pop\n    /* \"#utility.yul\":2839:3121   */\n  pop\n    /* \"#utility.yul\":2766:3121   */\n  swap3\n  swap2\n  pop\n  pop\n  jump\t// out\n    /* \"#utility.yul\":3143:4103   */\ntag_36:\n    /* \"#utility.yul\":3260:3265   */\n  0x00\n    /* \"#utility.yul\":3285:3376   */\n  tag_106\n    /* \"#utility.yul\":3301:3375   */\n  tag_107\n    /* \"#utility.yul\":3368:3374   */\n  dup5\n    /* \"#utility.yul\":3301:3375   */\n  tag_29\n  jump\t// in\ntag_107:\n    /* \"#utility.yul\":3285:3376   */\n  tag_28\n  jump\t// in\ntag_106:\n    /* \"#utility.yul\":3276:3376   */\n  swap1\n  pop\n    /* \"#utility.yul\":3396:3401   */\n  dup1\n    /* \"#utility.yul\":3425:3431   */\n  dup4\n    /* \"#utility.yul\":3418:3423   */\n  dup3\n    /* \"#utility.yul\":3411:3432   */\n  mstore\n    /* \"#utility.yul\":3459:3463   */\n  0x20\n    /* \"#utility.yul\":3452:3457   */\n  dup3\n    /* \"#utility.yul\":3448:3464   */\n  add\n    /* \"#utility.yul\":3441:3464   */\n  swap1\n  pop\n    /* \"#utility.yul\":3512:3516   */\n  0x20\n    /* \"#utility.yul\":3504:3510   */\n  dup5\n    /* \"#utility.yul\":3500:3517   */\n  mul\n    /* \"#utility.yul\":3492:3498   */\n  dup4\n    /* \"#utility.yul\":3488:3518   */\n  add\n    /* \"#utility.yul\":3541:3544   */\n  dup6\n    /* \"#utility.yul\":3533:3539   */\n  dup2\n    /* \"#utility.yul\":3530:3545   */\n  gt\n    /* \"#utility.yul\":3527:3649   */\n  iszero\n  tag_108\n  jumpi\n    /* \"#utility.yul\":3560:3639   */\n  tag_109\n  tag_30\n  jump\t// in\ntag_109:\n    /* \"#utility.yul\":3527:3649   */\ntag_108:\n    /* \"#utility.yul\":3675:3681   */\n  dup4\n    /* \"#utility.yul\":3658:4097   */\ntag_110:\n    /* \"#utility.yul\":3692:3698   */\n  dup2\n    /* \"#utility.yul\":3687:3690   */\n  dup2\n    /* \"#utility.yul\":3684:3699   */\n  lt\n    /* \"#utility.yul\":3658:4097   */\n  iszero\n  tag_112\n  jumpi\n    /* \"#utility.yul\":3774:3777   */\n  dup1\n    /* \"#utility.yul\":3768:3778   */\n  mload\n    /* \"#utility.yul\":3810:3828   */\n  0xffffffffffffffff\n    /* \"#utility.yul\":3797:3808   */\n  dup2\n    /* \"#utility.yul\":3794:3829   */\n  gt\n    /* \"#utility.yul\":3791:3913   */\n  iszero\n  tag_113\n  jumpi\n    /* \"#utility.yul\":3832:3911   */\n  tag_114\n  tag_24\n  jump\t// in\ntag_114:\n    /* \"#utility.yul\":3791:3913   */\ntag_113:\n    /* \"#utility.yul\":3956:3967   */\n  dup1\n    /* \"#utility.yul\":3948:3954   */\n  dup7\n    /* \"#utility.yul\":3944:3968   */\n  add\n    /* \"#utility.yul\":3994:4052   */\n  tag_115\n    /* \"#utility.yul\":4048:4051   */\n  dup10\n    /* \"#utility.yul\":4036:4046   */\n  dup3\n    /* \"#utility.yul\":3994:4052   */\n  tag_35\n  jump\t// in\ntag_115:\n    /* \"#utility.yul\":3989:3992   */\n  dup6\n    /* \"#utility.yul\":3982:4053   */\n  mstore\n    /* \"#utility.yul\":4082:4086   */\n  0x20\n    /* \"#utility.yul\":4077:4080   */\n  dup6\n    /* \"#utility.yul\":4073:4087   */\n  add\n    /* \"#utility.yul\":4066:4087   */\n  swap5\n  pop\n    /* \"#utility.yul\":3734:4097   */\n  pop\n  pop\n    /* \"#utility.yul\":3718:3722   */\n  0x20\n    /* \"#utility.yul\":3713:3716   */\n  dup2\n    /* \"#utility.yul\":3709:3723   */\n  add\n    /* \"#utility.yul\":3702:3723   */\n  swap1\n  pop\n    /* \"#utility.yul\":3658:4097   */\n  jump(tag_110)\ntag_112:\n    /* \"#utility.yul\":3662:3683   */\n  pop\n    /* \"#utility.yul\":3266:4103   */\n  pop\n  pop\n    /* \"#utility.yul\":3143:4103   */\n  swap4\n  swap3\n  pop\n  pop\n  pop\n  jump\t// out\n    /* \"#utility.yul\":4125:4530   */\ntag_37:\n    /* \"#utility.yul\":4217:4222   */\n  0x00\n    /* \"#utility.yul\":4266:4269   */\n  dup3\n    /* \"#utility.yul\":4259:4263   */\n  0x1f\n    /* \"#utility.yul\":4251:4257   */\n  dup4\n    /* \"#utility.yul\":4247:4264   */\n  add\n    /* \"#utility.yul\":4243:4270   */\n  slt\n    /* \"#utility.yul\":4233:4355   */\n  tag_117\n  jumpi\n    /* \"#utility.yul\":4274:4353   */\n  tag_118\n  tag_24\n  jump\t// in\ntag_118:\n    /* \"#utility.yul\":4233:4355   */\ntag_117:\n    /* \"#utility.yul\":4384:4390   */\n  dup2\n    /* \"#utility.yul\":4378:4391   */\n  mload\n    /* \"#utility.yul\":4409:4524   */\n  tag_119\n    /* \"#utility.yul\":4520:4523   */\n  dup5\n    /* \"#utility.yul\":4512:4518   */\n  dup3\n    /* \"#utility.yul\":4505:4509   */\n  0x20\n    /* \"#utility.yul\":4497:4503   */\n  dup7\n    /* \"#utility.yul\":4493:4510   */\n  add\n    /* \"#utility.yul\":4409:4524   */\n  tag_36\n  jump\t// in\ntag_119:\n    /* \"#utility.yul\":4400:4524   */\n  swap2\n  pop\n    /* \"#utility.yul\":4223:4530   */\n  pop\n    /* \"#utility.yul\":4125:4530   */\n  swap3\n  swap2\n  pop\n  pop\n  jump\t// out\n    /* \"#utility.yul\":4536:4856   */\ntag_38:\n    /* \"#utility.yul\":4622:4626   */\n  0x00\n    /* \"#utility.yul\":4712:4730   */\n  0xffffffffffffffff\n    /* \"#utility.yul\":4704:4710   */\n  dup3\n    /* \"#utility.yul\":4701:4731   */\n  gt\n    /* \"#utility.yul\":4698:4754   */\n  iszero\n  tag_121\n  jumpi\n    /* \"#utility.yul\":4734:4752   */\n  tag_122\n  tag_26\n  jump\t// in\ntag_122:\n    /* \"#utility.yul\":4698:4754   */\ntag_121:\n    /* \"#utility.yul\":4784:4788   */\n  0x20\n    /* \"#utility.yul\":4776:4782   */\n  dup3\n    /* \"#utility.yul\":4772:4789   */\n  mul\n    /* \"#utility.yul\":4764:4789   */\n  swap1\n  pop\n    /* \"#utility.yul\":4844:4848   */\n  0x20\n    /* \"#utility.yul\":4838:4842   */\n  dup2\n    /* \"#utility.yul\":4834:4849   */\n  add\n    /* \"#utility.yul\":4826:4849   */\n  swap1\n  pop\n    /* \"#utility.yul\":4536:4856   */\n  swap2\n  swap1\n  pop\n  jump\t// out\n    /* \"#utility.yul\":4862:5169   */\ntag_39:\n    /* \"#utility.yul\":4923:4927   */\n  0x00\n    /* \"#utility.yul\":5013:5031   */\n  0xffffffffffffffff\n    /* \"#utility.yul\":5005:5011   */\n  dup3\n    /* \"#utility.yul\":5002:5032   */\n  gt\n    /* \"#utility.yul\":4999:5055   */\n  iszero\n  tag_124\n  jumpi\n    /* \"#utility.yul\":5035:5053   */\n  tag_125\n  tag_26\n  jump\t// in\ntag_125:\n    /* \"#utility.yul\":4999:5055   */\ntag_124:\n    /* \"#utility.yul\":5073:5102   */\n  tag_126\n    /* \"#utility.yul\":5095:5101   */\n  dup3\n    /* \"#utility.yul\":5073:5102   */\n  tag_25\n  jump\t// in\ntag_126:\n    /* \"#utility.yul\":5065:5102   */\n  swap1\n  pop\n    /* \"#utility.yul\":5157:5161   */\n  0x20\n    /* \"#utility.yul\":5151:5155   */\n  dup2\n    /* \"#utility.yul\":5147:5162   */\n  add\n    /* \"#utility.yul\":5139:5162   */\n  swap1\n  pop\n    /* \"#utility.yul\":4862:5169   */\n  swap2\n  swap1\n  pop\n  jump\t// out\n    /* \"#utility.yul\":5175:5607   */\ntag_40:\n    /* \"#utility.yul\":5263:5268   */\n  0x00\n    /* \"#utility.yul\":5288:5353   */\n  tag_128\n    /* \"#utility.yul\":5304:5352   */\n  tag_129\n    /* \"#utility.yul\":5345:5351   */\n  dup5\n    /* \"#utility.yul\":5304:5352   */\n  tag_39\n  jump\t// in\ntag_129:\n    /* \"#utility.yul\":5288:5353   */\n  tag_28\n  jump\t// in\ntag_128:\n    /* \"#utility.yul\":5279:5353   */\n  swap1\n  pop\n    /* \"#utility.yul\":5376:5382   */\n  dup3\n    /* \"#utility.yul\":5369:5374   */\n  dup2\n    /* \"#utility.yul\":5362:5383   */\n  mstore\n    /* \"#utility.yul\":5414:5418   */\n  0x20\n    /* \"#utility.yul\":5407:5412   */\n  dup2\n    /* \"#utility.yul\":5403:5419   */\n  add\n    /* \"#utility.yul\":5452:5455   */\n  dup5\n    /* \"#utility.yul\":5443:5449   */\n  dup5\n    /* \"#utility.yul\":5438:5441   */\n  dup5\n    /* \"#utility.yul\":5434:5450   */\n  add\n    /* \"#utility.yul\":5431:5456   */\n  gt\n    /* \"#utility.yul\":5428:5540   */\n  iszero\n  tag_130\n  jumpi\n    /* \"#utility.yul\":5459:5538   */\n  tag_131\n  tag_31\n  jump\t// in\ntag_131:\n    /* \"#utility.yul\":5428:5540   */\ntag_130:\n    /* \"#utility.yul\":5549:5601   */\n  tag_132\n    /* \"#utility.yul\":5594:5600   */\n  dup5\n    /* \"#utility.yul\":5589:5592   */\n  dup3\n    /* \"#utility.yul\":5584:5587   */\n  dup6\n    /* \"#utility.yul\":5549:5601   */\n  tag_33\n  jump\t// in\ntag_132:\n    /* \"#utility.yul\":5269:5607   */\n  pop\n    /* \"#utility.yul\":5175:5607   */\n  swap4\n  swap3\n  pop\n  pop\n  pop\n  jump\t// out\n    /* \"#utility.yul\":5626:5979   */\ntag_41:\n    /* \"#utility.yul\":5692:5697   */\n  0x00\n    /* \"#utility.yul\":5741:5744   */\n  dup3\n    /* \"#utility.yul\":5734:5738   */\n  0x1f\n    /* \"#utility.yul\":5726:5732   */\n  dup4\n    /* \"#utility.yul\":5722:5739   */\n  add\n    /* \"#utility.yul\":5718:5745   */\n  slt\n    /* \"#utility.yul\":5708:5830   */\n  tag_134\n  jumpi\n    /* \"#utility.yul\":5749:5828   */\n  tag_135\n  tag_24\n  jump\t// in\ntag_135:\n    /* \"#utility.yul\":5708:5830   */\ntag_134:\n    /* \"#utility.yul\":5859:5865   */\n  dup2\n    /* \"#utility.yul\":5853:5866   */\n  mload\n    /* \"#utility.yul\":5884:5973   */\n  tag_136\n    /* \"#utility.yul\":5969:5972   */\n  dup5\n    /* \"#utility.yul\":5961:5967   */\n  dup3\n    /* \"#utility.yul\":5954:5958   */\n  0x20\n    /* \"#utility.yul\":5946:5952   */\n  dup7\n    /* \"#utility.yul\":5942:5959   */\n  add\n    /* \"#utility.yul\":5884:5973   */\n  tag_40\n  jump\t// in\ntag_136:\n    /* \"#utility.yul\":5875:5973   */\n  swap2\n  pop\n    /* \"#utility.yul\":5698:5979   */\n  pop\n    /* \"#utility.yul\":5626:5979   */\n  swap3\n  swap2\n  pop\n  pop\n  jump\t// out\n    /* \"#utility.yul\":6000:6957   */\ntag_42:\n    /* \"#utility.yul\":6116:6121   */\n  0x00\n    /* \"#utility.yul\":6141:6231   */\n  tag_138\n    /* \"#utility.yul\":6157:6230   */\n  tag_139\n    /* \"#utility.yul\":6223:6229   */\n  dup5\n    /* \"#utility.yul\":6157:6230   */\n  tag_38\n  jump\t// in\ntag_139:\n    /* \"#utility.yul\":6141:6231   */\n  tag_28\n  jump\t// in\ntag_138:\n    /* \"#utility.yul\":6132:6231   */\n  swap1\n  pop\n    /* \"#utility.yul\":6251:6256   */\n  dup1\n    /* \"#utility.yul\":6280:6286   */\n  dup4\n    /* \"#utility.yul\":6273:6278   */\n  dup3\n    /* \"#utility.yul\":6266:6287   */\n  mstore\n    /* \"#utility.yul\":6314:6318   */\n  0x20\n    /* \"#utility.yul\":6307:6312   */\n  dup3\n    /* \"#utility.yul\":6303:6319   */\n  add\n    /* \"#utility.yul\":6296:6319   */\n  swap1\n  pop\n    /* \"#utility.yul\":6367:6371   */\n  0x20\n    /* \"#utility.yul\":6359:6365   */\n  dup5\n    /* \"#utility.yul\":6355:6372   */\n  mul\n    /* \"#utility.yul\":6347:6353   */\n  dup4\n    /* \"#utility.yul\":6343:6373   */\n  add\n    /* \"#utility.yul\":6396:6399   */\n  dup6\n    /* \"#utility.yul\":6388:6394   */\n  dup2\n    /* \"#utility.yul\":6385:6400   */\n  gt\n    /* \"#utility.yul\":6382:6504   */\n  iszero\n  tag_140\n  jumpi\n    /* \"#utility.yul\":6415:6494   */\n  tag_141\n  tag_30\n  jump\t// in\ntag_141:\n    /* \"#utility.yul\":6382:6504   */\ntag_140:\n    /* \"#utility.yul\":6530:6536   */\n  dup4\n    /* \"#utility.yul\":6513:6951   */\ntag_142:\n    /* \"#utility.yul\":6547:6553   */\n  dup2\n    /* \"#utility.yul\":6542:6545   */\n  dup2\n    /* \"#utility.yul\":6539:6554   */\n  lt\n    /* \"#utility.yul\":6513:6951   */\n  iszero\n  tag_144\n  jumpi\n    /* \"#utility.yul\":6629:6632   */\n  dup1\n    /* \"#utility.yul\":6623:6633   */\n  mload\n    /* \"#utility.yul\":6665:6683   */\n  0xffffffffffffffff\n    /* \"#utility.yul\":6652:6663   */\n  dup2\n    /* \"#utility.yul\":6649:6684   */\n  gt\n    /* \"#utility.yul\":6646:6768   */\n  iszero\n  tag_145\n  jumpi\n    /* \"#utility.yul\":6687:6766   */\n  tag_146\n  tag_24\n  jump\t// in\ntag_146:\n    /* \"#utility.yul\":6646:6768   */\ntag_145:\n    /* \"#utility.yul\":6811:6822   */\n  dup1\n    /* \"#utility.yul\":6803:6809   */\n  dup7\n    /* \"#utility.yul\":6799:6823   */\n  add\n    /* \"#utility.yul\":6849:6906   */\n  tag_147\n    /* \"#utility.yul\":6902:6905   */\n  dup10\n    /* \"#utility.yul\":6890:6900   */\n  dup3\n    /* \"#utility.yul\":6849:6906   */\n  tag_41\n  jump\t// in\ntag_147:\n    /* \"#utility.yul\":6844:6847   */\n  dup6\n    /* \"#utility.yul\":6837:6907   */\n  mstore\n    /* \"#utility.yul\":6936:6940   */\n  0x20\n    /* \"#utility.yul\":6931:6934   */\n  dup6\n    /* \"#utility.yul\":6927:6941   */\n  add\n    /* \"#utility.yul\":6920:6941   */\n  swap5\n  pop\n    /* \"#utility.yul\":6589:6951   */\n  pop\n  pop\n    /* \"#utility.yul\":6573:6577   */\n  0x20\n    /* \"#utility.yul\":6568:6571   */\n  dup2\n    /* \"#utility.yul\":6564:6578   */\n  add\n    /* \"#utility.yul\":6557:6578   */\n  swap1\n  pop\n    /* \"#utility.yul\":6513:6951   */\n  jump(tag_142)\ntag_144:\n    /* \"#utility.yul\":6517:6538   */\n  pop\n    /* \"#utility.yul\":6122:6957   */\n  pop\n  pop\n    /* \"#utility.yul\":6000:6957   */\n  swap4\n  swap3\n  pop\n  pop\n  pop\n  jump\t// out\n    /* \"#utility.yul\":6978:7381   */\ntag_43:\n    /* \"#utility.yul\":7069:7074   */\n  0x00\n    /* \"#utility.yul\":7118:7121   */\n  dup3\n    /* \"#utility.yul\":7111:7115   */\n  0x1f\n    /* \"#utility.yul\":7103:7109   */\n  dup4\n    /* \"#utility.yul\":7099:7116   */\n  add\n    /* \"#utility.yul\":7095:7122   */\n  slt\n    /* \"#utility.yul\":7085:7207   */\n  tag_149\n  jumpi\n    /* \"#utility.yul\":7126:7205   */\n  tag_150\n  tag_24\n  jump\t// in\ntag_150:\n    /* \"#utility.yul\":7085:7207   */\ntag_149:\n    /* \"#utility.yul\":7236:7242   */\n  dup2\n    /* \"#utility.yul\":7230:7243   */\n  mload\n    /* \"#utility.yul\":7261:7375   */\n  tag_151\n    /* \"#utility.yul\":7371:7374   */\n  dup5\n    /* \"#utility.yul\":7363:7369   */\n  dup3\n    /* \"#utility.yul\":7356:7360   */\n  0x20\n    /* \"#utility.yul\":7348:7354   */\n  dup7\n    /* \"#utility.yul\":7344:7361   */\n  add\n    /* \"#utility.yul\":7261:7375   */\n  tag_42\n  jump\t// in\ntag_151:\n    /* \"#utility.yul\":7252:7375   */\n  swap2\n  pop\n    /* \"#utility.yul\":7075:7381   */\n  pop\n    /* \"#utility.yul\":6978:7381   */\n  swap3\n  swap2\n  pop\n  pop\n  jump\t// out\n    /* \"#utility.yul\":7387:8338   */\ntag_3:\n    /* \"#utility.yul\":7535:7541   */\n  0x00\n    /* \"#utility.yul\":7543:7549   */\n  dup1\n    /* \"#utility.yul\":7592:7594   */\n  0x40\n    /* \"#utility.yul\":7580:7589   */\n  dup4\n    /* \"#utility.yul\":7571:7578   */\n  dup6\n    /* \"#utility.yul\":7567:7590   */\n  sub\n    /* \"#utility.yul\":7563:7595   */\n  slt\n    /* \"#utility.yul\":7560:7679   */\n  iszero\n  tag_153\n  jumpi\n    /* \"#utility.yul\":7598:7677   */\n  tag_154\n  tag_22\n  jump\t// in\ntag_154:\n    /* \"#utility.yul\":7560:7679   */\ntag_153:\n    /* \"#utility.yul\":7739:7740   */\n  0x00\n    /* \"#utility.yul\":7728:7737   */\n  dup4\n    /* \"#utility.yul\":7724:7741   */\n  add\n    /* \"#utility.yul\":7718:7742   */\n  mload\n    /* \"#utility.yul\":7769:7787   */\n  0xffffffffffffffff\n    /* \"#utility.yul\":7761:7767   */\n  dup2\n    /* \"#utility.yul\":7758:7788   */\n  gt\n    /* \"#utility.yul\":7755:7872   */\n  iszero\n  tag_155\n  jumpi\n    /* \"#utility.yul\":7791:7870   */\n  tag_156\n  tag_23\n  jump\t// in\ntag_156:\n    /* \"#utility.yul\":7755:7872   */\ntag_155:\n    /* \"#utility.yul\":7896:7995   */\n  tag_157\n    /* \"#utility.yul\":7987:7994   */\n  dup6\n    /* \"#utility.yul\":7978:7984   */\n  dup3\n    /* \"#utility.yul\":7967:7976   */\n  dup7\n    /* \"#utility.yul\":7963:7985   */\n  add\n    /* \"#utility.yul\":7896:7995   */\n  tag_37\n  jump\t// in\ntag_157:\n    /* \"#utility.yul\":7886:7995   */\n  swap3\n  pop\n    /* \"#utility.yul\":7689:8005   */\n  pop\n    /* \"#utility.yul\":8065:8067   */\n  0x20\n    /* \"#utility.yul\":8054:8063   */\n  dup4\n    /* \"#utility.yul\":8050:8068   */\n  add\n    /* \"#utility.yul\":8044:8069   */\n  mload\n    /* \"#utility.yul\":8096:8114   */\n  0xffffffffffffffff\n    /* \"#utility.yul\":8088:8094   */\n  dup2\n    /* \"#utility.yul\":8085:8115   */\n  gt\n    /* \"#utility.yul\":8082:8199   */\n  iszero\n  tag_158\n  jumpi\n    /* \"#utility.yul\":8118:8197   */\n  tag_159\n  tag_23\n  jump\t// in\ntag_159:\n    /* \"#utility.yul\":8082:8199   */\ntag_158:\n    /* \"#utility.yul\":8223:8321   */\n  tag_160\n    /* \"#utility.yul\":8313:8320   */\n  dup6\n    /* \"#utility.yul\":8304:8310   */\n  dup3\n    /* \"#utility.yul\":8293:8302   */\n  dup7\n    /* \"#utility.yul\":8289:8311   */\n  add\n    /* \"#utility.yul\":8223:8321   */\n  tag_43\n  jump\t// in\ntag_160:\n    /* \"#utility.yul\":8213:8321   */\n  swap2\n  pop\n    /* \"#utility.yul\":8015:8331   */\n  pop\n    /* \"#utility.yul\":7387:8338   */\n  swap3\n  pop\n  swap3\n  swap1\n  pop\n  jump\t// out\n    /* \"#utility.yul\":8344:8524   */\ntag_11:\n    /* \"#utility.yul\":8392:8469   */\n  0x4e487b7100000000000000000000000000000000000000000000000000000000\n    /* \"#utility.yul\":8389:8390   */\n  0x00\n    /* \"#utility.yul\":8382:8470   */\n  mstore\n    /* \"#utility.yul\":8489:8493   */\n  0x32\n    /* \"#utility.yul\":8486:8487   */\n  0x04\n    /* \"#utility.yul\":8479:8494   */\n  mstore\n    /* \"#utility.yul\":8513:8517   */\n  0x24\n    /* \"#utility.yul\":8510:8511   */\n  0x00\n    /* \"#utility.yul\":8503:8518   */\n  revert\n    /* \"#utility.yul\":8530:8629   */\ntag_44:\n    /* \"#utility.yul\":8582:8588   */\n  0x00\n    /* \"#utility.yul\":8616:8621   */\n  dup2\n    /* \"#utility.yul\":8610:8622   */\n  mload\n    /* \"#utility.yul\":8600:8622   */\n  swap1\n  pop\n    /* \"#utility.yul\":8530:8629   */\n  swap2\n  swap1\n  pop\n  jump\t// out\n    /* \"#utility.yul\":8635:8783   */\ntag_45:\n    /* \"#utility.yul\":8737:8748   */\n  0x00\n    /* \"#utility.yul\":8774:8777   */\n  dup2\n    /* \"#utility.yul\":8759:8777   */\n  swap1\n  pop\n    /* \"#utility.yul\":8635:8783   */\n  swap3\n  swap2\n  pop\n  pop\n  jump\t// out\n    /* \"#utility.yul\":8789:9179   */\ntag_46:\n    /* \"#utility.yul\":8895:8898   */\n  0x00\n    /* \"#utility.yul\":8923:8962   */\n  tag_165\n    /* \"#utility.yul\":8956:8961   */\n  dup3\n    /* \"#utility.yul\":8923:8962   */\n  tag_44\n  jump\t// in\ntag_165:\n    /* \"#utility.yul\":8978:9067   */\n  tag_166\n    /* \"#utility.yul\":9060:9066   */\n  dup2\n    /* \"#utility.yul\":9055:9058   */\n  dup6\n    /* \"#utility.yul\":8978:9067   */\n  tag_45\n  jump\t// in\ntag_166:\n    /* \"#utility.yul\":8971:9067   */\n  swap4\n  pop\n    /* \"#utility.yul\":9076:9141   */\n  tag_167\n    /* \"#utility.yul\":9134:9140   */\n  dup2\n    /* \"#utility.yul\":9129:9132   */\n  dup6\n    /* \"#utility.yul\":9122:9126   */\n  0x20\n    /* \"#utility.yul\":9115:9120   */\n  dup7\n    /* \"#utility.yul\":9111:9127   */\n  add\n    /* \"#utility.yul\":9076:9141   */\n  tag_33\n  jump\t// in\ntag_167:\n    /* \"#utility.yul\":9166:9172   */\n  dup1\n    /* \"#utility.yul\":9161:9164   */\n  dup5\n    /* \"#utility.yul\":9157:9173   */\n  add\n    /* \"#utility.yul\":9150:9173   */\n  swap2\n  pop\n    /* \"#utility.yul\":8899:9179   */\n  pop\n    /* \"#utility.yul\":8789:9179   */\n  swap3\n  swap2\n  pop\n  pop\n  jump\t// out\n    /* \"#utility.yul\":9185:9460   */\ntag_15:\n    /* \"#utility.yul\":9317:9320   */\n  0x00\n    /* \"#utility.yul\":9339:9434   */\n  tag_169\n    /* \"#utility.yul\":9430:9433   */\n  dup3\n    /* \"#utility.yul\":9421:9427   */\n  dup5\n    /* \"#utility.yul\":9339:9434   */\n  tag_46\n  jump\t// in\ntag_169:\n    /* \"#utility.yul\":9332:9434   */\n  swap2\n  pop\n    /* \"#utility.yul\":9451:9454   */\n  dup2\n    /* \"#utility.yul\":9444:9454   */\n  swap1\n  pop\n    /* \"#utility.yul\":9185:9460   */\n  swap3\n  swap2\n  pop\n  pop\n  jump\t// out\n    /* \"#utility.yul\":9466:9564   */\ntag_47:\n    /* \"#utility.yul\":9517:9523   */\n  0x00\n    /* \"#utility.yul\":9551:9556   */\n  dup2\n    /* \"#utility.yul\":9545:9557   */\n  mload\n    /* \"#utility.yul\":9535:9557   */\n  swap1\n  pop\n    /* \"#utility.yul\":9466:9564   */\n  swap2\n  swap1\n  pop\n  jump\t// out\n    /* \"#utility.yul\":9570:9750   */\ntag_48:\n    /* \"#utility.yul\":9618:9695   */\n  0x4e487b7100000000000000000000000000000000000000000000000000000000\n    /* \"#utility.yul\":9615:9616   */\n  0x00\n    /* \"#utility.yul\":9608:9696   */\n  mstore\n    /* \"#utility.yul\":9715:9719   */\n  0x22\n    /* \"#utility.yul\":9712:9713   */\n  0x04\n    /* \"#utility.yul\":9705:9720   */\n  mstore\n    /* \"#utility.yul\":9739:9743   */\n  0x24\n    /* \"#utility.yul\":9736:9737   */\n  0x00\n    /* \"#utility.yul\":9729:9744   */\n  revert\n    /* \"#utility.yul\":9756:10076   */\ntag_49:\n    /* \"#utility.yul\":9800:9806   */\n  0x00\n    /* \"#utility.yul\":9837:9838   */\n  0x02\n    /* \"#utility.yul\":9831:9835   */\n  dup3\n    /* \"#utility.yul\":9827:9839   */\n  div\n    /* \"#utility.yul\":9817:9839   */\n  swap1\n  pop\n    /* \"#utility.yul\":9884:9885   */\n  0x01\n    /* \"#utility.yul\":9878:9882   */\n  dup3\n    /* \"#utility.yul\":9874:9886   */\n  and\n    /* \"#utility.yul\":9905:9923   */\n  dup1\n    /* \"#utility.yul\":9895:9976   */\n  tag_173\n  jumpi\n    /* \"#utility.yul\":9961:9965   */\n  0x7f\n    /* \"#utility.yul\":9953:9959   */\n  dup3\n    /* \"#utility.yul\":9949:9966   */\n  and\n    /* \"#utility.yul\":9939:9966   */\n  swap2\n  pop\n    /* \"#utility.yul\":9895:9976   */\ntag_173:\n    /* \"#utility.yul\":10023:10025   */\n  0x20\n    /* \"#utility.yul\":10015:10021   */\n  dup3\n    /* \"#utility.yul\":10012:10026   */\n  lt\n    /* \"#utility.yul\":9992:10010   */\n  dup2\n    /* \"#utility.yul\":9989:10027   */\n  sub\n    /* \"#utility.yul\":9986:10070   */\n  tag_174\n  jumpi\n    /* \"#utility.yul\":10042:10060   */\n  tag_175\n  tag_48\n  jump\t// in\ntag_175:\n    /* \"#utility.yul\":9986:10070   */\ntag_174:\n    /* \"#utility.yul\":9807:10076   */\n  pop\n    /* \"#utility.yul\":9756:10076   */\n  swap2\n  swap1\n  pop\n  jump\t// out\n    /* \"#utility.yul\":10082:10222   */\ntag_50:\n    /* \"#utility.yul\":10130:10134   */\n  0x00\n    /* \"#utility.yul\":10153:10156   */\n  dup2\n    /* \"#utility.yul\":10145:10156   */\n  swap1\n  pop\n    /* \"#utility.yul\":10176:10179   */\n  dup2\n    /* \"#utility.yul\":10173:10174   */\n  0x00\n    /* \"#utility.yul\":10166:10180   */\n  mstore\n    /* \"#utility.yul\":10210:10214   */\n  0x20\n    /* \"#utility.yul\":10207:10208   */\n  0x00\n    /* \"#utility.yul\":10197:10215   */\n  keccak256\n    /* \"#utility.yul\":10189:10215   */\n  swap1\n  pop\n    /* \"#utility.yul\":10082:10222   */\n  swap2\n  swap1\n  pop\n  jump\t// out\n    /* \"#utility.yul\":10228:10321   */\ntag_51:\n    /* \"#utility.yul\":10265:10271   */\n  0x00\n    /* \"#utility.yul\":10312:10314   */\n  0x20\n    /* \"#utility.yul\":10307:10309   */\n  0x1f\n    /* \"#utility.yul\":10300:10305   */\n  dup4\n    /* \"#utility.yul\":10296:10310   */\n  add\n    /* \"#utility.yul\":10292:10315   */\n  div\n    /* \"#utility.yul\":10282:10315   */\n  swap1\n  pop\n    /* \"#utility.yul\":10228:10321   */\n  swap2\n  swap1\n  pop\n  jump\t// out\n    /* \"#utility.yul\":10327:10434   */\ntag_52:\n    /* \"#utility.yul\":10371:10379   */\n  0x00\n    /* \"#utility.yul\":10421:10426   */\n  dup3\n    /* \"#utility.yul\":10415:10419   */\n  dup3\n    /* \"#utility.yul\":10411:10427   */\n  shl\n    /* \"#utility.yul\":10390:10427   */\n  swap1\n  pop\n    /* \"#utility.yul\":10327:10434   */\n  swap3\n  swap2\n  pop\n  pop\n  jump\t// out\n    /* \"#utility.yul\":10440:10833   */\ntag_53:\n    /* \"#utility.yul\":10509:10515   */\n  0x00\n    /* \"#utility.yul\":10559:10560   */\n  0x08\n    /* \"#utility.yul\":10547:10557   */\n  dup4\n    /* \"#utility.yul\":10543:10561   */\n  mul\n    /* \"#utility.yul\":10582:10679   */\n  tag_180\n    /* \"#utility.yul\":10612:10678   */\n  0xffffffffffffffffffffffffffffffffffffffffffffffffffffffffffffffff\n    /* \"#utility.yul\":10601:10610   */\n  dup3\n    /* \"#utility.yul\":10582:10679   */\n  tag_52\n  jump\t// in\ntag_180:\n    /* \"#utility.yul\":10700:10739   */\n  tag_181\n    /* \"#utility.yul\":10730:10738   */\n  dup7\n    /* \"#utility.yul\":10719:10728   */\n  dup4\n    /* \"#utility.yul\":10700:10739   */\n  tag_52\n  jump\t// in\ntag_181:\n    /* \"#utility.yul\":10688:10739   */\n  swap6\n  pop\n    /* \"#utility.yul\":10772:10776   */\n  dup1\n    /* \"#utility.yul\":10768:10777   */\n  not\n    /* \"#utility.yul\":10761:10766   */\n  dup5\n    /* \"#utility.yul\":10757:10778   */\n  and\n    /* \"#utility.yul\":10748:10778   */\n  swap4\n  pop\n    /* \"#utility.yul\":10821:10825   */\n  dup1\n    /* \"#utility.yul\":10811:10819   */\n  dup7\n    /* \"#utility.yul\":10807:10826   */\n  and\n    /* \"#utility.yul\":10800:10805   */\n  dup5\n    /* \"#utility.yul\":10797:10827   */\n  or\n    /* \"#utility.yul\":10787:10827   */\n  swap3\n  pop\n    /* \"#utility.yul\":10516:10833   */\n  pop\n  pop\n    /* \"#utility.yul\":10440:10833   */\n  swap4\n  swap3\n  pop\n  pop\n  pop\n  jump\t// out\n    /* \"#utility.yul\":10839:10916   */\ntag_54:\n    /* \"#utility.yul\":10876:10883   */\n  0x00\n    /* \"#utility.yul\":10905:10910   */\n  dup2\n    /* \"#utility.yul\":10894:10910   */\n  swap1\n  pop\n    /* \"#utility.yul\":10839:10916   */\n  swap2\n  swap1\n  pop\n  jump\t// out\n    /* \"#utility.yul\":10922:10982   */\ntag_55:\n    /* \"#utility.yul\":10950:10953   */\n  0x00\n    /* \"#utility.yul\":10971:10976   */\n  dup2\n    /* \"#utility.yul\":10964:10976   */\n  swap1\n  pop\n    /* \"#utility.yul\":10922:10982   */\n  swap2\n  swap1\n  pop\n  jump\t// out\n    /* \"#utility.yul\":10988:11130   */\ntag_56:\n    /* \"#utility.yul\":11038:11047   */\n  0x00\n    /* \"#utility.yul\":11071:11124   */\n  tag_185\n    /* \"#utility.yul\":11089:11123   */\n  tag_186\n    /* \"#utility.yul\":11098:11122   */\n  tag_187\n    /* \"#utility.yul\":11116:11121   */\n  dup5\n    /* \"#utility.yul\":11098:11122   */\n  tag_54\n  jump\t// in\ntag_187:\n    /* \"#utility.yul\":11089:11123   */\n  tag_55\n  jump\t// in\ntag_186:\n    /* \"#utility.yul\":11071:11124   */\n  tag_54\n  jump\t// in\ntag_185:\n    /* \"#utility.yul\":11058:11124   */\n  swap1\n  pop\n    /* \"#utility.yul\":10988:11130   */\n  swap2\n  swap1\n  pop\n  jump\t// out\n    /* \"#utility.yul\":11136:11211   */\ntag_57:\n    /* \"#utility.yul\":11179:11182   */\n  0x00\n    /* \"#utility.yul\":11200:11205   */\n  dup2\n    /* \"#utility.yul\":11193:11205   */\n  swap1\n  pop\n    /* \"#utility.yul\":11136:11211   */\n  swap2\n  swap1\n  pop\n  jump\t// out\n    /* \"#utility.yul\":11217:11486   */\ntag_58:\n    /* \"#utility.yul\":11327:11366   */\n  tag_190\n    /* \"#utility.yul\":11358:11365   */\n  dup4\n    /* \"#utility.yul\":11327:11366   */\n  tag_56\n  jump\t// in\ntag_190:\n    /* \"#utility.yul\":11388:11479   */\n  tag_191\n    /* \"#utility.yul\":11437:11478   */\n  tag_192\n    /* \"#utility.yul\":11461:11477   */\n  dup3\n    /* \"#utility.yul\":11437:11478   */\n  tag_57\n  jump\t// in\ntag_192:\n    /* \"#utility.yul\":11429:11435   */\n  dup5\n    /* \"#utility.yul\":11422:11426   */\n  dup5\n    /* \"#utility.yul\":11416:11427   */\n  sload\n    /* \"#utility.yul\":11388:11479   */\n  tag_53\n  jump\t// in\ntag_191:\n    /* \"#utility.yul\":11382:11386   */\n  dup3\n    /* \"#utility.yul\":11375:11480   */\n  sstore\n    /* \"#utility.yul\":11293:11486   */\n  pop\n    /* \"#utility.yul\":11217:11486   */\n  pop\n  pop\n  pop\n  jump\t// out\n    /* \"#utility.yul\":11492:11565   */\ntag_59:\n    /* \"#utility.yul\":11537:11540   */\n  0x00\n    /* \"#utility.yul\":11492:11565   */\n  swap1\n  jump\t// out\n    /* \"#utility.yul\":11571:11760   */\ntag_60:\n    /* \"#utility.yul\":11648:11680   */\n  tag_195\n  tag_59\n  jump\t// in\ntag_195:\n    /* \"#utility.yul\":11689:11754   */\n  tag_196\n    /* \"#utility.yul\":11747:11753   */\n  dup2\n    /* \"#utility.yul\":11739:11745   */\n  dup5\n    /* \"#utility.yul\":11733:11737   */\n  dup5\n    /* \"#utility.yul\":11689:11754   */\n  tag_58\n  jump\t// in\ntag_196:\n    /* \"#utility.yul\":11624:11760   */\n  pop\n    /* \"#utility.yul\":11571:11760   */\n  pop\n  pop\n  jump\t// out\n    /* \"#utility.yul\":11766:11952   */\ntag_61:\n    /* \"#utility.yul\":11826:11946   */\ntag_198:\n    /* \"#utility.yul\":11843:11846   */\n  dup2\n    /* \"#utility.yul\":11836:11841   */\n  dup2\n    /* \"#utility.yul\":11833:11847   */\n  lt\n    /* \"#utility.yul\":11826:11946   */\n  iszero\n  tag_200\n  jumpi\n    /* \"#utility.yul\":11897:11936   */\n  tag_201\n    /* \"#utility.yul\":11934:11935   */\n  0x00\n    /* \"#utility.yul\":11927:11932   */\n  dup3\n    /* \"#utility.yul\":11897:11936   */\n  tag_60\n  jump\t// in\ntag_201:\n    /* \"#utility.yul\":11870:11871   */\n  0x01\n    /* \"#utility.yul\":11863:11868   */\n  dup2\n    /* \"#utility.yul\":11859:11872   */\n  add\n    /* \"#utility.yul\":11850:11872   */\n  swap1\n  pop\n    /* \"#utility.yul\":11826:11946   */\n  jump(tag_198)\ntag_200:\n    /* \"#utility.yul\":11766:11952   */\n  pop\n  pop\n  jump\t// out\n    /* \"#utility.yul\":11958:12499   */\ntag_62:\n    /* \"#utility.yul\":12058:12060   */\n  0x1f\n    /* \"#utility.yul\":12053:12056   */\n  dup3\n    /* \"#utility.yul\":12050:12061   */\n  gt\n    /* \"#utility.yul\":12047:12492   */\n  iszero\n  tag_203\n  jumpi\n    /* \"#utility.yul\":12092:12129   */\n  tag_204\n    /* \"#utility.yul\":12123:12128   */\n  dup2\n    /* \"#utility.yul\":12092:12129   */\n  tag_50\n  jump\t// in\ntag_204:\n    /* \"#utility.yul\":12175:12204   */\n  tag_205\n    /* \"#utility.yul\":12193:12203   */\n  dup5\n    /* \"#utility.yul\":12175:12204   */\n  tag_51\n  jump\t// in\ntag_205:\n    /* \"#utility.yul\":12165:12173   */\n  dup2\n    /* \"#utility.yul\":12161:12205   */\n  add\n    /* \"#utility.yul\":12358:12360   */\n  0x20\n    /* \"#utility.yul\":12346:12356   */\n  dup6\n    /* \"#utility.yul\":12343:12361   */\n  lt\n    /* \"#utility.yul\":12340:12389   */\n  iszero\n  tag_206\n  jumpi\n    /* \"#utility.yul\":12379:12387   */\n  dup2\n    /* \"#utility.yul\":12364:12387   */\n  swap1\n  pop\n    /* \"#utility.yul\":12340:12389   */\ntag_206:\n    /* \"#utility.yul\":12402:12482   */\n  tag_207\n    /* \"#utility.yul\":12458:12480   */\n  tag_208\n    /* \"#utility.yul\":12476:12479   */\n  dup6\n    /* \"#utility.yul\":12458:12480   */\n  tag_51\n  jump\t// in\ntag_208:\n    /* \"#utility.yul\":12448:12456   */\n  dup4\n    /* \"#utility.yul\":12444:12481   */\n  add\n    /* \"#utility.yul\":12431:12442   */\n  dup3\n    /* \"#utility.yul\":12402:12482   */\n  tag_61\n  jump\t// in\ntag_207:\n    /* \"#utility.yul\":12062:12492   */\n  pop\n  pop\n    /* \"#utility.yul\":12047:12492   */\ntag_203:\n    /* \"#utility.yul\":11958:12499   */\n  pop\n  pop\n  pop\n  jump\t// out\n    /* \"#utility.yul\":12505:12622   */\ntag_63:\n    /* \"#utility.yul\":12559:12567   */\n  0x00\n    /* \"#utility.yul\":12609:12614   */\n  dup3\n    /* \"#utility.yul\":12603:12607   */\n  dup3\n    /* \"#utility.yul\":12599:12615   */\n  shr\n    /* \"#utility.yul\":12578:12615   */\n  swap1\n  pop\n    /* \"#utility.yul\":12505:12622   */\n  swap3\n  swap2\n  pop\n  pop\n  jump\t// out\n    /* \"#utility.yul\":12628:12797   */\ntag_64:\n    /* \"#utility.yul\":12672:12678   */\n  0x00\n    /* \"#utility.yul\":12705:12756   */\n  tag_211\n    /* \"#utility.yul\":12753:12754   */\n  0x00\n    /* \"#utility.yul\":12749:12755   */\n  not\n    /* \"#utility.yul\":12741:12746   */\n  dup5\n    /* \"#utility.yul\":12738:12739   */\n  0x08\n    /* \"#utility.yul\":12734:12747   */\n  mul\n    /* \"#utility.yul\":12705:12756   */\n  tag_63\n  jump\t// in\ntag_211:\n    /* \"#utility.yul\":12701:12757   */\n  not\n    /* \"#utility.yul\":12786:12790   */\n  dup1\n    /* \"#utility.yul\":12780:12784   */\n  dup4\n    /* \"#utility.yul\":12776:12791   */\n  and\n    /* \"#utility.yul\":12766:12791   */\n  swap2\n  pop\n    /* \"#utility.yul\":12679:12797   */\n  pop\n    /* \"#utility.yul\":12628:12797   */\n  swap3\n  swap2\n  pop\n  pop\n  jump\t// out\n    /* \"#utility.yul\":12802:13097   */\ntag_65:\n    /* \"#utility.yul\":12878:12882   */\n  0x00\n    /* \"#utility.yul\":13024:13053   */\n  tag_213\n    /* \"#utility.yul\":13049:13052   */\n  dup4\n    /* \"#utility.yul\":13043:13047   */\n  dup4\n    /* \"#utility.yul\":13024:13053   */\n  tag_64\n  jump\t// in\ntag_213:\n    /* \"#utility.yul\":13016:13053   */\n  swap2\n  pop\n    /* \"#utility.yul\":13086:13089   */\n  dup3\n    /* \"#utility.yul\":13083:13084   */\n  0x02\n    /* \"#utility.yul\":13079:13090   */\n  mul\n    /* \"#utility.yul\":13073:13077   */\n  dup3\n    /* \"#utility.yul\":13070:13091   */\n  or\n    /* \"#utility.yul\":13062:13091   */\n  swap1\n  pop\n    /* \"#utility.yul\":12802:13097   */\n  swap3\n  swap2\n  pop\n  pop\n  jump\t// out\n    /* \"#utility.yul\":13102:14492   */\ntag_17:\n    /* \"#utility.yul\":13217:13253   */\n  tag_215\n    /* \"#utility.yul\":13249:13252   */\n  dup3\n    /* \"#utility.yul\":13217:13253   */\n  tag_47\n  jump\t// in\ntag_215:\n    /* \"#utility.yul\":13318:13336   */\n  0xffffffffffffffff\n    /* \"#utility.yul\":13310:13316   */\n  dup2\n    /* \"#utility.yul\":13307:13337   */\n  gt\n    /* \"#utility.yul\":13304:13360   */\n  iszero\n  tag_216\n  jumpi\n    /* \"#utility.yul\":13340:13358   */\n  tag_217\n  tag_26\n  jump\t// in\ntag_217:\n    /* \"#utility.yul\":13304:13360   */\ntag_216:\n    /* \"#utility.yul\":13384:13422   */\n  tag_218\n    /* \"#utility.yul\":13416:13420   */\n  dup3\n    /* \"#utility.yul\":13410:13421   */\n  sload\n    /* \"#utility.yul\":13384:13422   */\n  tag_49\n  jump\t// in\ntag_218:\n    /* \"#utility.yul\":13469:13535   */\n  tag_219\n    /* \"#utility.yul\":13528:13534   */\n  dup3\n    /* \"#utility.yul\":13520:13526   */\n  dup3\n    /* \"#utility.yul\":13514:13518   */\n  dup6\n    /* \"#utility.yul\":13469:13535   */\n  tag_62\n  jump\t// in\ntag_219:\n    /* \"#utility.yul\":13562:13563   */\n  0x00\n    /* \"#utility.yul\":13586:13590   */\n  0x20\n    /* \"#utility.yul\":13573:13590   */\n  swap1\n  pop\n    /* \"#utility.yul\":13618:13620   */\n  0x1f\n    /* \"#utility.yul\":13610:13616   */\n  dup4\n    /* \"#utility.yul\":13607:13621   */\n  gt\n    /* \"#utility.yul\":13635:13636   */\n  0x01\n    /* \"#utility.yul\":13630:14247   */\n  dup2\n  eq\n  tag_221\n  jumpi\n    /* \"#utility.yul\":14291:14292   */\n  0x00\n    /* \"#utility.yul\":14308:14314   */\n  dup5\n    /* \"#utility.yul\":14305:14382   */\n  iszero\n  tag_222\n  jumpi\n    /* \"#utility.yul\":14357:14366   */\n  dup3\n    /* \"#utility.yul\":14352:14355   */\n  dup8\n    /* \"#utility.yul\":14348:14367   */\n  add\n    /* \"#utility.yul\":14342:14368   */\n  mload\n    /* \"#utility.yul\":14333:14368   */\n  swap1\n  pop\n    /* \"#utility.yul\":14305:14382   */\ntag_222:\n    /* \"#utility.yul\":14408:14475   */\n  tag_223\n    /* \"#utility.yul\":14468:14474   */\n  dup6\n    /* \"#utility.yul\":14461:14466   */\n  dup3\n    /* \"#utility.yul\":14408:14475   */\n  tag_65\n  jump\t// in\ntag_223:\n    /* \"#utility.yul\":14402:14406   */\n  dup7\n    /* \"#utility.yul\":14395:14476   */\n  sstore\n    /* \"#utility.yul\":14264:14486   */\n  pop\n    /* \"#utility.yul\":13600:14486   */\n  jump(tag_220)\n    /* \"#utility.yul\":13630:14247   */\ntag_221:\n    /* \"#utility.yul\":13682:13686   */\n  0x1f\n    /* \"#utility.yul\":13678:13687   */\n  not\n    /* \"#utility.yul\":13670:13676   */\n  dup5\n    /* \"#utility.yul\":13666:13688   */\n  and\n    /* \"#utility.yul\":13716:13752   */\n  tag_224\n    /* \"#utility.yul\":13747:13751   */\n  dup7\n    /* \"#utility.yul\":13716:13752   */\n  tag_50\n  jump\t// in\ntag_224:\n    /* \"#utility.yul\":13774:13775   */\n  0x00\n    /* \"#utility.yul\":13788:13996   */\ntag_225:\n    /* \"#utility.yul\":13802:13809   */\n  dup3\n    /* \"#utility.yul\":13799:13800   */\n  dup2\n    /* \"#utility.yul\":13796:13810   */\n  lt\n    /* \"#utility.yul\":13788:13996   */\n  iszero\n  tag_227\n  jumpi\n    /* \"#utility.yul\":13881:13890   */\n  dup5\n    /* \"#utility.yul\":13876:13879   */\n  dup10\n    /* \"#utility.yul\":13872:13891   */\n  add\n    /* \"#utility.yul\":13866:13892   */\n  mload\n    /* \"#utility.yul\":13858:13864   */\n  dup3\n    /* \"#utility.yul\":13851:13893   */\n  sstore\n    /* \"#utility.yul\":13932:13933   */\n  0x01\n    /* \"#utility.yul\":13924:13930   */\n  dup3\n    /* \"#utility.yul\":13920:13934   */\n  add\n    /* \"#utility.yul\":13910:13934   */\n  swap2\n  pop\n    /* \"#utility.yul\":13979:13981   */\n  0x20\n    /* \"#utility.yul\":13968:13977   */\n  dup6\n    /* \"#utility.yul\":13964:13982   */\n  add\n    /* \"#utility.yul\":13951:13982   */\n  swap5\n  pop\n    /* \"#utility.yul\":13825:13829   */\n  0x20\n    /* \"#utility.yul\":13822:13823   */\n  dup2\n    /* \"#utility.yul\":13818:13830   */\n  add\n    /* \"#utility.yul\":13813:13830   */\n  swap1\n  pop\n    /* \"#utility.yul\":13788:13996   */\n  jump(tag_225)\ntag_227:\n    /* \"#utility.yul\":14024:14030   */\n  dup7\n    /* \"#utility.yul\":14015:14022   */\n  dup4\n    /* \"#utility.yul\":14012:14031   */\n  lt\n    /* \"#utility.yul\":14009:14188   */\n  iszero\n  tag_228\n  jumpi\n    /* \"#utility.yul\":14082:14091   */\n  dup5\n    /* \"#utility.yul\":14077:14080   */\n  dup10\n    /* \"#utility.yul\":14073:14092   */\n  add\n    /* \"#utility.yul\":14067:14093   */\n  mload\n    /* \"#utility.yul\":14125:14173   */\n  tag_229\n    /* \"#utility.yul\":14167:14171   */\n  0x1f\n    /* \"#utility.yul\":14159:14165   */\n  dup10\n    /* \"#utility.yul\":14155:14172   */\n  and\n    /* \"#utility.yul\":14144:14153   */\n  dup3\n    /* \"#utility.yul\":14125:14173   */\n  tag_64\n  jump\t// in\ntag_229:\n    /* \"#utility.yul\":14117:14123   */\n  dup4\n    /* \"#utility.yul\":14110:14174   */\n  sstore\n    /* \"#utility.yul\":14032:14188   */\n  pop\n    /* \"#utility.yul\":14009:14188   */\ntag_228:\n    /* \"#utility.yul\":14234:14235   */\n  0x01\n    /* \"#utility.yul\":14230:14231   */\n  0x02\n    /* \"#utility.yul\":14222:14228   */\n  dup9\n    /* \"#utility.yul\":14218:14232   */\n  mul\n    /* \"#utility.yul\":14214:14236   */\n  add\n    /* \"#utility.yul\":14208:14212   */\n  dup9\n    /* \"#utility.yul\":14201:14237   */\n  sstore\n    /* \"#utility.yul\":13637:14247   */\n  pop\n  pop\n  pop\n    /* \"#utility.yul\":13600:14486   */\ntag_220:\n  pop\n    /* \"#utility.yul\":13192:14492   */\n  pop\n  pop\n  pop\n    /* \"#utility.yul\":13102:14492   */\n  pop\n  pop\n  jump\t// out\n    /* \"#utility.yul\":14498:14678   */\ntag_66:\n    /* \"#utility.yul\":14546:14623   */\n  0x4e487b7100000000000000000000000000000000000000000000000000000000\n    /* \"#utility.yul\":14543:14544   */\n  0x00\n    /* \"#utility.yul\":14536:14624   */\n  mstore\n    /* \"#utility.yul\":14643:14647   */\n  0x11\n    /* \"#utility.yul\":14640:14641   */\n  0x04\n    /* \"#utility.yul\":14633:14648   */\n  mstore\n    /* \"#utility.yul\":14667:14671   */\n  0x24\n    /* \"#utility.yul\":14664:14665   */\n  0x00\n    /* \"#utility.yul\":14657:14672   */\n  revert\n    /* \"#utility.yul\":14684:14783   */\ntag_67:\n    /* \"#utility.yul\":14720:14727   */\n  0x00\n    /* \"#utility.yul\":14760:14776   */\n  0xffffffffffffff\n    /* \"#utility.yul\":14753:14758   */\n  dup3\n    /* \"#utility.yul\":14749:14777   */\n  and\n    /* \"#utility.yul\":14738:14777   */\n  swap1\n  pop\n    /* \"#utility.yul\":14684:14783   */\n  swap2\n  swap1\n  pop\n  jump\t// out\n    /* \"#utility.yul\":14789:14970   */\ntag_19:\n    /* \"#utility.yul\":14827:14830   */\n  0x00\n    /* \"#utility.yul\":14850:14873   */\n  tag_233\n    /* \"#utility.yul\":14867:14872   */\n  dup3\n    /* \"#utility.yul\":14850:14873   */\n  tag_67\n  jump\t// in\ntag_233:\n    /* \"#utility.yul\":14841:14873   */\n  swap2\n  pop\n    /* \"#utility.yul\":14895:14911   */\n  0xffffffffffffff\n    /* \"#utility.yul\":14888:14893   */\n  dup3\n    /* \"#utility.yul\":14885:14912   */\n  sub\n    /* \"#utility.yul\":14882:14935   */\n  tag_234\n  jumpi\n    /* \"#utility.yul\":14915:14933   */\n  tag_235\n  tag_66\n  jump\t// in\ntag_235:\n    /* \"#utility.yul\":14882:14935   */\ntag_234:\n    /* \"#utility.yul\":14962:14963   */\n  0x01\n    /* \"#utility.yul\":14955:14960   */\n  dup3\n    /* \"#utility.yul\":14951:14964   */\n  add\n    /* \"#utility.yul\":14944:14964   */\n  swap1\n  pop\n    /* \"#utility.yul\":14789:14970   */\n  swap2\n  swap1\n  pop\n  jump\t// out\n    /* \"contracts/SupplyChain.sol\":61:632  contract SupplyChain {... */\ntag_20:\n  dataSize(sub_0)\n  dup1\n  dataOffset(sub_0)\n  0x00\n  codecopy\n  0x00\n  return\nstop\n\nsub_0: assembly {\n        /* \"contracts/SupplyChain.sol\":61:632  contract SupplyChain {... */\n      mstore(0x40, 0x80)\n      callvalue\n      dup1\n      iszero\n      tag_1\n      jumpi\n      0x00\n      dup1\n      revert\n    tag_1:\n      pop\n      jumpi(tag_2, lt(calldatasize, 0x04))\n      shr(0xe0, calldataload(0x00))\n      dup1\n      0x5efbc21e\n      eq\n      tag_3\n      jumpi\n    tag_2:\n      0x00\n      dup1\n      revert\n        /* \"contracts/SupplyChain.sol\":86:136  mapping(string => bytes) public contractInfomation */\n    tag_3:\n      tag_4\n      0x04\n      dup1\n      calldatasize\n      sub\n      dup2\n      add\n      swap1\n      tag_5\n      swap2\n      swap1\n      tag_6\n      jump\t// in\n    tag_5:\n      tag_7\n      jump\t// in\n    tag_4:\n      mload(0x40)\n      tag_8\n      swap2\n      swap1\n      tag_9\n      jump\t// in\n    tag_8:\n      mload(0x40)\n      dup1\n      swap2\n      sub\n      swap1\n      return\n    tag_7:\n      0x00\n      dup2\n      dup1\n      mload\n      0x20\n      dup2\n      add\n      dup3\n      add\n      dup1\n      mload\n      dup5\n      dup3\n      mstore\n      0x20\n      dup4\n      add\n      0x20\n      dup6\n      add\n      keccak256\n      dup2\n      dup4\n      mstore\n      dup1\n      swap6\n      pop\n      pop\n      pop\n      pop\n      pop\n      pop\n      0x00\n      swap2\n      pop\n      swap1\n      pop\n      dup1\n      sload\n      tag_10\n      swap1\n      tag_11\n      jump\t// in\n    tag_10:\n      dup1\n      0x1f\n      add\n      0x20\n      dup1\n      swap2\n      div\n      mul\n      0x20\n      add\n      mload(0x40)\n      swap1\n      dup2\n      add\n      0x40\n      mstore\n      dup1\n      swap3\n      swap2\n      swap1\n      dup2\n      dup2\n      mstore\n      0x20\n      add\n      dup3\n      dup1\n      sload\n      tag_12\n      swap1\n      tag_11\n      jump\t// in\n    tag_12:\n      dup1\n      iszero\n      tag_13\n      jumpi\n      dup1\n      0x1f\n      lt\n      tag_14\n      jumpi\n      0x0100\n      dup1\n      dup4\n      sload\n      div\n      mul\n      dup4\n      mstore\n      swap2\n      0x20\n      add\n      swap2\n      jump(tag_13)\n    tag_14:\n      dup3\n      add\n      swap2\n      swap1\n      0x00\n      mstore\n      keccak256(0x00, 0x20)\n      swap1\n    tag_15:\n      dup2\n      sload\n      dup2\n      mstore\n      swap1\n      0x01\n      add\n      swap1\n      0x20\n      add\n      dup1\n      dup4\n      gt\n      tag_15\n      jumpi\n      dup3\n      swap1\n      sub\n      0x1f\n      and\n      dup3\n      add\n      swap2\n    tag_13:\n      pop\n      pop\n      pop\n      pop\n      pop\n      dup2\n      jump\t// out\n        /* \"#utility.yul\":7:82   */\n    tag_16:\n        /* \"#utility.yul\":40:46   */\n      0x00\n        /* \"#utility.yul\":73:75   */\n      0x40\n        /* \"#utility.yul\":67:76   */\n      mload\n        /* \"#utility.yul\":57:76   */\n      swap1\n      pop\n        /* \"#utility.yul\":7:82   */\n      swap1\n      jump\t// out\n        /* \"#utility.yul\":88:205   */\n    tag_17:\n        /* \"#utility.yul\":197:198   */\n      0x00\n        /* \"#utility.yul\":194:195   */\n      dup1\n        /* \"#utility.yul\":187:199   */\n      revert\n        /* \"#utility.yul\":211:328   */\n    tag_18:\n        /* \"#utility.yul\":320:321   */\n      0x00\n        /* \"#utility.yul\":317:318   */\n      dup1\n        /* \"#utility.yul\":310:322   */\n      revert\n        /* \"#utility.yul\":334:451   */\n    tag_19:\n        /* \"#utility.yul\":443:444   */\n      0x00\n        /* \"#utility.yul\":440:441   */\n      dup1\n        /* \"#utility.yul\":433:445   */\n      revert\n        /* \"#utility.yul\":457:574   */\n    tag_20:\n        /* \"#utility.yul\":566:567   */\n      0x00\n        /* \"#utility.yul\":563:564   */\n      dup1\n        /* \"#utility.yul\":556:568   */\n      revert\n        /* \"#utility.yul\":580:682   */\n    tag_21:\n        /* \"#utility.yul\":621:627   */\n      0x00\n        /* \"#utility.yul\":672:674   */\n      0x1f\n        /* \"#utility.yul\":668:675   */\n      not\n        /* \"#utility.yul\":663:665   */\n      0x1f\n        /* \"#utility.yul\":656:661   */\n      dup4\n        /* \"#utility.yul\":652:666   */\n      add\n        /* \"#utility.yul\":648:676   */\n      and\n        /* \"#utility.yul\":638:676   */\n      swap1\n      pop\n        /* \"#utility.yul\":580:682   */\n      swap2\n      swap1\n      pop\n      jump\t// out\n        /* \"#utility.yul\":688:868   */\n    tag_22:\n        /* \"#utility.yul\":736:813   */\n      0x4e487b7100000000000000000000000000000000000000000000000000000000\n        /* \"#utility.yul\":733:734   */\n      0x00\n        /* \"#utility.yul\":726:814   */\n      mstore\n        /* \"#utility.yul\":833:837   */\n      0x41\n        /* \"#utility.yul\":830:831   */\n      0x04\n        /* \"#utility.yul\":823:838   */\n      mstore\n        /* \"#utility.yul\":857:861   */\n      0x24\n        /* \"#utility.yul\":854:855   */\n      0x00\n        /* \"#utility.yul\":847:862   */\n      revert\n        /* \"#utility.yul\":874:1155   */\n    tag_23:\n        /* \"#utility.yul\":957:984   */\n      tag_43\n        /* \"#utility.yul\":979:983   */\n      dup3\n        /* \"#utility.yul\":957:984   */\n      tag_21\n      jump\t// in\n    tag_43:\n        /* \"#utility.yul\":949:955   */\n      dup2\n        /* \"#utility.yul\":945:985   */\n      add\n        /* \"#utility.yul\":1087:1093   */\n      dup2\n        /* \"#utility.yul\":1075:1085   */\n      dup2\n        /* \"#utility.yul\":1072:1094   */\n      lt\n        /* \"#utility.yul\":1051:1069   */\n      0xffffffffffffffff\n        /* \"#utility.yul\":1039:1049   */\n      dup3\n        /* \"#utility.yul\":1036:1070   */\n      gt\n        /* \"#utility.yul\":1033:1095   */\n      or\n        /* \"#utility.yul\":1030:1118   */\n      iszero\n      tag_44\n      jumpi\n        /* \"#utility.yul\":1098:1116   */\n      tag_45\n      tag_22\n      jump\t// in\n    tag_45:\n        /* \"#utility.yul\":1030:1118   */\n    tag_44:\n        /* \"#utility.yul\":1138:1148   */\n      dup1\n        /* \"#utility.yul\":1134:1136   */\n      0x40\n        /* \"#utility.yul\":1127:1149   */\n      mstore\n        /* \"#utility.yul\":917:1155   */\n      pop\n        /* \"#utility.yul\":874:1155   */\n      pop\n      pop\n      jump\t// out\n        /* \"#utility.yul\":1161:1290   */\n    tag_24:\n        /* \"#utility.yul\":1195:1201   */\n      0x00\n        /* \"#utility.yul\":1222:1242   */\n      tag_47\n      tag_16\n      jump\t// in\n    tag_47:\n        /* \"#utility.yul\":1212:1242   */\n      swap1\n      pop\n        /* \"#utility.yul\":1251:1284   */\n      tag_48\n        /* \"#utility.yul\":1279:1283   */\n      dup3\n        /* \"#utility.yul\":1271:1277   */\n      dup3\n        /* \"#utility.yul\":1251:1284   */\n      tag_23\n      jump\t// in\n    tag_48:\n        /* \"#utility.yul\":1161:1290   */\n      swap2\n      swap1\n      pop\n      jump\t// out\n        /* \"#utility.yul\":1296:1604   */\n    tag_25:\n        /* \"#utility.yul\":1358:1362   */\n      0x00\n        /* \"#utility.yul\":1448:1466   */\n      0xffffffffffffffff\n        /* \"#utility.yul\":1440:1446   */\n      dup3\n        /* \"#utility.yul\":1437:1467   */\n      gt\n        /* \"#utility.yul\":1434:1490   */\n      iszero\n      tag_50\n      jumpi\n        /* \"#utility.yul\":1470:1488   */\n      tag_51\n      tag_22\n      jump\t// in\n    tag_51:\n        /* \"#utility.yul\":1434:1490   */\n    tag_50:\n        /* \"#utility.yul\":1508:1537   */\n      tag_52\n        /* \"#utility.yul\":1530:1536   */\n      dup3\n        /* \"#utility.yul\":1508:1537   */\n      tag_21\n      jump\t// in\n    tag_52:\n        /* \"#utility.yul\":1500:1537   */\n      swap1\n      pop\n        /* \"#utility.yul\":1592:1596   */\n      0x20\n        /* \"#utility.yul\":1586:1590   */\n      dup2\n        /* \"#utility.yul\":1582:1597   */\n      add\n        /* \"#utility.yul\":1574:1597   */\n      swap1\n      pop\n        /* \"#utility.yul\":1296:1604   */\n      swap2\n      swap1\n      pop\n      jump\t// out\n        /* \"#utility.yul\":1610:1756   */\n    tag_26:\n        /* \"#utility.yul\":1707:1713   */\n      dup3\n        /* \"#utility.yul\":1702:1705   */\n      dup2\n        /* \"#utility.yul\":1697:1700   */\n      dup4\n        /* \"#utility.yul\":1684:1714   */\n      calldatacopy\n        /* \"#utility.yul\":1748:1749   */\n      0x00\n        /* \"#utility.yul\":1739:1745   */\n      dup4\n        /* \"#utility.yul\":1734:1737   */\n      dup4\n        /* \"#utility.yul\":1730:1746   */\n      add\n        /* \"#utility.yul\":1723:1750   */\n      mstore\n        /* \"#utility.yul\":1610:1756   */\n      pop\n      pop\n      pop\n      jump\t// out\n        /* \"#utility.yul\":1762:2187   */\n    tag_27:\n        /* \"#utility.yul\":1840:1845   */\n      0x00\n        /* \"#utility.yul\":1865:1931   */\n      tag_55\n        /* \"#utility.yul\":1881:1930   */\n      tag_56\n        /* \"#utility.yul\":1923:1929   */\n      dup5\n        /* \"#utility.yul\":1881:1930   */\n      tag_25\n      jump\t// in\n    tag_56:\n        /* \"#utility.yul\":1865:1931   */\n      tag_24\n      jump\t// in\n    tag_55:\n        /* \"#utility.yul\":1856:1931   */\n      swap1\n      pop\n        /* \"#utility.yul\":1954:1960   */\n      dup3\n        /* \"#utility.yul\":1947:1952   */\n      dup2\n        /* \"#utility.yul\":1940:1961   */\n      mstore\n        /* \"#utility.yul\":1992:1996   */\n      0x20\n        /* \"#utility.yul\":1985:1990   */\n      dup2\n        /* \"#utility.yul\":1981:1997   */\n      add\n        /* \"#utility.yul\":2030:2033   */\n      dup5\n        /* \"#utility.yul\":2021:2027   */\n      dup5\n        /* \"#utility.yul\":2016:2019   */\n      dup5\n        /* \"#utility.yul\":2012:2028   */\n      add\n        /* \"#utility.yul\":2009:2034   */\n      gt\n        /* \"#utility.yul\":2006:2118   */\n      iszero\n      tag_57\n      jumpi\n        /* \"#utility.yul\":2037:2116   */\n      tag_58\n      tag_20\n      jump\t// in\n    tag_58:\n        /* \"#utility.yul\":2006:2118   */\n    tag_57:\n        /* \"#utility.yul\":2127:2181   */\n      tag_59\n        /* \"#utility.yul\":2174:2180   */\n      dup5\n        /* \"#utility.yul\":2169:2172   */\n      dup3\n        /* \"#utility.yul\":2164:2167   */\n      dup6\n        /* \"#utility.yul\":2127:2181   */\n      tag_26\n      jump\t// in\n    tag_59:\n        /* \"#utility.yul\":1846:2187   */\n      pop\n        /* \"#utility.yul\":1762:2187   */\n      swap4\n      swap3\n      pop\n      pop\n      pop\n      jump\t// out\n        /* \"#utility.yul\":2207:2547   */\n    tag_28:\n        /* \"#utility.yul\":2263:2268   */\n      0x00\n        /* \"#utility.yul\":2312:2315   */\n      dup3\n        /* \"#utility.yul\":2305:2309   */\n      0x1f\n        /* \"#utility.yul\":2297:2303   */\n      dup4\n        /* \"#utility.yul\":2293:2310   */\n      add\n        /* \"#utility.yul\":2289:2316   */\n      slt\n        /* \"#utility.yul\":2279:2401   */\n      tag_61\n      jumpi\n        /* \"#utility.yul\":2320:2399   */\n      tag_62\n      tag_19\n      jump\t// in\n    tag_62:\n        /* \"#utility.yul\":2279:2401   */\n    tag_61:\n        /* \"#utility.yul\":2437:2443   */\n      dup2\n        /* \"#utility.yul\":2424:2444   */\n      calldataload\n        /* \"#utility.yul\":2462:2541   */\n      tag_63\n        /* \"#utility.yul\":2537:2540   */\n      dup5\n        /* \"#utility.yul\":2529:2535   */\n      dup3\n        /* \"#utility.yul\":2522:2526   */\n      0x20\n        /* \"#utility.yul\":2514:2520   */\n      dup7\n        /* \"#utility.yul\":2510:2527   */\n      add\n        /* \"#utility.yul\":2462:2541   */\n      tag_27\n      jump\t// in\n    tag_63:\n        /* \"#utility.yul\":2453:2541   */\n      swap2\n      pop\n        /* \"#utility.yul\":2269:2547   */\n      pop\n        /* \"#utility.yul\":2207:2547   */\n      swap3\n      swap2\n      pop\n      pop\n      jump\t// out\n        /* \"#utility.yul\":2553:3062   */\n    tag_6:\n        /* \"#utility.yul\":2622:2628   */\n      0x00\n        /* \"#utility.yul\":2671:2673   */\n      0x20\n        /* \"#utility.yul\":2659:2668   */\n      dup3\n        /* \"#utility.yul\":2650:2657   */\n      dup5\n        /* \"#utility.yul\":2646:2669   */\n      sub\n        /* \"#utility.yul\":2642:2674   */\n      slt\n        /* \"#utility.yul\":2639:2758   */\n      iszero\n      tag_65\n      jumpi\n        /* \"#utility.yul\":2677:2756   */\n      tag_66\n      tag_17\n      jump\t// in\n    tag_66:\n        /* \"#utility.yul\":2639:2758   */\n    tag_65:\n        /* \"#utility.yul\":2825:2826   */\n      0x00\n        /* \"#utility.yul\":2814:2823   */\n      dup3\n        /* \"#utility.yul\":2810:2827   */\n      add\n        /* \"#utility.yul\":2797:2828   */\n      calldataload\n        /* \"#utility.yul\":2855:2873   */\n      0xffffffffffffffff\n        /* \"#utility.yul\":2847:2853   */\n      dup2\n        /* \"#utility.yul\":2844:2874   */\n      gt\n        /* \"#utility.yul\":2841:2958   */\n      iszero\n      tag_67\n      jumpi\n        /* \"#utility.yul\":2877:2956   */\n      tag_68\n      tag_18\n      jump\t// in\n    tag_68:\n        /* \"#utility.yul\":2841:2958   */\n    tag_67:\n        /* \"#utility.yul\":2982:3045   */\n      tag_69\n        /* \"#utility.yul\":3037:3044   */\n      dup5\n        /* \"#utility.yul\":3028:3034   */\n      dup3\n        /* \"#utility.yul\":3017:3026   */\n      dup6\n        /* \"#utility.yul\":3013:3035   */\n      add\n        /* \"#utility.yul\":2982:3045   */\n      tag_28\n      jump\t// in\n    tag_69:\n        /* \"#utility.yul\":2972:3045   */\n      swap2\n      pop\n        /* \"#utility.yul\":2768:3055   */\n      pop\n        /* \"#utility.yul\":2553:3062   */\n      swap3\n      swap2\n      pop\n      pop\n      jump\t// out\n        /* \"#utility.yul\":3068:3166   */\n    tag_29:\n        /* \"#utility.yul\":3119:3125   */\n      0x00\n        /* \"#utility.yul\":3153:3158   */\n      dup2\n        /* \"#utility.yul\":3147:3159   */\n      mload\n        /* \"#utility.yul\":3137:3159   */\n      swap1\n      pop\n        /* \"#utility.yul\":3068:3166   */\n      swap2\n      swap1\n      pop\n      jump\t// out\n        /* \"#utility.yul\":3172:3340   */\n    tag_30:\n        /* \"#utility.yul\":3255:3266   */\n      0x00\n        /* \"#utility.yul\":3289:3295   */\n      dup3\n        /* \"#utility.yul\":3284:3287   */\n      dup3\n        /* \"#utility.yul\":3277:3296   */\n      mstore\n        /* \"#utility.yul\":3329:3333   */\n      0x20\n        /* \"#utility.yul\":3324:3327   */\n      dup3\n        /* \"#utility.yul\":3320:3334   */\n      add\n        /* \"#utility.yul\":3305:3334   */\n      swap1\n      pop\n        /* \"#utility.yul\":3172:3340   */\n      swap3\n      swap2\n      pop\n      pop\n      jump\t// out\n        /* \"#utility.yul\":3346:3592   */\n    tag_31:\n        /* \"#utility.yul\":3427:3428   */\n      0x00\n        /* \"#utility.yul\":3437:3550   */\n    tag_73:\n        /* \"#utility.yul\":3451:3457   */\n      dup4\n        /* \"#utility.yul\":3448:3449   */\n      dup2\n        /* \"#utility.yul\":3445:3458   */\n      lt\n        /* \"#utility.yul\":3437:3550   */\n      iszero\n      tag_75\n      jumpi\n        /* \"#utility.yul\":3536:3537   */\n      dup1\n        /* \"#utility.yul\":3531:3534   */\n      dup3\n        /* \"#utility.yul\":3527:3538   */\n      add\n        /* \"#utility.yul\":3521:3539   */\n      mload\n        /* \"#utility.yul\":3517:3518   */\n      dup2\n        /* \"#utility.yul\":3512:3515   */\n      dup5\n        /* \"#utility.yul\":3508:3519   */\n      add\n        /* \"#utility.yul\":3501:3540   */\n      mstore\n        /* \"#utility.yul\":3473:3475   */\n      0x20\n        /* \"#utility.yul\":3470:3471   */\n      dup2\n        /* \"#utility.yul\":3466:3476   */\n      add\n        /* \"#utility.yul\":3461:3476   */\n      swap1\n      pop\n        /* \"#utility.yul\":3437:3550   */\n      jump(tag_73)\n    tag_75:\n        /* \"#utility.yul\":3584:3585   */\n      0x00\n        /* \"#utility.yul\":3575:3581   */\n      dup5\n        /* \"#utility.yul\":3570:3573   */\n      dup5\n        /* \"#utility.yul\":3566:3582   */\n      add\n        /* \"#utility.yul\":3559:3586   */\n      mstore\n        /* \"#utility.yul\":3408:3592   */\n      pop\n        /* \"#utility.yul\":3346:3592   */\n      pop\n      pop\n      pop\n      jump\t// out\n        /* \"#utility.yul\":3598:3971   */\n    tag_32:\n        /* \"#utility.yul\":3684:3687   */\n      0x00\n        /* \"#utility.yul\":3712:3750   */\n      tag_77\n        /* \"#utility.yul\":3744:3749   */\n      dup3\n        /* \"#utility.yul\":3712:3750   */\n      tag_29\n      jump\t// in\n    tag_77:\n        /* \"#utility.yul\":3766:3836   */\n      tag_78\n        /* \"#utility.yul\":3829:3835   */\n      dup2\n        /* \"#utility.yul\":3824:3827   */\n      dup6\n        /* \"#utility.yul\":3766:3836   */\n      tag_30\n      jump\t// in\n    tag_78:\n        /* \"#utility.yul\":3759:3836   */\n      swap4\n      pop\n        /* \"#utility.yul\":3845:3910   */\n      tag_79\n        /* \"#utility.yul\":3903:3909   */\n      dup2\n        /* \"#utility.yul\":3898:3901   */\n      dup6\n        /* \"#utility.yul\":3891:3895   */\n      0x20\n        /* \"#utility.yul\":3884:3889   */\n      dup7\n        /* \"#utility.yul\":3880:3896   */\n      add\n        /* \"#utility.yul\":3845:3910   */\n      tag_31\n      jump\t// in\n    tag_79:\n        /* \"#utility.yul\":3935:3964   */\n      tag_80\n        /* \"#utility.yul\":3957:3963   */\n      dup2\n        /* \"#utility.yul\":3935:3964   */\n      tag_21\n      jump\t// in\n    tag_80:\n        /* \"#utility.yul\":3930:3933   */\n      dup5\n        /* \"#utility.yul\":3926:3965   */\n      add\n        /* \"#utility.yul\":3919:3965   */\n      swap2\n      pop\n        /* \"#utility.yul\":3688:3971   */\n      pop\n        /* \"#utility.yul\":3598:3971   */\n      swap3\n      swap2\n      pop\n      pop\n      jump\t// out\n        /* \"#utility.yul\":3977:4286   */\n    tag_9:\n        /* \"#utility.yul\":4088:4092   */\n      0x00\n        /* \"#utility.yul\":4126:4128   */\n      0x20\n        /* \"#utility.yul\":4115:4124   */\n      dup3\n        /* \"#utility.yul\":4111:4129   */\n      add\n        /* \"#utility.yul\":4103:4129   */\n      swap1\n      pop\n        /* \"#utility.yul\":4175:4184   */\n      dup2\n        /* \"#utility.yul\":4169:4173   */\n      dup2\n        /* \"#utility.yul\":4165:4185   */\n      sub\n        /* \"#utility.yul\":4161:4162   */\n      0x00\n        /* \"#utility.yul\":4150:4159   */\n      dup4\n        /* \"#utility.yul\":4146:4163   */\n      add\n        /* \"#utility.yul\":4139:4186   */\n      mstore\n        /* \"#utility.yul\":4203:4279   */\n      tag_82\n        /* \"#utility.yul\":4274:4278   */\n      dup2\n        /* \"#utility.yul\":4265:4271   */\n      dup5\n        /* \"#utility.yul\":4203:4279   */\n      tag_32\n      jump\t// in\n    tag_82:\n        /* \"#utility.yul\":4195:4279   */\n      swap1\n      pop\n        /* \"#utility.yul\":3977:4286   */\n      swap3\n      swap2\n      pop\n      pop\n      jump\t// out\n        /* \"#utility.yul\":4292:4472   */\n    tag_33:\n        /* \"#utility.yul\":4340:4417   */\n      0x4e487b7100000000000000000000000000000000000000000000000000000000\n        /* \"#utility.yul\":4337:4338   */\n      0x00\n        /* \"#utility.yul\":4330:4418   */\n      mstore\n        /* \"#utility.yul\":4437:4441   */\n      0x22\n        /* \"#utility.yul\":4434:4435   */\n      0x04\n        /* \"#utility.yul\":4427:4442   */\n      mstore\n        /* \"#utility.yul\":4461:4465   */\n      0x24\n        /* \"#utility.yul\":4458:4459   */\n      0x00\n        /* \"#utility.yul\":4451:4466   */\n      revert\n        /* \"#utility.yul\":4478:4798   */\n    tag_11:\n        /* \"#utility.yul\":4522:4528   */\n      0x00\n        /* \"#utility.yul\":4559:4560   */\n      0x02\n        /* \"#utility.yul\":4553:4557   */\n      dup3\n        /* \"#utility.yul\":4549:4561   */\n      div\n        /* \"#utility.yul\":4539:4561   */\n      swap1\n      pop\n        /* \"#utility.yul\":4606:4607   */\n      0x01\n        /* \"#utility.yul\":4600:4604   */\n      dup3\n        /* \"#utility.yul\":4596:4608   */\n      and\n        /* \"#utility.yul\":4627:4645   */\n      dup1\n        /* \"#utility.yul\":4617:4698   */\n      tag_85\n      jumpi\n        /* \"#utility.yul\":4683:4687   */\n      0x7f\n        /* \"#utility.yul\":4675:4681   */\n      dup3\n        /* \"#utility.yul\":4671:4688   */\n      and\n        /* \"#utility.yul\":4661:4688   */\n      swap2\n      pop\n        /* \"#utility.yul\":4617:4698   */\n    tag_85:\n        /* \"#utility.yul\":4745:4747   */\n      0x20\n        /* \"#utility.yul\":4737:4743   */\n      dup3\n        /* \"#utility.yul\":4734:4748   */\n      lt\n        /* \"#utility.yul\":4714:4732   */\n      dup2\n        /* \"#utility.yul\":4711:4749   */\n      sub\n        /* \"#utility.yul\":4708:4792   */\n      tag_86\n      jumpi\n        /* \"#utility.yul\":4764:4782   */\n      tag_87\n      tag_33\n      jump\t// in\n    tag_87:\n        /* \"#utility.yul\":4708:4792   */\n    tag_86:\n        /* \"#utility.yul\":4529:4798   */\n      pop\n        /* \"#utility.yul\":4478:4798   */\n      swap2\n      swap1\n      pop\n      jump\t// out\n\n    auxdata: 0xa26469706673582212200855382855592b85b139e424b012d0700cb9ec8aec4649e8e30abe00ab7afdb564736f6c63430008130033\n}\n",
				"bytecode": {
					"linkReferences": {},
					"object": "60806040523480156200001157600080fd5b5060405162000de438038062000de4833981810160405281019062000037919062000522565b60005b82518166ffffffffffffff161015620000df57818166ffffffffffffff16815181106200006c576200006b620005a7565b5b60200260200101516000848366ffffffffffffff1681518110620000955762000094620005a7565b5b6020026020010151604051620000ac919062000623565b90815260200160405180910390209081620000c8919062000887565b508080620000d690620009b0565b9150506200003a565b505050620009e4565b6000604051905090565b600080fd5b600080fd5b600080fd5b6000601f19601f8301169050919050565b7f4e487b7100000000000000000000000000000000000000000000000000000000600052604160045260246000fd5b6200014c8262000101565b810181811067ffffffffffffffff821117156200016e576200016d62000112565b5b80604052505050565b600062000183620000e8565b905062000191828262000141565b919050565b600067ffffffffffffffff821115620001b457620001b362000112565b5b602082029050602081019050919050565b600080fd5b600080fd5b600067ffffffffffffffff821115620001ed57620001ec62000112565b5b620001f88262000101565b9050602081019050919050565b60005b838110156200022557808201518184015260208101905062000208565b60008484015250505050565b6000620002486200024284620001cf565b62000177565b905082815260208101848484011115620002675762000266620001ca565b5b6200027484828562000205565b509392505050565b600082601f830112620002945762000293620000fc565b5b8151620002a684826020860162000231565b91505092915050565b6000620002c6620002c08462000196565b62000177565b90508083825260208201905060208402830185811115620002ec57620002eb620001c5565b5b835b818110156200033a57805167ffffffffffffffff811115620003155762000314620000fc565b5b8086016200032489826200027c565b85526020850194505050602081019050620002ee565b5050509392505050565b600082601f8301126200035c576200035b620000fc565b5b81516200036e848260208601620002af565b91505092915050565b600067ffffffffffffffff82111562000395576200039462000112565b5b602082029050602081019050919050565b600067ffffffffffffffff821115620003c457620003c362000112565b5b620003cf8262000101565b9050602081019050919050565b6000620003f3620003ed84620003a6565b62000177565b905082815260208101848484011115620004125762000411620001ca565b5b6200041f84828562000205565b509392505050565b600082601f8301126200043f576200043e620000fc565b5b815162000451848260208601620003dc565b91505092915050565b6000620004716200046b8462000377565b62000177565b90508083825260208201905060208402830185811115620004975762000496620001c5565b5b835b81811015620004e557805167ffffffffffffffff811115620004c057620004bf620000fc565b5b808601620004cf898262000427565b8552602085019450505060208101905062000499565b5050509392505050565b600082601f830112620005075762000506620000fc565b5b8151620005198482602086016200045a565b91505092915050565b600080604083850312156200053c576200053b620000f2565b5b600083015167ffffffffffffffff8111156200055d576200055c620000f7565b5b6200056b8582860162000344565b925050602083015167ffffffffffffffff8111156200058f576200058e620000f7565b5b6200059d85828601620004ef565b9150509250929050565b7f4e487b7100000000000000000000000000000000000000000000000000000000600052603260045260246000fd5b600081519050919050565b600081905092915050565b6000620005f982620005d6565b620006058185620005e1565b93506200061781856020860162000205565b80840191505092915050565b6000620006318284620005ec565b915081905092915050565b600081519050919050565b7f4e487b7100000000000000000000000000000000000000000000000000000000600052602260045260246000fd5b600060028204905060018216806200068f57607f821691505b602082108103620006a557620006a462000647565b5b50919050565b60008190508160005260206000209050919050565b60006020601f8301049050919050565b600082821b905092915050565b6000600883026200070f7fffffffffffffffffffffffffffffffffffffffffffffffffffffffffffffffff82620006d0565b6200071b8683620006d0565b95508019841693508086168417925050509392505050565b6000819050919050565b6000819050919050565b600062000768620007626200075c8462000733565b6200073d565b62000733565b9050919050565b6000819050919050565b620007848362000747565b6200079c62000793826200076f565b848454620006dd565b825550505050565b600090565b620007b3620007a4565b620007c081848462000779565b505050565b5b81811015620007e857620007dc600082620007a9565b600181019050620007c6565b5050565b601f82111562000837576200080181620006ab565b6200080c84620006c0565b810160208510156200081c578190505b620008346200082b85620006c0565b830182620007c5565b50505b505050565b600082821c905092915050565b60006200085c600019846008026200083c565b1980831691505092915050565b600062000877838362000849565b9150826002028217905092915050565b62000892826200063c565b67ffffffffffffffff811115620008ae57620008ad62000112565b5b620008ba825462000676565b620008c7828285620007ec565b600060209050601f831160018114620008ff5760008415620008ea578287015190505b620008f6858262000869565b86555062000966565b601f1984166200090f86620006ab565b60005b82811015620009395784890151825560018201915060208501945060208101905062000912565b8683101562000959578489015162000955601f89168262000849565b8355505b6001600288020188555050505b505050505050565b7f4e487b7100000000000000000000000000000000000000000000000000000000600052601160045260246000fd5b600066ffffffffffffff82169050919050565b6000620009bd826200099d565b915066ffffffffffffff8203620009d957620009d86200096e565b5b600182019050919050565b6103f080620009f46000396000f3fe608060405234801561001057600080fd5b506004361061002b5760003560e01c80635efbc21e14610030575b600080fd5b61004a60048036038101906100459190610270565b610060565b6040516100579190610338565b60405180910390f35b600081805160208101820180518482526020830160208501208183528095505050505050600091509050805461009590610389565b80601f01602080910402602001604051908101604052809291908181526020018280546100c190610389565b801561010e5780601f106100e35761010080835404028352916020019161010e565b820191906000526020600020905b8154815290600101906020018083116100f157829003601f168201915b505050505081565b6000604051905090565b600080fd5b600080fd5b600080fd5b600080fd5b6000601f19601f8301169050919050565b7f4e487b7100000000000000000000000000000000000000000000000000000000600052604160045260246000fd5b61017d82610134565b810181811067ffffffffffffffff8211171561019c5761019b610145565b5b80604052505050565b60006101af610116565b90506101bb8282610174565b919050565b600067ffffffffffffffff8211156101db576101da610145565b5b6101e482610134565b9050602081019050919050565b82818337600083830152505050565b600061021361020e846101c0565b6101a5565b90508281526020810184848401111561022f5761022e61012f565b5b61023a8482856101f1565b509392505050565b600082601f8301126102575761025661012a565b5b8135610267848260208601610200565b91505092915050565b60006020828403121561028657610285610120565b5b600082013567ffffffffffffffff8111156102a4576102a3610125565b5b6102b084828501610242565b91505092915050565b600081519050919050565b600082825260208201905092915050565b60005b838110156102f35780820151818401526020810190506102d8565b60008484015250505050565b600061030a826102b9565b61031481856102c4565b93506103248185602086016102d5565b61032d81610134565b840191505092915050565b6000602082019050818103600083015261035281846102ff565b905092915050565b7f4e487b7100000000000000000000000000000000000000000000000000000000600052602260045260246000fd5b600060028204905060018216806103a157607f821691505b6020821081036103b4576103b361035a565b5b5091905056fea26469706673582212200855382855592b85b139e424b012d0700cb9ec8aec4649e8e30abe00ab7afdb564736f6c63430008130033",
					"opcodes": "PUSH1 0x80 PUSH1 0x40 MSTORE CALLVALUE DUP1 ISZERO PUSH3 0x11 JUMPI PUSH1 0x0 DUP1 REVERT JUMPDEST POP PUSH1 0x40 MLOAD PUSH3 0xDE4 CODESIZE SUB DUP1 PUSH3 0xDE4 DUP4 CODECOPY DUP2 DUP2 ADD PUSH1 0x40 MSTORE DUP2 ADD SWAP1 PUSH3 0x37 SWAP2 SWAP1 PUSH3 0x522 JUMP JUMPDEST PUSH1 0x0 JUMPDEST DUP3 MLOAD DUP2 PUSH7 0xFFFFFFFFFFFFFF AND LT ISZERO PUSH3 0xDF JUMPI DUP2 DUP2 PUSH7 0xFFFFFFFFFFFFFF AND DUP2 MLOAD DUP2 LT PUSH3 0x6C JUMPI PUSH3 0x6B PUSH3 0x5A7 JUMP JUMPDEST JUMPDEST PUSH1 0x20 MUL PUSH1 0x20 ADD ADD MLOAD PUSH1 0x0 DUP5 DUP4 PUSH7 0xFFFFFFFFFFFFFF AND DUP2 MLOAD DUP2 LT PUSH3 0x95 JUMPI PUSH3 0x94 PUSH3 0x5A7 JUMP JUMPDEST JUMPDEST PUSH1 0x20 MUL PUSH1 0x20 ADD ADD MLOAD PUSH1 0x40 MLOAD PUSH3 0xAC SWAP2 SWAP1 PUSH3 0x623 JUMP JUMPDEST SWAP1 DUP2 MSTORE PUSH1 0x20 ADD PUSH1 0x40 MLOAD DUP1 SWAP2 SUB SWAP1 KECCAK256 SWAP1 DUP2 PUSH3 0xC8 SWAP2 SWAP1 PUSH3 0x887 JUMP JUMPDEST POP DUP1 DUP1 PUSH3 0xD6 SWAP1 PUSH3 0x9B0 JUMP JUMPDEST SWAP2 POP POP PUSH3 0x3A JUMP JUMPDEST POP POP POP PUSH3 0x9E4 JUMP JUMPDEST PUSH1 0x0 PUSH1 0x40 MLOAD SWAP1 POP SWAP1 JUMP JUMPDEST PUSH1 0x0 DUP1 REVERT JUMPDEST PUSH1 0x0 DUP1 REVERT JUMPDEST PUSH1 0x0 DUP1 REVERT JUMPDEST PUSH1 0x0 PUSH1 0x1F NOT PUSH1 0x1F DUP4 ADD AND SWAP1 POP SWAP2 SWAP1 POP JUMP JUMPDEST PUSH32 0x4E487B7100000000000000000000000000000000000000000000000000000000 PUSH1 0x0 MSTORE PUSH1 0x41 PUSH1 0x4 MSTORE PUSH1 0x24 PUSH1 0x0 REVERT JUMPDEST PUSH3 0x14C DUP3 PUSH3 0x101 JUMP JUMPDEST DUP2 ADD DUP2 DUP2 LT PUSH8 0xFFFFFFFFFFFFFFFF DUP3 GT OR ISZERO PUSH3 0x16E JUMPI PUSH3 0x16D PUSH3 0x112 JUMP JUMPDEST JUMPDEST DUP1 PUSH1 0x40 MSTORE POP POP POP JUMP JUMPDEST PUSH1 0x0 PUSH3 0x183 PUSH3 0xE8 JUMP JUMPDEST SWAP1 POP PUSH3 0x191 DUP3 DUP3 PUSH3 0x141 JUMP JUMPDEST SWAP2 SWAP1 POP JUMP JUMPDEST PUSH1 0x0 PUSH8 0xFFFFFFFFFFFFFFFF DUP3 GT ISZERO PUSH3 0x1B4 JUMPI PUSH3 0x1B3 PUSH3 0x112 JUMP JUMPDEST JUMPDEST PUSH1 0x20 DUP3 MUL SWAP1 POP PUSH1 0x20 DUP2 ADD SWAP1 POP SWAP2 SWAP1 POP JUMP JUMPDEST PUSH1 0x0 DUP1 REVERT JUMPDEST PUSH1 0x0 DUP1 REVERT JUMPDEST PUSH1 0x0 PUSH8 0xFFFFFFFFFFFFFFFF DUP3 GT ISZERO PUSH3 0x1ED JUMPI PUSH3 0x1EC PUSH3 0x112 JUMP JUMPDEST JUMPDEST PUSH3 0x1F8 DUP3 PUSH3 0x101 JUMP JUMPDEST SWAP1 POP PUSH1 0x20 DUP2 ADD SWAP1 POP SWAP2 SWAP1 POP JUMP JUMPDEST PUSH1 0x0 JUMPDEST DUP4 DUP2 LT ISZERO PUSH3 0x225 JUMPI DUP1 DUP3 ADD MLOAD DUP2 DUP5 ADD MSTORE PUSH1 0x20 DUP2 ADD SWAP1 POP PUSH3 0x208 JUMP JUMPDEST PUSH1 0x0 DUP5 DUP5 ADD MSTORE POP POP POP POP JUMP JUMPDEST PUSH1 0x0 PUSH3 0x248 PUSH3 0x242 DUP5 PUSH3 0x1CF JUMP JUMPDEST PUSH3 0x177 JUMP JUMPDEST SWAP1 POP DUP3 DUP2 MSTORE PUSH1 0x20 DUP2 ADD DUP5 DUP5 DUP5 ADD GT ISZERO PUSH3 0x267 JUMPI PUSH3 0x266 PUSH3 0x1CA JUMP JUMPDEST JUMPDEST PUSH3 0x274 DUP5 DUP3 DUP6 PUSH3 0x205 JUMP JUMPDEST POP SWAP4 SWAP3 POP POP POP JUMP JUMPDEST PUSH1 0x0 DUP3 PUSH1 0x1F DUP4 ADD SLT PUSH3 0x294 JUMPI PUSH3 0x293 PUSH3 0xFC JUMP JUMPDEST JUMPDEST DUP2 MLOAD PUSH3 0x2A6 DUP5 DUP3 PUSH1 0x20 DUP7 ADD PUSH3 0x231 JUMP JUMPDEST SWAP2 POP POP SWAP3 SWAP2 POP POP JUMP JUMPDEST PUSH1 0x0 PUSH3 0x2C6 PUSH3 0x2C0 DUP5 PUSH3 0x196 JUMP JUMPDEST PUSH3 0x177 JUMP JUMPDEST SWAP1 POP DUP1 DUP4 DUP3 MSTORE PUSH1 0x20 DUP3 ADD SWAP1 POP PUSH1 0x20 DUP5 MUL DUP4 ADD DUP6 DUP2 GT ISZERO PUSH3 0x2EC JUMPI PUSH3 0x2EB PUSH3 0x1C5 JUMP JUMPDEST JUMPDEST DUP4 JUMPDEST DUP2 DUP2 LT ISZERO PUSH3 0x33A JUMPI DUP1 MLOAD PUSH8 0xFFFFFFFFFFFFFFFF DUP2 GT ISZERO PUSH3 0x315 JUMPI PUSH3 0x314 PUSH3 0xFC JUMP JUMPDEST JUMPDEST DUP1 DUP7 ADD PUSH3 0x324 DUP10 DUP3 PUSH3 0x27C JUMP JUMPDEST DUP6 MSTORE PUSH1 0x20 DUP6 ADD SWAP5 POP POP POP PUSH1 0x20 DUP2 ADD SWAP1 POP PUSH3 0x2EE JUMP JUMPDEST POP POP POP SWAP4 SWAP3 POP POP POP JUMP JUMPDEST PUSH1 0x0 DUP3 PUSH1 0x1F DUP4 ADD SLT PUSH3 0x35C JUMPI PUSH3 0x35B PUSH3 0xFC JUMP JUMPDEST JUMPDEST DUP2 MLOAD PUSH3 0x36E DUP5 DUP3 PUSH1 0x20 DUP7 ADD PUSH3 0x2AF JUMP JUMPDEST SWAP2 POP POP SWAP3 SWAP2 POP POP JUMP JUMPDEST PUSH1 0x0 PUSH8 0xFFFFFFFFFFFFFFFF DUP3 GT ISZERO PUSH3 0x395 JUMPI PUSH3 0x394 PUSH3 0x112 JUMP JUMPDEST JUMPDEST PUSH1 0x20 DUP3 MUL SWAP1 POP PUSH1 0x20 DUP2 ADD SWAP1 POP SWAP2 SWAP1 POP JUMP JUMPDEST PUSH1 0x0 PUSH8 0xFFFFFFFFFFFFFFFF DUP3 GT ISZERO PUSH3 0x3C4 JUMPI PUSH3 0x3C3 PUSH3 0x112 JUMP JUMPDEST JUMPDEST PUSH3 0x3CF DUP3 PUSH3 0x101 JUMP JUMPDEST SWAP1 POP PUSH1 0x20 DUP2 ADD SWAP1 POP SWAP2 SWAP1 POP JUMP JUMPDEST PUSH1 0x0 PUSH3 0x3F3 PUSH3 0x3ED DUP5 PUSH3 0x3A6 JUMP JUMPDEST PUSH3 0x177 JUMP JUMPDEST SWAP1 POP DUP3 DUP2 MSTORE PUSH1 0x20 DUP2 ADD DUP5 DUP5 DUP5 ADD GT ISZERO PUSH3 0x412 JUMPI PUSH3 0x411 PUSH3 0x1CA JUMP JUMPDEST JUMPDEST PUSH3 0x41F DUP5 DUP3 DUP6 PUSH3 0x205 JUMP JUMPDEST POP SWAP4 SWAP3 POP POP POP JUMP JUMPDEST PUSH1 0x0 DUP3 PUSH1 0x1F DUP4 ADD SLT PUSH3 0x43F JUMPI PUSH3 0x43E PUSH3 0xFC JUMP JUMPDEST JUMPDEST DUP2 MLOAD PUSH3 0x451 DUP5 DUP3 PUSH1 0x20 DUP7 ADD PUSH3 0x3DC JUMP JUMPDEST SWAP2 POP POP SWAP3 SWAP2 POP POP JUMP JUMPDEST PUSH1 0x0 PUSH3 0x471 PUSH3 0x46B DUP5 PUSH3 0x377 JUMP JUMPDEST PUSH3 0x177 JUMP JUMPDEST SWAP1 POP DUP1 DUP4 DUP3 MSTORE PUSH1 0x20 DUP3 ADD SWAP1 POP PUSH1 0x20 DUP5 MUL DUP4 ADD DUP6 DUP2 GT ISZERO PUSH3 0x497 JUMPI PUSH3 0x496 PUSH3 0x1C5 JUMP JUMPDEST JUMPDEST DUP4 JUMPDEST DUP2 DUP2 LT ISZERO PUSH3 0x4E5 JUMPI DUP1 MLOAD PUSH8 0xFFFFFFFFFFFFFFFF DUP2 GT ISZERO PUSH3 0x4C0 JUMPI PUSH3 0x4BF PUSH3 0xFC JUMP JUMPDEST JUMPDEST DUP1 DUP7 ADD PUSH3 0x4CF DUP10 DUP3 PUSH3 0x427 JUMP JUMPDEST DUP6 MSTORE PUSH1 0x20 DUP6 ADD SWAP5 POP POP POP PUSH1 0x20 DUP2 ADD SWAP1 POP PUSH3 0x499 JUMP JUMPDEST POP POP POP SWAP4 SWAP3 POP POP POP JUMP JUMPDEST PUSH1 0x0 DUP3 PUSH1 0x1F DUP4 ADD SLT PUSH3 0x507 JUMPI PUSH3 0x506 PUSH3 0xFC JUMP JUMPDEST JUMPDEST DUP2 MLOAD PUSH3 0x519 DUP5 DUP3 PUSH1 0x20 DUP7 ADD PUSH3 0x45A JUMP JUMPDEST SWAP2 POP POP SWAP3 SWAP2 POP POP JUMP JUMPDEST PUSH1 0x0 DUP1 PUSH1 0x40 DUP4 DUP6 SUB SLT ISZERO PUSH3 0x53C JUMPI PUSH3 0x53B PUSH3 0xF2 JUMP JUMPDEST JUMPDEST PUSH1 0x0 DUP4 ADD MLOAD PUSH8 0xFFFFFFFFFFFFFFFF DUP2 GT ISZERO PUSH3 0x55D JUMPI PUSH3 0x55C PUSH3 0xF7 JUMP JUMPDEST JUMPDEST PUSH3 0x56B DUP6 DUP3 DUP7 ADD PUSH3 0x344 JUMP JUMPDEST SWAP3 POP POP PUSH1 0x20 DUP4 ADD MLOAD PUSH8 0xFFFFFFFFFFFFFFFF DUP2 GT ISZERO PUSH3 0x58F JUMPI PUSH3 0x58E PUSH3 0xF7 JUMP JUMPDEST JUMPDEST PUSH3 0x59D DUP6 DUP3 DUP7 ADD PUSH3 0x4EF JUMP JUMPDEST SWAP2 POP POP SWAP3 POP SWAP3 SWAP1 POP JUMP JUMPDEST PUSH32 0x4E487B7100000000000000000000000000000000000000000000000000000000 PUSH1 0x0 MSTORE PUSH1 0x32 PUSH1 0x4 MSTORE PUSH1 0x24 PUSH1 0x0 REVERT JUMPDEST PUSH1 0x0 DUP2 MLOAD SWAP1 POP SWAP2 SWAP1 POP JUMP JUMPDEST PUSH1 0x0 DUP2 SWAP1 POP SWAP3 SWAP2 POP POP JUMP JUMPDEST PUSH1 0x0 PUSH3 0x5F9 DUP3 PUSH3 0x5D6 JUMP JUMPDEST PUSH3 0x605 DUP2 DUP6 PUSH3 0x5E1 JUMP JUMPDEST SWAP4 POP PUSH3 0x617 DUP2 DUP6 PUSH1 0x20 DUP7 ADD PUSH3 0x205 JUMP JUMPDEST DUP1 DUP5 ADD SWAP2 POP POP SWAP3 SWAP2 POP POP JUMP JUMPDEST PUSH1 0x0 PUSH3 0x631 DUP3 DUP5 PUSH3 0x5EC JUMP JUMPDEST SWAP2 POP DUP2 SWAP1 POP SWAP3 SWAP2 POP POP JUMP JUMPDEST PUSH1 0x0 DUP2 MLOAD SWAP1 POP SWAP2 SWAP1 POP JUMP JUMPDEST PUSH32 0x4E487B7100000000000000000000000000000000000000000000000000000000 PUSH1 0x0 MSTORE PUSH1 0x22 PUSH1 0x4 MSTORE PUSH1 0x24 PUSH1 0x0 REVERT JUMPDEST PUSH1 0x0 PUSH1 0x2 DUP3 DIV SWAP1 POP PUSH1 0x1 DUP3 AND DUP1 PUSH3 0x68F JUMPI PUSH1 0x7F DUP3 AND SWAP2 POP JUMPDEST PUSH1 0x20 DUP3 LT DUP2 SUB PUSH3 0x6A5 JUMPI PUSH3 0x6A4 PUSH3 0x647 JUMP JUMPDEST JUMPDEST POP SWAP2 SWAP1 POP JUMP JUMPDEST PUSH1 0x0 DUP2 SWAP1 POP DUP2 PUSH1 0x0 MSTORE PUSH1 0x20 PUSH1 0x0 KECCAK256 SWAP1 POP SWAP2 SWAP1 POP JUMP JUMPDEST PUSH1 0x0 PUSH1 0x20 PUSH1 0x1F DUP4 ADD DIV SWAP1 POP SWAP2 SWAP1 POP JUMP JUMPDEST PUSH1 0x0 DUP3 DUP3 SHL SWAP1 POP SWAP3 SWAP2 POP POP JUMP JUMPDEST PUSH1 0x0 PUSH1 0x8 DUP4 MUL PUSH3 0x70F PUSH32 0xFFFFFFFFFFFFFFFFFFFFFFFFFFFFFFFFFFFFFFFFFFFFFFFFFFFFFFFFFFFFFFFF DUP3 PUSH3 0x6D0 JUMP JUMPDEST PUSH3 0x71B DUP7 DUP4 PUSH3 0x6D0 JUMP JUMPDEST SWAP6 POP DUP1 NOT DUP5 AND SWAP4 POP DUP1 DUP7 AND DUP5 OR SWAP3 POP POP POP SWAP4 SWAP3 POP POP POP JUMP JUMPDEST PUSH1 0x0 DUP2 SWAP1 POP SWAP2 SWAP1 POP JUMP JUMPDEST PUSH1 0x0 DUP2 SWAP1 POP SWAP2 SWAP1 POP JUMP JUMPDEST PUSH1 0x0 PUSH3 0x768 PUSH3 0x762 PUSH3 0x75C DUP5 PUSH3 0x733 JUMP JUMPDEST PUSH3 0x73D JUMP JUMPDEST PUSH3 0x733 JUMP JUMPDEST SWAP1 POP SWAP2 SWAP1 POP JUMP JUMPDEST PUSH1 0x0 DUP2 SWAP1 POP SWAP2 SWAP1 POP JUMP JUMPDEST PUSH3 0x784 DUP4 PUSH3 0x747 JUMP JUMPDEST PUSH3 0x79C PUSH3 0x793 DUP3 PUSH3 0x76F JUMP JUMPDEST DUP5 DUP5 SLOAD PUSH3 0x6DD JUMP JUMPDEST DUP3 SSTORE POP POP POP POP JUMP JUMPDEST PUSH1 0x0 SWAP1 JUMP JUMPDEST PUSH3 0x7B3 PUSH3 0x7A4 JUMP JUMPDEST PUSH3 0x7C0 DUP2 DUP5 DUP5 PUSH3 0x779 JUMP JUMPDEST POP POP POP JUMP JUMPDEST JUMPDEST DUP2 DUP2 LT ISZERO PUSH3 0x7E8 JUMPI PUSH3 0x7DC PUSH1 0x0 DUP3 PUSH3 0x7A9 JUMP JUMPDEST PUSH1 0x1 DUP2 ADD SWAP1 POP PUSH3 0x7C6 JUMP JUMPDEST POP POP JUMP JUMPDEST PUSH1 0x1F DUP3 GT ISZERO PUSH3 0x837 JUMPI PUSH3 0x801 DUP2 PUSH3 0x6AB JUMP JUMPDEST PUSH3 0x80C DUP5 PUSH3 0x6C0 JUMP JUMPDEST DUP2 ADD PUSH1 0x20 DUP6 LT ISZERO PUSH3 0x81C JUMPI DUP2 SWAP1 POP JUMPDEST PUSH3 0x834 PUSH3 0x82B DUP6 PUSH3 0x6C0 JUMP JUMPDEST DUP4 ADD DUP3 PUSH3 0x7C5 JUMP JUMPDEST POP POP JUMPDEST POP POP POP JUMP JUMPDEST PUSH1 0x0 DUP3 DUP3 SHR SWAP1 POP SWAP3 SWAP2 POP POP JUMP JUMPDEST PUSH1 0x0 PUSH3 0x85C PUSH1 0x0 NOT DUP5 PUSH1 0x8 MUL PUSH3 0x83C JUMP JUMPDEST NOT DUP1 DUP4 AND SWAP2 POP POP SWAP3 SWAP2 POP POP JUMP JUMPDEST PUSH1 0x0 PUSH3 0x877 DUP4 DUP4 PUSH3 0x849 JUMP JUMPDEST SWAP2 POP DUP3 PUSH1 0x2 MUL DUP3 OR SWAP1 POP SWAP3 SWAP2 POP POP JUMP JUMPDEST PUSH3 0x892 DUP3 PUSH3 0x63C JUMP JUMPDEST PUSH8 0xFFFFFFFFFFFFFFFF DUP2 GT ISZERO PUSH3 0x8AE JUMPI PUSH3 0x8AD PUSH3 0x112 JUMP JUMPDEST JUMPDEST PUSH3 0x8BA DUP3 SLOAD PUSH3 0x676 JUMP JUMPDEST PUSH3 0x8C7 DUP3 DUP3 DUP6 PUSH3 0x7EC JUMP JUMPDEST PUSH1 0x0 PUSH1 0x20 SWAP1 POP PUSH1 0x1F DUP4 GT PUSH1 0x1 DUP2 EQ PUSH3 0x8FF JUMPI PUSH1 0x0 DUP5 ISZERO PUSH3 0x8EA JUMPI DUP3 DUP8 ADD MLOAD SWAP1 POP JUMPDEST PUSH3 0x8F6 DUP6 DUP3 PUSH3 0x869 JUMP JUMPDEST DUP7 SSTORE POP PUSH3 0x966 JUMP JUMPDEST PUSH1 0x1F NOT DUP5 AND PUSH3 0x90F DUP7 PUSH3 0x6AB JUMP JUMPDEST PUSH1 0x0 JUMPDEST DUP3 DUP2 LT ISZERO PUSH3 0x939 JUMPI DUP5 DUP10 ADD MLOAD DUP3 SSTORE PUSH1 0x1 DUP3 ADD SWAP2 POP PUSH1 0x20 DUP6 ADD SWAP5 POP PUSH1 0x20 DUP2 ADD SWAP1 POP PUSH3 0x912 JUMP JUMPDEST DUP7 DUP4 LT ISZERO PUSH3 0x959 JUMPI DUP5 DUP10 ADD MLOAD PUSH3 0x955 PUSH1 0x1F DUP10 AND DUP3 PUSH3 0x849 JUMP JUMPDEST DUP4 SSTORE POP JUMPDEST PUSH1 0x1 PUSH1 0x2 DUP9 MUL ADD DUP9 SSTORE POP POP POP JUMPDEST POP POP POP POP POP POP JUMP JUMPDEST PUSH32 0x4E487B7100000000000000000000000000000000000000000000000000000000 PUSH1 0x0 MSTORE PUSH1 0x11 PUSH1 0x4 MSTORE PUSH1 0x24 PUSH1 0x0 REVERT JUMPDEST PUSH1 0x0 PUSH7 0xFFFFFFFFFFFFFF DUP3 AND SWAP1 POP SWAP2 SWAP1 POP JUMP JUMPDEST PUSH1 0x0 PUSH3 0x9BD DUP3 PUSH3 0x99D JUMP JUMPDEST SWAP2 POP PUSH7 0xFFFFFFFFFFFFFF DUP3 SUB PUSH3 0x9D9 JUMPI PUSH3 0x9D8 PUSH3 0x96E JUMP JUMPDEST JUMPDEST PUSH1 0x1 DUP3 ADD SWAP1 POP SWAP2 SWAP1 POP JUMP JUMPDEST PUSH2 0x3F0 DUP1 PUSH3 0x9F4 PUSH1 0x0 CODECOPY PUSH1 0x0 RETURN INVALID PUSH1 0x80 PUSH1 0x40 MSTORE CALLVALUE DUP1 ISZERO PUSH2 0x10 JUMPI PUSH1 0x0 DUP1 REVERT JUMPDEST POP PUSH1 0x4 CALLDATASIZE LT PUSH2 0x2B JUMPI PUSH1 0x0 CALLDATALOAD PUSH1 0xE0 SHR DUP1 PUSH4 0x5EFBC21E EQ PUSH2 0x30 JUMPI JUMPDEST PUSH1 0x0 DUP1 REVERT JUMPDEST PUSH2 0x4A PUSH1 0x4 DUP1 CALLDATASIZE SUB DUP2 ADD SWAP1 PUSH2 0x45 SWAP2 SWAP1 PUSH2 0x270 JUMP JUMPDEST PUSH2 0x60 JUMP JUMPDEST PUSH1 0x40 MLOAD PUSH2 0x57 SWAP2 SWAP1 PUSH2 0x338 JUMP JUMPDEST PUSH1 0x40 MLOAD DUP1 SWAP2 SUB SWAP1 RETURN JUMPDEST PUSH1 0x0 DUP2 DUP1 MLOAD PUSH1 0x20 DUP2 ADD DUP3 ADD DUP1 MLOAD DUP5 DUP3 MSTORE PUSH1 0x20 DUP4 ADD PUSH1 0x20 DUP6 ADD KECCAK256 DUP2 DUP4 MSTORE DUP1 SWAP6 POP POP POP POP POP POP PUSH1 0x0 SWAP2 POP SWAP1 POP DUP1 SLOAD PUSH2 0x95 SWAP1 PUSH2 0x389 JUMP JUMPDEST DUP1 PUSH1 0x1F ADD PUSH1 0x20 DUP1 SWAP2 DIV MUL PUSH1 0x20 ADD PUSH1 0x40 MLOAD SWAP1 DUP2 ADD PUSH1 0x40 MSTORE DUP1 SWAP3 SWAP2 SWAP1 DUP2 DUP2 MSTORE PUSH1 0x20 ADD DUP3 DUP1 SLOAD PUSH2 0xC1 SWAP1 PUSH2 0x389 JUMP JUMPDEST DUP1 ISZERO PUSH2 0x10E JUMPI DUP1 PUSH1 0x1F LT PUSH2 0xE3 JUMPI PUSH2 0x100 DUP1 DUP4 SLOAD DIV MUL DUP4 MSTORE SWAP2 PUSH1 0x20 ADD SWAP2 PUSH2 0x10E JUMP JUMPDEST DUP3 ADD SWAP2 SWAP1 PUSH1 0x0 MSTORE PUSH1 0x20 PUSH1 0x0 KECCAK256 SWAP1 JUMPDEST DUP2 SLOAD DUP2 MSTORE SWAP1 PUSH1 0x1 ADD SWAP1 PUSH1 0x20 ADD DUP1 DUP4 GT PUSH2 0xF1 JUMPI DUP3 SWAP1 SUB PUSH1 0x1F AND DUP3 ADD SWAP2 JUMPDEST POP POP POP POP POP DUP2 JUMP JUMPDEST PUSH1 0x0 PUSH1 0x40 MLOAD SWAP1 POP SWAP1 JUMP JUMPDEST PUSH1 0x0 DUP1 REVERT JUMPDEST PUSH1 0x0 DUP1 REVERT JUMPDEST PUSH1 0x0 DUP1 REVERT JUMPDEST PUSH1 0x0 DUP1 REVERT JUMPDEST PUSH1 0x0 PUSH1 0x1F NOT PUSH1 0x1F DUP4 ADD AND SWAP1 POP SWAP2 SWAP1 POP JUMP JUMPDEST PUSH32 0x4E487B7100000000000000000000000000000000000000000000000000000000 PUSH1 0x0 MSTORE PUSH1 0x41 PUSH1 0x4 MSTORE PUSH1 0x24 PUSH1 0x0 REVERT JUMPDEST PUSH2 0x17D DUP3 PUSH2 0x134 JUMP JUMPDEST DUP2 ADD DUP2 DUP2 LT PUSH8 0xFFFFFFFFFFFFFFFF DUP3 GT OR ISZERO PUSH2 0x19C JUMPI PUSH2 0x19B PUSH2 0x145 JUMP JUMPDEST JUMPDEST DUP1 PUSH1 0x40 MSTORE POP POP POP JUMP JUMPDEST PUSH1 0x0 PUSH2 0x1AF PUSH2 0x116 JUMP JUMPDEST SWAP1 POP PUSH2 0x1BB DUP3 DUP3 PUSH2 0x174 JUMP JUMPDEST SWAP2 SWAP1 POP JUMP JUMPDEST PUSH1 0x0 PUSH8 0xFFFFFFFFFFFFFFFF DUP3 GT ISZERO PUSH2 0x1DB JUMPI PUSH2 0x1DA PUSH2 0x145 JUMP JUMPDEST JUMPDEST PUSH2 0x1E4 DUP3 PUSH2 0x134 JUMP JUMPDEST SWAP1 POP PUSH1 0x20 DUP2 ADD SWAP1 POP SWAP2 SWAP1 POP JUMP JUMPDEST DUP3 DUP2 DUP4 CALLDATACOPY PUSH1 0x0 DUP4 DUP4 ADD MSTORE POP POP POP JUMP JUMPDEST PUSH1 0x0 PUSH2 0x213 PUSH2 0x20E DUP5 PUSH2 0x1C0 JUMP JUMPDEST PUSH2 0x1A5 JUMP JUMPDEST SWAP1 POP DUP3 DUP2 MSTORE PUSH1 0x20 DUP2 ADD DUP5 DUP5 DUP5 ADD GT ISZERO PUSH2 0x22F JUMPI PUSH2 0x22E PUSH2 0x12F JUMP JUMPDEST JUMPDEST PUSH2 0x23A DUP5 DUP3 DUP6 PUSH2 0x1F1 JUMP JUMPDEST POP SWAP4 SWAP3 POP POP POP JUMP JUMPDEST PUSH1 0x0 DUP3 PUSH1 0x1F DUP4 ADD SLT PUSH2 0x257 JUMPI PUSH2 0x256 PUSH2 0x12A JUMP JUMPDEST JUMPDEST DUP2 CALLDATALOAD PUSH2 0x267 DUP5 DUP3 PUSH1 0x20 DUP7 ADD PUSH2 0x200 JUMP JUMPDEST SWAP2 POP POP SWAP3 SWAP2 POP POP JUMP JUMPDEST PUSH1 0x0 PUSH1 0x20 DUP3 DUP5 SUB SLT ISZERO PUSH2 0x286 JUMPI PUSH2 0x285 PUSH2 0x120 JUMP JUMPDEST JUMPDEST PUSH1 0x0 DUP3 ADD CALLDATALOAD PUSH8 0xFFFFFFFFFFFFFFFF DUP2 GT ISZERO PUSH2 0x2A4 JUMPI PUSH2 0x2A3 PUSH2 0x125 JUMP JUMPDEST JUMPDEST PUSH2 0x2B0 DUP5 DUP3 DUP6 ADD PUSH2 0x242 JUMP JUMPDEST SWAP2 POP POP SWAP3 SWAP2 POP POP JUMP JUMPDEST PUSH1 0x0 DUP2 MLOAD SWAP1 POP SWAP2 SWAP1 POP JUMP JUMPDEST PUSH1 0x0 DUP3 DUP3 MSTORE PUSH1 0x20 DUP3 ADD SWAP1 POP SWAP3 SWAP2 POP POP JUMP JUMPDEST PUSH1 0x0 JUMPDEST DUP4 DUP2 LT ISZERO PUSH2 0x2F3 JUMPI DUP1 DUP3 ADD MLOAD DUP2 DUP5 ADD MSTORE PUSH1 0x20 DUP2 ADD SWAP1 POP PUSH2 0x2D8 JUMP JUMPDEST PUSH1 0x0 DUP5 DUP5 ADD MSTORE POP POP POP POP JUMP JUMPDEST PUSH1 0x0 PUSH2 0x30A DUP3 PUSH2 0x2B9 JUMP JUMPDEST PUSH2 0x314 DUP2 DUP6 PUSH2 0x2C4 JUMP JUMPDEST SWAP4 POP PUSH2 0x324 DUP2 DUP6 PUSH1 0x20 DUP7 ADD PUSH2 0x2D5 JUMP JUMPDEST PUSH2 0x32D DUP2 PUSH2 0x134 JUMP JUMPDEST DUP5 ADD SWAP2 POP POP SWAP3 SWAP2 POP POP JUMP JUMPDEST PUSH1 0x0 PUSH1 0x20 DUP3 ADD SWAP1 POP DUP2 DUP2 SUB PUSH1 0x0 DUP4 ADD MSTORE PUSH2 0x352 DUP2 DUP5 PUSH2 0x2FF JUMP JUMPDEST SWAP1 POP SWAP3 SWAP2 POP POP JUMP JUMPDEST PUSH32 0x4E487B7100000000000000000000000000000000000000000000000000000000 PUSH1 0x0 MSTORE PUSH1 0x22 PUSH1 0x4 MSTORE PUSH1 0x24 PUSH1 0x0 REVERT JUMPDEST PUSH1 0x0 PUSH1 0x2 DUP3 DIV SWAP1 POP PUSH1 0x1 DUP3 AND DUP1 PUSH2 0x3A1 JUMPI PUSH1 0x7F DUP3 AND SWAP2 POP JUMPDEST PUSH1 0x20 DUP3 LT DUP2 SUB PUSH2 0x3B4 JUMPI PUSH2 0x3B3 PUSH2 0x35A JUMP JUMPDEST JUMPDEST POP SWAP2 SWAP1 POP JUMP INVALID LOG2 PUSH5 0x6970667358 0x22 SLT KECCAK256 ADDMOD SSTORE CODESIZE 0x28 SSTORE MSIZE 0x2B DUP6 0xB1 CODECOPY 0xE4 0x24 0xB0 SLT 0xD0 PUSH17 0xCB9EC8AEC4649E8E30ABE00AB7AFDB564 PUSH20 0x6F6C634300081300330000000000000000000000 "
				},
				"gasEstimates": {
					"creation": {
						"codeDepositCost": "201600",
						"executionCost": "infinite",
						"totalCost": "infinite"
					},
					"external": {
						"contractInfomation(string)": "infinite"
					}
				},
				"methodIdentifiers": {
					"contractInfomation(string)": "5efbc21e"
				}
			},
			"storageLayout": {
				"storage": [
					{
						"astId": 5,
						"contract": "contracts/SupplyChain.sol:SupplyChain",
						"label": "contractInfomation",
						"offset": 0,
						"slot": "0",
						"type": "t_mapping(t_string_memory_ptr,t_bytes_storage)"
					}
				],
				"types": {
					"t_bytes_storage": {
						"encoding": "bytes",
						"label": "bytes",
						"numberOfBytes": "32"
					},
					"t_mapping(t_string_memory_ptr,t_bytes_storage)": {
						"encoding": "mapping",
						"key": "t_string_memory_ptr",
						"label": "mapping(string => bytes)",
						"numberOfBytes": "32",
						"value": "t_bytes_storage"
					},
					"t_string_memory_ptr": {
						"encoding": "bytes",
						"label": "string",
						"numberOfBytes": "32"
					}
				}
			},
			"userdoc": {
				"kind": "user",
				"methods": {},
				"version": 1
			}
		}
	}
}